:020000040800F2
:20840000F03D00200585000897F30008A5EF000895F30008B389000831270108000000001A
:2084200000000000000000000000000031010108BFB600080000000051F70008050C01081A
:208440001F8500081BF700081F8500081F8500081F8500081F8500081F8500083BB80008FF
:2084600041B800081F8500081F8500081F85000889B6000895B600081F8500081F85000805
:208480001F8500081F8500081F8500081F850008792201081F8500081F8500081F85000884
:2084A0001F8500081F8500081F8500081F850008C50C0108D10C01081F8500081F850008F4
:2084C0001F8500081F8500081F8500081F8500081F8500081F8500084D1101081F85000881
:2084E0001DB800081F8500081F850008DFF810D000F046F800480047093B0108AFF3008064
:20850000F03D00200648804706480047FEE7FEE7FEE7FEE7FEE7FEE7FEE7FEE7FEE7FEE772
:20852000790C0108ED84000840EA01039B0703D009E008C9121F08C0042AFAD203E011F8F8
:20854000013B00F8013B521EF9D27047D2B201E000F8012B491EFBD270470022F6E710B581
:2085600013460A4604461946FFF7F0FF204610BD421C10F8011B0029FBD1801A70470000C9
:20858000064C074D06E0E06840F0010394E8070098471034AC42F6D3FFF7ACFFBC560108BA
:2085A000DC56010870B58C1810F8015B15F0070301D110F8013B2A1106D110F8012B03E005
:2085C00010F8016B01F8016B5B1EF9D12B0705D40023521E0DD401F8013BFAE710F8013BA6
:2085E000CB1A921C03E013F8015B01F8015B521EF9D5A142D8D3002070BD000070B50446C1
:2086000000688168C943C9071CD1816821F00101816004F075FB05460FE000BF04F070FBA7
:20862000401B022809D9A06A40F01000A062E06A40F00100E062012070BD20688068C04309
:20864000C007EBD0002070BDF8B500260446009600688168C943C90728D0816841F0010157
:208660008160134813490068B0FBF1F000E0401E00900028FBD104F043FB054611E000BF7F
:2086800004F03EFB401B02280BD9A06A40F01000A062E06A40F00100E06284F8246001201A
:2086A000F8BD20688068C043C007E9D10020F8BD8400002040420F0010B500F093F8302077
:2086C00000F0A4F8942000F0A1F8D12000F09EF8202000F09BF80B2000F0B2F8812000F041
:2086E00095F83F2000F0ACF8032000F0A9F8F02000F08CF8102000F0A3F8CA2000F086F8AF
:20870000002000F09DF8872000F09AF8202000F097F8BC2000F07AF8002000F091F8A6202F
:2087200000F074F8762000F071F8752000F06EF8002000F085F8282000F082F8152000F09F
:2087400065F8002000F07CF8FF2000F079F8312000F05CF8322000F059F8002000F070F818
:20876000022000F06DF8012000F06AF8512000F04DF8FB2000F064F8402000F047F8F4205F
:2087800000F044F8002000F05BF8002000F058F8002000F055F8002000F052F8002000F023
:2087A0004FF8002000F04CF8002000F049F8002000F046F8F02000F029F8152000F040F801
:2087C000152000F03DF8152000F03AF8152000F037F8302000F01AF8BDE81040AF2000F08E
:2087E00015B8000010B5084C0020C4F8AC01322004F5D6740AF064F901202060BDE8104088
:2088000032200AF05DB900000000224231B509490020C1F8A801084CC4F8BC010A230122BB
:208820006946064804F5DE7405F0F2FC0120206038BD00000000224200002142C02F0020A1
:2088400031B509480124C0F8A841084D0020C5F8BC010A2322466946054805F5DE7505F059
:20886000D7FC2C6038BD00000000224200002142C02F002000F05CBF01F0BAB9012002F04C
:208880001FBA012001F0B2BA012001F0D9BB0000114810B5008800EB001101EB40110F48A5
:2088A00000EB8100C17B807B00EBC00202EB001001EB800000F6F430B0F5005F08D0872062
:2088C000074A00215318491C58700429FADB10BD01F04AF8F4E70000920000204803002094
:2088E000880F002070B5274D04464FF0000649B114E001221021284604F0FCF964200AF082
:20890000F5F8761CA642F4D334E001221021284604F0F0F964200AF0E9F8761CA642F4D3D6
:2089200000221021284604F0E5F964200AF0C8F8002608E001221021284604F0DBF964204A
:208940000AF0D4F8761CA642F4D300221021284604F0D0F964200AF0B3F8002608E0012238
:208960001021284604F0C6F964200AF0BFF8761CA642F4D32846BDE870400022102104F025
:20898000B9B900000010014030B50246002001465FF0010422FA01F3DB0705D0C1F10705A7
:2089A00004FA05F30343D8B2491CC9B20729F1D330BDFEE7084882B0416941F0400141610B
:2089C0004069074900F04000009004480860084602B003F0D1BD00000010024000300240E5
:2089E0000403002010B50AF0B7FB002404E000211B480155601CC4B2042CF8DB00F032F8EE
:208A0000002000F0D9FB00F065FA00F025FA002000F0D2FB102000F04FFA00F01DFA10486F
:208A2000401E407858B10E48401E807838B10C48401EC07818B10A48401E007960B90AF093
:208A40005BFB002000F0B8FB00F026FD0AF03EFC00F08EFA00F000FA00F0FEF910BD0000A0
:208A6000890F002010B504201149087018E0012000F0A2FB00F02EFA0E48407840B10D4871
:208A8000807828B10B48C07810B10A48007900B90AE000F0E1F906480078801C044908705A
:208AA000034800780A28E2DB00BF00F0D5F910BD21030020880F00202DE9F04705460E46D3
:208AC00017464FF0A5084FF00009A94600F090FCDD4800784FF4F00101EAC040DB49086052
:208AE00000242FE008F0010040B1D74800784FF4707101EA8010D649086107E0D248007822
:208B00004FF0707101EA8050D1490861D14800688047CD480078782101EAC000CB49086062
:208B2000CC4800688047C84800784FF4F00101EAC040C64908604FEA5808C64800688047FE
:208B4000601CC4B2082CCDDBBF4800784FF4707101EA8010BE490861BE4800688047BA4882
:208B60000078782101EAC000B8490860B94800688047B54800784FF4F00101EAC040B34910
:208B80000860B44800688047AF480078782101EAC000AE490860AF4800688047AA480078A0
:208BA0004FF4F00101EAC040A8490860A94800688047A5480078782101EAC000A349086020
:208BC000A44800688047A04800784FF4F00101EAC0409E4908609F48006880479A4800783C
:208BE000782101EAC000994908609A4800688047954800784FF4F00101EAC040934908601E
:208C000094480068804790480078782101EAC0008E4908608F48006880478B4800784FF4E2
:208C2000F00101EAC040894908608A480068804700242EE007F0010040B1834800784FF47C
:208C4000707101EA80108249086107E07E4800784FF0707101EA80507D4908617D48006828
:208C6000804779480078782101EAC00077490860784800688047744800784FF4F00101EA46
:208C8000C040724908607F10724800688047601CC4B2102CCEDB00242EE006F0010040B148
:208CA000694800784FF4707101EA80106849086107E0654800784FF0707101EA805064493E
:208CC00008616448006880475F480078782101EAC0005E4908605F48006880475A480078EE
:208CE0004FF4F00101EAC040584908607610594800688047601CC4B2062CCEDB00242FE0F6
:208D000009F0010040B1504800784FF4707101EA80104F49086107E04B4800784FF07071A6
:208D200001EA80504A4908614A480068804746480078782101EAC000444908604548006887
:208D40008047414800784FF4F00101EAC0403F4908604FEA69093F4800688047601CC4B2E9
:208D6000082CCDDB85EA251585EAA50585EA650505F0010040B1344800784FF4707101EA92
:208D800080103349086107E02F4800784FF0707101EA80502E4908612E48006880472A48B6
:208DA0000078782101EAC00028490860294800688047254800784FF4F00101EAC04023490E
:208DC00008602448006880471F4800784FF4707101EA80101E4908611E4800688047002489
:208DE00016E019480078782101EAC00017490860184800688047144800784FF4F00101EA16
:208E0000C04012490860134800688047601CC4B2032CE6DB0C480078782101EAC0000B49BF
:208E200008600C4800688047074800784FF4F00101EAC0400549086006480068804700F03E
:208E400005FBBDE8F08700008E000020100C0140001001402403002010B5144800784FF477
:208E6000F00101EAC04012490860104800784FF0707101EA80500F490861002007F05CFE76
:208E80001E2009F012FE09480078FFF77DFD00F0F004204607F050FE142009F006FE002072
:208EA00007F04AFE192009F00BFE10BD8E000020100C01400010014010B50446062009F0E1
:208EC000FFFD002221461046FFF7F6FD0F2009F0F7FD10BD1CB54FF4004220210020FFF738
:208EE000EBFD01A800F07CF8684600F079F8002417E001A8005D87280ED11DF8040001287D
:208F00000AD11A48005D18B11848005D012806D100211648015502E0982114480155601C93
:208F2000C4B2042CE5DB9DF80400872803D19DF80000012819D09DF80500872803D19DF856
:208F40000100012811D09DF80600872803D19DF80200012809D09DF80700872803D19DF89B
:208F60000300012801D0FFF777FF1CBD890F002038B5002202211046FFF79EFD002527E0B2
:208F8000684600F02DF800240BE01DF80400552805D01248005D10B9932110480155601C36
:208FA00084B2042CF1DB9DF8000055280ED09DF8010055280AD09DF80200552806D09DF823
:208FC0000300552802D0FFF747FF38BD681C85B2B5F5006FD4DB00BFF7E70000890F002036
:208FE00070B5044600F004FA052009F07FFD6E48006820F07F4040F088406B49086008462B
:20900000406820F0FF0040F04400486008040861052009F06BFD002542E0207840102070C3
:20902000607840106070A0784010A070E0784010E0705E480078782101EAC0005C49086059
:209040005C48006880475848806800F4007010B12078803020705448806800F4807010B18F
:209060006078803060705048806800F0800010B1A0788030A0704C48806800F0400010B1A2
:20908000E0788030E070494800784FF4F00101EAC04047490860474800688047681CC5B29F
:2090A000082DBADB43480068804740480078782101EAC0003E4908603E48006880473B48C1
:2090C00000784FF4F00101EAC040394908603948006880473448006820F07F4040F08850A4
:2090E000314908600846406820F0FF0040F011004860881408612D4800784FF0707101EAA3
:209100008050294908612B480068804727480078782101EAC0002649086026480068804763
:20912000224800784FF4F00101EAC040204908602048006880471D480078782101EAC000A5
:209140001B4908601B4800688047184800784FF4F00101EAC0401649086016480068804766
:2091600012480078782101EAC000114908601148006880470D4800784FF4F00101EAC040A3
:209180000B4908600B480068804708480078782101EAC0000649086006480068804700F061
:2091A00055F9002070BD0000001001408E000020100C0140240300202DE9F041064688480E
:2091C00000784FF4F00101EAC04086490860844800784FF0707101EA8050834908616420E9
:2091E00009F084FC002007F0A7FC322009F05DFC7B480078FFF7C8FB0709384607F09CFC87
:209200007A48007809F05CFC75480078782101EAC000744908600A2009F068FC002417E083
:209220006F4800784FF0707101EA80506E4908610A2009F05BFC6A4800784FF4707101EA51
:209240008010694908610A2009F050FC601CC4B20D2CE5DB0A2009F049FC002416E06048DF
:2092600000784FF4F00101EAC0405E4908600A2009F03CFC5A480078782101EAC0005949ED
:2092800008600A2009F032FC601CC4B20D2CE6DB0A2009F02BFC002417E0514800784FF074
:2092A000707101EA8050504908610A2009F01EFC4B4800784FF4707101EA80104A4908612D
:2092C0000A2009F013FC601CC4B20D2CE5DB1EB90A2009F00BFC02E00A2009F0F1FB4048F7
:2092E00000784FF4F00101EAC0403E4908604BF25A15002431E005F4004040B138480078E5
:209300004FF4707101EA80103749086107E0344800784FF0707101EA8050334908610A2000
:2093200009F0E4FB2E480078782101EAC0002D4908600A2009F0DAFB294800784FF4F00130
:2093400001EAC040274908604FF6FF7000EA45050A2009F0CBFB601CC4B2102CCBDB0A207B
:2093600009F0C4FB4AF21B55002431E005F4004040B11B4800784FF4707101EA80101A494D
:20938000086107E0164800784FF0707101EA8050154908610A2009F0A9FB114800787821D4
:2093A00001EAC0000F4908600A2009F09FFB0C4800784FF4F00101EAC0400A4908604FF69A
:2093C000FF7000EA45050A2009F090FB601CC4B2102CCBDB1E2009F073FBBDE8F0810000AD
:2093E0008E000020100C0140001001402103002010B5134800784FF4707101EA801011493C
:2094000008610F480078782101EAC0000E490860052009F06BFB0A4800784FF0707101EAB8
:20942000805008490861052009F060FB044800784FF4F00101EAC0400349086010BD0000C5
:209440008E00002000100140100C014010B50F4800784FF0707101EA80500D4908610B482F
:209460000078782101EAC0000A490860052009F03DFB064800784FF4707101EA801004496D
:209480000861052009F032FB10BD00008E00002000100140100C014070B555250022042109
:2094A0002846FFF709FB0A2009F020FB0A2009F01DFB0A2009F01AFB012407E0284600F029
:2094C0000BF80A2009F012FB601C84B2B4F5006FF4DB002070BD000070B504462546FFF7A3
:2094E00087FF744800784FF4F00101EAC0407249086000262EE005F0010040B16D48007828
:209500004FF4707101EA80106C49086107E0694800784FF0707101EA8050684908616848D9
:209520000068804763480078782101EAC000624908606348006880475E4800784FF4F00156
:2095400001EAC0405C4908606D105D4800688047701CC6B2082ECEDB84EA241484EAA40423
:2095600084EA640404F0010040B1524800784FF4707101EA80105149086107E04D48007887
:209580004FF0707101EA80504C4908614C480068804748480078782101EAC00046490860EC
:2095A000474800688047434800784FF4F00101EAC040414908604248006880473F48006831
:2095C00020F07F4040F088403C4908600846406820F0FF0040F044004860080408613848C1
:2095E0000068804733480078782101EAC000324908603348006880472E4800784FF4F00156
:2096000001EAC0402C4908602D48006880472B48006820F07F4040F0885028490860084605
:20962000406820F0FF0040F01100486088140861204800784FF0707101EA80501F490861F9
:209640001F48006880471B480078782101EAC000194908601A4800688047164800784FF4E1
:20966000F00101EAC0401449086015480068804710480078782101EAC0000F490860104891
:20968000006880470B4800784FF4F00101EAC040094908600A480068804706480078782117
:2096A00001EAC00004490860054800688047FFF7CDFE70BD8E000020100C01400010014084
:2096C0002403002010B502201749087012E001F063FD01F053FA01F067FA06F03BF800B1D7
:2096E0000CE001F057FA01F019FA0F480078401C0D4908700C4800781428E8DB00BF06F0BF
:2097000029F800B910BD08480078022804DD064800780649087005E0034800784006000E46
:209720000249087000BFEDE73A0300203B03002010B501F031FD01F021FA01F035FA01F017
:2097400029FA01F0EBF910BD08B1034900E00349034A116070470000B9B30008A9B30008C6
:209760003C030020FEB56BA103C9CDE9000100F0E1F86A4908700846007800287DD001F028
:2097800037FD4EF6165000F0A5FE6549098801EB011202EB4111634A02EB81014969081FE6
:2097A00000F0D6FE6048006820F07F4040F088405D4908600846406820F0FF0040F0440087
:2097C00048600804086100269FE002A800F056FA032E76D1002493E002A8005D00F00100D6
:2097E00000286FD001F00AF801F002FD41F2162000F070FE4A49098801EB011202EB4111F6
:20980000484A02EB81014969A1F1080000F0A0FE9DF800002246002100F084FD9DF8010048
:209820002246002100F07EFD9DF802002246002100F078FD9DF803002246012100F072FD2E
:209840009DF804002246002100F06CFD9DF805002246002100F066FD9DF8060022460021F3
:2098600000F060FD9DF807002246012100F05AFD01F0BEFC4EF6165000E049E000F02AFEB8
:209880002749098801EB011202EB4111254A02EB81014969A1F1080000F05AFE2248006845
:2098A00020F07F4040F088401F4908600846406820F0FF0040F04400486008040861002556
:2098C0001AE020E01AE002A800F0D8F902A8005D1DF8051088420DD01448005D50B9144833
:2098E0000078A04000F0080020B101F081FC93210E480155681CC5B2082DE4DB601CC4B298
:20990000042CFFF669AF701CC6B2042EFFF65DAFFEBD0000FFFFFFFFFFFFFFFF39030020C4
:20992000920000204803002000100140890F00208E000020002000210EE04206100E084A6C
:20994000525C3AB9074A12788A4002F008020AB140F001004A1CD1B20429EEDB7047000043
:20996000890F00208E0000202DE9F84F4FF0000B00200090814800884FF4A02101EB404960
:2099800000257E48008800EB001101EB40107C4901EB80004069C0F3872A00266BE04FF42A
:2099A00080627849484605F029FFAAF10100B0423DD17248008800EB001101EB401070498A
:2099C00001EB8000B0F866006C49098801EB011202EB41116A4A02EB8101B1F86E100844F3
:2099E00087B26648008800EB001101EB4010114601EB8000B0F87280FF2063494870087068
:209A00004FEA1820887081F80380380A08714F71FF2088715B4890F8FF03C8715B480068DD
:209A200028B1584890F8FF0300F0FE00C871002408E05448005D284485B25248005D834496
:209A4000601C84B2B4F5806FF3DBCDF800B04FF0000B0098B0F57F3F01D0009820B90020D2
:209A600000904B49885502E001204949885509F58069701CC6B2564591DB4048008800EB86
:209A8000001101EB40103E4901EB8000B0F86800A84202D08620BDE8F88F3849098801EBEA
:209AA000011303EB4111364B03EB81010A8B334909884FF4003303EB0130364905F09EFE1A
:209AC0000025002405E03348005D284485B2601C84B22A48008800EB001101EB4010284988
:209AE00001EB8000008BA042EDDC2448008800EB001101EB4010224901EB8000B0F86C00AD
:209B0000A84201D08620C6E71C49098801EB011303EB41111A4B03EB81014A8B1749098866
:209B20004FF4403303EB01301B4905F067FE0025002405E01848005D284485B2601C84B252
:209B40000E48008800EB001101EB40100C4901EB8000408BA042EDDC0848008800EB0011E4
:209B600001EB4010064901EB8000B0F87000A84201D086208FE700208DE7000092000020B9
:209B800048030020381200202803002068020020E0330020382200203823002010B500F03E
:209BA0002DFE01F025FB41F2162000F093FC0D49098801EB011202EB41110B4A02EB810198
:209BC0004969A1F1080000F0C3FC084801F088FA00F024FE0548001D01F082FA00F01EFED2
:209BE00010BD000092000020480300202803002010B509F081FAFFF765FD05F0ABFD10B141
:209C0000032000F0F3F805F0A5FD08B1FFF7AAFD05F0A0FD28B101F041FB00F0BBFF00F027
:209C2000ADFF05F097FD60B109F050FB05F092FD08B1FFF747FD05F08DFD10B1002000F0D3
:209C4000FFF905F087FD08B101F0ECF805F082FD38B101F0FDFA05F07DFD10B1002001F07F
:209C60002FF805F077FD18B1FFF798FF00F0AEFC00F090FF00F052FF10BD000070B5044668
:209C8000002548E020784006000E207060784006000E6070A0784006000EA070E0784006E5
:209CA000000EE0701F4800784FF4F00101EAC0401D4908601D48007808F018FF19480078B5
:209CC000782101EAC000184908601848007808F00DFF1748806800F4007010B12078401C3B
:209CE00020701348806800F4807010B16078401C60700F48806800F0800010B1A078401C04
:209D0000A0700B48806800F0400010B1E078401CE070681CC5B2082DB4DB064800688047C7
:209D200070BD00008E000020100C01403B030020001001403C03002070B50446002546E023
:209D400020784006000E207060784006000E6070A0784006000EA070E0784006000EE07013
:209D60001E4800784FF4F00101EAC0401C4908601C480068804719480078782101EAC00069
:209D8000174908601748006880471748806800F4007010B12078401C20701348806800F446
:209DA000807010B16078401C60700F48806800F0800010B1A078401CA0700B48806800F0CF
:209DC000400010B1E078401CE070681CC5B2082DB6DB04480068804770BD00008E00002067
:209DE000100C01403C03002000100140F8B50646002701F0FDF94EF61B5000F06BFB002E1C
:209E000062D1002000F0A4FB8548006820F07F4040F08840824908600846406820F0FF002C
:209E200040F0440048600804086100254AE06846FFF724FF002413E01DF804007949495DE3
:209E400088420BD07848005D40B978480078A04000F0080010B1942173480155601CC4B2BE
:209E6000042CE9DB9DF800006E49495D884227D09DF801006B49495D884221D09DF80200F9
:209E80006849495D88421BD09DF803006549495D884215D06248006820F07F4040F0885032
:209EA0005F4908600846406820F0FF0040F0110048608814086101F09BF900F02FFEF8BD48
:209EC000681CC5B2402DB2DB012E23D1002000F03FFB5348006820F07F4040F088405049BD
:209EE00008600846406820F0FF0040F04400486008040861002508E06846FFF7BFFE1DF8E1
:209F000007004B494855681CC5B2402DF4DB40200AF01CFA032E6FD1002000F019FB404845
:209F2000006820F07F4040F088403D4908600846406820F0FF0040F044004860080408616E
:209F4000002515E06846FFF799FE9DF80000394948559DF801103748403041559DF8021026
:209F6000403041559DF8031040304155681CC5B2402DE7DB00244EE02E4800EB841090F834
:209F80002000012818D12C48008800EB001101EB40102A4901EB8000007C01280CD1224890
:209FA000005D40BB21480078A04000F0080010B300211D4801552CE01E4800EB841090F878
:209FC0002000012819D11C48008800EB001101EB40101A4901EB8000007C02280DD112487D
:209FE000005D40B911480078A04000F0080010B100210D4801550CE00FE00B48005D40B951
:20A000000A480078A04000F0080010B1982106480155601CC4B2042CAEDB00BF4FE70000E0
:20A020000010014038220020890F00208E00002038120020603200209200002048030020B6
:20A040002DE9FC4707464FF0000A7F4800884FF4A02101EB40497C48008800EB001101EB15
:20A0600040107A4901EB80004069C0F38728002F7ED101F0BDF84EF6165000F02BFA002053
:20A0800000F066FA7248006820F07F4040F088406F4908600846406820F0FF0040F04400EE
:20A0A000486008040861002582E04FF480626949484605F0A3FB6848006888B16748405D67
:20A0C00070B1002409E06348005D553864490978484060490855601C84B2B4F5806FF2DBEA
:20A0E000A8F10100A84203D1F7205A4981F8FF03002456E001A8FFF7C1FD40F2FD308442F7
:20A1000004D19DF80000401CC0B20090002613E001A8805D4F49095D88420BD05148805DBF
:20A1200040B951480078B04000F0080010B193214C488155701C86B2042EE9DB9DF80400FB
:20A140004449095D88422AD09DF805004149095D884224D09DF806003E49095D88421ED0C0
:20A160009DF807003B49095D884218D0384800E021E0006820F07F4040F088503449086022
:20A180000846406820F0FF0040F0110048608814086101F02DF800F0C1FCBDE8FC87601C65
:20A1A00084B2B4F5806FA5DB09F58069681CC5B24545FFF67AAF012F44D100240AE02A4802
:20A1C0000078A04000F0080010B104F0FF0A03E0601C84B2042CF2DB00BFFFF773FA01F0CC
:20A1E00007F84EF6165000F075F9002000F0B0F91748006820F07F4040F08840144908604C
:20A200000846406820F0FF0040F04400486008040861002514E0002409E001A8FFF72EFDB8
:20A2200001A810F80A000B490855601C84B2B4F5806FF2DB4FF480600AF088F8681CC5B203
:20A240004545E8DB00BFA8E79200002048030020001001403812002068020020E0330020CE
:20A2600059020020890F00208E00002070B504460D4600262FE0274800784FF4F00101EA00
:20A28000C0402549086025480068804704F0800040B1204800784FF4707101EA80102049FF
:20A2A000086107E01B4800784FF0707101EA80501B490861194800688047164800787821CC
:20A2C00001EAC000144908601448006880476006040E701CC6B2082ECDDBA5B90D480078FE
:20A2E0004FF4F00101EAC0400B4908600B480068804708480078782101EAC000064908603E
:20A30000064800688047012D01D100F087FA002070BD00008E000020100C01403C03002098
:20A32000001001402DE9F04105460E46144600277FE034B1012C08D0022C0BD0032C13D100
:20A340000DE00020604908600EE000205E49091F086009E000205C490839086004E000203F
:20A3600059490C39086000BF00BF58480068804705F08000D8B134B1012C08D0022C0BD050
:20A38000032C13D10DE00120514908600EE001204F49091F086009E001204D49083908601A
:20A3A00004E001204A490C39086000BF1BE034B1012C08D0022C0BD0032C13D10DE000208B
:20A3C000434908600EE000204149091F086009E000203F490839086004E000203C490C3959
:20A3E000086000BF00BF39480068804734B1012C08D0022C0BD0032C13D10DE00120324938
:20A4000008600EE001203049091F086009E001202D490839086004E001202B490C3908606D
:20A4200000BF00BF2948006880476806050E781CC7B2082FFFF67DAF7EBB34B1012C08D0F5
:20A44000022C0BD0032C13D10DE000201E4908600EE000201C49091F086009E000201A4995
:20A460000839086004E0002017490C39086000BF00BF16480068804734B1012C08D0022CFF
:20A480000CD0032C14D10EE001200F4908600FE001200D49091F08600AE00DE001200A49BC
:20A4A0000839086004E0012007490C39086000BF00BF064800688047012E02D1204600F09E
:20A4C00025FABDE8F0810000988121423C030020A401224270B5044600252BE004F400408C
:20A4E00040B1174800784FF4707101EA80101549086107E0124800784FF0707101EA80509A
:20A50000104908610E4800784FF4F00101EAC0400D4908600D4800688047094800787821E8
:20A5200001EAC000084908600848006880476400681CC5B2102DD1DB0A2008F0D7FA70BDD0
:20A540008E00002000100140100C01403C03002070B5044600252BE004F4004040B1174819
:20A5600000784FF4707101EA80101549086107E0124800784FF0707101EA805010490861A7
:20A580000E4800784FF4F00101EAC0400D4908600D480068804709480078782101EAC0007F
:20A5A000084908600848006880476400681CC5B2102DD1DB0A2008F099FA70BD8E0000208B
:20A5C00000100140100C01403C03002038B500F00FFE4EF61650FFF77DFF3749098801EB6B
:20A5E000011202EB4111354A02EB81014969A1F10800FFF7ADFF3248006820F07F4040F04C
:20A6000088402F4908600846406820F0FF0040F04400486008040861002448E06846FFF70C
:20A620002DFB002513E01DF805002649095D88420BD02548405D40B924480078A84000F087
:20A64000080010B1932120484155681CC5B2042DE9DB9DF800001B49095D884225D09DF8DC
:20A6600001001849095D88421FD09DF802001549095D884219D09DF803001249095D884228
:20A6800013D00F48006820F07F4040F088500C4908600846406820F0FF0040F01100486096
:20A6A0008814086100F0A4FD38BD601CC4B2082CB4DB00BFF8E7000092000020480300209F
:20A6C0000010014028030020890F00208E0000202DE9F84F064688461546424800884FF451
:20A6E000A02101EB404A06F00309C9F10400404501DA082700E004274FF6FC71314001EBBA
:20A700000A003A46384905F079F8002411E03548008800EB001101EB4010344901EB80008D
:20A720005C3010F8140004EB09012F4A5054601CC4B22C48008800EB001101EB40102B49C1
:20A7400001EB800090F84600A042E0DC00F050FD4EF61650FFF7BEFE4FF6FC7106EA0100E5
:20A76000FFF7F6FE2248006820F07F4040F088401F4908600846406820F0FF0040F044000D
:20A78000486008040861002416E06846FFF776FA1DF805001449095D88420BD01548405DF2
:20A7A00040B915480078A84000F0080010B1932110484155601CC4B2BC42E6DB0C4800681B
:20A7C00020F07F4040F08850094908600846406820F0FF0040F01100486088140861BDE850
:20A7E000F88F000092000020381200204803002000100140890F00208E00002010B500F0DF
:20A80000F7FC41F22220FFF765FE0020FFF7A0FE4EF6EA10FFF75EFE10BD00002DE9F0411F
:20A82000344800784FF4F00101EAC040324908603248006880472F480078782101EAC00046
:20A840002D4908602E48006820F07F4040F088402B4908600846406820F0FF0040F0440020
:20A8600048600804086100242DE026480078A04000F0080028B30027002520E001F0FAF9C1
:20A8800006461E48006880470BE001F0F3F9801B0A2803D901279B211B4801551748006802
:20A8A0008047174880684FF400712141084008B1002FEAD00A2008F019F9681CC5B2032D2B
:20A8C000DCDB601CC4B2042CCFDB0D48006820F07F4040F088500A4908600846406820F0A0
:20A8E000FF0040F011004860881408610020BDE8F08100008E000020100C01403C030020CB
:20A900000010014039030020890F00202DE9F041044634B1012C08D0022C0BD0032C13D13B
:20A920000DE00020404908600EE000203E49091F086009E000203C490839086004E00020B9
:20A9400039490C39086000BF00BF38480068804734B1012C08D0022C0BD0032C13D10DE0A8
:20A960000120314908600EE001202F49091F086009E001202C490839086004E001202A491D
:20A980000C39086000BF00BF2948006820F07F4040F08840264908600846406820F0FF0010
:20A9A00040F0440048600804086122480078A04000F0080028B30026002520E001F05AF9E2
:20A9C0000746022008F092F80BE001F053F9C01B0A2803D901269B2117480155022008F0C3
:20A9E00085F8134880684FF400712141084008B1002EEAD00A2008F079F8681CC5B2032DDA
:20AA0000DCDB0B48006820F07F4040F08850084908600846406820F0FF0040F01100486046
:20AA200088140861BDE8F081988121423C0300200010014039030020890F00202DE9F0476E
:20AA400005460F469146324800884FF4A02101EB404AFFF7D3FE00F0CBFB41F21620FFF727
:20AA600039FD4FF6FC7105EA0100FFF771FD05F00308C8F10400B84201DA082600E00426D0
:20AA80004FF6FC71294001EB0A003246214904F0B5FE002411E01E48008800EB001101EB31
:20AAA00040101D4901EB80005C3010F8140004EB0801184A5054601CC4B21548008800EB0C
:20AAC000001101EB4010144901EB800090F84600A042E0DC002416E0601CC11700EB917199
:20AAE0008910A0EB810131B10A49085D4A460021FFF718FC05E00749085D4A460121FFF719
:20AB000011FC601CC4B2B442E6DBBDE8F087000092000020381200204803002010B51448BB
:20AB200000784FF4F00101EAC04012490860104800784FF0707101EA80500F49086100202F
:20AB400005F0FAFF1E2007F0B0FF09480078FDF71BFF00F0F004204605F0EEFF142007F0F5
:20AB6000A4FF002005F0E8FFC82007F0A9FF10BD8E000020100C01400010014010B500F0D1
:20AB800037FB034800F034FA232007F0AFFF10BD915C8A4810B500F02BFB024800F028FA6F
:20ABA00010BD0000995C8A4830B587B000F020FB4EF62050FFF78EFC0020FFF7C9FC3C4847
:20ABC000006820F07F4040F08840394908600846406820F0FF0040F04400486008040861C6
:20ABE000002410E001A8FFF7A7F8002507E001A8405D02A901EB84014855681CC5B2042DCC
:20AC0000F5DB601CC4B2052CECDB2948006820F07F4040F08850264908600846406820F0ED
:20AC2000FF0040F01100486088140861002419E002A8005DC12807D103A8005D9A2803D1A4
:20AC400000211C4801550BE01A48005D40B91A480078A04000F0080010B198211548015597
:20AC6000601CC4B2042CE3DB00241CE006A8005D012802D11149085513E006A8005D0928E7
:20AC800003D100200D4908550BE00A48005D40B909480078A04000F0080010B19821054812
:20ACA0000155601CC4B2042CE0DB002007B030BD00100140890F00208E000020340300208F
:20ACC000F8B5064600200090002700F091FA4EF61C50FFF7FFFB0020FFF73AFC002E5FD1DF
:20ACE0004B48006820F07F4040F08840484908600846406820F0FF0040F04400486008046C
:20AD0000086100244AE06846FEF7B8FF002513E01DF805003F49095D88420BD03E48405D3A
:20AD200040B93E480078A84000F0080010B1952139484155681CC5B2042DE9DB9DF8000029
:20AD40003449095D884227D09DF801003149095D884221D09DF802002E49095D88421BD0F5
:20AD60009DF803002B49095D884215D02848006820F07F4040F08850254908600846406837
:20AD800020F0FF0040F0110048608814086100F02FFAFFF7C3FEF8BD601CC4B2802CB2DB06
:20ADA000012E33D1002409E01C480078A04000F0080008B1274603E0601CC4B2042CF3DBA6
:20ADC00000BF1348006820F07F4040F08840104908600846406820F0FF0040F04400486048
:20ADE00008040861002408E06846FEF747FF1DF807000B490855601CC4B2802CF4DB80200F
:20AE000009F0A4FAFFF7C6FEFFF788FE00BFC2E70010014038230020890F00208E000020CB
:20AE20003812002070B56E48008800EB001101EB40106C4901EB800090F8460000B970BD38
:20AE40000024C7E06848005D00287DD167480078A04000F00800002876D06148008800EB1B
:20AE6000001101EB40105F4901EB800090F85C505B48008800EB001101EB4010594901EB4C
:20AE8000800090F85E0005EB00255548008800EB001101EB4010534901EB800090F86000EA
:20AEA00005EB00454E48008800EB001101EB40104C4901EB800090F8620005EB0065484A35
:20AEC000128802EB021303EB42120B4603EB820292F84610424A128802EB021303EB421287
:20AEE000404B03EB8202B2F8482090B22246FFF7A5FD642007F0E4FD3B48005DF8B93B4891
:20AF00000078A04000F00800C8B1354A128802EB021303EB4212334B03EB820292F846103B
:20AF20002F4A128802EB021303EB42122D4B03EB8202B2F8482090B22246FFF7C9FB2A48E8
:20AF4000005D98B9294800E042E00078A04000F0080058B12248008800EB001101EB40104D
:20AF6000204901EB800090F964000544E8B21C49098801EB011202EB41111A4A02EB810125
:20AF8000A1F85C00C5F307211548008800EB001202EB4010134A02EB8000A0F85E10C5F335
:20AFA00007410F48008800EB001202EB40100D4A02EB8000A0F86010280E0949098801EB5F
:20AFC000011202EB4111074A02EB8101A1F86200601CC4B2042CFFF635AF00BF2FE7000094
:20AFE0009200002048030020890F00208E00002070B5044600252BE004F0004040B11648AC
:20B0000000784FF4707101EA80101449086107E0114800784FF0707101EA80500F490861FF
:20B020000D4800784FF4F00101EAC0400C4908600C480068804708480078782101EAC000D8
:20B04000074908600748006880476400681CC5B2202DD1DB70BD00008E0000200010014036
:20B06000100C01403C03002070B5044600252CE004F0800040B1164800784FF4707101EA2A
:20B0800080101449086107E0114800784FF0707101EA80500F4908610D4800784FF4F00105
:20B0A00001EAC0400C4908600C480068804708480078782101EAC0000749086007480068EA
:20B0C00080476006040E681CC5B2082DD0DB70BD8E00002000100140100C01403C0300206E
:20B0E0002DE9F041054600244AE02E5D00272CE006F0800040B1244800784FF4707101EA58
:20B1000080102249086107E01F4800784FF0707101EA80501D4908611B4800784FF4F0014C
:20B1200001EAC0401A4908601A480068804716480078782101EAC000154908601548006823
:20B1400080477006060E781CC7B2082FD0DB032C14D00D4800784FF4F00101EAC0400C495B
:20B1600008600C480068804707480078782101EAC00007490860074800688047601CC4B2B1
:20B18000042CB2DBBDE8F0818E00002000100140100C01403C03002010B5012007F090FCB8
:20B1A000002005F0C9FC322007F07FFC0D480078FDF7EAFB0409204605F0BEFC0948007860
:20B1C0004FF4F00101EAC04007490860054800784FF0707101EA8050044908610F2007F01C
:20B1E0006FFC10BD8E000020100C01400010014010B5144800784FF4F00101EAC0401249A8
:20B2000008604FF4FA7007F071FC0E480078782101EAC0000C4908604FF4FA7007F066FCE0
:20B220000A48006820F07F4040F08850074908600846406820F0FF0040F01100486088143B
:20B24000086110BD8E000020100C01400010014010B5FFF7CDFF41F21C20FFF73BF900201C
:20B26000FFF776F9002410E0FEF764FB094908700846007830B10849085DFFF7F5FEFFF7FB
:20B28000CDFA00E010BD601CC4B2802CECDB00BFF8E7000039030020382300202DE9F04713
:20B2A0004FF000084FF0FF39384800884FF4A02101EB40473548008800EB001101EB401014
:20B2C000334901EB80004069C0F38726FFF796FAFFF78EFF41F21620FFF7FCF80020FFF70B
:20B2E00037F900254DE04FF480622A49384604F085FA2948006888B12848405D70B10024DF
:20B3000009E02448005D553825490978484021490855601C84B2B4F5806FF2DB701EA84221
:20B3200003D1F7201B4981F8FF03002422E0FEF701FB1C49087008460078B8B11549085D5D
:20B340000021FEF793FF134A611C505C0021FEF78DFF104AA11C505C0021FEF787FF0D4A67
:20B36000E11C505C0121FEF781FF01E0BDE8F087201D84B2B4F5806FD9DB07F58067681C6A
:20B38000C5B2B542AFDB00BFF0E7000092000020480300203812002068020020E0330020DB
:20B3A000590200203903002010B50248007807F09DFB10BD3A03002010B5032007F096FB06
:20B3C00010BD002070470020704700207047000070B50024064D07E0165D4640F6B2641C77
:20B3E00055F8266086EA10209C42F5D3484070BD044C01082DE9F84F364D4FF00009DFF827
:20B40000D8B02878697800EB0120A97800EB0140E97800EB016A31480078A52802D1002062
:20B420002E4908702E48FDF7A3F8C7B239462C4808F0DEFE04462B48008800EB001101EBAB
:20B440004010294901EB8000C07B2649098801EB011202EB4111244A02EB8101897B01EB78
:20B46000C10202EB011100EB81061E4909884FF42F0202EB414101EB0B000422694604F0FD
:20B48000BDF99DF8030000069DF8021040EA01409DF8011040EA01209DF8001040EA01087D
:20B4A000BAF1D70F0CD0B44202D00CB14FF00109B44205D10D480068804501D04FF00109E9
:20B4C000B9F1000F04D0A5200449087001F0DAFCBDE8F88FF87F0008F87B0100F84F002008
:20B4E000C0FF01089200002048030020F8FF010810B52F48008800EB80002E4B53F8300044
:20B500002B4B1B8803EB83032A4C04EBC3035B681844274B1B8803EB830304EBC3039B6813
:20B520001844234B1B8803EB830304EBC303DB68C2181F48008800EB001303EB40101E4BC4
:20B5400003EB800090F8440000F0010068B11848008800EB001303EB4010174B03EB8000B3
:20B56000806F904201D8012010BD00211CE01048008800EB80000F4B03EBC00050F821006A
:20B580000E4B98420CD80A48008800EB8000094B03EBC000103050F82100084B984201D99D
:20B5A0000120E1E7481CC1B20429E0DB0020DBE7920000209C0F0020480300203F420F0089
:20B5C000F0B52C48008800EB001101EB40112A4800EB810090F80EE0B0F85C40B0F85EC033
:20B5E000B0F86020B0F86270B0F85430B0F85660B0F85810B0F85A50BEF10A0F18D0E0B27B
:20B600000CF0FF0400EB0420D2B200EB0240DAB2F3B202EB0322C9B202EB014100EB07602C
:20B6200001EB0561421C01D0884220D98920F0BD4FEA0C4C00201CEB040440EB000C10EB7E
:20B64000040E42EB0C023C0410EB0E0754413204D21840EB000683187141C01841EB0542CF
:20B660006FEA07012143E1D0C01BA241DED30020F0BD0000920000204803002010B505F041
:20B68000A1FA05F08BFA10BD014801F047B80000B0300020014801F041B80000E830002024
:20B6A00010B5046863604368102B036803D099600068C26010BD9A600068C16010BD70471B
:20B6C00010B504464FF4803000EB0431002000F001F94FF4A02000EB4441012000F0FAF8C8
:20B6E0004FF4C02000EB4441012000F0F3F810BDF0B5074638A00E4691B007C801AB83E8A9
:20B70000070038A004AB07C883E8070038A207AB07CA83E8070039A00AAB07C883E80700BC
:20B7200039A20DAB07CA83E80700002007F087F90C2546B1300907282CD2DFE800F02B220A
:20B740002428262B2A00072F0ED2DFE807F00D04060A080D0C0001AC06E004AC04E00DAC2C
:20B7600002E00AAC00E007AC1023224605213820009507F044FA10230821264A40200095FA
:20B7800021E001AC06E004AC04E00AAC02E00DAC00E007AC1023224605213820009507F0F8
:20B7A0002EFA06F002001C4A012108F0BBFD1A4A02210832304608F0B5FD174A1023921E0C
:20B7C00008213820009507F01AFA4FF4FA7007F06CF911B0F0BD00002056444420434845E3
:20B7E000434B20202056505720434845434B202020464C415348205445535420205541528A
:20B800005420205445535420434F4E4E4543542054455354B4000020D601002010B54FF4F7
:20B82000804001F07DF94FF4006001F079F9BDE810404FF4806001F073B9022001F070B96A
:20B84000042001F06DB9000030B51E4885B0816941F004018161816901F0040104918169CC
:20B8600041F0080181618069174C00F008000490022001258DE831006946144801F05CF995
:20B8800044F604408DE831006946114801F054F902221146082001F0C3FA082001F0B5FA25
:20B8A00003220221072001F0BBFA072001F0A2FA05220221282001F0B3FA282001F0A5FAB7
:20B8C00005B030BD001002400000211000080140000C014070B505460C4607F037F807F0CE
:20B8E00085F800221021184801F004FA25B1012D06D0022D0CD107E020201449087007E060
:20B90000D8201249087003E0C7201049087000BF00BF4FF47A7301220C490D4802F078FCE0
:20B92000022D0BD0200C09490870200A48708C704FF47A730322064802F06AFC01221021DA
:20B94000014801F0D7F970BD0008014014020020682F0020FEE700003EB5174B04460025D1
:20B960000A21186803E0B0FBF1F06D1CEDB20028F9D16A462946186808F06EFC9DF80000FD
:20B9800020702E2060709DF80110A170E0709DF8020020719DF8030060712020A0710020F0
:20B9A00069462D1F05E00A1823181279401CDA71C0B2A842F7DB3EBDF8FF010810B505F035
:20B9C00063F8FF2005F08CF80A2007F079F8F02005F086F80A2007F073F8BDE81040FF20BF
:20B9E00005F07EB82DE9F0474FF00009002426E0E1B2002007F034FF4FF4803000EB044757
:20BA000002115349384603F0F9FE002508E05048405DFF2802D04FF0010904E0681C85B2EC
:20BA2000B5F5805FF3DB00BFB9F1010F05D139460120FFF74FFF4FF00009601C84B2CD2C89
:20BA4000D6DB00267FE000210846FFF743FF16B14FF0550801E04FF0AA08711CC8B20021AC
:20BA600007F0FEFE002404E0394800F80480601C84B2FF2CF8DD00274FF4807234493846C5
:20BA800006F08EFF4FF480723149384603F0B6FE002408E02E48005D404502D06020BDE8F4
:20BAA000F087601C84B2FF2CF4DD00210846FFF711FF16B14FF0550801E04FF0AA08002493
:20BAC00004E0234800F80480601C84B2FF2CF8DD4FF48037002509E04FF480721C493846C9
:20BAE00006F05EFF07F58037681C85B2CD2DF3DB4FF48037002515E04FF480721449384699
:20BB000003F07CFE07F58037002407E01048005D404501D06020C2E7601C84B2FF2CF5DD17
:20BB2000681C85B2CD2DE7DB002408E04FF4803000EB04410020FFF7CDFE601C84B2CD2CD3
:20BB4000F4DB701C86B2022EFFF67DAF0020A6E7381200202DE9F04107460C464FF00008BD
:20BB6000FF224FF480511048FCF7F0FC16E0B4F5806F01D2A5B201E04FF480652A460A49D5
:20BB8000384603F03BFE002604E00748805D8044701C86B2AE42F8DB2F44641B002CE6D1A5
:20BBA0004046BDE8F0810000381200202DE9F04107460C464FF00008FF224FF480512C48A9
:20BBC000FCF7C4FCB4F5803F35D916E0B4F5806F01D2A5B201E04FF480652A462449384620
:20BBE00003F00CFE002604E02148805D8044701C86B2AE42F8DB2F44641BB4F5803FE5D896
:20BC000016E0B4F5806F01D2A5B201E04FF480652A461749384603F0F1FD002604E01448CE
:20BC2000805D8044701C86B2AE42F8DB2F44641B002CE6D119E016E0B4F5806F01D2A5B256
:20BC400001E04FF480652A460949384603F0D6FD002604E00648805D8044701C86B2AE4228
:20BC6000F8DB2F44641B002CE6D14046BDE8F081381200200148006870470000DC020020B0
:20BC80007FB504461022C9496846FCF74DFCC848008800EB8000C74951F83000C4490988CE
:20BCA00001EB8101C34A02EBC10149680844C049098801EB810102EBC10189680844BC4964
:20BCC000098801EB810102EBC101C9684618E5202070422060707A20A07004F0DBF8B449F2
:20BCE000087803F0B5FD03F06FFF002505E0B248415DE81C2154681CC5B2102DF7DBAF48A2
:20BD00000088000AE074AD4800782075AC480068000E6075AA480068000CA075A848008809
:20BD2000000AE075A64800782076002508E0A548284490F8E81705F119002154681CC5B23C
:20BD40000C2DF4DB00250EE09948008800EB001101EB40109C4901EB8000415D05F125001D
:20BD60002154681CC5B20E2DEEDB9148008800EB001101EB4010944901EB8000807B04F876
:20BD8000330F8B48008800EB001101EB40108E4901EB8000C07B60708548008800EB00112F
:20BDA00001EB4010884901EB8000B0F84400000AA0707F48008800EB001101EB40108249B2
:20BDC00001EB800090F84400E0707948008800EB001101EB40107C4901EB8000B0F866001B
:20BDE000000A20717248008800EB001101EB4010754901EB800090F8660060716C48008809
:20BE000000EB001101EB40106F4901EB8000B0F86A00000AA0716648008800EB001101EB7B
:20BE20004010694901EB800090F86A00E0716048008800EB001101EB4010634901EB8000D1
:20BE4000B0F86E00000A20725948008800EB001101EB40105C4901EB800090F86E006072F6
:20BE60005348008800EB001101EB4010564901EB8000007CA072333C4D48008800EB001245
:20BE800002EB40100A4602EB800000F12401102204F14000FCF748FB4548008800EB0011E4
:20BEA00001EB4010484901EB800090F8460084F850003F48008800EB001101EB40104249DD
:20BEC00001EB800090F8640084F851003848008800EB001101EB40103B4901EB8000806C21
:20BEE000C4F8520000252EE03148008800EB001101EB4010344901EB80004C3030F8151016
:20BF00006800563021522A48008800EB001101EB40102D4901EB8000543030F81510680073
:20BF20005E3021522248008800EB001101EB4010254901EB80005C3030F815106800663025
:20BF40002152681CC5B2042DCEDB44F86E6F1848008800EB001101EB40101B4901EB800090
:20BF6000808BA0801248008800EB001101EB4010154901EB8000C08BE0800D48008800EB3F
:20BF8000001101EB4010104901EB8000008C20810748008800EB001101EB40100A4901EB14
:20BFA0008000408C60816E3C7FBD0000C0FF0108920000209C0F0020E0FF0108FC7F0008BE
:20BFC000F8FF010800F0FF1F48030020F8B500250446009590F82400012808D0012084F8ED
:20BFE00024002046FCF70AFB060002D04BE00220F8BDA06A20F4885040F00200A062022099
:20C0000001F02CFA22490968B1FBF0F0400000E0401E00900028FBD12046FCF715FB2068AE
:20C02000816841F00801816000F06AFE074604E000F066FEC01B0A2811D8206880680007B2
:20C04000F6D42068816841F00401816000F058FE07460EE000F054FEC01B0A2809D9A06AD2
:20C0600020F0020040F01000A06284F824500120F8BD206880684007ECD4A06A20F0020013
:20C0800040F00100A06284F824503046F8BD000084000020F8B50025009590F82420AE4687
:20C0A000012A1ED0012280F824204A681F244FF47873072A17D20668776B93FAA3FCBCFA19
:20C0C0008CFC521E02FB0CFC04FA0CF4A74393FAA3F3B3FA83F30C685A439440274377630C
:20C0E0002DE00220F8BD06680D2A14D2376B93FAA3FCBCFA8CFCD21F02FB0CFC04FA0CF4D1
:20C10000A74393FAA3F3B3FA83F30C685A4394402743376313E0F76A93FAA3FCBCFA8CFC48
:20C120000D3A02FB0CFC04FA0CF4A74393FAA3F3B3FA83F30C685A4394402743F7620A686B
:20C140003823072406680A2A14D3F76893FAA3FCBCFA8CFC0A3A02FB0CFC04FA0CF4A743D6
:20C1600093FAA3F3B3FA83F38C685A4394402743F76012E0376993FAA3FCBCFA8CFC02FB5A
:20C180000CFC04FA0CF4A74393FAA3F3B3FA83F38C685A439440274337610A68102A01D085
:20C1A000112A20D1124B02689A4217D193681B0219D4936843F4000393600968102912D10E
:20C1C0000C490D4A0968B1FBF2F101EB8101490000E0491E00910029FBD104E0816A41F02F
:20C1E00020018162012580F824E02846F8BD0000002401408400002040420F000068C06C48
:20C20000704700002DE9F04104004FF0000513D0A06A002628B9E66284F82460204600F046
:20C220008BF82046FCF7EAF9A16AC90600D420B1A06A40F01000A06278E0A16A21F4885123
:20C2400041F00201A1626268E16902270A43E16897FAA7F70B46B7FA87F7B9400A43A168D6
:20C260004FF48077B94209D0012907D05FF00001D4F814C0BCF1010F02D00AE03946F7E7E9
:20C28000F3B1A36A43F02003A362E36A43F00103E3622368D3F804C02CF4694C4CEA010C97
:20C2A000C3F804C021688B68DFF884C003EA0C0313438B60A168B94210D001290ED016E049
:20C2C0004FF4604CA3699CFAACFCBCFA8CFC5B1E03FA0CF30B4343F40061DAE74FF4700117
:20C2E000256991FAA1F1B1FA81F16D1E8D402168CB6A23F470032B43CB62216889680D4B69
:20C300001940914208D1E662A16A21F0020141F00101A162BDE8F081A06A20F0020040F019
:20C320001000A062E06A40F00100E0620120F1E7FDF7E1FFFE0E1FFF10B500680E4986B07D
:20C34000884217D10D48816941F4007181618069032400F4007004900F20CDE900046946C4
:20C36000074800F0E9FB0120CDE900046946054800F0E2FB06B010BD0024014000100240BC
:20C3800000100140000801402DE9F84300260D460446009600F0B4FC804620688168C905B4
:20C3A00008D5A06A40F02000A06284F824600120BDE8F8834168C90503D4C06A10F4700F08
:20C3C00026D0022001F04AF838490968B1FBF0F72068036936490B424FEA61014FEAA11246
:20C3E0001BD1C3684FEA611C13EA0C0F15D103690B4221D1C06810421ED114201FE0681CA7
:20C4000006D045B300F07CFCA0EB0800A84222D8206800688007F2D52AE003690B4202D19B
:20C42000C168114206D0026922490A4206D1C068084203D1542002E0292000E0FC20474346
:20C44000009813E0681C0ED02DB100F059FCA0EB0800A84207D9A06A40F00400A06284F8B3
:20C4600024600320A4E70098401C0090B842E9D321686FF012000860A06A40F40070A0623E
:20C4800020688068C0F3424007280CD1E06850B9A06A20F48070A062A06AC00403D4A06ADB
:20C4A00040F00100A062002082E7000084000020244992244992240070B5044690F82400DF
:20C4C00001280DD0012084F824002046FCF7BCF802004FF0000005D084F82400104670BD4F
:20C4E000022070BDA16A40F20123994341F48071A1621F4D23681F49AB4218D10E6816F4D2
:20C50000702F14D0A66A46F48016A6620E68760505D5A66A26F4005646F48056A662A66A3D
:20C52000F6040AD5E66A26F00606E66206E0A66A26F48016A6625E68E9E7E06284F8240042
:20C540006FF00200186020688368C3F34243072B05D1A84208D1096811F4702F04D08168B7
:20C5600041F480118160B9E7816841F4A001F9E7002801400424014010B5040002D060798F
:20C5800010B106E0012010BD00202071204600F004F801206071002010BD70472DE9F04126
:20C5A00004460068016821F00101016000F0A8FB054600264FF47A7710E000BF00F0A0FB7A
:20C5C000401BB8420AD954F8340F40F0200044F81409032060702670BDE8F081206800685C
:20C5E000C007EBD1012084F8210084F820600020F2E70000F0B540B390F82110022924D095
:20C6000001680A6822F001020A6001684FF0000EC1F800E00168C1F804E00168C1F808E061
:20C620000168C1F80CE03C4C3B4D3B4E3A4F3A4ADFF8E4C00168143428353C3650370CF1C7
:20C64000640C914203D102211BE00120F0BDA14201D1202115E0A94202D14FF4007110E08A
:20C66000B14202D14FF400510BE0B94202D14FF4003106E0614502D14FF4001101E04FF060
:20C680000071254B083B59600168914201D1082119E0A14201D1802115E0A94202D14FF441
:20C6A000006110E0B14202D14FF400410BE0B94202D14FF4002106E0614502D14FF400011F
:20C6C00001E04FF0006159600168914201D1042119E0A14201D1402115E0A94202D14FF4E8
:20C6E000806110E0B14202D14FF480410BE0B94202D14FF4802106E0614502D14FF48001DF
:20C7000001E04FF080615960C0F834E080F821E080F820E00020F0BD080002402DE9F05F26
:20C72000DFF860820446D8F80020DFF858B2954D944E944F0068DFF84C92DFF848A20BF1A4
:20C74000080B1C35303644374FF400614FF4004C4FF4002E09F158090AF16C0A584501D1B5
:20C76000082316E0A84201D1802312E0B04201D10B460EE0B84201D163460AE0484501D186
:20C78000734606E0504502D14FF4000301E04FF000631A4231D00268D24312072DD4026869
:20C7A00022F0080202602068584501D1082114E0A84201D1802110E0B0420ED0B84201D1FE
:20C7C00061460AE0484501D1714606E0504502D14FF4000101E04FF00061C8F80410606B00
:20C7E00040F001006063042084F82100002084F82000216B09B1204688476248D0F800C01B
:20C800004FF4806120680A010B044FF4802E584502D14FF0040816E0A84202D14FF040086C
:20C8200011E0B04201D188460DE0B84201D1904609E0484501D1F04605E0504502D14FF4D8
:20C84000800800E098461CEA080F33D0D0F800C06FEA0C0C5FEA4C7C2CD4D0F800C05FEA97
:20C860008C6C05D4D0F800C02CF0040CC0F800C02068584501D1042113E0A84201D140218F
:20C880000FE0B0420DD0B84201D1114609E0484501D1714605E0504502D14FF4800100E0C7
:20C8A000194638484160112084F82100E16A09B120468847334AD2F800C05B46206851155A
:20C8C0004FF4005B4FF4003E984202D14FF0020817E0A84202D14FF0200812E0B04201D172
:20C8E00088460EE0B84201D1D8460AE0484501D1F04606E0504502D14FF4001801E04FF04A
:20C9000000781CEA080F3BD0D0F800C06FEA0C0C5FEA8C7C34D4D0F800C05FEA8C6C05D483
:20C92000D0F800C02CF0020CC0F800C02068984201D1022114E0A84201D1202110E0B042A3
:20C940000ED0B84201D159460AE0484501D1714606E0504502D14FF4001101E04FF000715B
:20C960005160606B6063012084F82100002084F82000A16A002903D02046BDE8F05F08474E
:20C98000BDE8F09F0000024070B520B190F82110002411B103E0012070BD80F82040022160
:20C9A00080F8211003681A6843F6F0718A43D0E901152943D0E9035635432943456929432F
:20C9C00085692943C5692943114319604463012180F82110002070BD70B5044690F82000C0
:20C9E000012823D0012084F82000022084F821002068056825F0010505602046FEF750FE81
:20CA00002068016841F0020101602068016841F0040101602068016841F0080101602068F4
:20CA2000016841F001010160002070BD022070BD31B500F065F9044600F062F90099001BE0
:20CA40008842F9D338BD000070B506460A2006F02CF82F4C2F4DB6F5806F3AD012DC022EDD
:20CA600025D0042E34D1D5F80801002830D10A2006F026F8D5F80801002829D1207840F08D
:20CA8000010034E0B6F5006F33D0B6F5804F1FD1D5F8380100281BD10A2006F011F8D5F8EA
:20CAA0003801002814D1207840F008001FE01A4CD4F8040100280BD1642006F001F8D4F8E7
:20CAC0000401002804D11548017881F00101017070BDD5F828010028FAD10A2005F0F0FF76
:20CAE000D5F828010028F3D1207840F00200207070BDD5F82C010028FAD10A2005F0E0FFE2
:20CB0000D5F82C010028F3D1207840F00400EEE78D00002000802142000021428C000020EF
:20CB2000044910B50A68024202D00860FFF78CFF10BD0000140401402DE9F84FDFF890A1E7
:20CB400000220AF1040B144601274FF00F090BF1040E00BF0B6807FA04F52B40AB4274D1F9
:20CB6000DFF870C14E68A6EB0C0866452BD00DDC032E34D005DC36B3012E19D0022E2FD17C
:20CB80001BE0112E16D0122E2AD119E0B8F5881F19D006DCB8F5803F15D0B8F5801F1FD195
:20CBA00011E0B8F5001F0ED0B8F5041F18D10AE0CA6815E0CA68121D12E0CA6808320FE062
:20CBC000CA680C320CE08A682AB1012A4FF0080203D0456104E0042202E0056100E00022EB
:20CBE000FF2B01D8064601E000F104064FEA840501D9A5F12005D6F800C009FA05F82CEA0F
:20CC0000080C02FA05F54CEA050CC6F800C04D68ED0057D5304DAE6946F00106AE61AD6981
:20CC200024F0030605F0010500952C4D06EB050CDCF80850A6074FEA167809FA08F6B54333
:20CC4000274EB04202D1002610E03BE0254EB04201D101260AE0244EB04201D1022605E0DE
:20CC6000224EB04201D1032600E0042606FA08F62E43CCF808604D68DAF80060ED03554640
:20CC800001D51E4300E09E432E604D68DBF80060AD035D4601D51E4300E09E432E604D6898
:20CCA000DEF80060ED02754601D51E4300E09E432E604D68AD020E4D2E6801D51E4300E0A2
:20CCC0009E432E60641C102CFFF444AFBDE8F88F000401400000111000100240000001401E
:20CCE00000080140000C014000100140001401400C0401400AB1016170470904FBE70000E4
:20CD000001480068704700001003002002480168491C01607047000010030020074810B501
:20CD2000016841F010010160032000F099F8002000F006F800F016F8002010BD00200240E8
:20CD400010B5044600F05CFD4FF47A71B0FBF1F001F05BFC00222146501E00F061F8002019
:20CD600010BD0000214808B5816941F001018161806900F001000090032000F071F80022B9
:20CD800011466FF00B0000F04BF8002211466FF00A0000F045F8002211466FF0090000F0BF
:20CDA0003FF800221146501F00F03AF800221146101F00F035F800221146901E00F030F82E
:20CDC00000221146501E00F02BF800221146012000F026F8012000F018F80548416821F089
:20CDE000E06141F00071416008BD0000001002400000014000F01F0201219140400980008A
:20CE000000F1E020C0F88011704700F01F02012191404009800000F1E020C0F800117047E3
:20CE2000F0B40E4B1B680C46C3F30223C3F10705042D00D90425191D072901D2002300E016
:20CE4000DB1E012606FA05F1491E214099409E40761E16403143F0BC02F09EBA0CED00E010
:20CE6000064900F0070208684FF6FF03184040EA0220034A10430860704700000CED00E077
:20CE80000000FA05BFF34F8F05480168054A01F4E06111430160BFF34F8F00BFFDE70000E0
:20CEA0000CED00E00400FA0510B50C0605D501F07F0100EB4110283003E000EB411000F5CC
:20CEC000027099B232B101228272C180190C0181002010BD002282728180F9E7704700EB2D
:20CEE0004112D0F81C04D26B04F0ABBB00EB4112D0F81C04D2F81C2204F0F8BB10B504467C
:20CF00000A460B0601F07F0004EB401101D5283101E001F502710870D009487094F8E80307
:20CF2000012809D0012084F8E803206804F0C6FF002084F8E80310BD022010BD70B50A466E
:20CF40000446090602F07F0003D504EB4011283103E004EB421101F5027100258D7008706E
:20CF6000D009487094F8E803012809D0012084F8E803206805F04AF884F8E853002070BD5C
:20CF8000022070BD70B504460D460E0601F07F0004EB401101D5283101E001F502710870CB
:20CFA000E80948700A61CB7094F8E803012809D0012084F8E803206804F050FE002084F8BB
:20CFC000E80370BD022070BD70B504460E4601F07F0004EB401101F5077100252CC101F8FE
:20CFE0001F5C01F8200D94F8E80301280AD0012084F8E8037006206805F062F884F8E8538A
:20D00000002070BD022070BD70B50D460446090605F07F0003D504EB4011283103E004EBEC
:20D02000451101F5027101228A700870E809487094F8E803012807D084F8E823206805F078
:20D040001AF8680602D006E0022070BD04F57B71206804F0D9FF002084F8E80370BD70B537
:20D0600004460E4601F07F0004EB40113C3100252CC1012201F81F2C01F8200D94F8E803DF
:20D08000012809D084F8E8237006206805F018F884F8E853002070BD022070BD10B50446A2
:20D0A000006805F0EFF8000402D5204602F084F9206805F0E7F840050CD5206830F8441FE7
:20D0C00021F480610180204600F0ECF80021204600F0FDF8206805F0D5F8400405D5206843
:20D0E00030F8441F21F480410180206805F0CAF8800405D5206830F8441F21F400510180B7
:20D10000206805F0BFF8C00413D5206830F8401F21F00401018021684FF43D40A1F8400067
:20D12000204600F0CCF8206830F8441F21F480510180206805F0A6F800051AD5206830F89C
:20D14000441F21F400610180206830F8401F41F008010180206830F8401F41F004010180E5
:20D16000206805F08FF8C043C00402D5204600F0E3F8206805F086F8800508D5206830F8CF
:20D18000441F21F400710180204600F09CF8206805F078F8C00505D5206830F8441F21F487
:20D1A0008071018010BD00002DE9F04186B004004FF0000504D094F8E903002620B108E040
:20D1C000012006B0BDE8F08184F8E863204600F04BF8032084F8E903206804F00EFF04F1F9
:20D1E0001001142288466846FBF79EF994E80F0004F062FE0021206805F057F85FF00107C0
:20D2000004EB451080F8297000F8285F8581C670066146616D1C86610F2DF1D35FF0000031
:20D2200004EB401181F8096281F80802888681F80B62C1F81862C1F81C62401CC1F8206252
:20D240000F28EDD3142241466846FBF76DF994E80F0004F0C9FE84F8246084F8E97320686E
:20D2600004F0C0FE0020ACE708B500680B49884212D10B48C16941F40001C161C069002203
:20D2800000F40000009011461420FFF7C9FDBDE808401420FFF7B9BD08BD0000005C0040D5
:20D2A0000010024010B504460121D0F81C0404F0EFFAD4F81C04BDE8104004F0B8BAD0F817
:20D2C0001C0404F0D3BAD0F81C0404F0D5BA10B5044690F8E80301280BD0012084F8E80334
:20D2E00084F82410206804F0E2FF002084F8E80310BD022010BDD0F81C2400F57B7110469F
:20D3000004F0D9BA10B5044690F8E803012810D0012084F8E80301462046FFF7DFFD20686C
:20D3200004F05EFE206804F0A0FF002084F8E80310BD022010BD000010B50446D0F81C0448
:20D3400004F006FBA069002804D00348016841F00601016010BD000010ED00E030B51C4992
:20D360000A68036822F0E0021A430A6019490A6822F480320A600C1F226822F48032226010
:20D38000144A0832136823F4803313600B1D1D6825F480351D604568ED0303D5256845F40A
:20D3A000803525604468A40303D50C6844F480340C600179C90703D0196841F4803119603F
:20D3C0000079800703D5106840F48030106030BD00700040040401400120102191FAA1F154
:20D3E000024AB1FA81F142F82100704700000E4270B504F075FF05F025FF4FF496740E4D14
:20D400000FE0FF2003F040FB01212046FBF76AFAC82005F04AFBAA2003F036FBC82005F005
:20D4200044FB68684007ECD40448008802F010FABDE8704005F07ABF007000409200002021
:20D4400010B5054C2068C00304D5FFF7D1FF4FF48030206010BD00001404014010B533A497
:20D4600001461DCC86B08DE81D0034A0344C006804900020012931D0022948D010292BD1A1
:20D4800061682268D20127D54FF4701292FAA2F201F47010B2FA82F2D040C9031DF80000FF
:20D4A00010D561684FF4003292FAA2F201F40031B2FA82F2D14004AA515C224AB2FBF1F17C
:20D4C000484301E0204948436168490204D440005FF00301B0FBF1F006B010BD226AC2F31D
:20D4E0000121012903D1920701D5C803F4E7022905D1626A920702D549F64040ECE70329FC
:20D50000EAD121688903E7D54FF22440E4E700F095F961684FF4804292FAA2F201F440412D
:20D52000B2FA82F2D140491C4900D3E702030405060708090A0B0C0D0E0F101001020000B8
:20D540000010024000127A0000093D002DE9F84305460078454CC00774D0E06940F08050AE
:20D56000E061E069424E00F080500090306840F480703060FFF7C4FB074604E0FFF7C0FB5E
:20D58000C01B642833D83068C005F7D5206A10F4407051D0A98801F4407181424CD0206A51
:20D5A0000126310491FAA1F2B2FA82F29300314A20F440701344C3F8006491FAA1F1B1FAC1
:20D5C00081F102EB81010023C1F800342062C00732D0FFF795FB074641F288394FF00208FF
:20D5E00008E000BFFFF78CFBC11B494502D90320BDE8F88398FAA8F1B1FA81F141F04001C5
:20D600004046B6EB511F01D121680BE090FAA0F1B1FA81F141F04001B0EB511F01D1216A1B
:20D6200000E0616A98FAA8F0B0FA80F000F01F0206FA02F00142D5D0206A696820F44070F1
:20D64000084320622878800705D56068A96820F44040084360602878C00605D56068E9682B
:20D6600020F48000084360600020C1E70010024000700040000042422DE9F047DFF87081A8
:20D6800005460E46D8F8000000F00700B0420CD2D8F8001021F007013143C8F80010D8F847
:20D6A000000000F00700B04277D12878514C800705D56068A96820F0F00008436060287817
:20D6C000C00759D06968012001290DD0022929D05FF0020393FAA3F2B2FA82F242F0200253
:20D6E000520904D0226803E04FF40033F2E7626A93FAA3F3B3FA83F303F01F0398400242FC
:20D700004BD0606820F0030008436060FFF7F8FA6968074641F2883001290DD0022981461E
:20D7200017D025E04FF00073D4E700BFFFF7E8FAC11B494501D918E081466068C0F38100FA
:20D740000128F3D118E000BFFFF7DAFAC11B49450BD86068C0F381000228F5D10CE000BF77
:20D76000FFF7CEFAC11B494502D90320BDE8F087606810F00C0FF3D1D8F80010404601F069
:20D780000701B1420BD9016821F0070131430160006800F00700B04201D00120E6E72878A3
:20D7A000400705D56068E96820F4E060084360602878000706D56068296920F4605040EA06
:20D7C000C100606000F052F86168F02292FAA2F201F0F001B2FA82F2D140074A515CC8407A
:20D7E000064908600020FFF7ABFA0020BEE700000020024000100240A84B0108840000209E
:20D8000001480068704700008400002008480949006849684FF4E06292FAA2F201F4E06166
:20D82000B2FA82F2D140044A515CC840704700008400002000100240B84B01080848094959
:20D84000006849684FF4605292FAA2F201F46051B2FA82F2D140044A515CC8407047000009
:20D860008400002000100240B84B010810B519A385B00FCB8DE80F001AA01B4B0068049076
:20D880005A681A4802F00C0104291DD008291BD14FF4701494FAA4F402F47011B4FA84F4A4
:20D8A000E140D2031DF8011010D55A684FF4003393FAA3F302F40032B3FA83F3DA4004ABF8
:20D8C0009A5CB0FBF2F0484305B010BD08484843FAE7000002030405060708090A0B0C0DA2
:20D8E0000E0F1010010200000010024000127A0000093D002DE9F84F04460078F74DC0079A
:20D900004FF0010625D068687704C0F38100012807D06868C0F3810002281BD16868C003A0
:20D9200018D597FAA7F0B0FA80F040F02000400901D0286800E0686A97FAA7F1B1FA81F1C6
:20D9400001F01F0106FA01F108425ED0606800287CD05AE06068B0F5803F0BD010B1B0F569
:20D96000A02F11D0286820F480302860286820F4802002E0286840F480302860606828B356
:20D98000FFF7BEF980460BE0286840F480202860F0E700BFFFF7B4F9A0EB0800642871D89C
:20D9A00097FAA7F0B0FA80F040F02000400901D0286800E0686A97FAA7F1B1FA81F101F042
:20D9C0001F0106FA01F10842E4D01EE0FFF798F9804605E0FFF794F9A0EB08006428DED8AF
:20D9E00097FAA7F0B0FA80F040F02000400901D0286800E0686A97FAA7F1B1FA81F101F002
:20DA00001F0106FA01F10842E4D12078DFF8D08280074FF000094FF002075BD568684FF0DE
:20DA2000F80B10F00C0F07D06868C0F3810002281CD16868C00319D497FAA7F0B0FA80F014
:20DA400040F02000400902D0286801E08BE0686A97FAA7F1B1FA81F101F01F0106FA01F164
:20DA600008422CD0206901287DD128E0206990B396FAA6F0B0FA80F048F82060FFF740F95D
:20DA8000824607E011E100BFFFF73AF9A0EB0A00022884D897FAA7F0B0FA80F040F0200050
:20DAA000400901D0286800E0686A97FAA7F1B1FA81F101F01F0106FA01F10842E4D0286833
:20DAC0009BFAABF26169B2FA82F220F0F80091400843286025E0FFE796FAA6F1B1FA81F14F
:20DAE00048F82190FFF70CF9824605E0FFF708F9A0EB0A000228CCD897FAA7F0B0FA80F0F1
:20DB000040F02000400901D0286800E0686A97FAA7F1B1FA81F101F01F0106FA01F10842C6
:20DB2000E4D1207800076ED5A069B8B396FAA6F0B0FA80F008EB8000C0F88064FFF7E0F8BD
:20DB4000824605E0FFF7DCF8A0EB0A000228A0D897FAA7F0B0FA80F040F06000B6EB501F35
:20DB600002D128680CE062E197FAA7F0B0FA80F040F06000B7EB501F01D1286A00E0686A1A
:20DB800097FAA7F1B1FA81F101F01F0106FA01F21042D7D00120FEF74BFF34E0FFE796FA58
:20DBA000A6F1B1FA81F108EB8101C1F88094FFF7A7F8824606E000BFFFF7A2F8A0EB0A0048
:20DBC000022872D897FAA7F0B0FA80F040F06000B6EB501F01D128680BE097FAA7F0B0FAD0
:20DBE00080F040F06000B7EB501F01D1286A00E0686A97FAA7F1B1FA81F101F01F0106FAA7
:20DC000001F21042D8D12078400765D5E86940F08050E861E869DFF8CCB000F0805000906F
:20DC2000DBF8001041F48071CBF80010FFF768F8824605E0FFF764F8A0EB0A00642834D886
:20DC4000DBF80000C005F5D5E06801280AD008B1052813D0286A20F001002862286A20F07F
:20DC6000040002E0286A40F001002862E06841F2883B90B3FFF744F882460BE0286A40F049
:20DC800004002862EEE700BFFFF73AF8A0EB0A0159450AD897FAA7F0B0FA80F040F0400072
:20DCA000B6EB501F02D128680CE0A3E097FAA7F0B0FA80F040F04000B7EB501F01D1286A5B
:20DCC00000E0686A97FAA7F1B1FA81F101F01F0206FA02F10842D7D031E005E0001002400E
:20DCE0000000424200700040FFF70AF8824605E0FFF706F8A0EB0A0159457BD897FAA7F0A8
:20DD0000B0FA80F040F04000B6EB501F01D128680BE097FAA7F0B0FA80F040F04000B7EBC8
:20DD2000501F01D1286A00E0686A97FAA7F1B1FA81F101F01F0206FA02F10842D8D1E069D7
:20DD400080B36968C1F38101022970D04FF080714F000228484609D091FAA1F1B1FA81F1D4
:20DD600048F82100FEF7CCFF044669E08A4691FAA1F1B1FA81F1C14648F82100FEF7C0FFC9
:20DD8000804605E0FEF7BCFFA0EB0800022854D897FAA7F0B0FA80F040F02000400902D092
:20DDA000286801E061E0686A97FAA7F1B1FA81F101F01F0106FA01F10842E3D1206AB0F569
:20DDC000803F05D16868A16820F4003008436860D4E908010843696821F4741108436860EF
:20DDE0009AFAAAF0B0FA80F049F82060FEF788FF044606E021E000BFFEF782FF001B0228F3
:20DE00001BD897FAA7F0B0FA80F040F02000400901D0286800E0686A97FAA7F1B1FA81F1DB
:20DE200001F01F0106FA01F10842E5D01DE01EE0FEF766FF001B022802D90320BDE8F88F1C
:20DE400097FAA7F0B0FA80F040F02000400901D0286800E0686A97FAA7F1B1FA81F101F09D
:20DE60001F0106FA01F10842E2D10020E6E70120E4E7000010B5040003D094F8510010B180
:20DE800004E0012010BD204600F038F8022084F851002068016821F040010160D4E90101D8
:20DEA0000843D4E903121143084361690843218B01F400710843E1690843216A0843A16ABE
:20DEC000084321680860A069042101EA1040616A0843216848602168E06A08612068C16968
:20DEE00021F40061C1610449002008706065012084F85100002010BD140300202DE9F04F79
:20DF0000054600683F49DFF80081032685B088425CD1D8F8181041F48051C8F81810D8F863
:20DF20001800DFF8E8B000F480500490A02000900220019069465C4603965846FEF7FCFD89
:20DF40004FF000094020CDE900094F4669462046CDF80890FEF7F0FD2E4C2D484FF0800AB9
:20DF6000C4E90007C4E9027A27616761A7612046E761FEF709FD08B1FDF7ECFC6C64656297
:20DF80002348254C14301027C4E90007C4E9029AC4F81090C4F81490C4F818902046C4F8EB
:20DFA0001C90FEF7F1FC08B1FDF7D4FC2C6465620120CDE9007069465C4603965846FEF73B
:20DFC000BBFD012210212046FEF794FE13492868884214D1D8F81C1041F48041C8F81C10CF
:20DFE000D8F81C00694600F4804004904FF4204000900220019003960948FEF79DFD05B02A
:20E00000BDE8F08F0030014000100240000801401C000240B0300020E830002000380040C2
:20E02000000C01402DE9F84F00259A460446ADF8005090F8510001287ED1E9B3E2B394F8E4
:20E040005000012878D0012684F85060222084F851006565A163A287E287A564E564256363
:20E06000A586E586A0684FF40049484504D12068036823F480430360A06A4FF40057B84246
:20E0800009D12068036823F4005303602068036843F40053036060684FF48278404501D1AA
:20E0A000A06878B120680168490603D4016841F040010160E06800E001E0E8B131E0012008
:20E0C000BDE8F88F84F8505013460A462046CDF800A000F040F9F3E753460022012120463E
:20E0E00001F0A8FF48BB2068C168A06B421CA2630170E08F401EE087E08F0128ECD813E072
:20E10000534600220121204601F094FFA8B92068C068A16B0880A06B801CA063E08F401E1C
:20E12000E087E08F0128EBD8A06AB84207D12068016841F4805101E068E007E00160534640
:20E1400000220121204601F075FF08B10320B7E7E0680028206817D0C068A16B0880A06B90
:20E16000801CA063E08F401EE087A06AB84217D1534600220121204601F05CFF50B1606D83
:20E1800040F002006065E1E7C168A06B421CA2630170E7E72068C068ADF80000BDF80000E0
:20E1A000606840450AD1A068484502D0B0F5806F04D12068016821F04001016084F8516096
:20E1C000A06AB8420DD120688068C043C00608D4204601F02DFF012807D021686FF01000CD
:20E1E000886084F8505000206AE7606D40F0020060652068016821F400510160206801683D
:20E2000041F40051016084F8505058E7022057E72DE9F843044690F851009846012870D1A0
:20E2200039B332B394F8500001286AD0012684F85060122084F85100002565652163A286E1
:20E24000E286E564A564A563A587E587A06A7703B84209D12068016821F4005101602068CC
:20E26000016841F400510160A068B0F5004F03D007E00120BDE8F8832068016841F4804170
:20E28000016020680168490603D4016841F040010160E0680028606804D0D8B1E08E01289E
:20E2A00018D021E010B1E08E012808D1206B411C216321680078C860E08E401EE086000479
:20E2C000000C1FD0434600220221204601F0B2FEA8B9EBE7206B21680088C860206B801C50
:20E2E0002063E08E401EE0860004000C0AD0434600220221204601F09DFE0028EAD00320BA
:20E30000B8E726E0A06AB84204D12068016841F480510160434600220221204601F08AFE7A
:20E3200030B9434601228021204601F083FE20B1606D40F010006065E1E7A06818B9206803
:20E34000C1688068009084F8516084F85050002090E702208EE72DE9F8430025DDF82080BA
:20E360000446ADF8005090F85100012803D094F8510022287DD169B162B15BB194F85000FF
:20E38000012876D0012684F8506094F85100012803D005E00120BDE8F883322084F851009D
:20E3A0006565A263A387E3872163A386E386A564E564A06A4FF40057B84209D12068016829
:20E3C00021F4005101602068016841F40051016020680168490603D4016841F0400101604B
:20E3E000E0684FF48271B0F5006F606807D0002867D088426ED1E08E012862D06AE020B1A0
:20E4000088420CD1E08E012809D1206B21680088C860206B801C2063E08E401EE086E08ED6
:20E4200080B9A06AB84244D12068016841F4805101603EE02068C068A16B0880A06B801C29
:20E44000A0639EE0434600220221204601F0F2FD002874D1206B21680088C860206B801CCF
:20E460002063E08E401E0004000CE08609D1A06A00E0C7E0B84204D12068016841F48051A6
:20E480000160434600220121204601F0D3FD00286FD12068C068A16B0880A06B801CA063D1
:20E4A000E08F401EE087E08E0028CBD1606800286AD1434600220121204601F0BBFDF0BB44
:20E4C000B8E7206B411C216321680078C860E08E401EE086E08E98B9A06AB84204D12068B6
:20E4E000016841F480510160434600220121204601F0A0FD18BB2068C068A16B087040E064
:20E50000434600220221204601F094FDB8B9206B411C216321680078C860E08E401E00046F
:20E52000000CE08607D1A06AB84204D12068016841F48051016000224346012100E018E0BB
:20E54000204601F077FDA0B92068C168A06B421CA2630170E08F401EE087E08E0028CFD19D
:20E56000606888B9434600220121204601F062FD08B103200FE72068C168A06B421CA2631E
:20E580000170E08F401EE087A06AB84210D1434600220121204601F04DFD18B1606D40F0BD
:20E5A00002000FE02068C068ADF80000BDF80000434601228021204601F03CFD20B1606DE5
:20E5C00040F010006065D4E784F85160A06AB84214D120688168C943C9060FD4616D41F037
:20E5E00002016165016821F4005101602068016841F40051016084F85050CBE684F8505061
:20E600000020C8E60220C6E6704710B5401EB0F1807F01D3012010BD4FF0E02460610F21EE
:20E62000601700F0B9FE0020A06107202061002010BD10B5FFF7E8FF10BD7047704730B544
:20E6400090F83820012A20D0012280F83820022380F8393003685C6824F070045C600368E8
:20E660005C680D682C435C6003689C6824F080049C6003689C6849680C439C6080F83920F7
:20E68000002180F83810084630BD022030BD10B5040003D094F8390010B107E0012010BD58
:20E6A000002084F83800204600F00CF8022084F83900211D206802F011FB012084F83900BB
:20E6C000002010BD00B51E4A01681E4885B0914222D1C16941F00201C161C069694600F01E
:20E6E000020004904FF4707000900020019002901548FEF721FA002211461D20FEF790FBEB
:20E700001D20FEF782FB11484168114A21F0A0611143416005B000BDB1F1804FFAD1C1690E
:20E7200041F00101C161C069002200F00100049011461C20FEF774FB1C20FEF766FBE9E75B
:20E7400000040040001002400010014000000140000C00020168CA6842F00102CA60006821
:20E76000016841F001010160002070470168CA6822F00102CA600068016A41F2111211426F
:20E7800007D1016A9210114203D1016821F0010101600020704700002DE9F05F5B4E044661
:20E7A000007EDFF86CB1A6F10C054FF0000A06F1080706F1100805F10409012820D1EA7862
:20E7C00012B399F803108A4217D12068406BF880F288801A4F4A80B25143B1FBF0F1A8F8D1
:20E7E0000600CBF80C10311F204681F803A0002100F092F82046FFF7B9FFE878401CE8709F
:20E80000207E022804D025E02068406BF080F4E7AA781AB399F802108A4218D12068806B1F
:20E82000B880B288801A3B4A80B25143B1FBF0F1A8F80400CBF8081034492046091F81F8F1
:20E8400002A0042100F068F82046FFF78FFFA878401CA870207E042804D025E02068806B0D
:20E86000B080F4E76878E8B399F80110884218D12068C06B78807288801A264A80B2514348
:20E88000B1FBF0F1A8F80200CBF804101F492046091F81F801A0082100F03EF82046FFF7B7
:20E8A00065FF6878401C6870207E082823D1297839B399F8000081421AD12168096C39809B
:20E8C0003288891A134A89B2A8F800105043B0FBF1F1CBF800100D492046091F81F800A0A3
:20E8E0000C2100E009E000F017F82046FFF73EFF2878401C2870BDE8F09F2068C06B70801F
:20E90000CFE72068006C3080F2E70000EC020020A0300020001BB70010B50268044631B199
:20E92000042908D008291ED00C2908D11FE0D06820F0020002E0D06820F00400D0600022DC
:20E94000206802F0FDF92068016A41F21112114207D1016A9210114203D1016821F0010123
:20E960000160002010BDD06820F00800E6E7D06820F01000E2E770B50446006801694FF08B
:20E980000005C943890715D4C168C943890711D4E91E0161012020762068806980072046C5
:20E9A00002D0FFF7F9FE04E000F098F8204600F096F8257620680169C943490717D4C16853
:20E9C000C943490713D46FF004010161022020762068806910F4407F204602D0FFF7DCFE3A
:20E9E00004E000F07BF8204600F079F8257620680169C943090716D4C168C943090712D44B
:20EA00006FF008010161042020762068C0698007204602D0FFF7C0FE04E000F05FF82046BD
:20EA200000F05DF8257620680169C943C90617D4C168C943C90613D46FF010010161082059
:20EA400020762068C06910F4407F204602D0FFF7A3FE04E000F042F8204600F040F82576A6
:20EA600020680169C943C90708D1C168C943C90704D1891E0161204600F032F8206801699A
:20EA8000C943090609D4C168C943090605D46FF0800101612046FFF7D0FD20680169C943F8
:20EAA000490609D4C168C943490605D46FF040010161204600F032F820680169C9438906BE
:20EAC0000BD4C168C943890607D46FF0200101612046BDE87040FFF7B1BD70BD704770471C
:20EAE0000B4A0168914209D10A4A0021116051609160D160084A11709170D1700068B0F1D4
:20EB0000804F04D104480C380168491C0160704700040040A0300020E8020020704710B521
:20EB200004460068416921F0C0014161206B08B1FDF734FD606B08B1FDF730FD012084F85A
:20EB40003900002010BD704790F839007047000038B5044600680168C26811F0010F02F427
:20EB6000807204D01AB1E16B41F00101E1630168C1F34002416901F0010122B119B1E26B5B
:20EB800042F00402E2630268C2F3800222B119B1E26B42F00202E2630268C2F3C00222B13E
:20EBA00019B1E16B41F00801E1630168C068C1F3401100F0200019B110B1204602F03EF901
:20EBC00020680168C068C1F3C01100F0800019B110B1204602F03EFA21680868CA68C0F32E
:20EBE000801002F04002012570B16AB1CA68204622F04002CA6094F83910322911D080F850
:20EC0000395000BF00F0B4F9E06B002808D0206801684068009084F839502046FFF793FFA8
:20EC200038BD222180F83910ECE770B5040004D094F83900002510B106E0012070BD84F8B0
:20EC40003850204600F020F8022084F839002068C16821F40051C160204602F043F9206893
:20EC6000016921F4904101612068416921F02A0141612068C16841F40051C160E563012011
:20EC800084F83900002070BD10B500681D4986B0884235D11C48816941F004018161816989
:20ECA00001F004010491C16941F40031C161C16901F400310491816941F00101816180694A
:20ECC000124C00F0010004900420009002200190012002900320039069462046FDF72CFF4D
:20ECE000082000900020019069462046FDF724FF2620FEF78AF8032211462620FEF790F883
:20ED000006B010BD0044004000100240000801402DE9F047044690F8390099460D4601289E
