:020000040800F2
:20840000484000200585000887FE000809FA000885FE0008F3890008B5330108000000008A
:208420000000000000000000000000001D0C01089BBE00080000000041020108F11601084D
:208440001F8500080B0201081F8500081F8500081F8500081F8500081F85000817C000081F
:208460001DC000081F8500081F8500081F85000865BE000871BE00081F8500081F85000859
:208480001F8500081F8500081F8500081F850008FD2E01081F8500081F8500081F850008F4
:2084A0001F8500081F8500081F8500081F850008B11701085D1801081F8500081F85000865
:2084C0001F8500081F8500081F8500081F8500081F8500081F850008D11D01081F850008F1
:2084E000F9BF00081F8500081F850008DFF810D000F046F8004800473D490108AFF300803F
:20850000484000200648804706480047FEE7FEE7FEE7FEE7FEE7FEE7FEE7FEE7FEE7FEE717
:2085200065170108ED84000840EA01039B0703D009E008C9121F08C0042AFAD203E011F801
:20854000013B00F8013B521EF9D27047D2B201E000F8012B491EFBD270470022F6E710B581
:2085600013460A4604461946FFF7F0FF204610BD421C10F8011B0029FBD1801A70470000C9
:20858000064C074D06E0E06840F0010394E8070098471034AC42F6D3FFF7ACFF1066010856
:2085A0003066010870B58C1810F8015B15F0070301D110F8013B2A1106D110F8012B03E0A1
:2085C00010F8016B01F8016B5B1EF9D12B0705D40023521E0DD401F8013BFAE710F8013BA6
:2085E000CB1A921C03E013F8015B01F8015B521EF9D5A142D8D3002070BD000070B50446C1
:2086000000688168C943C9071CD1816821F00101816004F05DFF05460FE000BF04F058FFCF
:20862000401B022809D9A06A40F01000A062E06A40F00100E062012070BD20688068C04309
:20864000C007EBD0002070BDF8B500260446009600688168C943C90728D0816841F0010157
:208660008160134813490068B0FBF1F000E0401E00900028FBD104F02BFF054611E000BF93
:2086800004F026FF401B02280BD9A06A40F01000A062E06A40F00100E06284F8246001202E
:2086A000F8BD20688068C043C007E9D10020F8BD8400002040420F0010B500F093F8302077
:2086C00000F0A4F8942000F0A1F8D12000F09EF8202000F09BF80B2000F0B2F8812000F041
:2086E00095F83F2000F0ACF8032000F0A9F8F02000F08CF8102000F0A3F8CA2000F086F8AF
:20870000002000F09DF8872000F09AF8202000F097F8BC2000F07AF8002000F091F8A6202F
:2087200000F074F8762000F071F8752000F06EF8002000F085F8282000F082F8152000F09F
:2087400065F8002000F07CF8FF2000F079F8312000F05CF8322000F059F8002000F070F818
:20876000022000F06DF8012000F06AF8512000F04DF8FB2000F064F8402000F047F8F4205F
:2087800000F044F8002000F05BF8002000F058F8002000F055F8002000F052F8002000F023
:2087A0004FF8002000F04CF8002000F049F8002000F046F8F02000F029F8152000F040F801
:2087C000152000F03DF8152000F03AF8152000F037F8302000F01AF8BDE81040AF2000F08E
:2087E00015B8000010B5084C0020C4F8AC01322004F5D6740AF0ABFF01202060BDE810403B
:2088000032200AF0A4BF00000000224231B509490020C1F8A801084CC4F8BC010A2301226E
:208820006946064804F5DE7406F0DAF80120206038BD00000000224200002142A82F0020D4
:2088400031B509480124C0F8A841084D0020C5F8BC010A2322466946054805F5DE7506F058
:20886000BFF82C6038BD00000000224200002142A82F002000F0D6B80648008800EB0011B2
:2088800001EB4010044901EB8000808A80B200F087BB000092000020300300207047012098
:2088A00002F032B80648008800EB001101EB4010044901EB80000121808A80B201F0F6BE12
:2088C0009200002030030020134810B5008800EB001101EB4011114800EB8100827BC17BB4
:2088E00002EBC20303EB021201EB820101F60E41B1F500510AD00C2908D08720084A002117
:208900005318491C58700429FADB10BD808A80B201F026FEF2E700009200002030030020C1
:20892000700F002070B5274D04464FF0000649B114E001221021284604F0C4FD64200AF08D
:208940001CFF761CA642F4D334E001221021284604F0B8FD64200AF010FF761CA642F4D36E
:2089600000221021284604F0ADFD64200AF0EFFE002608E001221021284604F0A3FD642045
:208980000AF0FBFE761CA642F4D300221021284604F098FD64200AF0DAFE002608E00122D2
:2089A0001021284604F08EFD64200AF0E6FE761CA642F4D32846BDE870400022102104F0EC
:2089C00081BD00000010014030B50246002001465FF0010422FA01F3DB0705D0C1F107059B
:2089E00004FA05F30343D8B2491CC9B20729F1D330BDFEE7084882B0416941F040014161CB
:208A00004069074900F04000009004480860084602B004F099B900000010024000300240DF
:208A20000403002010B500F00BFE002002F0FAFA00F004F801F064FD10BD00001CB54FF42C
:208A400000422021002000F067FE01A802F0FEF9684602F0FBF9002410E001A8005D87282F
:208A600003D11DF80400012803D098211648015502E0002114480155601CC4B2042CECDB02
:208A80009DF80400872803D19DF80000012819D09DF80500872803D19DF80100012811D056
:208AA0009DF80600872803D19DF80200012809D09DF80700872803D19DF80300012801D04E
:208AC00001F01EFD1CBD0000710F002008B1034900E00349034A1160704700002D370108FE
:208AE000253701082403002010B508F067FE144800784FF0707101EA8050124908611048DD
:208B000000784FF4F00101EAC0400F490860002008F088FD1E200AF00FFE09480078FFF75D
:208B200053FF00F0F004204608F07CFD14200AF003FE002008F076FD19200AF008FE10BD68
:208B40008E00002000100140100C01402DE9F04F87B0814640F2F23A40F2DE3B4FF0000876
:208B600000240AE0FE480078A04000F0080010B10121FC480155601CC4B2042CF2DB1EE0E7
:208B8000002002F04FFA01F039FE07F05BFB10B901F0B6FC13E00021082001F067FD4FF4C5
:208BA0008072F149002001F08FFC00234FF48072ED49184600F0D6FB01F0A2FC00BF07F0FB
:208BC00041FB28B94046411C01F0FF080328D7DB07F038FB10B907B0BDE8F08FB9F1000F39
:208BE0005AD140F2F23A40F2DE3B00F011FD02200BF01AFE05200AF0AAFDFFF775FF00241A
:208C000022E0DA4830F8240001A921F81400D74850F82400504508D8D44850F824005845E8
:208C200009D2D24850F8240028B10120D04908550021CC480155CD4850F824000001CB4942
:208C400041F82400601CC4B2042CDADBC7480068A8B9C648406890B9C448806878B9C348D9
:208C6000C06860B9002407E0BE48005D10B99021BC480155601CC4B2042CF5DB0BE00BF099
:208C80006DFB0020B749491E48700021B548401E8170C17001719EE700247AE1B448005DC0
:208CA00000287DD0B14850F824000028F9D0FF2500264FF000080121AA48015520E00020CE
:208CC00002F0B0F901F09AFDA648005D10B101F017FC15E085F08000A64901EBC411C8708F
:208CE00022460021092001F0D0FC2146002002F087FB2146012002F05FF801F001FC00BF8C
:208D00009848005D28B14046411C01F0FF080328D5D19448401E407860B19248401E80785E
:208D200040B19048401EC07820B18E48401E007900B150E700F06CFC02200BF075FD8B48B4
:208D400030F8240005A921F81400FFF7CDFE4FF0000801218348015520E0002002F062F934
:208D600001F04CFD7F48005D10B101F0C9FB15E086F080007F4901EBC411C87022460021EA
:208D8000092001F082FC2146002002F039FB2146012002F011F801F0B3FB00BF714800E014
:208DA000F5E0005D28B14046411C01F0FF080328D3D16C48401E407860B16A48401E80781B
:208DC00040B16848401EC07820B16648401E007900B100E700F01CFC02200BF025FD052002
:208DE0000AF0B5FC614830F8240003A921F81400FFF77AFE64E0A81900EBD071C1F3470759
:208E00004FF0000801215748015520E0002002F009F901F0F3FC5348005D10B101F070FBEB
:208E200015E087F08000534901EBC411C87022460021092001F029FC2146002002F0E0FA96
:208E40002146012001F0B8FF01F05AFB00BF4548005D28B14046411C01F0FF080328D5D16E
:208E60004048401E407860B13E48401E807840B13C48401EC07820B13A48401E007900B181
:208E8000A9E600F0C5FB02200BF0CEFC05200AF05EFCFFF729FE354850F82400B0F57A7F8F
:208EA00007D93E46314830F8240003A921F8140006E03D462D4830F8240005A921F81400AB
:208EC000681EB04297DC05AA32F81420A2F57A7003AA32F81420A2F57A71002901DB0A4637
:208EE00000E04A42002801DB034600E043429A4207DA374603A830F8140001A921F814005C
:208F000006E02F4605A830F8140001A921F8140087F080001849087008460078154901EB56
:208F2000C411C87001201549085501A830F81400504507DC01A830F8140058450CDA094832
:208F4000005D48B901A830F814000001074941F8240090210348015501A830F814000FE0FA
:208F60008E000020710F0020585E0108883000201803002048320020200300201C030020B5
:208F80000001064941F8240020460BF039FA601CC4B2042CFFF682AE00BF1CE688300020B0
:208FA00070B505460AF01EFF00F04AFB002002F039F801F023FC07F045F910B1022001F099
:208FC000A3FC01F09DFA07F03DF910B10020FFF7BDFD5B48407840B15948807828B158484E
:208FE000C07810B156480079F0B95648007840B95448407828B95348807810B95148C07847
:2090000090B10120FFF7A2FD00240BE04C48401C005D28B94B48005D10B1204600F0D6F847
:20902000601CC4B2042CF1DB07F00CF900B970BD4448007840B94348407828B941488078BE
:2090400010B94048C07860B1002001F0EBFF01F0D5FB07F0F7F810B1022001F055FC01F0BE
:209060004FFA00242BE03648401C005D28BB36480078A04000F00800F8B1002001F0D2FF05
:209080002146102001F0E2FA22460021092001F0FCFA01F035FA002001F0C4FF2146002058
:2090A00002F0AEF901F02CFA002001F0BBFF2146012001F081FE01F023FA601CC4B2042C0D
:2090C000D1DB07F0BFF878B10AF05CFE002001F0A9FF284602F016F90AF03EFF00212846CB
:2090E00001F0E4FA01F00CFA07F0ACF808B100F099F900241DE01248401C005DB8B91248D5
:209100000078A04000F0080088B1002001F08AFF2146012002F074F901F0F2F9002001F058
:2091200081FF2146032001F047FE01F0E9F9601CC4B2042CDFDB01F0E3F900BF77E7000056
:20914000700F0020180300208E00002010B50AF049FE002404E000211B480155601CC4B2AD
:20916000042CF8DB00F06CFA002001F05BFF01F045FB01F0C5F9002001F054FF102001F0C6
:2091800057FA01F0BDF91048401E407858B10E48401E807838B10C48401EC07818B10A48C6
:2091A000401E007960B90AF0EDFD002001F03AFF02F006F90AF0D0FE01F06EFB01F0A0F9F4
:2091C00001F09EF910BD0000710F0020F8B504460027012161480155614800EBC410C078BB
:2091E0005F4901EBC41181F8430000205C4901EBC41181F844005A4800EBC410407958494C
:2092000001EBC41181F845009DE0002001F00AFF01F0F4FA5148005D10B101F071F992E0D5
:2092200022464FF48071092001F02FFA4C4901EBC41191F84300234640F20312052100F067
:209240003BFC14200AF099FA04250DE0444901EBC41205F14001505C214602F05DFA1420EA
:209260000AF08BFA681CC5B20D2DEFDB234640F203120321002000F01FFC032511E06846AA
:2092800001F0E4FD364800EBC41105F140000E5C1DF80400B04202D0942130480155681C3A
:2092A000C5B20D2DEBDB01F02BF92C48005D002848D101F0B7FE01F0A1FA2848005D10B150
:2092C00001F01EF93FE023464FF4807205215A2000F0F2FB14200AF050FA21460F2002F04C
:2092E0001BFA14200AF049FA21466D2002F014FA14200AF042FA23464FF4807203210020A8
:2093000000F0DAFB684601F0A1FD1DF804005A2802D0942111480155684601F097FD1DF832
:2093200004000F2802D094210C480155684601F08DFD1DF804006D2802D0942107480155BE
:2093400001F0DEF800BF0548005D28B13846791CCFB20328FFF659AFF8BD0000710F0020F3
:20936000483200202DE9F84380460D4616461F46002F51D100220221104600F0CDF9002462
:2093800047E0684601F062FD9DF80000295D884205D02348407810B99420214948709DF897
:2093A0000100295D884205D01D48807810B994211B4881709DF80200295D884205D018483C
:2093C000C07810B994211648C1709DF80300295D884205D01248007910B994211048017170
:2093E0009DF80000295D884211D09DF80100295D88420CD09DF80200295D884207D09DF892
:209400000300295D884202D001F07AF803E0601C84B2B442B5DB00BF0020BDE8F8830000AA
:20942000700F002070B501267548008800EB001101EB4010734901EB800090F8460000B915
:2094400070BD6F48008800EB001101EB40106D4901EB800090F8460000287CD00024C9E037
:209460006948005D002877D168480078A04000F00800002870D06248008800EB001101EBEC
:209480004010604901EB800090F85C505C48008800EB001101EB40105A4901EB800090F838
:2094A0005E0005EB00255648008800EB001101EB4010544901EB800090F8600005EB0045B5
:2094C0004F48008800EB001101EB40104D4901EB800090F8620005EB0065002001F0A2FD44
:2094E0000F200AF034F9464A128802EB021303EB4212444B03EB820292F84610404A1288A3
:2095000002EB021303EB42123E4B03EB8202B2F8482090B2224600F09BFF64200AF017F938
:20952000374A128802EB021303EB4212354B03EB820292F84610324A128802EB021303EBF4
:209540004212304B03EB8202B2F8482090B2224600F0A0F801E050E042E000F0D1FF2A4821
:20956000005DE8BB29480078A04000F00800B8B32348008800EB001101EB4010214901EB3E
:20958000800090F964000544E8B21D49098801EB011202EB41111B4A02EB8101A1F85C007D
:2095A000C5F307211648008800EB001202EB4010144A02EB8000A0F85E10C5F30741104882
:2095C000008800EB001202EB40100E4A02EB8000A0F86010280E0A49098801EB011200E003
:2095E00006E002EB4111074A02EB8101A1F86200601CC4B2042CFFF633AF00BF20E70000CC
:209600009200002030030020710F00208E00002010B508F009F9002008F004F832200AF0D8
:209620008BF806480078FFF7CFF90409204607F0F9FF32200AF08BF810BD00008E00002077
:2096400010B504201149087018E0012001F0EAFC01F0D4F80E48407840B10D48807828B17D
:209660000B48C07810B10A48007900B90AE000F047FF06480078801C044908700348007810
:209680000A28E2DB00BF00F03BFF10BD21030020700F0020F8B506460F46144623463246B9
:2096A0000221002000F008FA0A200AF066F80A200AF063F80A200AF060F8002520E0684625
:2096C00001F0C4FB1048008800EB001101EB40100E4901EB80005C3030F815001DF804100D
:2096E00088420BD00A48005D40B90A480078A04000F0080010B1932105480155681CC5B268
:20970000BD42DCDBF8BD00009200002030030020710F00208E0000202DE9F04705460E469F
:2097200017464FF0A5084FF00009A94601F096FDDD4800784FF4F00101EAC040DB490860DD
:2097400000242FE008F0010040B1D74800784FF4707101EA8010D649086107E0D2480078B5
:209760004FF0707101EA8050D1490861D14800688047CD480078782101EAC000CB490860F6
:20978000CC4800688047C84800784FF4F00101EAC040C64908604FEA5808C6480068804792
:2097A000601CC4B2082CCDDBBF4800784FF4707101EA8010BE490861BE4800688047BA4816
:2097C0000078782101EAC000B8490860B94800688047B54800784FF4F00101EAC040B349A4
:2097E0000860B44800688047AF480078782101EAC000AE490860AF4800688047AA48007834
:209800004FF4F00101EAC040A8490860A94800688047A5480078782101EAC000A3490860B3
:20982000A44800688047A04800784FF4F00101EAC0409E4908609F48006880479A480078CF
:20984000782101EAC000994908609A4800688047954800784FF4F00101EAC04093490860B1
:2098600094480068804790480078782101EAC0008E4908608F48006880478B4800784FF476
:20988000F00101EAC040894908608A480068804700242EE007F0010040B1834800784FF410
:2098A000707101EA80108249086107E07E4800784FF0707101EA80507D4908617D480068BC
:2098C000804779480078782101EAC00077490860784800688047744800784FF4F00101EADA
:2098E000C040724908607F10724800688047601CC4B2102CCEDB00242EE006F0010040B1DC
:20990000694800784FF4707101EA80106849086107E0654800784FF0707101EA80506449D1
:2099200008616448006880475F480078782101EAC0005E4908605F48006880475A48007881
:209940004FF4F00101EAC040584908607610594800688047601CC4B2062CCEDB00242FE089
:2099600009F0010040B1504800784FF4707101EA80104F49086107E04B4800784FF070713A
:2099800001EA80504A4908614A480068804746480078782101EAC00044490860454800681B
:2099A0008047414800784FF4F00101EAC0403F4908604FEA69093F4800688047601CC4B27D
:2099C000082CCDDB85EA251585EAA50585EA650505F0010040B1344800784FF4707101EA26
:2099E00080103349086107E02F4800784FF0707101EA80502E4908612E48006880472A484A
:209A00000078782101EAC00028490860294800688047254800784FF4F00101EAC0402349A1
:209A200008602448006880471F4800784FF4707101EA80101E4908611E480068804700241C
:209A400016E019480078782101EAC00017490860184800688047144800784FF4F00101EAA9
:209A6000C04012490860134800688047601CC4B2032CE6DB0C480078782101EAC0000B4953
:209A800008600C4800688047074800784FF4F00101EAC0400549086006480068804701F0D1
:209AA0000BFCBDE8F08700008E000020100C014000100140240300202DE9F04706460F46F2
:209AC00090461C464FF0A5094FF0000AB24601F0C5FB34B1012C08D0022C0BD0032C13D169
:209AE0000DE00020F74908600EE00020F549091F086009E00020F3490839086004E00020E3
:209B0000F0490C39086000BF00BF00257FE009F00100D8B134B1012C08D0022C0BD0032CB8
:209B200013D10DE00120E84908600EE00120E649091F086009E00120E3490839086004E009
:209B40000120E1490C39086000BF1BE034B1012C08D0022C0BD0032C13D10DE00020DA491D
:209B600008600EE00020D849091F086009E00020D5490839086004E00020D3490C39086021
:209B800000BF00BFD1480068804734B1012C08D0022C0BD0032C13D10DE00120C949086071
:209BA0000EE00120C749091F086009E00120C5490839086004E00120C2490C39086000BFB9
:209BC00000BFC2480068804734B1012C08D0022C0BD0032C13D10DE00020BA4908600EE021
:209BE0000020B849091F086009E00020B5490839086004E00020B3490C39086000BF00BFD9
:209C00004FEA5909B14800688047681CC5B2082DFFF67DAF34B1012C08D0022C0BD0032C0E
:209C200013D10DE00120A84908600EE00120A649091F086009E00120A3490839086004E0C8
:209C40000120A1490C39086000BF00BF9F480068804734B1012C08D0022C0BD0032C13D1B2
:209C60000DE00120974908600EE001209549091F086009E0012093490839086004E001207D
:209C800090490C39086000BF00BF90480068804734B1012C08D0022C0BD0032C13D10DE0C6
:209CA0000020884908600EE000208649091F086009E0002083490839086004E00020814992
:209CC0000C39086000BF00BF80480068804734B1012C08D0022C0BD0032C13D10DE001204E
:209CE000784908600EE001207649091F086009E0012074490839086004E0012071490C3969
:209D0000086000BF00BF71480068804734B1012C08D0022C0BD0032C13D10DE000206949B0
:209D200008600EE000206749091F086009E0002064490839086004E0002062490C390860B2
:209D400000BF00BF61480068804734B1012C08D0022C0BD0032C13D10DE00120594908608F
:209D60000EE001205749091F086009E0012055490839086004E0012052490C39086000BF47
:209D800000BF52480068804734B1012C08D0022C0BD0032C13D10DE000204A4908600EE03F
:209DA00000204849091F086009E0002045490839086004E0002043490C39086000BF00BF67
:209DC00042480068804734B1012C08D0022C0BD0032C13D10DE001203A4908600EE00120BC
:209DE0003849091F086009E0012036490839086004E0012033490C39086000BF00BF3348F9
:209E00000068804734B1012C08D0022C0BD0032C13D10DE000202B4908600EE000202949A4
:209E2000091F086009E0002026490839086004E0002024490C39086000BF00BF2348006802
:209E4000804734B1012C08D0022C0BD0032C13D10DE001201B4908600EE001201949091FC2
:209E6000086009E0012017490839086004E0012014490C39086000BF00BF1448006880474F
:209E800034B1012C08D0022C0BD0032C13D10DE000200C4908600EE000200A49091F086001
:209EA00009E0002007490839086004E0002005490C39086000BF00BF044800688047002583
:209EC00086E0000098812142A40122422403002008F00100D8B134B1012C08D0022C0BD0DB
:209EE000032C13D10DE00120F74908600EE00120F549091F086009E00120F34908390860CD
:209F000004E00120F0490C39086000BF1BE034B1012C08D0022C0BD0032C13D10DE0002089
:209F2000E94908600EE00020E749091F086009E00020E5490839086004E00020E2490C3965
:209F4000086000BF00BFE1480068804734B1012C08D0022C0BD0032C13D10DE00120DC498A
:209F600008600EE00120DA49091F086009E00120D7490839086004E00120D5490C39086014
:209F800000BF00BFD1480068804734B1012C08D0022C0BD0032C13D10DE00020CC4908606B
:209FA0000EE00020CA49091F086009E00020C8490839086004E00020C5490C39086000BFAF
:209FC00000BF4FEA6808C14800688047681CC5B2102DFFF67DAF00257EE007F00100D8B184
:209FE00034B1012C08D0022C0BD0032C13D10DE00120B54908600EE00120B349091F08604C
:20A0000009E00120B0490839086004E00120AE490C39086000BF1BE034B1012C08D0022C19
:20A020000BD0032C13D10DE00020A74908600EE00020A549091F086009E00020A24908390C
:20A04000086004E00020A0490C39086000BF00BF9E480068804734B1012C08D0022C0BD078
:20A06000032C13D10DE00120994908600EE001209749091F086009E0012095490839086065
:20A0800004E0012092490C39086000BF00BF8F480068804734B1012C08D0022C0BD0032C8D
:20A0A00013D10DE000208A4908600EE000208849091F086009E0002085490839086004E0A1
:20A0C000002083490C39086000BF00BF7F107F4800688047681CC5B2062DFFF67EAF00256F
:20A0E0007FE00AF00100D8B134B1012C08D0022C0BD0032C13D10DE00120734908600EE057
:20A1000001207149091F086009E001206E490839086004E001206C490C39086000BF1BE049
:20A1200034B1012C08D0022C0BD0032C13D10DE00020654908600EE000206349091F0860AC
:20A1400009E0002060490839086004E000205E490C39086000BF00BF5C480068804734B116
:20A16000012C08D0022C0BD0032C13D10DE00120574908600EE001205549091F086009E082
:20A18000012053490839086004E0012050490C39086000BF00BF4D480068804734B1012CBA
:20A1A00008D0022C0BD0032C13D10DE00020484908600EE000204649091F086009E000206F
:20A1C00043490839086004E0002041490C39086000BF00BF4FEA6A0A3C4800688047681CAD
:20A1E000C5B2082DFFF67DAF86EA261686EAA60686EA660606F00100D8B134B1012C08D084
:20A20000022C0BD0032C13D10DE001202E4908600EE001202C49091F086009E001202A49A4
:20A220000839086004E0012027490C39086000BF1BE034B1012C08D0022C0BD0032C13D193
:20A240000DE00020204908600EE000201E49091F086009E000201C490839086004E0002000
:20A2600019490C39086000BF00BF18480068804734B1012C08D0022C0BD0032C13D10DE0CF
:20A280000120134908600EE001201149091F086009E001200E490839086004E001200C497C
:20A2A0000C39086000BF00BF08480068804734B1012C0FD0022C11D0032C19D113E00020C8
:20A2C0000349086014E00000A4012242240300209881214200205B49086009E00020594933
:20A2E000091F086004E0002056490839086000BF00BF55480068804734B1012C08D0022C20
:20A300000BD0032C13D10DE00020504908600EE000204E49091F086009E000204B4908392E
:20A32000086004E0002049490C39086000BF00BF45480068804700253FE034B1012C09D009
:20A34000022C0BD0032C13D10DE001203D49091D08600DE001203B49086009E00120394939
:20A36000091F086004E0012036490839086000BF00BF35480068804734B1012C09D0022CDD
:20A380000BD0032C13D10DE000202E49091D08600DE000202B49086009E000202949091F31
:20A3A000086004E0002027490839086000BF00BF254800688047681CC5B2032DBDDB34B156
:20A3C000012C09D0022C0BD0032C13D10DE001201C49091D08600DE001201A49086009E098
:20A3E00001201849091F086004E0012015490839086000BF00BF14480068804734B1012C24
:20A4000009D0022C0BD0032C13D10DE000200D49091D08600DE000200A49086009E0002085
:20A420000849091F086004E0002006490839086000BF00BF04480068804700F03DFFBDE875
:20A44000F08700009481214224030020A40122422DE9F04106460F4614461949098801EB9C
:20A46000011202EB4111174A02EB810191F85C00234632460421FFF71FFB0A2009F07DF926
:20A480000A2009F07AF90A2009F077F9012513E00B49098801EB011202EB4111094A02EB17
:20A4A00081015C3111F81500214601F035F90A2009F063F9681CC5B2BD42E9DBBDE8F08196
:20A4C00092000020300300202DE9F04107460C461646207800220421FFF71EF90A2009F026
:20A4E0004CF9012507E0605D01F020F80A2009F044F9681C85B2B542F5DBBDE8F08100004C
:20A5000010B5144800784FF4F00101EAC04012490860104800784FF0707101EA80500F49BD
:20A520000861002007F07EF81E2009F005F909480078FEF749FA00F0F004204607F072F844
:20A54000142009F0F9F8002007F06CF8192009F0FEF810BD8E000020100C01400010014011
:20A560002DE9F047054600262846E91705EB5151C1F3C7292A4800884FF4A02101EB404807
:20A58000002714E04FF400622649404605F0ACFE002405E02348005D304486B2601C84B238
:20A5A000B4F5006FF6DB08F50068781CC7B24F45E8DB1B48008800EB001101EB40101A4963
:20A5C00001EB8000B0F86600B04202D08620BDE8F087134909884FF4003202EB01302022B9
:20A5E000124905F081FE0026002405E00F48005D304486B2601C84B2202CF7DB0848008855
:20A6000000EB001101EB4010074901EB8000B0F86C00B04201D08620D9E70020D7E700002B
:20A620009200002020120020300300202022002010B50446062009F08AF8002221461046D2
:20A64000FFF76AF80F2009F082F810BD70B504460D46062009F07BF82B460022214610468F
:20A66000FFF72AFA0F2009F072F870BD70B504460D46062009F06BF82A4621460020FFF7D0
:20A680004BF8052009F063F870BD70B504460D461646062009F05BF833462A4621460020D1
:20A6A000FFF70AFA0F2009F052F870BD2DE9F84F07468846B7F5804F01D14FF0080AB7F53F
:20A6C000004F01D14FF0100A484800884FF4A02101EB4049B8F1000F50D1002202211046FB
:20A6E000FFF71AF8002647E04FF400624049484605F0FAFD09F50069002438E0684600F01C
:20A70000A5FB002513E01DF805003949095D88420BD03848405D40B937480078A04000F0FD
:20A72000080010B1932133484155681C85B2042DE9DB9DF800002E49095D884215D09DF825
:20A7400001002B49095D88420FD09DF802002849095D884209D09DF803002549095D88422E
:20A7600003D0FFF7CDFEBDE8F88F601C84B2B4F5006FC3DB701CC6B25645B5DBB8F1010FC9
:20A7800031D100240AE01C480078A04000F0080010B104F0FF0B03E0601C84B2042CF2DBA4
:20A7A00000BFFEF74DFF012000F03CFC002202211046FEF7B1FF002611E0002408E068463F
:20A7C00000F044FB1DF80B0009490855601C84B2B4F5006FF3DB0AF0C9FC701CC6B2564585
:20A7E000EBDBFFF78DFE00BFBDE700009200002020120020710F00208E0000201CB54FF449
:20A80000004220210020FEF787FF01A800F01EFB684600F01BFB002417E001A8005D8728E4
:20A820000ED11DF8040001280AD11A48005D18B11848005D012806D100211648015502E020
:20A84000982114480155601CC4B2042CE5DB9DF80400872803D19DF80000012819D09DF853
:20A860000500872803D19DF80100012811D09DF80600872803D19DF80200012809D09DF864
:20A880000700872803D19DF80300012801D0FFF737FE1CBD710F002038B500220221104670
:20A8A000FEF73AFF002527E0684600F0CFFA00240BE01DF80400552805D01248005D10B9DD
:20A8C000932110480155601C84B2042CF1DB9DF8000055280ED09DF8010055280AD09DF8F6
:20A8E0000200552806D09DF80300552802D0FFF707FE38BD681C85B2B5F5006FD4DB00BFEA
:20A90000F7E70000710F0020F8B50646002E3ED1002203211046FEF7FFFE002435E068460E
:20A9200000F094FA00250FE01DF80500F94901EBC511095D884205D0F748405D10B9942108
:20A94000F5484155681CC5B2042DEDDB9DF80000F049095D884216D09DF80110ED488030C1
:20A96000005D81420FD09DF80210EC48005D814209D09DF80310E9488030005D814202D089
:20A98000FFF7BEFDF8BD601CC4B2202CC7DB032E3ED1202203210020FEF7BEFE202435E0A1
:20A9A000684600F053FA00250FE01DF80500D94901EBC511095D884205D0D748405D10B910
:20A9C0009421D5484155681CC5B2042DEDDB9DF80000D049095D884216D09DF80110CD489C
:20A9E0008030005D81420FD09DF80210CB48005D814209D09DF80310C8488030005D81426D
:20AA000002D0FFF77DFDBDE7601CC4B2402CC7DB012E42D1002409E0C1480078A04000F0B0
:20AA2000080008B1274603E0601CC4B2042CF3DB00BF002000F0F6FA002203211046FEF7C5
:20AA40006BFE002408E0684600F000FA1DF80700B4490855601CC4B2402CF4DBB14890F8C5
:20AA60003C00B0490877084690F83D004877084690F83E008877084690F83F00C877AA49F6
:20AA8000098801EB011202EB4111A84A02EB8101087E0AF085FBFFF733FD022E78D10022C5
:20AAA00003211046FEF738FE002415E0684600F0CDF99DF80000974908559DF8011095481F
:20AAC000803001559DF80210803001559DF8031080300155601CC4B2402CE7DB002404E0ED
:20AAE000684600F0B3F9601CC4B2802CF8DB002404E0684600F0AAF9601CC4B2402CF8DB21
:20AB0000002417E0684600F0A1F99DF8001004F14000804A11549DF801207E4980310A544D
:20AB20009DF8022080310A549DF8032080310A54601CC4B2402CE5DBFFF7E2FC002000F086
:20AB400071FAFFF75BFE05F07DFB00284DD0002203211046FEF7E0FD002415E0684600F064
:20AB600075F99DF80000724908559DF801107048803001559DF80210803001559DF8031001
:20AB800080300155601CC4B2402CE7DB002405E009E1684600F05AF9601CC4B2802CF8DB3A
:20ABA000002404E0684600F051F9601CC4B2402CF8DB002417E0684600F048F99DF80010D5
:20ABC00004F140005A4A11549DF80120584980310A549DF8022080310A549DF803208031A2
:20ABE0000A54601CC4B2402CE5DBFFF789FC002521E0002417E0474800EBC410405D4C499D
:20AC000001EBC411495D88420BD04348005D40B943480078A04000F0080010B197213E486D
:20AC20000155601CC4B2042CE5DB05F00BFB00B9A8E6681CC5B2802DDBDB0024B0E035480B
:20AC400000EBC41090F840005A2879D1314800EBC41090F841000F2872D12E4800EBC410F1
:20AC600090F842006D286BD10020324908550120314908553148807F264901EBC41191F818
:20AC80003E1088420BD12D48C07F224901EBC41191F83F10884202D10020274908551D4819
:20ACA00000EBC41040791B4901EBC41191F8451088420AD1174800EBC410C078154901EBD4
:20ACC000C41191F84310884202D001201A490855104800EBC41090F843000E4901EBC4114C
:20ACE000C8700C4800EBC41090F84500094901EBC41148711148807F064901EBC41181F88F
:20AD00003E000E48C07F034901EBC41181F83F0044E015E048320020710F002048330020AD
:20AD20008E00002020120020920000203003002048340020180300201C0300202022002096
:20AD40001A4800EBC41090F840005A2818D1174800EBC41090F841000F2811D10020144922
:20AD600008551448807F114901EBC41181F83E001048C07F0D4901EBC41181F83F000DE0F6
:20AD80000A4800EBC41090F840005A2803D101200749085502E0012005490855601CC4B216
:20ADA000042CFFF64CAF00BFECE50000483200201803002020220020F8B506460C46012E32
:20ADC0001ED12346002203211046FEF775FE002514E0684600F03AF81DF80400194901EBC7
:20ADE000C411495D884207D01748005D20B9FFF787FB942114480155681CC5B2202DE8DBB8
:20AE0000032E1ED12346202203210020FEF754FE202514E0684600F019F81DF80400094989
:20AE200001EBC411495D884207D00748005D20B9FFF766FB942104480155681CC5B2402D6F
:20AE4000E8DBF8BD48320020710F002070B5044600F004FA052008F090FC6E48006820F00C
:20AE60007F4040F088406B4908600846406820F0FF0040F04400486008040861052008F04C
:20AE80007CFC002542E0207840102070607840106070A0784010A070E0784010E0705E486D
:20AEA0000078782101EAC0005C4908605C48006880475848806800F4007010B12078803001
:20AEC00020705448806800F4807010B16078803060705048806800F0800010B1A0788030E8
:20AEE000A0704C48806800F0400010B1E0788030E070494800784FF4F00101EAC0404749C5
:20AF00000860474800688047681CC5B2082DBADB43480068804740480078782101EAC00048
:20AF20003E4908603E48006880473B4800784FF4F00101EAC04039490860394800688047B9
:20AF40003448006820F07F4040F08850314908600846406820F0FF0040F0110048608814CA
:20AF600008612D4800784FF0707101EA8050294908612B480068804727480078782101EAB8
:20AF8000C00026490860264800688047224800784FF4F00101EAC0402049086020480068DB
:20AFA00080471D480078782101EAC0001B4908601B4800688047184800784FF4F00101EA54
:20AFC000C0401649086016480068804712480078782101EAC00011490860114800688047BD
:20AFE0000D4800784FF4F00101EAC0400B4908600B480068804708480078782101EAC0001B
:20B000000649086006480068804700F055F9002070BD0000001001408E000020100C014015
:20B02000240300202DE9F0410646884800784FF4F00101EAC04086490860844800784FF015
:20B04000707101EA805083490861642008F095FB002006F0E7FA322008F06EFB7B4800782E
:20B06000FDF7B2FC0709384606F0DCFA7A48007808F06DFB75480078782101EAC000744904
:20B0800008600A2008F079FB002417E06F4800784FF0707101EA80506E4908610A2008F04B
:20B0A0006CFB6A4800784FF4707101EA8010694908610A2008F061FB601CC4B20D2CE5DBDC
:20B0C0000A2008F05AFB002416E0604800784FF4F00101EAC0405E4908600A2008F04DFB27
:20B0E0005A480078782101EAC000594908600A2008F043FB601CC4B20D2CE6DB0A2008F07A
:20B100003CFB002417E0514800784FF0707101EA8050504908610A2008F02FFB4B48007898
:20B120004FF4707101EA80104A4908610A2008F024FB601CC4B20D2CE5DB1EB90A2008F04F
:20B140001CFB02E00A2008F002FB404800784FF4F00101EAC0403E4908604BF25A150024F9
:20B1600031E005F4004040B1384800784FF4707101EA80103749086107E0344800784FF0FA
:20B18000707101EA8050334908610A2008F0F5FA2E480078782101EAC0002D4908600A20E3
:20B1A00008F0EBFA294800784FF4F00101EAC040274908604FF6FF7000EA45050A2008F0C8
:20B1C000DCFA601CC4B2102CCBDB0A2008F0D5FA4AF21B55002431E005F4004040B11B4866
:20B1E00000784FF4707101EA80101A49086107E0164800784FF0707101EA8050154908610D
:20B200000A2008F0BAFA11480078782101EAC0000F4908600A2008F0B0FA0C4800784FF4A8
:20B22000F00101EAC0400A4908604FF6FF7000EA45050A2008F0A1FA601CC4B2102CCBDBFE
:20B240001E2008F084FABDE8F08100008E000020100C0140001001402103002010B5134864
:20B2600000784FF4707101EA8010114908610F480078782101EAC0000E490860052008F005
:20B280007CFA0A4800784FF0707101EA805008490861052008F071FA044800784FF4F00159
:20B2A00001EAC0400349086010BD00008E00002000100140100C014010B50F4800784FF0F3
:20B2C000707101EA80500D4908610B480078782101EAC0000A490860052008F04EFA064896
:20B2E00000784FF4707101EA801004490861052008F043FA10BD00008E000020001001405B
:20B30000100C01402DE9F0410546B5F5804F01D14FF00808B5F5004F01D14FF01008264814
:20B3200000884FF4A02101EB40460F2008F00FFA4FF400622149304604F0D6FF06F5006630
:20B340001E49087800220421FEF7E6F90A2008F014FA0A2008F011FA0A2008F00EFA01243F
:20B3600008E01649085D00F0E1F80A2008F005FA601C84B2B4F5006FF3DB012717E04FF43D
:20B3800000620E49304604F0AFFF06F50066002408E00A49085D00F0C9F80A2008F0EDF9FE
:20B3A000601C84B2B4F5006FF3DB781CC7B24745E5DB0020BDE8F081920000202012002062
:20B3C00070B55525002204212846FEF7A5F90A2008F0D3F90A2008F0D0F90A2008F0CDF9C5
:20B3E000012407E0284600F0A1F80A2008F0C5F9601C84B2B4F5006FF4DB002070BD000084
:20B400002DE9F04106460C4640273EBB444901EBC4110878234600220521FEF74DFB0A2001
:20B4200008F0ABF90A2008F0A8F90A2008F0A5F9012511E03A4901EBC411485D214600F096
:20B440006BF90A2008F099F90A2008F096F90A2008F093F9681CC5B2202DEBDB012E5CD10B
:20B460003048008800EB001101EB40102E4901EB8000B0F866000012294901EBC41181F8E5
:20B480003C002848008800EB001101EB4010264901EB800090F86600214901EBC41181F8D3
:20B4A0003D001F4800EBC41090F83F0000F0800058B11B4800EBC41090F83F0040F00800C8
:20B4C000174901EBC41181F83F00154901EBC4110878234620220521FEF7EEFA0A2008F024
:20B4E0004CF90A2008F049F90A2008F046F9212511E00B4901EBC411485D214600F00CF9F5
:20B500000A2008F03AF90A2008F037F90A2008F034F9681CC5B2BD42EBDBBDE8F08100005F
:20B5200048320020920000203003002070B504462546FFF793FE744800784FF4F00101EAB8
:20B54000C0407249086000262EE005F0010040B16D4800784FF4707101EA80106C490861C3
:20B5600007E0694800784FF0707101EA80506849086168480068804763480078782101EA40
:20B58000C000624908606348006880475E4800784FF4F00101EAC0405C4908606D105D4892
:20B5A00000688047701CC6B2082ECEDB84EA241484EAA40484EA640404F0010040B1524867
:20B5C00000784FF4707101EA80105149086107E04D4800784FF0707101EA80504C49086184
:20B5E0004C480068804748480078782101EAC00046490860474800688047434800784FF441
:20B60000F00101EAC040414908604248006880473F48006820F07F4040F088403C49086000
:20B620000846406820F0FF0040F0440048600804086138480068804733480078782101EA4E
:20B64000C000324908603348006880472E4800784FF4F00101EAC0402C4908602D480068D6
:20B6600080472B48006820F07F4040F08850284908600846406820F0FF0040F0110048608A
:20B6800088140861204800784FF0707101EA80501F4908611F48006880471B48007878210F
:20B6A00001EAC000194908601A4800688047164800784FF4F00101EAC0401449086015486D
:20B6C0000068804710480078782101EAC0000F4908601048006880470B4800784FF4F001E1
:20B6E00001EAC040094908600A480068804706480078782101EAC0000449086005480068B0
:20B700008047FFF7D9FD70BD8E000020100C014000100140240300202DE9F04105460C46E2
:20B720002F46FFF79BFD34B1012C08D0022C0BD0032C13D10DE00020F74908600EE000203D
:20B74000F549091F086009E00020F3490839086004E00020F0490C39086000BF00BF00269F
:20B760007EE007F00100D8B134B1012C08D0022C0BD0032C13D10DE00120E84908600EE04F
:20B780000120E649091F086009E00120E3490839086004E00120E1490C39086000BF1BE054
:20B7A00034B1012C08D0022C0BD0032C13D10DE00020DA4908600EE00020D849091F08602C
:20B7C00009E00020D5490839086004E00020D3490C39086000BF00BFD1480068804734B121
:20B7E000012C08D0022C0BD0032C13D10DE00120C94908600EE00120C749091F086009E008
:20B800000120C5490839086004E00120C2490C39086000BF00BFC2480068804734B1012CCA
:20B8200008D0022C0BD0032C13D10DE00020BA4908600EE00020B849091F086009E00020F4
:20B84000B5490839086004E00020B3490C39086000BF00BF7F10B24800688047701CC6B25A
:20B86000082EFFF67EAF85EA251585EAA50585EA650505F00100D8B134B1012C08D0022C3E
:20B880000BD0032C13D10DE00120A44908600EE00120A249091F086009E001209F4908399A
:20B8A000086004E001209D490C39086000BF1BE034B1012C08D0022C0BD0032C13D10DE0DB
:20B8C0000020964908600EE000209449091F086009E0002091490839086004E000208F491E
:20B8E0000C39086000BF00BF8D480068804734B1012C08D0022C0BD0032C13D10DE0012005
:20B90000854908600EE001208349091F086009E0012081490839086004E001207E490C39F8
:20B92000086000BF00BF7E480068804734B1012C08D0022C0BD0032C13D10DE0002076495A
:20B9400008600EE000207449091F086009E0002071490839086004E000206F490C3908604F
:20B9600000BF00BF6E48006880476E48006820F07F4040F088406B4908600846406820F05D
:20B98000FF0040F0440048600804086164480068804734B1012C08D0022C0BD0032C13D136
:20B9A0000DE001205C4908600EE001205A49091F086009E0012058490839086004E00120D1
:20B9C00055490C39086000BF00BF55480068804734B1012C08D0022C0BD0032C13D10DE0DF
:20B9E00000204D4908600EE000204B49091F086009E0002048490839086004E00020464921
:20BA00000C39086000BF00BF4548006880474548006820F07F4040F0885042490860084632
:20BA2000406820F0FF0040F0110048608814086134B1012C08D0022C0BD0032C13D10DE06E
:20BA40000020364908600EE000203449091F086009E0002031490839086004E000202F491C
:20BA60000C39086000BF00BF2D480068804734B1012C08D0022C0BD0032C13D10DE00120E3
:20BA8000254908600EE001202349091F086009E0012021490839086004E001201E490C39F7
:20BAA000086000BF00BF1E480068804734B1012C08D0022C0BD0032C13D10DE00020164999
:20BAC00008600EE000201449091F086009E0002011490839086004E000200F490C390860EE
:20BAE00000BF00BF0E480068804734B1012C08D0022C0BD0032C1BD116E001200649086067
:20BB000016E001200449091F086011E001200249083908600CE0000098812142A4012242BA
:20BB2000240300200010014001202449086000BF00BF23480068804734B1012C09D0022C46
:20BB40000CD0032C13D10EE000201C490C3108600DE0002019490831086008E00020174966
:20BB6000091D086003E000201449086000BF00BF13480068804734B1012C09D0022C0CD072
:20BB8000032C13D10EE001200C490C3108600DE001200A490831086008E001200749091D08
:20BBA000086003E001200549086000BF00BF044800688047FFF780FBBDE8F0818C81214273
:20BBC0002403002000207047002070470020704770B50024064D07E0165D4640F6B2641CF5
:20BBE00055F8266086EA10209C42F5D3484070BD585A01082DE9F8432C482E4F00250178DC
:20BC00004278DFF8AC8001EB02218278C078120402EB006001EB00093878A52801D100205F
:20BC200038702548FCF7A4FCC1B2234809F0F4F904462248008800EB001101EB40122049B9
:20BC400008EB404001EB820100F52F00CA7B897B01EBC10303EB011102EB8106042269469C
:20BC600004F042FB9DF800009DF803109DF8012040EA01609DF80210090441EA02210843C8
:20BC8000B9F1D70F0FD0B44201D004B10125B44203D10C490968884201D1002D03D0A520A2
:20BCA000387001F0D7FCBDE8F8830000F87F0008F87B0100F84F0020C0FF01089200002024
:20BCC00030030020F8FF010810B52F48008800EB80002E4B53F830002B4B1B8803EB830361
:20BCE0002A4C04EBC3035B681844274B1B8803EB830304EBC3039B681844234B1B8803EB5E
:20BD0000830304EBC303DB68C2181F48008800EB001303EB40101E4B03EB800090F84400FD
:20BD200000F0010068B11848008800EB001303EB4010174B03EB8000806F904201D801204A
:20BD400010BD00211CE01048008800EB80000F4B03EBC00050F821000E4B98420CD80A48D4
:20BD6000008800EB8000094B03EBC000103050F82100084B984201D90120E1E7481CC1B25E
:20BD80000429E0DB0020DBE792000020840F0020300300203F420F00F0B52C48008800EB05
:20BDA000001101EB40112A4800EB810090F80EE0B0F85C40B0F85EC0B0F86020B0F8627035
:20BDC000B0F85430B0F85660B0F85810B0F85A50BEF10A0F18D0E0B20CF0FF0400EB042027
:20BDE000D2B200EB0240DAB2F3B202EB0322C9B202EB014100EB076001EB0561421C01D0D2
:20BE0000884220D98920F0BD4FEA0C4C00201CEB040440EB000C10EB040E42EB0C023C048A
:20BE200010EB0E0754413204D21840EB000683187141C01841EB05426FEA07012143E1D0FE
:20BE4000C01BA241DED30020F0BD0000920000203003002010B505F02BFCBDE8104005F0D6
:20BE600013BC0000014801F041B8000098300020014801F03BB80000D030002010B504685A
:20BE800063604368102B036803D099600068C26010BD9A600068C16010BD704710B5044655
:20BEA0004FF4803000EB0431002000F001F94FF4A02000EB4441012000F0FAF84FF4C020CC
:20BEC00000EB4441012000F0F3F810BDF0B5074638A00E4691B007C801AB83E8070038A005
:20BEE00004AB07C883E8070038A207AB07CA83E8070039A00AAB07C883E8070039A20DAB21
:20BF000007CA83E80700002007F0DBFB0C2546B1300907282CD2DFE800F02B222428262BC2
:20BF20002A00072F0ED2DFE807F00D04060A080D0C0001AC06E004AC04E00DAC02E00AAC49
:20BF400000E007AC1023224605213820009507F09CFC10230821264A4020009521E001ACA2
:20BF600006E004AC04E00AAC02E00DAC00E007AC1023224605213820009507F086FC06F046
:20BF800002001C4A012109F0DDF81A4A02210832304609F0D7F8174A1023921E0821382085
:20BFA000009507F072FC4FF4FA7007F0C5FB11B0F0BD00002056444420434845434B2020F9
:20BFC0002056505720434845434B202020464C415348205445535420205541525420205488
:20BFE00045535420434F4E4E4543542054455354B4000020D601002010B54FF4804001F047
:20C0000077F94FF4006001F073F9BDE810404FF4806001F06DB9022001F06AB9042001F036
:20C0200067B9000030B51E4885B0816941F004018161816901F004010491816941F00801C5
:20C0400081618069174C00F008000490022001258DE831006946144801F056F944F604406F
:20C060008DE831006946114801F04EF902221146082001F0BDFA082001F0AFFA0322022185
:20C08000072001F0B5FA072001F09CFA05220221282001F0ADFA282001F09FFA05B030BD8D
:20C0A000001002400000211000080140000C014070B505460C4607F08BFA07F0D9FA00223D
:20C0C0001021184801F0FEF925B1012D06D0022D0CD107E020201449087007E0D8201249CB
:20C0E000087003E0C7201049087000BF00BF4FF47A7301220C490D4802F072FC022D0BD048
:20C10000200C09490870200A48708C704FF47A730322064802F064FC01221021014801F0C8
:20C12000D1F970BD0008014014020020502F0020FEE700003EB5174B044600250A21186896
:20C1400003E0B0FBF1F06D1CEDB20028F9D16A462946186808F090FF9DF8000020702E20BD
:20C1600060709DF80110A170E0709DF8020020719DF8030060712020A071002069462D1FEB
:20C1800005E00A1823181279401CDA71C0B2A842F7DB3EBDF8FF010810B505F0EBF9FF2045
:20C1A00005F014FA0A2007F0D2FAF02005F00EFA0A2007F0CCFABDE81040FF2005F006BAD2
:20C1C0002DE9F0474FF00009002426E0E1B2002008F014FA4FF4803000EB0447021153490F
:20C1E000384604F081F8002508E05048405DFF2802D04FF0010904E0681C85B2B5F5805FA8
:20C20000F3DB00BFB9F1010F05D139460120FFF74FFF4FF00009601C84B2CD2CD6DB002653
:20C220007FE000210846FFF743FF16B14FF0550801E04FF0AA08711CC8B2002108F0DEF9CC
:20C24000002404E0394800F80480601C84B2FF2CF8DD00274FF480723449384607F0E2F9FE
:20C260004FF480723149384604F03EF8002408E02E48005D404502D06020BDE8F087601C19
:20C2800084B2FF2CF4DD00210846FFF711FF16B14FF0550801E04FF0AA08002404E023484F
:20C2A00000F80480601C84B2FF2CF8DD4FF48037002509E04FF480721C49384607F0B2F98E
:20C2C00007F58037681C85B2CD2DF3DB4FF48037002515E04FF480721449384604F004F814
:20C2E00007F58037002407E01048005D404501D06020C2E7601C84B2FF2CF5DD681C85B2E2
:20C30000CD2DE7DB002408E04FF4803000EB04410020FFF7CDFE601C84B2CD2CF4DB701C4B
:20C3200086B2022EFFF67DAF0020A6E7201200202DE9F04107460C464FF00008FF224FF4E4
:20C3400080511048FCF702F916E0B4F5806F01D2A5B201E04FF480652A460A49384603F0D1
:20C36000C3FF002604E00748805D8044701C86B2AE42F8DB2F44641B002CE6D14046BDE87A
:20C38000F0810000201200202DE9F04107460C464FF00008FF224FF480512C48FCF7D6F843
:20C3A000B4F5803F35D916E0B4F5806F01D2A5B201E04FF480652A462449384603F094FF65
:20C3C000002604E02148805D8044701C86B2AE42F8DB2F44641BB4F5803FE5D816E0B4F50C
:20C3E000806F01D2A5B201E04FF480652A461749384603F079FF002604E01448805D80445B
:20C40000701C86B2AE42F8DB2F44641B002CE6D119E016E0B4F5806F01D2A5B201E04FF4EB
:20C4200080652A460949384603F05EFF002604E00648805D8044701C86B2AE42F8DB2F4494
:20C44000641B002CE6D14046BDE8F081201200207FB504461022C9496846FCF765F8C848BC
:20C46000008800EB8000C74951F83000C449098801EB8101C34A02EBC10149680844C04972
:20C48000098801EB810102EBC10189680844BC49098801EB810102EBC101C9684618E5206A
:20C4A0002070422060707A20A07004F069FAB449087803F043FF04F0FDF8002505E0B2481A
:20C4C000415DE81C2154681CC5B2102DF7DBAF480088000AE074AD4800782075AC48006800
:20C4E000000E6075AA480068000CA075A8480088000AE075A64800782076002508E0A54811
:20C50000284490F8E81705F119002154681CC5B20C2DF4DB00250EE09948008800EB001129
:20C5200001EB40109C4901EB8000415D05F125002154681CC5B20E2DEEDB9148008800EBF5
:20C54000001101EB4010944901EB8000807B04F8330F8B48008800EB001101EB40108E49A2
:20C5600001EB8000C07B60708548008800EB001101EB4010884901EB8000B0F84400000A84
:20C58000A0707F48008800EB001101EB4010824901EB800090F84400E0707948008800EB7D
:20C5A000001101EB40107C4901EB8000B0F86600000A20717248008800EB001101EB4010DA
:20C5C000754901EB800090F8660060716C48008800EB001101EB40106F4901EB8000B0F832
:20C5E0006A00000AA0716648008800EB001101EB4010694901EB800090F86A00E07160483F
:20C60000008800EB001101EB4010634901EB8000B0F86E00000A20725948008800EB00116B
:20C6200001EB40105C4901EB800090F86E0060725348008800EB001101EB4010564901EBFF
:20C640008000007CA072333C4D48008800EB001202EB40100A4602EB800000F12401102201
:20C6600004F14000FBF760FF4548008800EB001101EB4010484901EB800090F8460084F8A0
:20C6800050003F48008800EB001101EB4010424901EB800090F8640084F85100384800884B
:20C6A00000EB001101EB40103B4901EB8000806CC4F8520000252EE03148008800EB001128
:20C6C00001EB4010344901EB80004C3030F815106800563021522A48008800EB001101EB29
:20C6E00040102D4901EB8000543030F8151068005E3021522248008800EB001101EB4010A4
:20C70000254901EB80005C3030F81510680066302152681CC5B2042DCEDB44F86E6F1848A7
:20C72000008800EB001101EB40101B4901EB8000808BA0801248008800EB001101EB401024
:20C74000154901EB8000C08BE0800D48008800EB001101EB4010104901EB8000008C20815D
:20C760000748008800EB001101EB40100A4901EB8000408C60816E3C7FBD0000C0FF010890
:20C7800092000020840F0020E0FF0108FC7F0008F8FF010800F0FF1F30030020F8B5002596
:20C7A0000446009590F82400012808D0012084F824002046FBF722FF060002D04BE002208E
:20C7C000F8BDA06A20F4885040F00200A062022001F02CFA22490968B1FBF0F0400000E0B9
:20C7E000401E00900028FBD12046FBF72DFF2068816841F00801816000F06AFE074604E0BE
:20C8000000F066FEC01B0A2811D8206880680007F6D42068816841F00401816000F058FEBF
:20C8200007460EE000F054FEC01B0A2809D9A06A20F0020040F01000A06284F8245001201D
:20C84000F8BD206880684007ECD4A06A20F0020040F00100A06284F824503046F8BD000042
:20C8600084000020F8B50025009590F82420AE46012A1ED0012280F824204A681F244FF4BD
:20C880007873072A17D20668776B93FAA3FCBCFA8CFC521E02FB0CFC04FA0CF4A74393FAEF
:20C8A000A3F3B3FA83F30C685A439440274377632DE00220F8BD06680D2A14D2376B93FAF8
:20C8C000A3FCBCFA8CFCD21F02FB0CFC04FA0CF4A74393FAA3F3B3FA83F30C685A43944072
:20C8E0002743376313E0F76A93FAA3FCBCFA8CFC0D3A02FB0CFC04FA0CF4A74393FAA3F31F
:20C90000B3FA83F30C685A4394402743F7620A683823072406680A2A14D3F76893FAA3FC40
:20C92000BCFA8CFC0A3A02FB0CFC04FA0CF4A74393FAA3F3B3FA83F38C685A439440274373
:20C94000F76012E0376993FAA3FCBCFA8CFC02FB0CFC04FA0CF4A74393FAA3F3B3FA83F351
:20C960008C685A439440274337610A68102A01D0112A20D1124B02689A4217D193681B0204
:20C9800019D4936843F4000393600968102912D10C490D4A0968B1FBF2F101EB8101490092
:20C9A00000E0491E00910029FBD104E0816A41F020018162012580F824E02846F8BD0000E1
:20C9C000002401408400002040420F000068C06C704700002DE9F04104004FF0000513D000
:20C9E000A06A002628B9E66284F82460204600F08BF82046FBF702FEA16AC90600D420B12E
:20CA0000A06A40F01000A06278E0A16A21F4885141F00201A1626268E16902270A43E1686F
:20CA200097FAA7F70B46B7FA87F7B9400A43A1684FF48077B94209D0012907D05FF0000199
:20CA4000D4F814C0BCF1010F02D00AE03946F7E7F3B1A36A43F02003A362E36A43F00103D0
:20CA6000E3622368D3F804C02CF4694C4CEA010CC3F804C021688B68DFF884C003EA0C032D
:20CA800013438B60A168B94210D001290ED016E04FF4604CA3699CFAACFCBCFA8CFC5B1E83
:20CAA00003FA0CF30B4343F40061DAE74FF47001256991FAA1F1B1FA81F16D1E8D40216876
:20CAC000CB6A23F470032B43CB62216889680D4B1940914208D1E662A16A21F0020141F08D
:20CAE0000101A162BDE8F081A06A20F0020040F01000A062E06A40F00100E0620120F1E707
:20CB0000FDF7E1FFFE0E1FFF10B500680E4986B0884217D10D48816941F4007181618069FB
:20CB2000032400F4007004900F20CDE900046946074800F0E9FB0120CDE900046946054844
:20CB400000F0E2FB06B010BD002401400010024000100140000801402DE9F84300260D466A
:20CB60000446009600F0B4FC804620688168C90508D5A06A40F02000A06284F824600120D6
:20CB8000BDE8F8834168C90503D4C06A10F4700F26D0022001F04AF838490968B1FBF0F7AA
:20CBA0002068036936490B424FEA61014FEAA1121BD1C3684FEA611C13EA0C0F15D10369F7
:20CBC0000B4221D1C06810421ED114201FE0681C06D045B300F07CFCA0EB0800A84222D849
:20CBE000206800688007F2D52AE003690B4202D1C168114206D0026922490A4206D1C068EE
:20CC0000084203D1542002E0292000E0FC204743009813E0681C0ED02DB100F059FCA0EB36
:20CC20000800A84207D9A06A40F00400A06284F824600320A4E70098401C0090B842E9D3FA
:20CC400021686FF012000860A06A40F40070A06220688068C0F3424007280CD1E06850B9C0
:20CC6000A06A20F48070A062A06AC00403D4A06A40F00100A062002082E700008400002095
:20CC8000244992244992240070B5044690F8240001280DD0012084F824002046FBF7D4FC68
:20CCA00002004FF0000005D084F82400104670BD022070BDA16A40F20123994341F4807189
:20CCC000A1621F4D23681F49AB4218D10E6816F4702F14D0A66A46F48016A6620E68760540
:20CCE00005D5A66A26F4005646F48056A662A66AF6040AD5E66A26F00606E66206E0A66A29
:20CD000026F48016A6625E68E9E7E06284F824006FF00200186020688368C3F34243072B2A
:20CD200005D1A84208D1096811F4702F04D0816841F480118160B9E7816841F4A001F9E7A2
:20CD4000002801400424014010B5040002D0607910B106E0012010BD00202071204600F0F1
:20CD600004F801206071002010BD70472DE9F04104460068016821F00101016000F0A8FBB8
:20CD8000054600264FF47A7710E000BF00F0A0FB401BB8420AD954F8340F40F0200044F861
:20CDA0001409032060702670BDE8F08120680068C007EBD1012084F8210084F8206000206A
:20CDC000F2E70000F0B540B390F82110022924D001680A6822F001020A6001684FF0000EFA
:20CDE000C1F800E00168C1F804E00168C1F808E00168C1F80CE03C4C3B4D3B4E3A4F3A4AD6
:20CE0000DFF8E4C00168143428353C3650370CF1640C914203D102211BE00120F0BDA142AD
:20CE200001D1202115E0A94202D14FF4007110E0B14202D14FF400510BE0B94202D14FF432
:20CE4000003106E0614502D14FF4001101E04FF00071254B083B59600168914201D10821BA
:20CE600019E0A14201D1802115E0A94202D14FF4006110E0B14202D14FF400410BE0B942EC
:20CE800002D14FF4002106E0614502D14FF4000101E04FF0006159600168914201D104214B
:20CEA00019E0A14201D1402115E0A94202D14FF4806110E0B14202D14FF480410BE0B942EC
:20CEC00002D14FF4802106E0614502D14FF4800101E04FF080615960C0F834E080F821E079
:20CEE00080F820E00020F0BD080002402DE9F05FDFF860820446D8F80020DFF858B2954D88
:20CF0000944E944F0068DFF84C92DFF848A20BF1080B1C35303644374FF400614FF4004CFA
:20CF20004FF4002E09F158090AF16C0A584501D1082316E0A84201D1802312E0B04201D10F
:20CF40000B460EE0B84201D163460AE0484501D1734606E0504502D14FF4000301E04FF067
:20CF600000631A4231D00268D24312072DD4026822F0080202602068584501D1082114E05C
:20CF8000A84201D1802110E0B0420ED0B84201D161460AE0484501D1714606E0504502D1B3
:20CFA0004FF4000101E04FF00061C8F80410606B40F001006063042084F82100002084F8BC
:20CFC0002000216B09B1204688476248D0F800C04FF4806120680A010B044FF4802E584530
:20CFE00002D14FF0040816E0A84202D14FF0400811E0B04201D188460DE0B84201D19046C7
:20D0000009E0484501D1F04605E0504502D14FF4800800E098461CEA080F33D0D0F800C014
:20D020006FEA0C0C5FEA4C7C2CD4D0F800C05FEA8C6C05D4D0F800C02CF0040CC0F800C0A0
:20D040002068584501D1042113E0A84201D140210FE0B0420DD0B84201D1114609E048454D
:20D0600001D1714605E0504502D14FF4800100E0194638484160112084F82100E16A09B1E3
:20D0800020468847334AD2F800C05B46206851154FF4005B4FF4003E984202D14FF00208B0
:20D0A00017E0A84202D14FF0200812E0B04201D188460EE0B84201D1D8460AE0484501D1B0
:20D0C000F04606E0504502D14FF4001801E04FF000781CEA080F3BD0D0F800C06FEA0C0CB8
:20D0E0005FEA8C7C34D4D0F800C05FEA8C6C05D4D0F800C02CF0020CC0F800C020689842A9
:20D1000001D1022114E0A84201D1202110E0B0420ED0B84201D159460AE0484501D17146FE
:20D1200006E0504502D14FF4001101E04FF000715160606B6063012084F82100002084F823
:20D140002000A16A002903D02046BDE8F05F0847BDE8F09F0000024070B520B190F82110DA
:20D16000002411B103E0012070BD80F82040022180F8211003681A6843F6F0718A43D0E9E7
:20D1800001152943D0E90356354329434569294385692943C5692943114319604463012173
:20D1A00080F82110002070BD70B5044690F82000012823D0012084F82000022084F82100CA
:20D1C0002068056825F0010505602046FEF756FE2068016841F0020101602068016841F083
:20D1E000040101602068016841F0080101602068016841F001010160002070BD022070BD1C
:20D2000031B500F065F9044600F062F90099001B8842F9D338BD000070B506460A2006F075
:20D220008BFA2F4C2F4DB6F5806F3AD012DC022E25D0042E34D1D5F80801002830D10A205B
:20D2400006F085FAD5F80801002829D1207840F0010034E0B6F5006F33D0B6F5804F1FD1FD
:20D26000D5F8380100281BD10A2006F070FAD5F83801002814D1207840F008001FE01A4CC2
:20D28000D4F8040100280BD1642006F060FAD4F80401002804D11548017881F0010101705D
:20D2A00070BDD5F828010028FAD10A2006F04FFAD5F828010028F3D1207840F002002070B3
:20D2C00070BDD5F82C010028FAD10A2006F03FFAD5F82C010028F3D1207840F00400EEE754
:20D2E0008D00002000802142000021428C000020044910B50A68024202D00860FFF78CFF0C
:20D3000010BD0000140401402DE9F84FDFF890A100220AF1040B144601274FF00F090BF181
:20D32000040E00BF0B6807FA04F52B40AB4274D1DFF870C14E68A6EB0C0866452BD00DDC20
:20D34000032E34D005DC36B3012E19D0022E2FD11BE0112E16D0122E2AD119E0B8F5881FDE
:20D3600019D006DCB8F5803F15D0B8F5801F1FD111E0B8F5001F0ED0B8F5041F18D10AE017
:20D38000CA6815E0CA68121D12E0CA6808320FE0CA680C320CE08A682AB1012A4FF008021B
:20D3A00003D0456104E0042202E0056100E00022FF2B01D8064601E000F104064FEA8405B3
:20D3C00001D9A5F12005D6F800C009FA05F82CEA080C02FA05F54CEA050CC6F800C04D6890
:20D3E000ED0057D5304DAE6946F00106AE61AD6924F0030605F0010500952C4D06EB050CF6
:20D40000DCF80850A6074FEA167809FA08F6B543274EB04202D1002610E03BE0254EB042A3
:20D4200001D101260AE0244EB04201D1022605E0224EB04201D1032600E0042606FA08F661
:20D440002E43CCF808604D68DAF80060ED03554601D51E4300E09E432E604D68DBF800604F
:20D46000AD035D4601D51E4300E09E432E604D68DEF80060ED02754601D51E4300E09E4346
:20D480002E604D68AD020E4D2E6801D51E4300E09E432E60641C102CFFF444AFBDE8F88F55
:20D4A0000004014000001110001002400000014000080140000C0140001001400014014037
:20D4C0000C0401400AB1016170470904FBE7000001480068704700001003002002480168EA
:20D4E000491C01607047000010030020074810B5016841F010010160032000F099F8002098
:20D5000000F006F800F016F8002010BD0020024010B5044600F05CFD4FF47A71B0FBF1F0BE
:20D5200001F05BFC00222146501E00F061F8002010BD0000214808B5816941F00101816151
:20D54000806900F001000090032000F071F8002211466FF00B0000F04BF8002211466FF0F7
:20D560000A0000F045F8002211466FF0090000F03FF800221146501F00F03AF800221146E9
:20D58000101F00F035F800221146901E00F030F800221146501E00F02BF80022114601206C
:20D5A00000F026F8012000F018F80548416821F0E06141F00071416008BD0000001002409A
:20D5C0000000014000F01F02012191404009800000F1E020C0F88011704700F01F02012119
:20D5E00091404009800000F1E020C0F800117047F0B40E4B1B680C46C3F30223C3F10705B3
:20D60000042D00D90425191D072901D2002300E0DB1E012606FA05F1491E214099409E4006
:20D62000761E16403143F0BC02F02EBC0CED00E0064900F0070208684FF6FF03184040EAAA
:20D640000220034A10430860704700000CED00E00000FA05BFF34F8F05480168054A01F487
:20D66000E06111430160BFF34F8F00BFFDE700000CED00E00400FA0510B50C0605D501F003
:20D680007F0100EB4110283003E000EB411000F5027099B232B101228272C180190C0181C3
:20D6A000002010BD002282728180F9E7704700EB4112D0F81C04D26B04F005BE00EB411277
:20D6C000D0F81C04D2F81C2204F052BE10B504460A460B0601F07F0004EB401101D5283107
:20D6E00001E001F502710870D009487094F8E803012809D0012084F8E803206805F020FA3F
:20D70000002084F8E80310BD022010BD70B50A460446090602F07F0003D504EB4011283116
:20D7200003E004EB421101F5027100258D700870D009487094F8E803012809D0012084F81A
:20D74000E803206805F0A4FA84F8E853002070BD022070BD70B504460D460E0601F07F002A
:20D7600004EB401101D5283101E001F502710870E80948700A61CB7094F8E803012809D0B0
:20D78000012084F8E803206805F0AAF8002084F8E80370BD022070BD70B504460E4601F02B
:20D7A0007F0004EB401101F5077100252CC101F81F5C01F8200D94F8E80301280AD00120F5
:20D7C00084F8E8037006206805F0BCFA84F8E853002070BD022070BD70B50D460446090615
:20D7E00005F07F0003D504EB4011283103E004EB451101F5027101228A700870E809487075
:20D8000094F8E803012807D084F8E823206805F074FA680602D006E0022070BD04F57B71C5
:20D82000206805F033FA002084F8E80370BD70B504460E4601F07F0004EB40113C31002585
:20D840002CC1012201F81F2C01F8200D94F8E803012809D084F8E8237006206805F072FAEF
:20D8600084F8E853002070BD022070BD10B50446006805F049FB000402D5204602F014FB63
:20D88000206805F041FB40050CD5206830F8441F21F480610180204600F0ECF8002120465E
:20D8A00000F0FDF8206805F02FFB400405D5206830F8441F21F480410180206805F024FBB8
:20D8C000800405D5206830F8441F21F400510180206805F019FBC00413D5206830F8401FA4
:20D8E00021F00401018021684FF43D40A1F84000204600F0CCF8206830F8441F21F480515C
:20D900000180206805F000FB00051AD5206830F8441F21F400610180206830F8401F41F0D0
:20D9200008010180206830F8401F41F004010180206805F0E9FAC043C00402D5204600F043
:20D94000E3F8206805F0E0FA800508D5206830F8441F21F400710180204600F09CF82068A7
:20D9600005F0D2FAC00505D5206830F8441F21F48071018010BD00002DE9F04186B004005F
:20D980004FF0000504D094F8E903002620B108E0012006B0BDE8F08184F8E863204600F00E
:20D9A0004BF8032084F8E903206805F068F904F11001142288466846FAF7B6FD94E80F00D4
:20D9C00005F0BCF80021206805F0B1FA5FF0010704EB451080F8297000F8285F8581C670EE
:20D9E000066146616D1C86610F2DF1D35FF0000004EB401181F8096281F80802888681F82C
:20DA00000B62C1F81862C1F81C62401CC1F820620F28EDD3142241466846FAF785FD94E847
:20DA20000F0005F023F984F8246084F8E973206805F01AF90020ACE708B500680B49884268
:20DA400012D10B48C16941F40001C161C069002200F40000009011461420FFF7C9FDBDE853
:20DA600008401420FFF7B9BD08BD0000005C00400010024010B504460121D0F81C0404F0FE
:20DA800049FDD4F81C04BDE8104004F012BDD0F81C0404F02DBDD0F81C0404F02FBD10B549
:20DAA000044690F8E80301280BD0012084F8E80384F82410206805F03CFA002084F8E80333
:20DAC00010BD022010BDD0F81C2400F57B71104604F033BD10B5044690F8E803012810D0DC
:20DAE000012084F8E80301462046FFF7DFFD206805F0B8F8206805F0FAF9002084F8E803FB
:20DB000010BD022010BD000010B50446D0F81C0404F060FDA069002804D00348016841F017
:20DB20000601016010BD000010ED00E030B51C490A68036822F0E0021A430A6019490A681D
:20DB400022F480320A600C1F226822F480322260144A0832136823F4803313600B1D1D6897
:20DB600025F480351D604568ED0303D5256845F4803525604468A40303D50C6844F480345A
:20DB80000C600179C90703D0196841F4803119600079800703D5106840F48030106030BD8B
:20DBA00000700040040401400120102191FAA1F1024AB1FA81F142F82100704700000E4232
:20DBC00070B505F0CFF906F083F94FF496740E4D0FE0FF2003F0CEFC01212046FAF7A2FE65
:20DBE000C82005F0A9FDAA2003F0C4FCC82005F0A3FD68684007ECD40448008802F09EFB72
:20DC0000BDE8704006F0D8B9007000409200002010B5054C2068C00304D5FFF7D1FF4FF483
:20DC20008030206010BD00001404014010B533A401461DCC86B08DE81D0034A0344C00683E
:20DC400004900020012931D0022948D010292BD161682268D20127D54FF4701292FAA2F266
:20DC600001F47010B2FA82F2D040C9031DF8000010D561684FF4003292FAA2F201F40031B5
:20DC8000B2FA82F2D14004AA515C224AB2FBF1F1484301E0204948436168490204D4400071
:20DCA0005FF00301B0FBF1F006B010BD226AC2F30121012903D1920701D5C803F4E7022961
:20DCC00005D1626A920702D549F64040ECE70329EAD121688903E7D54FF22440E4E700F088
:20DCE00095F961684FF4804292FAA2F201F44041B2FA82F2D140491C4900D3E7020304058B
:20DD0000060708090A0B0C0D0E0F1010010200000010024000127A0000093D002DE9F84302
:20DD200005460078454CC00774D0E06940F08050E061E069424E00F080500090306840F405
:20DD400080703060FFF7C4FB074604E0FFF7C0FBC01B642833D83068C005F7D5206A10F483
:20DD6000407051D0A98801F4407181424CD0206A0126310491FAA1F2B2FA82F29300314AEA
:20DD800020F440701344C3F8006491FAA1F1B1FA81F102EB81010023C1F800342062C00747
:20DDA00032D0FFF795FB074641F288394FF0020808E000BFFFF78CFBC11B494502D90320C5
:20DDC000BDE8F88398FAA8F1B1FA81F141F040014046B6EB511F01D121680BE090FAA0F171
:20DDE000B1FA81F141F04001B0EB511F01D1216A00E0616A98FAA8F0B0FA80F000F01F022C
:20DE000006FA02F00142D5D0206A696820F44070084320622878800705D56068A96820F44E
:20DE20004040084360602878C00605D56068E96820F48000084360600020C1E70010024045
:20DE400000700040000042422DE9F047DFF8708105460E46D8F8000000F00700B0420CD243
:20DE6000D8F8001021F007013143C8F80010D8F8000000F00700B04277D12878514C8007A0
:20DE800005D56068A96820F0F000084360602878C00759D06968012001290DD0022929D017
:20DEA0005FF0020393FAA3F2B2FA82F242F02002520904D0226803E04FF40033F2E7626AC1
:20DEC00093FAA3F3B3FA83F303F01F03984002424BD0606820F0030008436060FFF7F8FAE2
:20DEE0006968074641F2883001290DD00229814617D025E04FF00073D4E700BFFFF7E8FA30
:20DF0000C11B494501D918E081466068C0F381000128F3D118E000BFFFF7DAFAC11B49452A
:20DF20000BD86068C0F381000228F5D10CE000BFFFF7CEFAC11B494502D90320BDE8F08725
:20DF4000606810F00C0FF3D1D8F80010404601F00701B1420BD9016821F00701314301608D
:20DF6000006800F00700B04201D00120E6E72878400705D56068E96820F4E0600843606058
:20DF80002878000706D56068296920F4605040EAC100606000F052F86168F02292FAA2F201
:20DFA00001F0F001B2FA82F2D140074A515CC840064908600020FFF7ABFA0020BEE7000011
:20DFC0000020024000100240FC5901088400002001480068704700008400002008480949DD
:20DFE000006849684FF4E06292FAA2F201F4E061B2FA82F2D140044A515CC8407047000042
:20E0000084000020001002400C5A010808480949006849684FF4605292FAA2F201F4605125
:20E02000B2FA82F2D140044A515CC8407047000084000020001002400C5A010810B519A30F
:20E0400085B00FCB8DE80F001AA01B4B006804905A681A4802F00C0104291DD008291BD1B7
:20E060004FF4701494FAA4F402F47011B4FA84F4E140D2031DF8011010D55A684FF40033DD
:20E0800093FAA3F302F40032B3FA83F3DA4004AB9A5CB0FBF2F0484305B010BD08484843DE
:20E0A000FAE7000002030405060708090A0B0C0D0E0F1010010200000010024000127A0007
:20E0C00000093D002DE9F84F04460078F74DC0074FF0010625D068687704C0F381000128ED
:20E0E00007D06868C0F3810002281BD16868C00318D597FAA7F0B0FA80F040F020004009D4
:20E1000001D0286800E0686A97FAA7F1B1FA81F101F01F0106FA01F108425ED0606800283B
:20E120007CD05AE06068B0F5803F0BD010B1B0F5A02F11D0286820F480302860286820F4BC
:20E14000802002E0286840F480302860606828B3FFF7BEF980460BE0286840F48020286054
:20E16000F0E700BFFFF7B4F9A0EB0800642871D897FAA7F0B0FA80F040F02000400901D052
:20E18000286800E0686A97FAA7F1B1FA81F101F01F0106FA01F10842E4D01EE0FFF798F971
:20E1A000804605E0FFF794F9A0EB08006428DED897FAA7F0B0FA80F040F02000400901D0B0
:20E1C000286800E0686A97FAA7F1B1FA81F101F01F0106FA01F10842E4D12078DFF8D082F4
:20E1E00080074FF000094FF002075BD568684FF0F80B10F00C0F07D06868C0F381000228A6
:20E200001CD16868C00319D497FAA7F0B0FA80F040F02000400902D0286801E08BE0686A36
:20E2200097FAA7F1B1FA81F101F01F0106FA01F108422CD0206901287DD128E0206990B37B
:20E2400096FAA6F0B0FA80F048F82060FFF740F9824607E011E100BFFFF73AF9A0EB0A0071
:20E26000022884D897FAA7F0B0FA80F040F02000400901D0286800E0686A97FAA7F1B1FA56
:20E2800081F101F01F0106FA01F10842E4D028689BFAABF26169B2FA82F220F0F800914086
:20E2A0000843286025E0FFE796FAA6F1B1FA81F148F82190FFF70CF9824605E0FFF708F9CC
:20E2C000A0EB0A000228CCD897FAA7F0B0FA80F040F02000400901D0286800E0686A97FA5C
:20E2E000A7F1B1FA81F101F01F0106FA01F10842E4D1207800076ED5A069B8B396FAA6F0EB
:20E30000B0FA80F008EB8000C0F88064FFF7E0F8824605E0FFF7DCF8A0EB0A000228A0D858
:20E3200097FAA7F0B0FA80F040F06000B6EB501F02D128680CE062E197FAA7F0B0FA80F027
:20E3400040F06000B7EB501F01D1286A00E0686A97FAA7F1B1FA81F101F01F0106FA01F2BC
:20E360001042D7D00120FEF74BFF34E0FFE796FAA6F1B1FA81F108EB8101C1F88094FFF7CE
:20E38000A7F8824606E000BFFFF7A2F8A0EB0A00022872D897FAA7F0B0FA80F040F0600006
:20E3A000B6EB501F01D128680BE097FAA7F0B0FA80F040F06000B7EB501F01D1286A00E0D9
:20E3C000686A97FAA7F1B1FA81F101F01F0106FA01F21042D8D12078400765D5E86940F08C
:20E3E0008050E861E869DFF8CCB000F080500090DBF8001041F48071CBF80010FFF768F8DE
:20E40000824605E0FFF764F8A0EB0A00642834D8DBF80000C005F5D5E06801280AD008B16A
:20E42000052813D0286A20F001002862286A20F0040002E0286A40F001002862E06841F24F
:20E44000883B90B3FFF744F882460BE0286A40F004002862EEE700BFFFF73AF8A0EB0A012F
:20E4600059450AD897FAA7F0B0FA80F040F04000B6EB501F02D128680CE0A3E097FAA7F060
:20E48000B0FA80F040F04000B7EB501F01D1286A00E0686A97FAA7F1B1FA81F101F01F0273
:20E4A00006FA02F10842D7D031E005E0001002400000424200700040FFF70AF8824605E057
:20E4C000FFF706F8A0EB0A0159457BD897FAA7F0B0FA80F040F04000B6EB501F01D128689D
:20E4E0000BE097FAA7F0B0FA80F040F04000B7EB501F01D1286A00E0686A97FAA7F1B1FA84
:20E5000081F101F01F0206FA02F10842D8D1E06980B36968C1F38101022970D04FF0807173
:20E520004F000228484609D091FAA1F1B1FA81F148F82100FEF7CCFF044669E08A4691FAB2
:20E54000A1F1B1FA81F1C14648F82100FEF7C0FF804605E0FEF7BCFFA0EB0800022854D8AC
:20E5600097FAA7F0B0FA80F040F02000400902D0286801E061E0686A97FAA7F1B1FA81F124
:20E5800001F01F0106FA01F10842E3D1206AB0F5803F05D16868A16820F400300843686086
:20E5A000D4E908010843696821F47411084368609AFAAAF0B0FA80F049F82060FEF788FF47
:20E5C000044606E021E000BFFEF782FF001B02281BD897FAA7F0B0FA80F040F020004009C2
:20E5E00001D0286800E0686A97FAA7F1B1FA81F101F01F0106FA01F10842E5D01DE01EE0C5
:20E60000FEF766FF001B022802D90320BDE8F88F97FAA7F0B0FA80F040F02000400901D085
:20E62000286800E0686A97FAA7F1B1FA81F101F01F0106FA01F10842E2D10020E6E7012044
:20E64000E4E7000010B5040003D094F8510010B104E0012010BD204600F038F8022084F8BF
:20E6600051002068016821F040010160D4E901010843D4E903121143084361690843218B69
:20E6800001F400710843E1690843216A0843A16A084321680860A069042101EA1040616AE3
:20E6A0000843216848602168E06A08612068C16921F40061C161044900200870606501208D
:20E6C00084F85100002010BD140300202DE9F04F054600683F49DFF80081032685B0884239
:20E6E0005CD1D8F8181041F48051C8F81810D8F81800DFF8E8B000F480500490A020009008
:20E700000220019069465C4603965846FEF7FCFD4FF000094020CDE900094F4669462046BF
:20E72000CDF80890FEF7F0FD2E4C2D484FF0800AC4E90007C4E9027A27616761A761204647
:20E74000E761FEF709FD08B1FDF7F2FC6C6465622348254C14301027C4E90007C4E9029AF0
:20E76000C4F81090C4F81490C4F818902046C4F81C90FEF7F1FC08B1FDF7DAFC2C646562EF
:20E780000120CDE9007069465C4603965846FEF7BBFD012210212046FEF794FE13492868D0
:20E7A000884214D1D8F81C1041F48041C8F81C10D8F81C00694600F4804004904FF4204046
:20E7C00000900220019003960948FEF79DFD05B0BDE8F08F00300140001002400008014098
:20E7E0001C00024098300020D030002000380040000C01402DE9F84F00259A460446ADF89D
:20E80000005090F8510001287ED1E9B3E2B394F85000012878D0012684F85060222084F8C8
:20E8200051006565A163A287E287A564E5642563A586E586A0684FF40049484504D1206839
:20E84000036823F480430360A06A4FF40057B84209D12068036823F40053036020680368E5
:20E8600043F40053036060684FF48278404501D1A06878B120680168490603D4016841F06D
:20E8800040010160E06800E001E0E8B131E00120BDE8F88F84F8505013460A462046CDF8E6
:20E8A00000A000F040F9F3E7534600220121204602F036F948BB2068C168A06B421CA2632F
:20E8C0000170E08F401EE087E08F0128ECD813E0534600220121204602F022F9A8B920680B
:20E8E000C068A16B0880A06B801CA063E08F401EE087E08F0128EBD8A06AB84207D12068BF
:20E90000016841F4805101E068E007E00160534600220121204602F003F908B10320B7E76C
:20E92000E0680028206817D0C068A16B0880A06B801CA063E08F401EE087A06AB84217D172
:20E94000534600220121204602F0EAF850B1606D40F002006065E1E7C168A06B421CA2637C
:20E960000170E7E72068C068ADF80000BDF80000606840450AD1A068484502D0B0F5806F2B
:20E9800004D12068016821F04001016084F85160A06AB8420DD120688068C043C00608D4DA
:20E9A000204602F0BBF8012807D021686FF01000886084F8505000206AE7606D40F00200E0
:20E9C00060652068016821F4005101602068016841F40051016084F8505058E7022057E727
:20E9E0002DE9F843044690F851009846012870D139B332B394F8500001286AD0012684F8A8
:20EA00005060122084F85100002565652163A286E286E564A564A563A587E587A06A7703CE
:20EA2000B84209D12068016821F4005101602068016841F400510160A068B0F5004F03D0A3
:20EA400007E00120BDE8F8832068016841F48041016020680168490603D4016841F0400154
:20EA60000160E0680028606804D0D8B1E08E012818D021E010B1E08E012808D1206B411C07
:20EA8000216321680078C860E08E401EE0860004000C1FD0434600220221204602F040F83A
:20EAA000A8B9EBE7206B21680088C860206B801C2063E08E401EE0860004000C0AD0434610
:20EAC00000220221204602F02BF80028EAD00320B8E726E0A06AB84204D12068016841F4CD
:20EAE00080510160434600220221204602F018F830B9434601228021204602F011F820B146
:20EB0000606D40F010006065E1E7A06818B92068C1688068009084F8516084F850500020F0
:20EB200090E702208EE72DE9F8430025DDF820800446ADF8005090F85100012803D094F83C
:20EB4000510022287DD169B162B15BB194F85000012876D0012684F8506094F851000128EF
:20EB600003D005E00120BDE8F883322084F851006565A263A387E3872163A386E386A564FB
:20EB8000E564A06A4FF40057B84209D12068016821F4005101602068016841F40051016024
:20EBA00020680168490603D4016841F040010160E0684FF48271B0F5006F606807D00028A9
:20EBC00067D088426ED1E08E012862D06AE020B188420CD1E08E012809D1206B216800885D
:20EBE000C860206B801C2063E08E401EE086E08E80B9A06AB84244D12068016841F480515A
:20EC000001603EE02068C068A16B0880A06B801CA0639EE0434600220221204601F080FF65
:20EC2000002874D1206B21680088C860206B801C2063E08E401E0004000CE08609D1A06AD3
:20EC400000E0C7E0B84204D12068016841F480510160434600220121204601F061FF00285A
:20EC60006FD12068C068A16B0880A06B801CA063E08F401EE087E08E0028CBD16068002810
:20EC80006AD1434600220121204601F049FFF0BBB8E7206B411C216321680078C860E08E80
:20ECA000401EE086E08E98B9A06AB84204D12068016841F48051016043460022012120466D
:20ECC00001F02EFF18BB2068C068A16B087040E0434600220221204601F022FFB8B9206BAD
:20ECE000411C216321680078C860E08E401E0004000CE08607D1A06AB84204D12068016826
:20ED000041F48051016000224346012100E018E0204601F005FFA0B92068C168A06B421C19
