:020000040800F2
:20840000B03700200185000883EB000851E7000881EB0008A18900082D1401080000000021
:2084200000000000000000000000000085F6000865B100080000000067EF000865FC0008D4
:208440001B85000807EF00081B8500081B8500081B8500081B8500081B850008D5B200089F
:208460001B8500081B8500081B8500081B8500084DB1000859B100081B8500081B850008F4
:208480001B8500081B8500081B8500081B850008C50E01081B8500081B8500081B85000868
:2084A0001B8500081B8500081B8500081B85000831FD00083DFD00081B8500081B85000854
:2084C0001B8500081B8500081B8500081B8500081B8500081B8500081B8500081B8500085C
:2084E0001B8500081B8500081B850008DFF80CD000F054F8004800475D250108B037002074
:208500000648804706480047FEE7FEE7FEE7FEE7FEE7FEE7FEE7FEE7FEE7FEE7E5FC0008D6
:20852000ED840008202A04DB203A21FA02F00021704721FA02F3D040C2F120029140084349
:208540001946704740EA01039B0703D009E008C9121F08C0042AFAD203E011F8013B00F895
:20856000013B521EF9D27047D2B201E000F8012B491EFBD270470022F6E710B513460A46EC
:2085800004461946FFF7F0FF204610BD421C10F8011B0029FBD1801A70470000064C074DAC
:2085A00006E0E06840F0010394E8070098471034AC42F6D3FFF79EFF544401087444010807
:2085C00070B58C1810F8015B15F0070301D110F8013B2A1106D110F8012B03E010F8016BAC
:2085E00001F8016B5B1EF9D12B0705D40023521E0DD401F8013BFAE710F8013BCB1A921C67
:2086000003E013F8015B01F8015B521EF9D5A142D8D3002070BD000070B5044600688168E2
:20862000C943C9071CD1816821F00101816004F07FF905460FE000BF04F07AF9401B022843
:2086400009D9A06A40F01000A062E06A40F00100E062012070BD20688068C043C007EBD0EC
:20866000002070BDF8B500260446009600688168C943C90728D0816841F00101816013487D
:2086800013490068B0FBF1F000E0401E00900028FBD104F04DF9054611E000BF04F048F95E
:2086A000401B02280BD9A06A40F01000A062E06A40F00100E06284F824600120F8BD2068EA
:2086C0008068C043C007E9D10020F8BD8400002040420F0010B500F093F8302000F0A4F808
:2086E000942000F0A1F8D12000F09EF8202000F09BF80B2000F0B2F8812000F095F83F20C1
:2087000000F0ACF8032000F0A9F8F02000F08CF8102000F0A3F8CA2000F086F8002000F06A
:208720009DF8872000F09AF8202000F097F8BC2000F07AF8002000F091F8A62000F074F8C3
:20874000762000F071F8752000F06EF8002000F085F8282000F082F8152000F065F800205E
:2087600000F07CF8FF2000F079F8312000F05CF8322000F059F8002000F070F8022000F063
:208780006DF8012000F06AF8512000F04DF8FB2000F064F8402000F047F8F42000F044F825
:2087A000002000F05BF8002000F058F8002000F055F8002000F052F8002000F04FF80020C8
:2087C00000F04CF8002000F049F8002000F046F8F02000F029F8152000F040F8152000F023
:2087E0003DF8152000F03AF8152000F037F8302000F01AF8BDE81040AF2000F015B80000C6
:2088000010B5084C0020C4F8AC01322004F5D67408F06EFF01202060BDE81040322008F0DC
:2088200067BF00000000224231B509490020C1F8A801084CC4F8BC010A23012269460648DA
:2088400004F5DE7405F0E4FA0120206038BD00000000224200002142CC03002031B5094877
:208860000124C0F8A841084D0020C5F8BC010A2322466946054805F5DE7505F0C9FA2C6021
:2088800038BD00000000224200002142CC03002000F05EBE01F0B4B8012002F05FB9012078
:2088A00001F0ACB9012001F0ADB90000104810B5008800EB40010F4800EB8110C17B807B0F
:2088C00000EBC00202EB001001EB800000F6FD30B0F5005F08D08720074A00215318491C9A
:2088E00058700429FADB10BD00F03AFFF4E700008E000020AC040020AC10002070B5274DEA
:2089000004464FF0000649B114E001221146284604F008F8642008F001FF761CA642F4D341
:2089200034E001221146284603F0FCFF642008F0F5FE761CA642F4D300220121284603F0F8
:20894000F1FF642008F0D4FE002608E001221146284603F0E7FF642008F0E0FE761CA64236
:20896000F4D300220121284603F0DCFF642008F0BFFE002608E001221146284603F0D2FFBD
:20898000642008F0CBFE761CA642F4D32846BDE870400022012103F0C5BF0000000801408A
:2089A000FEE7000082B00848416941F040014161406900F0400001900549044808600846D8
:2089C00002B003F0DBBB00000010024000300240B800002010B509F091F900F02DF8002043
:2089E00000F088FB00F020FA00F0E4F9002000F081FB102000F00AFA00F0DCF90D484078AB
:208A000040B10C48807828B10A48C07810B10948007960B909F042F9002000F06BFB00F078
:208A20009BFC09F005FA00F04DFA00F0C3F900F0C1F910BDAC10002010B5042011490870B6
:208A400018E0012000F056FB00F0EEF90E48407840B10D48807828B10B48C07810B10A4822
:208A6000007900B90AE000F0A5F906480078801C04490870034800780A28E2DB00BF00F0C4
:208A800099F910BD29030020AC1000202DE9F04705460E4617464FF0A5084FF00009A946E3
:208AA00000F01AFC4FF46810BE4908604FF48020BD490860002426E008F0010020B14FF4FE
:208AC0007070BA49086103E04FF07070B7490861B748006880473A20B24908600420B249D5
:208AE0000860B348006880474FF46810AD4908604FF48020AC4908604FEA5808AC48006896
:208B00008047601CC4B2082CD6DB4FF47070A7490861A748006880473A20A249086004204C
:208B2000A1490860A248006880474FF468109D4908604FF480209C4908609D48006880477D
:208B40003A20984908600420974908609848006880474FF46810934908604FF4802092493A
:208B600008609348006880473A208E49086004208D4908608E48006880474FF468108949F6
:208B800008604FF48020884908608948006880473A20844908600420834908608448006836
:208BA00080474FF468107F4908604FF480207E4908607F48006880473A207A490860042052
:208BC000794908607A48006880474FF46810754908604FF4802074490860754800688047A5
:208BE000002425E007F0010020B14FF470706F49086103E04FF070706C4908616C48006803
:208C000080473A20674908600420674908606848006880474FF46810624908604FF480204F
:208C2000614908607F10624800688047601CC4B2102CD7DB002425E006F0010020B14FF4A6
:208C400070705A49086103E04FF07070574908615748006880473A20524908600420524933
:208C600008605348006880474FF468104D4908604FF480204C49086076104D4800688047DF
:208C8000601CC4B2062CD7DB002426E009F0010020B14FF470704549086103E04FF07070ED
:208CA000424908614248006880473A203D49086004203D4908603E48006880474FF468103D
:208CC000384908604FF48020374908604FEA6909374800688047601CC4B2082CD6DB85EA41
:208CE000251585EAA50585EA650505F0010020B14FF470702D49086103E04FF070702B4909
:208D000008612B48006880473A20264908600420254908602648006880474FF4681021495B
:208D200008604FF48020204908602148006880474FF470701D4908611D48006880470024D5
:208D400015E03A20174908600420174908601848006880474FF46810124908604FF4802020
:208D600011490860124800688047601CC4B2032CE7DB3A200B49086004200B4908600C487B
:208D8000006880474FF46810064908604FF480200549086006480068804700F0C1FABDE8CC
:208DA000F0870000100C014010140140001001402C03002010B54FF468100F4908604FF457
:208DC00080200E4908604FF070700D49086100200C4908601E2008F080FC01200A49C1F89A
:208DE0008801142008F079FC0020064930390860192008F07DFC10BD100C014010140140D0
:208E000000100140B80122420000224210B50446062008F06DFC002221461046FFF736FEE1
:208E20000F2008F065FC10BD1CB54FF4004220210020FFF72BFE01A800F07CF8684600F05C
:208E400079F8002417E001A8005D87280ED11DF8040001280AD11A48005D18B11848005D90
:208E6000012806D100211648015502E0982114480155601CC4B2042CE5DB9DF804008728A6
:208E800003D19DF80000012819D09DF80500872803D19DF80100012811D09DF80600872850
:208EA00003D19DF80200012809D09DF80700872803D19DF80300012801D0FFF77BFF1CBD4B
:208EC000AD10002038B5002202211046FFF7DEFD002527E0684600F02DF800240BE01DF849
:208EE0000400552805D01248005D10B9932110480155601C84B2042CF1DB9DF8000055287A
:208F00000ED09DF8010055280AD09DF80200552806D09DF80300552802D0FFF74BFF38BD80
:208F2000681C85B2B5F5006FD4DB00BFF7E70000AD10002070B5044600F0CEF9052008F0F1
:208F4000EDFB6848006820F07F4040F08840654908600846406820F0FF0040F04400486013
:208F600008040861052008F0D9FB002541E0207840102070607840106070A0784010A0705D
:208F8000E0784010E0703A20574908600420574908605748006880475248806800F4007097
:208FA00010B12078803020704E48806800F4807010B16078803060704A48806800F08000B3
:208FC00010B1A0788030A0704648806800F0400010B1E0788030E0704FF46810424908608B
:208FE0004FF4802041490860414800688047681CC5B2082DBBDB3E48006880473A203A498C
:2090000008600420394908603948006880474FF46810354908604FF4802034490860344845
:20902000006880472F48006820F07F4040F088502C4908600846406820F0FF0040F0110028
:209040004860881408614FF0707008612848006880473A20244908600420244908602448A8
:20906000006880474FF468101F4908604FF480201E4908601E48006880473A201A490860CA
:2090800004201A4908601A48006880474FF46810154908604FF48020144908601448006863
:2090A00080473A20104908600420104908601048006880474FF468100B4908604FF4802008
:2090C0000A4908600A48006880473A200649086004200649086006480068804700F020F9E2
:2090E000002070BD00100140100C0140101401402C03002070B506464FF468107049086074
:209100004FF480206F4908604FF070706E490861642008F003FB00206C490860322008F00C
:20912000DCFA01206A49C1F8B8016A48007808F0DFFA3A20624908600420624908600A204A
:2091400008F0ECFA00240FE04FF070705E4908610A2008F0E3FA4FF470705B4908610A2096
:2091600008F0DCFA601CC4B20D2CEDDB0A2008F0D5FA002415E04FF46810514908604FF424
:209180008020504908600A2008F0C8FA3A204C49086004204B4908600A2008F0BFFA601C7C
:2091A000C4B20D2CE7DB0A2008F0B8FA00240FE04FF07070444908610A2008F0AFFA4FF434
:2091C0007070414908610A2008F0A8FA601CC4B20D2CEDDB1EB90A2008F0A0FA02E00A2066
:2091E00008F086FA4FF46810354908604FF48020344908604BF25A15002428E005F400407D
:2092000020B14FF470703049086103E04FF070702D4908610A2008F081FA3A2028490860C7
:209220000420284908600A2008F078FA4FF46810234908604FF48020224908604FF6FF70A4
:2092400000EA45050A2008F069FA601CC4B2102CD4DB0A2008F062FA4AF21B55002428E022
:2092600005F4004020B14FF470701749086103E04FF07070144908610A2008F04FFA3A206B
:209280000F49086004200F4908600A2008F046FA4FF468100A4908604FF4802009490860B5
:2092A0004FF6FF7000EA45050A2008F037FA601CC4B2102CD4DB1E2008F01AFA70BD00001F
:2092C000100C0140101401400010014088012242000022422903002010B54FF470700D49A0
:2092E00008613A200C49086004200C490860052008F014FA4FF0707006490861052008F0EE
:209300000DFA4FF46810044908604FF480200349086010BD00100140100C0140101401405F
:2093200010B54FF07070094908613A2008490860042008490860052008F0F0F94FF4707075
:2093400002490861052008F0E9F910BD00100140100C01401014014070B555250022042194
:209360002846FFF793FB0A2008F0D8F90A2008F0D5F90A2008F0D2F9012407E0284600F0C1
:209380000BF80A2008F0CAF9601C84B2B4F5006FF4DB002070BD000070B504462546FFF72F
:2093A0009BFF4FF46810664908604FF4802065490860002625E005F0010020B14FF4707033
:2093C0006149086103E04FF070705F4908615F48006880473A205A490860042059490860FE
:2093E0005A48006880474FF46810554908604FF48020544908606D10544800688047701C1F
:20940000C6B2082ED7DB84EA241484EAA40484EA640404F0010020B14FF470704A49086175
:2094200003E04FF07070484908614848006880473A20434908600420424908604348006819
:2094400080474FF468103E4908604FF480203D4908603E48006880473B48006820F07F405B
:2094600040F08840384908600846406820F0FF0040F04400486008040861344800688047CA
:209480003A202F49086004202E4908602F48006880474FF468102A4908604FF480202949FE
:2094A00008602A48006880472748006820F07F4040F08850244908600846406820F0FF001B
:2094C00040F011004860881408614FF0707008611E48006880473A201949086004201949D7
:2094E00008601A48006880474FF46810144908604FF48020134908601448006880473A2067
:209500000F49086004200F4908601048006880474FF468100A4908604FF48020094908600D
:209520000A48006880473A2005490860042005490860064800688047FFF7F2FE70BD000030
:20954000100C014010140140001001402C03002010B501F0B1FC01F001FA002001F01CFA33
:2095600001F010FA01F0C4F910BD000008B1034900E00349034A1160704700006FAF0008A9
:2095800065AF000840030020FEB565A103C9CDE9000100F0D3F86449087008460078002842
:2095A0007DD001F0B1FC4EF6165000F0B7FD5F49098801EB41015E4A02EB81114969081F0B
:2095C00000F0E0FD5B48006820F07F4040F08840584908600846406820F0FF0040F044006A
:2095E000486008040861002595E002A800F0AEFA032D72D1002489E002A8005D00F001007A
:2096000000286BD000F0E0FE01F07EFC41F2162000F084FD4549098801EB4101444A02EB0C
:2096200081114969A1F1080000F0ACFD9DF800002246002100F09CFC9DF8010022460021EE
:2096400000F096FC9DF802002246002100F090FC9DF803002246012100F08AFC9DF80400BB
:209660002246002100F084FC9DF805002246002100F07EFC9DF806002246002100F078FCDC
:209680009DF807002246012100F072FC01F03CFC4EF6165000F042FD2449098800E03DE049
:2096A00001EB4101224A02EB81114969A1F1080000F068FD1F48006820F07F4040F088405A
:2096C0001C4908600846406820F0FF0040F04400486008040861002614E01AE014E002A875
:2096E00000F034FA02A8005D1DF80610884207D01148005D20B901F007FC93210E48015596
:20970000701CC6B2082EEADB601CC4B2042CFFF673AF681CC5B2042DFFF667AFFEBD00001F
:20972000FFFFFFFFFFFFFFFF3C0300208E000020AC04002000100140AD10002000200021E5
:2097400008E04206100E054A525C0AB940F001004A1CD1B20429F4DB70470000AD10002051
:209760002DE9F84F4FF0000B002000907A48008810B94FF4803706E077480088401E4FF4B7
:20978000801101EB404700257348008800EB4000724901EB80104069C0F38728002668E082
:2097A0004FF480626E49384605F05CFCA8F10100B0423AD16848008800EB4000674901EB6C
:2097C0008010B0F866006449098801EB4101634A02EB8111B1F86E1008441FFA80F95E48A8
:2097E000008800EB4000114601EB8010B0F872A0FF205C49487008704FEA1A20887081F851
:2098000003A04FEA1920087181F80590FF208871534890F8FF03C8715348006828B15048C2
:2098200090F8FF0300F0FE00C871002408E04C48005D284485B24A48005D8344601C84B26F
:20984000B4F5806FF3DBCDF800B04FF0000B0098B0F57F3F01D0009820B90020009043496A
:20986000885502E001204149885507F58067701CC6B2464594DB3848008800EB400037490D
:2098800001EB8010B0F86800A84202D08620BDE8F88F3149098801EB4101304B03EB81117A
:2098A0000A8B2D4909884FF4003303EB0130304905F0D8FB0025002405E02D48005D2844CA
:2098C00085B2601C84B22448008800EB4000234901EB8010008BA042EFDC1F48008800EB86
:2098E000400001EB8010B0F86C00A84201D08620CDE71949098801EB4101184B03EB81117F
:209900004A8B154909884FF4802303EB0130194905F0A8FB0025002405E01648005D28442F
:2099200085B2601C84B20C48008800EB40000B4901EB8010408BA042EFDC0748008800EB2D
:20994000400001EB8010B0F87000A84201D086209DE700209BE700008E000020AC0400202E
:20996000BC12002030030020A4020020A02F0020BC220020BC23002010B500F025FD01F02C
:20998000C3FA41F2162000F0C9FB1A49098801EB4101194A02EB81114969A1F1080000F0AD
:2099A000F1FB16490878002100F092FA13494878002100F08DFA11498878002100F088FA9E
:2099C0000E49C878012100F083FA0C490879002100F07EFA09494879002100F079FA07491B
:2099E0008879002100F074FA0449C879012100F06FFA10BD8E000020AC0400203003002040
:209A000010B508F04BF901F057FA00F0A7FF002000F0C2FF4C48407840B14B48807828B1FB
:209A20004948C07810B14848007908B9FFF7ACFD4548407840B14448807828B14248C078DE
:209A400010B14148007928B900F02EFE00F09AFF00F04EFF3C48407840B13B48807828B1FF
:209A60003948C07810B13848007958B908F0E0F901F022FA00F072FF002000F08DFF002067
:209A800000F0C0F83048407840B12F48807828B12D48C07810B12C48007908B901F0FCF8B4
:209AA0002948407840B12848807828B12648C07810B12548007980B900F0E8FE22484078CD
:209AC00040B12148807828B11F48C07810B11E48007910B9002001F041F81B48407840B1FD
:209AE0001948807828B11848C07810B11648007978B9FFF741FF1448407840B11248807846
:209B000028B11148C07810B10F48007908B900F075FB00F037FF0C48407840B10A488078BC
:209B200028B10948C07810B10748007940B900F00BFF012000F030FF00F0CEFE00F018FF44
:209B400000F0D6FE10BD0000AC10002070B50446002545E020784006000E20706078400645
:209B6000000E6070A0784006000EA070E0784006000EE0704FF468101C4908604FF4802024
:209B80001B4908601B48006880473A20174908600420174908601748006880471648806885
:209BA00000F4007010B12078401C20701248806800F4807010B16078401C60700E488068D3
:209BC00000F0800010B1A078401CA0700A48806800F0400010B1E078401CE070681CC5B2A6
:209BE000082DB7DB022007F099FD70BD100C014010140140400300200010014001460020E5
:209C0000704700002DE9FE4F82464FF480300290A748008800EB4000A64901EB8010806CE4
:209C2000C0F387200090A248008800EB400001EB8010B0F84800C0F3090B9D48008800EB12
:209C4000400001EB801090F846005844B0F5806F10D9CBF1000000F0FF089548008800EB5E
:209C6000400001EB801090F84600A0EB080000F0FF090AE08E48008800EB40008D4901EB9A
:209C8000801090F846804FF000098948008800EB4000884901EB80104069C0F38727BAF118
:209CA000000F7BD18248008818B94FF48030029007E07F480088401E4FF4801101EB4040CD
:209CC000029001F021F94EF6165000F027FA002000F058FA7848006820F07F4040F08840DB
:209CE000754908600846406820F0FF0040F04400486008040861002598E04FF480626F492E
:209D0000029805F0AFF96E48006888B16D48405D70B1002409E06948005D55386A49097866
:209D2000484066490855601C84B2B4F5806FF2DB781EA84211D1FF20604981F8F80381F861
:209D4000F90381F8FA0381F8FB0381F8FC0381F8FD0381F8FE0381F8FF035548008800EB24
:209D60004000544901EB801090F84600F0B1009885420AD1002406E0FF2004EB0B014F4A24
:209D80005054601C84B24445F6DBB9F1000F0DD00098401C854209D1002405E049E0FF2097
:209DA00046490855601C84B24C45F8DB002434E001A8FFF7CBFE00260DE001A8805D3F49E0
:209DC000095D884205D04148805D10B993213F488155701C86B2042EEFDB9DF80400374965
:209DE000095D884217D09DF805003449095D884211D09DF806003149095D88420BD09DF86F
:209E000007002E49095D884205D001F07DF800F06FFDBDE8FE8F601C84B2B4F5806FC7DBDF
:209E2000029800F580600290681CC5B2BD42FFF664AFBAF1010F38D101F03EF800F08EFDB9
:209E4000002000F0A9FD01F05FF84EF6165000F065F9002000F096F91748006820F07F40D7
:209E600040F08840144908600846406820F0FF0040F04400486008040861002513E0002453
:209E800008E001A8FFF762FE9DF804000B490855601C84B2B4F5806FF3DB4FF4806008F05E
:209EA00099FE681CC5B2BD42E9DB00BFB1E700008E000020AC04002000100140BC12002039
:209EC000A4020020A02F002037020020AD10002070B504460D46002626E04FF46810204985
:209EE00008604FF480201F4908601F480068804704F0800020B14FF470701C49086103E098
:209F00004FF07070194908611748006880473A201349086004201349086013480068804739
:209F20006006040E701CC6B2082ED6DB9DB94FF468100B4908604FF480200A4908600A4801
:209F4000006880473A2006490860042005490860054800688047012D01D100F045FA70BD0F
:209F6000100C01401014014040030020001001402DE9F04105460E46144600277DE034B1C2
:209F8000012C08D0022C0BD0032C12D10DE000205E4908600DE000205C49091F086008E05B
:209FA00000205A490839086003E000205849086000BF00BF57480068804705F08000D8B1DF
:209FC00034B1012C08D0022C0BD0032C13D10DE00120514908600EE001204F49091F086034
:209FE00009E001204C490839086004E001204A490C39086000BF1BE034B1012C08D0022C02
:20A000000BD0032C13D10DE00020434908600EE000204149091F086009E000203E49083958
:20A02000086004E000203C490C39086000BF00BF38480068804734B1012C08D0022C0BD062
:20A04000032C12D10DE00120304908600DE001202E49091F086008E001202C4908390860C3
:20A0600003E001202A49086000BF00BF2948006880476806050E781CC7B2082FFFF67FAFFB
:20A080009EBB34B1012C08D0022C0BD0032C12D10DE000201D4908600DE000201B49091FEE
:20A0A000086008E0002019490839086003E000201749086000BF00BF16480068804734B16A
:20A0C000012C08D0022C0BD0032C13D10EE001200E4908600EE001200C49091F086009E0B4
:20A0E00001200A490839086004E007E001200849086000BF00BF074800688047012E02D1A0
:20A10000204600F0E7F9BDE8F0810000948121428881224240030020A401224270B5044633
:20A12000002522E004F4004020B14FF470701249086103E04FF070700F4908614FF468108A
:20A140000E4908604FF480200D4908600A2007F0E5FA3A20094908600420094908600A2083
:20A1600007F0DCFA6400681CC5B2102DDADB0A2007F0D4FA70BD000000100140100C0140F7
:20A180001014014070B50446002522E004F4004020B14FF470701649086103E04FF07070CE
:20A1A000134908614FF46810124908604FF48020114908600A2007F0B1FA3A200D490860D3
:20A1C00004200D4908600A2007F0A8FA6400681CC5B2102DDADB4FF46810064908604FF4D4
:20A1E0008020054908600A2007F098FA70BD000000100140100C01401014014038B500F039
:20A2000083FE4EF61650FFF789FF2A49098801EB4101294A02EB81114969A1F10800FFF72F
:20A22000B1FF2648006820F07F4040F08840234908600846406820F0FF0040F044004860DC
:20A2400008040861002431E06846FFF77FFC00250DE01DF805001A49095D884205D0194840
:20A26000405D10B9932117484155681CC5B2042DEFDB9DF800001249095D884214D09DF840
:20A2800001000F49095D88420ED09DF802000C49095D884208D09DF803000949095D884249
:20A2A00002D000F031FE38BD601CC4B2082CCBDB00BFF8E78E000020AC040020001001407F
:20A2C00030030020AD1000202DE9F84F05468A4616463848008810B94FF4803906E035484A
:20A2E0000088401E4FF4801101EB404905F00308C8F10400504501DA082700E004274FF683
:20A30000FC71294001EB09003A462B4904F0AAFE00240FE02748008800EB4000274901EB51
:20A3200080105C3010F8140004EB0801224A5054601CC4B21F48008800EB40001F4901EB7D
:20A34000801090F84600A042E4DC00F0DDFD4EF61650FFF7E3FE4FF6FC7105EA0100FFF71A
:20A3600011FF1748006820F07F4040F08840144908600846406820F0FF0040F04400486059
:20A3800008040861002410E06846FFF7DFFB1DF806000949095D884205D00A48805D10B94C
:20A3A000932108488155601CC4B2BC42ECDBBDE8F88F00008E000020BC120020AC04002074
:20A3C00000100140AD10002010B500F09DFD41F22220FFF7A3FE0020FFF7D4FE4EF6EA10CE
:20A3E000FFF79CFE10BD00002DE9F04100274FF46810324908604FF48020314908603148B6
:20A40000006880473A202D49086004202C4908602D48006820F07F4040F088402A49086055
:20A420000846406820F0FF0040F0440048600804086100242DE025480078A04000F0080098
:20A4400028B30027002520E001F0E0FA0646022007F064F90BE001F0D9FA801B0A2803D9F0
:20A4600001279B211A480155022007F057F9164880684FF400712141084008B1002FEAD091
:20A480000A2007F04BF9681CC5B2032DDCDB601CC4B2042CCFDB0C48006820F07F4040F0EE
:20A4A0008850094908600846406820F0FF0040F01100486088140861BDE8F081100C0140A4
:20A4C0001014014040030020001001403C030020AD1000202DE9F041044600274FF46810B4
:20A4E0002F4908604FF480202E4908602E48006880473A202A49086004202A4908602B486E
:20A50000006820F07F4040F08840284908600846406820F0FF0040F044004860080408619D
:20A5200023480078A04000F0080028B300BF002520E001F06BFA0646022007F0EFF80BE014
:20A5400001F064FA801B0A2803D901279B2119480155022007F0E2F8144880684FF400717D
:20A560002141084008B1002FEAD00A2007F0D6F8681CC5B2032DDCDB0C48006820F07F4033
:20A5800040F08850094908600846406820F0FF0040F01100486088140861BDE8F0810000F0
:20A5A000100C01401014014040030020001001403C030020AD1000202DE9F0470546894682
:20A5C00092463648008810B94FF4803806E033480088401E4FF4801101EB4048FFF7F4FE62
:20A5E00000F092FC41F21620FFF798FD4FF6FC7105EA0100FFF7C6FD05F00307C7F10400D3
:20A60000484501DA082600E004264FF6FC71294001EB08003246224904F024FD00240EE081
:20A620001E48008800EB40001E4901EB80105C3010F81400E1191A4A5054601CC4B2174823
:20A64000008800EB4000174901EB801090F84600A042E5DC00241CE01149085D5246002162
:20A66000FFF786FC0E4A611C505C52460021FFF77FFC0B4AA11C505C52460021FFF778FCD6
:20A68000074AE11C505C52460121FFF771FC201DC4B2B442E0DBBDE8F08700008E00002075
:20A6A000BC120020AC0400202DE9F05F4FF4803B6F48008800B906E06D480088401E4FF4BD
:20A6C000801101EB404B6A48008800EB4000694901EB80104069C0F387296548008800EBB3
:20A6E000400001EB8010806CC0F3872A6048008800EB400001EB8010B0F84800C0F30908C3
:20A700005B48008800EB400001EB801090F846004044B0F5806F0DD9C8F10000C6B25448CE
:20A72000008800EB400001EB801090F84600801BC7B209E04E48008800EB40004D4901EB54
:20A74000801090F846600027FFF73EFE00F0DCFB41F21620FFF7E2FC0020FFF713FD002593
:20A7600081E04FF480624449584604F07BFC4348006888B14248405D70B1002409E03E48B6
:20A78000005D55383F49097848403B490855601C84B2B4F5806FF2DBA9F10100A84211D1DF
:20A7A000FF20354981F8F80381F8F90381F8FA0381F8FB0381F8FC0381F8FD0381F8FE03BB
:20A7C00081F8FF032A48008800EB4000294901EB801090F84600D0B155450AD1002406E01D
:20A7E000FF2004EB0801244A5054601C84B2B442F6DB67B10AF10100854208D1002404E0FB
:20A80000FF201D490855601C84B2BC42F8DB002422E0FEF793FF1C49087008460078B8B11A
:20A820001549085D0021FFF753FB134A611C505C0021FFF74DFB104AA11C505C0021FFF731
:20A8400047FB0D4AE11C505C0121FFF741FB01E0BDE8F09F201D84B2B4F5806FD9DB0BF58E
:20A86000806B681CC5B24D45FFF67BAF00BFEFE78E000020AC040020BC120020A40200207A
:20A88000A02F0020370200203C03002010B500F03BFB41F21C20FFF741FC0020FFF772FC00
:20A8A000002410E0FEF74AFF094908700846007830B10849085D00F0CBFAFFF795FD00E002
:20A8C00010BD601CC4B2802CECDB00BFF8E700003C030020BC23002010B500F015FB03483A
:20A8E00000F086FAA02000F0B3FA10BD0000221210B54FF468100F4908604FF480200E4910
:20A9000008604FF070700D49086100200C4908601E2006F0E2FE01200A49C1F88801142016
:20A9200006F0DBFE0020064930390860642006F0DFFE10BD100C01401014014000100140D1
:20A94000B80122420000224210B500F0DDFA024800F04EFA10BD0000695C8A4810B500F04F
:20A96000D3FA024800F044FA10BD0000915C8A4810B500F0C9FA024800F03AFA10BD000053
:20A98000965C8A4810B500F0BFFA024800F030FA10BD0000995C8A4870B586B0064600F0F6
:20A9A000B3FA4EF62050FFF7B9FB0020FFF7EAFB6548006820F07F4040F0884062490860A2
:20A9C0000846406820F0FF0040F04400486008040861002410E06846FFF7B8F8002507E06D
:20A9E0001DF8050001A901EB84014855681CC5B2042DF5DB601CC4B2052CECDB002413E088
:20AA000001A8005D632807D102A8005D192803D100214E48015505E04C48005D10B998214C
:20AA20004A480155601CC4B2042CE9DB00244DE04748008800EB4000464901EB8010007C2E
:20AA4000042803D103A8005D12283DD04048008800EB40003F4901EB8010007C032803D1ED
:20AA600003A8005D15282FD03948008800EB4000384901EB8010007C012803D103A8005DE0
:20AA8000162821D03248008800EB4000314901EB8010007C022803D103A8005D012813D0D6
:20AAA0002B48008800EB40002A4901EB8010007C052803D103A8005D822805D02348005DB5
:20AAC00010B9982121480155601CC4B2042CAFDBDEB9002416E005A8005D012802D11E496B
:20AAE00008550DE005A8005D092803D100201A49085505E01548005D10B99821134801554B
:20AB0000601CC4B2042CE6DB1BE0002417E005A8005D022803D101200F4908550DE005A8C4
:20AB2000005D0A2803D100200B49085505E00748005D10B9982105480155601CC4B2042C09
:20AB4000E5DB06B070BD000000100140AD1000208E000020AC04002038030020F8B5064652
:20AB600000200090002E59D100F0CEF94EF61C50FFF7D4FA0020FFF705FB4148006820F08B
:20AB80007F4040F088403E4908600846406820F0FF0040F04400486008040861002433E042
:20ABA0006846FEF7D3FF00250DE01DF805003549095D884205D03448405D10B9952132485F
:20ABC0004155681CC5B2042DEFDB9DF800002D49095D884216D09DF801002A49095D88428F
:20ABE00010D09DF802002749095D88420AD09DF803002449095D884204D000F085F9FFF7F7
:20AC000077FEF8BD601CC4B22048008800EB40001F4901EB8010408BA042C1DC012E2DD1A2
:20AC200000F072F94EF61C50FFF778FA0020FFF7A9FA1348006820F07F4040F08840104905
:20AC400008600846406820F0FF0040F04400486008040861002408E06846FEF777FF9DF83C
:20AC600000000C490855601CC4B2802CF4DB802007F0B0FFFFF786FEFFF73AFE00BFC0E761
:20AC800000100140BC230020AD1000208E000020AC040020BC12002070B55248008800EBE9
:20ACA0004000514901EB801090F8460000B970BD002592E04D48405D00287CD14948008833
:20ACC00000EB4000484901EB801090F85C404548008800EB400001EB801090F85E0004EB87
:20ACE00000244048008800EB400001EB801090F8600004EB00443B48008800EB400001EB3C
:20AD0000801090F8620004EB0064364A128802EB42020B4603EB821292F84610314A128853
:20AD200002EB420203EB8212B2F8482090B22A46FFF742FC642006F0DBFC2C48405DA0B9AD
:20AD4000284A128802EB4202274B03EB821292F84610244A128802EB420203EB8212B2F87D
:20AD6000482090B22A46FFF7AFFA2048405D48B91C48008800EB40001B4901EB801090F994
:20AD800064000444E0B21749098801EB4101164A02EB8111A1F85C00C4F3072111480088C2
:20ADA00000EB400002EB8010A0F85E10C4F307410C48008800E00EE000EB400002EB801094
:20ADC000A0F86010200E0749098801EB410102EB8111A1F86200681CC5B2042DFFF66AAF7A
:20ADE00000BF64E78E000020AC040020AD10002070B50446002522E004F0004020B14FF410
:20AE000070701049086103E04FF070700D4908614FF468100C4908604FF480200B490860B8
:20AE20000A2006F07BFC3A20074908600420074908600A2006F072FC6400681CC5B2202D53
:20AE4000DADB70BD00100140100C01401014014070B50446002523E004F0800020B14FF4DE
:20AE600070701149086103E04FF070700E4908614FF468100D4908604FF480200C49086054
:20AE80000C48006880473A20084908600420084908600848006880476006040E681CC5B24D
:20AEA000082DD9DB70BD000000100140100C0140101401404003002010B5012006F018FC16
:20AEC00000200C490860322006F007FC01200A49C1F8B8014FF46810084908604FF480200D
:20AEE000074908604FF0707006490861082006F0FFFB10BD8801224200002242100C014030
:20AF0000101401400010014010B54FF46810124908604FF4802011490860FA2006F0FEFB8A
:20AF20003A200D49086004200C490860FA2006F0F5FB0B48006820F07F4040F08850084935
:20AF400008600846406820F0FF0040F0110048608814086110BD0000100C01401014014007
:20AF60000010014010B5012006F0D8FB10BD10B5032006F0D3FB10BD0020704700207047DD
:20AF80000020704770B50024064D07E0165D4640F6B2641C55F8266086EA10209C42F5D31D
:20AFA000484070BD6835010810B500210A464FF4806300BF10F8014B521C21449A42F9D34C
:20AFC000084610BD2DE9F8432748294F002501784278DFF8989001EB02218278C078120470
:20AFE00002EB006001EB00083878A52801D1002038702048FDF7CAFAC1B21E4807F07AFD92
:20B0000004461D481D49008800EB400201EB821109EB4040CA7B897B00F59C0001EBC103E9
:20B0200003EB011102EB81060422694604F01AF89DF80000DDF80110B8F1D70F40EA01206C
:20B040000FD0B44201D004B10125B44203D10C490968884201D1002D03D0A520387001F0E5
:20B0600029FDBDE8F8830000F87F0008F87B0100F84F0020C0FF01088E000020AC040020EA
:20B08000F8FF0108F0B52B48008800EB40012A4800EB811090F80EE0B0F85C40B0F85EC076
:20B0A000B0F86020B0F86270B0F85430B0F85660B0F85810B0F85A50BEF10A0F18D0E0B2C0
:20B0C0000CF0FF0400EB0420D2B200EB0240DAB2F3B202EB0322C9B202EB014100EB076072
:20B0E00001EB0561421C01D0884220D98920F0BD4FEA0C4C00201CEB040440EB000C10EBC4
:20B10000040E42EB0C023C0410EB0E0754413204D21840EB000683187141C01841EB054214
:20B120006FEA07012143E1D0C01BA241DED30020F0BD00008E000020AC04002010B504F026
:20B1400073FDBDE8104004F05DBD0000014801F027B8000030120020014801F021B80000EE
:20B1600068120020704710B5040016D04FF49E2000EB0431002000F0D7F84FF4602000EB21
:20B180004441012000F0D0F84FF4702000EB4441BDE81040012000F0C7B80021012000F057
:20B1A000C3F84FF48031012000F0BEF84FF44031EEE70000F0B5074635A00E4691B007C865
:20B1C00001AB83E8070035A004AB07C883E8070035A207AB07CA83E8070036A00AAB07C866
:20B1E00083E8070036A20DAB07CA83E80700002006F03DFA0C244EB1300909282ED2DFE85D
:20B2000000F02D2022242D2D262D2800012F06D0022F06D0032F06D0062F07D105E001AD21
:20B2200004E004AD02E00AAD00E007AD10232A4605211846009406F0D7FA1023234A009496
:20B240001CE001AD0AE004AD08E00AAD06E007AD04E006F00F00082800D10DAD10232A4629
:20B2600005211846009406F0BFFA194A0221304607F088FC164A1023083A00940521702071
:20B2800006F0B2FA4FF4FA7006F027FA11B0F0BD2056444420434845434B20202056505701
:20B2A00020434845434B202020464C415348205445535420434F4E4E454354205445535458
:20B2C000205245414420434F554E5420E100002009020020022001F03BBA000000B585B04B
:20B2E0000E48816941F004018161806900F004000090022001900A4802900120039001A994
:20B30000084801F031FA02221146072001F0A0FB072001F087FB05B000BD00000010024035
:20B3200000002110000801402DE9F0410C46074606F028F906F070F9DFF85C800022102131
:20B34000404601F0EFFA154D27B1012F04D0022F04D11FE0202000E0D82028704FF47A7667
:20B36000334601220D490E4802F052FD022F0AD0200C2870200A6870AC7033460322074969
:20B38000074802F045FD4046BDE8F0410122102101F0C8BAC720E0E7000801405802002096
:20B3A00074030020FEE7000006490020C8610648016941F004010161016941F040010161EB
:20B3C00070470000802F0020002002402DE9F047DFF89C80D8F820104CF250390143CFB2B9
:20B3E000C1F30726C1F307450C0E484600F01EF900283BD11F49C86101F090F8002835D151
:20B40000D8F8102042F01002C8F81020FF2F07D01948018839430180484600F007F9F8B9DD
:20B42000FF2E08D01448801C018831430180484600F0FCF8A0B9FF2D08D00F48001D0188C5
:20B4400029430180484600F0F1F848B9FF2C07D00948801D018821430180484600F0E6F8DD
:20B46000D8F8102022F01002C8F81020BDE8F08700200240802F002008F8FF1F2DE9F04700
:20B48000DFF89C80D8F820104CF250398143CFB2C1F30726C1F307450C0E484600F0C6F876
:20B4A00000283BD11F49C86101F038F8002835D1D8F8102042F01002C8F81020FF2F07D03F
:20B4C0001948018839400180484600F0AFF8F8B9FF2E08D01448801C0188314001804846AC
:20B4E00000F0A4F8A0B9FF2D08D00F48001D018829400180484600F099F848B9FF2C07D06A
:20B500000948801D018821400180484600F08EF8D8F8102022F01002C8F81020BDE8F0879E
:20B5200000200240802F002008F8FF1F0449A520C96901F00201022900D1002070470000B1
:20B540000020024070B506464CF25035284600F06DF8002820D11149C861114C206940F0E0
:20B5600020002061206940F040002061284600F05DF8216921F02001216100280CD1206931
:20B5800040F01000206107480680284600F04EF8216921F01001216170BD0000802F002047
:20B5A0000020024000F8FF1F064A0021D16106490A6942F002020A614861086940F0400083
:20B5C00008617047802F002000200240044B0022DA61044A136943F00103136101807047C1
:20B5E000802F0020002002400E49C868C2060E4803D5C26942F00202C261CA68520703D5B6
:20B60000C26942F00102C261CA69D20707D0C26942F00402C261C86920F00100C86114209F
:20B62000C860704700200240802F002070B5054601F07EF90646114C09E0681C07D025B15F
:20B6400001F076F9801BA84201D9032070BDE068C007F2D1E068800601D52020E060E0689D
:20B66000C00605D4E069C00702D1E068400703D5FFF7BAFF012070BD002070BD0020024035
:20B680003EB5174B044600250A21186803E0B0FBF1F06D1CEDB20028F9D16A462946186813
:20B6A00007F058FA9DF8000020702E2060709DF80110A170E0709DF8020020719DF8030037
:20B6C00060712020A071002069462D1F05E00A1823181279401CDA71C0B2A842F7DB3EBD90
:20B6E000F8FF010810B504F035FAFF2004F05EFA0A2005F0FDFFF02004F058FA0A2005F067
:20B70000F7FFBDE81040FF2004F050BA2DE9F05F00263446E1B2002006F040FE21040120EF
:20B72000FFF702FE641CA4B2072CF3D36A4D00244FF480574FF4402B04F10C00C1B200200D
:20B7400006F02CFE0BEB044080463A46624903F089FC0020295CFF2904D1401C80B2B842FC
:20B76000F8D326B141460120FFF7DEFD0026641CA4B2622CE0D34FF000084FF4807904E00A
:20B78000B8F1000F01D0552600E0AA2608F1010A0AF0FF00002106F001FE4F4D00202E54A4
:20B7A000401C80B2FF28FAD900273C464A464A49384605F011FF641CA4B207F58037072CF6
:20B7C000F4D300273C464A464349384603F04AFC002007F58037295CB14256D1401C80B226
:20B7E000FF28F8D9641CA4B2072CECD3002421040020FFF799FD641CA4B2072CF7D3B8F118
:20B80000000F01D0552400E0AA240AF0FF00002106F0C4FD00202C54401C80B2FF28FAD928
:20B820005F460026C84642462B49384605F0D4FE761CB6B207F58037622EF4D35E4600271F
:20B8400042462549304603F00DFC002006F58036295CA14219D1401C80B2FF28F8D97F1C3C
:20B86000BFB2622FECD34FF44827002642461A49384605F0B1FE42461749384603F0F2FBDC
:20B88000002029460A5CA24202D06020BDE8F09F401C80B2FF28F5D9761CB6B207F5803719
:20B8A000622EE3D300245D464FF4482605EB04410020FFF739FD06EB04410020FFF734FDCC
:20B8C000641CA4B2622CF1D31FFA8AF8B8F1020FFFF456AF0020D9E7BC1200202DE9F047D8
:20B8E0000D4681460026FF224FF480511048FCF73BFE4FF48067DFF8388014E0BD4201D2D0
:20B90000ACB200E03C4622460949484603F0AAFB0020414603E00A5C401C164480B2A042CD
:20B92000F9D3A1442D1B002DE8D13046BDE8F087BC1200202DE9F05F0C4607460025FF225E
:20B940004FF480512F48FCF70FFE4FF4803290112C4994424ED9924680468946444501D28B
:20B96000A6B200E0464632462649384603F07AFB0020494603E00A5C401C154480B2B04265
:20B98000F9D3A41B37445445E8D8DFF87CA04FF4403B74B34646B44200D2A6B2BAF8000012
:20B9A0001849324628B1384603F05CFB0020494605E05846F8E70A5C401C154480B2B042BD
:20B9C000F9D33744A41BE4E74E46B44200D2A6B232460C49384603F045FB0020414603E0DA
:20B9E0000A5C401C154480B2B042F9D33744A41B02E003E081468846002CE5D12846BDE8B3
:20BA0000F09F0000BC1200208E0000200148806870470000880000207FB504461022694909
:20BA20006846FCF78FFDE5202070422060707A20A07003F007FD644E307803F041FB03F0F5
:20BA400067FC6249002023180A5C401CC0B2DA701028F8D35E480188090AE1740078207558
:20BA60005C480168090E61750168090CA1750188090AE175007820765749002042182318E3
:20BA8000401C92F8E827C0B25A760C28F6D3534D00203188221801EB410105EB8111095CAA
:20BAA000401CC0B282F825100E28F2D33088102200EB400005EB801111F80E0F84F83300A3
:20BAC000487884F8340031F8360F000A84F8350011F8220B84F836000888000A84F8370098
:20BAE00011F8040B84F838000888000A84F8390011F8040B84F83A000888000A84F83B000C
:20BB000011F85E0984F83C0011F8140B84F83D0004F14000FCF716FD308800EB400005EB0E
:20BB2000801090F8461084F8501090F8641084F85110806CC4F852000020318801EB4101E1
:20BB400005EB811101EB4001B1F84C2004EB400121F8562F328802EB420205EB821202EBF7
:20BB60004002B2F854200A81328802EB420205EB821202EB4002401CB2F85C20C0B20A82BC
:20BB80000428DAD31649308801EB001100EB4000096805EB801044F86E1F818BA180C18B5A
:20BBA000E180018C2181418C618190F8BC10A17390F8BD10E17390F8BE10217490F8BF0003
:20BBC00060747FBDC0FF01088E000020E0FF0108FC7F0008F8FF010800F0FF1FAC04002096
:20BBE000C0100020F8B500250446009590F82400012808D0012084F824002046FCF70CFDD4
:20BC0000060002D04BE00220F8BDA06A20F4885040F00200A062022001F038FA22490968FF
:20BC2000B1FBF0F0400000E0401E00900028FBD12046FCF717FD2068816841F0080181607D
:20BC400000F076FE074604E000F072FEC01B0A2811D8206880680007F6D42068816841F016
:20BC60000401816000F064FE07460EE000F060FEC01B0A2809D9A06A20F0020040F01000B8
:20BC8000A06284F824500120F8BD206880684007ECD4A06A20F0020040F00100A06284F89A
:20BCA00024503046F8BD000084000020F8B50025009590F82420AE46012A1ED0012280F866
:20BCC00024204A681F244FF47873072A17D20668776B93FAA3FCBCFA8CFC521E02FB0CFCB4
:20BCE00004FA0CF4A74393FAA3F3B3FA83F30C685A439440274377632DE00220F8BD06689B
:20BD00000D2A14D2376B93FAA3FCBCFA8CFCD21F02FB0CFC04FA0CF4A74393FAA3F3B3FA4C
:20BD200083F30C685A4394402743376313E0F76A93FAA3FCBCFA8CFC0D3A02FB0CFC04FA9C
:20BD40000CF4A74393FAA3F3B3FA83F30C685A4394402743F7620A683823072406680A2A71
:20BD600014D3F76893FAA3FCBCFA8CFC0A3A02FB0CFC04FA0CF4A74393FAA3F3B3FA83F39C
:20BD80008C685A4394402743F76012E0376993FAA3FCBCFA8CFC02FB0CFC04FA0CF4A74394
:20BDA00093FAA3F3B3FA83F38C685A439440274337610A68102A01D0112A20D1124B026866
:20BDC0009A4217D193681B0219D4936843F4000393600968102912D10C490D4A0968B1FB1C
:20BDE000F2F101EB8101490000E0491E00910029FBD104E0816A41F020018162012580F83A
:20BE000024E02846F8BD0000002401408400002040420F000068C06C704700002DE9F041CF
:20BE200004004FF0000514D0A06A002628B9E66284F82460204600F08BF82046FCF7ECFB64
:20BE4000A16A01F01001014304D0A06A40F01000A06277E0A16A21F4885141F00201A162EA
:20BE60006268E16902270A43E16897FAA7F70B46B7FA87F7B9400A43A1684FF48077B942BC
:20BE800008D0012906D00021D4F814C0BCF1010F02D00AE03946F7E7F3B1A36A43F020032C
:20BEA000A362E36A43F00103E3622368D3F804C02CF4694C4CEA010CC3F804C021688B6887
:20BEC000DFF884C003EA0C0313438B60A168B94210D001290ED016E04FF4604CA3699CFA97
:20BEE000ACFCBCFA8CFC5B1E03FA0CF30B4343F40061DAE74FF47001256991FAA1F1B1FA36
:20BF000081F16D1E8D402168CB6A23F470032B43CB62216889680D4B1940914208D1E66255
:20BF2000A16A21F0020141F00101A162BDE8F081A06A20F0020040F01000A062E06A40F0BE
:20BF40000100E0620120F1E7FDF7E1FFFE0E1FFF00B500680A4985B088420FD1094881691D
:20BF600041F4007181618069694600F400700490032000900190044800F0F6FB05B000BDC6
:20BF80000024014000100240001001402DE9F84300260D460446009600F0CAFC80462068EB
:20BFA0008168C90508D5A06A40F02000A06284F824600120BDE8F8834168C90503D4C06AD8
:20BFC00010F4700F26D0022001F060F838490968B1FBF0F72068036936490B424FEA61019D
:20BFE0004FEAA1121BD1C3684FEA611C13EA0C0F15D103690B4221D1C06810421ED1142042
:20C000001FE0681C06D045B300F092FCA0EB0800A84222D8206800688007F2D52AE0036926
:20C020000B4202D1C168114206D0026922490A4206D1C068084203D1542002E0292000E0D0
:20C04000FC204743009813E0681C0ED02DB100F06FFCA0EB0800A84207D9A06A40F0040079
:20C06000A06284F824600320A4E70098401C0090B842E9D321686FF012000860A06A40F436
:20C080000070A06220688068C0F3424007280CD1E06850B9A06A20F48070A062A06AC0044E
:20C0A00003D4A06A40F00100A062002082E7000084000020244992244992240070B50446AE
:20C0C00090F8240001280DD0012084F824002046FCF7C8FA02004FF0000005D084F824001C
:20C0E000104670BD022070BDA16A40F20123994341F48071A1621F4D23681F49AB4218D1D3
:20C100000E6816F4702F14D0A66A46F48016A6620E68760505D5A66A26F4005646F48056D9
:20C12000A662A66AF6040AD5E66A26F00606E66206E0A66A26F48016A6625E68E9E7E062CE
:20C1400084F824006FF00200186020688368C3F34243072B05D1A84208D1096811F4702FD8
:20C1600004D0816841F480118160B9E7816841F4A001F9E7002801400424014010B5040081
:20C1800002D0607910B106E0012010BD00202071204600F004F801206071002010BD7047C6
:20C1A0002DE9F05FDFF860820446D8F80020DFF858B2954D944E944F0068DFF84C92DFF8AB
:20C1C00048A20BF1080B1C35303644374FF400614FF4004C4FF4002E09F158090AF16C0AC4
:20C1E000584501D1082316E0A84201D1802312E0B04201D10B460EE0B84201D163460AE0FC
:20C20000484501D1734606E0504502D14FF4000301E04FF000631A4231D00268D2431207FA
:20C220002DD4026822F0080202602068584501D1082114E0A84201D1802110E0B0420ED0E4
:20C24000B84201D161460AE0484501D1714606E0504502D14FF4000101E04FF00061C8F898
:20C260000410606B40F001006063042084F82100002084F82000216B09B120468847624849
:20C28000D0F800C04FF4806120680A010B044FF4802E584502D14FF0040816E0A84202D1F1
:20C2A0004FF0400811E0B04201D188460DE0B84201D1904609E0484501D1F04605E05045ED
:20C2C00002D14FF4800800E098461CEA080F33D0D0F800C06FEA0C0C5FEA4C7C2CD4D0F810
:20C2E00000C05FEA8C6C05D4D0F800C02CF0040CC0F800C02068584501D1042113E0A8423F
:20C3000001D140210FE0B0420DD0B84201D1114609E0484501D1714605E0504502D14FF47A
:20C32000800100E0194638484160112084F82100E16A09B120468847334AD2F800C05B466C
:20C34000206851154FF4005B4FF4003E984202D14FF0020817E0A84202D14FF0200812E0CD
:20C36000B04201D188460EE0B84201D1D8460AE0484501D1F04606E0504502D14FF400182B
:20C3800001E04FF000781CEA080F3BD0D0F800C06FEA0C0C5FEA8C7C34D4D0F800C05FEABA
:20C3A0008C6C05D4D0F800C02CF0020CC0F800C02068984201D1022114E0A84201D120213A
:20C3C00010E0B0420ED0B84201D159460AE0484501D1714606E0504502D14FF4001101E0AF
:20C3E0004FF000715160606B6063012084F82100002084F82000A16A002903D02046BDE8C2
:20C40000F05F0847BDE8F09F0000024070B520B190F82110002411B103E0012070BD80F8CA
:20C420002040022180F8211003681A6843F6F0718A43D0E901152943D0E90356354329434B
:20C440004569294385692943C5692943114319604463012180F82110002070BD31B500F06C
:20C4600067FA044600F064FA0099001B8842F9D338BD00002DE9F047054626480F46012602
:20C48000017E01290FD00121814601762868DFF888804CF25034022808D0A2462046FFF73D
:20C4A000C5F8A8B131E00220BDE8F0872046FFF7BDF808BB0120FEF777FF2046FFF7B6F8AD
:20C4C000D8F81010064621F00401C8F810101CE04FF0FF303860AC6811E02046FFF764F86B
:20C4E0005046FFF7A3F8D8F81010060021F00201C8F8101001D03C6007E004F58064D5E93C
:20C50000020100EB8120A042E7D8002189F818103046C9E7802F00200020024070B5FFF7AF
:20C5200005F8C5B24CF250363046FFF77FF8002818D10D49C8610D4C206940F0200020619D
:20C54000206940F0400020613046FFF76FF8216921F020012161002804D12846BDE8704090
:20C56000FEF7F0BF70BD0000802F0020002002402DE9F0472D4D04460120297E01290ED0D8
:20C580000121297621784FF00007C9070DD060680128A06806D0FEF719FFE8BB05E00220C8
:20C5A000BDE8F087FEF76AFFF7E72178890703D5207CFEF7C7FF78BB21781D4E49074CF206
:20C5C000503916D594F811804846FFF72FF878B9EF61306940F010003061164948F0880015
:20C5E00008804846FFF722F8316921F01001316190B92178090716D5D4F81480247E48465A
:20C60000FFF714F840B9EF61306940F010003061A8F80040484600E005E0FFF707F83169A3
:20C6200021F0100131612F76BAE70000802F00200020024002F8FF1F0348016941F0800150
:20C6400001610020704700000020024005480169890505D4044981600449816000207047EE
:20C66000012070470020024023016745AB89EFCD2DE9F05F07461C4888460024017E1546DE
:20C680001E46012909D00121814601764CF2503A5046FEF7CBFF18B122E00220BDE8F09F95
:20C6A000012F02D0022F00D00427D346DFF83CA0220128463146FBF735FF81B208EB4400E8
:20C6C000FEF784FF5846FEF7B1FFDAF8102022F00102CAF8102018B9641CE4B2BC42E7D3F7
:20C6E000002289F81820D9E7802F00200020024005480169090605D50449416004494160F2
:20C7000000207047012070470020024023016745AB89EFCD10B50446642004F0DEFF022CB6
:20C7200010D1094CD4F8040100280BD10A2004F0DFFFD4F80401002804D10448817881F06E
:20C740000101817010BD00000000214288000020044910B50A68024202D00860FFF7DAFF3D
:20C7600010BD0000140401402DE9F84FDFF890A100220AF1040B144601274FF00F090BF12D
:20C78000040E00BF0B6807FA04F52B40AB4274D1DFF870C14E68A6EB0C0866452BD00DDCCC
:20C7A000032E34D005DC36B3012E19D0022E2FD11BE0112E16D0122E2AD119E0B8F5881F8A
:20C7C00019D006DCB8F5803F15D0B8F5801F1FD111E0B8F5001F0ED0B8F5041F18D10AE0C3
:20C7E000CA6815E0CA68121D12E0CA6808320FE0CA680C320CE08A682AB1012A4FF00802C7
:20C8000003D0456104E0042202E0056100E00022FF2B01D8064601E000F104064FEA84055E
:20C8200001D9A5F12005D6F800C009FA05F82CEA080C02FA05F54CEA050CC6F800C04D683B
:20C84000ED0057D5304DAE6946F00106AE61AD6924F0030605F0010500952C4D06EB050CA1
:20C86000DCF80850A6074FEA167809FA08F6B543274EB04202D1002610E03BE0254EB0424F
:20C8800001D101260AE0244EB04201D1022605E0224EB04201D1032600E0042606FA08F60D
:20C8A0002E43CCF808604D68DAF80060ED03554601D51E4300E09E432E604D68DBF80060FB
:20C8C000AD035D4601D51E4300E09E432E604D68DEF80060ED02754601D51E4300E09E43F2
:20C8E0002E604D68AD020E4D2E6801D51E4300E09E432E60641C102CFFF444AFBDE8F88F01
:20C900000004014000001110001002400000014000080140000C01400010014000140140E2
:20C920000C0401400AB1016170470904FBE70000014800687047000018030020024801688D
:20C94000491C01607047000018030020074810B5016841F010010160032000F099F800203B
:20C9600000F006F800F016F8002010BD0020024010B5044600F05CFD4FF47A71B0FBF1F06A
:20C9800001F043FC00222146501E00F061F8002010BD0000214808B5816941F00101816115
:20C9A000806900F001000090032000F071F8002211466FF00B0000F04BF8002211466FF0A3
:20C9C0000A0000F045F8002211466FF0090000F03FF800221146501F00F03AF80022114695
:20C9E000101F00F035F800221146901E00F030F800221146501E00F02BF800221146012018
:20CA000000F026F8012000F018F80548416821F0E06141F00071416008BD00000010024045
:20CA20000000014000F01F02012191404009800000F1E020C0F88011704700F01F020121C4
:20CA400091404009800000F1E020C0F800117047F0B40E4B1B680C46C3F30223C3F107055E
:20CA6000042D00D90425191D072901D2002300E0DB1E012606FA05F1491E214099409E40B2
:20CA8000761E16403143F0BC02F07CB80CED00E0064900F0070208684FF6FF03184040EA0C
:20CAA0000220034A10430860704700000CED00E00000FA05BFF34F8F05480168054A01F433
:20CAC000E06111430160BFF34F8F00BFFDE700000CED00E00400FA0510B50C0605D501F0AF
:20CAE0007F0100EB4110283003E000EB411000F5027099B232B101228272C180190C01816F
:20CB0000002010BD002282728180F9E7704700EB4112D0F81C04D26B03F0B9BB00EB411272
:20CB2000D0F81C04D2F81C2203F006BC10B504460A460B0601F07F0004EB401101D5283101
:20CB400001E001F502710870D009487094F8E803012809D0012084F8E803206803F0D4FF33
:20CB6000002084F8E80310BD022010BD70B50A460446090602F07F0003D504EB40112831C2
:20CB800003E004EB421101F5027100258D700870D009487094F8E803012809D0012084F8C6
:20CBA000E803206804F058F884F8E853002070BD022070BD70B504460D460E0601F07F0025
:20CBC00004EB401101D5283101E001F502710870E80948700A61CB7094F8E803012809D05C
:20CBE000012084F8E803206803F05EFE002084F8E80370BD022070BD70B504460E4601F01F
:20CC00007F0004EB401101F5077100252CC101F81F5C01F8200D94F8E80301280AD00120A0
:20CC200084F8E8037006206804F070F884F8E853002070BD022070BD70B50D46044609060F
:20CC400005F07F0003D504EB4011283103E004EB451101F5027101228A700870E809487020
:20CC600094F8E803012807D084F8E823206804F028F8680602D006E0022070BD04F57B71C0
:20CC8000206803F0E7FF002084F8E80370BD70B504460E4601F07F0004EB40113C3100257A
:20CCA0002CC1012201F81F2C01F8200D94F8E803012809D084F8E8237006206804F026F8EA
:20CCC00084F8E853002070BD022070BD10B50446006804F0FDF8000402D5204601F062FF0E
:20CCE000206804F0F5F840050CD5206830F8441F21F480610180204600F0ECF8002120465A
:20CD000000F0FDF8206804F0E3F8400405D5206830F8441F21F480410180206804F0D8F803
:20CD2000800405D5206830F8441F21F400510180206804F0CDF8C00413D5206830F8401F9F
:20CD400021F00401018021684FF43D40A1F84000204600F0CCF8206830F8441F21F4805107
:20CD60000180206804F0B4F800051AD5206830F8441F21F400610180206830F8401F41F0CC
:20CD800008010180206830F8401F41F004010180206804F09DF8C043C00402D5204600F03E
:20CDA000E3F8206804F094F8800508D5206830F8441F21F400710180204600F09CF82068A2
:20CDC00004F086F8C00505D5206830F8441F21F48071018010BD00002DE9F04186B004005A
:20CDE0004FF0000504D094F8E903002620B108E0012006B0BDE8F08184F8E863204600F0BA
:20CE00004BF8032084F8E903206803F01CFF04F11001142288466846FBF794FB94E80F00EA
:20CE200003F070FE0021206804F065F85FF0010704EB451080F8297000F8285F8581C67030
:20CE4000066146616D1C86610F2DF1D35FF0000004EB401181F8096281F80802888681F8D7
:20CE60000B62C1F81862C1F81C62401CC1F820620F28EDD3142241466846FBF763FB94E816
:20CE80000F0003F0D7FE84F8246084F8E973206803F0CEFE0020ACE708B500680B498842A6
:20CEA00012D10B48C16941F40001C161C069002200F40000009011461420FFF7C9FDBDE8FF
:20CEC00008401420FFF7B9BD08BD0000005C00400010024010B504460121D0F81C0403F0AB
:20CEE000FDFAD4F81C04BDE8104003F0C6BAD0F81C0403F0E1BAD0F81C0403F0E3BA10B534
:20CF0000044690F8E80301280BD0012084F8E80384F82410206803F0F0FF002084F8E80327
:20CF200010BD022010BDD0F81C2400F57B71104603F0E7BA10B5044690F8E803012810D0D7
:20CF4000012084F8E80301462046FFF7DFFD206803F06CFE206803F0AEFF002084F8E80336
:20CF600010BD022010BD000010B50446D0F81C0403F014FBA069002804D00348016841F012
:20CF80000601016010BD000010ED00E030B51C490A68036822F0E0021A430A6019490A68C9
:20CFA00022F480320A600C1F226822F480322260144A0832136823F4803313600B1D1D6843
:20CFC00025F480351D604568ED0303D5256845F4803525604468A40303D50C6844F4803406
:20CFE0000C600179C90703D0196841F4803119600079800703D5106840F48030106030BD37
:20D0000000700040040401400120102191FAA1F1024AB1FA81F142F82100704700000E42DD
:20D0200070B504F057F804F0BFFE4FF496750E4C0FE0FF2002F08EFD01212846FBF75EFCC8
:20D04000C82004F04AFBAA2002F084FDC82004F044FB61684907ECD40448807902F030F81F
:20D06000BDE8704004F014BF007000408800002010B5054C2068C00304D5FFF7D1FF4FF4F9
:20D080008030206010BD00001404014010B533A401461DCC86B08DE81D0034A0344C0068EA
:20D0A00004900020012931D0022948D010292BD161682268D20127D54FF4701292FAA2F212
:20D0C00001F47010B2FA82F2D040C9031DF8000010D561684FF4003292FAA2F201F4003161
:20D0E000B2FA82F2D14004AA515C224AB2FBF1F1484301E0204948436168490204D440001D
:20D100005FF00301B0FBF1F006B010BD226AC2F30121012903D1920701D5C803F4E702290C
:20D1200005D1626A920702D549F64040ECE70329EAD121688903E7D54FF22440E4E700F033
:20D140007DF961684FF4804292FAA2F201F44041B2FA82F2D140491C4900D3E7020304054E
:20D16000060708090A0B0C0D0E0F1010010200000010024000127A0000093D002DE9F843AE
:20D1800005460078454CC00774D0E06940F08050E061E069424E00F080500090306840F4B1
:20D1A00080703060FFF7C4FB074604E0FFF7C0FBC01B642833D83068C005F7D5206A10F42F
:20D1C000407051D0A98801F4407181424CD0206A0126310491FAA1F2B2FA82F29300314A96
:20D1E00020F440701344C3F8006491FAA1F1B1FA81F102EB81010023C1F800342062C007F3
:20D2000032D0FFF795FB074641F288394FF0020808E000BFFFF78CFBC11B494502D9032070
:20D22000BDE8F88398FAA8F1B1FA81F141F040014046B6EB511F01D121680BE090FAA0F11C
:20D24000B1FA81F141F04001B0EB511F01D1216A00E0616A98FAA8F0B0FA80F000F01F02D7
:20D2600006FA02F00142D5D0206A696820F44070084320622878800705D56068A96820F4FA
:20D280004040084360602878C00605D56068E96820F48000084360600020C1E700100240F1
:20D2A00000700040000042422DE9F047DFF8708105460E46D8F8000000F00700B0420CD2EF
:20D2C000D8F8001021F007013143C8F80010D8F8000000F00700B04277D12878514C80074C
:20D2E00005D56068A96820F0F000084360602878C00759D06968012001290DD0022929D0C3
:20D300005FF0020393FAA3F2B2FA82F242F02002520904D0226803E04FF40033F2E7626A6C
:20D3200093FAA3F3B3FA83F303F01F03984002424BD0606820F0030008436060FFF7F8FA8D
:20D340006968074641F2883001290DD00229814617D025E04FF00073D4E700BFFFF7E8FADB
:20D36000C11B494501D918E081466068C0F381000128F3D118E000BFFFF7DAFAC11B4945D6
:20D380000BD86068C0F381000228F5D10CE000BFFFF7CEFAC11B494502D90320BDE8F087D1
:20D3A000606810F00C0FF3D1D8F80010404601F00701B1420BD9016821F007013143016039
:20D3C000006800F00700B04201D00120E6E72878400705D56068E96820F4E0600843606004
:20D3E0002878000706D56068296920F4605040EAC100606000F03AF86168F02292FAA2F2C5
:20D4000001F0F001B2FA82F2D140074A515CC840064908600020FFF7ABFA0020BEE70000BC
:20D4200000200240001002401C35010884000020014800687047000084000020084809498C
:20D44000006849684FF4605292FAA2F201F46051B2FA82F2D140044A515CC840704700000D
:20D4600084000020001002402C35010810B519A385B00FCB8DE80F001AA01B4B006804901C
:20D480005A681A4802F00C0104291DD008291BD14FF4701494FAA4F402F47011B4FA84F4A8
:20D4A000E140D2031DF8011010D55A684FF4003393FAA3F302F40032B3FA83F3DA4004ABFC
:20D4C0009A5CB0FBF2F0484305B010BD08484843FAE7000002030405060708090A0B0C0DA6
:20D4E0000E0F1010010200000010024000127A0000093D002DE9F84F04460078F74DC0079E
:20D500004FF0010625D068687704C0F38100012807D06868C0F3810002281BD16868C003A4
:20D5200018D597FAA7F0B0FA80F040F02000400901D0286800E0686A97FAA7F1B1FA81F1CA
:20D5400001F01F0106FA01F108425ED0606800287CD05AE06068B0F5803F0BD010B1B0F56D
:20D56000A02F11D0286820F480302860286820F4802002E0286840F480302860606828B35A
:20D58000FFF7D6F980460BE0286840F480202860F0E700BFFFF7CCF9A0EB0800642871D870
:20D5A00097FAA7F0B0FA80F040F02000400901D0286800E0686A97FAA7F1B1FA81F101F046
:20D5C0001F0106FA01F10842E4D01EE0FFF7B0F9804605E0FFF7ACF9A0EB08006428DED883
:20D5E00097FAA7F0B0FA80F040F02000400901D0286800E0686A97FAA7F1B1FA81F101F006
:20D600001F0106FA01F10842E4D12078DFF8D08280074FF000094FF002075BD568684FF0E2
:20D62000F80B10F00C0F07D06868C0F3810002281CD16868C00319D497FAA7F0B0FA80F018
:20D6400040F02000400902D0286801E08BE0686A97FAA7F1B1FA81F101F01F0106FA01F168
:20D6600008422CD0206901287DD128E0206990B396FAA6F0B0FA80F048F82060FFF758F949
:20D68000824607E011E100BFFFF752F9A0EB0A00022884D897FAA7F0B0FA80F040F020003C
:20D6A000400901D0286800E0686A97FAA7F1B1FA81F101F01F0106FA01F10842E4D0286837
:20D6C0009BFAABF26169B2FA82F220F0F80091400843286025E0FFE796FAA6F1B1FA81F153
:20D6E00048F82190FFF724F9824605E0FFF720F9A0EB0A000228CCD897FAA7F0B0FA80F0C5
:20D7000040F02000400901D0286800E0686A97FAA7F1B1FA81F101F01F0106FA01F10842CA
:20D72000E4D1207800076ED5A069B8B396FAA6F0B0FA80F008EB8000C0F88064FFF7F8F8A9
:20D74000824605E0FFF7F4F8A0EB0A000228A0D897FAA7F0B0FA80F040F06000B6EB501F21
:20D7600002D128680CE062E197FAA7F0B0FA80F040F06000B7EB501F01D1286A00E0686A1E
:20D7800097FAA7F1B1FA81F101F01F0106FA01F21042D7D00120FEF761FE34E0FFE796FA47
:20D7A000A6F1B1FA81F108EB8101C1F88094FFF7BFF8824606E000BFFFF7BAF8A0EB0A001C
:20D7C000022872D897FAA7F0B0FA80F040F06000B6EB501F01D128680BE097FAA7F0B0FAD4
:20D7E00080F040F06000B7EB501F01D1286A00E0686A97FAA7F1B1FA81F101F01F0106FAAB
:20D8000001F21042D8D12078400765D5E86940F08050E861E869DFF8CCB000F08050009073
:20D82000DBF8001041F48071CBF80010FFF780F8824605E0FFF77CF8A0EB0A00642834D85A
:20D84000DBF80000C005F5D5E06801280AD008B1052813D0286A20F001002862286A20F083
:20D86000040002E0286A40F001002862E06841F2883B90B3FFF75CF882460BE0286A40F035
:20D8800004002862EEE700BFFFF752F8A0EB0A0159450AD897FAA7F0B0FA80F040F040005E
:20D8A000B6EB501F02D128680CE0A3E097FAA7F0B0FA80F040F04000B7EB501F01D1286A5F
:20D8C00000E0686A97FAA7F1B1FA81F101F01F0206FA02F10842D7D031E005E00010024012
:20D8E0000000424200700040FFF722F8824605E0FFF71EF8A0EB0A0159457BD897FAA7F07C
:20D90000B0FA80F040F04000B6EB501F01D128680BE097FAA7F0B0FA80F040F04000B7EBCC
:20D92000501F01D1286A00E0686A97FAA7F1B1FA81F101F01F0206FA02F10842D8D1E069DB
:20D9400080B36968C1F38101022970D04FF080714F000228484609D091FAA1F1B1FA81F1D8
:20D9600048F82100FEF7E4FF044669E08A4691FAA1F1B1FA81F1C14648F82100FEF7D8FF9D
:20D98000804605E0FEF7D4FFA0EB0800022854D897FAA7F0B0FA80F040F02000400902D07E
:20D9A000286801E061E0686A97FAA7F1B1FA81F101F01F0106FA01F10842E3D1206AB0F56D
:20D9C000803F05D16868A16820F4003008436860D4E908010843696821F4741108436860F3
:20D9E0009AFAAAF0B0FA80F049F82060FEF7A0FF044606E021E000BFFEF79AFF001B0228C7
:20DA00001BD897FAA7F0B0FA80F040F02000400901D0286800E0686A97FAA7F1B1FA81F1DF
:20DA200001F01F0106FA01F10842E5D01DE01EE0FEF77EFF001B022802D90320BDE8F88F08
:20DA400097FAA7F0B0FA80F040F02000400901D0286800E0686A97FAA7F1B1FA81F101F0A1
:20DA60001F0106FA01F10842E2D10020E6E70120E4E7000010B5040003D094F8510010B184
:20DA800004E0012010BD204600F038F8022084F851002068016821F040010160D4E90101DC
:20DAA0000843D4E903121143084361690843218B01F400710843E1690843216A0843A16AC2
:20DAC000084321680860A069042101EA1040616A0843216848602168E06A08612068C1696C
:20DAE00021F40061C1610449002008706065012084F85100002010BD1C0300202DE9F04F75
:20DB0000054600683F49DFF80081032685B088425CD1D8F8181041F48051C8F81810D8F867
:20DB20001800DFF8E8B000F480500490A02000900220019069465C4603965846FEF714FE74
:20DB40004FF000094020CDE900094F4669462046CDF80890FEF708FE2E4C2D484FF0800AA4
:20DB6000C4E90007C4E9027A27616761A7612046E761FEF74BFC08B1FDF714FC6C64656232
:20DB80002348254C14301027C4E90007C4E9029AC4F81090C4F81490C4F818902046C4F8EF
:20DBA0001C90FEF733FC08B1FDF7FCFB2C6465620120CDE9007069465C4603965846FEF7D6
:20DBC000D3FD012210212046FEF7ACFE13492868884214D1D8F81C1041F48041C8F81C10A3
:20DBE000D8F81C00694600F4804004904FF4204000900220019003960948FEF7B5FD05B016
:20DC0000BDE8F08F0030014000100240000801401C00024030120020681200200038004002
:20DC2000000C01402DE9F84F00259A460446ADF8005090F8510001287ED1E9B3E2B394F8E8
:20DC40005000012878D0012684F85060222084F851006565A163A287E287A564E564256367
:20DC6000A586E586A0684FF40049484504D12068036823F480430360A06A4FF40057B8424A
:20DC800009D12068036823F4005303602068036843F40053036060684FF48278404501D1AE
:20DCA000A06878B120680168490603D4016841F040010160E06800E001E0E8B131E001200C
:20DCC000BDE8F88F84F8505013460A462046CDF800A000F040F9F3E7534600220121204642
:20DCE00001F04EFC48BB2068C168A06B421CA2630170E08F401EE087E08F0128ECD813E0D3
:20DD0000534600220121204601F03AFCA8B92068C068A16B0880A06B801CA063E08F401E7D
:20DD2000E087E08F0128EBD8A06AB84207D12068016841F4805101E068E007E00160534644
:20DD400000220121204601F01BFC08B10320B7E7E0680028206817D0C068A16B0880A06BF1
:20DD6000801CA063E08F401EE087A06AB84217D1534600220121204601F002FC50B1606DE4
:20DD800040F002006065E1E7C168A06B421CA2630170E7E72068C068ADF80000BDF80000E4
:20DDA000606840450AD1A068484502D0B0F5806F04D12068016821F04001016084F851609A
:20DDC000A06AB8420DD120688068C043C00608D4204601F0D3FB012807D021686FF010002F
:20DDE000886084F8505000206AE7606D40F0020060652068016821F4005101602068016841
:20DE000041F40051016084F8505058E7022057E72DE9F843044690F851009846012870D1A4
:20DE200039B332B394F8500001286AD0012684F85060122084F85100002565652163A286E5
:20DE4000E286E564A564A563A587E587A06A7703B84209D12068016821F4005101602068D0
:20DE6000016841F400510160A068B0F5004F03D007E00120BDE8F8832068016841F4804174
:20DE8000016020680168490603D4016841F040010160E0680028606804D0D8B1E08E0128A2
:20DEA00018D021E010B1E08E012808D1206B411C216321680078C860E08E401EE08600047D
:20DEC000000C1FD0434600220221204601F058FBA8B9EBE7206B21680088C860206B801CB1
:20DEE0002063E08E401EE0860004000C0AD0434600220221204601F043FB0028EAD003201B
:20DF0000B8E726E0A06AB84204D12068016841F480510160434600220221204601F030FBDB
:20DF200030B9434601228021204601F029FB20B1606D40F010006065E1E7A06818B9206864
:20DF4000C1688068009084F8516084F85050002090E702208EE72DE9F8430025DDF82080BE
:20DF60000446ADF8005090F85100012803D094F8510022287DD169B162B15BB194F8500003
:20DF8000012876D0012684F8506094F85100012803D005E00120BDE8F883322084F85100A1
:20DFA0006565A263A387E3872163A386E386A564E564A06A4FF40057B84209D1206801682D
:20DFC00021F4005101602068016841F40051016020680168490603D4016841F0400101604F
:20DFE000E0684FF48271B0F5006F606807D0002867D088426ED1E08E012862D06AE020B1A4
:20E0000088420CD1E08E012809D1206B21680088C860206B801C2063E08E401EE086E08EDA
:20E0200080B9A06AB84244D12068016841F4805101603EE02068C068A16B0880A06B801C2D
:20E04000A0639EE0434600220221204601F098FA002874D1206B21680088C860206B801C30
:20E060002063E08E401E0004000CE08609D1A06A00E0C7E0B84204D12068016841F48051AA
:20E080000160434600220121204601F079FA00286FD12068C068A16B0880A06B801CA06332
:20E0A000E08F401EE087E08E0028CBD1606800286AD1434600220121204601F061FAF0BBA5
:20E0C000B8E7206B411C216321680078C860E08E401EE086E08E98B9A06AB84204D12068BA
:20E0E000016841F480510160434600220121204601F046FA18BB2068C068A16B087040E0C5
:20E10000434600220221204601F03AFAB8B9206B411C216321680078C860E08E401E0004D0
:20E12000000CE08607D1A06AB84204D12068016841F48051016000224346012100E018E0BF
:20E14000204601F01DFAA0B92068C168A06B421CA2630170E08F401EE087E08E0028CFD1FE
:20E16000606888B9434600220121204601F008FA08B103200FE72068C168A06B421CA2637F
:20E180000170E08F401EE087A06AB84210D1434600220121204601F0F3F918B1606D40F01F
:20E1A00002000FE02068C068ADF80000BDF80000434601228021204601F0E2F920B1606D47
:20E1C00040F010006065D4E784F85160A06AB84214D120688168C943C9060FD4616D41F03B
:20E1E00002016165016821F4005101602068016841F40051016084F85050CBE684F8505065
:20E200000020C8E60220C6E6704710B5401EB0F1807F01D3012010BD4FF0E02460610F21F2
:20E22000601700F0AFFC0020A06107202061002010BD10B5FFF7E8FF10BD7047704730B554
:20E2400090F83820012A20D0012280F83820022380F8393003685C6824F070045C600368EC
:20E260005C680D682C435C6003689C6824F080049C6003689C6849680C439C6080F83920FB
:20E28000002180F83810084630BD022030BD10B5040003D094F8390010B107E0012010BD5C
:20E2A000002084F83800204600F00CF8022084F83900211D206801F047FD012084F8390088
:20E2C000002010BD00B51E4A01681E4885B0914222D1C16941F00201C161C069694600F022
:20E2E000020004904FF4707000900020019002901548FEF739FA002211461D20FEF7A8FBBF
:20E300001D20FEF79AFB11484168114A21F0A0611143416005B000BDB1F1804FFAD1C169FA
:20E3200041F00101C161C069002200F00100049011461C20FEF78CFB1C20FEF77EFBE9E72F
:20E3400000040040001002400010014000000140000C00020168CA6842F00102CA60006825
:20E36000016841F001010160002070470168CA6822F00102CA600068016A41F21112114273
:20E3800007D1016A9210114203D1016821F0010101600020704700002DE9F05F04465B4D66
:20E3A000207EDFF86CB14FF0000A05F1080705F11008A5F10C06A5F10809012820D1F0789E
:20E3C00010B399F80310884217D12068406BF880EA88801A80B2A8F806004E4A5143B1FBBD
:20E3E000F0F0CBF80C00281F80F803A00021204600F092F82046FFF7B9FFF078401CF070D3
:20E40000207E022804D025E02068406BE880F4E7B17819B399F80200814218D12168896B34
:20E42000B980AA88891A89B2A8F80410394A5043B0FBF1F0CBF808003448001F80F802A0BD
:20E440000421204600F068F82046FFF78FFFB078401CB070207E042804D025E02068806B3D
:20E46000A880F4E77178E9B399F80100814218D12168C96B79806A88891A89B2A8F802109E
:20E48000244A5043B0FBF1F0CBF804001F48001F80F801A00821204600F03EF82046FFF778
:20E4A00065FF7078401C7070207E082823D1317839B399F8000081421AD12168096C398087
:20E4C0002A88891A89B2A8F80010124A5043B0FBF1F0CBF800000D48001F80F800A00C2105
:20E4E000204600E009E000F017F82046FFF73EFF3078401C3070BDE8F09F2068C06B6880E2
:20E50000CFE72068006C2880F2E70000A0000020C0110020001BB70010B50268044631B1F2
:20E52000042908D008291ED00C2908D11FE0D06820F0020002E0D06820F00400D0600022E0
:20E54000206801F033FC2068016A41F21112114207D1016A9210114203D1016821F00101EF
:20E560000160002010BDD06820F00800E6E7D06820F01000E2E770B50446006801694FF08F
:20E580000005C943890715D4C168C943890711D4E91E0161012020762068806980072046C9
:20E5A00002D0FFF7F9FE04E000F098F8204600F096F8257620680169C943490717D4C16857
:20E5C000C943490713D46FF004010161022020762068806910F4407F204602D0FFF7DCFE3E
:20E5E00004E000F07BF8204600F079F8257620680169C943090716D4C168C943090712D44F
:20E600006FF008010161042020762068C0698007204602D0FFF7C0FE04E000F05FF82046C1
:20E6200000F05DF8257620680169C943C90617D4C168C943C90613D46FF01001016108205D
:20E6400020762068C06910F4407F204602D0FFF7A3FE04E000F042F8204600F040F82576AA
:20E6600020680169C943C90708D1C168C943C90704D1891E0161204600F032F8206801699E
:20E68000C943090609D4C168C943090605D46FF0800101612046FFF7D0FD20680169C943FC
:20E6A000490609D4C168C943490605D46FF040010161204600F032F820680169C9438906C2
:20E6C0000BD4C168C943890607D46FF0200101612046BDE87040FFF7B1BD70BD7047704720
:20E6E0000B4A0168914209D10A4A0021116051609160D160084A11709170D1700068B0F1D8
:20E70000804F04D1044814388168491C8160704700040040C01100209C000020704700002F
:20E7200018B5044609486A460321006804F012FA9DF8000020702E2060709DF80110A1703B
:20E74000E0709DF80200207118BD0000FC7F0008FEE7000070B500F075FE224C0025E8B24F
:20E7600000F0AEFC6D1C2070102DF8DB10F0FF0F06D100F0CDFD207010B902F059FE207005
:20E78000FCF7DCFC00224FF400411748FEF7CAF82178164C4FF0000011B1FCF70BFD0120DA
:20E7A000207003F075FB12481249008800EB400001EB801090F8BC00552802D10720FEF7D2
:20E7C0003CF94FF0FF300C4B0C4A0146FCF7DAFB0B490968814203D0BDE8704003F0BEBCBD
:20E7E00070BD0000AC100020001001408B0000208E000020AC040020007B0100008400088E
:20E8000000FF01083EB511480F49016000218160C16041614FF46022C26141600124046113
:20E82000FDF7FCFA08B1FCF7BDFD0A20009001940520029069460548FDF738FA002801D067
:20E84000FCF7B0FD3EBD0000002401404403002008B50D48416941F001014161406900F027
:20E8600001000090002211460C20FEF7F1F80C20FEF7E3F8002211460D20FEF7E9F8BDE867
:20E8800008400D20FEF7D9B8001002402DE9F04F85B07648816941F020018161816901F0EA
:20E8A00020010091816941F010018161816901F010010091816941F004018161816901F03E
:20E8C00004010091816941F008018161806900F008000090DFF898914FF4406600223146A9
:20E8E0004846FEF71FF800224FF407416148FEF719F84FF46077002239465F48FEF712F8C1
:20E900004FF40048CDF80480012402940225049501A95848FDF728FF01960294049501A9D3
:20E920004846FDF721FF780001900294049501A95048FDF719FF01970294049501A94E48A8
:20E94000FDF712FF002238214B48FDF7EBFF00224FF470714846FDF7E5FFDFF820B1002250
:20E9600004215846FDF7DEFF012240214248FDF7D9FF4FF4805A012251464846FDF7D2FFFF
:20E980007820019002940326049601A93A48FDF7EBFE042701970294049601A95846FDF7BD
:20E9A000E3FE4FF49E5001900294049601A94846FDF7DAFE4FF4804BCDF804B0029401A9B9
:20E9C0004846FDF7D1FE002259464846FDF7AAFFCDF804A01120029001A92748FDF7C4FEFF
:20E9E000002251462448FDF79DFF0197029401A94846FDF7B9FE002204214846FDF792FFF7
:20EA0000012241464846FDF78DFFCDF804800294049501A94846FDF7A7FE1020019002949E
:20EA2000049601A91348FDF79FFE019500260296039401A90F48FDF797FE0194029603946D
:20EA400001A90D48FDF790FE202001900296039401A94846FDF788FE01940294049501A915
:20EA60000448FDF781FE05B0BDE8F08F001002400010014000080140000C01400014014070
:20EA800010B50F480D4901604FF48271416000218160C160016141614FF4007282611822D3
:20EAA000C2610162416281620A21C162FEF7E2FF002801D0FCF776FC10BD0000003001408A
:20EAC0007403002010B510480E4901604FF4827141604FF4004181600021C1600161416148
:20EAE0004FF4007282612022C2610162416281620A21C162FEF7BEFF002801D0FCF752FCF6
:20EB000010BD000000380040CC0300201CB50D484FF0804101603F2141600024846040F2FF
:20EB20006541C160FFF7B3FB08B1FCF73BFC0094019469460348FFF782FB002801D0FCF705
:20EB400031FC1CBD6004002010B500220849094801F068FB0849074801F04DFD07490548D6
:20EB600001F0A2F9BDE81040024801F091BD0000E4020020E026002004000020D402002045
:20EB8000FEE770470907090E002806DA00F00F0000F1E02080F8141D704700F1E02080F8F1
:20EBA000001470472DE9FC5F4FF000080446ADF80480ADF8008048F60F7B4FF002094FF4E5
:20EBC000806692E1BDF8041011F00F072BD030F82710ADF80010BDF80010090478D530F8A6
:20EBE000272040F68F710A4020F8272004EB471595F8120205F502750028206869D0297808
:20EC000030F8212052047DD5B0F8503009EBC101194406EB4101415AC1F309015FEA010AC8
:20EC200071D0EA88D0E0BDF80410C9062AD4018801EA0B010180206804F12805B0F8502018
:20EC40002B7809EBC301114406EB4101405AC0F309006064E16B0844E06300212046FDF761
:20EC600056FF94F824000028ABD0A8690028A8D194F82400216840F08000A1F84C0084F8F0
:20EC8000248032E1018804F50275ADF80010BDF8001009051ED5B0F850302978062202EB6B
:20ECA000C101194406EB4101405A04F57B71C0F30903EB61AA88206802F00EF920680188B4
:20ECC00040F68F72114001802046FEF72CF90CE1A0E055E0BDF800100904D2D5028840F6D0
:20ECE0008F710A4002802068B0F850302978062202EBC101194406EB4101405A83059B0DC6
:20ED0000EB6101E051E063E008D0AA886969206802F0E2F8E9696869084468610021204663
