:020000040800F2
:20840000C8400020018500085FD600082DD200085DD600088D8A00083901010800000000C5
:2084200000000000000000000000000091E30008D39900080000000043DA000871E90008C5
:208440001B850008E3D900081B8500081B8500081B8500081B8500081B850008419B000884
:208460001B8500081B8500081B8500081B8500089D990008A99900081B8500081B85000884
:208480001B8500081B8500081B8500081B850008D1FB00081B8500081B8500081B85000870
:2084A0001B8500081B8500081B8500081B8500083DEA000849EA00081B8500081B85000862
:2084C0001B8500081B8500081B8500081B8500081B8500081B8500081B8500081B8500085C
:2084E0001B8500081B8500081B850008DFF80CD000F054F8004800478D120108C840002036
:208500000648804706480047FEE7FEE7FEE7FEE7FEE7FEE7FEE7FEE7FEE7FEE7F1E90008DD
:20852000ED840008202A04DB203A21FA02F00021704721FA02F3D040C2F120029140084349
:208540001946704740EA01039B0703D009E008C9121F08C0042AFAD203E011F8013B00F895
:20856000013B521EF9D27047D2B201E000F8012B491EFBD270470022F6E710B513460A46EC
:2085800004461946FFF7F0FF204610BD421C10F8011B0029FBD1801A70470000064C074DAC
:2085A00006E0E06840F0010394E8070098471034AC42F6D3FFF79EFF84310108B4310108BD
:2085C00070B58C1810F8015B15F0070301D110F8013B2A1106D110F8012B03E010F8016BAC
:2085E00001F8016B5B1EF9D12B0705D40023521E0DD401F8013BFAE710F8013BCB1A921C67
:2086000003E013F8015B01F8015B521EF9D5A142D8D3002070BD40F2D76CC2F2000C6047C6
:2086200040F2751CC2F2000C604740F2A51CC2F2000C604740F2454CC2F2000C604740F25A
:208640000F0CC2F2000C604740F2331CC2F2000C604740F21D5CC2F2000C604740F2FF1C51
:20866000C2F2000C604740F2392CC2F2000C604740F23F3CC2F2000C6047000070B5044612
:2086800000688168C943C9071CD1816821F00101816002F0A9FD05460FE000BF02F0A4FDBF
:2086A000401B022809D9A06A40F01000A062E06A40F00100E062012070BD20688068C04389
:2086C000C007EBD0002070BDF8B500260446009600688168C943C90728D0816841F00101D7
:2086E0008160134813490068B0FBF1F000E0401E00900028FBD102F077FD054611E000BFCB
:2087000002F072FD401B02280BD9A06A40F01000A062E06A40F00100E06284F82460012065
:20872000F8BD20688068C043C007E9D10020F8BD380C002040420F0010B500F093F8302036
:2087400000F0A4F8942000F0A1F8D12000F09EF8202000F09BF80B2000F0B2F8812000F0C0
:2087600095F83F2000F0ACF8032000F0A9F8F02000F08CF8102000F0A3F8CA2000F086F82E
:20878000002000F09DF8872000F09AF8202000F097F8BC2000F07AF8002000F091F8A620AF
:2087A00000F074F8762000F071F8752000F06EF8002000F085F8282000F082F8152000F01F
:2087C00065F8002000F07CF8FF2000F079F8312000F05CF8322000F059F8002000F070F898
:2087E000022000F06DF8012000F06AF8512000F04DF8FB2000F064F8402000F047F8F420DF
:2088000000F044F8002000F05BF8002000F058F8002000F055F8002000F052F8002000F0A2
:208820004FF8002000F04CF8002000F049F8002000F046F8F02000F029F8152000F040F880
:20884000152000F03DF8152000F03AF8152000F037F8302000F01AF8BDE81040AF2000F00D
:2088600015B8000010B5084C0020C4F8AC01322004F5D67407F0D4FD01202060BDE8104096
:20888000322007F0CDBD00000000224231B509490020C1F8A801084CC4F8BC010A230122CA
:2088A0006946064804F5DE7403F095FF0120206038BD00000000224200002142780F0020E5
:2088C00031B509480124C0F8A841084D0020C5F8BC010A2322466946054805F5DE7503F0DB
:2088E0007AFF2C6038BD00000000224200002142780F00200A48008800EB4001094800EBCE
:208900008110C17B807B00EBC00202EB001001EB8000A0F5E060093801D100F02DBE7047FF
:20892000420C0020581000200A48008800EB4001094800EB8110C17B807B00EBC00202EB9D
:20894000001001EB8000A0F5E060093801D100F02FBE7047420C00205810002070477047BB
:208960000B48008800EB40010A4800EB8110C17B807B00EBC00202EB001001EB8000A0F540
:20898000E060093802D10120FFF745BE70470000420C002058100020104810B5008800EB2C
:2089A00040010F4800EB8110827BC17B02EBC20303EB021201EB8201A1F5E061093908D056
:2089C0008720084A00215318491C58700429FADB10BD406900F052FEF3E70000420C0020E5
:2089E00058100020581C002070B5274D04464FF0000649B114E001221146284602F0EEFB82
:208A0000642007F023FD761CA642F4D334E001221146284602F0E2FB642007F017FD761C8E
:208A2000A642F4D300220121284602F0D7FB642007F0F6FC002608E001221146284602F0BC
:208A4000CDFB642007F002FD761CA642F4D300220121284602F0C2FB642007F0E1FC0026B4
:208A600008E001221146284602F0B8FB642007F0EDFC761CA642F4D32846BDE870400022F7
:208A8000012102F0ABBB000000080140FEE7000082B00848416941F040014161406900F055
:208AA00040000190054904480860084602B001F095BF000000100240003002406C0C002042
:208AC00010B507F0B3FF00F02BF8002000F022FB00F0D8F900F09CF9002000F01BFB10204C
:208AE00000F0C0F900F094F90C48417829B1817819B1C17809B1007960B907F067FF0020A4
:208B000000F008FB00F02AFC08F02AF800F008FA00F07EF9BDE8104000F07AB9581C00202D
:208B200070B50E4C04200E4D6070012000F0F2FA00F0A8F9687868B1A87858B1E87848B15E
:208B4000287938B100F064F96078801CC0B260700A28EAD3BDE8704000F05AB9E00E002033
:208B6000581C00202DE9F74F17468846A525009E00F0B6FBA2494FF468100860A14B4FF494
:208B800080221A60DFF8809200249A46E80702D04FF4707001E04FF070709C490861D9F8C9
:208BA00008008047DFF858B23A20CBF800000420CAF80000D9F8080080474FF46810CBF8E4
:208BC00000004FF48020CAF80000D9F808006D088047641CE4B2082CD8D38C494FF47070EE
:208BE0000861894DA8688047854C4FF03A0BC4F800B00420D146CAF80000A86880474FF487
:208C0000681020604FF4802AC9F800A0A8688047C4F800B00420C9F80000A86880474FF4CC
:208C200068102060C9F800A0A8688047C4F800B00420C9F80000A86880474FF468102060A1
:208C4000C9F800A0A8688047C4F800B00420C9F80000A86880474FF468102060C9F800A018
:208C6000A8688047C4F800B00420C9F80000A86880474FF468102060C9F800A0A868804782
:208C8000614C0025CA46F80702D04FF4707001E04FF070705D490861A0688047DFF8609158
:208CA0003A20C9F800000420CAF80000A06880474FF46810C9F800004FF48020CAF80000C3
:208CC000A0687F0880476D1CEDB2102DDBD34D460027D1464FF03A0B5FEAC87002D04FF440
:208CE000707001E04FF0707048490861A0688047C5F800B00420C9F80000A06880474FF467
:208D0000681028604FF4802AC9F800A0A0684FEA580880477F1CFFB2062FDDD3C846002737
:208D20004FF00409F00702D04FF4707001E04FF0707036490861A0688047C5F800B0C8F817
:208D40000090A06880474FF468102860C8F800A0A068760880477F1CFFB2082FE2D30098F4
:208D600080EA101080EA900080EA5000C00702D04FF4707001E04FF0707024490861A0681B
:208D800080473A202E46286004204746C8F80000A06880474FF468153560C7F800A0A068BA
:208DA00080471A494FF470700861A0688047A9463546D346464600274FF03A0A4FF004082A
:208DC000C5F800A0C6F80080A0688047C5F80090C6F800B0A06880477F1CFFB2032FEFD35F
:208DE000C5F800A0C6F80080A0688047C5F80090C6F800B0A0688047BDE8FE4F00F092BA51
:208E0000100C014010140140E00E00200010014070B510494FF4681008600F494FF4802055
:208E200008600E494FF0707008610D4C0025C4F8B8511E2004F5C47407F0E7FA01202060C0
:208E4000142007F0E2FA2560BDE87040192007F0E7BA0000100C014010140140001001404D
:208E60000000224210B50446062007F0D9FA002221461046FFF776FEBDE810400F2007F02B
:208E8000CFBA00002DE9FC414FF4004220210020FFF768FE684600F07BF801A800F078F89A
:208EA00000201E496D4601AB044698272A5C872A02D11A5C012A0AD00A185770401CC0B287
:208EC0000428F3D39DF8000087280BD106E00E1872780AB1012AF1D17470EFE79DF804008F
:208EE000012819D09DF80100872803D19DF80500012811D09DF80200872803D19DF80600EE
:208F0000012809D09DF80300872803D19DF80700012801D0FFF77CFFBDE8FC81581C002077
:208F20002DE9F843002202211046FFF71BFE0024164D6E4693274FF40068684600F028F8D8
:208F40000020315C552903D029184A7802B94F70401C80B20428F4D39DF8000055280FD024
:208F60009DF8010055280BD09DF80200552807D09DF80300552803D0FFF74AFFBDE8F883D1
:208F8000641CA4B24445D8D3F8E70000581C00202DE9F05F044600F0A3F9052007F056FAAD
:208FA000584D286820F07F4040F088402860686820F0FF0040F04400686028042861052038
:208FC00007F044FAAB46504E504DDFF8448100274FF03A094FF0040A207840082070607856
:208FE00040086070A0784008A070E0784008E070C6F80090C5F800A0D8F808008047DBF8DC
:2090000008105846890502D52178803121708168C90502D56178803161708168090602D5A2
:20902000A1788031A1708068400602D5E0788030E0704FF4681030604FF480202860D8F872
:20904000080080477F1CFFB2082FC5D3D8F8080044468047C846C6F800905746C5F800A0A7
:20906000A06880474FF46819C6F800904FF4802AC5F800A0A0688047DBF8001021F07F4142
:2090800041F08851CBF80010DBF8041021F0FF0141F01101CBF804104FF48051CBF81010EA
:2090A0004FF07071CBF81010A0688047C6F800802F60A0688047C6F80090C5F800A0A0688F
:2090C0008047C6F800802F60A0688047C6F80090C5F800A0A0688047C6F800802F60A068DE
:2090E0008047C6F80090C5F800A0A0688047C6F800802F60A068804700F014F90020BDE8D1
:20910000F09F000000100140100C014010140140E00E00202DE9F14F6C4C4FF46810206056
:20912000DFF8ACA14FF480205646CAF80000DFF8A4814FF07077C8F81070642007F086F96E
:20914000654D0020C5F88801322005F5C47507F05CF9012028636148407807F061F93A2569
:2091600025604FF0040BC6F800B00A2007F06EF900243E46B146C8F810600A2007F066F9D7
:209180004FF47077C8F810700A2007F05FF9641CE4B20D2CEED30A2007F058F956460024AA
:2091A0004FEA0B0A494D4FF4681028604FF4802030600A2007F04AF93A202860C6F800A071
:2091C0000A2007F043F9641CE4B20D2CEAD30A2007F03CF95FF00004C8F810900A2007F0FC
:2091E00035F9C8F810700A2007F030F9641CE4B20D2CF1D3009800284FF00A0015D007F0BF
:209200000FF900BF314D4FF4681129604FF48020344630604BF25A17002689468046D34655
:20922000380405D54FF4707004E007F00FF9E9E74FF07070274908610A2007F007F94FF0EA
:209240003A0AC5F800A0C4F800B00A2007F0FEF8C5F80090C4F800804FF6FF7000EA470775
:209260000A2007F0F3F8761CF6B2102ED8D30A2007F0ECF8C1464AF21B5700264FF6FF7823
:20928000380402D54FF4707001E04FF07070114908610A2007F0DAF8C5F800A0C4F800B019
:2092A0000A2007F0D3F84FF468102860C4F8009008EA47070A2007F0C9F8761CF6B2102E99
:2092C000DED3BDE8F84F1E2007F0AAB8100C0140101401400010014000002242E00E0020D5
:2092E00070B50D4C4FF4707020610C4D3A2028600B4E04203060052007F0A8F84FF0707029
:209300002061052007F0A2F84FF4681028604FF48020306070BD000000100140100C014085
:209320001014014010B50A4C4FF07070206109493A200860084904200860052007F086F882
:209340004FF470702061BDE81040052007F07EB800100140100C01401014014070B5552570
:20936000002204212846FFF7FDFB0A2007F06EF80A2007F06BF80A2007F068F80124E602B1
:20938000284600F009F80A2007F060F8641CA4B2B442F5D3002070BD2DE9F14F009EFFF72A
:2093A0009FFF59494FF468100860584B4FF480221A60574CDFF85CA100250F469B464FF037
:2093C0003A09F00702D04FF4707001E04FF07070CAF81000A0688047C7F800900420D8462C
:2093E000CBF80000A06880474FF4681038604FF48020C8F80000A068760880476D1CEDB270
:20940000082DDED3009880EA101080EA900080EA5000C00702D04FF4707001E04FF07070D4
:20942000CAF81000A06880473E46C7F800904FF004085F46CBF80080A06880474FF46810FB
:2094400030604FF4802BC7F800B0A0688047DAF80000554620F07F4040F08840CAF800005A
:20946000DAF8040020F0FF0040F04400CAF804004FF08050CAF81000A0688047C6F80090CF
:20948000C7F80080A06880474FF468103060C7F800B0A0688047286820F07F4040F08850CE
:2094A0002860686820F0FF0040F0110068604FF4805028614FF070702861A0688047C6F86B
:2094C0000090C7F80080A06880474FF468103060C7F800B0A0688047C6F80090C7F80080D8
:2094E000A06880474FF468103060C7F800B0A0688047C6F80090C7F80080A0688047BDE813
:20950000F84FFFF70FBF0000100C014010140140E00E0020001001401CB500201449087059
:209520001FE0FFF77DF81348FFF77FF86846FFF781F8BDF800004AF23C5188420BD0BDF804
:209540000200884207D0BDF80400884203D0BDF80600884200D108E005480078401C044966
:209560000870034800780628DBDB00BF1CBD0000D40E0020735C8A4810B5FFF760F800F08E
:209580004BF8012006F041FF00F0E8F8FFF75CF810BD000008B1034900E00349034A11605B
:2095A000704700000500002001000020DC0E002010B5FFF744F800F02FF8012006F025FF5B
:2095C00000F0CCF81248407840B11148807828B10F48C07810B10E480079B8B907F0F6F934
:2095E00000210C4800F024F8FFF71AF8FFF72CF8FFF725F800F010F8012006F011FFFFF7A0
:2096000028F807F0ADFA0020FFF705F810BD0000581C0020AF5C8A4810B5FFF701F803483C
:20962000FFF703F83220FFF719F810BD915C8A4870B504460D46FEF7F3FF2046FEF7F5FF5C
:209640003220FFF70BF82846FFF70DF80020FFF70FF80020FFF70CF80748844203D00648E9
:209660004038844203D1192006F0CFFE02E00F2006F0CBFE70BD0000AF5C8A482DE9F05F9D
:2096800007464FF00009CA46CB462F48008810B94FF4803506E02C480088401E4FF4801140
:2096A00001EB4045C7F3872800243AE0402C0CD12548008810B94FF4403506E022480088FB
:2096C000401E4FF4881101EB40454FF480621F49284604F035FA002609E01C48805D4844E5
:2096E0001FFA80F91948805D8244701C86B2B6F5806FF2DBD3464FF0000ABBF57F3F09D1FF
:2097000013480078401C12490870D34600201149085502E001200F49085505F58065601C44
:20972000C4B24445C2DB0848008800EB40000A4901EB8010B0F86800484502D08620BDE801
:20974000F09F0020FBE70000420C0020681E0020D90E002048380020581000201CB5FEF76F
:209760005FFF1748FEF761FF6846FEF763FF00240EE03DF814004AF23C51884203D0982158
:209780001048015502E000210E480155601CC4B2042CEEDBBDF800004AF23C5188420DD05C
:2097A000BDF80200884209D0BDF80400884205D0BDF80600884201D0FEF746FF1CBD00008E
:2097C000735C8A48591C002000207047002070470020704770B50024064D07E0165D464052
:2097E000F6B2641C55F8266086EA10209C42F5D3484070BD9822010810B500210A464FF437
:20980000806300BF10F8014B521C21449A42F9D3084610BD2DE9F8432748294F00250178E6
:209820004278DFF8989001EB02218278C078120402EB006001EB00083878A52801D1002068
:2098400038702048FEF7A2FEC1B21E4807F0EAFF04461D481D49008800EB400201EB821161
:2098600009EB4040CA7B897B00F59C0001EBC10303EB011102EB81060422694604F060F954
:209880009DF80000DDF80110B8F1D70F40EA01200FD0B44201D004B10125B44203D10C49D3
:2098A0000968884201D1002D03D0A520387001F05DFDBDE8F8830000F87F0008F87B0100D0
:2098C000F84F0020C0FF0108420C002058100020F8FF0108F0B52B48008800EB40012A4825
:2098E00000EB811090F80EE0B0F85C40B0F85EC0B0F86020B0F86270B0F85430B0F8566040
:20990000B0F85810B0F85A50BEF10A0F18D0E0B20CF0FF0400EB0420D2B200EB0240DAB258
:20992000F3B202EB0322C9B202EB014100EB076001EB0561421C01D0884220D98920F0BDDA
:209940004FEA0C4C00201CEB040440EB000C10EB040E42EB0C023C0410EB0E0754413204AD
:20996000D21840EB000683187141C01841EB05426FEA07012143E1D0C01BA241DED300202F
:20998000F0BD0000420C00205810002010B504F0D1FFBDE8104004F0BBBF0000014801F0FE
:2099A0002FB80000DC1D0020014801F029B80000141E002010B5046863604368102B0368F5
:2099C00003D099600068C26010BD9A600068C16010BD704710B5040016D04FF49E2000EBC2
:2099E0000431002000F0D6F84FF4602000EB4441012000F0CFF84FF4702000EB4441BDE861
:209A00001040012000F0C6B80021012000F0C2F84FF48031012000F0BDF84FF44031EEE738
:209A2000F0B5074635A00E4691B007C801AB83E8070035A004AB07C883E8070035A207AB8F
:209A400007CA83E8070036A00AAB07C883E8070036A20DAB07CA83E80700002006F08DFC85
:209A60000C244EB1300909282ED2DFE800F02D2022242D2D262D2800012F06D0022F06D021
:209A8000032F06D0062F07D105E001AD04E004AD02E00AAD00E007AD10232A460521184635
:209AA000009406F039FD1023234A00941CE001AD0AE004AD08E00AAD06E007AD04E006F05A
:209AC0000F00082800D10DAD10232A4605211846009406F021FD194A0221304607F0EAFE12
:209AE000164A1023083A00940521702006F014FD4FF4FA7006F089FC11B0F0BD20564444AC
:209B000020434845434B20202056505720434845434B202020464C4153482054455354209E
:209B2000434F4E4E4543542054455354205245414420434F554E5420950C0020BD0D00200B
:209B4000022001F061BA000000B585B00E48816941F004018161806900F004000090022006
:209B600001900A4802900120039001A9084801F057FA02221146072001F0C6FB072001F014
:209B8000ADFB05B000BD00000010024000002110000801402DE9F0410C46074606F078FB90
:209BA00006F0C0FBDFF85C8000221021404601F015FB154D27B1012F04D0022F04D11FE024
:209BC000202000E0D82028704FF47A76334601220D490E4802F0FFFD022F0AD0200C28709D
:209BE000200A6870AC70334603220749074802F0F2FD4046BDE8F0410122102101F0EEBAE0
:209C0000C720E0E7000801400C0E0020200F0020FEE7000006490020C8610648016941F05E
:209C200004010161016941F0400101617047000028380020002002402DE9F047DFF89C80A6
:209C4000D8F820104CF250390143CFB2C1F30726C1F307450C0E484600F01EF900283BD1B4
:209C60001F49C86101F0B6F8002835D1D8F8102042F01002C8F81020FF2F07D01948018863
:209C800039430180484600F007F9F8B9FF2E08D01448801C018831430180484600F0FCF8AB
:209CA000A0B9FF2D08D00F48001D018829430180484600F0F1F848B9FF2C07D00948801D05
:209CC000018821430180484600F0E6F8D8F8102022F01002C8F81020BDE8F0870020024028
:209CE0002838002008F8FF1F2DE9F047DFF89C80D8F820104CF250398143CFB2C1F3072699
:209D0000C1F307450C0E484600F0C6F800283BD11F49C86101F05EF8002835D1D8F81020B3
:209D200042F01002C8F81020FF2F07D01948018839400180484600F0AFF8F8B9FF2E08D02B
:209D40001448801C018831400180484600F0A4F8A0B9FF2D08D00F48001D01882940018032
:209D6000484600F099F848B9FF2C07D00948801D018821400180484600F08EF8D8F8102074
:209D800022F01002C8F81020BDE8F087002002402838002008F8FF1F0449A520C96901F05E
:209DA0000201022900D10020704700000020024070B506464CF25035284600F06DF800284C
:209DC00020D11149C861114C206940F020002061206940F040002061284600F05DF82169A1
:209DE00021F02001216100280CD1206940F01000206107480680284600F04EF8216921F04C
:209E00001001216170BD0000283800200020024000F8FF1F064A0021D16106490A6942F0F3
:209E200002020A614861086940F04000086170472838002000200240044B0022DA61044A2D
:209E4000136943F0010313610180704728380020002002400E49C868C2060E4803D5C26919
:209E600042F00202C261CA68520703D5C26942F00102C261CA69D20707D0C26942F004025D
:209E8000C261C86920F00100C8611420C8607047002002402838002070B5054601F0A4F941
:209EA0000646114C09E0681C07D025B101F09CF9801BA84201D9032070BDE068C007F2D1D8
:209EC000E068800601D52020E060E068C00605D4E069C00702D1E068400703D5FFF7BAFF7E
:209EE000012070BD002070BD002002403EB5174B044600250A21186803E0B0FBF1F06D1CFE
:209F0000EDB20028F9D16A462946186807F0BAFC9DF8000020702E2060709DF80110A1706A
:209F2000E0709DF8020020719DF8030060712020A071002069462D1F05E00A182318127907
:209F4000401CDA71C0B2A842F7DB3EBDF8FF010810B504F085FCFF2004F0AEFC0A2006F01A
:209F60005FFAF02004F0A8FC0A2006F059FABDE81040FF2004F0A0BC2DE9F05F0026344604
:209F8000E1B2002007F0A2F821040120FFF702FE641CA4B2072CF3D36A4D00244FF480577D
:209FA0004FF4402B04F10C00C1B2002007F08EF80BEB044080463A46624903F0C1FD0020E6
:209FC000295CFF2904D1401C80B2B842F8D326B141460120FFF7DEFD0026641CA4B2622CD2
:209FE000E0D34FF000084FF4807904E0B8F1000F01D0552600E0AA2608F1010A0AF0FF0096
:20A00000002107F063F84F4D00202E54401C80B2FF28FAD900273C464A464A49384606F0C7
:20A0200061F9641CA4B207F58037072CF4D300273C464A464349384603F082FD002007F572
:20A040008037295CB14256D1401C80B2FF28F8D9641CA4B2072CECD3002421040020FFF7FD
:20A0600099FD641CA4B2072CF7D3B8F1000F01D0552400E0AA240AF0FF00002107F026F898
:20A0800000202C54401C80B2FF28FAD95F460026C84642462B49384606F024F9761CB6B238
:20A0A00007F58037622EF4D35E46002742462549304603F045FD002006F58036295CA142F1
:20A0C00019D1401C80B2FF28F8D97F1CBFB2622FECD34FF44827002642461A49384606F07D
:20A0E00001F942461749384603F02AFD002029460A5CA24202D06020BDE8F09F401C80B2F9
:20A10000FF28F5D9761CB6B207F58037622EE3D300245D464FF4482605EB04410020FFF794
:20A1200039FD06EB04410020FFF734FD641CA4B2622CF1D31FFA8AF8B8F1020FFFF456AFF7
:20A140000020D9E7681E00202DE9F0470D4681460026FF224FF480511048FEF705FA4FF428
:20A160008067DFF8388014E0BD4201D2ACB200E03C4622460949484603F0E2FC0020414623
:20A1800003E00A5C401C164480B2A042F9D3A1442D1B002DE8D13046BDE8F087681E002095
:20A1A0002DE9F05F0C4607460025FF224FF480512F48FEF7D9F94FF4803290112C49944222
:20A1C0004ED9924680468946444501D2A6B200E0464632462649384603F0B2FC0020494616
:20A1E00003E00A5C401C154480B2B042F9D3A41B37445445E8D8DFF87CA04FF4403B74B306
:20A200004646B44200D2A6B2BAF800001849324628B1384603F094FC0020494605E05846FB
:20A22000F8E70A5C401C154480B2B042F9D33744A41BE4E74E46B44200D2A6B232460C49AE
:20A24000384603F07DFC0020414603E00A5C401C154480B2B042F9D33744A41B02E003E080
:20A2600081468846002CE5D12846BDE8F09F0000681E0020420C00207FB50446102269494F
:20A280006846FEF75FF9E5202070422060707A20A07003F079FE644E307803F0B3FC03F0F9
:20A2A000D9FD6249002023180A5C401CC0B2DA701028F8D35E480188090AE174007820759D
:20A2C0005C480168090E61750168090CA1750188090AE1750078207657490020421823189B
:20A2E000401C92F8E827C0B25A760C28F6D3534D00203188221801EB410105EB8111095C62
:20A30000401CC0B282F825100E28F2D33088102200EB400005EB801111F80E0F84F833005A
:20A32000487884F8340031F8360F000A84F8350011F8220B84F836000888000A84F837004F
:20A3400011F8040B84F838000888000A84F8390011F8040B84F83A000888000A84F83B00C3
:20A3600011F85E0984F83C0011F8140B84F83D0004F14000FEF7E6F8308800EB400005EBF9
:20A38000801090F8461084F8501090F8641084F85110806CC4F852000020318801EB410199
:20A3A00005EB811101EB4001B1F84C2004EB400121F8562F328802EB420205EB821202EBAF
:20A3C0004002B2F854200A81328802EB420205EB821202EB4002401CB2F85C20C0B20A8274
:20A3E0000428DAD31649308801EB001100EB4000096805EB801044F86E1F818BA180C18B12
:20A40000E180018C2181418C618190F8BC10A17390F8BD10E17390F8BE10217490F8BF00BA
:20A4200060747FBDC0FF0108420C0020E0FF0108FC7F0008F8FF010800F0FF1F58100020D5
:20A440006C1C0020F8B500250446009590F82400012808D0012084F824002046FEF70EF9D3
:20A46000060002D04BE00220F8BDA06A20F4885040F00200A062022001F064FA224909688B
:20A48000B1FBF0F0400000E0401E00900028FBD12046FEF719F92068816841F00801816035
:20A4A00000F0A2FE074604E000F09EFEC01B0A2811D8206880680007F6D42068816841F076
:20A4C0000401816000F090FE07460EE000F08CFEC01B0A2809D9A06A20F0020040F0100018
:20A4E000A06284F824500120F8BD206880684007ECD4A06A20F0020040F00100A06284F852
:20A5000024503046F8BD0000380C0020F8B50025009590F82420AE46012A1ED0012280F85D
:20A5200024204A681F244FF47873072A17D20668776B93FAA3FCBCFA8CFC521E02FB0CFC6B
:20A5400004FA0CF4A74393FAA3F3B3FA83F30C685A439440274377632DE00220F8BD066852
:20A560000D2A14D2376B93FAA3FCBCFA8CFCD21F02FB0CFC04FA0CF4A74393FAA3F3B3FA04
:20A5800083F30C685A4394402743376313E0F76A93FAA3FCBCFA8CFC0D3A02FB0CFC04FA54
:20A5A0000CF4A74393FAA3F3B3FA83F30C685A4394402743F7620A683823072406680A2A29
:20A5C00014D3F76893FAA3FCBCFA8CFC0A3A02FB0CFC04FA0CF4A74393FAA3F3B3FA83F354
:20A5E0008C685A4394402743F76012E0376993FAA3FCBCFA8CFC02FB0CFC04FA0CF4A7434C
:20A6000093FAA3F3B3FA83F38C685A439440274337610A68102A01D0112A20D1124B02681D
:20A620009A4217D193681B0219D4936843F4000393600968102912D10C490D4A0968B1FBD3
:20A64000F2F101EB8101490000E0491E00910029FBD104E0816A41F020018162012580F8F1
:20A6600024E02846F8BD000000240140380C002040420F000068C06C704700002DE9F041C7
:20A6800004004FF0000514D0A06A002628B9E66284F82460204600F08BF82046FDF7EEFF15
:20A6A000A16A01F01001014304D0A06A40F01000A06277E0A16A21F4885141F00201A162A2
:20A6C0006268E16902270A43E16897FAA7F70B46B7FA87F7B9400A43A1684FF48077B94274
:20A6E00008D0012906D00021D4F814C0BCF1010F02D00AE03946F7E7F3B1A36A43F02003E4
:20A70000A362E36A43F00103E3622368D3F804C02CF4694C4CEA010CC3F804C021688B683E
:20A72000DFF884C003EA0C0313438B60A168B94210D001290ED016E04FF4604CA3699CFA4E
:20A74000ACFCBCFA8CFC5B1E03FA0CF30B4343F40061DAE74FF47001256991FAA1F1B1FAED
:20A7600081F16D1E8D402168CB6A23F470032B43CB62216889680D4B1940914208D1E6620D
:20A78000A16A21F0020141F00101A162BDE8F081A06A20F0020040F01000A062E06A40F076
:20A7A0000100E0620120F1E7FDF7E1FFFE0E1FFF00B500680A4985B088420FD109488169D5
:20A7C00041F4007181618069694600F400700490032000900190044800F022FC05B000BD51
:20A7E0000024014000100240001001402DE9F84300260D460446009600F0F6FC8046206877
:20A800008168C90508D5A06A40F02000A06284F824600120BDE8F8834168C90503D4C06A8F
:20A8200010F4700F26D0022001F08CF838490968B1FBF0F72068036936490B424FEA610128
:20A840004FEAA1121BD1C3684FEA611C13EA0C0F15D103690B4221D1C06810421ED11420F9
:20A860001FE0681C06D045B300F0BEFCA0EB0800A84222D8206800688007F2D52AE00369B2
:20A880000B4202D1C168114206D0026922490A4206D1C068084203D1542002E0292000E088
:20A8A000FC204743009813E0681C0ED02DB100F09BFCA0EB0800A84207D9A06A40F0040005
:20A8C000A06284F824600320A4E70098401C0090B842E9D321686FF012000860A06A40F4EE
:20A8E0000070A06220688068C0F3424007280CD1E06850B9A06A20F48070A062A06AC00406
:20A9000003D4A06A40F00100A062002082E70000380C0020244992244992240070B50446A5
:20A9200090F8240001280DD0012084F824002046FDF7CAFE02004FF0000005D084F82400CC
:20A94000104670BD022070BDA16A40F20123994341F48071A1621F4D23681F49AB4218D18A
:20A960000E6816F4702F14D0A66A46F48016A6620E68760505D5A66A26F4005646F4805691
:20A98000A662A66AF6040AD5E66A26F00606E66206E0A66A26F48016A6625E68E9E7E06286
:20A9A00084F824006FF00200186020688368C3F34243072B05D1A84208D1096811F4702F90
:20A9C00004D0816841F480118160B9E7816841F4A001F9E7002801400424014010B5040039
:20A9E00002D0607910B106E0012010BD00202071204600F004F801206071002010BD70477E
:20AA00002DE9F05FDFF860820446D8F80020DFF858B2954D944E944F0068DFF84C92DFF862
:20AA200048A20BF1080B1C35303644374FF400614FF4004C4FF4002E09F158090AF16C0A7B
:20AA4000584501D1082316E0A84201D1802312E0B04201D10B460EE0B84201D163460AE0B3
:20AA6000484501D1734606E0504502D14FF4000301E04FF000631A4231D00268D2431207B2
:20AA80002DD4026822F0080202602068584501D1082114E0A84201D1802110E0B0420ED09C
:20AAA000B84201D161460AE0484501D1714606E0504502D14FF4000101E04FF00061C8F850
:20AAC0000410606B40F001006063042084F82100002084F82000216B09B120468847624801
:20AAE000D0F800C04FF4806120680A010B044FF4802E584502D14FF0040816E0A84202D1A9
:20AB00004FF0400811E0B04201D188460DE0B84201D1904609E0484501D1F04605E05045A4
:20AB200002D14FF4800800E098461CEA080F33D0D0F800C06FEA0C0C5FEA4C7C2CD4D0F8C7
:20AB400000C05FEA8C6C05D4D0F800C02CF0040CC0F800C02068584501D1042113E0A842F6
:20AB600001D140210FE0B0420DD0B84201D1114609E0484501D1714605E0504502D14FF432
:20AB8000800100E0194638484160112084F82100E16A09B120468847334AD2F800C05B4624
:20ABA000206851154FF4005B4FF4003E984202D14FF0020817E0A84202D14FF0200812E085
:20ABC000B04201D188460EE0B84201D1D8460AE0484501D1F04606E0504502D14FF40018E3
:20ABE00001E04FF000781CEA080F3BD0D0F800C06FEA0C0C5FEA8C7C34D4D0F800C05FEA72
:20AC00008C6C05D4D0F800C02CF0020CC0F800C02068984201D1022114E0A84201D12021F1
:20AC200010E0B0420ED0B84201D159460AE0484501D1714606E0504502D14FF4001101E066
:20AC40004FF000715160606B6063012084F82100002084F82000A16A002903D02046BDE879
:20AC6000F05F0847BDE8F09F0000024070B520B190F82110002411B103E0012070BD80F882
:20AC80002040022180F8211003681A6843F6F0718A43D0E901152943D0E903563543294303
:20ACA0004569294385692943C5692943114319604463012180F82110002070BD70B504468B
:20ACC00090F82000012823D0012084F82000022084F821002068056825F001050560204659
:20ACE000FEF768FE2068016841F0020101602068016841F0040101602068016841F00801C0
:20AD000001602068016841F001010160002070BD022070BD31B500F067FA044600F064FAE2
:20AD20000099001B8842F9D338BD00002DE9F047054626480F460126017E01290FD00121A8
:20AD4000814601762868DFF888804CF25034022808D0A2462046FFF79FF8A8B131E002201B
:20AD6000BDE8F0872046FFF797F808BB0120FEF751FF2046FFF790F8D8F81010064621F072
:20AD80000401C8F810101CE04FF0FF303860AC6811E02046FFF73EF85046FFF77DF8D8F864
:20ADA0001010060021F00201C8F8101001D03C6007E004F58064D5E9020100EB8120A04219
:20ADC000E7D8002189F818103046C9E7283800200020024070B5FEF7DFFFC5B24CF25036AF
:20ADE0003046FFF759F8002818D10D49C8610D4C206940F020002061206940F040002061D9
:20AE00003046FFF749F8216921F020012161002804D12846BDE87040FEF7CABF70BD0000DC
:20AE200028380020002002402DE9F0472D4D04460120297E01290ED00121297621784FF0B6
:20AE40000007C9070DD060680128A06806D0FEF7F3FEE8BB05E00220BDE8F087FEF744FF8B
:20AE6000F7E72178890703D5207CFEF7A1FF78BB21781D4E49074CF2503916D594F811806C
:20AE80004846FFF709F878B9EF61306940F010003061164948F0880008804846FEF7FCFF1D
:20AEA000316921F01001316190B92178090716D5D4F81480247E4846FEF7EEFF40B9EF61AC
:20AEC000306940F010003061A8F80040484600E005E0FEF7E1FF316921F0100131612F760D
:20AEE000BAE70000283800200020024002F8FF1F0348016941F08001016100207047000017
:20AF00000020024005480169890505D4044981600449816000207047012070470020024044
:20AF200023016745AB89EFCD2DE9F05F07461C4888460024017E15461E46012909D00121E6
:20AF4000814601764CF2503A5046FEF7A5FF18B122E00220BDE8F09F012F02D0022F00D098
:20AF60000427D346DFF83CA0220128463146FDF7D9FA81B208EB4400FEF75EFF5846FEF7BC
:20AF80008BFFDAF8102022F00102CAF8102018B9641CE4B2BC42E7D3002289F81820D9E7E4
:20AFA000283800200020024005480169090605D50449416004494160002070470120704784
:20AFC0000020024023016745AB89EFCD10B50446642005F01AFA022C10D1094CD4F804017E
:20AFE00000280BD10A2005F01BFAD4F80401002804D10448817881F00101817010BD0000D5
:20B00000000021423C0C0020044910B50A68024202D00860FFF7DAFF10BD0000140401406E
:20B020002DE9F84FDFF890A100220AF1040B144601274FF00F090BF1040E00BF0B6807FA65
:20B0400004F52B40AB4274D1DFF870C14E68A6EB0C0866452BD00DDC032E34D005DC36B369
:20B06000012E19D0022E2FD11BE0112E16D0122E2AD119E0B8F5881F19D006DCB8F5803FA9
:20B0800015D0B8F5801F1FD111E0B8F5001F0ED0B8F5041F18D10AE0CA6815E0CA68121DC9
:20B0A00012E0CA6808320FE0CA680C320CE08A682AB1012A4FF0080203D0456104E0042223
:20B0C00002E0056100E00022FF2B01D8064601E000F104064FEA840501D9A5F12005D6F8D6
:20B0E00000C009FA05F82CEA080C02FA05F54CEA050CC6F800C04D68ED0057D5304DAE6949
:20B1000046F00106AE61AD6924F0030605F0010500952C4D06EB050CDCF80850A6074FEA93
:20B12000167809FA08F6B543274EB04202D1002610E03BE0254EB04201D101260AE0244E63
:20B14000B04201D1022605E0224EB04201D1032600E0042606FA08F62E43CCF808604D6867
:20B16000DAF80060ED03554601D51E4300E09E432E604D68DBF80060AD035D4601D51E431A
:20B1800000E09E432E604D68DEF80060ED02754601D51E4300E09E432E604D68AD020E4D86
:20B1A0002E6801D51E4300E09E432E60641C102CFFF444AFBDE8F88F00040140000011103F
:20B1C000001002400000014000080140000C014000100140001401400C0401400AB1016132
:20B1E00070470904FBE700000148006870470000CC0E002002480168491C01607047000017
:20B20000CC0E0020074810B5016841F010010160032000F099F8002000F006F800F016F864
:20B22000002010BD0020024010B5044600F05CFD4FF47A71B0FBF1F001F055FD00222146E1
:20B24000501E00F061F8002010BD0000214808B5816941F001018161806900F001000090BB
:20B26000032000F071F8002211466FF00B0000F04BF8002211466FF00A0000F045F800220B
:20B2800011466FF0090000F03FF800221146501F00F03AF800221146101F00F035F80022D7
:20B2A0001146901E00F030F800221146501E00F02BF800221146012000F026F8012000F0BE
:20B2C00018F80548416821F0E06141F00071416008BD0000001002400000014000F01F026A
:20B2E000012191404009800000F1E020C0F88011704700F01F02012191404009800000F1E3
:20B30000E020C0F800117047F0B40E4B1B680C46C3F30223C3F10705042D00D90425191DD7
:20B32000072901D2002300E0DB1E012606FA05F1491E214099409E40761E16403143F0BC68
:20B3400002F08EB90CED00E0064900F0070208684FF6FF03184040EA0220034A1043086030
:20B36000704700000CED00E00000FA05BFF34F8F05480168054A01F4E06111430160BFF30C
:20B380004F8F00BFFDE700000CED00E00400FA0510B50C0605D501F07F0100EB411028309A
:20B3A00003E000EB411000F5027099B232B101228272C180190C0181002010BD00228272D7
:20B3C0008180F9E7704700EB4112D0F81C04D26B03F0E3BD00EB4112D0F81C04D2F81C22B1
:20B3E00003F030BE10B504460A460B0601F07F0004EB401101D5283101E001F5027108705B
:20B40000D009487094F8E803012809D0012084F8E803206804F0FEF9002084F8E80310BDD3
:20B42000022010BD70B50A460446090602F07F0003D504EB4011283103E004EB421101F552
:20B44000027100258D700870D009487094F8E803012809D0012084F8E803206804F082FA55
:20B4600084F8E853002070BD022070BD70B504460D460E0601F07F0004EB401101D52831C4
:20B4800001E001F502710870E80948700A61CB7094F8E803012809D0012084F8E803206812
:20B4A00004F088F8002084F8E80370BD022070BD70B504460E4601F07F0004EB401101F5AC
:20B4C000077100252CC101F81F5C01F8200D94F8E80301280AD0012084F8E8037006206848
:20B4E00004F09AFA84F8E853002070BD022070BD70B50D460446090605F07F0003D504EB65
:20B500004011283103E004EB451101F5027101228A700870E809487094F8E803012807D03B
:20B5200084F8E823206804F052FA680602D006E0022070BD04F57B71206804F011FA0020BB
:20B5400084F8E80370BD70B504460E4601F07F0004EB40113C3100252CC1012201F81F2CFE
:20B5600001F8200D94F8E803012809D084F8E8237006206804F050FA84F8E853002070BD65
:20B58000022070BD10B50446006804F027FB000402D5204602F074F8206804F01FFB400555
:20B5A0000CD5206830F8441F21F480610180204600F0ECF80021204600F0FDF8206804F0FE
:20B5C0000DFB400405D5206830F8441F21F480410180206804F002FB800405D5206830F854
:20B5E000441F21F400510180206804F0F7FAC00413D5206830F8401F21F0040101802168B9
:20B600004FF43D40A1F84000204600F0CCF8206830F8441F21F480510180206804F0DEFAA9
:20B6200000051AD5206830F8441F21F400610180206830F8401F41F008010180206830F892
:20B64000401F41F004010180206804F0C7FAC043C00402D5204600F0E3F8206804F0BEFA94
:20B66000800508D5206830F8441F21F400710180204600F09CF8206804F0B0FAC00505D59F
:20B68000206830F8441F21F48071018010BD00002DE9F04186B004004FF0000504D094F81E
:20B6A000E903002620B108E0012006B0BDE8F08184F8E863204600F04BF8032084F8E903E7
:20B6C000206804F046F904F11001142288466846FCF738FF94E80F0004F09AF80021206813
:20B6E00004F08FFA5FF0010704EB451080F8297000F8285F8581C670066146616D1C8661E8
:20B700000F2DF1D35FF0000004EB401181F8096281F80802888681F80B62C1F81862C1F853
:20B720001C62401CC1F820620F28EDD3142241466846FCF707FF94E80F0004F001F984F8A4
:20B74000246084F8E973206804F0F8F80020ACE708B500680B49884212D10B48C16941F496
:20B760000001C161C069002200F40000009011461420FFF7C9FDBDE808401420FFF7B9BD03
:20B7800008BD0000005C00400010024010B504460121D0F81C0403F027FDD4F81C04BDE835
:20B7A000104003F0F0BCD0F81C0403F00BBDD0F81C0403F00DBD10B5044690F8E8030128A7
:20B7C0000BD0012084F8E80384F82410206804F01AFA002084F8E80310BD022010BDD0F8BB
:20B7E0001C2400F57B71104603F011BD10B5044690F8E803012810D0012084F8E8030146B7
:20B800002046FFF7DFFD206804F096F8206804F0D8F9002084F8E80310BD022010BD000056
:20B8200010B50446D0F81C0403F03EFDA069002804D00348016841F00601016010BD0000C4
:20B8400010ED00E030B51C490A68036822F0E0021A430A6019490A6822F480320A600C1FF8
:20B86000226822F480322260144A0832136823F4803313600B1D1D6825F480351D604568FF
:20B88000ED0303D5256845F4803525604468A40303D50C6844F480340C600179C90703D0CC
:20B8A000196841F4803119600079800703D5106840F48030106030BD00700040040401401E
:20B8C0000120102191FAA1F1024AB1FA81F142F82100704700000E4270B504F081FA05F0A5
:20B8E000FBF84FF496750E4C0FE0FF2002F0B8FF01212846FDF778F8C82004F086FDAA20D9
:20B9000002F0AEFFC82004F080FD61684907ECD40448807902F076F9BDE8704005F050B95D
:20B92000007000403C0C002010B5054C2068C00304D5FFF7D1FF4FF48030206010BD0000AF
:20B940001404014010B533A401461DCC86B08DE81D0034A0344C006804900020012931D05F
:20B96000022948D010292BD161682268D20127D54FF4701292FAA2F201F47010B2FA82F2B3
:20B98000D040C9031DF8000010D561684FF4003292FAA2F201F40031B2FA82F2D14004AA6E
:20B9A000515C224AB2FBF1F1484301E0204948436168490204D440005FF00301B0FBF1F074
:20B9C00006B010BD226AC2F30121012903D1920701D5C803F4E7022905D1626A920702D531
:20B9E00049F64040ECE70329EAD121688903E7D54FF22440E4E700F07DF961684FF4804259
:20BA000092FAA2F201F44041B2FA82F2D140491C4900D3E702030405060708090A0B0C0D9D
:20BA20000E0F1010010200000010024000127A0000093D002DE9F84305460078454CC00736
:20BA400074D0E06940F08050E061E069424E00F080500090306840F480703060FFF7C4FBEE
:20BA6000074604E0FFF7C0FBC01B642833D83068C005F7D5206A10F4407051D0A98801F4C4
:20BA8000407181424CD0206A0126310491FAA1F2B2FA82F29300314A20F440701344C3F80E
:20BAA000006491FAA1F1B1FA81F102EB81010023C1F800342062C00732D0FFF795FB07464B
:20BAC00041F288394FF0020808E000BFFFF78CFBC11B494502D90320BDE8F88398FAA8F152
:20BAE000B1FA81F141F040014046B6EB511F01D121680BE090FAA0F1B1FA81F141F0400130
:20BB0000B0EB511F01D1216A00E0616A98FAA8F0B0FA80F000F01F0206FA02F00142D5D0E3
:20BB2000206A696820F44070084320622878800705D56068A96820F4404008436060287800
:20BB4000C00605D56068E96820F48000084360600020C1E70010024000700040000042423F
:20BB60002DE9F047DFF8708105460E46D8F8000000F00700B0420CD2D8F8001021F0070181
:20BB80003143C8F80010D8F8000000F00700B04277D12878514C800705D56068A96820F0D9
:20BBA000F000084360602878C00759D06968012001290DD0022929D05FF0020393FAA3F267
:20BBC000B2FA82F242F02002520904D0226803E04FF40033F2E7626A93FAA3F3B3FA83F3F4
:20BBE00003F01F03984002424BD0606820F0030008436060FFF7F8FA6968074641F2883022
:20BC000001290DD00229814617D025E04FF00073D4E700BFFFF7E8FAC11B494501D918E0FF
:20BC200081466068C0F381000128F3D118E000BFFFF7DAFAC11B49450BD86068C0F381008A
:20BC40000228F5D10CE000BFFFF7CEFAC11B494502D90320BDE8F087606810F00C0FF3D160
:20BC6000D8F80010404601F00701B1420BD9016821F0070131430160006800F00700B042E6
:20BC800001D00120E6E72878400705D56068E96820F4E060084360602878000706D5606862
:20BCA000296920F4605040EAC100606000F03AF86168F02292FAA2F201F0F001B2FA82F264
:20BCC000D140074A515CC840064908600020FFF7ABFA0020BEE70000002002400010024062
:20BCE0004C220108380C00200148006870470000380C002008480949006849684FF46052ED
:20BD000092FAA2F201F46051B2FA82F2D140044A515CC84070470000380C002000100240BC
:20BD20005C22010810B519A385B00FCB8DE80F001AA01B4B006804905A681A4802F00C0129
:20BD400004291DD008291BD14FF4701494FAA4F402F47011B4FA84F4E140D2031DF8011006
:20BD600010D55A684FF4003393FAA3F302F40032B3FA83F3DA4004AB9A5CB0FBF2F0484361
:20BD800005B010BD08484843FAE7000002030405060708090A0B0C0D0E0F101001020000CB
:20BDA0000010024000127A0000093D002DE9F84F04460078F74DC0074FF0010625D068682A
:20BDC0007704C0F38100012807D06868C0F3810002281BD16868C00318D597FAA7F0B0FA48
:20BDE00080F040F02000400901D0286800E0686A97FAA7F1B1FA81F101F01F0106FA01F1DE
:20BE000008425ED0606800287CD05AE06068B0F5803F0BD010B1B0F5A02F11D0286820F473
:20BE200080302860286820F4802002E0286840F480302860606828B3FFF7D6F980460BE08F
:20BE4000286840F480202860F0E700BFFFF7CCF9A0EB0800642871D897FAA7F0B0FA80F0FB
:20BE600040F02000400901D0286800E0686A97FAA7F1B1FA81F101F01F0106FA01F1084283
:20BE8000E4D01EE0FFF7B0F9804605E0FFF7ACF9A0EB08006428DED897FAA7F0B0FA80F0F4
:20BEA00040F02000400901D0286800E0686A97FAA7F1B1FA81F101F01F0106FA01F1084243
:20BEC000E4D12078DFF8D08280074FF000094FF002075BD568684FF0F80B10F00C0F07D0A1
:20BEE0006868C0F3810002281CD16868C00319D497FAA7F0B0FA80F040F02000400902D0FA
:20BF0000286801E08BE0686A97FAA7F1B1FA81F101F01F0106FA01F108422CD02069012832
:20BF20007DD128E0206990B396FAA6F0B0FA80F048F82060FFF758F9824607E011E100BF38
:20BF4000FFF752F9A0EB0A00022884D897FAA7F0B0FA80F040F02000400901D0286800E069
:20BF6000686A97FAA7F1B1FA81F101F01F0106FA01F10842E4D028689BFAABF26169B2FA70
:20BF800082F220F0F80091400843286025E0FFE796FAA6F1B1FA81F148F82190FFF724F94E
:20BFA000824605E0FFF720F9A0EB0A000228CCD897FAA7F0B0FA80F040F02000400901D0B6
:20BFC000286800E0686A97FAA7F1B1FA81F101F01F0106FA01F10842E4D1207800076ED5F5
:20BFE000A069B8B396FAA6F0B0FA80F008EB8000C0F88064FFF7F8F8824605E0FFF7F4F809
:20C00000A0EB0A000228A0D897FAA7F0B0FA80F040F06000B6EB501F02D128680CE062E175
:20C0200097FAA7F0B0FA80F040F06000B7EB501F01D1286A00E0686A97FAA7F1B1FA81F1C1
:20C0400001F01F0106FA01F21042D7D00120FEF761FE34E0FFE796FAA6F1B1FA81F108EB3D
:20C060008101C1F88094FFF7BFF8824606E000BFFFF7BAF8A0EB0A00022872D897FAA7F07E
:20C08000B0FA80F040F06000B6EB501F01D128680BE097FAA7F0B0FA80F040F06000B7EB25
:20C0A000501F01D1286A00E0686A97FAA7F1B1FA81F101F01F0106FA01F21042D8D120781E
:20C0C000400765D5E86940F08050E861E869DFF8CCB000F080500090DBF8001041F4807148
:20C0E000CBF80010FFF780F8824605E0FFF77CF8A0EB0A00642834D8DBF80000C005F5D559
:20C10000E06801280AD008B1052813D0286A20F001002862286A20F0040002E0286A40F094
:20C1200001002862E06841F2883B90B3FFF75CF882460BE0286A40F004002862EEE700BF12
:20C14000FFF752F8A0EB0A0159450AD897FAA7F0B0FA80F040F04000B6EB501F02D1286864
:20C160000CE0A3E097FAA7F0B0FA80F040F04000B7EB501F01D1286A00E0686A97FAA7F14E
:20C18000B1FA81F101F01F0206FA02F10842D7D031E005E000100240000042420070004010
:20C1A000FFF722F8824605E0FFF71EF8A0EB0A0159457BD897FAA7F0B0FA80F040F040007D
:20C1C000B6EB501F01D128680BE097FAA7F0B0FA80F040F04000B7EB501F01D1286A00E0FB
:20C1E000686A97FAA7F1B1FA81F101F01F0206FA02F10842D8D1E06980B36968C1F38101AC
:20C20000022970D04FF080714F000228484609D091FAA1F1B1FA81F148F82100FEF7E4FF30
:20C22000044669E08A4691FAA1F1B1FA81F1C14648F82100FEF7D8FF804605E0FEF7D4FFBA
:20C24000A0EB0800022854D897FAA7F0B0FA80F040F02000400902D0286801E061E0686AC4
:20C2600097FAA7F1B1FA81F101F01F0106FA01F10842E3D1206AB0F5803F05D16868A168DA
:20C2800020F4003008436860D4E908010843696821F47411084368609AFAAAF0B0FA80F070
:20C2A00049F82060FEF7A0FF044606E021E000BFFEF79AFF001B02281BD897FAA7F0B0FAA1
:20C2C00080F040F02000400901D0286800E0686A97FAA7F1B1FA81F101F01F0106FA01F1F9
:20C2E0000842E5D01DE01EE0FEF77EFF001B022802D90320BDE8F88F97FAA7F0B0FA80F021
:20C3000040F02000400901D0286800E0686A97FAA7F1B1FA81F101F01F0106FA01F10842DE
:20C32000E2D10020E6E70120E4E7704710B5040003D094F8510010B104E0012010BD204648
:20C3400000F038F8022084F851002068016821F040010160D4E901010843D4E903121143FA
:20C36000084361690843218B01F400710843E1690843216A0843A16A084321680860A06945
:20C38000042101EA1040616A0843216848602168E06A08612068C16921F40061C161044923
:20C3A000002008706065012084F85100002010BDD00E00202DE9F04F054600683F49DFF8E0
:20C3C0000081032685B088425CD1D8F8181041F48051C8F81810D8F81800DFF8E8B000F456
:20C3E00080500490A02000900220019069465C4603965846FEF714FE4FF000094020CDE9E9
:20C4000000094F4669462046CDF80890FEF708FE2E4C2D484FF0800AC4E90007C4E9027A7C
:20C4200027616761A7612046E761FEF71FFC08B1FDF7EEFB6C6465622348254C1430102762
:20C44000C4E90007C4E9029AC4F81090C4F81490C4F818902046C4F81C90FEF707FC08B140
:20C46000FDF7D6FB2C6465620120CDE9007069465C4603965846FEF7D3FD01221021204652
:20C48000FEF7ACFE13492868884214D1D8F81C1041F48041C8F81C10D8F81C00694600F4F5
:20C4A000804004904FF4204000900220019003960948FEF7B5FD05B0BDE8F08F0030014067
:20C4C00000100240000801401C000240DC1D0020141E002000380040000C01402DE9F84FD6
:20C4E00000259A460446ADF8005090F8510001287ED1E9B3E2B394F85000012878D0012602
:20C5000084F85060222084F851006565A163A287E287A564E5642563A586E586A0684FF4C5
:20C520000049484504D12068036823F480430360A06A4FF40057B84209D12068036823F49E
:20C54000005303602068036843F40053036060684FF48278404501D1A06878B120680168C7
:20C56000490603D4016841F040010160E06800E001E0E8B131E00120BDE8F88F84F850503D
:20C5800013460A462046CDF800A000F0C7F9F3E7534600220121204601F079FE48BB206867
:20C5A000C168A06B421CA2630170E08F401EE087E08F0128ECD813E05346002201212046AD
:20C5C00001F065FEA8B92068C068A16B0880A06B801CA063E08F401EE087E08F0128EBD829
:20C5E000A06AB84207D12068016841F4805101E068E007E00160534600220121204601F0C3
:20C6000046FE08B10320B7E7E0680028206817D0C068A16B0880A06B801CA063E08F401E4A
:20C62000E087A06AB84217D1534600220121204601F02DFE50B1606D40F002006065E1E7BB
:20C64000C168A06B421CA2630170E7E72068C068ADF80000BDF80000606840450AD1A068CA
:20C66000484502D0B0F5806F04D12068016821F04001016084F85160A06AB8420DD12068B7
:20C680008068C043C00608D4204601F0FEFD012807D021686FF01000886084F8505000209F
:20C6A0006AE7606D40F0020060652068016821F4005101602068016841F40051016084F859
:20C6C000505058E7022057E770B5044690F85100012860D1D1B1CAB194F8500001285AD04D
:20C6E000012084F85000222084F8510000256565A163A287E287A564E5642563A586E58649
:20C70000A068B0F5004F03D040B10BE0012070BD2068016821F48041016003E06068B0F5A8
:20C72000827F04D0A06AB0F5005F09D012E084F850502046BDE8704013460A4600F048BAD9
:20C740002068016821F4005101602068016841F400510160616C1148C862616C10488862EA
:20C76000616C104808632168E38F0C31A26B606CFEF7A4FA2068416841F00101416084F804
:20C78000505020680168490603D4016841F040010160002070BD022070BD0000DFE0000843
:20C7A000F3E00008C1E0000810B5012210210748FEF714FD06480121C2780AB1417010BDA4
:20C7C0000279002AFBD0817010BD000000080140E60D002070472DE9F843044690F85100A4
:20C7E0009846012870D139B332B394F8500001286AD0012684F85060122084F8510000256A
:20C8000065652163A286E286E564A564A563A587E587A06A7703B84209D12068016821F4EA
:20C82000005101602068016841F400510160A068B0F5004F03D007E00120BDE8F8832068EF
:20C84000016841F48041016020680168490603D4016841F040010160E0680028606804D0B9
:20C86000D8B1E08E012818D021E010B1E08E012808D1206B411C216321680078C860E08E7B
:20C88000401EE0860004000C1FD0434600220221204601F0FCFCA8B9EBE7206B21680088E9
:20C8A000C860206B801C2063E08E401EE0860004000C0AD0434600220221204601F0E7FC82
:20C8C0000028EAD00320B8E726E0A06AB84204D12068016841F480510160434600220221AF
:20C8E000204601F0D4FC30B9434601228021204601F0CDFC20B1606D40F010006065E1E750
:20C90000A06818B92068C1688068009084F8516084F85050002090E702208EE72DE9F8434D
:20C920000025DDF820800446ADF8005090F85100012803D094F8510022287DD169B162B1A7
:20C940005BB194F85000012876D0012684F8506094F85100012803D005E00120BDE8F8832E
:20C96000322084F851006565A263A387E3872163A386E386A564E564A06A4FF40057B8422F
:20C9800009D12068016821F4005101602068016841F40051016020680168490603D40168AD
:20C9A00041F040010160E0684FF48271B0F5006F606807D0002867D088426ED1E08E012874
:20C9C00062D06AE020B188420CD1E08E012809D1206B21680088C860206B801C2063E08E16
:20C9E000401EE086E08E80B9A06AB84244D12068016841F4805101603EE02068C068A16B81
:20CA00000880A06B801CA0639EE0434600220221204601F03CFC002874D1206B2168008800
:20CA2000C860206B801C2063E08E401E0004000CE08609D1A06A00E0C7E0B84204D1206820
:20CA4000016841F480510160434600220121204601F01DFC00286FD12068C068A16B08801D
:20CA6000A06B801CA063E08F401EE087E08E0028CBD1606800286AD1434600220121204648
:20CA800001F005FCF0BBB8E7206B411C216321680078C860E08E401EE086E08E98B9A06ACA
:20CAA000B84204D12068016841F480510160434600220121204601F0EAFB18BB2068C068C3
:20CAC000A16B087040E0434600220221204601F0DEFBB8B9206B411C216321680078C860AE
:20CAE000E08E401E0004000CE08607D1A06AB84204D12068016841F4805101600022434640
:20CB0000012100E018E0204601F0C1FBA0B92068C168A06B421CA2630170E08F401EE087EB
:20CB2000E08E0028CFD1606888B9434600220121204601F0ACFB08B103200FE72068C16868
:20CB4000A06B421CA2630170E08F401EE087A06AB84210D1434600220121204601F097FB27
:20CB600018B1606D40F002000FE02068C068ADF80000BDF80000434601228021204601F050
:20CB800086FB20B1606D40F010006065D4E784F85160A06AB84214D120688168C943C90654
:20CBA0000FD4616D41F002016165016821F4005101602068016841F40051016084F85050A6
:20CBC000CBE684F850500020C8E60220C6E6000070B5044690F8510001280AD06068B0F534
:20CBE000827F71D1A06800286ED194F8510022286AD1F1B1EAB1E3B194F85000012863D018
:20CC0000012084F8500094F85100222802D0322084F85100002565652163A386E386A26305
:20CC2000A387E387A564E564A06AB0F5005F02D00BE0012070BD2068016821F4005101603D
:20CC40002068016841F40051016094F85100222832D0616C1D48C8621D48616C1D4E8862F0
:20CC6000606C06632168E38F0C31A26B606CFEF725F82068416841F00101416094F851007A
:20CC80003228206C1ED005632268E38E0C32216B206CFEF713F820680168490603D4016887
:20CCA00041F0400101602068416841F00201416084F85050002070BD616C0748C86207489D
:20CCC000CBE701E00663DFE7022070BDE9E00008CDE10008C1E00008DFE00008F3E0000871
:20CCE00070477047704710B5401EB0F1807F01D3012010BD4FF0E02460610F21601700F0EF
:20CD0000AFFC0020A06107202061002010BD10B5FFF7E8FF10BD7047704730B590F8382010
:20CD2000012A20D0012280F83820022380F8393003685C6824F070045C6003685C680D68C8
:20CD40002C435C6003689C6824F080049C6003689C6849680C439C6080F83920002180F8D0
:20CD60003810084630BD022030BD10B5040003D094F8390010B107E0012010BD002084F88E
:20CD80003800204600F00CF8022084F83900211D206801F05FFE012084F83900002010BD53
:20CDA00000B51E4A01681E4885B0914222D1C16941F00201C161C069694600F002000490AE
:20CDC0004FF4707000900020019002901548FEF727F9002211461D20FEF796FA1D20FEF77E
:20CDE00088FA11484168114A21F0A0611143416005B000BDB1F1804FFAD1C16941F0010142
:20CE0000C161C069002200F00100049011461C20FEF77AFA1C20FEF76CFAE9E70004004079
:20CE2000001002400010014000000140000C00020168CA6842F00102CA600068016841F004
:20CE400001010160002070470168CA6822F00102CA600068016A41F21112114207D1016AFF
:20CE60009210114203D1016821F0010101600020704700002DE9F05F04465B4D207EDFF869
:20CE80006CB14FF0000A05F1080705F11008A5F10C06A5F10809012820D1F07810B399F8F4
:20CEA0000310884217D12068406BF880EA88801A80B2A8F806004E4A5143B1FBF0F0CBF8A3
:20CEC0000C00281F80F803A00021204600F092F82046FFF7B9FFF078401CF070207E0228E3
:20CEE00004D025E02068406BE880F4E7B17819B399F80200814218D12168896BB980AA88C7
:20CF0000891A89B2A8F80410394A5043B0FBF1F0CBF808003448001F80F802A004212046D2
:20CF200000F068F82046FFF78FFFB078401CB070207E042804D025E02068806BA880F4E7FA
:20CF40007178E9B399F80100814218D12168C96B79806A88891A89B2A8F80210244A5043D5
:20CF6000B0FBF1F0CBF804001F48001F80F801A00821204600F03EF82046FFF765FF707862
:20CF8000401C7070207E082823D1317839B399F8000081421AD12168096C39802A88891AB3
:20CFA00089B2A8F80010124A5043B0FBF1F0CBF800000D48001F80F800A00C21204600E049
:20CFC00009E000F017F82046FFF73EFF3078401C3070BDE8F09F2068C06B6880CFE720681F
:20CFE000006C2880F2E70000540C00206C1D0020001BB70010B50268044631B1042908D0E9
:20D0000008291ED00C2908D11FE0D06820F0020002E0D06820F00400D0600022206801F0A1
:20D020004BFD2068016A41F21112114207D1016A9210114203D1016821F001010160002003
:20D0400010BDD06820F00800E6E7D06820F01000E2E770B50446006801694FF00005C94334
:20D06000890715D4C168C943890711D4E91E016101202076206880698007204602D0FFF747
:20D08000F9FE04E000F098F8204600F096F8257620680169C943490717D4C168C9434907F8
:20D0A00013D46FF004010161022020762068806910F4407F204602D0FFF7DCFE04E000F0FB
:20D0C0007BF8204600F079F8257620680169C943090716D4C168C943090712D46FF00801F0
:20D0E0000161042020762068C0698007204602D0FFF7C0FE04E000F05FF8204600F05DF81A
:20D10000257620680169C943C90617D4C168C943C90613D46FF010010161082020762068B9
:20D12000C06910F4407F204602D0FFF7A3FE04E000F042F8204600F040F82576206801690B
:20D14000C943C90708D1C168C943C90704D1891E0161204600F032F820680169C9430906AA
:20D1600009D4C168C943090605D46FF0800101612046FFF7D0FD20680169C943490609D420
:20D18000C168C943490605D46FF040010161204600F032F820680169C94389060BD4C1681B
:20D1A000C943890607D46FF0200101612046BDE87040FFF7B1BD70BD704770470B4A01689F
:20D1C000914209D10A4A0021116051609160D160084A11709170D1700068B0F1804F04D127
:20D1E000044814388168491C81607047000400406C1D0020500C00207047000018B504467A
:20D2000009486A460321006804F03CFB9DF8000020702E2060709DF80110A170E0709DF877
:20D220000200207118BD0000FC7F0008FEE7000070B500F0A9FE224C0025E8B200F0E2FC67
:20D240006D1C2070102DF8DB10F0FF0F06D100F001FE207010B902F071FF2070FCF796FB02
:20D2600000224FF400411748FDF7B8FF2178164C4FF0000011B1FCF7D3FB0120207003F09D
:20D280009FFC12481249008800EB400001EB801090F8BC00552802D10720FEF72AF84FF0FE
:20D2A000FF300C4B0C4A0146FCF794FA0B490968814203D0BDE8704003F0E8BD70BD000055
:20D2C000581C0020001001403F0C0020420C002058100020007B01000084000800FF0108F8
:20D2E0003EB511480F49016000218160C16041614FF46022C261416001240461FDF7BEF9A6
:20D3000008B1FCF785FC0A20009001940520029069460548FDF7FAF8002801D0FCF778FC98
:20D320003EBD000000240140F00E002008B50D48416941F001014161406900F001000090B4
:20D34000002211460C20FDF7DFFF0C20FDF7D1FF002211460D20FDF7D7FFBDE808400D20DC
:20D36000FDF7C7BF001002402DE9F04F85B07648816941F020018161816901F020010091EE
:20D38000816941F010018161816901F010010091816941F004018161816901F0040100918F
:20D3A000816941F008018161806900F008000090DFF898914FF44066002231464846FDF7F2
:20D3C0000DFF00224FF407416148FDF707FF4FF46077002239465F48FDF700FF4FF4004811
:20D3E000CDF80480012402940225049501A95848FDF716FE01960294049501A94846FDF725
:20D400000FFE780001900294049501A95048FDF707FE01970294049501A94E48FDF700FE93
:20D42000002238214B48FDF7D9FE00224FF470714846FDF7D3FEDFF820B1002204215846ED
:20D44000FDF7CCFE012240214248FDF7C7FE4FF4805A012251464846FDF7C0FE7820019007
:20D4600002940326049601A93A48FDF7D9FD042701970294049601A95846FDF7D1FD4FF41D
:20D480009E5001900294049601A94846FDF7C8FD4FF4804BCDF804B0029401A94846FDF7A3
:20D4A000BFFD002259464846FDF798FECDF804A01120029001A92748FDF7B2FD0022514636
:20D4C0002448FDF78BFE0197029401A94846FDF7A7FD002204214846FDF780FE0122414674
:20D4E0004846FDF77BFECDF804800294049501A94846FDF795FD102001900294049601A960
:20D500001348FDF78DFD019500260296039401A90F48FDF785FD01940296039401A90D480D
:20D52000FDF77EFD202001900296039401A94846FDF776FD01940294049501A90448FDF72F
:20D540006FFD05B0BDE8F08F001002400010014000080140000C01400014014010B50F48DC
:20D560000D4901604FF48271416000218160C160016141614FF4007282611822C26101629E
:20D58000416281620A21C162FEF7D0FE002801D0FCF73EFB10BD000000300140200F002042
:20D5A00010B510480E4901604FF4827141604FF4004181600021C160016141614FF400725F
:20D5C00082612022C2610162416281620A21C162FEF7ACFE002801D0FCF71AFB10BD00005F
:20D5E00000380040780F00201CB50D484FF0804101603F2141600024846040F26541C16083
:20D60000FFF7B3FB08B1FCF703FB0094019469460348FFF782FB002801D0FCF7F9FA1CBD6E
:20D620000C10002010B500220849094801F080FC0849074801F065FE0749054801F0BAFA82
:20D64000BDE81040024801F0A9BE0000980E00208C2F0020B80B0020880E0020FEE770475D
:20D660000907090E002806DA00F00F0000F1E02080F8141D704700F1E02080F800147047F7
:20D680002DE9FC5F4FF000080446ADF80480ADF8008048F60F7B4FF002094FF4806692E18C
:20D6A000BDF8041011F00F072BD030F82710ADF80010BDF80010090478D530F8272040F6B7
:20D6C0008F710A4020F8272004EB471595F8120205F502750028206869D0297830F8212051
:20D6E00052047DD5B0F8503009EBC101194406EB4101415AC1F309015FEA010A71D0EA88B4
:20D70000D0E0BDF80410C9062AD4018801EA0B010180206804F12805B0F850202B7809EB69
:20D72000C301114406EB4101405AC0F309006064E16B0844E06300212046FDF744FE94F85F
:20D7400024000028ABD0A8690028A8D194F82400216840F08000A1F84C0084F8248032E14F
:20D76000018804F50275ADF80010BDF8001009051ED5B0F850302978062202EBC101194438
:20D7800006EB4101405A04F57B71C0F30903EB61AA88206802F026FA2068018840F68F72B8
:20D7A000114001802046FEF71AF80CE1A0E055E0BDF800100904D2D5028840F68F710A4005
:20D7C00002802068B0F850302978062202EBC101194406EB4101405A83059B0DEB6101E018
:20D7E00051E063E008D0AA886969206802F0FAF9E96968690844686100212046FDF7EAFDD2
:20D800002068B0F85010891D06EB4101014428693E280CD9C0F34F12C00601D1521E92B21E
:20D820004FF6FF7000EA822040F4004009E0C0F34F02C00701D0521C92B24FF6FF7000EA5F
:20D8400082200860216808884BF68F72104080F4405048F2800210430880B4E0B0F85020CC
:20D860002B78062101EBC301114406EB4101415AC1F309015FEA010A24D0AA885346696968
:20D8800002F0B0F91EE0B0F85020062303EBC101114406EB4101415AC1F309015FEA010AC9
:20D8A00004D02A895346696902F09CF92978206830F8213048F68F72134048F2C002134369
:20D8C00020F82130E96901EB0A00E861696901EB0A026A61AB6913B12869504504D929783D
:20D8E0002046FDF777FD03E029782046FDF7E0FDBDF80000000666D5206804EB471530F8AE
:20D90000271001EA0B0120F8271095F8320028350028206812D0297830F82120B0F85030AA
:20D9200052061ED509EBC101194406EB4101405A83059B0DEB6124D0EA881EE0B0F85030B4
:20D940002A7809EBC201194406EB4101405A83059B0DEB6121D0AA886969206802F059F907
:20D960001BE0062202EBC101194406EB4101405A83059B0DEB6104D02A896969206802F05C
:20D9800048F92978206830F8212048F68F731A404CF280031A4320F821202068B0F8502003
:20D9A0002B7809EBC301114406EB4101405AC0F30900E86169690A186A612978AB6920460B
:20D9C00063B1FDF7C0FD2068B0F84410ADF8041009043FF565AE0020BDE8FC9FFDF7F3FCAE
:20D9E000F1E7FDF7A1BF00000EB50A48C16941F08051C161C06900F080500090C0200190AE
:20DA00004FF00110029001A8FDF71CFFFDF758FF0EBD00000010024010B5552000F020FFBB
:20DA2000FF2000F049FF0A2002F0FAFCF02000F043FF0A2002F0F4FCBDE81040FF2000F02B
:20DA40003BBF70472DE9F05F00260020DFF8E48008EB0001497809B9761CF6B2401CC0B2B0
:20DA60000428F5D30024DFF8CC904FF0010A09F11409314FA9F6144B18E008EB04056A78A6
:20DA8000A2B32E4A32F81010491C22F8101009EB00104168491C41606878D0B302F0A0F92F
:20DAA00010B1687087F803A0641CE4B2F88800EB40010BEB811191F8BE20A242DDD803F06E
:20DAC00091FA03F027F9F88800EB40000BEB8010B0F8441009052BD590F8BE00B04221D83C
:20DAE000BDE8F05F00219620FAF77EBF134B403B53F82020521C43F8202009EB0010026872
:20DB0000521C026091F846000028C5D002F094F8C2E7FFE702F064F968700028C4D087F83A
:20DB200003A0C1E7BDE8F05F01219620FAF75CBFBDE8F09F581C00203C0C0020BC1D002099
:20DB40002DE9F04116460F46044602F0A1FB104D002210212846FDF741FB0E4803210A2300
:20DB60000170210C4170210A8170C470014604220948FEF730FE0A23324639460648FEF7BE
:20DB8000ADFC2846BDE8F04101221021FDF726BB000801400C0E0020200F00202DE9F04156
:20DBA0001C4615460E46074602F072FB002210211148FDF713FB114803210A230170390C9A
:20DBC0004170390A8170C770014604220C48FEF702FE0A490020012226394CB10A7188700E
:20DBE000C8702A463146BDE8F0410548FEF76CBDCA7048700871F4E7000801400C0E0020FC
:20DC0000200F00202DE9F84F060015D08C484FF4807200EB46308B49FFF792FFFF25894CAF
:20DC200000202218215C92F8802091427ED1FF2909D0FF2DFAD105E04FF4807281494FF4A2
:20DC40006020E9E711B1FF2D00D10546401C80B28028E6D3FF2D69D000210846625DD3070E
:20DC600007D1491C5208401C80B2C9B262550828F4D305F0030001EBC0014FF6FF7A724839
:20DC80000AEA81274FF48068009076B307EB464909F5381042466B49FFF752FF09F53A1072
:20DCA00042460099FFF74CFF52465046002104EB010C635C9CF800C4634537D1FF2B02D0F4
:20DCC000904233D113B1904200D10846491C89B2C3465945EBD39246504527D000221146D7
:20DCE000235C5FEAC37C0CD013E0FFE74246554907F57020FFF724FF424607F578200099E8
:20DD0000D0E7521C5B08491C89B2D2B223540829E6D325F0030107EB4131084402EBC0017F
:20DD20004A4800EB0619C9F8001000E060E0A6B147484FF4807200EB46304249FFF700FF5A
:20DD4000FF2500202218215C92F8802091424FD1FF2909D0FF2D4BD105E04FF480723949C6
:20DD60004FF44020EAE711B1FF2D00D10546401C80B28028E6D3FF2D3AD000210846625DD2
:20DD8000D30707D1491C5208401C80B2C9B262550828F4D305F0030001EBC0010AEA81271A
:20DDA0004EB307EB464606F53C1042462549FFF7C7FE06F53E104246DDF80010FFF7C0FE82
:20DDC000524650460021DC466618635C96F80064B3420DD1FF2B02D0904209D113B1904292
:20DDE00000D10846491C89B26145EDD390420ED18820BDE8F88F46464246124907F550209E
:20DE0000FFF79EFE324607F558200099D6E700221146235CDE0707D1521C5B08491C89B208
:20DE2000D2B223540829F4D325F0030107EB4131084402EBC0010020C9F80410D9E70000C3
:20DE400000E02D00681E0020682200206C1C002000F02D00F0B52848294C0188274801EB32
:20DE6000410200EB821004EB011190F80EC0B0F84C30B0F84E70B0F85020B0F8526090F906
:20DE800064500C68BCF10A0F17D0D9B2FBB201EB0321D2B201EB024101EB066105FB04114A
:20DEA000CAB220F85C2FC1F307224280C1F307428280090EC1800020F0BD3F040021FB1809
:20DEC00041EB010CCF1842EB0C023304CE195341A5FB042CEF1707FB04C405FB01419219A8
:20DEE000594120F85C2F120C42EA014242800B0C8180C380DFE70000420C0020581000207F
:20DF00006C1C00202DE9FC4105464B208DF8040000201B4E0C468DF8000002461021304678
:20DF2000FDF75CF94FF47A773B46012201A91548FEF751FC3B46012269461248FEF74BFC8E
:20DF40003B46012269460F48FEF745FC3B46012269460C48FEF73FFC3B4601226946094866
:20DF6000FEF739FC3B46224629460648FEF7B6FA012210213046FDF731F9BDE8FC81000022
:20DF800000080140780F00202DE9F041C02225490020FFF7D5FD02222349C220FFF7D0FDDD
:20DFA000204D214EDFF8848001244FF49E2700BF04EB440005EB801107EB0430C022FFF70C
:20DFC000BFFD06EB440108EB04300222FFF7B8FD641CE4B2102CEBD3022215494FF4104034
:20DFE000FFF7AEFD124800240188102900D30480042210494FF4BE20FFF7A2FD0D490A4A0A
:20E000000868A2F10602431C08D0010E81EA104181EA102141405171BDE8F0810C605471CD
:20E02000FAE7000058100020EC0D0020C2F00400420C0020580E002010B51E4C1C4A0021FE
:20E04000208802EB001211605160F0B11A4901EB40310020FBF79EFD2088184901EB403183
:20E060000020FBF797FD20884FF4381101EB40410120FBF78FFD20884FF43C1101EB404115
:20E08000BDE810400120FBF785BD4FF460210120FBF780FD4FF470210120FBF77BFD4FF440
:20E0A00040210120FBF776FD4FF45021E8E700006C1C0020420C002000E02D0000F02D00B6
:20E0C00010B5406A0021C186C187012180F85110416D41F008014165FEF727F910BD10B5F1
:20E0E000406AFEF777FB10BD10B5406AFEF7F9FD10BD38B50025ADF80050446A0068006896
:20E1000080065FD42068416821F0010141602068416821F002014160A06AB0F5005F37D165
:20E120000A2300220121204600F0B1F818B1606D40F0100060652068C068ADF80000BDF8CA
:20E14000000001220A231146204600F0A0F818B1606D40F01000606520688068C043C00656
:20E1600016D4204600F091F801280DD1606D40F0020060652068016821F4005101602068CB
:20E18000016841F40051016021686FF0100088606068B0F5827F0BD1A068B0F5004F02D037
:20E1A000B0F5806F04D12068016821F040010160E587012084F85100606D18B12046FEF707
:20E1C000B4F838BD2046FEF7EFFA38BD38B50025ADF80050446A00680068800651D4A06A2B
:20E1E000B0F5005F22D101220A231146204600F04EF850B90A2300220121204600F047F8D6
:20E2000018B1606D40F0100060652068C168ADF80010BDF800108168C943C90606D4616DCC
:20E2200041F0020161656FF0100181600A2300220221204600F02BF818B1606D40F01000D2
:20E2400060652068416821F0020141600A2301228021204600F01BF818B1606D40F01000E3
:20E2600060652068416821F001014160E586E587012084F85100606D18B12046FEF755F8F1
:20E2800038BD2046FEF72CFD38BD012070472DE9F0471D4690460E460446FCF7A5FF074630
:20E2A0005FEA08004FF000084FF4005A4FF0010926D034E0681C23D025B1FCF795FFC01B27
:20E2C000A8421DD92068416821F0E00141602068016821F040010160A06A504509D12068F5
:20E2E000016821F4005101602068016841F40051016084F8519084F850800320BDE8F0872E
:20E300002068806836EA0000D4D10DE0681C06D0002DD7D0FCF768FFC01BA842D2D820685C
:20E32000806836EA0000F1D00020E7E72DE9F04116460F46044601F0ABFF01F0F3FF114D08
:20E34000002210212846FCF749FF0F48022104220170210C4170210A8170C4704FF47A7451
:20E36000014623460948FEF736FA2346324639460648FEF730FA2846BDE8F0410122102112
:20E38000FCF72CBF000801400C0E0020200F0020704700002DE9F04F0027DFF8B8B1ADF6B7
:20E3A0000C0D0E468BF8007001788DF8001841788DF8011881788DF80218C0788DF8030830
:20E3C0003D46BA46802269464FF4E220FFF7B8FB0024E84618F8040008B1E7B212E07F2C26
:20E3E0000CD19DF87F0048B94FF4E2210020FBF7D1FB4FF4E0210020FBF7CCFB641CA4B214
:20E40000802CE7D300204146CA5DD30703D000EBC700C5B205E05208401C80B2CA550828D6
:20E42000F2D304224C494FF4BE20FFF789FB00244FF001090DF580685F4645E0A00507D123
:20E440004FF480620DF5806104F5E020FFF778FB9DF8001818F80420914231D108EB0400A5
:20E460009DF80118427891422AD19DF802188278914225D19DF80318C278914220D118F836
:20E48000042008EB04013270497871708178B170C078F0706FF0030000EB8500A0420CD1D9
:20E4A0002D482E4900680968884206D187F8009001200DF60C0DBDE8F08F02203870F8E7DD
:20E4C000241D87F800A0A4B2B4EB850FB6D33878E8BB05F0070109FA01F0C043FF27C0B2EB
:20E4E0008F408DF8080807404FF4E22000EBD500044601220DF6080101F0F4FE2046012287
:20E500000DF60401FFF71CFB9DF8040887421ED14FF4E02000EB8500044604220DF5006107
:20E5200001F0E0FE204604223146FFF709FB4FF4BE2421460020FBF72DFB0422074920466D
:20E5400001F0D0FE042205492046FFF7F9FA0020AFE70000E60D0020640E0020580E002058
:20E560002DE9F0417C4C7D4DC021B4F8140100EB400005EB8010F9F7FEFFB4F81411002295
:20E5800001EB410005EB8010A3181B7D8354521CD2B20E2AF8D394F82220827394F823201D
:20E5A000C27394F82420027494F825204274D4F826204261628D0283A28D428304F1340211
:20E5C00000F12408CCCA88E8CC000022A3188618521C93F84430D2B286F83430102AF5D3FC
:20E5E000B4F85420A0F86620B4F85620A0F86820B4F85820A0F86A20B4F85A20A0F86C200B
:20E60000B4F85C20A0F86E20B4F85E20A0F87020B4F86020A0F8442094F8622080F8462046
:20E62000D4F863208264002204EB420300EB420633F8677F26F84C7F1F893781521C1B8AAF
:20E64000D2B23382042AEFD394F87F2080F86420B4F880208283B4F88220C283B4F8842036
:20E660000284B4F886204284D4F888208267B4F88C20A0F87220B4F88E20A0F8742094F80B
:20E68000902080F8BC2094F8912080F8BD2094F8922080F8BE2094F8932080F8BF20002298
:20E6A000A318861893F89430521C86F87C30402AF6DBDFF8AC80002228F81120264E1036AF
:20E6C00099B34FF49E2707EB01310020FBF762FAB4F81401C02200EB400105EB811107EB11
:20E6E000003004F58A7401F0FDFD20881D49022201EB0030314601F0F5FD2088194A08EB62
:20E700004001921C02EB00305FF0020201F0EAFD4FF4104421460020FBF73CFA2046BDE871
:20E72000F0410222104901F0DDBD00210120FBF731FAB4F81401C02200EB400005EB8011F2
:20E74000002001F0CFFD02223146C02001F0CAFD02220349C220D9E7742E0020581000204D
:20E76000EC0D0020C0F00400882F00200126642001F04BFE384F394DD7F8040108B1012E47
:20E78000FAD1D7F8040108B1012EF5D101F0DAFE0026FF2000F064F8FF2000F08DF8FA2024
:20E7A00001F033FE0024552000F05AF8FA2001F02CFEAA2000F054F8FA2001F026FE641C72
:20E7C000E4B2022CEFD3FF2000F04AF8FBF7D4FB287001462C460620FBF722F92078E8B9E4
:20E7E00001F0ACFC207001460120FBF719F92078A0B901F007FD207001460220FBF710F9AA
:20E80000207858B9FAF75CF9607808B13020207021780320FBF704F9207808B1AA2000E0F2
:20E82000552000F01DF8FA2000F046F84FF4C874204601F0EAFDF52000F03EF8204601F0C7
:20E84000E4FDFF2000F038F8204601F0DEFDF02000F032F890E7000000002142581C0020CE
:20E860002DE9F0410026134C0546B0460127280602D5C4F8A87101E0C4F8A8816806050E42
:20E88000022001F0E3FDC4F8A071022001F0DEFDC4F8A081022001F0D9FD761CF6B2082E94
:20E8A000E5D3C4F8A4710A2001F0D0FDC4F8A481BDE8F081000021422DE9F0410026134CC1
:20E8C0000546B0460127280602D5C4F89C7101E0C4F89C816806050E022001F0B7FDC4F843
:20E8E000A471022001F0B2FDC4F8A481022001F0ADFD761CF6B2082EE5D3C4F8A0710A2084
:20E9000001F0A4FDC4F8A081BDE8F0810080214200B50649098801EB4101054A02EB8111FE
:20E9200091F8BD00FAF736FE00BD0000420C0020581000200B4810B5008800EB40010A489B
:20E9400000EB81104FF4805190F8BF200748012A00D00AB9FCF742FCBDE810400A2001F072
:20E9600054BD0000420C002058100020000C014010B5FCF73FFCBDE81040FEF7C8B94FF0A6
:20E98000E02100200861704730B593B00120099001040A9100240B940D90022510951191E6
:20E9A0004FF4E010129009A8FDF700FA08B1FBF72FF90F200490059506944FF4806007905F
:20E9C0000894022104A8FDF7CBF808B1FBF720F9122000904FF40040029003946846FDF741
:20E9E00029F808B1FBF714F9FFF7C9FF13B030BD0D48016841F00101016041680B4A11402F
:20EA0000416001680A4A11400160016821F480210160416821F4FE0141604FF41F018160C4
:20EA20000549044808607047001002400000FFF8FFFFF6FE0084000808ED00E00148FEF743
:20EA400008BB00000C1000200148FEF702BB0000D00F0020F0B50268144B154C154D4FF04D
:20EA60008047984205D0B84203D0A04201D0A84203D122F070064A683243984205D0B8428A
:20EA800003D0A04201D0A84203D122F44074CA68224302608A68C2620A688262984201D157
:20EAA0000969016301214161F0BD0000002C0140000400400008004010B50123046A8B40F4
:20EAC0009C430462036A8A401343036210BDD0F81802002180F850100846704770B5D0F865
:20EAE00018420546204602F029FF402322460221284600F038FB002070BD10B50446812174
:20EB000000F03BFA0221204600F037FAD4F8180250B1D4F81C0204F50674806880472068AB
:20EB200000F042FD00202060002010BD10B5D0F81842E16C012908D1D0F81C022378617888
:20EB4000C268184690470020E064002010BD00002921018000487047F40B00200A21018070
:20EB6000004870472C0C002070B50646002540230322812100F0E4FA40230322022130468F
:20EB800000F0DEFA542000F011FDC6F8180278B10446002084F85000D6F81C0240688047A9
:20EBA000402322460221304600F0DDFA284670BD0125FBE702460220002902D00020C2F848
:20EBC0001C12704770B500220D78D0F81832144615F0600526D0202D4CD14A78921E0A2AA8
:20EBE0001CD2DFE802F010081B1B1B1B1B140C05887818643EE0012203F1400131E04888D7
:20EC0000000A586436E0012203F1440129E00122DA648A79194600F053F82BE000F045F87D
:20EC2000022070BD4D78062D04D00A2D1CD00B2D20D11DE04B882225B5EB132F07D1CA884A
:20EC40001D2A00D91D22D0F81C120C6808E02125B5EB132F04D1CA88074C092A00D909222A
:20EC6000214600F047F805E0012203F14801F8E788789864002070BD200C002010B5D0F8B8
:20EC8000142252689047002010BD134610B50A46002100F068FA002010BD134610B50A4684
:20ECA000002100F00AFB002010BD10B50446802100F0DAFA2046BDE81040002100F0D4BAE3
:20ECC00010B50323C0F80821C0F8F431C0F80C2113460A46002100F046FA002010BD10B5FA
:20ECE00005210023C0F8F4111A46194600F03BFA002010BD10B502238261C0F8F431C26170
:20ED000013460A46002100F0D8FA002010BD10B504210023C0F8F4111A46194600F0CDFA3A
