:020000040800F2
:20840000B034002009850008CBE4000899E00008C9E40008CD890008710D010800000000F0
:20842000000000000000000000000000CDEF0008B9AA000800000000AFE80008A9F50008C8
:20844000238500084FE80008238500082385000823850008238500082385000829AC0008E0
:2084600023850008238500082385000823850008A1AA0008ADAA000823850008238500082A
:208480002385000823850008238500082385000809080108238500082385000823850008F2
:2084A0002385000823850008238500082385000875F6000881F600082385000823850008AA
:2084C00023850008238500082385000823850008238500082385000823850008238500081C
:2084E000238500082385000823850008DFF80CD000F058F800480047B1200108B03400200C
:2085000000BF704700BF70470648804706480047FEE7FEE7FEE7FEE7FEE7FEE7FEE7FEE79D
:20852000FEE7FEE729F60008ED840008202A04DB203A21FA02F00021704721FA02F3D04049
:20854000C2F12002914008431946704740EA01039B0703D009E008C9121F08C0042AFAD2C4
:2085600003E011F8013B00F8013B521EF9D27047D2B201E000F8012B491EFBD27047002217
:20858000F6E710B513460A4604461946FFF7F0FF204610BD421C10F8011B0029FBD1801ABE
:2085A00070470000064C074D06E0E06840F0010394E8070098471034AC42F6D3FFF79AFF10
:2085C000883F0108A83F010870B58C1810F8015B15F0070301D110F8013B2A1106D110F86F
:2085E000012B03E010F8016B01F8016B5B1EF9D12B0705D40023521E0DD401F8013BFAE7BB
:2086000010F8013BCB1A921C03E013F8015B01F8015B521EF9D5A142D8D3002070BD0000CB
:2086200070B5044600688168C943C9071CD1816821F00101816003F01FFE05460FE000BFCB
:2086400003F01AFE401B022809D9A06A40F01000A062E06A40F00100E062012070BD2068C9
:208660008068C043C007EBD0002070BDF8B500260446009600688168C943C90728D081687F
:2086800041F001018160134813490068B0FBF1F000E0401E00900028FBD103F0EDFD054631
:2086A00011E000BF03F0E8FD401B02280BD9A06A40F01000A062E06A40F00100E06284F844
:2086C00024600120F8BD20688068C043C007E9D10020F8BD8400002040420F0010B500F08D
:2086E00093F8302000F0A4F8942000F0A1F8D12000F09EF8202000F09BF80B2000F0B2F8D7
:20870000812000F095F83F2000F0ACF8032000F0A9F8F02000F08CF8102000F0A3F8CA206B
:2087200000F086F8002000F09DF8872000F09AF8202000F097F8BC2000F07AF8002000F0F0
:2087400091F8A62000F074F8762000F071F8752000F06EF8002000F085F8282000F082F855
:20876000152000F065F8002000F07CF8FF2000F079F8312000F05CF8322000F059F800202B
:2087800000F070F8022000F06DF8012000F06AF8512000F04DF8FB2000F064F8402000F03A
:2087A00047F8F42000F044F8002000F05BF8002000F058F8002000F055F8002000F052F8C0
:2087C000002000F04FF8002000F04CF8002000F049F8002000F046F8F02000F029F81520F9
:2087E00000F040F8152000F03DF8152000F03AF8152000F037F8302000F01AF8BDE8104005
:20880000AF2000F015B8000010B5084C0020C4F8AC01322004F5D67408F015FC01202060EB
:20882000BDE81040322008F00EBC00000000224231B509490020C1F8A801084CC4F8BC0144
:208840000A2301226946064804F5DE7404F084FF0120206038BD00000000224200002142AC
:20886000C003002031B509480124C0F8A841084D0020C5F8BC010A2322466946054805F59E
:20888000DE7504F069FF2C6038BD00000000224200002142C003002000F0AEBE0448054908
:2088A000008800EB400001EB8010406901F0B8BB8E000020A0040020704770470448054902
:2088C000008800EB400001EB8010406901F0F8BC8E000020A0040020104810B5008800EB19
:2088E00040010F4800EB8110827BC17B02EBC20303EB021201EB8201A1F54061813908D03F
:208900008720084A00215318491C58700429FADB10BD406900F04CFFF3E700008E0000206A
:20892000A0040020A010002070B5274D04464FF0000649B114E001221146284603F096FC20
:20894000642008F096FB761CA642F4D334E001221146284603F08AFC642008F08AFB761CC1
:20896000A642F4D300220121284603F07FFC642008F069FB002608E001221146284603F05F
:2089800075FC642008F075FB761CA642F4D300220121284603F06AFC642008F054FB00263D
:2089A00008E001221146284603F060FC642008F060FB761CA642F4D32846BDE8704000229B
:2089C000012103F053BC000000080140FEE7000082B00848416941F040014161406900F06C
:2089E00040000190054904480860084602B003F069B800000010024000300240B8000020F4
:208A000010B508F085FE00F02DF8002000F088FB00F020FA00F0E4F9002000F081FB1020DB
:208A200000F00AFA00F0DCF90D48407840B10C48807828B10A48C07810B10948007960B92C
:208A400008F006FE002000F06BFB00F09BFC08F0F9FE00F04DFA00F0C3F900F0C1F910BDD4
:208A6000A010002010B504201149087018E0012000F056FB00F0EEF90E48407840B10D48E6
:208A8000807828B10B48C07810B10A48007900B90AE000F0A5F906480078801C0449087096
:208AA000034800780A28E2DB00BF00F099F910BD29030020A01000202DE9F04705460E46EE
:208AC00017464FF0A5084FF00009A94600F01AFC4FF46810BE4908604FF48020BD49086095
:208AE000002426E008F0010020B14FF47070BA49086103E04FF07070B7490861B748006821
:208B000080473A20B24908600420B2490860B348006880474FF46810AD4908604FF4802024
:208B2000AC4908604FEA5808AC4800688047601CC4B2082CD6DB4FF47070A7490861A748DA
:208B4000006880473A20A24908600420A1490860A248006880474FF468109D4908604FF45E
:208B600080209C4908609D48006880473A20984908600420974908609848006880474FF493
:208B80006810934908604FF48020924908609348006880473A208E49086004208D490860EE
:208BA0008E48006880474FF46810894908604FF48020884908608948006880473A20844978
:208BC00008600420834908608448006880474FF468107F4908604FF480207E4908607F4816
:208BE000006880473A207A4908600420794908607A48006880474FF46810754908604FF45E
:208C0000802074490860754800688047002425E007F0010020B14FF470706F49086103E08A
:208C20004FF070706C4908616C48006880473A206749086004206749086068480068804787
:208C40004FF46810624908604FF48020614908607F10624800688047601CC4B2102CD7DB09
:208C6000002425E006F0010020B14FF470705A49086103E04FF070705749086157480068C2
:208C800080473A20524908600420524908605348006880474FF468104D4908604FF4802023
:208CA0004C49086076104D4800688047601CC4B2062CD7DB002426E009F0010020B14FF45F
:208CC00070704549086103E04FF07070424908614248006880473A203D49086004203D491C
:208CE00008603E48006880474FF46810384908604FF48020374908604FEA69093748006856
:208D00008047601CC4B2082CD6DB85EA251585EAA50585EA650505F0010020B14FF4707030
:208D20002D49086103E04FF070702B4908612B48006880473A2026490860042025490860A8
:208D40002648006880474FF46810214908604FF48020204908602148006880474FF470707A
:208D60001D4908611D4800688047002415E03A2017490860042017490860184800688047DA
:208D80004FF46810124908604FF4802011490860124800688047601CC4B2032CE7DB3A20EA
:208DA0000B49086004200B4908600C48006880474FF46810064908604FF480200549086089
:208DC00006480068804700F0C1FABDE8F0870000100C014010140140001001402C030020ED
:208DE00010B54FF468100F4908604FF480200E4908604FF070700D49086100200C490860D6
:208E00001E2008F015F901200A49C1F88801142008F00EF90020064930390860192008F0B4
:208E200012F910BD100C01401014014000100140B80122420000224210B50446062008F099
:208E400002F9002221461046FFF736FE0F2008F0FAF810BD1CB54FF4004220210020FFF77B
:208E60002BFE01A800F07CF8684600F079F8002417E001A8005D87280ED11DF804000128BC
:208E80000AD11A48005D18B11848005D012806D100211648015502E0982114480155601C14
:208EA000C4B2042CE5DB9DF80400872803D19DF80000012819D09DF80500872803D19DF8D7
:208EC0000100012811D09DF80600872803D19DF80200012809D09DF80700872803D19DF81C
:208EE0000300012801D0FFF77BFF1CBDA110002038B5002202211046FFF7DEFD002527E0D6
:208F0000684600F02DF800240BE01DF80400552805D01248005D10B9932110480155601CB6
:208F200084B2042CF1DB9DF8000055280ED09DF8010055280AD09DF80200552806D09DF8A3
:208F40000300552802D0FFF74BFF38BD681C85B2B5F5006FD4DB00BFF7E70000A110002099
:208F600070B5044600F0CEF9052008F082F86848006820F07F4040F08840654908600846F1
:208F8000406820F0FF0040F04400486008040861052008F06EF8002541E020784010207048
:208FA000607840106070A0784010A070E0784010E0703A205749086004205749086057481C
:208FC000006880475248806800F4007010B12078803020704E48806800F4807010B16078E8
:208FE000803060704A48806800F0800010B1A0788030A0704648806800F0400010B1E078AF
:209000008030E0704FF46810424908604FF4802041490860414800688047681CC5B2082DE5
:20902000BBDB3E48006880473A203A4908600420394908603948006880474FF468103549A9
:2090400008604FF48020344908603448006880472F48006820F07F4040F088502C490860A2
:209060000846406820F0FF0040F011004860881408614FF0707008612848006880473A207C
:20908000244908600420244908602448006880474FF468101F4908604FF480201E4908602A
:2090A0001E48006880473A201A49086004201A4908601A48006880474FF4681015490860F5
:2090C0004FF48020144908601448006880473A2010490860042010490860104800688047D6
:2090E0004FF468100B4908604FF480200A4908600A48006880473A20064908600420064956
:20910000086006480068804700F020F9002070BD00100140100C0140101401402C030020B2
:2091200070B506464FF46810704908604FF480206F4908604FF070706E490861642007F025
:2091400098FF00206C490860322007F071FF01206A49C1F8B8016A48007807F074FF3A204E
:20916000624908600420624908600A2007F081FF00240FE04FF070705E4908610A2007F0A1
:2091800078FF4FF470705B4908610A2007F071FF601CC4B20D2CEDDB0A2007F06AFF0024F6
:2091A00015E04FF46810514908604FF48020504908600A2007F05DFF3A204C490860042021
:2091C0004B4908600A2007F054FF601CC4B20D2CE7DB0A2007F04DFF00240FE04FF0707093
:2091E000444908610A2007F044FF4FF47070414908610A2007F03DFF601CC4B20D2CEDDBAF
:209200001EB90A2007F035FF02E00A2007F01BFF4FF46810354908604FF48020344908609C
:209220004BF25A15002428E005F4004020B14FF470703049086103E04FF070702D49086166
:209240000A2007F016FF3A20284908600420284908600A2007F00DFF4FF4681023490860EC
:209260004FF48020224908604FF6FF7000EA45050A2007F0FEFE601CC4B2102CD4DB0A202C
:2092800007F0F7FE4AF21B55002428E005F4004020B14FF470701749086103E04FF0707012
:2092A000144908610A2007F0E4FE3A200F49086004200F4908600A2007F0DBFE4FF4681032
:2092C0000A4908604FF48020094908604FF6FF7000EA45050A2007F0CCFE601CC4B2102C35
:2092E000D4DB1E2007F0AFFE70BD0000100C0140101401400010014088012242000022424C
:209300002903002010B54FF470700D4908613A200C49086004200C490860052007F0A9FE9F
:209320004FF0707006490861052007F0A2FE4FF46810044908604FF480200349086010BDC6
:2093400000100140100C01401014014010B54FF07070094908613A200849086004200849D3
:209360000860052007F085FE4FF4707002490861052007F07EFE10BD00100140100C0140FC
:209380001014014070B55525002204212846FFF793FB0A2007F06DFE0A2007F06AFE0A2051
:2093A00007F067FE012407E0284600F00BF80A2007F05FFE601C84B2B4F5006FF4DB0020AD
:2093C00070BD000070B504462546FFF79BFF4FF46810664908604FF4802065490860002605
:2093E00025E005F0010020B14FF470706149086103E04FF070705F4908615F480068804782
:209400003A205A4908600420594908605A48006880474FF46810554908604FF480205449A7
:2094200008606D10544800688047701CC6B2082ED7DB84EA241484EAA40484EA640404F00A
:20944000010020B14FF470704A49086103E04FF07070484908614848006880473A2043497A
:2094600008600420424908604348006880474FF468103E4908604FF480203D4908603E48B2
:20948000006880473B48006820F07F4040F08840384908600846406820F0FF0040F0440089
:2094A0004860080408613448006880473A202F49086004202E4908602F48006880474FF4BE
:2094C00068102A4908604FF48020294908602A48006880472748006820F07F4040F088502D
:2094E000244908600846406820F0FF0040F011004860881408614FF0707008611E4800684E
:2095000080473A20194908600420194908601A48006880474FF46810144908604FF480207E
:20952000134908601448006880473A200F49086004200F4908601048006880474FF468109C
:209540000A4908604FF48020094908600A48006880473A20054908600420054908600648FA
:2095600000688047FFF7F2FE70BD0000100C014010140140001001402C030020F0B51D4C39
:20958000D120214601F01AF945F65A252946DD2001F084F92146D12001F010F94AF2A55652
:2095A0003146DD2001F07AF9211DD12001F006F94FF0FF373946DD2001F070F92146D12011
:2095C00001F0FCF82946DD2001F068F92146D12001F0F4F83146DD2001F060F90549D120B6
:2095E000083101F0EBF83946BDE8F040DD2001F055B900000C0402402DE9F05FDFF8808080
:209600004FF468170025C8F800701E494FF480200860DFF874A04FF07079CAF810901B4CA5
:209620002E46C4F88851322007F002FD4FF0010BC4F8B8B100F098FF154800F00FF900F09D
:20964000D7F96D1CEDB2052DF4D3C8F800700D494FF480200860CAF810900F2007F0E8FCDC
:20966000C4F8B8611E2004F5C47407F0E1FCC4F800B0142007F0DCFC2660BDE8F09F0000A9
:20968000100C0140101401400010014000002242A110002008B1034800E00348034948605F
:2096A0007047000005850008018500083003002070B53C4C88B02146D12001F07FF845F6A0
:2096C0005A21DD2001F0EAF82146D12001F076F84AF2A551DD2001F0E1F8324DD1200C3DD6
:2096E000294601F06BF80321DD2001F0D7F80321D12001F063F80221DD2001F0CFF82A4C17
:20970000601C00F0ABF8412007F092FC601C00F0A5F82946D12001F051F86946F92000F0F9
:20972000A7FE04A9BD2000F0A3FE00206A4604AB5FF09A0552F8201039B153F820100329F1
:2097400003D021184E7806B94D70401CC0B20428F0D3009810B3049803281FD00198E8B1BB
:20976000059803281AD00298C0B10698032815D0039898B10798032810D00C4C0025C4F8B7
:20978000B8511E2004F5C47407F052FC01202060142007F04DFC256008B070BD822007F0F4
:2097A00047FCF9E70C040240A0100020000022422DE9F05FDFF89090C0F3C7280027B9F82A
:2097C00000003C4648B14FF4602101EB404600254FF4006ADFF874B01EE04FF48036F6E737
:2097E00052461B49304605F0E1F8194A00205346115C401C0F4480B2BFB20C449842F7D35A
:2098000020460024B0F5FF2F16D001210BF805106D1CEDB206F500664545E1D3B9F8000053
:209820000C4900EB400001EB8010B0F86600B84208D08620BDE8F09F07490878401C0870CE
:209840000021E3E70020F5E78E000020902C0020B0120020A0040020300300202DE9FF4346
:209860004FF000098046CDF80090CDF80490CDF80890A520CDF80C9000F064FF584801684D
:2098800021F07F4141F088410160416821F0FF0141F0440141600104016100BF00273A2321
:2098A00050490424504A1D0426040B60146000BF0D60166000BF7F1CFFB2032FF5D3002755
:2098C000DDF800C04FEA5C0CCDF800C0DDF804C04FEA5C0CCDF804C0DDF808C04FEA5C0CCC
:2098E000CDF808C0DDF80CC04FEA5C0CCDF80CC00B60146000BF0D60166000BFD0F808C038
:209900005FEA8C5C05D5DDF800C04CF0004CCDF800C0D0F808C05FEACC5C05D5DDF804C026
:209920004CF0004CCDF804C0D0F808C05FEA0C6C05D5DDF808C04CF0004CCDF808C0D0F871
:2099400008C05FEA4C6C05D5DDF80CC04CF0004CCDF80CC07F1CFFB2202FB1D300270B60F9
:20996000146000BF0D60166000BF7F1CFFB2022FF5D34FF070770761076827F07F4747F0BC
:2099800088570760476827F0FF0747F0110747604FF48057076100BF00270B60146000BFB9
:2099A0000D60166000BF7F1CFFB2032FF5D34FF47071016100200D4C6A4698234FEA090112
:2099C00052F82050A54202D008F8003001E008F80010401CC0B20428F2D3BDE8FF8300000D
:2099E00000100140100C0140101401407714C10B2DE9FF4F812000F0A5FEFE4C206820F083
:209A00007F4040F088402060606820F0FF0040F044006060200420613A250023F64A042673
:209A2000F64F2904801215603E6000BF1160386000BF5B1CDBB2032BF5D34FF070732361E8
:209A4000924615603E6000BF00BF8846EA4A11608146386000BF00BFE74805603E6000BF5C
:209A600000BFE549C1F80080C7F8009000BF00BF206820F07F4040F088502060606820F03C
:209A8000FF0040F0110060604FF48050206100BF00BF1F2000F018FE4FF470702061D648AD
:209AA00005603E6000BFD449C1F80080C7F8009000BF8D2000F046FE206820F07F4040F018
:209AC00088402060606820F0FF0040F0440060604FF08050206100225146434648460D6066
:209AE0003E6000BF0B60386000BF521CD2B2032AF5D3D1460D60C1490E6000BFBE494FF45B
:209B000068170F60BD4982468046086000BFBA480560BA48066000BFB7480760B749C1F8EF
:209B2000008000BF206820F07F4040F088502060606820F0FF0040F0110060604FF480501C
:209B400020614FF470702061002000F0BDFDAA480560AA48066000BFA7480760A749C1F8A9
:209B6000008000BF4FF47070206100BF00BF00BF00BF00BF00BFBD2000F0E4FD206820F042
:209B80007F4040F088402060606820F0FF0040F0440060604FF0805020614F46974C00205B
:209BA0004FF46818D1463D60266000BFC7F80080C4F8009000BF401CC0B20328F3D3684632
:209BC00000F0D4FB3A21BA46384639603246266000BFC0F80080C4F8009000BF0160226071
:209BE00000BFC0F80080C4F8009000BF0160226000BFC0F80080C4F8009000BF7D4D286824
:209C000020F07F4040F088502860686820F0FF0040F011006860A81428614FF4707028610C
:209C200000BF00BF00BF952000F08CFD286820F07F4040F088402860686820F0FF0040F0CB
:209C4000440068604FF08050286100213A2750460760266000BFC0F80080C4F8009000BF59
:209C6000491CC9B20329F3D3634D2F60266000BFC246C5F80080C846C4F8009000BF2F60A1
:209C8000266000BFC5F800A0C4F8008000BF4FF0A04000F019FD2F60266000BFC5F800A0D1
:209CA000C4F8008000BF2F60266000BFC5F800A0C4F8008000BFDFF83CB14FF470705D46F3
:209CC000CBF81000B12000F03DFD286820F07F4040F088402860686820F0FF0040F0440084
:209CE00068604FF080502861434DB146002056462F60C4F8009000BF2E60C4F8008000BF9E
:209D0000401CC0B20328F3D3684600F02FFB28462F604946C4F8009000BF0660C4F8008083
:209D200000BF0760216000BF0660C4F8008000BF0760216000BF0660C4F8008000BF00BF95
:209D400000BF952000F0FEFCDBF8001021F07F4141F08841CBF80010DBF8041021F0FF012C
:209D600041F04401CBF804104FF08051CBF81010002148462F60206000BF2E60C4F800805C
:209D800000BF491CC9B20329F4D3B9462F608246206000BF2E60C4F8008000BFC5F80090C6
:209DA000C4F800A000BF2E60C4F8008000BF4FF0A84000F089FC00BF4FF470705F46CBF819
:209DC0001000C5F80090C4F800A000BF2E60C4F8008000BF00BF00BF952000F0B3FC386810
:209DE00020F07F4040F088403860786820F0FF0006E0000000100140100C0140101401401C
:209E000040F0440078604FF08050386100214A46574640462A60276000BF2E60206000BFDD
:209E2000491CC9B20329F5D391462A60A246276000BF4FF468162E608046206000BFC5F8AE
:209E40000090276000BF2E60C4F8008000BF514800F03AFC00BF00BFC5F80090276000BFD3
:209E60002E60C4F8008000BF4B4C4FF47070206100BF00BFB12000F065FC206820F07F4027
:209E800040F088402060606820F0FF0040F0440060604FF0805020614C46002056464FF41E
:209EA00068192C60376000BFC5F80090C6F8008000BF401CC0B20328F3D3684600F056FA48
:209EC000A24620462C60BB463946376000BF4C46C5F800904746C6F8008000BF2860316050
:209EE00000BF2C60376000BF2860316000BF2C60376000BF00BF00BFC52000F023FC264827
:209F0000016821F07F4141F088410160416821F0FF0141F0440141600104016100215246BB
:209F20005B462A60336000BF2C60376000BF491CC9B20329F5D391462A609846336000BF5D
:209F40002C60376000BFC5F80090C6F8008000BF2C60376000BF4FF4707A8346C0F810A095
:209F60000E4800F0B1FB00BF00BFC5F80090C6F8008000BF2C60376000BFCBF810A0084981
:209F8000D12000F01BFC0749DD2000F087FCBDE8FF8F0000000F00500010014052000023B1
:209FA000F0ED00E003005FA070B51C4CD120214600F004FC45F65A252946DD2000F06EFC8D
:209FC0002146D12000F0FAFB4AF2A5563146DD2000F064FC211DD12000F0F0FB0021DD2021
:209FE00000F05CFC2146D12000F0E8FB2946DD2000F054FC2146D12000F0E0FB3146DD20AB
:20A0000000F04CFC0549D120083100F0D7FBBDE870400021DD2000F041BC00000C0402401C
:20A020002DE9F14F002707F013FBDFF814A14FF46819CAF8009043494FF4802BC1F800B019
:20A0400041494FF070700861DFF8008100254446C8F88851322006F0EBFF0126C4F8B86120
:20A060003B4C6670A670E67084F8046000F07CFA601CFFF7F3FBFFF7BBFC7F1CFFB2052F44
:20A0800008D0607830B1A07820B1E07810B120790028EBD15FF00007FFF7AAFC7F1CFFB272
:20A0A000282FF9D300F060FA601CFFF7D7FBFFF79FFC607830B1A178204619B1C17809B169
:20A0C0002079F8B9FFF75AFAFFF7F2FA607828B1A07818B1E07808B1207998B9502006F017
:20A0E000C8FF009800F07AFA07F0ACFB009800F035F818481849057000200D54401CC0B2C5
:20A100002028FAD30A2006F093FFCAF800900D49C1F800B00C494FF0707008610F2006F065
:20A1200087FFC8F8B8511E2008F5C47406F080FF2660142006F07CFF2560BDE8F88F00000C
:20A14000100C0140101401400010014000002242A010002030030020902C00202DE9FF5F15
:20A160000146002000900190029003903648008850B14FF4602202EB40460027C1F3C72A27
:20A180003D46DFF8C8B059E04FF48036F5E73048405DE0B34FF400622E49304604F006FCAF
:20A1A0005FF0000407EB8400694600F04DF929486B4600EB84004FF0930CC27801680020BF
:20A1C00062F31F615A4600BF53F82080884508D002EB000999F80180B8F1000F01D189F8A8
:20A1E00001C0401CC0B20428EED3009888421BD00198884218D00298884215D0039888429D
:20A2000012D0154C0025C4F8B8511E2000E00FE004F5C47406F00CFF01202060142006F007
:20A2200007FF2560BDE8FF9F641CB4F5007FB9D36D1CEDB206F5006607F500675545A6D31D
:20A24000FFF7B2FEEEE700008E000020A0100020902C0020B0120020000022422DE9FF4787
:20A260000025C0F3C7272E4621E0DFF8508000244FF4007905EB8400694600F0E5F8009894
:20A2800008EB8401020ECA70009A120C8A70009A120A4A70009908F82410641C4C45E9D340
:20A2A0004FF4006008F030FA05F50065761CBE42DBD304B00020BDE8F0870000B012002068
:20A2C0002DE9F0478146002607F0F2F922494FF46810086021494FF48020086020494FF077
:20A2E000707008611F4D0027C5F88871322006F09FFE4FF00108C5F8B8811B4C84F8018045
:20A3000000F032F9601CFFF7A9FAFFF771FB761CF6B2052E02D060780028F1D1FFF744FE72
:20A32000FFF72CF94846FFF799FF607810B107F0ABFB01E007F002F9C5F8B8711E2005F5BF
:20A34000C47506F075FEC5F80080142006F070FE2F600020BDE8F087100C014010140140F9
:20A360000010014000002242A0100020F0B533490A6822F07F4242F088420A604A6822F0C8
:20A38000FF0242F044024A600A040A6100223A252B4B04262B4C2F044FF4802ED0F800C0DD
:20A3A0004FEA5C0CC0F800C0D0F804C04FEA5C0CC0F804C0D0F808C04FEA5C0CC0F808C02A
:20A3C000D0F80CC04FEA5C0CC0F80CC01D60266000BF1F60C4F800E000BFD1F808C05FEA4E
:20A3E0008C5C05D5D0F800C04CF0004CC0F800C0D1F808C05FEACC5C05D5D0F804C04CF06F
:20A40000004CC0F804C0D1F808C05FEA0C6C05D5D0F808C04CF0004CC0F808C0D1F808C01F
:20A420005FEA4C6C05D5D0F80CC04CF0004CC0F80CC0521CD2B2202AB0D3F0BD00100140E4
:20A44000100C0140101401401FB500220C460146009201920292D120039200F0AFF9694625
:20A46000F92000F005F82146BD2000F001F81FBD2DE9F34F00F066F9384C4FF07070206102
:20A48000374D3A272F60374E04213160206820F07F4040F088402060606820F0FF0040F037
:20A4A000440060604FF0805BC4F810B000BF002088464FF4681A4FF4802900BFC5F800A088
:20A4C000C6F8009000BFA168A168A168A1682F60C6F8008000BF401CC0B20328EED301986C
:20A4E000FFF744FF206820F07F4040F088402060606820F0FF0040F044006060C4F810B0CD
:20A500002F604146C6F8008000BF5246C5F800A04B46C6F8009000BF206820F07F4040F00E
:20A5200088502060606820F0FF0040F0110060604FF48050206100202F60316000BF2A60CE
:20A54000336000BF401CC0B20228F5D300BF4FF47070206100BFBDE8FC8F00000010014046
:20A56000100C014010140140F0B5194A106820F07F4040F088501060506820F0FF0040F05B
:20A5800011005060901410614FF4707010613A24002310480425104926042F0400BF046076
:20A5A0000D6000BF06600F605B1CDBB2382BF5D34FF070731361002200BF04600D6000BF64
:20A5C00006600F60521CD2B2032AF5D3F0BD000000100140100C0140101401402DE9F05F9A
:20A5E00001461A48008870B14FF4602202EB40460027C1F3C7283D46DFF854B0DFF85490EE
:20A600004FF4007A1EE04FF48036F1E71BF8050098B14FF400620F49304604F0C7F9002402
:20A6200009EB8400C278016807EB840062F31F6100F012F8641C5445F2D36D1C06F50066F2
:20A6400007F500674545E1D3BDE8F09F8E000020902C0020B012002070B51A4E0D4604468F
:20A660003146D12000F0AAF845F65A21DD2000F015F93146D12000F0A1F84AF2A551DD200F
:20A6800000F00CF90F4ED1200C3E314600F096F80121DD2000F002F92146D12000F08EF860
:20A6A0002946DD2000F0FAF83146812000F086F83146812000F082F83146BDE870408120D7
:20A6C00000F07CB80C0402402DE9F0471A490A6822F07F4242F088520A604A6822F0FF02D4
:20A6E00042F011024A608A140A614FF070730B61994600223A26114B0425114C4FF4707A64
:20A7000037044FF4802C00BF5FEAC07801D0D04600E0C846C1F8108000BF1E60256000BF30
:20A720001F60C4F800C000BF4008521CD2B2202AEAD3BDE8F087000000100140100C014054
:20A74000101401402DE9F04719490A6822F07F4242F088520A604A6822F0FF0242F0110220
:20A760004A608A140A6100223A26124B0425124C4FF4707A4FF0707937044FF4802C00BF82
:20A780005FEA006801D5D04600E0C846C1F8108000BF4006000E1E60256000BF1F60C4F8D5
:20A7A00000C000BF521CD2B2082AE9D3BDE8F08700100140100C0140101401402DE9F04FB6
:20A7C0008B46FFF7BFFF314E306820F07F4040F088403060706820F0FF0040F0440070605B
:20A7E0003004306100212A483A272A4C2A4D04224FF4681C4FF4802827602A6000BFD0F843
:20A800002431D0F82031D0F81C31D0F81831C4F800C0C5F8008000BF491CC9B20329EBD362
:20A820002760924610462A6000BFE1466146C4F800C04246C5F8008000BF2760286000BF7E
:20A8400021602A6000BF5846FFF73EFF584606F0B0FBC1074FF470700AD000BF3061276082
:20A86000C5F800A000BFC4F80090C5F800800AE000BF2760C5F800A000BFC4F80090C5F8DE
:20A88000008000BF306100BFBDE8F08F0010014000002242100C0140101401402DE9F04F39
:20A8A0008B46FFF74FFF334E306820F07F4040F088403060706820F0FF0040F044007060E8
:20A8C0003004306100212C483A272C4C2C4D04224FF4681C4FF4802827602A6000BFD0F85C
:20A8E0002431D0F82031D0F81C31D0F81831C4F800C0C5F8008000BF491CC9B20329EBD382
:20A900002760924610462A6000BFE1466146C4F800C04246C5F8008000BF2760286000BF9D
:20A9200021602A6000BF5846FFF7CEFE584606F040FBC1074FF470700BD000BF3061276081
:20A94000C5F800A000BFC4F80090C5F8008000BF0DE000BF4FF0707131612760C5F800A051
:20A9600000BFC4F80090C5F8008000BF306100BFBDE8F08F0010014000002242100C01404A
:20A980001014014000207047002070470020704770B50024064D07E0165D4640F6B2641C29
:20A9A00055F8266086EA10209C42F5D3484070BD9C30010810B500210A464FF4806300BFD9
:20A9C00010F8014B521C21449A42F9D3084610BD2DE9F8432748294F002501784278DFF826
:20A9E000989001EB02218278C078120402EB006001EB00083878A52801D100203870204818
:20AA0000FDF7C8FDC1B21E4807F0F6FD04461D481D49008800EB400201EB821109EB4040FD
:20AA2000CA7B897B00F59C0001EBC10303EB011102EB81060422694603F0B8FF9DF8000004
:20AA4000DDF80110B8F1D70F40EA01200FD0B44201D004B10125B44203D10C49096888425B
:20AA600001D1002D03D0A520387001F0C7FCBDE8F8830000F87F0008F87B0100F84F002069
:20AA8000C0FF01088E000020A0040020F8FF010810B504F06BFDBDE8104004F057BD00005E
:20AAA000014801F021B8000024120020014801F01BB800005C120020704710B5040016D02C
:20AAC0004FF49E2000EB0431002000F0D7F84FF4602000EB4441012000F0D0F84FF4702097
:20AAE00000EB4441BDE81040012000F0C7B80021012000F0C3F84FF48031012000F0BEF8B9
:20AB00004FF44031EEE70000F0B5074635A00E4691B007C801AB83E8070035A004AB07C810
:20AB200083E8070035A207AB07CA83E8070036A00AAB07C883E8070036A20DAB07CA83E83F
:20AB40000700002006F03EFA0C244EB1300909282ED2DFE800F02D2022242D2D262D2800E8
:20AB6000012F06D0022F06D0032F06D0062F07D105E001AD04E004AD02E00AAD00E007AD5E
:20AB800010232A4605211846009406F0D7FA1023234A00941CE001AD0AE004AD08E00AAD1B
:20ABA00006E007AD04E006F00F00082800D10DAD10232A4605211846009406F0BFFA194A8A
:20ABC0000221304607F078FD164A1023083A00940521702006F0B2FA4FF4FA7006F028FAEA
:20ABE00011B0F0BD2056444420434845434B20202056505720434845434B202020464C415D
:20AC00005348205445535420434F4E4E4543542054455354205245414420434F554E5420AA
:20AC2000E100002009020020022001F035BA000000B585B00E48816941F0040181618069BB
:20AC400000F004000090022001900A4802900120039001A9084801F02BFA02221146072073
:20AC600001F09AFB072001F081FB05B000BD00000010024000002110000801402DE9F04135
:20AC80000C46074606F020F906F068F9DFF85C8000221021404601F0E9FA154D27B1012FE5
:20ACA00004D0022F04D11FE0202000E0D82028704FF47A76334601220D490E4802F04CFD55
:20ACC000022F0AD0200C2870200A6870AC70334603220749074802F03FFD4046BDE8F041C0
:20ACE0000122102101F0C2BAC720E0E7000801405802002068030020FEE700000649002043
:20AD0000C8610648016941F004010161016941F04001016170470000702C002000200240A7
:20AD20002DE9F047DFF89C80D8F820104CF250390143CFB2C1F30726C1F307450C0E4846BE
:20AD400000F01EF900283BD11F49C86101F08AF8002835D1D8F8102042F01002C8F8102052
:20AD6000FF2F07D01948018839430180484600F007F9F8B9FF2E08D01448801C01883143BE
:20AD80000180484600F0FCF8A0B9FF2D08D00F48001D018829430180484600F0F1F848B911
:20ADA000FF2C07D00948801D018821430180484600F0E6F8D8F8102022F01002C8F81020C5
:20ADC000BDE8F08700200240702C002008F8FF1F2DE9F047DFF89C80D8F820104CF2503914
:20ADE0008143CFB2C1F30726C1F307450C0E484600F0C6F800283BD11F49C86101F032F8F7
:20AE0000002835D1D8F8102042F01002C8F81020FF2F07D01948018839400180484600F069
:20AE2000AFF8F8B9FF2E08D01448801C018831400180484600F0A4F8A0B9FF2D08D00F4874
:20AE4000001D018829400180484600F099F848B9FF2C07D00948801D018821400180484669
:20AE600000F08EF8D8F8102022F01002C8F81020BDE8F08700200240702C002008F8FF1FF0
:20AE80000449A520C96901F00201022900D10020704700000020024070B506464CF2503511
:20AEA000284600F06DF8002820D11149C861114C206940F020002061206940F04000206102
:20AEC000284600F05DF8216921F02001216100280CD1206940F010002061074806802846EF
:20AEE00000F04EF8216921F01001216170BD0000702C00200020024000F8FF1F064A00211C
:20AF0000D16106490A6942F002020A614861086940F0400008617047702C002000200240D4
:20AF2000044B0022DA61044A136943F00103136101807047702C0020002002400E49C86813
:20AF4000C2060E4803D5C26942F00202C261CA68520703D5C26942F00102C261CA69D20785
:20AF600007D0C26942F00402C261C86920F00100C8611420C860704700200240702C0020D8
:20AF800070B5054601F078F90646114C09E0681C07D025B101F070F9801BA84201D9032040
:20AFA00070BDE068C007F2D1E068800601D52020E060E068C00605D4E069C00702D1E0685C
:20AFC000400703D5FFF7BAFF012070BD002070BD002002403EB5174B044600250A21186837
:20AFE00003E0B0FBF1F06D1CEDB20028F9D16A462946186807F048FB9DF8000020702E207C
:20B0000060709DF80110A170E0709DF8020020719DF8030060712020A071002069462D1F5C
:20B0200005E00A1823181279401CDA71C0B2A842F7DB3EBDF8FF010810B504F02FFAFF2072
:20B0400004F058FA0A2005F0FEFFF02004F052FA0A2005F0F8FFBDE81040FF2004F04ABA1C
:20B060002DE9F05F00263446E1B2002006F040FF21040120FFF702FE641CA4B2072CF3D3D8
:20B080006A4D00244FF480574FF4402B04F10C00C1B2002006F02CFF0BEB044080463A46D8
:20B0A000624903F083FC0020295CFF2904D1401C80B2B842F8D326B141460120FFF7DEFD2E
:20B0C0000026641CA4B2622CE0D34FF000084FF4807904E0B8F1000F01D0552600E0AA2618
:20B0E00008F1010A0AF0FF00002106F001FF4F4D00202E54401C80B2FF28FAD900273C46CD
:20B100004A464A49384605F009FF641CA4B207F58037072CF4D300273C464A4643493846CB
:20B1200003F044FC002007F58037295CB14256D1401C80B2FF28F8D9641CA4B2072CECD31C
:20B14000002421040020FFF799FD641CA4B2072CF7D3B8F1000F01D0552400E0AA240AF07D
:20B16000FF00002106F0C4FE00202C54401C80B2FF28FAD95F460026C84642462B4938467C
:20B1800005F0CCFE761CB6B207F58037622EF4D35E46002742462549304603F007FC00209F
:20B1A00006F58036295CA14219D1401C80B2FF28F8D97F1CBFB2622FECD34FF448270026D2
:20B1C00042461A49384605F0A9FE42461749384603F0ECFB002029460A5CA24202D06020FF
:20B1E000BDE8F09F401C80B2FF28F5D9761CB6B207F58037622EE3D300245D464FF448262D
:20B2000005EB04410020FFF739FD06EB04410020FFF734FD641CA4B2622CF1D31FFA8AF86D
:20B22000B8F1020FFFF456AF0020D9E7B01200202DE9F0470D4681460026FF224FF48051D8
:20B240001048FDF795F94FF48067DFF8388014E0BD4201D2ACB200E03C462246094948468D
:20B2600003F0A4FB0020414603E00A5C401C164480B2A042F9D3A1442D1B002DE8D130462D
:20B28000BDE8F087B01200202DE9F05F0C4607460025FF224FF480512F48FDF769F94FF442
:20B2A000803290112C4994424ED9924680468946444501D2A6B200E04646324626493846D7
:20B2C00003F074FB0020494603E00A5C401C154480B2B042F9D3A41B37445445E8D8DFF805
:20B2E0007CA04FF4403B74B34646B44200D2A6B2BAF800001849324628B1384603F056FB7B
:20B300000020494605E05846F8E70A5C401C154480B2B042F9D33744A41BE4E74E46B44282
:20B3200000D2A6B232460C49384603F03FFB0020414603E00A5C401C154480B2B042F9D3D6
:20B340003744A41B02E003E081468846002CE5D12846BDE8F09F0000B01200208E00002045
:20B360007FB50446102269496846FDF7EFF8E5202070422060707A20A07003F007FD644EC8
:20B38000307803F041FB03F067FC6249002023180A5C401CC0B2DA701028F8D35E480188CA
:20B3A000090AE174007820755C480168090E61750168090CA1750188090AE175007820768A
:20B3C0005749002042182318401C92F8E827C0B25A760C28F6D3534D00203188221801EB45
:20B3E000410105EB8111095C401CC0B282F825100E28F2D33088102200EB400005EB801116
:20B4000011F80E0F84F83300487884F8340031F8360F000A84F8350011F8220B84F83600D6
:20B420000888000A84F8370011F8040B84F838000888000A84F8390011F8040B84F83A00D6
:20B440000888000A84F83B0011F85E0984F83C0011F8140B84F83D0004F14000FDF776F8FB
:20B46000308800EB400005EB801090F8461084F8501090F8641084F85110806CC4F85200DC
:20B480000020318801EB410105EB811101EB4001B1F84C2004EB400121F8562F328802EB6C
:20B4A000420205EB821202EB4002B2F854200A81328802EB420205EB821202EB4002401CF2
:20B4C000B2F85C20C0B20A820428DAD31649308801EB001100EB4000096805EB801044F803
:20B4E0006E1F818BA180C18BE180018C2181418C618190F8BC10A17390F8BD10E17390F86E
:20B50000BE10217490F8BF0060747FBDC0FF01088E000020E0FF0108FC7F0008F8FF010890
:20B5200000F0FF1FA0040020B4100020F8B500250446009590F82400012808D0012084F85A
:20B5400024002046FDF76CF8060002D04BE00220F8BDA06A20F4885040F00200A0620220E3
:20B5600001F038FA22490968B1FBF0F0400000E0401E00900028FBD12046FDF777F82068ED
:20B58000816841F00801816000F076FE074604E000F072FEC01B0A2811D820688068000745
:20B5A000F6D42068816841F00401816000F064FE07460EE000F060FEC01B0A2809D9A06A65
:20B5C00020F0020040F01000A06284F824500120F8BD206880684007ECD4A06A20F00200BE
:20B5E00040F00100A06284F824503046F8BD000084000020F8B50025009590F82420AE4632
:20B60000012A1ED0012280F824204A681F244FF47873072A17D20668776B93FAA3FCBCFAC3
:20B620008CFC521E02FB0CFC04FA0CF4A74393FAA3F3B3FA83F30C685A43944027437763B6
:20B640002DE00220F8BD06680D2A14D2376B93FAA3FCBCFA8CFCD21F02FB0CFC04FA0CF47B
:20B66000A74393FAA3F3B3FA83F30C685A4394402743376313E0F76A93FAA3FCBCFA8CFCF3
:20B680000D3A02FB0CFC04FA0CF4A74393FAA3F3B3FA83F30C685A4394402743F7620A6816
:20B6A0003823072406680A2A14D3F76893FAA3FCBCFA8CFC0A3A02FB0CFC04FA0CF4A74381
:20B6C00093FAA3F3B3FA83F38C685A4394402743F76012E0376993FAA3FCBCFA8CFC02FB05
:20B6E0000CFC04FA0CF4A74393FAA3F3B3FA83F38C685A439440274337610A68102A01D030
:20B70000112A20D1124B02689A4217D193681B0219D4936843F4000393600968102912D1B8
:20B720000C490D4A0968B1FBF2F101EB8101490000E0491E00910029FBD104E0816A41F0D9
:20B7400020018162012580F824E02846F8BD0000002401408400002040420F000068C06CF2
:20B76000704700002DE9F04104004FF0000514D0A06A002628B9E66284F82460204600F0F0
:20B780008BF82046FCF74CFFA16A01F01001014304D0A06A40F01000A06277E0A16A21F49A
:20B7A000885141F00201A1626268E16902270A43E16897FAA7F70B46B7FA87F7B9400A43B1
:20B7C000A1684FF48077B94208D0012906D00021D4F814C0BCF1010F02D00AE03946F7E7BC
:20B7E000F3B1A36A43F02003A362E36A43F00103E3622368D3F804C02CF4694C4CEA010C42
:20B80000C3F804C021688B68DFF884C003EA0C0313438B60A168B94210D001290ED016E0F3
:20B820004FF4604CA3699CFAACFCBCFA8CFC5B1E03FA0CF30B4343F40061DAE74FF47001C1
:20B84000256991FAA1F1B1FA81F16D1E8D402168CB6A23F470032B43CB62216889680D4B13
:20B860001940914208D1E662A16A21F0020141F00101A162BDE8F081A06A20F0020040F0C4
:20B880001000A062E06A40F00100E0620120F1E7FDF7E1FFFE0E1FFF00B500680A4985B03D
:20B8A00088420FD10948816941F4007181618069694600F4007004900320009001900448FB
:20B8C00000F0F6FB05B000BD0024014000100240001001402DE9F84300260D460446009663
:20B8E00000F0CAFC804620688168C90508D5A06A40F02000A06284F824600120BDE8F88313
:20B900004168C90503D4C06A10F4700F26D0022001F060F838490968B1FBF0F72068036952
:20B9200036490B424FEA61014FEAA1121BD1C3684FEA611C13EA0C0F15D103690B4221D13E
:20B94000C06810421ED114201FE0681C06D045B300F092FCA0EB0800A84222D82068006814
:20B960008007F2D52AE003690B4202D1C168114206D0026922490A4206D1C068084203D152
:20B98000542002E0292000E0FC204743009813E0681C0ED02DB100F06FFCA0EB0800A842DF
:20B9A00007D9A06A40F00400A06284F824600320A4E70098401C0090B842E9D321686FF097
:20B9C00012000860A06A40F40070A06220688068C0F3424007280CD1E06850B9A06A20F41D
:20B9E0008070A062A06AC00403D4A06A40F00100A062002082E70000840000202449922423
:20BA00004992240070B5044690F8240001280DD0012084F824002046FCF728FE02004FF085
:20BA2000000005D084F82400104670BD022070BDA16A40F20123994341F48071A1621F4DED
:20BA400023681F49AB4218D10E6816F4702F14D0A66A46F48016A6620E68760505D5A66A57
:20BA600026F4005646F48056A662A66AF6040AD5E66A26F00606E66206E0A66A26F48016F5
:20BA8000A6625E68E9E7E06284F824006FF00200186020688368C3F34243072B05D1A842AD
:20BAA00008D1096811F4702F04D0816841F480118160B9E7816841F4A001F9E7002801408C
:20BAC0000424014010B5040002D0607910B106E0012010BD00202071204600F004F80120D0
:20BAE0006071002010BD70472DE9F05FDFF860820446D8F80020DFF858B2954D944E944FF1
:20BB00000068DFF84C92DFF848A20BF1080B1C35303644374FF400614FF4004C4FF4002E62
:20BB200009F158090AF16C0A584501D1082316E0A84201D1802312E0B04201D10B460EE055
:20BB4000B84201D163460AE0484501D1734606E0504502D14FF4000301E04FF000631A42FB
:20BB600031D00268D24312072DD4026822F0080202602068584501D1082114E0A84201D173
:20BB8000802110E0B0420ED0B84201D161460AE0484501D1714606E0504502D14FF400013F
:20BBA00001E04FF00061C8F80410606B40F001006063042084F82100002084F82000216B68
:20BBC00009B1204688476248D0F800C04FF4806120680A010B044FF4802E584502D14FF0DE
:20BBE000040816E0A84202D14FF0400811E0B04201D188460DE0B84201D1904609E0484577
:20BC000001D1F04605E0504502D14FF4800800E098461CEA080F33D0D0F800C06FEA0C0C2D
:20BC20005FEA4C7C2CD4D0F800C05FEA8C6C05D4D0F800C02CF0040CC0F800C02068584500
:20BC400001D1042113E0A84201D140210FE0B0420DD0B84201D1114609E0484501D17146FD
:20BC600005E0504502D14FF4800100E0194638484160112084F82100E16A09B1204688474B
:20BC8000334AD2F800C05B46206851154FF4005B4FF4003E984202D14FF0020817E0A84218
:20BCA00002D14FF0200812E0B04201D188460EE0B84201D1D8460AE0484501D1F04606E089
:20BCC000504502D14FF4001801E04FF000781CEA080F3BD0D0F800C06FEA0C0C5FEA8C7C97
:20BCE00034D4D0F800C05FEA8C6C05D4D0F800C02CF0020CC0F800C02068984201D1022119
:20BD000014E0A84201D1202110E0B0420ED0B84201D159460AE0484501D1714606E050458C
:20BD200002D14FF4001101E04FF000715160606B6063012084F82100002084F82000A16A87
:20BD4000002903D02046BDE8F05F0847BDE8F09F0000024070B520B190F82110002411B133
:20BD600003E0012070BD80F82040022180F8211003681A6843F6F0718A43D0E9011529435F
:20BD8000D0E90356354329434569294385692943C5692943114319604463012180F8211060
:20BDA000002070BD31B500F067FA044600F064FA0099001B8842F9D338BD00002DE9F047DB
:20BDC000054626480F460126017E01290FD00121814601762868DFF888804CF250340228EB
:20BDE00008D0A2462046FFF7CBF8A8B131E00220BDE8F0872046FFF7C3F808BB0120FEF7CC
:20BE00007DFF2046FFF7BCF8D8F81010064621F00401C8F810101CE04FF0FF303860AC684E
:20BE200011E02046FFF76AF85046FFF7A9F8D8F81010060021F00201C8F8101001D03C60CF
:20BE400007E004F58064D5E9020100EB8120A042E7D8002189F818103046C9E7702C002084
:20BE60000020024070B5FFF70BF8C5B24CF250363046FFF785F8002818D10D49C8610D4C35
:20BE8000206940F020002061206940F0400020613046FFF775F8216921F02001216100288F
:20BEA00004D12846BDE87040FEF7F6BF70BD0000702C0020002002402DE9F0472D4D0446E4
:20BEC0000120297E01290ED00121297621784FF00007C9070DD060680128A06806D0FEF781
:20BEE0001FFFE8BB05E00220BDE8F087FEF770FFF7E72178890703D5207CFEF7CDFF78BB8B
:20BF000021781D4E49074CF2503916D594F811804846FFF735F878B9EF61306940F01000F3
:20BF20003061164948F0880008804846FFF728F8316921F01001316190B92178090716D5FA
:20BF4000D4F81480247E4846FFF71AF840B9EF61306940F010003061A8F80040484600E048
:20BF600005E0FFF70DF8316921F0100131612F76BAE70000702C00200020024002F8FF1F17
:20BF80000348016941F0800101610020704700000020024005480169890505D40449816053
:20BFA0000449816000207047012070470020024023016745AB89EFCD2DE9F05F07461C486C
:20BFC00088460024017E15461E46012909D00121814601764CF2503A5046FEF7D1FF18B1E2
:20BFE00022E00220BDE8F09F012F02D0022F00D00427D346DFF83CA0220128463146FCF7F4
:20C0000095FA81B208EB4400FEF78AFF5846FEF7B7FFDAF8102022F00102CAF8102018B986
:20C02000641CE4B2BC42E7D3002289F81820D9E7702C00200020024005480169090605D5D9
:20C04000044941600449416000207047012070470020024023016745AB89EFCD10B5044624
:20C06000642004F0E5FF022C10D1094CD4F8040100280BD10A2004F0E6FFD4F8040100282F
:20C0800004D10448817881F00101817010BD00000000214288000020044910B50A68024282
:20C0A00002D00860FFF7DAFF10BD0000140401402DE9F84FDFF890A100220AF1040B144666
:20C0C00001274FF00F090BF1040E00BF0B6807FA04F52B40AB4274D1DFF870C14E68A6EBBB
:20C0E0000C0866452BD00DDC032E34D005DC36B3012E19D0022E2FD11BE0112E16D0122EF6
:20C100002AD119E0B8F5881F19D006DCB8F5803F15D0B8F5801F1FD111E0B8F5001F0ED0E4
:20C12000B8F5041F18D10AE0CA6815E0CA68121D12E0CA6808320FE0CA680C320CE08A6839
:20C140002AB1012A4FF0080203D0456104E0042202E0056100E00022FF2B01D8064601E093
:20C1600000F104064FEA840501D9A5F12005D6F800C009FA05F82CEA080C02FA05F54CEA89
:20C18000050CC6F800C04D68ED0057D5304DAE6946F00106AE61AD6924F0030605F0010534
:20C1A00000952C4D06EB050CDCF80850A6074FEA167809FA08F6B543274EB04202D1002676
:20C1C00010E03BE0254EB04201D101260AE0244EB04201D1022605E0224EB04201D103266C
:20C1E00000E0042606FA08F62E43CCF808604D68DAF80060ED03554601D51E4300E09E4330
:20C200002E604D68DBF80060AD035D4601D51E4300E09E432E604D68DEF80060ED0275463A
:20C2200001D51E4300E09E432E604D68AD020E4D2E6801D51E4300E09E432E60641C102CE1
:20C24000FFF444AFBDE8F88F0004014000001110001002400000014000080140000C01403D
:20C2600000100140001401400C0401400AB1016170470904FBE7000001480068704700009C
:20C280001803002002480168491C01607047000018030020074810B5016841F010010160D8
:20C2A000032000F099F8002000F006F800F016F8002010BD0020024010B5044600F05CFD27
:20C2C0004FF47A71B0FBF1F001F043FC00222146501E00F061F8002010BD0000214808B521
:20C2E000816941F001018161806900F001000090032000F071F8002211466FF00B0000F086
:20C300004BF8002211466FF00A0000F045F8002211466FF0090000F03FF800221146501FDB
:20C3200000F03AF800221146101F00F035F800221146901E00F030F800221146501E00F000
:20C340002BF800221146012000F026F8012000F018F80548416821F0E06141F00071416066
:20C3600008BD0000001002400000014000F01F02012191404009800000F1E020C0F880115E
:20C38000704700F01F02012191404009800000F1E020C0F800117047F0B40E4B1B680C46D6
:20C3A000C3F30223C3F10705042D00D90425191D072901D2002300E0DB1E012606FA05F15D
:20C3C000491E214099409E40761E16403143F0BC02F07CB80CED00E0064900F0070208681D
:20C3E0004FF6FF03184040EA0220034A10430860704700000CED00E00000FA05BFF34F8F2B
:20C4000005480168054A01F4E06111430160BFF34F8F00BFFDE700000CED00E00400FA051D
:20C4200010B50C0605D501F07F0100EB4110283003E000EB411000F5027099B232B101226F
:20C440008272C180190C0181002010BD002282728180F9E7704700EB4112D0F81C04D26B02
:20C4600003F0B7BB00EB4112D0F81C04D2F81C2203F004BC10B504460A460B0601F07F0096
:20C4800004EB401101D5283101E001F502710870D009487094F8E803012809D0012084F8C4
:20C4A000E803206803F0D2FF002084F8E80310BD022010BD70B50A460446090602F07F00C3
:20C4C00003D504EB4011283103E004EB421101F5027100258D700870D009487094F8E803BB
:20C4E000012809D0012084F8E803206804F056F884F8E853002070BD022070BD70B5044626
:20C500000D460E0601F07F0004EB401101D5283101E001F502710870E80948700A61CB70C4
:20C5200094F8E803012809D0012084F8E803206803F05CFE002084F8E80370BD022070BD22
:20C5400070B504460E4601F07F0004EB401101F5077100252CC101F81F5C01F8200D94F8C2
:20C56000E80301280AD0012084F8E8037006206804F06EF884F8E853002070BD022070BD9A
:20C5800070B50D460446090605F07F0003D504EB4011283103E004EB451101F50271012231
:20C5A0008A700870E809487094F8E803012807D084F8E823206804F026F8680602D006E0A2
:20C5C000022070BD04F57B71206803F0E5FF002084F8E80370BD70B504460E4601F07F00E1
:20C5E00004EB40113C3100252CC1012201F81F2C01F8200D94F8E803012809D084F8E823EF
:20C600007006206804F024F884F8E853002070BD022070BD10B50446006804F0FBF8000457
:20C6200002D5204601F062FF206804F0F3F840050CD5206830F8441F21F4806101802046EE
:20C6400000F0ECF80021204600F0FDF8206804F0E1F8400405D5206830F8441F21F480413E
:20C660000180206804F0D6F8800405D5206830F8441F21F400510180206804F0CBF8C00494
:20C6800013D5206830F8401F21F00401018021684FF43D40A1F84000204600F0CCF8206848
:20C6A00030F8441F21F480510180206804F0B2F800051AD5206830F8441F21F40061018064
:20C6C000206830F8401F41F008010180206830F8401F41F004010180206804F09BF8C043B8
:20C6E000C00402D5204600F0E3F8206804F092F8800508D5206830F8441F21F400710180EC
:20C70000204600F09CF8206804F084F8C00505D5206830F8441F21F48071018010BD000031
:20C720002DE9F04186B004004FF0000504D094F8E903002620B108E0012006B0BDE8F0811C
:20C7400084F8E863204600F04BF8032084F8E903206803F01AFF04F11001142288466846A2
:20C76000FBF7F4FE94E80F0003F06EFE0021206804F063F85FF0010704EB451080F8297047
:20C7800000F8285F8581C670066146616D1C86610F2DF1D35FF0000004EB401181F80962ED
:20C7A00081F80802888681F80B62C1F81862C1F81C62401CC1F820620F28EDD3142241464D
:20C7C0006846FBF7C3FE94E80F0003F0D5FE84F8246084F8E973206803F0CCFE0020ACE7D7
:20C7E00008B500680B49884212D10B48C16941F40001C161C069002200F400000090114618
:20C800001420FFF7C9FDBDE808401420FFF7B9BD08BD0000005C00400010024010B50446D9
:20C820000121D0F81C0403F0FBFAD4F81C04BDE8104003F0C4BAD0F81C0403F0DFBAD0F878
:20C840001C0403F0E1BA10B5044690F8E80301280BD0012084F8E80384F82410206803F0F1
:20C86000EEFF002084F8E80310BD022010BDD0F81C2400F57B71104603F0E5BA10B50446A8
:20C8800090F8E803012810D0012084F8E80301462046FFF7DFFD206803F06AFE206803F0B7
:20C8A000ACFF002084F8E80310BD022010BD000010B50446D0F81C0403F012FBA069002862
:20C8C00004D00348016841F00601016010BD000010ED00E030B51C490A68036822F0E00272
:20C8E0001A430A6019490A6822F480320A600C1F226822F480322260144A0832136823F442
:20C90000803313600B1D1D6825F480351D604568ED0303D5256845F4803525604468A40331
:20C9200003D50C6844F480340C600179C90703D0196841F4803119600079800703D5106806
:20C9400040F48030106030BD00700040040401400120102191FAA1F1024AB1FA81F142F88B
:20C960002100704700000E4270B504F055F804F025FF4FF496750E4C0FE0FF2002F08EFDDE
:20C9800001212846FBF7D0FFC82004F051FBAA2002F084FDC82004F04BFB61684907ECD4E6
:20C9A0000448807902F030F8BDE8704004F07ABF007000408800002010B5054C2068C003DD
:20C9C00004D5FFF7D1FF4FF48030206010BD00001404014010B533A401461DCC86B08DE8A8
:20C9E0001D0034A0344C006804900020012931D0022948D010292BD161682268D20127D5E5
:20CA00004FF4701292FAA2F201F47010B2FA82F2D040C9031DF8000010D561684FF4003288
:20CA200092FAA2F201F40031B2FA82F2D14004AA515C224AB2FBF1F1484301E020494843C9
:20CA40006168490204D440005FF00301B0FBF1F006B010BD226AC2F30121012903D192074E
:20CA600001D5C803F4E7022905D1626A920702D549F64040ECE70329EAD121688903E7D5B3
:20CA80004FF22440E4E700F07DF961684FF4804292FAA2F201F44041B2FA82F2D140491CC6
:20CAA0004900D3E702030405060708090A0B0C0D0E0F1010010200000010024000127A00FB
:20CAC00000093D002DE9F84305460078454CC00774D0E06940F08050E061E069424E00F00D
:20CAE00080500090306840F480703060FFF7C4FB074604E0FFF7C0FBC01B642833D83068E9
:20CB0000C005F7D5206A10F4407051D0A98801F4407181424CD0206A0126310491FAA1F26B
:20CB2000B2FA82F29300314A20F440701344C3F8006491FAA1F1B1FA81F102EB81010023C1
:20CB4000C1F800342062C00732D0FFF795FB074641F288394FF0020808E000BFFFF78CFB69
:20CB6000C11B494502D90320BDE8F88398FAA8F1B1FA81F141F040014046B6EB511F01D10A
:20CB800021680BE090FAA0F1B1FA81F141F04001B0EB511F01D1216A00E0616A98FAA8F03A
:20CBA000B0FA80F000F01F0206FA02F00142D5D0206A696820F4407008432062287880075D
:20CBC00005D56068A96820F44040084360602878C00605D56068E96820F48000084360600B
:20CBE0000020C1E70010024000700040000042422DE9F047DFF8708105460E46D8F8000063
:20CC000000F00700B0420CD2D8F8001021F007013143C8F80010D8F8000000F00700B04257
:20CC200077D12878514C800705D56068A96820F0F000084360602878C00759D069680120A8
:20CC400001290DD0022929D05FF0020393FAA3F2B2FA82F242F02002520904D0226803E023
:20CC60004FF40033F2E7626A93FAA3F3B3FA83F303F01F03984002424BD0606820F003002C
:20CC800008436060FFF7F8FA6968074641F2883001290DD00229814617D025E04FF0007301
:20CCA000D4E700BFFFF7E8FAC11B494501D918E081466068C0F381000128F3D118E000BF7F
:20CCC000FFF7DAFAC11B49450BD86068C0F381000228F5D10CE000BFFFF7CEFAC11B49457E
:20CCE00002D90320BDE8F087606810F00C0FF3D1D8F80010404601F00701B1420BD90168D4
:20CD000021F0070131430160006800F00700B04201D00120E6E72878400705D56068E9683B
:20CD200020F4E060084360602878000706D56068296920F4605040EAC100606000F03AF827
:20CD40006168F02292FAA2F201F0F001B2FA82F2D140074A515CC840064908600020FFF7F2
:20CD6000ABFA0020BEE7000000200240001002405030010884000020014800687047000000
:20CD80008400002008480949006849684FF4605292FAA2F201F46051B2FA82F2D140044AFA
:20CDA000515CC8407047000084000020001002406030010810B519A385B00FCB8DE80F0064
:20CDC0001AA01B4B006804905A681A4802F00C0104291DD008291BD14FF4701494FAA4F4F0
:20CDE00002F47011B4FA84F4E140D2031DF8011010D55A684FF4003393FAA3F302F4003212
:20CE0000B3FA83F3DA4004AB9A5CB0FBF2F0484305B010BD08484843FAE7000002030405CC
:20CE2000060708090A0B0C0D0E0F1010010200000010024000127A0000093D002DE9F84FE5
:20CE400004460078F74DC0074FF0010625D068687704C0F38100012807D06868C0F3810047
:20CE600002281BD16868C00318D597FAA7F0B0FA80F040F02000400901D0286800E0686A2E
:20CE800097FAA7F1B1FA81F101F01F0106FA01F108425ED0606800287CD05AE06068B0F5EE
:20CEA000803F0BD010B1B0F5A02F11D0286820F480302860286820F4802002E0286840F4FC
:20CEC00080302860606828B3FFF7D6F980460BE0286840F480202860F0E700BFFFF7CCF9C4
:20CEE000A0EB0800642871D897FAA7F0B0FA80F040F02000400901D0286800E0686A97FA4B
:20CF0000A7F1B1FA81F101F01F0106FA01F10842E4D01EE0FFF7B0F9804605E0FFF7ACF978
:20CF2000A0EB08006428DED897FAA7F0B0FA80F040F02000400901D0286800E0686A97FA9D
:20CF4000A7F1B1FA81F101F01F0106FA01F10842E4D12078DFF8D08280074FF000094FF04B
:20CF600002075BD568684FF0F80B10F00C0F07D06868C0F3810002281CD16868C00319D4D9
:20CF800097FAA7F0B0FA80F040F02000400902D0286801E08BE0686A97FAA7F1B1FA81F1F0
:20CFA00001F01F0106FA01F108422CD0206901287DD128E0206990B396FAA6F0B0FA80F014
:20CFC00048F82060FFF758F9824607E011E100BFFFF752F9A0EB0A00022884D897FAA7F066
:20CFE000B0FA80F040F02000400901D0286800E0686A97FAA7F1B1FA81F101F01F0106FA14
:20D0000001F10842E4D028689BFAABF26169B2FA82F220F0F80091400843286025E0FFE7DD
:20D0200096FAA6F1B1FA81F148F82190FFF724F9824605E0FFF720F9A0EB0A000228CCD889
:20D0400097FAA7F0B0FA80F040F02000400901D0286800E0686A97FAA7F1B1FA81F101F0AB
:20D060001F0106FA01F10842E4D1207800076ED5A069B8B396FAA6F0B0FA80F008EB800096
:20D08000C0F88064FFF7F8F8824605E0FFF7F4F8A0EB0A000228A0D897FAA7F0B0FA80F006
:20D0A00040F06000B6EB501F02D128680CE062E197FAA7F0B0FA80F040F06000B7EB501F5B
:20D0C00001D1286A00E0686A97FAA7F1B1FA81F101F01F0106FA01F21042D7D00120FEF7E1
:20D0E00061FE34E0FFE796FAA6F1B1FA81F108EB8101C1F88094FFF7BFF8824606E000BF37
:20D10000FFF7BAF8A0EB0A00022872D897FAA7F0B0FA80F040F06000B6EB501F01D128681A
:20D120000BE097FAA7F0B0FA80F040F06000B7EB501F01D1286A00E0686A97FAA7F1B1FA37
:20D1400081F101F01F0106FA01F21042D8D12078400765D5E86940F08050E861E869DFF883
:20D16000CCB000F080500090DBF8001041F48071CBF80010FFF780F8824605E0FFF77CF882
:20D18000A0EB0A00642834D8DBF80000C005F5D5E06801280AD008B1052813D0286A20F04A
:20D1A00001002862286A20F0040002E0286A40F001002862E06841F2883B90B3FFF75CF844
:20D1C00082460BE0286A40F004002862EEE700BFFFF752F8A0EB0A0159450AD897FAA7F03A
:20D1E000B0FA80F040F04000B6EB501F02D128680CE0A3E097FAA7F0B0FA80F040F0400011
:20D20000B7EB501F01D1286A00E0686A97FAA7F1B1FA81F101F01F0206FA02F10842D7D0AB
:20D2200031E005E0001002400000424200700040FFF722F8824605E0FFF71EF8A0EB0A0113
:20D2400059457BD897FAA7F0B0FA80F040F04000B6EB501F01D128680BE097FAA7F0B0FAFC
:20D2600080F040F04000B7EB501F01D1286A00E0686A97FAA7F1B1FA81F101F01F0206FA4F
:20D2800002F10842D8D1E06980B36968C1F38101022970D04FF080714F000228484609D0AA
:20D2A00091FAA1F1B1FA81F148F82100FEF7E4FF044669E08A4691FAA1F1B1FA81F1C14657
:20D2C00048F82100FEF7D8FF804605E0FEF7D4FFA0EB0800022854D897FAA7F0B0FA80F083
:20D2E00040F02000400902D0286801E061E0686A97FAA7F1B1FA81F101F01F0106FA01F1F6
:20D300000842E3D1206AB0F5803F05D16868A16820F4003008436860D4E908010843696839
:20D3200021F47411084368609AFAAAF0B0FA80F049F82060FEF7A0FF044606E021E000BFB3
:20D34000FEF79AFF001B02281BD897FAA7F0B0FA80F040F02000400901D0286800E0686A19
:20D3600097FAA7F1B1FA81F101F01F0106FA01F10842E5D01DE01EE0FEF77EFF001B0228B3
:20D3800002D90320BDE8F88F97FAA7F0B0FA80F040F02000400901D0286800E0686A97FAE4
:20D3A000A7F1B1FA81F101F01F0106FA01F10842E2D10020E6E70120E4E7000010B5040016
:20D3C00003D094F8510010B104E0012010BD204600F038F8022084F851002068016821F093
:20D3E00040010160D4E901010843D4E903121143084361690843218B01F400710843E16954
:20D400000843216A0843A16A084321680860A069042101EA1040616A08432168486021686B
:20D42000E06A08612068C16921F40061C1610449002008706065012084F85100002010BD6A
:20D440001C0300202DE9F04F054600683F49DFF80081032685B088425CD1D8F8181041F423
:20D460008051C8F81810D8F81800DFF8E8B000F480500490A02000900220019069465C46F0
:20D4800003965846FEF714FE4FF000094020CDE900094F4669462046CDF80890FEF708FEE5
:20D4A0002E4C2D484FF0800AC4E90007C4E9027A27616761A7612046E761FEF74BFC08B1DC
:20D4C000FDF71AFC6C6465622348254C14301027C4E90007C4E9029AC4F81090C4F814909B
:20D4E000C4F818902046C4F81C90FEF733FC08B1FDF702FC2C6465620120CDE900706946DE
:20D500005C4603965846FEF7D3FD012210212046FEF7ACFE13492868884214D1D8F81C107D
:20D5200041F48041C8F81C10D8F81C00694600F4804004904FF420400090022001900396A7
:20D540000948FEF7B5FD05B0BDE8F08F0030014000100240000801401C000240241200203A
:20D560005C12002000380040000C01402DE9F84F00259A460446ADF8005090F851000128B5
:20D580007ED1E9B3E2B394F85000012878D0012684F85060222084F851006565A163A28765
:20D5A000E287A564E5642563A586E586A0684FF40049484504D12068036823F4804303606C
:20D5C000A06A4FF40057B84209D12068036823F4005303602068036843F40053036060686B
:20D5E0004FF48278404501D1A06878B120680168490603D4016841F040010160E06800E0EB
:20D6000001E0E8B131E00120BDE8F88F84F8505013460A462046CDF800A000F040F9F3E79F
:20D62000534600220121204601F04EFC48BB2068C168A06B421CA2630170E08F401EE087A5
:20D64000E08F0128ECD813E0534600220121204601F03AFCA8B92068C068A16B0880A06B61
:20D66000801CA063E08F401EE087E08F0128EBD8A06AB84207D12068016841F4805101E0C8
:20D6800068E007E00160534600220121204601F01BFC08B10320B7E7E0680028206817D056
:20D6A000C068A16B0880A06B801CA063E08F401EE087A06AB84217D15346002201212046A1
:20D6C00001F002FC50B1606D40F002006065E1E7C168A06B421CA2630170E7E72068C06848
:20D6E000ADF80000BDF80000606840450AD1A068484502D0B0F5806F04D12068016821F0D6
:20D700004001016084F85160A06AB8420DD120688068C043C00608D4204601F0D3FB0128F5
:20D7200007D021686FF01000886084F8505000206AE7606D40F0020060652068016821F4DB
:20D74000005101602068016841F40051016084F8505058E7022057E72DE9F843044690F861
:20D7600051009846012870D139B332B394F8500001286AD0012684F85060122084F85100AE
:20D78000002565652163A286E286E564A564A563A587E587A06A7703B84209D1206801684B
:20D7A00021F4005101602068016841F400510160A068B0F5004F03D007E00120BDE8F883D3
:20D7C0002068016841F48041016020680168490603D4016841F040010160E0680028606876
:20D7E00004D0D8B1E08E012818D021E010B1E08E012808D1206B411C216321680078C86086
:20D80000E08E401EE0860004000C1FD0434600220221204601F058FBA8B9EBE7206B216818
:20D820000088C860206B801C2063E08E401EE0860004000C0AD0434600220221204601F04D
:20D8400043FB0028EAD00320B8E726E0A06AB84204D12068016841F4805101604346002204
:20D860000221204601F030FB30B9434601228021204601F029FB20B1606D40F010006065AF
:20D88000E1E7A06818B92068C1688068009084F8516084F85050002090E702208EE72DE931
:20D8A000F8430025DDF820800446ADF8005090F85100012803D094F8510022287DD169B1F0
:20D8C00062B15BB194F85000012876D0012684F8506094F85100012803D005E00120BDE807
:20D8E000F883322084F851006565A263A387E3872163A386E386A564E564A06A4FF400571F
:20D90000B84209D12068016821F4005101602068016841F40051016020680168490603D48C
:20D92000016841F040010160E0684FF48271B0F5006F606807D0002867D088426ED1E08EA4
:20D94000012862D06AE020B188420CD1E08E012809D1206B21680088C860206B801C2063CB
:20D96000E08E401EE086E08E80B9A06AB84244D12068016841F4805101603EE02068C0688F
:20D98000A16B0880A06B801CA0639EE0434600220221204601F098FA002874D1206B216893
:20D9A0000088C860206B801C2063E08E401E0004000CE08609D1A06A00E0C7E0B84204D191
:20D9C0002068016841F480510160434600220121204601F079FA00286FD12068C068A16B34
:20D9E0000880A06B801CA063E08F401EE087E08E0028CBD1606800286AD143460022012197
:20DA0000204601F061FAF0BBB8E7206B411C216321680078C860E08E401EE086E08E98B984
:20DA2000A06AB84204D12068016841F480510160434600220121204601F046FA18BB2068F6
:20DA4000C068A16B087040E0434600220221204601F03AFAB8B9206B411C216321680078C3
:20DA6000C860E08E401E0004000CE08607D1A06AB84204D12068016841F480510160002211
:20DA80004346012100E018E0204601F01DFAA0B92068C168A06B421CA2630170E08F401EDF
:20DAA000E087E08E0028CFD1606888B9434600220121204601F008FA08B103200FE7206840
:20DAC000C168A06B421CA2630170E08F401EE087A06AB84210D1434600220121204601F001
:20DAE000F3F918B1606D40F002000FE02068C068ADF80000BDF800004346012280212046C6
:20DB000001F0E2F920B1606D40F010006065D4E784F85160A06AB84214D120688168C94348
:20DB2000C9060FD4616D41F002016165016821F4005101602068016841F40051016084F8E7
:20DB40005050CBE684F850500020C8E60220C6E6704710B5401EB0F1807F01D3012010BD80
:20DB60004FF0E02460610F21601700F0AFFC0020A06107202061002010BD10B5FFF7E8FF07
:20DB800010BD7047704730B590F83820012A20D0012280F83820022380F8393003685C6842
:20DBA00024F070045C6003685C680D682C435C6003689C6824F080049C6003689C6849682F
:20DBC0000C439C6080F83920002180F83810084630BD022030BD10B5040003D094F839009D
:20DBE00010B107E0012010BD002084F83800204600F00CF8022084F83900211D206801F0D3
:20DC000045FD012084F83900002010BD00B51E4A01681E4885B0914222D1C16941F00201BA
:20DC2000C161C069694600F0020004904FF4707000900020019002901548FEF739FA0022C7
:20DC400011461D20FEF7A8FB1D20FEF79AFB11484168114A21F0A0611143416005B000BDFB
:20DC6000B1F1804FFAD1C16941F00101C161C069002200F00100049011461C20FEF78CFB0A
:20DC80001C20FEF77EFBE9E700040040001002400010014000000140000C00020168CA6839
:20DCA00042F00102CA600068016841F001010160002070470168CA6822F00102CA60006887
:20DCC000016A41F21112114207D1016A9210114203D1016821F00101016000207047000070
:20DCE0002DE9F05F04465B4D207EDFF86CB14FF0000A05F1080705F11008A5F10C06A5F1A1
:20DD00000809012820D1F07810B399F80310884217D12068406BF880EA88801A80B2A8F8CE
:20DD200006004E4A5143B1FBF0F0CBF80C00281F80F803A00021204600F092F82046FFF797
:20DD4000B9FFF078401CF070207E022804D025E02068406BE880F4E7B17819B399F8020048
:20DD6000814218D12168896BB980AA88891A89B2A8F80410394A5043B0FBF1F0CBF8080010
:20DD80003448001F80F802A00421204600F068F82046FFF78FFFB078401CB070207E04289B
:20DDA00004D025E02068806BA880F4E77178E9B399F80100814218D12168C96B79806A88A9
:20DDC000891A89B2A8F80210244A5043B0FBF1F0CBF804001F48001F80F801A00821204631
:20DDE00000F03EF82046FFF765FF7078401C7070207E082823D1317839B399F8000081426E
:20DE00001AD12168096C39802A88891A89B2A8F80010124A5043B0FBF1F0CBF800000D488D
:20DE2000001F80F800A00C21204600E009E000F017F82046FFF73EFF3078401C3070BDE86E
:20DE4000F09F2068C06B6880CFE72068006C2880F2E70000A0000020B4110020001BB700F6
:20DE600010B50268044631B1042908D008291ED00C2908D11FE0D06820F0020002E0D068B2
:20DE800020F00400D0600022206801F031FC2068016A41F21112114207D1016A92101142A2
:20DEA00003D1016821F001010160002010BDD06820F00800E6E7D06820F01000E2E770B561
:20DEC0000446006801694FF00005C943890715D4C168C943890711D4E91E01610120207693
:20DEE000206880698007204602D0FFF7F9FE04E000F098F8204600F096F825762068016930
:20DF0000C943490717D4C168C943490713D46FF004010161022020762068806910F4407F9C
:20DF2000204602D0FFF7DCFE04E000F07BF8204600F079F8257620680169C943090716D438
:20DF4000C168C943090712D46FF008010161042020762068C0698007204602D0FFF7C0FEEE
:20DF600004E000F05FF8204600F05DF8257620680169C943C90617D4C168C943C90613D48D
:20DF80006FF010010161082020762068C06910F4407F204602D0FFF7A3FE04E000F042F8A0
:20DFA000204600F040F8257620680169C943C90708D1C168C943C90704D1891E0161204648
:20DFC00000F032F820680169C943090609D4C168C943090605D46FF0800101612046FFF782
:20DFE000D0FD20680169C943490609D4C168C943490605D46FF040010161204600F032F84B
:20E0000020680169C94389060BD4C168C943890607D46FF0200101612046BDE87040FFF762
:20E02000B1BD70BD704770470B4A0168914209D10A4A0021116051609160D160084A1170E0
:20E040009170D1700068B0F1804F04D1044814388168491C8160704700040040B41100202A
:20E060009C0000207047000018B5044609486A460321006804F008FB9DF8000020702E201F
:20E0800060709DF80110A170E0709DF80200207118BD0000FC7F0008FEE7000070B500F02F
:20E0A00075FE224C0025E8B200F0AEFC6D1C2070102DF8DB10F0FF0F06D100F0CDFD2070CE
:20E0C00010B902F057FE2070FCF7E2FC00224FF400411748FEF7CAF82178164C4FF00000D9
:20E0E00011B1FCF711FD0120207003F0DBFB12481249008800EB400001EB801090F8BC00BB
:20E10000552802D10720FEF73CF94FF0FF300C4B0C4A0146FCF73CFC0B490968814203D076
:20E12000BDE8704003F0C4BD70BD0000A0100020001001408B0000208E000020A0040020AB
:20E14000007B01000084000800FF01083EB511480F49016000218160C16041614FF4602220
:20E16000C261416001240461FDF7FCFA08B1FCF7C3FD0A20009001940520029069460548F9
:20E18000FDF738FA002801D0FCF7B6FD3EBD0000002401403803002008B50D48416941F012
:20E1A00001014161406900F001000090002211460C20FEF7F1F80C20FEF7E3F80022114699
:20E1C0000D20FEF7E9F8BDE808400D20FEF7D9B8001002402DE9F04F85B07648816941F0E7
:20E1E00020018161816901F020010091816941F010018161816901F010010091816941F0E9
:20E2000004018161816901F004010091816941F008018161806900F008000090DFF898912F
:20E220004FF44066002231464846FEF71FF800224FF407416148FEF719F84FF4607700222A
:20E2400039465F48FEF712F84FF40048CDF80480012402940225049501A95848FDF728FFE5
:20E2600001960294049501A94846FDF721FF780001900294049501A95048FDF719FF01976E
:20E280000294049501A94E48FDF712FF002238214B48FDF7EBFF00224FF470714846FDF756
:20E2A000E5FFDFF820B1002204215846FDF7DEFF012240214248FDF7D9FF4FF4805A012202
:20E2C00051464846FDF7D2FF7820019002940326049601A93A48FDF7EBFE04270197029470
:20E2E000049601A95846FDF7E3FE4FF49E5001900294049601A94846FDF7DAFE4FF4804B63
:20E30000CDF804B0029401A94846FDF7D1FE002259464846FDF7AAFFCDF804A011200290DB
:20E3200001A92748FDF7C4FE002251462448FDF79DFF0197029401A94846FDF7B9FE002226
:20E3400004214846FDF792FF012241464846FDF78DFFCDF804800294049501A94846FDF729
:20E36000A7FE102001900294049601A91348FDF79FFE019500260296039401A90F48FDF791
:20E3800097FE01940296039401A90D48FDF790FE202001900296039401A94846FDF788FEF1
:20E3A00001940294049501A90448FDF781FE05B0BDE8F08F0010024000100140000801406B
:20E3C000000C01400014014010B50F480D4901604FF48271416000218160C16001614161CA
:20E3E0004FF4007282611822C2610162416281620A21C162FEF7E2FF002801D0FCF77CFCB7
:20E4000010BD0000003001406803002010B510480E4901604FF4827141604FF40041816022
:20E420000021C160016141614FF4007282612022C2610162416281620A21C162FEF7BEFFB0
:20E44000002801D0FCF758FC10BD000000380040C00300201CB50D484FF0804101603F216D
:20E4600041600024846040F26541C160FFF7B3FB08B1FCF741FC0094019469460348FFF754
:20E4800082FB002801D0FCF737FC1CBD5404002010B500220849094801F066FB0849074814
:20E4A00001F04BFD0749054801F0A0F9BDE81040024801F08FBD0000E4020020D423002063
:20E4C00004000020D4020020FEE770470907090E002806DA00F00F0000F1E02080F8141DBE
:20E4E000704700F1E02080F8001470472DE9FC5F4FF000080446ADF80480ADF8008048F6A3
:20E500000F7B4FF002094FF4806692E1BDF8041011F00F072BD030F82710ADF80010BDF8E7
:20E520000010090478D530F8272040F68F710A4020F8272004EB471595F8120205F50275C6
:20E540000028206869D0297830F8212052047DD5B0F8503009EBC101194406EB4101415A17
:20E56000C1F309015FEA010A71D0EA88D0E0BDF80410C9062AD4018801EA0B010180206807
:20E5800004F12805B0F850202B7809EBC301114406EB4101405AC0F309006064E16B0844AC
:20E5A000E06300212046FDF756FF94F824000028ABD0A8690028A8D194F82400216840F0DA
:20E5C0008000A1F84C0084F8248032E1018804F50275ADF80010BDF8001009051ED5B0F887
:20E5E00050302978062202EBC101194406EB4101405A04F57B71C0F30903EB61AA8820684F
:20E6000002F00CF92068018840F68F72114001802046FEF72CF90CE1A0E055E0BDF8001002
:20E620000904D2D5028840F68F710A4002802068B0F850302978062202EBC101194406EB24
:20E640004101405A83059B0DEB6101E051E063E008D0AA886969206802F0E0F8E9696869BC
:20E660000844686100212046FDF7FCFE2068B0F85010891D06EB4101014428693E280CD986
:20E68000C0F34F12C00601D1521E92B24FF6FF7000EA822040F4004009E0C0F34F02C007B2
:20E6A00001D0521C92B24FF6FF7000EA82200860216808884BF68F72104080F4405048F246
:20E6C000800210430880B4E0B0F850202B78062101EBC301114406EB4101415AC1F30901D6
:20E6E0005FEA010A24D0AA885346696902F096F81EE0B0F85020062303EBC101114406EB80
:20E700004101415AC1F309015FEA010A04D02A895346696902F082F82978206830F821300A
:20E7200048F68F72134048F2C002134320F82130E96901EB0A00E861696901EB0A026A6166
:20E74000AB6913B12869504504D929782046FDF789FE03E029782046FDF7F2FEBDF80000D9
:20E76000000666D5206804EB471530F8271001EA0B0120F8271095F8320028350028206814
:20E7800012D0297830F82120B0F8503052061ED509EBC101194406EB4101405A83059B0D0A
:20E7A000EB6124D0EA881EE0B0F850302A7809EBC201194406EB4101405A83059B0DEB6182
:20E7C00021D0AA886969206802F03FF81BE0062202EBC101194406EB4101405A83059B0D67
:20E7E000EB6104D02A896969206802F02EF82978206830F8212048F68F731A404CF28003E7
:20E800001A4320F821202068B0F850202B7809EBC301114406EB4101405AC0F30900E86120
:20E8200069690A186A612978AB69204663B1FDF7D2FE2068B0F84410ADF8041009043FF5A8
:20E8400065AE0020BDE8FC9FFDF705FEF1E7FEF7B3B800000EB50A48C16941F08051C161B3
:20E86000C06900F080500090C02001904FF00110029001A8FEF72EF8FEF76AF80EBD0000E6
:20E880000010024010B5552000F008FEFF2000F031FE0A2002F0D7FBF02000F02BFE0A2077
:20E8A00002F0D1FBBDE81040FF2000F023BE70472DE9F05F00260020DFF8E48008EB000124
:20E8C000497809B9761CF6B2401CC0B20428F5D30024DFF8CC904FF0010A09F11409314F81
:20E8E000A9F6144B18E008EB04056A78A2B32E4A32F81010491C22F8101009EB00104168E1
:20E90000491C41606878D0B302F086F810B1687087F803A0641CE4B2F88800EB40010BEBAB
:20E92000811191F8BE20A242DDD803F06DFA03F063F8F88800EB40000BEB8010B0F8441070
:20E9400009052BD590F8BE00B04221D8BDE8F05F00219620F9F7E8BF134B403B53F82020B2
:20E96000521C43F8202009EB00100268521C026091F846000028C5D001F07AFFC2E7FFE7EB
:20E9800002F04AF868700028C4D087F803A0C1E7BDE8F05F01219620F9F7C6BFBDE8F09F70
:20E9A000A010002088000020041200202DE9F04116460F46044602F087FA104D0022102144
:20E9C0002846FDF753FC0E4803210A230170210C4170210A8170C470014604220948FEF78D
:20E9E000BBFE0A23324639460648FEF7BFFD2846BDE8F04101221021FDF738BC0008014072
:20EA000058020020680300202DE9F84F060015D08C484FF4807200EB46308B49FFF7C6FFB0
:20EA2000FF25894C00202218215C92F8802091427ED1FF2909D0FF2DFAD105E04FF48072A8
:20EA400081494FF46020E9E711B1FF2D00D10546401C80B28028E6D3FF2D69D0002108468C
:20EA6000625DD30707D1491C5208401C80B2C9B262550828F4D305F0030001EBC0014FF6C5
:20EA8000FF7A72480AEA81274FF48068009076B307EB464909F5381042466B49FFF786FF45
:20EAA00009F53A1042460099FFF780FF52465046002104EB010C635C9CF800C4634537D166
:20EAC000FF2B02D0904233D113B1904200D10846491C89B2C3465945EBD39246504527D046
:20EAE00000221146235C5FEAC37C0CD013E0FFE74246554907F57020FFF758FF424607F55E
:20EB000078200099D0E7521C5B08491C89B2D2B223540829E6D325F0030107EB41310844EE
:20EB200002EBC0014A4800EB0619C9F8001000E060E0A6B147484FF4807200EB4630424993
:20EB4000FFF734FFFF2500202218215C92F8802091424FD1FF2909D0FF2D4BD105E04FF403
:20EB6000807239494FF44020EAE711B1FF2D00D10546401C80B28028E6D3FF2D3AD000215D
:20EB80000846625DD30707D1491C5208401C80B2C9B262550828F4D305F0030001EBC0019B
:20EBA0000AEA81274EB307EB464606F53C1042462549FFF7FBFE06F53E104246DDF8001058
:20EBC000FFF7F4FE524650460021DC466618635C96F80064B3420DD1FF2B02D0904209D132
:20EBE00013B1904200D10846491C89B26145EDD390420ED18820BDE8F88F46464246124966
:20EC000007F55020FFF7D2FE324607F558200099D6E700221146235CDE0707D1521C5B08FA
:20EC2000491C89B2D2B223540829F4D325F0030107EB4131084402EBC0010020C9F80410D5
:20EC4000D9E7000000E02D00B0120020B0160020B410002000F02D00F0B52848294C01880B
:20EC6000274801EB410200EB821004EB011190F80EC0B0F84C30B0F84E70B0F85020B0F8D8
:20EC8000526090F964500C68BCF10A0F17D0D9B2FBB201EB0321D2B201EB024101EB066116
:20ECA00005FB0411CAB220F85C2FC1F307224280C1F307428280090EC1800020F0BD3F041A
:20ECC0000021FB1841EB010CCF1842EB0C023304CE195341A5FB042CEF1707FB04C405FB53
:20ECE00001419219594120F85C2F120C42EA014242800B0C8180C380DFE700008E000020CC
:20ED0000A0040020B41000202DE9FC4105464B208DF8040000201B4E0C468DF80000024611
