:020000040800F2
:20840000703C00200D850008CBEE0008EDEA0008C9EE0008E78900085D2201080000000097
:2084200000000000000000000000000061FC000813B200080000000085F20008310701084A
:20844000278500084FF2000827850008278500082785000827850008278500088FB3000851
:2084600095B30008278500082785000827850008DDB10008E9B100082785000827850008F0
:2084800027850008278500082785000827850008A51D010827850008278500082785000825
:2084A00027850008278500082785000827850008F1070108FD070108278500082785000876
:2084C000278500082785000827850008278500082785000827850008790C01082785000822
:2084E00071B300082785000827850008DFF810D000F04AF8004800473D380108AFF30080D0
:20850000703C002000BF704700BF70470648804706480047FEE7FEE7FEE7FEE7FEE7FEE79B
:20852000FEE7FEE7FEE7FEE7A5070108ED84000840EA01039B0703D009E008C9121F08C023
:20854000042AFAD203E011F8013B00F8013B521EF9D27047D2B201E000F8012B491EFBD216
:2085600070470022F6E710B513460A4604461946FFF7F0FF204610BD421C10F8011B00296B
:20858000FBD1801A70470000064C074D06E0E06840F0010394E8070098471034AC42F6D359
:2085A000FFF7A8FF0C5401082C54010870B58C1810F8015B15F0070301D110F8013B2A119F
:2085C00006D110F8012B03E010F8016B01F8016B5B1EF9D12B0705D40023521E0DD401F819
:2085E000013BFAE710F8013BCB1A921C03E013F8015B01F8015B521EF9D5A142D8D30020FC
:2086000070BD000070B5044600688168C943C9071CD1816821F00101816004F015F905467A
:208620000FE000BF04F010F9401B022809D9A06A40F01000A062E06A40F00100E0620120FE
:2086400070BD20688068C043C007EBD0002070BDF8B500260446009600688168C943C907CB
:2086600028D0816841F001018160134813490068B0FBF1F000E0401E00900028FBD104F0A4
:20868000E3F8054611E000BF04F0DEF8401B02280BD9A06A40F01000A062E06A40F001000A
:2086A000E06284F824600120F8BD20688068C043C007E9D10020F8BD8400002040420F00A4
:2086C00010B500F093F8302000F0A4F8942000F0A1F8D12000F09EF8202000F09BF80B20DC
:2086E00000F0B2F8812000F095F83F2000F0ACF8032000F0A9F8F02000F08CF8102000F077
:20870000A3F8CA2000F086F8002000F09DF8872000F09AF8202000F097F8BC2000F07AF89B
:20872000002000F091F8A62000F074F8762000F071F8752000F06EF8002000F085F82820CF
:2087400000F082F8152000F065F8002000F07CF8FF2000F079F8312000F05CF8322000F052
:2087600059F8002000F070F8022000F06DF8012000F06AF8512000F04DF8FB2000F064F839
:20878000402000F047F8F42000F044F8002000F05BF8002000F058F8002000F055F80020CA
:2087A00000F052F8002000F04FF8002000F04CF8002000F049F8002000F046F8F02000F035
:2087C00029F8152000F040F8152000F03DF8152000F03AF8152000F037F8302000F01AF8C4
:2087E000BDE81040AF2000F015B8000010B5084C0020C4F8AC01322004F5D67409F0FFFECB
:2088000001202060BDE81040322009F0F8BE00000000224231B509490020C1F8A801084C4F
:20882000C4F8BC010A2301226946064804F5DE7405F092FA0120206038BD000000002242AC
:2088400000002142B02F002031B509480124C0F8A841084D0020C5F8BC010A232246694686
:20886000054805F5DE7505F077FA2C6038BD00000000224200002142B02F002000F07ABF88
:208880000548008800EB001101EB4010034901EB8000406901F0FCBD9200002038030020B3
:2088A000704770470548008800EB001101EB4010034901EB8000406901F046BF9200002034
:2088C00038030020114810B5008800EB001101EB40110F4800EB8100827BC17B02EBC203B0
:2088E00003EB021201EB8201A1F54061813908D08720084A00215318491C58700429FADB8A
:2089000010BD406901F02AF8F3E700009200002038030020780F002070B5274D04464FF01E
:20892000000649B114E001221021284603F086FF642009F07AFE761CA642F4D334E001229C
:208940001021284603F07AFF642009F06EFE761CA642F4D300221021284603F06FFF64203C
:2089600009F04DFE002608E001221021284603F065FF642009F059FE761CA642F4D3002255
:208980001021284603F05AFF642009F038FE002608E001221021284603F050FF642009F0AA
:2089A00044FE761CA642F4D32846BDE870400022102103F043BF00000010014030B50246AB
:2089C000002001465FF0010422FA01F3DB0705D0C1F1070504FA05F30343D8B2491CC9B2B1
:2089E0000729F1D330BDFEE7084882B0416941F0400141614069074900F04000009004486C
:208A00000860084602B003F05BBB000000100240003002400403002010B50AF09BF9002483
:208A200004E000211B480155601CC4B2042CF8DB00F032F8002000F0D9FB00F065FA00F046
:208A400025FA002000F0D2FB102000F04FFA00F01DFA1048401E407858B10E48401E807887
:208A600038B10C48401EC07818B10A48401E007960B90AF00FF9002000F0B8FB00F026FD40
:208A80000AF022FA00F08EFA00F000FA00F0FEF910BD0000790F002010B504201149087047
:208AA00018E0012000F0A2FB00F02EFA0E48407840B10D48807828B10B48C07810B10A4835
:208AC000007900B90AE000F0E1F906480078801C04490870034800780A28E2DB00BF00F028
:208AE000D5F910BD21030020780F00202DE9F04705460E4617464FF0A5084FF00009A94684
:208B000000F090FCDD4800784FF4F00101EAC040DB49086000242FE008F0010040B1D74855
:208B200000784FF4707101EA8010D649086107E0D24800784FF0707101EA8050D1490861BF
:208B4000D14800688047CD480078782101EAC000CB490860CC4800688047C84800784FF472
:208B6000F00101EAC040C64908604FEA5808C64800688047601CC4B2082CCDDBBF4800787F
:208B80004FF4707101EA8010BE490861BE4800688047BA480078782101EAC000B84908606A
:208BA000B94800688047B54800784FF4F00101EAC040B3490860B44800688047AF480078F3
:208BC000782101EAC000AE490860AF4800688047AA4800784FF4F00101EAC040A8490860EA
:208BE000A94800688047A5480078782101EAC000A3490860A44800688047A04800784FF49A
:208C0000F00101EAC0409E4908609F48006880479A480078782101EAC000994908609A4849
:208C200000688047954800784FF4F00101EAC0409349086094480068804790480078782159
:208C400001EAC0008E4908608F48006880478B4800784FF4F00101EAC040894908608A48AE
:208C60000068804700242EE007F0010040B1834800784FF4707101EA80108249086107E0AD
:208C80007E4800784FF0707101EA80507D4908617D480068804779480078782101EAC0001B
:208CA00077490860784800688047744800784FF4F00101EAC040724908607F107248006876
:208CC0008047601CC4B2102CCEDB00242EE006F0010040B1694800784FF4707101EA801014
:208CE0006849086107E0654800784FF0707101EA8050644908616448006880475F48007863
:208D0000782101EAC0005E4908605F48006880475A4800784FF4F00101EAC04058490860E8
:208D20007610594800688047601CC4B2062CCEDB00242FE009F0010040B1504800784FF49F
:208D4000707101EA80104F49086107E04B4800784FF0707101EA80504A4908614A480068F3
:208D6000804746480078782101EAC00044490860454800688047414800784FF4F00101EA11
:208D8000C0403F4908604FEA69093F4800688047601CC4B2082CCDDB85EA251585EAA505F2
:208DA00085EA650505F0010040B1344800784FF4707101EA80103349086107E02F480078A5
:208DC0004FF0707101EA80502E4908612E48006880472A480078782101EAC000284908602C
:208DE000294800688047254800784FF4F00101EAC040234908602448006880471F48007881
:208E00004FF4707101EA80101E4908611E4800688047002416E019480078782101EAC00017
:208E200017490860184800688047144800784FF4F00101EAC040124908601348006880479B
:208E4000601CC4B2032CE6DB0C480078782101EAC0000B4908600C4800688047074800781A
:208E60004FF4F00101EAC0400549086006480068804700F005FBBDE8F08700008E000020E6
:208E8000100C0140001001402403002010B5144800784FF4F00101EAC0401249086010480A
:208EA00000784FF0707101EA80500F490861002007F0DAFB1E2009F097FB09480078FFF72A
:208EC0007DFD00F0F004204607F0CEFB142009F08BFB002007F0C8FB192009F090FB10BDF7
:208EE0008E000020100C01400010014010B50446062009F084FB002221461046FFF7F6FDA1
:208F00000F2009F07CFB10BD1CB54FF4004220210020FFF7EBFD01A800F07CF8684600F0A5
:208F200079F8002417E001A8005D87280ED11DF8040001280AD11A48005D18B11848005DAF
:208F4000012806D100211648015502E0982114480155601CC4B2042CE5DB9DF804008728C5
:208F600003D19DF80000012819D09DF80500872803D19DF80100012811D09DF8060087286F
:208F800003D19DF80200012809D09DF80700872803D19DF80300012801D0FFF777FF1CBD6E
:208FA000790F002038B5002202211046FFF79EFD002527E0684600F02DF800240BE01DF8DD
:208FC0000400552805D01248005D10B9932110480155601C84B2042CF1DB9DF80000552899
:208FE0000ED09DF8010055280AD09DF80200552806D09DF80300552802D0FFF747FF38BDA4
:20900000681C85B2B5F5006FD4DB00BFF7E70000790F002070B5044600F004FA052009F00D
:2090200004FB6E48006820F07F4040F088406B4908600846406820F0FF0040F0440048600F
:2090400008040861052009F0F0FA002542E0207840102070607840106070A0784010A07064
:20906000E0784010E0705E480078782101EAC0005C4908605C48006880475848806800F43A
:20908000007010B12078803020705448806800F4807010B16078803060705048806800F0D6
:2090A000800010B1A0788030A0704C48806800F0400010B1E0788030E070494800784FF486
:2090C000F00101EAC04047490860474800688047681CC5B2082DBADB4348006880474048F7
:2090E0000078782101EAC0003E4908603E48006880473B4800784FF4F00101EAC040394974
:2091000008603948006880473448006820F07F4040F08850314908600846406820F0FF0095
:2091200040F011004860881408612D4800784FF0707101EA8050294908612B4800688047FC
:2091400027480078782101EAC00026490860264800688047224800784FF4F00101EAC0406F
:20916000204908602048006880471D480078782101EAC0001B4908601B48006880471848A8
:2091800000784FF4F00101EAC0401649086016480068804712480078782101EAC000114974
:2091A00008601148006880470D4800784FF4F00101EAC0400B4908600B4800688047084845
:2091C0000078782101EAC0000649086006480068804700F055F9002070BD000000100140C3
:2091E0008E000020100C0140240300202DE9F0410646884800784FF4F00101EAC040864954
:209200000860844800784FF0707101EA805083490861642009F009FA002007F025FA32208A
:2092200009F0E2F97B480078FFF7C8FB0709384607F01AFA7A48007809F0E1F9754800788B
:20924000782101EAC000744908600A2009F0EDF9002417E06F4800784FF0707101EA805077
:209260006E4908610A2009F0E0F96A4800784FF4707101EA8010694908610A2009F0D5F9FD
:20928000601CC4B20D2CE5DB0A2009F0CEF9002416E0604800784FF4F00101EAC0405E49F9
:2092A00008600A2009F0C1F95A480078782101EAC000594908600A2009F0B7F9601CC4B23C
:2092C0000D2CE6DB0A2009F0B0F9002417E0514800784FF0707101EA8050504908610A2095
:2092E00009F0A3F94B4800784FF4707101EA80104A4908610A2009F098F9601CC4B20D2C54
:20930000E5DB1EB90A2009F090F902E00A2009F076F9404800784FF4F00101EAC0403E49F0
:2093200008604BF25A15002431E005F4004040B1384800784FF4707101EA8010374908613A
:2093400007E0344800784FF0707101EA8050334908610A2009F069F92E480078782101EA7B
:20936000C0002D4908600A2009F05FF9294800784FF4F00101EAC040274908604FF6FF7040
:2093800000EA45050A2009F050F9601CC4B2102CCBDB0A2009F049F94AF21B55002431E013
:2093A00005F4004040B11B4800784FF4707101EA80101A49086107E0164800784FF0707160
:2093C00001EA8050154908610A2009F02EF911480078782101EAC0000F4908600A2009F0C9
:2093E00024F90C4800784FF4F00101EAC0400A4908604FF6FF7000EA45050A2009F015F991
:20940000601CC4B2102CCBDB1E2009F0F8F8BDE8F08100008E000020100C014000100140DF
:209420002103002010B5134800784FF4707101EA8010114908610F480078782101EAC000DB
:209440000E490860052009F0F0F80A4800784FF0707101EA805008490861052009F0E5F8ED
:20946000044800784FF4F00101EAC0400349086010BD00008E00002000100140100C01402C
:2094800010B50F4800784FF0707101EA80500D4908610B480078782101EAC0000A490860D4
:2094A000052009F0C2F8064800784FF4707101EA801004490861052009F0B7F810BD00001F
:2094C0008E00002000100140100C014070B55525002204212846FFF709FB0A2009F0A5F822
:2094E0000A2009F0A2F80A2009F09FF8012407E0284600F00BF80A2009F097F8601C84B224
:20950000B4F5006FF4DB002070BD000070B504462546FFF787FF744800784FF4F00101EA6E
:20952000C0407249086000262EE005F0010040B16D4800784FF4707101EA80106C49086103
:2095400007E0694800784FF0707101EA80506849086168480068804763480078782101EA80
:20956000C000624908606348006880475E4800784FF4F00101EAC0405C4908606D105D48D2
:2095800000688047701CC6B2082ECEDB84EA241484EAA40484EA640404F0010040B15248A7
:2095A00000784FF4707101EA80105149086107E04D4800784FF0707101EA80504C490861C4
:2095C0004C480068804748480078782101EAC00046490860474800688047434800784FF481
:2095E000F00101EAC040414908604248006880473F48006820F07F4040F088403C49086041
:209600000846406820F0FF0040F0440048600804086138480068804733480078782101EA8E
:20962000C000324908603348006880472E4800784FF4F00101EAC0402C4908602D48006816
:2096400080472B48006820F07F4040F08850284908600846406820F0FF0040F011004860CA
:2096600088140861204800784FF0707101EA80501F4908611F48006880471B48007878214F
:2096800001EAC000194908601A4800688047164800784FF4F00101EAC040144908601548AD
:2096A0000068804710480078782101EAC0000F4908601048006880470B4800784FF4F00121
:2096C00001EAC040094908600A480068804706480078782101EAC0000449086005480068F0
:2096E0008047FFF7CDFE70BD8E000020100C01400010014024030020F0B51D4CD1202146AC
:2097000001F0DEFA45F65A252946DD2001F072FB2146D12001F0D4FA4AF2A5563146DD203A
:2097200001F068FB211DD12001F0CAFA4FF0FF373946DD2001F05EFB2146D12001F0C0FAB3
:209740002946DD2001F056FB2146D12001F0B8FA3146DD2001F04EFB0549D120083101F049
:20976000AFFA3946BDE8F040DD2001F043BB00000C0402402DE9F047264CDFF89C904FF4A9
:20978000F0062078002506EAC042C9F80020DFF88C80F70007EA8051C8F81010284606F063
:2097A00063FF322008F020FF2078FFF707F9000906F05AFFDFF868A001F03AF90AF10100F9
:2097C00000F020F900F012FA6D1CEDB2052DF3D3207806EAC042C9F8002007EA8051C8F877
:2097E00010100F2008F000FF002006F03DFF1E2008F0FAFE2078FFF7E1F800F0F00006F066
:2098000033FF142008F0F0FEBDE8F047002006F02BBF00008E000020100C014000100140C4
:20982000780F002008B1034800E00348034948607047000009850008058500082803002034
:20984000F0B5434C89B02146D12001F039FA45F65A21DD2001F0CEFA2146D12001F030FA40
:209860004AF2A551DD2001F0C5FA394DD1200C3D294601F025FA0321DD2001F0BBFA0321DF
:20988000D12001F01DFA0221DD2001F0B3FA314C601C00F0B7F8412008F0A6FE601C00F010
:2098A000B1F82946D12001F00BFA6946F92001F025F804A9BD2001F021F8274D00206A46FB
:2098C000297804AB5FF09A0652F820707FB153F82070032F0BD0271897F801C0BCF1000F0C
:2098E00005D101FA00FC5FEA0C7C00D57E70401CC0B20428E8D3009830B30498032823D01D
:20990000019808B3059803281ED00298E0B10698032819D00398B8B10798032814D000208E
:2099200006F0A2FE1E2008F05FFE2878FFF746F800F0F00006F098FE142008F055FE00201F
:2099400006F092FE09B0F0BD822008F04DFEF9E70C040240780F00208E0000202DE9F05F4A
:20996000DFF88C90C0F3C7280026B9F800004FF4A021344601EB404735464FF4006ADFF88B
:2099800074B01BE052461C49384605F0CFFC1A4A00205346115C401C0E4480B2B6B20C444B
:2099A0009842F7D320460024B0F5FF2F18D001210BF805106D1CEDB207F500674545E1D3BB
:2099C000B9F8000000EB001101EB40100B4901EB8000B0F86600B04208D08620BDE8F09F2C
:2099E00007480178491C01700021E1E70020F5E792000020503200202812002038030020DB
:209A0000280300202DE9FF414FF000080446CDF80080CDF80480CDF80880A520CDF80C8023
:209A200001F00AF96D49086820F07F4040F088400860486820F0FF0040F0440048600804F6
:209A4000086100BF00BF00BF00BF00BF0026654B782528041F78624A05EAC70500EAC74054
:209A6000156000BF00BF00BF00BF00BF106000BF00BF00BF00BF00BF761CF6B2032EEFD35E
:209A80005FF00006DDF800C04FEA5C0CCDF800C0DDF804C04FEA5C0CCDF804C0DDF808C056
:209AA0004FEA5C0CCDF808C0DDF80CC04FEA5C0CCDF80CC0156000BF00BF00BF00BF00BF75
:209AC000D1F808C05FEA8C5C05D5DDF800C04CF0004CCDF800C0D1F808C05FEACC5C05D56C
:209AE000DDF804C04CF0004CCDF804C0D1F808C05FEA0C6C05D5DDF808C04CF0004CCDF8A6
:209B000008C0D1F808C05FEA4C6C05D5DDF80CC04CF0004CCDF80CC0106000BF00BF00BFAA
:209B200000BF00BF761CF6B2202EABD30026156000BF00BF00BF00BF00BF106000BF00BF5D
:209B400000BF00BF00BF761CF6B2022EEFD34FF0707606EA87560E610E6826F07F4646F0B4
:209B600088560E604E6826F0FF0646F011064E604FF480560E6100BF00BF00BF00BF00BF8A
:209B80000026156000BF00BF00BF00BF00BF106000BF00BF00BF00BF00BF761CF6B2032ED9
:209BA000EFD34FF4707000EA8710086100200E4D6A4698264FEA080152F82070AF4205D00B
:209BC0001F7887403F0701D5265400E02154401CC0B20428F0D3BDE8FF8100000010014009
:209BE000100C01408E0000207714C10B2DE9FF4F812001F021F8FE4D286820F07F4040F01A
:209C000088402860686820F0FF0040F0440068604FF0805AC5F810A0DFF8D8837822002364
:209C200098F80060F44C170407EAC64102EAC600206000BF00BF00BF00BF00BF216000BFB4
:209C400000BF00BF00BF00BF5B1CDBB2032BEFD34FF0707303EA86532B611646206000BF05
:209C600000BF00BF00BF00BF00BF00BF00BF00BF00BF216000BF00BF00BF00BF00BF00BF32
:209C800000BF00BF00BF00BF206000BF00BF00BF00BF00BF00BF00BF00BF00BF00BF216051
:209CA00000BF00BF00BF00BF00BF00BF00BF00BF00BF00BF286820F07F4040F0885028603F
:209CC000686820F0FF0040F0110068604FF48050286100BF00BF00BF00BF00BF00BF00BFC7
:209CE00000BF00BF00BF1F2000F062FF98F800004FF4707101EA8011296106EAC0012160AB
:209D000000BF00BF00BF00BF00BF07EAC040206000BF00BF00BF00BF00BF8D2000F08CFF34
:209D2000286820F07F4040F088402860686820F0FF0040F044006860C5F810A098F80030FC
:209D4000002207EAC34106EAC300206000BF00BF00BF00BF00BF216000BF00BF00BF00BF81
:209D600000BF521CD2B2032AEFD3C346206000BF00BF00BF00BF00BF216000BF00BF00BF41
:209D800000BF00BF206000BF00BF00BF00BF00BF216000BF00BF00BF00BF00BF286820F02E
:209DA0007F4040F088502860686820F0FF0040F0110068604FF4805028614FF4707808EAB3
:209DC00083102861002000F0F3FE9BF8000006EAC001216000BF00BF00BF00BF00BF07EAF5
:209DE000C041216000BF00BF00BF00BF00BF08EA8010286100BF00BF00BF00BF00BF00BFA1
:209E000000BF00BF00BF00BF00BF00BF00BF00BF00BF00BF00BF00BF00BF00BF00BF00BF52
:209E200000BF00BF00BF00BF00BF00BF00BF00BFBD2000F001FF286820F07F4040F0884006
:209E40002860686820F0FF0040F044006860C5F810A09BF80010002007EAC1425D4606EAA8
:209E6000C101216000BF00BF00BF00BF00BF226000BF00BF00BF00BF00BF401CC0B20328AE
:209E8000EFD3684600F0CCFC287806EAC001216000BF00BF00BF00BF00BFBB4607EAC04219
:209EA000226000BF00BF00BF00BF00BF216000BF00BF00BF00BF00BF226000BF00BF00BF6A
:209EC00000BF00BF216000BF00BF00BF00BF00BF226000BF00BF00BF00BF00BF444F396857
:209EE00021F07F4141F088513960796821F0FF0141F011017960B914396108EA8010C146F0
:209F0000386100BF00BF00BF00BF00BF00BF00BF00BF00BF00BF00BF00BF00BF00BF00BF77
:209F2000952000F089FE386820F07F4040F088403860786820F0FF0040F0440078604FF07C
:209F400080503861287800220BEAC041D84606EAC000206000BF00BF00BF00BF00BF216056
:209F600000BF00BF00BF00BF00BF521CD2B2032AEFD33746206000BF00BF00BF00BF00BF8D
:209F8000216000BF00BF00BF00BF00BF206000BF00BF00BF00BF00BF216000BF00BF00BF8C
:209FA00000BF00BF4FF0A04000F002FE287806EAC001216000BF00BF00BF00BF00BF08EA95
:209FC000C042226000BF00BF00BF00BF00BF216000BF00BF00BF00BF00BF226000BF00BF06
:209FE00000BF00BF00BFCA4609EA8010004E05E0001001408E000020100C01403061B120A0
:20A0000000F01AFE306820F07F4040F088403060706820F0FF0040F0440070604FF0805906
:20A02000C6F810902A78002008EAC24107EAC202226000BF00BF00BF00BF00BF216000BFD9
:20A0400000BF00BF00BF00BF401CC0B20328EFD3684600F0E5FB297807EAC100206000BF39
:20A0600000BF00BF00BF00BF08EAC141216000BF00BF00BF00BF00BF206000BF00BF00BFF7
:20A0800000BF00BF216000BF00BF00BF00BF00BF206000BF00BF00BF00BF00BF216000BF8B
:20A0A00000BF00BF00BF00BF00BF00BF00BF00BF00BF00BF00BF00BF00BF00BF952000F089
:20A0C000BBFD306820F07F4040F088403060706820F0FF0040F044007060C6F810902878B0
:20A0E000002208EAC04107EAC000206000BF00BF00BF00BF00BF216000BF00BF00BF00BFE2
:20A1000000BF521CD2B2032AEFD3206000BF00BF00BF00BF00BF216000BF00BF00BF00BFE7
:20A1200000BF206000BF00BF00BF00BF00BF216000BF00BF00BF00BF00BF4FF0A84000F0D2
:20A1400037FD00BF00BF00BF00BF00BF2878AD4E0AEA8011316107EAC001216000BF00BFAD
:20A1600000BF00BF00BF08EAC040206000BF00BF00BF00BF00BF00BF00BF00BF00BF00BFBA
:20A1800000BF00BF00BF00BF00BF952000F054FD306820F07F4040F088403060706820F037
:20A1A000FF0040F044007060C6F810902878002208EAC041464607EAC000206000BF00BF0E
:20A1C00000BF00BF00BF216000BF00BF00BF00BF00BF521CD2B2032AEFD3A346206000BFFD
:20A1E00000BF00BF00BF00BF216000BF00BF00BF00BF00BF206000BF00BF00BF00BF00BFEC
:20A20000216000BF00BF00BF00BF00BF7E4800F0CFFC00BF00BF00BF00BF00BF00BF00BF48
:20A2200000BF00BF00BF287807EAC001216000BF00BF00BF00BF00BF06EAC041216000BF22
:20A2400000BF00BF00BF00BF6E4C0AEA8010206100BF00BF00BF00BF00BF00BF00BF00BF4B
:20A2600000BF00BFB12000F0E7FC206820F07F4040F088402060606820F0FF0040F04400A2
:20A280006060C4F810902A78B84606EAC24100205F4608EAC2023A6000BF00BF00BF00BFFE
:20A2A00000BF396000BF00BF00BF00BF00BF401CC0B20328EFD3684600F0B2FA297808EAF3
:20A2C000C100386000BF00BF00BF00BF00BF06EAC141396000BF00BF00BF00BF00BF38608C
:20A2E00000BF00BF00BF00BF00BF396000BF00BF00BF00BF00BF386000BF00BF00BF00BFBB
:20A3000000BF396000BF00BF00BF00BF00BF00BF00BF00BF00BF00BF00BF00BF00BF00BF73
:20A3200000BFC52000F088FC206820F07F4040F088402060606820F0FF0040F0440060602B
:20A34000C4F8109095F800C0002006EACC4208EACC01396000BF00BF00BF00BF00BF3A6089
:20A3600000BF00BF00BF00BF00BF401CC0B20328EFD3396000BF00BF00BF00BF00BFB1461C
:20A380003A6000BF00BF00BF00BF00BF396000BF00BF00BF00BF00BF3A6000BF00BF00BF3D
:20A3A00000BF00BF56460AEA8C102061174800F0FFFB00BF00BF00BF00BF00BF00BF00BFF0
:20A3C00000BF00BF00BF287808EAC001396000BF00BF00BF00BF00BF09EAC041396000BF4D
:20A3E00000BF00BF00BF00BF06EA801020610849D12000F065FC0749DD2000F0FBFCBDE8F4
:20A40000FF8F000000100140000F005052000023F0ED00E003005FA070B51C4CD1202146E5
:20A4200000F04EFC45F65A252946DD2000F0E2FC2146D12000F044FC4AF2A5563146DD20BB
:20A4400000F0D8FC211DD12000F03AFC0021DD2000F0D0FC2146D12000F032FC2946DD2027
:20A4600000F0C8FC2146D12000F02AFC3146DD2000F0C0FC0549D120083100F021FCBDE870
:20A4800070400021DD2000F0B5BC00000C0402402DE9F05F8346002508F0FCFB3E4C3F4FE1
:20A4A0004FF4F006207806EAC0413960DFF8F0904FF0707808EA8051C9F81010002006F009
:20A4C000D3F8322008F090F82078FEF777FA000906F0CAF833480121824641708170C170E8
:20A4E00001710BE000F0A4FA0AF10100FFF78AFAFFF77CFB6D1CEDB2052D03D004F0C4FEAB
:20A500000028EFD004F0C0FE18B1FFF7F5F8FFF797F904F0B9FEE0B1FFF77EFFFFF7ECF8E7
:20A52000502008F082F8584600F0CEFAFFF774FFFFF7E2F808F0C8FC584600F039F81A48CD
:20A5400000211A4A017008461154401CC0B22028FAD30A2008F048F8207806EAC0413960EB
:20A5600008EA8051C9F810100F2008F03DF8002006F07AF81E2008F037F82078FEF71EFA49
:20A5800000F0F00006F070F8142008F02DF8BDE8F05F002006F068B88E000020100C0140F7
:20A5A00000100140780F002028030020503200202DE9FF5F002100910191029103913C4952
:20A5C0004FF4A02200260988C0F3C72902EB414A3546DFF8E0B0384F64E03848405DE8B33F
:20A5E0004FF400623649504604F0A0FE5FF0000406EB8400694600F06DF931486B4600EB2D
:20A6000084004FF0930C82780188C07862F31F4141EA00619BF80020002000BF53F820805F
:20A6200088450DD007EB000E9EF80180B8F1000F06D102FA00F85FEA087801D58EF801C0F0
:20A64000401CC0B20428E9D30098884220D0019888421DD0029888421AD000E01CE00398DD
:20A66000884215D0002005F0FFFF1E2007F0BCFF9BF80000FEF7A2F900F0F00005F0F4FF3D
:20A68000142007F0B1FF002005F0EEFFBDE8FF9F641CB4F5007FABD36D1C0AF5006AEDB2E3
:20A6A00006F500664D4598D3FFF7B6FEEEE70000920000208E000020780F00205032002014
:20A6C000281200202DE9FF5F1D490025C0F3C72891F800102E46284601FA00F2120701D528
:20A6E000C6B202E0401C0428F6D3002721E0DFF854A00024E9464FF4007B00BF05EB840078
:20A70000694600F0E7F859F826000AEB8402030ED370030C9370030A53700AF82400641CED
:20A720005C45EBD34FF4006009F0B8FC05F500657F1C4745DBD304B00020BDE8F09F00002E
:20A740008E000020281200202DE9F04100268046374608F0CFFA2E4D2E4A4FF4F0012878B9
:20A7600001EAC04111604FF0707101EA80502A490861002005F078FF322007F035FF28781C
:20A78000FEF71CF9000905F06FFF95F80000002400FA04F1090701D5274603E0641CE4B257
:20A7A000042CF5D31D4C01202744787000F040F9601CFFF727F9FFF719FA761CF6B2052E93
:20A7C00002D078780028F1D1FFF726FEFEF794FF4046FFF777FF787810B108F0D5FC01E0DE
:20A7E00008F0BCF9002005F03FFF1E2007F0FCFE2878FEF7E3F800F0F00005F035FF14207D
:20A8000007F0F2FE002005F02FFF0020BDE8F0818E000020100C014000100140780F0020D5
:20A8200070B529490A6822F07F4242F088420A604A6822F0FF0242F044024A600A040A6176
:20A84000224C0022782325784FF4F00603EAC5041F4B06EAC545066876080660466876085F
:20A860004660866876088660C6687608C6601C6000BF00BF00BF00BF00BF8E68B60503D54E
:20A88000066846F0004606608E68F60503D5466846F0004646608E68360603D5866846F0A1
:20A8A000004686608E68760603D5C66846F00046C6601D6000BF00BF00BF00BF00BF521CAC
:20A8C000D2B2202AC7D370BD001001408E000020100C01401FB500220C46014600920192D3
:20A8E0000292D120039200F0EBF96946F92000F005F82146BD2000F001F81FBD2DE9F0475F
:20A900008A4600F099F9474B474C4FF07070197800EA81502061454D782606EAC1022A6067
:20A92000206820F07F4040F088402060606820F0FF0040F0440060602704276100BF00BF0C
:20A9400000BF00BF00BF0020B1464FF4F006984606EAC141296000BF00BF00BF00BF00BF56
:20A96000A368A368A368A3682A6000BF00BF00BF00BF00BF401CC0B20328EBD35046FFF723
:20A980004FFF206820F07F4040F088402060606820F0FF0040F044006060276198F8001067
:20A9A00009EAC1022A6000BF00BF00BF00BF00BF06EAC1432B6000BF00BF00BF00BF00BF62
:20A9C000206820F07F4040F088502060606820F0FF0040F0110060604FF48050206100200C
:20A9E0002A6000BF00BF00BF00BF00BF2B6000BF00BF00BF00BF00BF401CC0B20228EFD312
:20AA000000BF00BF00BF00BF00BF4FF4707000EA8110206100BF00BF00BF00BF00BFBDE8FC
:20AA2000F08700008E00002000100140100C014030B52249086820F07F4040F08850086044
:20AA4000486820F0FF0040F011004860881408611B4803784FF4707000EA83100861002240
:20AA600078242504174804EAC30405EAC34500BF00BF00BF00BF00BF046000BF00BF00BFAA
:20AA800000BF00BF0560521CD2B2382AEFD34FF0707202EA83520A61002100BF00BF00BF12
:20AAA00000BF00BF046000BF00BF00BF00BF00BF0560491CC9B20329EFD330BD0010014088
:20AAC0008E000020100C01402DE9F04719494FF4A02200260988C0F3C72802EB414735466E
:20AAE00023E01548405DD8B14FF400621349384604F01CFCDFF8449000244FF4007A00BFFA
:20AB000009EB840082780188C07862F31F4141EA006106EB840000F013F8641C5445EFD376
:20AB20006D1C06F5006607F500674545D9D3BDE8F0870000920000205032002028120020C8
:20AB400070B51A4E0D4604463146D12000F0B8F845F65A21DD2000F04DF93146D12000F082
:20AB6000AFF84AF2A551DD2000F044F90F4ED1200C3E314600F0A4F80121DD2000F03AF9F5
:20AB80002146D12000F09CF82946DD2000F032F93146812000F094F83146812000F090F82E
:20ABA0003146BDE87040812000F08AB80C040240F0B51E490A6822F07F4242F088520A60DD
:20ABC0004A6822F0FF0242F011024A608A140A61174A13784FF0707202EA83550D61002257
:20ABE0004FF4707404EA83167827124C4FF4F00C07EAC3070CEAC3435FEAC07C01D00E61EF
:20AC000000E00D6100BF276000BF00BF00BF00BF00BF236000BF00BF00BF00BF00BF40085F
:20AC2000521CD2B2202AE7D3F0BD0000001001408E000020100C0140F0B51E490A6822F085
:20AC40007F4242F088520A604A6822F0FF0242F011024A608A140A61174B002278251B784C
:20AC60002E04164C05EAC30506EAC346070604D54FF4707707EA831703E04FF0707707EAFB
:20AC800083570F6100BF00BF00BF00BF00BF4006000E256000BF00BF00BF00BF00BF266095
:20ACA00000BF00BF00BF00BF00BF521CD2B2082ADCD3F0BD001001408E000020100C0140FD
:20ACC0002DE9F0438946FFF7B7FF464D286820F07F4040F088402860686820F0FF0040F02F
:20ACE0004400686028042861404E4FF4F0073E4832784FF0780C3E4C07EAC24300210CEA41
:20AD0000C202226000BF00BF00BF00BF00BFD0F82481D0F82081D0F81C81D0F81881236013
:20AD200000BF00BF00BF00BF00BF491CC9B20329E7D3E046226000BF00BF00BF00BF00BF2F
:20AD4000236000BF00BF00BF00BF00BF226000BF00BF00BF00BF00BF236000BF00BF00BFB8
:20AD600000BF00BF4846FFF723FF484607F0FDFBC0074FF4707114D000BF00BF00BF00BF67
:20AD800000BF307801EA8011296108EAC001216000BF00BF00BF00BF00BF07EAC0402060E6
:20ADA00018E000BF00BF00BF00BF00BF307808EAC002226000BF00BF00BF00BF00BF07EA56
:20ADC000C042226000BF00BF00BF00BF00BF01EA8010286100BF00BF00BF00BF00BFBDE8D0
:20ADE000F083000000100140000022428E000020100C01402DE9F0438946FFF71DFF4B4D5E
:20AE0000286820F07F4040F088402860686820F0FF0040F04400686028042861454E4FF4AD
:20AE2000F007434832784FF0780C434C07EAC24300210CEAC202226000BF00BF00BF00BF45
:20AE400000BFD0F82481D0F82081D0F81C81D0F81881236000BF00BF00BF00BF00BF491CF4
:20AE6000C9B20329E7D3E046226000BF00BF00BF00BF00BF236000BF00BF00BF00BF00BFD0
:20AE8000226000BF00BF00BF00BF00BF236000BF00BF00BF00BF00BF4846FFF789FE48469E
:20AEA00007F063FBC0074FF4707119D000BF00BF00BF00BF00BF307801EA8011296108EA0E
:20AEC000C001216000BF00BF00BF00BF00BF07EAC040206000BF00BF00BF00BF00BF1DE04C
:20AEE00000BF00BF00BF00BF00BF30784FF0707202EA80522A6108EAC002226000BF00BFD1
:20AF000000BF00BF00BF07EAC042226000BF00BF00BF00BF00BF01EA8010286100BF00BF42
:20AF200000BF00BF00BFBDE8F083000000100140000022428E000020100C01400020704725
:20AF4000002070470020704770B50024064D07E0165D4640F6B2641C55F8266086EA10202C
:20AF60009C42F5D3484070BD544901082DE9F8432C482E4F002501784278DFF8AC8001EB47
:20AF800002218278C078120402EB006001EB00093878A52801D1002038702548FDF7ECFAA6
:20AFA000C1B2234808F0B8FF04462248008800EB001101EB4012204908EB404001EB820143
:20AFC00000F52F00CA7B897B01EBC10303EB011102EB81060422694604F0A8F99DF80000E1
:20AFE0009DF803109DF8012040EA01609DF80210090441EA02210843B9F1D70F0FD0B442B6
:20B0000001D004B10125B44203D10C490968884201D1002D03D0A520387001F0D7FCBDE882
:20B02000F8830000F87F0008F87B0100F84F0020C0FF01089200002038030020F8FF010866
:20B0400010B52F48008800EB80002E4B53F830002B4B1B8803EB83032A4C04EBC3035B6852
:20B060001844274B1B8803EB830304EBC3039B681844234B1B8803EB830304EBC303DB685A
:20B08000C2181F48008800EB001303EB40101E4B03EB800090F8440000F0010068B118489E
:20B0A000008800EB001303EB4010174B03EB8000806F904201D8012010BD00211CE01048FF
:20B0C000008800EB80000F4B03EBC00050F821000E4B98420CD80A48008800EB8000094B5C
:20B0E00003EBC000103050F82100084B984201D90120E1E7481CC1B20429E0DB0020DBE768
:20B10000920000208C0F0020380300203F420F00F0B52C48008800EB001101EB40112A488B
:20B1200000EB810090F80EE0B0F85C40B0F85EC0B0F86020B0F86270B0F85430B0F85660F7
:20B14000B0F85810B0F85A50BEF10A0F18D0E0B20CF0FF0400EB0420D2B200EB0240DAB200
:20B16000F3B202EB0322C9B202EB014100EB076001EB0561421C01D0884220D98920F0BD82
:20B180004FEA0C4C00201CEB040440EB000C10EB040E42EB0C023C0410EB0E075441320455
:20B1A000D21840EB000683187141C01841EB05426FEA07012143E1D0C01BA241DED30020D7
:20B1C000F0BD0000920000203803002010B505F08FFABDE8104005F079BA0000014801F01B
:20B1E00041B80000A0300020014801F03BB80000D830002010B5046863604368102B0368CC
:20B2000003D099600068C26010BD9A600068C16010BD704710B504464FF4803000EB0431E2
:20B22000002000F001F94FF4A02000EB4441012000F0FAF84FF4C02000EB4441012000F0EA
:20B24000F3F810BDF0B5074638A00E4691B007C801AB83E8070038A004AB07C883E8070022
:20B2600038A207AB07CA83E8070039A00AAB07C883E8070039A20DAB07CA83E8070000203A
:20B2800007F07CF90C2546B1300907282CD2DFE800F02B222428262B2A00072F0ED2DFE80C
:20B2A00007F00D04060A080D0C0001AC06E004AC04E00DAC02E00AAC00E007AC10232246AF
:20B2C00005213820009507F038FA10230821264A4020009521E001AC06E004AC04E00AAC93
:20B2E00002E00DAC00E007AC1023224605213820009507F022FA06F002001C4A012108F0E7
:20B30000B9FE1A4A02210832304608F0B3FE174A1023921E08213820009507F00EFA4FF4FA
:20B32000FA7007F061F911B0F0BD00002056444420434845434B202020565057204348451B
:20B34000434B202020464C415348205445535420205541525420205445535420434F4E4EE7
:20B360004543542054455354B4000020D601002010B54FF4804001F077F94FF4006001F009
:20B3800073F9BDE810404FF4806001F06DB9022001F06AB9042001F067B9000030B51E485C
:20B3A00085B0816941F004018161816901F004010491816941F0080181618069174C00F09F
:20B3C00008000490022001258DE831006946144801F056F944F604408DE83100694611486C
:20B3E00001F04EF902221146082001F0BDFA082001F0AFFA03220221072001F0B5FA0720D2
:20B4000001F09CFA05220221282001F0ADFA282001F09FFA05B030BD001002400000211084
:20B4200000080140000C014070B505460C4607F023F807F071F800221021184801F0FEF9A7
:20B4400025B1012D06D0022D0CD107E020201449087007E0D8201249087003E0C720104935
:20B46000087000BF00BF4FF47A7301220C490D4802F072FC022D0BD0200C09490870200A4F
:20B4800048708C704FF47A730322064802F064FC01221021014801F0D1F970BD0008014035
:20B4A00014020020582F0020FEE700003EB5174B044600250A21186803E0B0FBF1F06D1C63
:20B4C000EDB20028F9D16A462946186808F06CFD9DF8000020702E2060709DF80110A170E1
:20B4E000E0709DF8020020719DF8030060712020A071002069462D1F05E00A182318127932
:20B50000401CDA71C0B2A842F7DB3EBDF8FF010810B505F051F8FF2005F07AF80A2007F0B1
:20B520006EF8F02005F074F80A2007F068F8BDE81040FF2005F06CB82DE9F0474FF00009F1
:20B54000002426E0E1B2002008F024F84FF4803000EB044702115349384603F0E7FE0025A7
:20B5600008E05048405DFF2802D04FF0010904E0681C85B2B5F5805FF3DB00BFB9F1010FFD
:20B5800005D139460120FFF74FFF4FF00009601C84B2CD2CD6DB00267FE000210846FFF763
:20B5A00043FF16B14FF0550801E04FF0AA08711CC8B2002107F0EEFF002404E0394800F887
:20B5C0000480601C84B2FF2CF8DD00274FF480723449384606F07AFF4FF480723149384642
:20B5E00003F0A4FE002408E02E48005D404502D06020BDE8F087601C84B2FF2CF4DD002115
:20B600000846FFF711FF16B14FF0550801E04FF0AA08002404E0234800F80480601C84B200
:20B62000FF2CF8DD4FF48037002509E04FF480721C49384606F04AFF07F58037681C85B23D
:20B64000CD2DF3DB4FF48037002515E04FF480721449384603F06AFE07F58037002407E0E5
:20B660001048005D404501D06020C2E7601C84B2FF2CF5DD681C85B2CD2DE7DB002408E064
:20B680004FF4803000EB04410020FFF7CDFE601C84B2CD2CF4DB701C86B2022EFFF67DAF17
:20B6A0000020A6E7281200202DE9F04107460C464FF00008FF224FF480511048FCF74AFF8D
:20B6C00016E0B4F5806F01D2A5B201E04FF480652A460A49384603F029FE002604E00748F5
:20B6E000805D8044701C86B2AE42F8DB2F44641B002CE6D14046BDE8F08100002812002057
:20B700002DE9F04107460C464FF00008FF224FF480512C48FCF71EFFB4F5803F35D916E0D7
:20B72000B4F5806F01D2A5B201E04FF480652A462449384603F0FAFD002604E02148805DA9
:20B740008044701C86B2AE42F8DB2F44641BB4F5803FE5D816E0B4F5806F01D2A5B201E0EE
:20B760004FF480652A461749384603F0DFFD002604E01448805D8044701C86B2AE42F8DBF6
:20B780002F44641B002CE6D119E016E0B4F5806F01D2A5B201E04FF480652A4609493846DA
:20B7A00003F0C4FD002604E00648805D8044701C86B2AE42F8DB2F44641B002CE6D14046FA
:20B7C000BDE8F081281200207FB504461022C9496846FCF7ADFEC848008800EB8000C749D8
:20B7E00051F83000C449098801EB8101C34A02EBC10149680844C049098801EB810102EB16
:20B80000C10189680844BC49098801EB810102EBC101C9684618E5202070422060707A2086
:20B82000A07004F0CFF8B449087803F0A9FD03F063FF002505E0B248415DE81C2154681C33
:20B84000C5B2102DF7DBAF480088000AE074AD4800782075AC480068000E6075AA480068EA
:20B86000000CA075A8480088000AE075A64800782076002508E0A548284490F8E81705F1F1
:20B8800019002154681CC5B20C2DF4DB00250EE09948008800EB001101EB40109C4901EB92
:20B8A0008000415D05F125002154681CC5B20E2DEEDB9148008800EB001101EB4010944965
:20B8C00001EB8000807B04F8330F8B48008800EB001101EB40108E4901EB8000C07B6070E2
:20B8E0008548008800EB001101EB4010884901EB8000B0F84400000AA0707F48008800EB3E
:20B90000001101EB4010824901EB800090F84400E0707948008800EB001101EB40107C4941
:20B9200001EB8000B0F86600000A20717248008800EB001101EB4010754901EB800090F8C6
:20B94000660060716C48008800EB001101EB40106F4901EB8000B0F86A00000AA07166483D
:20B96000008800EB001101EB4010694901EB800090F86A00E0716048008800EB001101EB8E
:20B980004010634901EB8000B0F86E00000A20725948008800EB001101EB40105C4901EB9B
:20B9A000800090F86E0060725348008800EB001101EB4010564901EB8000007CA072333CDC
:20B9C0004D48008800EB001202EB40100A4602EB800000F12401102204F14000FCF7A8FD3E
:20B9E0004548008800EB001101EB4010484901EB800090F8460084F850003F48008800EB69
:20BA0000001101EB4010424901EB800090F8640084F851003848008800EB001101EB4010E9
:20BA20003B4901EB8000806CC4F8520000252EE03148008800EB001101EB4010344901EB47
:20BA400080004C3030F815106800563021522A48008800EB001101EB40102D4901EB800028
:20BA6000543030F8151068005E3021522248008800EB001101EB4010254901EB80005C30FC
:20BA800030F81510680066302152681CC5B2042DCEDB44F86E6F1848008800EB001101EB2A
:20BAA00040101B4901EB8000808BA0801248008800EB001101EB4010154901EB8000C08B0C
:20BAC000E0800D48008800EB001101EB4010104901EB8000008C20810748008800EB00112C
:20BAE00001EB40100A4901EB8000408C60816E3C7FBD0000C0FF0108920000208C0F002083
:20BB0000E0FF0108FC7F0008F8FF010800F0FF1F38030020F8B500250446009590F82400F4
:20BB2000012808D0012084F824002046FCF76AFD060002D04BE00220F8BDA06A20F48850B3
:20BB400040F00200A062022001F02CFA22490968B1FBF0F0400000E0401E00900028FBD10E
:20BB60002046FCF775FD2068816841F00801816000F06AFE074604E000F066FEC01B0A2884
:20BB800011D8206880680007F6D42068816841F00401816000F058FE07460EE000F054FE30
:20BBA000C01B0A2809D9A06A20F0020040F01000A06284F824500120F8BD206880684007BB
:20BBC000ECD4A06A20F0020040F00100A06284F824503046F8BD000084000020F8B50025C5
:20BBE000009590F82420AE46012A1ED0012280F824204A681F244FF47873072A17D206684D
:20BC0000776B93FAA3FCBCFA8CFC521E02FB0CFC04FA0CF4A74393FAA3F3B3FA83F30C68C1
:20BC20005A439440274377632DE00220F8BD06680D2A14D2376B93FAA3FCBCFA8CFCD21FE3
:20BC400002FB0CFC04FA0CF4A74393FAA3F3B3FA83F30C685A4394402743376313E0F76A74
:20BC600093FAA3FCBCFA8CFC0D3A02FB0CFC04FA0CF4A74393FAA3F3B3FA83F30C685A43CF
:20BC800094402743F7620A683823072406680A2A14D3F76893FAA3FCBCFA8CFC0A3A02FB82
:20BCA0000CFC04FA0CF4A74393FAA3F3B3FA83F38C685A4394402743F76012E0376993FA09
:20BCC000A3FCBCFA8CFC02FB0CFC04FA0CF4A74393FAA3F3B3FA83F38C685A439440274385
:20BCE00037610A68102A01D0112A20D1124B02689A4217D193681B0219D4936843F400033E
:20BD000093600968102912D10C490D4A0968B1FBF2F101EB8101490000E0491E009100293F
:20BD2000FBD104E0816A41F020018162012580F824E02846F8BD0000002401408400002065
:20BD400040420F000068C06C704700002DE9F04104004FF0000513D0A06A002628B9E6623C
:20BD600084F82460204600F08BF82046FCF74AFCA16AC90600D420B1A06A40F01000A06280
:20BD800078E0A16A21F4885141F00201A1626268E16902270A43E16897FAA7F70B46B7FA17
:20BDA00087F7B9400A43A1684FF48077B94209D0012907D05FF00001D4F814C0BCF1010FFA
:20BDC00002D00AE03946F7E7F3B1A36A43F02003A362E36A43F00103E3622368D3F804C05B
:20BDE0002CF4694C4CEA010CC3F804C021688B68DFF884C003EA0C0313438B60A168B942D4
:20BE000010D001290ED016E04FF4604CA3699CFAACFCBCFA8CFC5B1E03FA0CF30B4343F4D3
:20BE20000061DAE74FF47001256991FAA1F1B1FA81F16D1E8D402168CB6A23F470032B4356
:20BE4000CB62216889680D4B1940914208D1E662A16A21F0020141F00101A162BDE8F0812B
:20BE6000A06A20F0020040F01000A062E06A40F00100E0620120F1E7FDF7E1FFFE0E1FFFB0
:20BE800010B500680E4986B0884217D10D48816941F4007181618069032400F40070049067
:20BEA0000F20CDE900046946074800F0E9FB0120CDE900046946054800F0E2FB06B010BDA0
:20BEC000002401400010024000100140000801402DE9F84300260D460446009600F0B4FCC7
:20BEE000804620688168C90508D5A06A40F02000A06284F824600120BDE8F8834168C9054C
:20BF000003D4C06A10F4700F26D0022001F04AF838490968B1FBF0F72068036936490B420D
:20BF20004FEA61014FEAA1121BD1C3684FEA611C13EA0C0F15D103690B4221D1C06810428A
:20BF40001ED114201FE0681C06D045B300F07CFCA0EB0800A84222D8206800688007F2D550
:20BF60002AE003690B4202D1C168114206D0026922490A4206D1C068084203D1542002E044
:20BF8000292000E0FC204743009813E0681C0ED02DB100F059FCA0EB0800A84207D9A06A5B
:20BFA00040F00400A06284F824600320A4E70098401C0090B842E9D321686FF01200086001
:20BFC000A06A40F40070A06220688068C0F3424007280CD1E06850B9A06A20F48070A0629F
:20BFE000A06AC00403D4A06A40F00100A062002082E7000084000020244992244992240010
:20C0000070B5044690F8240001280DD0012084F824002046FCF71CFB02004FF0000005D0B8
:20C0200084F82400104670BD022070BDA16A40F20123994341F48071A1621F4D23681F49C9
:20C04000AB4218D10E6816F4702F14D0A66A46F48016A6620E68760505D5A66A26F40056D4
:20C0600046F48056A662A66AF6040AD5E66A26F00606E66206E0A66A26F48016A6625E6891
:20C08000E9E7E06284F824006FF00200186020688368C3F34243072B05D1A84208D109682B
:20C0A00011F4702F04D0816841F480118160B9E7816841F4A001F9E7002801400424014067
:20C0C00010B5040002D0607910B106E0012010BD00202071204600F004F801206071002042
:20C0E00010BD70472DE9F04104460068016821F00101016000F0A8FB054600264FF47A77AE
:20C1000010E000BF00F0A0FB401BB8420AD954F8340F40F0200044F81409032060702670EC
:20C12000BDE8F08120680068C007EBD1012084F8210084F820600020F2E70000F0B540B32B
:20C1400090F82110022924D001680A6822F001020A6001684FF0000EC1F800E00168C1F83C
:20C1600004E00168C1F808E00168C1F80CE03C4C3B4D3B4E3A4F3A4ADFF8E4C001681434F1
:20C1800028353C3650370CF1640C914203D102211BE00120F0BDA14201D1202115E0A94273
:20C1A00002D14FF4007110E0B14202D14FF400510BE0B94202D14FF4003106E0614502D122
:20C1C0004FF4001101E04FF00071254B083B59600168914201D1082119E0A14201D1802188
:20C1E00015E0A94202D14FF4006110E0B14202D14FF400410BE0B94202D14FF4002106E0AB
:20C20000614502D14FF4000101E04FF0006159600168914201D1042119E0A14201D14021E5
:20C2200015E0A94202D14FF4806110E0B14202D14FF480410BE0B94202D14FF4802106E0EA
:20C24000614502D14FF4800101E04FF080615960C0F834E080F821E080F820E00020F0BD5D
:20C26000080002402DE9F05FDFF860820446D8F80020DFF858B2954D944E944F0068DFF855
:20C280004C92DFF848A20BF1080B1C35303644374FF400614FF4004C4FF4002E09F15809BF
:20C2A0000AF16C0A584501D1082316E0A84201D1802312E0B04201D10B460EE0B84201D15D
:20C2C00063460AE0484501D1734606E0504502D14FF4000301E04FF000631A4231D00268D5
:20C2E000D24312072DD4026822F0080202602068584501D1082114E0A84201D1802110E0C6
:20C30000B0420ED0B84201D161460AE0484501D1714606E0504502D14FF4000101E04FF028
:20C320000061C8F80410606B40F001006063042084F82100002084F82000216B09B12046E0
:20C3400088476248D0F800C04FF4806120680A010B044FF4802E584502D14FF0040816E074
:20C36000A84202D14FF0400811E0B04201D188460DE0B84201D1904609E0484501D1F046E9
:20C3800005E0504502D14FF4800800E098461CEA080F33D0D0F800C06FEA0C0C5FEA4C7C9D
:20C3A0002CD4D0F800C05FEA8C6C05D4D0F800C02CF0040CC0F800C02068584501D1042193
:20C3C00013E0A84201D140210FE0B0420DD0B84201D1114609E0484501D1714605E05045F3
:20C3E00002D14FF4800100E0194638484160112084F82100E16A09B120468847334AD2F8F7
:20C4000000C05B46206851154FF4005B4FF4003E984202D14FF0020817E0A84202D14FF0C5
:20C42000200812E0B04201D188460EE0B84201D1D8460AE0484501D1F04606E0504502D1AB
:20C440004FF4001801E04FF000781CEA080F3BD0D0F800C06FEA0C0C5FEA8C7C34D4D0F8A7
:20C4600000C05FEA8C6C05D4D0F800C02CF0020CC0F800C02068984201D1022114E0A84283
:20C4800001D1202110E0B0420ED0B84201D159460AE0484501D1714606E0504502D14FF4CD
:20C4A000001101E04FF000715160606B6063012084F82100002084F82000A16A002903D01A
:20C4C0002046BDE8F05F0847BDE8F09F0000024070B520B190F82110002411B103E00120A4
:20C4E00070BD80F82040022180F8211003681A6843F6F0718A43D0E901152943D0E90356CA
:20C50000354329434569294385692943C5692943114319604463012180F82110002070BD9D
:20C5200070B5044690F82000012823D0012084F82000022084F821002068056825F001053C
:20C5400005602046FEF756FE2068016841F0020101602068016841F00401016020680168C8
:20C5600041F0080101602068016841F001010160002070BD022070BD31B500F065F9044681
:20C5800000F062F90099001B8842F9D338BD000070B506460A2006F027F82F4C2F4DB6F5BF
:20C5A000806F3AD012DC022E25D0042E34D1D5F80801002830D10A2006F021F8D5F808012A
:20C5C000002829D1207840F0010034E0B6F5006F33D0B6F5804F1FD1D5F8380100281BD1BB
:20C5E0000A2006F00CF8D5F83801002814D1207840F008001FE01A4CD4F8040100280BD1FA
:20C60000642005F0FCFFD4F80401002804D11548017881F00101017070BDD5F828010028D3
:20C62000FAD10A2005F0EBFFD5F828010028F3D1207840F00200207070BDD5F82C0100289B
:20C64000FAD10A2005F0DBFFD5F82C010028F3D1207840F00400EEE78D00002000802142FF
:20C66000000021428C000020044910B50A68024202D00860FFF78CFF10BD00001404014002
:20C680002DE9F84FDFF890A100220AF1040B144601274FF00F090BF1040E00BF0B6807FAEF
:20C6A00004F52B40AB4274D1DFF870C14E68A6EB0C0866452BD00DDC032E34D005DC36B3F3
:20C6C000012E19D0022E2FD11BE0112E16D0122E2AD119E0B8F5881F19D006DCB8F5803F33
:20C6E00015D0B8F5801F1FD111E0B8F5001F0ED0B8F5041F18D10AE0CA6815E0CA68121D53
:20C7000012E0CA6808320FE0CA680C320CE08A682AB1012A4FF0080203D0456104E00422AC
:20C7200002E0056100E00022FF2B01D8064601E000F104064FEA840501D9A5F12005D6F85F
:20C7400000C009FA05F82CEA080C02FA05F54CEA050CC6F800C04D68ED0057D5304DAE69D2
:20C7600046F00106AE61AD6924F0030605F0010500952C4D06EB050CDCF80850A6074FEA1D
:20C78000167809FA08F6B543274EB04202D1002610E03BE0254EB04201D101260AE0244EED
:20C7A000B04201D1022605E0224EB04201D1032600E0042606FA08F62E43CCF808604D68F1
:20C7C000DAF80060ED03554601D51E4300E09E432E604D68DBF80060AD035D4601D51E43A4
:20C7E00000E09E432E604D68DEF80060ED02754601D51E4300E09E432E604D68AD020E4D10
:20C800002E6801D51E4300E09E432E60641C102CFFF444AFBDE8F88F0004014000001110C8
:20C82000001002400000014000080140000C014000100140001401400C0401400AB10161BB
:20C8400070470904FBE7000001480068704700001003002002480168491C01607047000067
:20C8600010030020074810B5016841F010010160032000F099F8002000F006F800F016F8B5
:20C88000002010BD0020024010B5044600F05CFD4FF47A71B0FBF1F001F05BFC0022214666
:20C8A000501E00F061F8002010BD0000214808B5816941F001018161806900F00100009045
:20C8C000032000F071F8002211466FF00B0000F04BF8002211466FF00A0000F045F8002295
:20C8E00011466FF0090000F03FF800221146501F00F03AF800221146101F00F035F8002261
:20C900001146901E00F030F800221146501E00F02BF800221146012000F026F8012000F047
:20C9200018F80548416821F0E06141F00071416008BD0000001002400000014000F01F02F3
:20C94000012191404009800000F1E020C0F88011704700F01F02012191404009800000F16C
:20C96000E020C0F800117047F0B40E4B1B680C46C3F30223C3F10705042D00D90425191D61
:20C98000072901D2002300E0DB1E012606FA05F1491E214099409E40761E16403143F0BCF2
:20C9A00002F094BA0CED00E0064900F0070208684FF6FF03184040EA0220034A10430860B3
:20C9C000704700000CED00E00000FA05BFF34F8F05480168054A01F4E06111430160BFF396
:20C9E0004F8F00BFFDE700000CED00E00400FA0510B50C0605D501F07F0100EB4110283024
:20CA000003E000EB411000F5027099B232B101228272C180190C0181002010BD0022827260
:20CA20008180F9E7704700EB4112D0F81C04D26B04F09DBB00EB4112D0F81C04D2F81C2281
:20CA400004F0EABB10B504460A460B0601F07F0004EB401101D5283101E001F5027108702C
:20CA6000D009487094F8E803012809D0012084F8E803206804F0B8FF002084F8E80310BD9D
:20CA8000022010BD70B50A460446090602F07F0003D504EB4011283103E004EB421101F5DC
:20CAA000027100258D700870D009487094F8E803012809D0012084F8E803206805F03CF826
:20CAC00084F8E853002070BD022070BD70B504460D460E0601F07F0004EB401101D528314E
:20CAE00001E001F502710870E80948700A61CB7094F8E803012809D0012084F8E80320689C
:20CB000004F042FE002084F8E80370BD022070BD70B504460E4601F07F0004EB401101F575
:20CB2000077100252CC101F81F5C01F8200D94F8E80301280AD0012084F8E80370062068D1
:20CB400005F054F884F8E853002070BD022070BD70B50D460446090605F07F0003D504EB35
:20CB60004011283103E004EB451101F5027101228A700870E809487094F8E803012807D0C5
:20CB800084F8E823206805F00CF8680602D006E0022070BD04F57B71206804F0CBFF0020CD
:20CBA00084F8E80370BD70B504460E4601F07F0004EB40113C3100252CC1012201F81F2C88
:20CBC00001F8200D94F8E803012809D084F8E8237006206805F00AF884F8E853002070BD36
:20CBE000022070BD10B50446006805F0E1F8000402D5204602F07AF9206805F0D9F8400568
:20CC00000CD5206830F8441F21F480610180204600F0ECF80021204600F0FDF8206805F086
:20CC2000C7F8400405D5206830F8441F21F480410180206805F0BCF8800405D5206830F86E
:20CC4000441F21F400510180206805F0B1F8C00413D5206830F8401F21F004010180216889
:20CC60004FF43D40A1F84000204600F0CCF8206830F8441F21F480510180206805F098F87A
:20CC800000051AD5206830F8441F21F400610180206830F8401F41F008010180206830F81C
:20CCA000401F41F004010180206805F081F8C043C00402D5204600F0E3F8206805F078F8AC
:20CCC000800508D5206830F8441F21F400710180204600F09CF8206805F06AF8C00505D570
:20CCE000206830F8441F21F48071018010BD00002DE9F04186B004004FF0000504D094F8A8
:20CD0000E903002620B108E0012006B0BDE8F08184F8E863204600F04BF8032084F8E90370
:20CD2000206804F000FF04F11001142288466846FBF7FEFB94E80F0004F054FE002120685B
:20CD400005F049F85FF0010704EB451080F8297000F8285F8581C670066146616D1C8661B8
:20CD60000F2DF1D35FF0000004EB401181F8096281F80802888681F80B62C1F81862C1F8DD
:20CD80001C62401CC1F820620F28EDD3142241466846FBF7CDFB94E80F0004F0BBFE84F8AE
:20CDA000246084F8E973206804F0B2FE0020ACE708B500680B49884212D10B48C16941F460
:20CDC0000001C161C069002200F40000009011461420FFF7C9FDBDE808401420FFF7B9BD8D
:20CDE00008BD0000005C00400010024010B504460121D0F81C0404F0E1FAD4F81C04BDE807
:20CE0000104004F0AABAD0F81C0404F0C5BAD0F81C0404F0C7BA10B5044690F8E803012807
:20CE20000BD0012084F8E80384F82410206804F0D4FF002084F8E80310BD022010BDD0F885
:20CE40001C2400F57B71104604F0CBBA10B5044690F8E803012810D0012084F8E803014688
:20CE60002046FFF7DFFD206804F050FE206804F092FF002084F8E80310BD022010BD000060
:20CE800010B50446D0F81C0404F0F8FAA069002804D00348016841F00601016010BD000096
:20CEA00010ED00E030B51C490A68036822F0E0021A430A6019490A6822F480320A600C1F82
:20CEC000226822F480322260144A0832136823F4803313600B1D1D6825F480351D60456889
:20CEE000ED0303D5256845F4803525604468A40303D50C6844F480340C600179C90703D056
:20CF0000196841F4803119600079800703D5106840F48030106030BD0070004004040140A7
:20CF20000120102191FAA1F1024AB1FA81F142F82100704700000E4270B504F067FF05F043
:20CF40007FFF4FF496740E4D0FE0FF2003F034FB01212046FBF7E0FCC82005F045FBAA203E
:20CF600003F02AFBC82005F03FFB68684007ECD40448008802F004FABDE8704005F0D4BF0A
:20CF8000007000409200002010B5054C2068C00304D5FFF7D1FF4FF48030206010BD0000EF
:20CFA0001404014010B533A401461DCC86B08DE81D0034A0344C006804900020012931D0E9
:20CFC000022948D010292BD161682268D20127D54FF4701292FAA2F201F47010B2FA82F23D
:20CFE000D040C9031DF8000010D561684FF4003292FAA2F201F40031B2FA82F2D14004AAF8
:20D00000515C224AB2FBF1F1484301E0204948436168490204D440005FF00301B0FBF1F0FD
:20D0200006B010BD226AC2F30121012903D1920701D5C803F4E7022905D1626A920702D5BA
:20D0400049F64040ECE70329EAD121688903E7D54FF22440E4E700F095F961684FF48042CA
:20D0600092FAA2F201F44041B2FA82F2D140491C4900D3E702030405060708090A0B0C0D27
:20D080000E0F1010010200000010024000127A0000093D002DE9F84305460078454CC007C0
:20D0A00074D0E06940F08050E061E069424E00F080500090306840F480703060FFF7C4FB78
:20D0C000074604E0FFF7C0FBC01B642833D83068C005F7D5206A10F4407051D0A98801F44E
:20D0E000407181424CD0206A0126310491FAA1F2B2FA82F29300314A20F440701344C3F898
:20D10000006491FAA1F1B1FA81F102EB81010023C1F800342062C00732D0FFF795FB0746D4
:20D1200041F288394FF0020808E000BFFFF78CFBC11B494502D90320BDE8F88398FAA8F1DB
:20D14000B1FA81F141F040014046B6EB511F01D121680BE090FAA0F1B1FA81F141F04001B9
:20D16000B0EB511F01D1216A00E0616A98FAA8F0B0FA80F000F01F0206FA02F00142D5D06D
:20D18000206A696820F44070084320622878800705D56068A96820F440400843606028788A
:20D1A000C00605D56068E96820F48000084360600020C1E7001002400070004000004242C9
:20D1C0002DE9F047DFF8708105460E46D8F8000000F00700B0420CD2D8F8001021F007010B
:20D1E0003143C8F80010D8F8000000F00700B04277D12878514C800705D56068A96820F063
:20D20000F000084360602878C00759D06968012001290DD0022929D05FF0020393FAA3F2F0
:20D22000B2FA82F242F02002520904D0226803E04FF40033F2E7626A93FAA3F3B3FA83F37D
:20D2400003F01F03984002424BD0606820F0030008436060FFF7F8FA6968074641F28830AB
:20D2600001290DD00229814617D025E04FF00073D4E700BFFFF7E8FAC11B494501D918E089
:20D2800081466068C0F381000128F3D118E000BFFFF7DAFAC11B49450BD86068C0F3810014
:20D2A0000228F5D10CE000BFFFF7CEFAC11B494502D90320BDE8F087606810F00C0FF3D1EA
:20D2C000D8F80010404601F00701B1420BD9016821F0070131430160006800F00700B04270
:20D2E00001D00120E6E72878400705D56068E96820F4E060084360602878000706D56068EC
:20D30000296920F4605040EAC100606000F052F86168F02292FAA2F201F0F001B2FA82F2D5
:20D32000D140074A515CC840064908600020FFF7ABFA0020BEE700000020024000100240EB
:20D34000F84801088400002001480068704700008400002008480949006849684FF4E06294
:20D3600092FAA2F201F4E061B2FA82F2D140044A515CC84070470000840000200010024076
:20D380000849010808480949006849684FF4605292FAA2F201F46051B2FA82F2D140044A3E
:20D3A000515CC8407047000084000020001002400849010810B519A385B00FCB8DE80F009D
:20D3C0001AA01B4B006804905A681A4802F00C0104291DD008291BD14FF4701494FAA4F4EA
:20D3E00002F47011B4FA84F4E140D2031DF8011010D55A684FF4003393FAA3F302F400320C
:20D40000B3FA83F3DA4004AB9A5CB0FBF2F0484305B010BD08484843FAE7000002030405C6
:20D42000060708090A0B0C0D0E0F1010010200000010024000127A0000093D002DE9F84FDF
:20D4400004460078F74DC0074FF0010625D068687704C0F38100012807D06868C0F3810041
:20D4600002281BD16868C00318D597FAA7F0B0FA80F040F02000400901D0286800E0686A28
:20D4800097FAA7F1B1FA81F101F01F0106FA01F108425ED0606800287CD05AE06068B0F5E8
:20D4A000803F0BD010B1B0F5A02F11D0286820F480302860286820F4802002E0286840F4F6
:20D4C00080302860606828B3FFF7BEF980460BE0286840F480202860F0E700BFFFF7B4F9EE
:20D4E000A0EB0800642871D897FAA7F0B0FA80F040F02000400901D0286800E0686A97FA45
:20D50000A7F1B1FA81F101F01F0106FA01F10842E4D01EE0FFF798F9804605E0FFF794F9A2
:20D52000A0EB08006428DED897FAA7F0B0FA80F040F02000400901D0286800E0686A97FA97
:20D54000A7F1B1FA81F101F01F0106FA01F10842E4D12078DFF8D08280074FF000094FF045
:20D5600002075BD568684FF0F80B10F00C0F07D06868C0F3810002281CD16868C00319D4D3
:20D5800097FAA7F0B0FA80F040F02000400902D0286801E08BE0686A97FAA7F1B1FA81F1EA
:20D5A00001F01F0106FA01F108422CD0206901287DD128E0206990B396FAA6F0B0FA80F00E
:20D5C00048F82060FFF740F9824607E011E100BFFFF73AF9A0EB0A00022884D897FAA7F090
:20D5E000B0FA80F040F02000400901D0286800E0686A97FAA7F1B1FA81F101F01F0106FA0E
:20D6000001F10842E4D028689BFAABF26169B2FA82F220F0F80091400843286025E0FFE7D7
:20D6200096FAA6F1B1FA81F148F82190FFF70CF9824605E0FFF708F9A0EB0A000228CCD8B3
:20D6400097FAA7F0B0FA80F040F02000400901D0286800E0686A97FAA7F1B1FA81F101F0A5
:20D660001F0106FA01F10842E4D1207800076ED5A069B8B396FAA6F0B0FA80F008EB800090
:20D68000C0F88064FFF7E0F8824605E0FFF7DCF8A0EB0A000228A0D897FAA7F0B0FA80F030
:20D6A00040F06000B6EB501F02D128680CE062E197FAA7F0B0FA80F040F06000B7EB501F55
:20D6C00001D1286A00E0686A97FAA7F1B1FA81F101F01F0106FA01F21042D7D00120FEF7DB
:20D6E0004BFF34E0FFE796FAA6F1B1FA81F108EB8101C1F88094FFF7A7F8824606E000BF5E
:20D70000FFF7A2F8A0EB0A00022872D897FAA7F0B0FA80F040F06000B6EB501F01D128682C
:20D720000BE097FAA7F0B0FA80F040F06000B7EB501F01D1286A00E0686A97FAA7F1B1FA31
:20D7400081F101F01F0106FA01F21042D8D12078400765D5E86940F08050E861E869DFF87D
:20D76000CCB000F080500090DBF8001041F48071CBF80010FFF768F8824605E0FFF764F8AC
:20D78000A0EB0A00642834D8DBF80000C005F5D5E06801280AD008B1052813D0286A20F044
:20D7A00001002862286A20F0040002E0286A40F001002862E06841F2883B90B3FFF744F856
:20D7C00082460BE0286A40F004002862EEE700BFFFF73AF8A0EB0A0159450AD897FAA7F04C
:20D7E000B0FA80F040F04000B6EB501F02D128680CE0A3E097FAA7F0B0FA80F040F040000B
:20D80000B7EB501F01D1286A00E0686A97FAA7F1B1FA81F101F01F0206FA02F10842D7D0A5
:20D8200031E005E0001002400000424200700040FFF70AF8824605E0FFF706F8A0EB0A013D
:20D8400059457BD897FAA7F0B0FA80F040F04000B6EB501F01D128680BE097FAA7F0B0FAF6
:20D8600080F040F04000B7EB501F01D1286A00E0686A97FAA7F1B1FA81F101F01F0206FA49
:20D8800002F10842D8D1E06980B36968C1F38101022970D04FF080714F000228484609D0A4
:20D8A00091FAA1F1B1FA81F148F82100FEF7CCFF044669E08A4691FAA1F1B1FA81F1C14669
:20D8C00048F82100FEF7C0FF804605E0FEF7BCFFA0EB0800022854D897FAA7F0B0FA80F0AD
:20D8E00040F02000400902D0286801E061E0686A97FAA7F1B1FA81F101F01F0106FA01F1F0
:20D900000842E3D1206AB0F5803F05D16868A16820F4003008436860D4E908010843696833
:20D9200021F47411084368609AFAAAF0B0FA80F049F82060FEF788FF044606E021E000BFC5
:20D94000FEF782FF001B02281BD897FAA7F0B0FA80F040F02000400901D0286800E0686A2B
:20D9600097FAA7F1B1FA81F101F01F0106FA01F10842E5D01DE01EE0FEF766FF001B0228C5
:20D9800002D90320BDE8F88F97FAA7F0B0FA80F040F02000400901D0286800E0686A97FADE
:20D9A000A7F1B1FA81F101F01F0106FA01F10842E2D10020E6E70120E4E7000010B5040010
:20D9C00003D094F8510010B104E0012010BD204600F038F8022084F851002068016821F08D
:20D9E00040010160D4E901010843D4E903121143084361690843218B01F400710843E1694E
:20DA00000843216A0843A16A084321680860A069042101EA1040616A084321684860216865
:20DA2000E06A08612068C16921F40061C1610449002008706065012084F85100002010BD64
:20DA4000140300202DE9F04F054600683F49DFF80081032685B088425CD1D8F8181041F425
:20DA60008051C8F81810D8F81800DFF8E8B000F480500490A02000900220019069465C46EA
:20DA800003965846FEF7FCFD4FF000094020CDE900094F4669462046CDF80890FEF7F0FD11
:20DAA0002E4C2D484FF0800AC4E90007C4E9027A27616761A7612046E761FEF709FD08B117
:20DAC000FDF7F2FC6C6465622348254C14301027C4E90007C4E9029AC4F81090C4F81490BD
:20DAE000C4F818902046C4F81C90FEF7F1FC08B1FDF7DAFC2C6465620120CDE90070694642
:20DB00005C4603965846FEF7BBFD012210212046FEF794FE13492868884214D1D8F81C10A7
:20DB200041F48041C8F81C10D8F81C00694600F4804004904FF420400090022001900396A1
:20DB40000948FEF79DFD05B0BDE8F08F0030014000100240000801401C000240A0300020B2
:20DB6000D830002000380040000C01402DE9F84F00259A460446ADF8005090F85100012815
:20DB80007ED1E9B3E2B394F85000012878D0012684F85060222084F851006565A163A2875F
:20DBA000E287A564E5642563A586E586A0684FF40049484504D12068036823F48043036066
:20DBC000A06A4FF40057B84209D12068036823F4005303602068036843F400530360606865
:20DBE0004FF48278404501D1A06878B120680168490603D4016841F040010160E06800E0E5
:20DC000001E0E8B131E00120BDE8F88F84F8505013460A462046CDF800A000F040F9F3E799
:20DC2000534600220121204601F09CFF48BB2068C168A06B421CA2630170E08F401EE0874E
:20DC4000E08F0128ECD813E0534600220121204601F088FFA8B92068C068A16B0880A06B0A
:20DC6000801CA063E08F401EE087E08F0128EBD8A06AB84207D12068016841F4805101E0C2
:20DC800068E007E00160534600220121204601F069FF08B10320B7E7E0680028206817D0FF
:20DCA000C068A16B0880A06B801CA063E08F401EE087A06AB84217D153460022012120469B
:20DCC00001F050FF50B1606D40F002006065E1E7C168A06B421CA2630170E7E72068C068F1
:20DCE000ADF80000BDF80000606840450AD1A068484502D0B0F5806F04D12068016821F0D0
:20DD00004001016084F85160A06AB8420DD120688068C043C00608D4204601F021FF01289D
:20DD200007D021686FF01000886084F8505000206AE7606D40F0020060652068016821F4D5
:20DD4000005101602068016841F40051016084F8505058E7022057E72DE9F843044690F85B
:20DD600051009846012870D139B332B394F8500001286AD0012684F85060122084F85100A8
:20DD8000002565652163A286E286E564A564A563A587E587A06A7703B84209D12068016845
:20DDA00021F4005101602068016841F400510160A068B0F5004F03D007E00120BDE8F883CD
:20DDC0002068016841F48041016020680168490603D4016841F040010160E0680028606870
:20DDE00004D0D8B1E08E012818D021E010B1E08E012808D1206B411C216321680078C86080
:20DE0000E08E401EE0860004000C1FD0434600220221204601F0A6FEA8B9EBE7206B2168C1
:20DE20000088C860206B801C2063E08E401EE0860004000C0AD0434600220221204601F047
:20DE400091FE0028EAD00320B8E726E0A06AB84204D12068016841F48051016043460022AD
:20DE60000221204601F07EFE30B9434601228021204601F077FE20B1606D40F01000606507
:20DE8000E1E7A06818B92068C1688068009084F8516084F85050002090E702208EE72DE92B
:20DEA000F8430025DDF820800446ADF8005090F85100012803D094F8510022287DD169B1EA
:20DEC00062B15BB194F85000012876D0012684F8506094F85100012803D005E00120BDE801
:20DEE000F883322084F851006565A263A387E3872163A386E386A564E564A06A4FF4005719
:20DF0000B84209D12068016821F4005101602068016841F40051016020680168490603D486
:20DF2000016841F040010160E0684FF48271B0F5006F606807D0002867D088426ED1E08E9E
:20DF4000012862D06AE020B188420CD1E08E012809D1206B21680088C860206B801C2063C5
:20DF6000E08E401EE086E08E80B9A06AB84244D12068016841F4805101603EE02068C06889
:20DF8000A16B0880A06B801CA0639EE0434600220221204601F0E6FD002874D1206B21683C
:20DFA0000088C860206B801C2063E08E401E0004000CE08609D1A06A00E0C7E0B84204D18B
:20DFC0002068016841F480510160434600220121204601F0C7FD00286FD12068C068A16BDD
:20DFE0000880A06B801CA063E08F401EE087E08E0028CBD1606800286AD143460022012191
:20E00000204601F0AFFDF0BBB8E7206B411C216321680078C860E08E401EE086E08E98B92D
:20E02000A06AB84204D12068016841F480510160434600220121204601F094FD18BB20689F
:20E04000C068A16B087040E0434600220221204601F088FDB8B9206B411C2163216800786C
:20E06000C860E08E401E0004000CE08607D1A06AB84204D12068016841F48051016000220B
:20E080004346012100E018E0204601F06BFDA0B92068C168A06B421CA2630170E08F401E88
:20E0A000E087E08E0028CFD1606888B9434600220121204601F056FD08B103200FE72068E9
:20E0C000C168A06B421CA2630170E08F401EE087A06AB84210D1434600220121204601F0FB
:20E0E00041FD18B1606D40F002000FE02068C068ADF80000BDF8000043460122802120466E
:20E1000001F030FD20B1606D40F010006065D4E784F85160A06AB84214D120688168C943F0
:20E12000C9060FD4616D41F002016165016821F4005101602068016841F40051016084F8E1
:20E140005050CBE684F850500020C8E60220C6E6704710B5401EB0F1807F01D3012010BD7A
:20E160004FF0E02460610F21601700F0AFFE0020A06107202061002010BD10B5FFF7E8FFFF
:20E1800010BD7047704730B590F83820012A20D0012280F83820022380F8393003685C683C
:20E1A00024F070045C6003685C680D682C435C6003689C6824F080049C6003689C68496829
:20E1C0000C439C6080F83920002180F83810084630BD022030BD10B5040003D094F8390097
:20E1E00010B107E0012010BD002084F83800204600F00CF8022084F83900211D206802F0CC
:20E2000003FB012084F83900002010BD00B51E4A01681E4885B0914222D1C16941F00201F8
:20E22000C161C069694600F0020004904FF4707000900020019002901548FEF721FA0022D9
:20E2400011461D20FEF790FB1D20FEF782FB11484168114A21F0A0611143416005B000BD25
:20E26000B1F1804FFAD1C16941F00101C161C069002200F00100049011461C20FEF774FB1C
:20E280001C20FEF766FBE9E700040040001002400010014000000140000C00020168CA684B
:20E2A00042F00102CA600068016841F001010160002070470168CA6822F00102CA60006881
:20E2C000016A41F21112114207D1016A9210114203D1016821F0010101600020704700006A
:20E2E0002DE9F05F5B4E0446007EDFF86CB1A6F10C054FF0000A06F1080706F1100805F158
:20E300000409012820D1EA7812B399F803108A4217D12068406BF880F288801A4F4A80B2CD
:20E320005143B1FBF0F1A8F80600CBF80C10311F204681F803A0002100F092F82046FFF76E
:20E34000B9FFE878401CE870207E022804D025E02068406BF080F4E7AA781AB399F8021040
:20E360008A4218D12068806BB880B288801A3B4A80B25143B1FBF0F1A8F80400CBF8081012
:20E3800034492046091F81F802A0042100F068F82046FFF78FFFA878401CA870207E04289A
:20E3A00004D025E02068806BB080F4E76878E8B399F80110884218D12068C06B7880728891
:20E3C000801A264A80B25143B1FBF0F1A8F80200CBF804101F492046091F81F801A008212E
:20E3E00000F03EF82046FFF765FF6878401C6870207E082823D1297839B399F80000814280
:20E400001AD12168096C39803288891A134A89B2A8F800105043B0FBF1F1CBF800100D496C
:20E420002046091F81F800A00C2100E009E000F017F82046FFF73EFF2878401C2870BDE86E
:20E44000F09F2068C06B7080CFE72068006C3080F2E70000EC02002090300020001BB70097
:20E4600010B50268044631B1042908D008291ED00C2908D11FE0D06820F0020002E0D068AC
:20E4800020F00400D0600022206802F0EFF92068016A41F21112114207D1016A92101142E0
:20E4A00003D1016821F001010160002010BDD06820F00800E6E7D06820F01000E2E770B55B
:20E4C0000446006801694FF00005C943890715D4C168C943890711D4E91E0161012020768D
:20E4E000206880698007204602D0FFF7F9FE04E000F098F8204600F096F82576206801692A
:20E50000C943490717D4C168C943490713D46FF004010161022020762068806910F4407F96
:20E52000204602D0FFF7DCFE04E000F07BF8204600F079F8257620680169C943090716D432
:20E54000C168C943090712D46FF008010161042020762068C0698007204602D0FFF7C0FEE8
:20E5600004E000F05FF8204600F05DF8257620680169C943C90617D4C168C943C90613D487
:20E580006FF010010161082020762068C06910F4407F204602D0FFF7A3FE04E000F042F89A
:20E5A000204600F040F8257620680169C943C90708D1C168C943C90704D1891E0161204642
:20E5C00000F032F820680169C943090609D4C168C943090605D46FF0800101612046FFF77C
:20E5E000D0FD20680169C943490609D4C168C943490605D46FF040010161204600F032F845
:20E6000020680169C94389060BD4C168C943890607D46FF0200101612046BDE87040FFF75C
:20E62000B1BD70BD704770470B4A0168914209D10A4A0021116051609160D160084A1170DA
:20E640009170D1700068B0F1804F04D104480C380168491C01607047000400409030002031
:20E66000E8020020704710B504460068416921F0C0014161206B08B1FDF734FD606B08B157
:20E68000FDF730FD012084F83900002010BD704790F839007047000038B50446006801685F
:20E6A000C26811F0010F02F4807204D01AB1E16B41F00101E1630168C1F34002416901F0DB
:20E6C000010122B119B1E26B42F00402E2630268C2F3800222B119B1E26B42F00202E263CB
:20E6E0000268C2F3C00222B119B1E16B41F00801E1630168C068C1F3401100F0200019B162
:20E7000010B1204602F030F920680168C068C1F3C01100F0800019B110B1204602F030FA9C
:20E7200021680868CA68C0F3801002F04002012570B16AB1CA68204622F04002CA6094F833
:20E740003910322911D080F8395000BF00F0B4F9E06B002808D0206801684068009084F8E7
:20E7600039502046FFF793FF38BD222180F83910ECE770B5040004D094F83900002510B1AE
:20E7800006E0012070BD84F83850204600F020F8022084F839002068C16821F40051C160C4
:20E7A000204602F035F92068016921F4904101612068416921F02A0141612068C16841F4A3
:20E7C0000051C160E563012084F83900002070BD10B500681D4986B0884235D11C48816975
:20E7E00041F004018161816901F004010491C16941F40031C161C16901F40031049181690B
:20E8000041F0010181618069124C00F0010004900420009002200190012002900320039047
:20E8200069462046FDF72CFF082000900020019069462046FDF724FF2620FEF78AF803222D
:20E8400011462620FEF790F806B010BD0044004000100240000801402DE9F047044690F8DD
:20E86000390099460D46012801D0122858D12DB322B394F83800012852D0012684F83860D1
:20E880000027E76394F8390012281AD05FF0220084F83900A285E2854FF48058E08D4B4651
:20E8A000401EE085A0684FF0000240454FF02001204616D102F097F9B0B904E00120BDE885
:20E8C000F0873220E4E7206900282068406803D0C1B225F8011B12E0C0F3080125F8021B5C
:20E8E0000DE002F080F908B10320E8E7206900282068406801D000F07F0005F8010BE08D7E
:20E900000028CBD194F83900322805D084F8396084F838700020D2E7122084F83900F7E768
:20E920000220CCE770B5044690F83900012801D0122832D169B362B394F8380001282CD081
:20E94000012084F83800A162A2850025E56394F8390012281FD0222084F83900636B104840
:20E960009862636B0F48D862636B0F48186308461346666B216802463046091DFDF7D0FDF8
:20E980002068416941F04001416184F83850002070BD012070BD3220DEE7022070BD00002C
:20E9A000A1080108D70801088308010830B50068194988421ED119484FF00003024641880D
:20E9C00012780C0423D54C0419D58C0413D5C1F30B04134D491C89B22A5541804478C1F37C
:20E9E0000B02A24202D141F480514180C1F30B01C7290AD830BD427041F4005103E0AA2A1E
:20EA000003D141F48041418030BD438030BD552AFBD141F40041F6E7004400400C0300207D
:20EA2000103100207047000070B5044690F83900012801D0222836D181B37AB394F838001E
:20EA4000012830D0012084F838002162A284E2840025E56394F83900222822D05FF01200DA
:20EA600084F83900236B11489862236B1048D862236B1048186326681346321D206BFDF7CA
:20EA80004FFD21686FF0400008602068416941F08001416184F83850002070BDFFE70120BC
:20EAA000FBE73220DCE70220F7E70000E10801080F090108830801087047704718B5044633
:20EAC00009486A460321006805F06EFA9DF8000020702E2060709DF80110A170E0709DF86D
:20EAE0000200207118BD0000FC7F0008FEE7000010B500F067FF0024E0B200F041FC641CC8
:20EB0000102CF9DB164C207830B900F0F5FD207010B903F0A5FB2070FCF758FB00224FF4F9
:20EB200000411048FDF78AFE21780F4C4FF0000011B1FCF787FB0120207004F0F5F94FF084
:20EB4000FF300A4B0A4A0146FCF7FEF909490968814203D0BDE8104004F01CBC10BD0000C5
:20EB6000780F0020001001408B000020007B01000084000800FF01080A4810B50849016019
:20EB800000218160C1604FF460224161C261416001210161FDF7DAF8002800D0FEE710BD33
:20EBA00000240140282F00200D4808B5416941F0010141614069002200F001000090114645
:20EBC0000C20FDF7D1FE0C20FDF7C3FE002211460D20FDF7C9FEBDE808400D20FDF7B9BE7F
:20EBE000001002402DE9F04F754885B0816941F020018161816901F020010491816941F0B2
:20EC000010018161816901F010010491816941F004018161816901F004010491816941F0EE
:20EC2000080181618069002200F0080004904FF4D8416448FDF702FEDFF88CA100224FF4ED
:20EC400007415046FDF7FAFDDFF880B1002240F282315846FDF7F2FD4FF400470124CDE9F6
:20EC600000740225694650460395FDF709FD4FF44060CDE90004694603955248FDF700FDB3
:20EC80004FF4E060CDE90004694603955046FDF7F7FC4FF46070CDE90004694603955846C1
:20ECA000FDF7EEFC4FF4C040CDE90004694603954448FDF7E5FCCDE90054694658460395E2
:20ECC000FDF7DEFC002278215846FDF7B7FD00224FF470713B48FDF7B1FDDFF8F49001227C
:20ECE00004214846FDF7AAFD4FF48058012241463448FDF7A3FD7820CDE9000403266946C7
:20ED000003965846FDF7BCFC0420CDE90004694603964846FDF7B4FC4FF49E50CDE90004CD
