:020000040800F2
:20840000603C00200585000817F3000839EF000815F30008B3890008F52801080000000052
:20842000000000000000000000000000F90201081BB4000800000000D1F60008C90D0108B3
:208440001F8500089BF600081F8500081F8500081F8500081F8500081F85000897B5000827
:208460009DB500081F8500081F8500081F850008E5B30008F1B300081F8500081F850008FA
:208480001F8500081F8500081F8500081F8500083D2401081F8500081F8500081F850008BE
:2084A0001F8500081F8500081F8500081F850008890E0108950E01081F8500081F85000868
:2084C0001F8500081F8500081F8500081F8500081F8500081F850008111301081F850008BB
:2084E00079B500081F8500081F850008DFF810D000F046F800480047CD3C0108AFF3008046
:20850000603C00200648804706480047FEE7FEE7FEE7FEE7FEE7FEE7FEE7FEE7FEE7FEE703
:208520003D0E0108ED84000840EA01039B0703D009E008C9121F08C0042AFAD203E011F832
:20854000013B00F8013B521EF9D27047D2B201E000F8012B491EFBD270470022F6E710B581
:2085600013460A4604461946FFF7F0FF204610BD421C10F8011B0029FBD1801A70470000C9
:20858000064C074D06E0E06840F0010394E8070098471034AC42F6D3FFF7ACFF6C58010808
:2085A0008C58010870B58C1810F8015B15F0070301D110F8013B2A1106D110F8012B03E053
:2085C00010F8016B01F8016B5B1EF9D12B0705D40023521E0DD401F8013BFAE710F8013BA6
:2085E000CB1A921C03E013F8015B01F8015B521EF9D5A142D8D3002070BD000070B50446C1
:2086000000688168C943C9071CD1816821F00101816004F023FA05460FE000BF04F01EFA4D
:20862000401B022809D9A06A40F01000A062E06A40F00100E062012070BD20688068C04309
:20864000C007EBD0002070BDF8B500260446009600688168C943C90728D0816841F0010157
:208660008160134813490068B0FBF1F000E0401E00900028FBD104F0F1F9054611E000BFD3
:2086800004F0ECF9401B02280BD9A06A40F01000A062E06A40F00100E06284F8246001206E
:2086A000F8BD20688068C043C007E9D10020F8BD8400002040420F0010B500F093F8302077
:2086C00000F0A4F8942000F0A1F8D12000F09EF8202000F09BF80B2000F0B2F8812000F041
:2086E00095F83F2000F0ACF8032000F0A9F8F02000F08CF8102000F0A3F8CA2000F086F8AF
:20870000002000F09DF8872000F09AF8202000F097F8BC2000F07AF8002000F091F8A6202F
:2087200000F074F8762000F071F8752000F06EF8002000F085F8282000F082F8152000F09F
:2087400065F8002000F07CF8FF2000F079F8312000F05CF8322000F059F8002000F070F818
:20876000022000F06DF8012000F06AF8512000F04DF8FB2000F064F8402000F047F8F4205F
:2087800000F044F8002000F05BF8002000F058F8002000F055F8002000F052F8002000F023
:2087A0004FF8002000F04CF8002000F049F8002000F046F8F02000F029F8152000F040F801
:2087C000152000F03DF8152000F03AF8152000F037F8302000F01AF8BDE81040AF2000F08E
:2087E00015B8000010B5084C0020C4F8AC01322004F5D6740AF046FA01202060BDE81040A5
:2088000032200AF03FBA00000000224231B509490020C1F8A801084CC4F8BC010A230122D8
:208820006946064804F5DE7405F031FC0120206038BD00000000224200002142C02F002062
:2088400031B509480124C0F8A841084D0020C5F8BC010A2322466946054805F5DE7505F059
:2088600016FC2C6038BD00000000224200002142C02F002000F066BF01F05AB9012002F063
:208880001DB9012001F0E8B9012001F081BA0000114810B5008800EB001101EB40110F48CC
:2088A00000EB8100C17B807B00EBC00202EB001001EB800000F6F730B0F5005F08D087205F
:2088C000074A00215318491C58700429FADB10BD01F03EF8F4E700009200002048030020A0
:2088E000880F002070B5274D04464FF0000649B114E001221021284604F0AAF864200AF0D5
:20890000D7F9761CA642F4D334E001221021284604F09EF864200AF0CBF9761CA642F4D363
:2089200000221021284604F093F864200AF0AAF9002608E001221021284604F089F864200D
:208940000AF0B6F9761CA642F4D300221021284604F07EF864200AF095F9002608E00122C5
:208960001021284604F074F864200AF0A1F9761CA642F4D32846BDE870400022102104F095
:2089800067B800000010014030B50246002001465FF0010422FA01F3DB0705D0C1F10705FA
:2089A00004FA05F30343D8B2491CC9B20729F1D330BDFEE7084882B0416941F0400141610B
:2089C0004069074900F04000009004480860084602B003F07FBC0000001002400030024038
:2089E0000403002010B50AF099FC002404E000211B480155601CC4B2042CF8DB00F032F80B
:208A0000002000F0D9FB00F065FA00F025FA002000F0D2FB102000F04FFA00F01DFA10486F
:208A2000401E407858B10E48401E807838B10C48401EC07818B10A48401E007960B90AF093
:208A40003DFC002000F0B8FB00F026FD0AF020FD00F08EFA00F000FA00F0FEF910BD0000DA
:208A6000890F002010B504201149087018E0012000F0A2FB00F02EFA0E48407840B10D4871
:208A8000807828B10B48C07810B10A48007900B90AE000F0E1F906480078801C044908705A
:208AA000034800780A28E2DB00BF00F0D5F910BD21030020880F00202DE9F04705460E46D3
:208AC00017464FF0A5084FF00009A94600F090FCDD4800784FF4F00101EAC040DB49086052
:208AE00000242FE008F0010040B1D74800784FF4707101EA8010D649086107E0D248007822
:208B00004FF0707101EA8050D1490861D14800688047CD480078782101EAC000CB49086062
:208B2000CC4800688047C84800784FF4F00101EAC040C64908604FEA5808C64800688047FE
:208B4000601CC4B2082CCDDBBF4800784FF4707101EA8010BE490861BE4800688047BA4882
:208B60000078782101EAC000B8490860B94800688047B54800784FF4F00101EAC040B34910
:208B80000860B44800688047AF480078782101EAC000AE490860AF4800688047AA480078A0
:208BA0004FF4F00101EAC040A8490860A94800688047A5480078782101EAC000A349086020
:208BC000A44800688047A04800784FF4F00101EAC0409E4908609F48006880479A4800783C
:208BE000782101EAC000994908609A4800688047954800784FF4F00101EAC040934908601E
:208C000094480068804790480078782101EAC0008E4908608F48006880478B4800784FF4E2
:208C2000F00101EAC040894908608A480068804700242EE007F0010040B1834800784FF47C
:208C4000707101EA80108249086107E07E4800784FF0707101EA80507D4908617D48006828
:208C6000804779480078782101EAC00077490860784800688047744800784FF4F00101EA46
:208C8000C040724908607F10724800688047601CC4B2102CCEDB00242EE006F0010040B148
:208CA000694800784FF4707101EA80106849086107E0654800784FF0707101EA805064493E
:208CC00008616448006880475F480078782101EAC0005E4908605F48006880475A480078EE
:208CE0004FF4F00101EAC040584908607610594800688047601CC4B2062CCEDB00242FE0F6
:208D000009F0010040B1504800784FF4707101EA80104F49086107E04B4800784FF07071A6
:208D200001EA80504A4908614A480068804746480078782101EAC000444908604548006887
:208D40008047414800784FF4F00101EAC0403F4908604FEA69093F4800688047601CC4B2E9
:208D6000082CCDDB85EA251585EAA50585EA650505F0010040B1344800784FF4707101EA92
:208D800080103349086107E02F4800784FF0707101EA80502E4908612E48006880472A48B6
:208DA0000078782101EAC00028490860294800688047254800784FF4F00101EAC04023490E
:208DC00008602448006880471F4800784FF4707101EA80101E4908611E4800688047002489
:208DE00016E019480078782101EAC00017490860184800688047144800784FF4F00101EA16
:208E0000C04012490860134800688047601CC4B2032CE6DB0C480078782101EAC0000B49BF
:208E200008600C4800688047074800784FF4F00101EAC0400549086006480068804700F03E
:208E400005FBBDE8F08700008E000020100C0140001001402403002010B5144800784FF477
:208E6000F00101EAC04012490860104800784FF0707101EA80500F490861002007F040FF91
:208E80001E2009F0F4FE09480078FFF77DFD00F0F004204607F034FF142009F0E8FE0020C9
:208EA00007F02EFF192009F0EDFE10BD8E000020100C01400010014010B50446062009F01A
:208EC000E1FE002221461046FFF7F6FD0F2009F0D9FE10BD1CB54FF4004220210020FFF772
:208EE000EBFD01A800F07CF8684600F079F8002417E001A8005D87280ED11DF8040001287D
:208F00000AD11A48005D18B11848005D012806D100211648015502E0982114480155601C93
:208F2000C4B2042CE5DB9DF80400872803D19DF80000012819D09DF80500872803D19DF856
:208F40000100012811D09DF80600872803D19DF80200012809D09DF80700872803D19DF89B
:208F60000300012801D0FFF777FF1CBD890F002038B5002202211046FFF79EFD002527E0B2
:208F8000684600F02DF800240BE01DF80400552805D01248005D10B9932110480155601C36
:208FA00084B2042CF1DB9DF8000055280ED09DF8010055280AD09DF80200552806D09DF823
:208FC0000300552802D0FFF747FF38BD681C85B2B5F5006FD4DB00BFF7E70000890F002036
:208FE00070B5044600F004FA052009F061FE6E48006820F07F4040F088406B490860084648
:20900000406820F0FF0040F04400486008040861052009F04DFE002542E0207840102070E0
:20902000607840106070A0784010A070E0784010E0705E480078782101EAC0005C49086059
:209040005C48006880475848806800F4007010B12078803020705448806800F4807010B18F
:209060006078803060705048806800F0800010B1A0788030A0704C48806800F0400010B1A2
:20908000E0788030E070494800784FF4F00101EAC04047490860474800688047681CC5B29F
:2090A000082DBADB43480068804740480078782101EAC0003E4908603E48006880473B48C1
:2090C00000784FF4F00101EAC040394908603948006880473448006820F07F4040F08850A4
:2090E000314908600846406820F0FF0040F011004860881408612D4800784FF0707101EAA3
:209100008050294908612B480068804727480078782101EAC0002649086026480068804763
:20912000224800784FF4F00101EAC040204908602048006880471D480078782101EAC000A5
:209140001B4908601B4800688047184800784FF4F00101EAC0401649086016480068804766
:2091600012480078782101EAC000114908601148006880470D4800784FF4F00101EAC040A3
:209180000B4908600B480068804708480078782101EAC0000649086006480068804700F061
:2091A00055F9002070BD0000001001408E000020100C0140240300202DE9F041064688480E
:2091C00000784FF4F00101EAC04086490860844800784FF0707101EA8050834908616420E9
:2091E00009F066FD002007F08BFD322009F03FFD7B480078FFF7C8FB0709384607F080FDF7
:209200007A48007809F03EFD75480078782101EAC000744908600A2009F04AFD002417E0BD
:209220006F4800784FF0707101EA80506E4908610A2009F03DFD6A4800784FF4707101EA6E
:209240008010694908610A2009F032FD601CC4B20D2CE5DB0A2009F02BFD002416E0604819
:2092600000784FF4F00101EAC0405E4908600A2009F01EFD5A480078782101EAC00059490A
:2092800008600A2009F014FD601CC4B20D2CE6DB0A2009F00DFD002417E0514800784FF0AE
:2092A000707101EA8050504908610A2009F000FD4B4800784FF4707101EA80104A4908614A
:2092C0000A2009F0F5FC601CC4B20D2CE5DB1EB90A2009F0EDFC02E00A2009F0D3FC404850
:2092E00000784FF4F00101EAC0403E4908604BF25A15002431E005F4004040B138480078E5
:209300004FF4707101EA80103749086107E0344800784FF0707101EA8050334908610A2000
:2093200009F0C6FC2E480078782101EAC0002D4908600A2009F0BCFC294800784FF4F0016A
:2093400001EAC040274908604FF6FF7000EA45050A2009F0ADFC601CC4B2102CCBDB0A2098
:2093600009F0A6FC4AF21B55002431E005F4004040B11B4800784FF4707101EA80101A496A
:20938000086107E0164800784FF0707101EA8050154908610A2009F08BFC114800787821F1
:2093A00001EAC0000F4908600A2009F081FC0C4800784FF4F00101EAC0400A4908604FF6B7
:2093C000FF7000EA45050A2009F072FC601CC4B2102CCBDB1E2009F055FCBDE8F0810000E7
:2093E0008E000020100C0140001001402103002010B5134800784FF4707101EA801011493C
:2094000008610F480078782101EAC0000E490860052009F04DFC0A4800784FF0707101EAD5
:20942000805008490861052009F042FC044800784FF4F00101EAC0400349086010BD0000E2
:209440008E00002000100140100C014010B50F4800784FF0707101EA80500D4908610B482F
:209460000078782101EAC0000A490860052009F01FFC064800784FF4707101EA801004498A
:209480000861052009F014FC10BD00008E00002000100140100C014070B555250022042126
:2094A0002846FFF709FB0A2009F002FC0A2009F0FFFB0A2009F0FCFB012407E0284600F082
:2094C0000BF80A2009F0F4FB601C84B2B4F5006FF4DB002070BD000070B504462546FFF7C1
:2094E00087FF744800784FF4F00101EAC0407249086000262EE005F0010040B16D48007828
:209500004FF4707101EA80106C49086107E0694800784FF0707101EA8050684908616848D9
:209520000068804763480078782101EAC000624908606348006880475E4800784FF4F00156
:2095400001EAC0405C4908606D105D4800688047701CC6B2082ECEDB84EA241484EAA40423
:2095600084EA640404F0010040B1524800784FF4707101EA80105149086107E04D48007887
:209580004FF0707101EA80504C4908614C480068804748480078782101EAC00046490860EC
:2095A000474800688047434800784FF4F00101EAC040414908604248006880473F48006831
:2095C00020F07F4040F088403C4908600846406820F0FF0040F044004860080408613848C1
:2095E0000068804733480078782101EAC000324908603348006880472E4800784FF4F00156
:2096000001EAC0402C4908602D48006880472B48006820F07F4040F0885028490860084605
:20962000406820F0FF0040F01100486088140861204800784FF0707101EA80501F490861F9
:209640001F48006880471B480078782101EAC000194908601A4800688047164800784FF4E1
:20966000F00101EAC0401449086015480068804710480078782101EAC0000F490860104891
:20968000006880470B4800784FF4F00101EAC040094908600A480068804706480078782117
:2096A00001EAC00004490860054800688047FFF7CDFE70BD8E000020100C01400010014084
:2096C000240300202DE9F0411C4C4FF47A700126A0801B4D267000BF01F012F901F024F959
:2096E000687858B1A87848B1E87838B1287928B12078401CC0B220701428EDD326700220FB
:20970000607000274FF4FA70A0803E4601F00CF9687838B1A87828B1E87818B1287908B1C6
:209720007F1CFFB2761CF6B2102EEFD317B12078401C20700020BDE8F081000028030020D6
:20974000880F002010B501F057FB01F0D9F801F0EBF801F0DFF8BDE8104001F0A3B80000AB
:2097600008B1034800E0034803498860704700003DB1000831B10008280300202DE9FE4F41
:209780005FA1D1E90001CDE9000100F0C7F85E49002888707ED001F059FB4EF6165000F0B4
:2097A000C9FD5A48008800EB001101EB4010584901EB80004069001F00F0FAFDDFF8549109
:2097C000D9F8001021F07F4141F08841C9F80010D9F8041021F0FF0141F04401C9F80410CB
:2097E0004FF0805AC9F810A0002402A800F0E4F902AE7EE002A800F0DFF9032C79D1002526
:20980000705DC00771D000F0F7FE01F01FFB41F2162000F08FFD41F6F874204600F0C8FDE0
:209820009DF800002A46002100F0CEFC9DF801002A46002100F0C8FC9DF802002A46002145
:2098400000F0C2FC9DF803002A46012100F0BCFC9DF804002A46002100F0B6FC9DF8050022
:209860002A46002100F0B0FC9DF806002A46002100F0AAFC9DF807002A46012100F0A4FC3B
:2098800001F0E4FA4EF6165000F054FD204600F08FFD00E032E0D9F8001021F07F4141F057
:2098A0008841C9F80010D9F8041021F0FF0141F04401C9F80410C9F810A017480024E846AB
:2098C00047194FF0930B02A800F076F9715D18F80400814205D0787818B901F0B7FA87F8E6
:2098E00001B0641CE4B2082CEDD36D1CEDB2042D86D3641CE4B2042CFFF47CAFBDE8FE8F65
:20990000FFFFFFFFFFFFFFFF28030020920000204803002000100140880F00200B4A10B5C5
:209920000020094B127801464006000E5C1864782CB902FA01F4240701D540F00100491CD1
:20994000C9B20429F0D310BD880F00208E0000202DE9F05FDFF840814FF4A021DFF83C91C5
:20996000B8F80000002501EB404700EB001101EB401109EB81002C4640694FF4806BC0F3F5
:209980008726DFF81CA132E05A464549384605F0F3FE701E84421CD1B8F80000FF2300EBE4
:2099A000001101EB401109EB810030F8661F0289114482893B484FEA122C4370037080F8B4
:2099C00002C0C2700A0A0271417183719AF8FF13C17100205A4651460B5C401C2B4480B2D5
:2099E0009DB29042F8D3641CE4B207F58067B442CAD3B8F80000444600EB001101EB40117C
:209A000009EB81014E46B1F86820AA423FD10A8B4FF4003101EB0030234905F0ADFE238833
:209A2000002103EB031202EB431206EB820208461D4F158B06E000BF17F800C0401C61447C
:209A400089B280B28542F7D8B2F86C0088421ED14FF44030528B00EB0330144905F08CFEAA
:209A60002288002102EB021303EB421206EB820308460E4D5A8B04E02C5C401C214489B26B
:209A800080B28242F8D8B3F87000884202D08620BDE8F09F0020FBE7920000204803002050
:209AA0003812002038030020382200203823002010B500F0A1FD01F0C9F941F2162000F08D
:209AC00039FC1848008800EB001101EB4010164901EB80004069083800F06AFC134C0021A7
:209AE000207800F017FB6078002100F013FBA078002100F00FFBE078012100F00BFB207999
:209B0000002100F007FB6079002100F003FBA079002100F0FFFAE079BDE81040012100F0C7
:209B2000F9BA000092000020480300203803002010B509F0C3FB01F05FF9FFF7C3FD05F08A
:209B4000C9FD08B1FFF71AFE05F0C4FD18B101F0CDF900F0DFFE05F0BDFD48B1FFF7B2FD28
:209B600009F096FC05F0B6FD10B1002000F010F905F0B0FD08B101F03FF805F0ABFD38B1CF
:209B800001F092F905F0A6FD10B1002000F096FF05F0A0FD30B1FFF78BFF05F09BFD08B112
:209BA00000F044FC00F0B6FE00F07CFE0148007810BD0000880F00202DE9F05F224E234FDB
:209BC000DFF88C80DFF88C90044600254FF4F00A4FF0780B207840002070607840006070F1
:209BE000A0784000A070E0784000E07031780AEAC1403860D8F80800804731780BEAC100E1
:209C00003860D8F808008047D9F808104846890502D52178491C21708168C90502D561783B
:209C2000491C61708168090602D5A178491CA1708068400602D5E078401CE0706D1CEDB25F
:209C4000082DC7D3BDE8F09F8E000020100C014028030020001001402DE9F843474C484EE0
:209C600000274EF61B594FF080586D4650B1012853D196F80010002001FA00F2120753D501
:209C8000074655E001F0E2F8484600F053FB002000F08EFB206820F07F4040F08840206043
:209CA000606820F0FF0040F044006060C4F81080344FDFF8D49000246846FFF77DFF19F83A
:209CC0000410337800204FF0940C2A5C8A420CD03A1892F80180B8F1000F06D103FA00F8B7
:209CE0005FEA087801D582F801C0401CC0B20428EBD39DF80000884211D09DF80100884232
:209D00000DD09DF80200884209D09DF80300884205D001F09BF800F0C5FDBDE8F883641C1F
:209D2000E4B2402CC8D3F8E7401CC0B20428A3D301F08CF8484600F0FDFA002000F038FB0A
:209D4000206820F07F4040F088402060606820F0FF0040F044006060C4F810800B4E002460
:209D60006846FFF729FFE85D3055641CE4B2402CF6D340200AF0C2FBCFE7000000100140E4
:209D80008E000020880F002038220020381200202DE9FE4FD54B4FF4A022DFF854C3198863
:209DA000002402EB4142019201EB011202EB41110CEB8102916CC1F38725C1F3090802950B
:209DC00092F846104FF4806501EB0806AE4205D9C8F10006F6B2891BCFB201E00E460027CB
:209DE0005169DFF810B3DFF810A3C1F3872910B101287DD076E101F029F84EF6165000F0E7
:209E000099FA002000F0D4FADBF8001021F07F4141F08841CBF80010DBF8041021F0FF0158
:209E200041F04401CBF804104FF08051CBF810108A14B249019805F09FFCB14801210024E1
:209E40000170B048017002E1E007019800F58060019034D04FF4806500232A46A74905F0BB
:209E6000B5FCA94800780028FDD0A9F10100844211D1A249FF2081F8F80781F8F90781F81C
:209E8000FA0781F8FB0781F8FC0781F8FD0781F8FE0781F8FF079548008800EB001101EB03
:209EA0004011934800EB810090F84600002871D00298844279D10020FF22904973E0012398
:209EC0009A02924905F082FC8D4800780028FDD08648008800EB001101EB4011844800EB10
:209EE000810090F84600F0B1029884420DD100E0B1E00020FF21814B05E000BF00EB08021E
:209F0000401C995480B2B042F8D367B10298401C844208D10020FF21784A02E01154401CB7
:209F200080B2B842FAD300256846FFF745FEDFF8E0E19AF800B0714900206B464A5D13F805
:209F400000C094450BD00EEB000C9CF8012032B90BFA00F2120702D593228CF80120401C4B
:209F6000C0B20428EAD39DF80020485D82420BD09DF80110814207D09DF80210814203D010
:209F80009DF80310814255D16D1CADB2B5F5806FCAD35AE019E008E000EB08030B44401C56
:209FA00083F8002480B2B042F6D377B10298401C84420AD10020FF22504904E00B18401C19
:209FC00083F8002480B2B842F8D36846FFF7F4FDDFF83CE19AF800B0484900206B4600BFFF
:209FE00013F800C04A5D94450FD00EEB000292F801C0BCF1000F08D10BFA00FC5FEA0C7C8A
:20A0000003D54FF0930C82F801C0401CC0B20428E6D39DF80020485D824211D09DF80110F7
:20A0200081420DD09DF80210814209D09DF80310814205D000F00AFF00F034FCBDE8FE8FB2
:20A040006D1CADB2B5F5006FBFD3641CE4B24C45FFF4FAAE46E09AF80010002001FA00F256
:20A06000120701D5C4B203E0401C80B20428F5D300F0C2FE00F044FC00F056FC00F0E6FE20
:20A080004EF6165000F056F9002000F091F9DBF8001021F07F4141F08841CBF80010DBF8E9
:20A0A000041021F0FF0141F04401CBF804104FF08051CBF810100026E846104FAA460FE0A9
:20A0C00000256846FFF778FD18F8040078556D1CADB25545F5D350460AF010FA761CF6B243
:20A0E0004E45EDD300F0B2FEA8E700009200002048030020001001408E0000203812002058
:20A1000054020020560200205502002038160020880F00202DE9F05F274CDFF8A080284D71
:20A120008B46074600264FF4F00A4FF0780921780AEAC141C8F80010287808F0B9FD217898
:20A14000380604D54FF4707000EA811103E04FF0707000EA81511B480161287808F0A8FD89
:20A16000217809EAC101C8F80010287808F0A0FD7806761C070EF6B2082ED8D3BBF1000F23
:20A1800003D0BBF1010F13D00FE0217846460AEAC140C8F80000287808F08AFD217809EAD9
:20A1A000C1003060287808F083FD0020BDE8F09FBDE8F05F00F030BA8E000020100C014009
:20A1C00028030020001001402DE9F05F0026564CDFF858A115468B460746B0464FF001092E
:20A1E00035B1012D07D0022D08D0032D0BD108E0C4F8988107E0C4F8948104E0C4F890813B
:20A2000001E0C4F88C819AF8000008F051FD380613D535B1012D06D0022D06D0032D25D181
:20A2200007E0484612E0484615E04148C0F89C911CE03F49C1F8989118E035B1012D09D07B
:20A24000022D0CD0032D11D10DE040463849C1F8A4010BE040463649C1F8A00106E03449E2
:20A26000C1F89C8102E03248C0F898819AF8000008F01EFD35B1012D07D0022D08D0032D14
:20A280000BD108E0C4F8989107E0C4F8949104E0C4F8909101E0C4F88C919AF8000008F048
:20A2A00007FD7806761C070EF6B2082E98D3BBF1000F07D0BBF1010F34D12846BDE8F05F77
:20A2C00000F01CBA35B1012D07D0022D08D0032D0BD108E0C4F8988107E0C4F8948104E061
:20A2E000C4F8908101E0C4F88C8156469AF8000008F0DEFC35B1012D07D0022D08D0032DC5
:20A300000BD108E0C4F8989107E0C4F8949104E0C4F8909101E0C4F88C913078BDE8F05FB5
:20A3200008F0C6BCBDE8F09F0080214228030020000022422DE9F05FDFF86490194D1A4FDE
:20A34000DFF86880064600244FF4F00A4FF0780B2978300404D54FF4707000EA811103E09F
:20A360004FF0707000EA8151C9F8101029780AEAC140386098F8000008F09AFC29780BEA3F
:20A38000C100386098F8000008F092FC641C7600E4B2102CDCD3BDE8F05F0A2008F088BC7D
:20A3A000001001408E000020100C0140280300202DE9F05FDFF86490194D1A4FDFF8688038
:20A3C000064600244FF4F00A4FF0780B2978300404D54FF4707000EA811103E04FF07070BF
:20A3E00000EA8151C9F8101029780AEAC140386098F8000008F05CFC29780BEAC1003860C3
:20A4000098F8000008F054FC641C7600E4B2102CDCD3BDE8F05F0A2008F04ABC0010014080
:20A420008E000020100C0140280300202DE9F84300F00CFD4EF61650FFF77CFF2A48008867
:20A4400000EB001101EB4010284901EB800040690838FFF7ADFF2648016821F07F4141F083
:20A4600088410160416821F0FF0141F044014160010401611F4DDFF8808000246E466846B1
:20A48000FFF79AFB1D49002093270B7818F80410325C8A420BD02A1892F801C0BCF1000FCC
:20A4A00005D103FA00FC5FEA0C7C00D55770401CC0B20428ECD39DF8000088420FD09DF8D4
:20A4C000010088420BD09DF80200884207D09DF80300884203D000F0B9FCBDE8F883641C24
:20A4E000E4B2082CCBD3F8E7920000204803002000100140880F0020380300208E000020E7
:20A500002DE9F84FDFF8D88015464FF4A023B8F8002000F0030703EB4242C7F104038B4286
:20A5200001DA082400E0042420F0030909EB020022462C4905F020F9B8F800202A4902EBDF
:20A54000021303EB421201EB82010020254E91F8462009E001EB400300EB070C93F85C3086
:20A56000401C06F80C30C0B28242F3D800F06EFC4EF61650FFF7DEFE4846FFF719FF1B486F
:20A58000016821F07F4141F088410160416821F0FF0141F04401416001040161144800276B
:20A5A00000EB0508E946DFF84CA04FF0930B13E06846FFF701FB19F80500F15D884209D03A
:20A5C00098F8010030B99AF80000A840000701D588F801B07F1CFFB2A742E9D3BDE8F88F5C
:20A5E00092000020381200204803002000100140880F00208E00002010B500F027FC41F213
:20A600002220FFF797FE0020FFF7D2FEBDE810404EF6EA10FFF78EBE2DE9F84F324C334DB7
:20A620004FF4F001207801EAC0402860304EB06880472078782101EAC00028602D4C206819
:20A6400020F07F4040F088402060606820F0FF0040F0440060602004206100254FEA060A95
:20A660009AF80200A840000728D523484FF000084FF4007746464FF09B0900EB050BEF4055
:20A6800001F0A6F9009009E001F0A2F90099401A0A2803D94FF001088BF80190022008F0AE
:20A6A00007FBA068384202D0B8F1000FECD00A2008F0FEFA761CF6B2032EE1D36D1CEDB26F
:20A6C000042DCDD3206820F07F4040F088502060606820F0FF0040F0110060604FF48050DF
:20A6E00020610020BDE8F88F8E000020100C01402803002000100140880F00202DE9F05FCA
:20A70000314C8046314D20784FF4F00101EAC040002728602E4EB06880472078782101EA9B
:20A72000C00028602B4C206820F07F4040F088402060606820F0FF0040F04400606020045C
:20A740002061B07800FA08F000072CD500252248661500EB080A4FF09B0926FA08F600BF8F
:20A7600001F036F98346022008F0A2FAC8460EE001F02EF9A0EB0B000A2805D99AF80100ED
:20A78000012708B98AF80180022008F091FAA068304201D0002FEBD00A2008F089FA6D1CC5
:20A7A000EDB2032DDCD3206820F07F4040F088502060606820F0FF0040F0110060604FF421
:20A7C00080502061BDE8F09F8E000020100C01402803002000100140880F00202DE9F04749
:20A7E000DFF8B48004460E46B8F800004FF4A021914601EB4047FFF7FFFE00F027FB41F27A
:20A800001620FFF797FD24F003052846FFF7D0FD04F00304C4F10401B14201DA082600E09A
:20A820000426E81932461D4904F0A6FFB8F800201B4902EB021303EB421201EB820100206F
:20A84000164D91F8462007E001EB4003071993F85C30401CEB55C0B28242F5D8002416E0A0
:20A86000285D4A460021FFF7AFFC2F194A4678780021FFF7A9FCB8784A460021FFF7A4FC06
:20A88000F8784A460121FFF79FFC241DE4B2B442E6D3BDE8F0870000920000203812002047
:20A8A0004803002010B5134C134A4FF4F001207801EAC04111604FF0707101EA80500F4950
:20A8C0000861002006F01CFA1E2008F0D0F92078FEF75AF800F0F00006F012FA142008F0F7
:20A8E000C6F9002006F00CFABDE810404FF4FA7008F0C8B98E000020100C01400010014006
:20A9000010B500F0A3FABDE81040014800F0FCB9915C8A4810B500F099FABDE810400148BD
:20A9200000F0F2B9995C8A48F0B587B000F08EFA4EF62050FFF7FEFC0020FFF739FD5948D0
:20A94000016821F07F4141F088410160416821F0FF0141F04401416001040161002505AE52
:20A960006C4605A8FFF728F9002004EB8501325C0A54401CC0B20428F9D36D1CEDB2052DC0
:20A98000EFD34949002006460B7848499825225C522A03D122181279982A03D00A1857780D
:20A9A0001FB107E00A18567004E003FA00F73F0700D55570401CC0B20428E8D33C4A3D4F79
:20A9C0000020128802EB021C0CEB421207EB8202127C012A0CD0042A0FD0022A12D0032A14
:20A9E00015D0062A18D0052A1BD0072A1ED021E027183F7A082F29D01CE027183F7A812F54
:20AA000024D017E027183F7A072F1FD012E027183F7A062F1AD00DE027183F7A052F15D027
:20AA200008E027183F7AC12F10D003E027183F7A822F0BD00F1897F801C0BCF1000F05D1F6
:20AA400003FA00FC5FEA0C7C00D57D70401CC0B20428BED30020184A012700BF04EB000C7B
:20AA60009CF810C0BCF1010F0AD0BCF1090F09D001EB000C9CF801E0BEF1000F04D00AE054
:20AA8000175408E0165406E003FA00FE5FEA0E7E01D58CF80150401CC0B20428DED307B036
:20AAA000F0BD0000001001408E000020880F00209200002048030020340300202DE9F8436E
:20AAC000484C494E00274EF61C594FF080586D4650B1012856D196F80010002001FA00F2A5
:20AAE000120751D5074653E000F0B0F94846FFF721FC0020FFF75CFC206820F07F4040F068
:20AB000088402060606820F0FF0040F044006060C4F81080354FDFF8D89000246846FFF70B
:20AB20004BF819F80410337800204FF0950C2A5C8A420CD03A1892F80180B8F1000F06D1E8
:20AB400003FA00F85FEA087801D582F801C0401CC0B20428EBD39DF8000088420ED09DF89C
:20AB6000010088420AD09DF80200884206D09DF80300884202D000F069F92FE0641CE4B24E
:20AB8000802CCBD3BDE8F883401CC0B20428A5D300F05CF94846FFF7CDFB0020FFF708FC2E
:20ABA000206820F07F4040F088402060606820F0FF0040F044006060C4F810800D4E0024F0
:20ABC0006846FEF7F9FFE85D3055641CE4B2802CF6D3802009F092FCFFF79CFEFFF762FE78
:20ABE000D0E70000001001408E000020880F002038230020381200202DE9F047DFF8F88067
:20AC0000DFF8F890B8F8000000EB001101EB401109EB810090F8460000286BD0384FDFF8E8
:20AC2000E4A000243E19707800285FD19AF80000A04000075AD5B8F8000000EB001101EB95
:20AC4000401109EB810090F85C1090F85E2001EB022190F8602001EB024190F8622001EBF8
:20AC6000026510F8461F2246408880B2FFF7B6FD642008F007F8707828BB9AF80000A0403D
:20AC8000000720D5B8F80000224600EB001101EB401109EB810010F8461F408880B2FFF795
:20ACA0002FFC707878B99AF80000A04000070AD5B8F8000000EB001101EB401109EB81009A
:20ACC00090F964000544B8F80000E9B200EB001202EB401209EB820020F85C1FC5F30721CE
:20ACE0004180C5F307418180290EC180641CE4B2042C97D3BDE8F087920000204803002031
:20AD0000880F00208E0000202DE9F05FDFF86090184D194FDFF86480064600244FF4F00A6D
:20AD20004FF0780B2978002E04DA4FF4707000EA811103E04FF0707000EA8151C9F8101066
:20AD400029780AEAC140386098F8000007F0B0FF29780BEAC100386098F8000007F0A8FF72
:20AD6000641C7600E4B2202CDCD3BDE8F09F0000001001408E000020100C01402803002071
:20AD80002DE9F05FDFF86090184D194FDFF86480064600244FF4F00A4FF0780B29783006B9
:20ADA00004D54FF4707000EA811103E04FF0707000EA8151C9F8101029780AEAC14038604E
:20ADC00098F8000007F074FF29780BEAC100386098F8000007F06CFF7006641C060EE4B2F8
:20ADE000082CDBD3BDE8F09F001001408E000020100C01402803002010B5012007F042FF78
:20AE0000002005F07DFF322007F031FF0C4C2078FDF7BAFD000905F073FF2078094A4FF4EF
:20AE2000F00101EAC04111604FF0707101EA805005490861BDE81040052007F023BF00003F
:20AE40008E000020100C01400010014070B5124C124D4FF4F001207801EAC0402860104E17
:20AE6000B08807F025FF2078782101EAC0002860B08807F01DFF0B48016821F07F4141F012
:20AE800088510160416821F0FF0141F0110141608114016170BD00008E000020100C0140AB
:20AEA000280300200010014070B5FFF7CFFF41F21C20FFF73FFA0020FFF77AFA094D0A4E37
:20AEC000002400BFFEF72AFDA870002808D0305DFFF756FFFFF7A0FB641CE4B2802CF1D36C
:20AEE00070BD000028030020382300202DE9FC5F874A4FF4A021874B108801EB40410091B1
:20AF000000EB001101EB401003EB8001886CC0F38724C0F30909019491F8460000EB090516
:20AF2000B5F5806F05D9C9F10005EDB2401BC6B201E0054600264869C0F3872BFFF75CFBB4
:20AF4000FFF784FF41F21620FFF7F4F90020FFF72FFA4FF480627049009804F00DFC6F48C3
:20AF600001214FF0000801706D48DFF8ACA10170C9E000BF5FEAC870009800F580600090C7
:20AF800033D04FF4806400232246634904F01EFC644800780028FDD0ABF10100804510D1E6
:20AFA000FF218AF8F8178AF8F9178AF8FA178AF8FB178AF8FC178AF8FD178AF8FE178AF8E3
:20AFC000FF175348008800EB001101EB4011514800EB810090F84600002872D0019988455B
:20AFE0005FD10020FF21524659E001239A024E4904F0ECFB494800780028FDD044480188CB
:20B0000001EB011000EB4111424800EB810090F84600E0B1019988450BD10020FF23514685
:20B0200005E000BF00EB0902401C8B5480B2A842F8D366B10198401C804508D10020FF216A
:20B04000524602E01154401C80B2B042FAD300240AEB0407FEF762FC34490028887055D08B
:20B060001AF804000021FFF755F878780021FFF751F8B8780021FFF74DF8F8780121FFF7F2
:20B0800049F8241DA4B2B4F5806FE1D337E000BF00EB09031344401C83F8001480B2A84261
:20B0A000F6D376B10198401C80450AD10020FF21524604E01318401C83F8001480B2B04215
:20B0C000F8D30AEB0407FEF729FC1849002888701CD01AF804000021FFF71CF878780021CC
:20B0E000FFF718F8B8780021FFF714F8F8780121FFF710F8241DA4B2B4F5006FE1D308F10B
:20B10000010000F0FF08D845FFF434AFBDE8FC9F9200002048030020381200205402002007
:20B12000560200205502002038160020280300200148007807F0BCBD28030020032007F0D1
:20B14000B7BD002070470020704700207047000070B50024064D07E0165D4640F6B2641C52
:20B1600055F8266086EA10209C42F5D3484070BDB44D01082DE9F8432C482E4F0025017817
:20B180004278DFF8AC8001EB02218278C078120402EB006001EB00093878A52801D10020EA
:20B1A00038702548FDF7E4F9C1B2234809F0FCF804462248008800EB001101EB40122049FF
:20B1C00008EB404001EB820100F52F00CA7B897B01EBC10303EB011102EB81060422694627
:20B1E00004F0CAFA9DF800009DF803109DF8012040EA01609DF80210090441EA02210843CC
:20B20000B9F1D70F0FD0B44201D004B10125B44203D10C490968884201D1002D03D0A5202C
:20B22000387001F0DDFCBDE8F8830000F87F0008F87B0100F84F0020C0FF010892000020A8
:20B2400048030020F8FF010810B52F48008800EB80002E4B53F830002B4B1B8803EB8303D3
:20B260002A4C04EBC3035B681844274B1B8803EB830304EBC3039B681844234B1B8803EBE8
:20B28000830304EBC303DB68C2181F48008800EB001303EB40101E4B03EB800090F8440088
:20B2A00000F0010068B11848008800EB001303EB4010174B03EB8000806F904201D80120D5
:20B2C00010BD00211CE01048008800EB80000F4B03EBC00050F821000E4B98420CD80A485F
:20B2E000008800EB8000094B03EBC000103050F82100084B984201D90120E1E7481CC1B2E9
:20B300000429E0DB0020DBE7920000209C0F0020480300203F420F00F0B52C48008800EB5F
:20B32000001101EB40112A4800EB810090F80EE0B0F85C40B0F85EC0B0F86020B0F86270BF
:20B34000B0F85430B0F85660B0F85810B0F85A50BEF10A0F18D0E0B20CF0FF0400EB0420B1
:20B36000D2B200EB0240DAB2F3B202EB0322C9B202EB014100EB076001EB0561421C01D05C
:20B38000884220D98920F0BD4FEA0C4C00201CEB040440EB000C10EB040E42EB0C023C0415
:20B3A00010EB0E0754413204D21840EB000683187141C01841EB05426FEA07012143E1D089
:20B3C000C01BA241DED30020F0BD0000920000204803002010B505F0D7FCBDE8104005F09D
:20B3E000C1BC0000014801F047B80000B0300020014801F041B80000E830002010B50468FB
:20B4000063604368102B036803D099600068C26010BD9A600068C16010BD704710B50446DF
:20B420004FF4803000EB0431002000F001F94FF4A02000EB4441012000F0FAF84FF4C02056
:20B4400000EB4441012000F0F3F810BDF0B5074638A00E4691B007C801AB83E8070038A08F
:20B4600004AB07C883E8070038A207AB07CA83E8070039A00AAB07C883E8070039A20DABAB
:20B4800007CA83E80700002007F0BBFB0C2546B1300907282CD2DFE800F02B222428262B6D
:20B4A0002A00072F0ED2DFE807F00D04060A080D0C0001AC06E004AC04E00DAC02E00AACD4
:20B4C00000E007AC1023224605213820009507F078FC10230821264A4020009521E001AC51
:20B4E00006E004AC04E00AAC02E00DAC00E007AC1023224605213820009507F062FC06F0F5
:20B5000002001C4A012108F0E5FF1A4A02210832304608F0DFFF174A1023921E08213820F3
:20B52000009507F04EFC4FF4FA7007F0A0FB11B0F0BD00002056444420434845434B2020CC
:20B540002056505720434845434B202020464C415348205445535420205541525420205412
:20B5600045535420434F4E4E4543542054455354B4000020D601002010B54FF4804001F0D1
:20B580007DF94FF4006001F079F9BDE810404FF4806001F073B9022001F070B9042001F0A9
:20B5A0006DB9000030B51E4885B0816941F004018161816901F004010491816941F008014A
:20B5C00081618069174C00F008000490022001258DE831006946144801F05CF944F60440F4
:20B5E0008DE831006946114801F054F902221146082001F0C3FA082001F0B5FA03220221FE
:20B60000072001F0BBFA072001F0A2FA05220221282001F0B3FA282001F0A5FA05B030BDFF
:20B62000001002400000211000080140000C014070B505460C4607F06BFA07F0B9FA002207
:20B640001021184801F004FA25B1012D06D0022D0CD107E020201449087007E0D82012494E
:20B66000087003E0C7201049087000BF00BF4FF47A7301220C490D4802F009FD022D0BD03A
:20B68000200C09490870200A48708C704FF47A730322064802F0FBFC01221021014801F0BC
:20B6A000D7F970BD0008014014020020682F0020FEE700003EB5174B044600250A21186803
:20B6C00003E0B0FBF1F06D1CEDB20028F9D16A462946186808F098FE9DF8000020702E2041
:20B6E00060709DF80110A170E0709DF8020020719DF8030060712020A071002069462D1F76
:20B7000005E00A1823181279401CDA71C0B2A842F7DB3EBDF8FF010810B505F099FAFF2020
:20B7200005F0C2FA0A2007F0ADFAF02005F0BCFA0A2007F0A7FABDE81040FF2005F0B4BA9C
:20B740002DE9F0474FF00009002426E0E1B2002008F068F94FF4803000EB04470211534946
:20B76000384604F009F8002508E05048405DFF2802D04FF0010904E0681C85B2B5F5805FAA
:20B78000F3DB00BFB9F1010F05D139460120FFF74FFF4FF00009601C84B2CD2CD6DB0026DE
:20B7A0007FE000210846FFF743FF16B14FF0550801E04FF0AA08711CC8B2002108F032F903
:20B7C000002404E0394800F80480601C84B2FF2CF8DD00274FF480723449384607F0C2F9A9
:20B7E0004FF480723149384603F0C6FF002408E02E48005D404502D06020BDE8F087601C16
:20B8000084B2FF2CF4DD00210846FFF711FF16B14FF0550801E04FF0AA08002404E02348D9
:20B8200000F80480601C84B2FF2CF8DD4FF48037002509E04FF480721C49384607F092F938
:20B8400007F58037681C85B2CD2DF3DB4FF48037002515E04FF480721449384603F08CFF10
:20B8600007F58037002407E01048005D404501D06020C2E7601C84B2FF2CF5DD681C85B26C
:20B88000CD2DE7DB002408E04FF4803000EB04410020FFF7CDFE601C84B2CD2CF4DB701CD6
:20B8A00086B2022EFFF67DAF0020A6E7381200202DE9F04107460C464FF00008FF224FF457
:20B8C00080511048FCF742FE16E0B4F5806F01D2A5B201E04FF480652A460A49384603F017
:20B8E0004BFF002604E00748805D8044701C86B2AE42F8DB2F44641B002CE6D14046BDE87D
:20B90000F0810000381200202DE9F04107460C464FF00008FF224FF480512C48FCF716FE6F
:20B92000B4F5803F35D916E0B4F5806F01D2A5B201E04FF480652A462449384603F01CFF67
:20B94000002604E02148805D8044701C86B2AE42F8DB2F44641BB4F5803FE5D816E0B4F596
:20B96000806F01D2A5B201E04FF480652A461749384603F001FF002604E01448805D80445D
:20B98000701C86B2AE42F8DB2F44641B002CE6D119E016E0B4F5806F01D2A5B201E04FF476
:20B9A00080652A460949384603F0E6FE002604E00648805D8044701C86B2AE42F8DB2F4498
:20B9C000641B002CE6D14046BDE8F081381200200148006870470000DC0200207FB504461B
:20B9E0001022C9496846FCF79FFDC848008800EB8000C74951F83000C449098801EB81012E
:20BA0000C34A02EBC10149680844C049098801EB810102EBC10189680844BC49098801EBF7
:20BA2000810102EBC101C9684618E5202070422060707A20A07004F02DFAB449087803F04A
:20BA400007FF04F0C1F8002505E0B248415DE81C2154681CC5B2102DF7DBAF480088000A85
:20BA6000E074AD4800782075AC480068000E6075AA480068000CA075A8480088000AE075DF
:20BA8000A64800782076002508E0A548284490F8E81705F119002154681CC5B20C2DF4DB36
:20BAA00000250EE09948008800EB001101EB40109C4901EB8000415D05F125002154681CCF
:20BAC000C5B20E2DEEDB9148008800EB001101EB4010944901EB8000807B04F8330F8B48FD
:20BAE000008800EB001101EB40108E4901EB8000C07B60708548008800EB001101EB4010AB
:20BB0000884901EB8000B0F84400000AA0707F48008800EB001101EB4010824901EB800024
:20BB200090F84400E0707948008800EB001101EB40107C4901EB8000B0F86600000A20718E
:20BB40007248008800EB001101EB4010754901EB800090F8660060716C48008800EB00114A
:20BB600001EB40106F4901EB8000B0F86A00000AA0716648008800EB001101EB4010694918
:20BB800001EB800090F86A00E0716048008800EB001101EB4010634901EB8000B0F86E0060
:20BBA000000A20725948008800EB001101EB40105C4901EB800090F86E006072534800888C
:20BBC00000EB001101EB4010564901EB8000007CA072333C4D48008800EB001202EB4010CE
:20BBE0000A4602EB800000F12401102204F14000FCF79AFC4548008800EB001101EB401035
:20BC0000484901EB800090F8460084F850003F48008800EB001101EB4010424901EB80004F
:20BC200090F8640084F851003848008800EB001101EB40103B4901EB8000806CC4F8520021
:20BC400000252EE03148008800EB001101EB4010344901EB80004C3030F8151068005630D8
:20BC600021522A48008800EB001101EB40102D4901EB8000543030F8151068005E30215203
:20BC80002248008800EB001101EB4010254901EB80005C3030F81510680066302152681CD2
:20BCA000C5B2042DCEDB44F86E6F1848008800EB001101EB40101B4901EB8000808BA080FF
:20BCC0001248008800EB001101EB4010154901EB8000C08BE0800D48008800EB001101EB10
:20BCE0004010104901EB8000008C20810748008800EB001101EB40100A4901EB8000408C68
:20BD000060816E3C7FBD0000C0FF0108920000209C0F0020E0FF0108FC7F0008F8FF0108AC
:20BD200000F0FF1F48030020F8B500250446009590F82400012808D0012084F82400204605
:20BD4000FCF75CFC060002D04BE00220F8BDA06A20F4885040F00200A062022001F02CFA5B
:20BD600022490968B1FBF0F0400000E0401E00900028FBD12046FCF767FC2068816841F0FB
:20BD80000801816000F06AFE074604E000F066FEC01B0A2811D8206880680007F6D420681D
:20BDA000816841F00401816000F058FE07460EE000F054FEC01B0A2809D9A06A20F00200B5
:20BDC00040F01000A06284F824500120F8BD206880684007ECD4A06A20F0020040F0010097
:20BDE000A06284F824503046F8BD000084000020F8B50025009590F82420AE46012A1ED042
:20BE0000012280F824204A681F244FF47873072A17D20668776B93FAA3FCBCFA8CFC521EDC
:20BE200002FB0CFC04FA0CF4A74393FAA3F3B3FA83F30C685A439440274377632DE0022077
:20BE4000F8BD06680D2A14D2376B93FAA3FCBCFA8CFCD21F02FB0CFC04FA0CF4A74393FA2B
:20BE6000A3F3B3FA83F30C685A4394402743376313E0F76A93FAA3FCBCFA8CFC0D3A02FB1E
:20BE80000CFC04FA0CF4A74393FAA3F3B3FA83F30C685A4394402743F7620A6838230724CC
:20BEA00006680A2A14D3F76893FAA3FCBCFA8CFC0A3A02FB0CFC04FA0CF4A74393FAA3F3DC
:20BEC000B3FA83F38C685A4394402743F76012E0376993FAA3FCBCFA8CFC02FB0CFC04FA1A
:20BEE0000CF4A74393FAA3F3B3FA83F38C685A439440274337610A68102A01D0112A20D102
:20BF0000124B02689A4217D193681B0219D4936843F4000393600968102912D10C490D4A30
:20BF20000968B1FBF2F101EB8101490000E0491E00910029FBD104E0816A41F02001816279
:20BF4000012580F824E02846F8BD0000002401408400002040420F000068C06C7047000037
:20BF60002DE9F04104004FF0000513D0A06A002628B9E66284F82460204600F08BF82046B7
:20BF8000FCF73CFBA16AC90600D420B1A06A40F01000A06278E0A16A21F4885141F0020127
:20BFA000A1626268E16902270A43E16897FAA7F70B46B7FA87F7B9400A43A1684FF4807773
:20BFC000B94209D0012907D05FF00001D4F814C0BCF1010F02D00AE03946F7E7F3B1A36A15
:20BFE00043F02003A362E36A43F00103E3622368D3F804C02CF4694C4CEA010CC3F804C06C
:20C0000021688B68DFF884C003EA0C0313438B60A168B94210D001290ED016E04FF4604C7B
:20C02000A3699CFAACFCBCFA8CFC5B1E03FA0CF30B4343F40061DAE74FF47001256991FA8F
:20C04000A1F1B1FA81F16D1E8D402168CB6A23F470032B43CB62216889680D4B19409142F8
:20C0600008D1E662A16A21F0020141F00101A162BDE8F081A06A20F0020040F01000A062D6
:20C08000E06A40F00100E0620120F1E7FDF7E1FFFE0E1FFF10B500680E4986B0884217D180
:20C0A0000D48816941F4007181618069032400F4007004900F20CDE900046946074800F0DA
:20C0C000E9FB0120CDE900046946054800F0E2FB06B010BD0024014000100240001001404D
:20C0E000000801402DE9F84300260D460446009600F0B4FC804620688168C90508D5A06AC1
:20C1000040F02000A06284F824600120BDE8F8834168C90503D4C06A10F4700F26D0022079
:20C1200001F04AF838490968B1FBF0F72068036936490B424FEA61014FEAA1121BD1C368E9
:20C140004FEA611C13EA0C0F15D103690B4221D1C06810421ED114201FE0681C06D045B392
:20C1600000F07CFCA0EB0800A84222D8206800688007F2D52AE003690B4202D1C168114290
:20C1800006D0026922490A4206D1C068084203D1542002E0292000E0FC204743009813E0DA
:20C1A000681C0ED02DB100F059FCA0EB0800A84207D9A06A40F00400A06284F8246003203A
:20C1C000A4E70098401C0090B842E9D321686FF012000860A06A40F40070A0622068806818
:20C1E000C0F3424007280CD1E06850B9A06A20F48070A062A06AC00403D4A06A40F00100BD
:20C20000A062002082E7000084000020244992244992240070B5044690F8240001280DD0AC
:20C22000012084F824002046FCF70EFA02004FF0000005D084F82400104670BD022070BD54
:20C24000A16A40F20123994341F48071A1621F4D23681F49AB4218D10E6816F4702F14D040
:20C26000A66A46F48016A6620E68760505D5A66A26F4005646F48056A662A66AF6040AD58A
:20C28000E66A26F00606E66206E0A66A26F48016A6625E68E9E7E06284F824006FF002005D
:20C2A000186020688368C3F34243072B05D1A84208D1096811F4702F04D0816841F48011F5
:20C2C0008160B9E7816841F4A001F9E7002801400424014010B5040002D0607910B106E051
:20C2E000012010BD00202071204600F004F801206071002010BD70472DE9F04104460068BE
:20C30000016821F00101016000F0A8FB054600264FF47A7710E000BF00F0A0FB401BB84279
:20C320000AD954F8340F40F0200044F81409032060702670BDE8F08120680068C007EBD1D0
:20C34000012084F8210084F820600020F2E70000F0B540B390F82110022924D001680A68DF
:20C3600022F001020A6001684FF0000EC1F800E00168C1F804E00168C1F808E00168C1F8BD
:20C380000CE03C4C3B4D3B4E3A4F3A4ADFF8E4C00168143428353C3650370CF1640C914249
:20C3A00003D102211BE00120F0BDA14201D1202115E0A94202D14FF4007110E0B14202D1AA
:20C3C0004FF400510BE0B94202D14FF4003106E0614502D14FF4001101E04FF00071254BE8
:20C3E000083B59600168914201D1082119E0A14201D1802115E0A94202D14FF4006110E074
:20C40000B14202D14FF400410BE0B94202D14FF4002106E0614502D14FF4000101E04FF0F2
:20C42000006159600168914201D1042119E0A14201D1402115E0A94202D14FF4806110E0D9
:20C44000B14202D14FF480410BE0B94202D14FF4802106E0614502D14FF4800101E04FF032
:20C4600080615960C0F834E080F821E080F820E00020F0BD080002402DE9F05FDFF8608230
:20C480000446D8F80020DFF858B2954D944E944F0068DFF84C92DFF848A20BF1080B1C359C
:20C4A000303644374FF400614FF4004C4FF4002E09F158090AF16C0A584501D1082316E09B
:20C4C000A84201D1802312E0B04201D10B460EE0B84201D163460AE0484501D1734606E0AB
:20C4E000504502D14FF4000301E04FF000631A4231D00268D24312072DD4026822F008028F
:20C5000002602068584501D1082114E0A84201D1802110E0B0420ED0B84201D161460AE02B
:20C52000484501D1714606E0504502D14FF4000101E04FF00061C8F80410606B40F0010002
:20C540006063042084F82100002084F82000216B09B1204688476248D0F800C04FF48061CA
:20C5600020680A010B044FF4802E584502D14FF0040816E0A84202D14FF0400811E0B04250
:20C5800001D188460DE0B84201D1904609E0484501D1F04605E0504502D14FF4800800E0F6
:20C5A00098461CEA080F33D0D0F800C06FEA0C0C5FEA4C7C2CD4D0F800C05FEA8C6C05D4D1
:20C5C000D0F800C02CF0040CC0F800C02068584501D1042113E0A84201D140210FE0B04222
:20C5E0000DD0B84201D1114609E0484501D1714605E0504502D14FF4800100E0194638486C
:20C600004160112084F82100E16A09B120468847334AD2F800C05B46206851154FF4005B3D
:20C620004FF4003E984202D14FF0020817E0A84202D14FF0200812E0B04201D188460EE0F6
:20C64000B84201D1D8460AE0484501D1F04606E0504502D14FF4001801E04FF000781CEA2A
:20C66000080F3BD0D0F800C06FEA0C0C5FEA8C7C34D4D0F800C05FEA8C6C05D4D0F800C01C
:20C680002CF0020CC0F800C02068984201D1022114E0A84201D1202110E0B0420ED0B842F6
:20C6A00001D159460AE0484501D1714606E0504502D14FF4001101E04FF000715160606B5A
:20C6C0006063012084F82100002084F82000A16A002903D02046BDE8F05F0847BDE8F09F39
:20C6E0000000024070B520B190F82110002411B103E0012070BD80F82040022180F821108E
:20C7000003681A6843F6F0718A43D0E901152943D0E9035635432943456929438569294320
:20C72000C5692943114319604463012180F82110002070BD70B5044690F82000012823D0A0
:20C74000012084F82000022084F821002068056825F0010505602046FEF750FE206801684E
:20C7600041F0020101602068016841F0040101602068016841F0080101602068016841F0EE
:20C7800001010160002070BD022070BD31B500F065F9044600F062F90099001B8842F9D387
:20C7A00038BD000070B506460A2006F060FA2F4C2F4DB6F5806F3AD012DC022E25D0042EB9
:20C7C00034D1D5F80801002830D10A2006F05AFAD5F80801002829D1207840F0010034E00C
:20C7E000B6F5006F33D0B6F5804F1FD1D5F8380100281BD10A2006F045FAD5F8380100280B
:20C8000014D1207840F008001FE01A4CD4F8040100280BD1642006F035FAD4F80401002887
:20C8200004D11548017881F00101017070BDD5F828010028FAD10A2006F024FAD5F828011F
:20C840000028F3D1207840F00200207070BDD5F82C010028FAD10A2006F014FAD5F82C0150
:20C860000028F3D1207840F00400EEE78D00002000802142000021428C000020044910B57A
:20C880000A68024202D00860FFF78CFF10BD0000140401402DE9F84FDFF890A100220AF17F
:20C8A000040B144601274FF00F090BF1040E00BF0B6807FA04F52B40AB4274D1DFF870C1B1
:20C8C0004E68A6EB0C0866452BD00DDC032E34D005DC36B3012E19D0022E2FD11BE0112EED
:20C8E00016D0122E2AD119E0B8F5881F19D006DCB8F5803F15D0B8F5801F1FD111E0B8F5D4
:20C90000001F0ED0B8F5041F18D10AE0CA6815E0CA68121D12E0CA6808320FE0CA680C3232
:20C920000CE08A682AB1012A4FF0080203D0456104E0042202E0056100E00022FF2B01D8FA
:20C94000064601E000F104064FEA840501D9A5F12005D6F800C009FA05F82CEA080C02FAA4
:20C9600005F54CEA050CC6F800C04D68ED0057D5304DAE6946F00106AE61AD6924F0030617
:20C9800005F0010500952C4D06EB050CDCF80850A6074FEA167809FA08F6B543274EB0428C
:20C9A00002D1002610E03BE0254EB04201D101260AE0244EB04201D1022605E0224EB04286
:20C9C00001D1032600E0042606FA08F62E43CCF808604D68DAF80060ED03554601D51E430E
:20C9E00000E09E432E604D68DBF80060AD035D4601D51E4300E09E432E604D68DEF800603C
:20CA0000ED02754601D51E4300E09E432E604D68AD020E4D2E6801D51E4300E09E432E600B
:20CA2000641C102CFFF444AFBDE8F88F0004014000001110001002400000014000080140E6
:20CA4000000C014000100140001401400C0401400AB1016170470904FBE70000014800681E
:20CA6000704700001003002002480168491C01607047000010030020074810B5016841F0BB
:20CA800010010160032000F099F8002000F006F800F016F8002010BD0020024010B5044616
:20CAA00000F05CFD4FF47A71B0FBF1F001F077FD00222146501E00F061F8002010BD0000E1
:20CAC000214808B5816941F001018161806900F001000090032000F071F8002211466FF073
:20CAE0000B0000F04BF8002211466FF00A0000F045F8002211466FF0090000F03FF80022BF
:20CB00001146501F00F03AF800221146101F00F035F800221146901E00F030F800221146B0
:20CB2000501E00F02BF800221146012000F026F8012000F018F80548416821F0E06141F032
:20CB40000071416008BD0000001002400000014000F01F02012191404009800000F1E020AD
:20CB6000C0F88011704700F01F02012191404009800000F1E020C0F800117047F0B40E4B7A
:20CB80001B680C46C3F30223C3F10705042D00D90425191D072901D2002300E0DB1E012696
:20CBA00006FA05F1491E214099409E40761E16403143F0BC02F0B0BB0CED00E0064900F081
:20CBC000070208684FF6FF03184040EA0220034A10430860704700000CED00E00000FA055A
:20CBE000BFF34F8F05480168054A01F4E06111430160BFF34F8F00BFFDE700000CED00E0A9
:20CC00000400FA0510B50C0605D501F07F0100EB4110283003E000EB411000F5027099B28A
:20CC200032B101228272C180190C0181002010BD002282728180F9E7704700EB4112D0F871
:20CC40001C04D26B04F0DFBD00EB4112D0F81C04D2F81C2204F02CBE10B504460A460B066B
:20CC600001F07F0004EB401101D5283101E001F502710870D009487094F8E803012809D009
:20CC8000012084F8E803206805F0FAF9002084F8E80310BD022010BD70B50A46044609068B
:20CCA00002F07F0003D504EB4011283103E004EB421101F5027100258D700870D0094870D9
:20CCC00094F8E803012809D0012084F8E803206805F07EFA84F8E853002070BD022070BD0B
:20CCE00070B504460D460E0601F07F0004EB401101D5283101E001F502710870E809487014
:20CD00000A61CB7094F8E803012809D0012084F8E803206805F084F8002084F8E80370BDBF
:20CD2000022070BD70B504460E4601F07F0004EB401101F5077100252CC101F81F5C01F844
:20CD4000200D94F8E80301280AD0012084F8E8037006206805F096FA84F8E853002070BD1D
:20CD6000022070BD70B50D460446090605F07F0003D504EB4011283103E004EB451101F590
:20CD8000027101228A700870E809487094F8E803012807D084F8E823206805F04EFA6806B1
:20CDA00002D006E0022070BD04F57B71206805F00DFA002084F8E80370BD70B504460E468C
:20CDC00001F07F0004EB40113C3100252CC1012201F81F2C01F8200D94F8E803012809D01E
:20CDE00084F8E8237006206805F04CFA84F8E853002070BD022070BD10B50446006805F0B4
:20CE000023FB000402D5204602F096FA206805F01BFB40050CD5206830F8441F21F480616F
:20CE20000180204600F0ECF80021204600F0FDF8206805F009FB400405D5206830F8441F19
:20CE400021F480410180206805F0FEFA800405D5206830F8441F21F400510180206805F031
:20CE6000F3FAC00413D5206830F8401F21F00401018021684FF43D40A1F84000204600F0FB
:20CE8000CCF8206830F8441F21F480510180206805F0DAFA00051AD5206830F8441F21F4E7
:20CEA00000610180206830F8401F41F008010180206830F8401F41F004010180206805F083
:20CEC000C3FAC043C00402D5204600F0E3F8206805F0BAFA800508D5206830F8441F21F40B
:20CEE00000710180204600F09CF8206805F0ACFAC00505D5206830F8441F21F480710180FA
:20CF000010BD00002DE9F04186B004004FF0000504D094F8E903002620B108E0012006B07D
:20CF2000BDE8F08184F8E863204600F04BF8032084F8E903206805F042F904F110011422FC
:20CF400088466846FBF7F0FA94E80F0005F096F80021206805F08BFA5FF0010704EB4510AD
:20CF600080F8297000F8285F8581C670066146616D1C86610F2DF1D35FF0000004EB4011D8
:20CF800081F8096281F80802888681F80B62C1F81862C1F81C62401CC1F820620F28EDD33E
:20CFA000142241466846FBF7BFFA94E80F0005F0FDF884F8246084F8E973206805F0F4F8A5
:20CFC0000020ACE708B500680B49884212D10B48C16941F40001C161C069002200F4000064
:20CFE000009011461420FFF7C9FDBDE808401420FFF7B9BD08BD0000005C0040001002401A
:20D0000010B504460121D0F81C0404F023FDD4F81C04BDE8104004F0ECBCD0F81C0404F08A
:20D0200007BDD0F81C0404F009BD10B5044690F8E80301280BD0012084F8E80384F82410CC
:20D04000206805F016FA002084F8E80310BD022010BDD0F81C2400F57B71104604F00DBD03
:20D0600010B5044690F8E803012810D0012084F8E80301462046FFF7DFFD206805F092F817
:20D08000206805F0D4F9002084F8E80310BD022010BD000010B50446D0F81C0404F03AFDE1
:20D0A000A069002804D00348016841F00601016010BD000010ED00E030B51C490A6803684D
:20D0C00022F0E0021A430A6019490A6822F480320A600C1F226822F480322260144A0832F8
:20D0E000136823F4803313600B1D1D6825F480351D604568ED0303D5256845F4803525600B
:20D100004468A40303D50C6844F480340C600179C90703D0196841F480311960007980071B
:20D1200003D5106840F48030106030BD00700040040401400120102191FAA1F1024AB1FAFF
:20D1400081F142F82100704700000E4270B505F0A9F906F059F94FF496740E4D0FE0FF2041
:20D1600003F076FD01212046FBF7BCFBC82005F07EFDAA2003F06CFDC82005F078FD686878
:20D180004007ECD40448008802F062FBBDE8704006F0AEB9007000409200002010B5054C3B
:20D1A0002068C00304D5FFF7D1FF4FF48030206010BD00001404014010B533A401461DCC20
:20D1C00086B08DE81D0034A0344C006804900020012931D0022948D010292BD16168226821
:20D1E000D20127D54FF4701292FAA2F201F47010B2FA82F2D040C9031DF8000010D5616847
:20D200004FF4003292FAA2F201F40031B2FA82F2D14004AA515C224AB2FBF1F1484301E060
:20D22000204948436168490204D440005FF00301B0FBF1F006B010BD226AC2F301210129DF
:20D2400003D1920701D5C803F4E7022905D1626A920702D549F64040ECE70329EAD12168A6
:20D260008903E7D54FF22440E4E700F095F961684FF4804292FAA2F201F44041B2FA82F2F4
:20D28000D140491C4900D3E702030405060708090A0B0C0D0E0F1010010200000010024029
:20D2A00000127A0000093D002DE9F84305460078454CC00774D0E06940F08050E061E06919
:20D2C000424E00F080500090306840F480703060FFF7C4FB074604E0FFF7C0FBC01B642824
:20D2E00033D83068C005F7D5206A10F4407051D0A98801F4407181424CD0206A01263104FF
:20D3000091FAA1F2B2FA82F29300314A20F440701344C3F8006491FAA1F1B1FA81F102EB60
:20D3200081010023C1F800342062C00732D0FFF795FB074641F288394FF0020808E000BF59
:20D34000FFF78CFBC11B494502D90320BDE8F88398FAA8F1B1FA81F141F040014046B6EBE7
:20D36000511F01D121680BE090FAA0F1B1FA81F141F04001B0EB511F01D1216A00E0616A3A
:20D3800098FAA8F0B0FA80F000F01F0206FA02F00142D5D0206A696820F440700843206272
:20D3A0002878800705D56068A96820F44040084360602878C00605D56068E96820F4800007
:20D3C000084360600020C1E70010024000700040000042422DE9F047DFF8708105460E4640
:20D3E000D8F8000000F00700B0420CD2D8F8001021F007013143C8F80010D8F8000000F099
:20D400000700B04277D12878514C800705D56068A96820F0F000084360602878C00759D0B9
:20D420006968012001290DD0022929D05FF0020393FAA3F2B2FA82F242F02002520904D0B6
:20D44000226803E04FF40033F2E7626A93FAA3F3B3FA83F303F01F03984002424BD06068EA
:20D4600020F0030008436060FFF7F8FA6968074641F2883001290DD00229814617D025E0B8
:20D480004FF00073D4E700BFFFF7E8FAC11B494501D918E081466068C0F381000128F3D19C
:20D4A00018E000BFFFF7DAFAC11B49450BD86068C0F381000228F5D10CE000BFFFF7CEFA49
:20D4C000C11B494502D90320BDE8F087606810F00C0FF3D1D8F80010404601F00701B142CF
:20D4E0000BD9016821F0070131430160006800F00700B04201D00120E6E72878400705D520
:20D500006068E96820F4E060084360602878000706D56068296920F4605040EAC100606048
:20D5200000F052F86168F02292FAA2F201F0F001B2FA82F2D140074A515CC84006490860E6
:20D540000020FFF7ABFA0020BEE700000020024000100240584D0108840000200148006894
:20D56000704700008400002008480949006849684FF4E06292FAA2F201F4E061B2FA82F29A
:20D58000D140044A515CC840704700008400002000100240684D0108084809490068496851
:20D5A0004FF4605292FAA2F201F46051B2FA82F2D140044A515CC840704700008400002021
:20D5C00000100240684D010810B519A385B00FCB8DE80F001AA01B4B006804905A681A48E7
:20D5E00002F00C0104291DD008291BD14FF4701494FAA4F402F47011B4FA84F4E140D20375
:20D600001DF8011010D55A684FF4003393FAA3F302F40032B3FA83F3DA4004AB9A5CB0FBEF
:20D62000F2F0484305B010BD08484843FAE7000002030405060708090A0B0C0D0E0F1010A8
:20D64000010200000010024000127A0000093D002DE9F84F04460078F74DC0074FF0010633
:20D6600025D068687704C0F38100012807D06868C0F3810002281BD16868C00318D597FA0B
:20D68000A7F0B0FA80F040F02000400901D0286800E0686A97FAA7F1B1FA81F101F01F01D6
:20D6A00006FA01F108425ED0606800287CD05AE06068B0F5803F0BD010B1B0F5A02F11D06D
:20D6C000286820F480302860286820F4802002E0286840F480302860606828B3FFF7BEF9FC
:20D6E00080460BE0286840F480202860F0E700BFFFF7B4F9A0EB0800642871D897FAA7F0C4
:20D70000B0FA80F040F02000400901D0286800E0686A97FAA7F1B1FA81F101F01F0106FAEC
:20D7200001F10842E4D01EE0FFF798F9804605E0FFF794F9A0EB08006428DED897FAA7F049
:20D74000B0FA80F040F02000400901D0286800E0686A97FAA7F1B1FA81F101F01F0106FAAC
:20D7600001F10842E4D12078DFF8D08280074FF000094FF002075BD568684FF0F80B10F09E
:20D780000C0F07D06868C0F3810002281CD16868C00319D497FAA7F0B0FA80F040F020006A
:20D7A000400902D0286801E08BE0686A97FAA7F1B1FA81F101F01F0106FA01F108422CD011
:20D7C000206901287DD128E0206990B396FAA6F0B0FA80F048F82060FFF740F9824607E097
:20D7E00011E100BFFFF73AF9A0EB0A00022884D897FAA7F0B0FA80F040F02000400901D088
:20D80000286800E0686A97FAA7F1B1FA81F101F01F0106FA01F10842E4D028689BFAABF2BD
:20D820006169B2FA82F220F0F80091400843286025E0FFE796FAA6F1B1FA81F148F8219032
:20D84000FFF70CF9824605E0FFF708F9A0EB0A000228CCD897FAA7F0B0FA80F040F0200034
:20D86000400901D0286800E0686A97FAA7F1B1FA81F101F01F0106FA01F10842E4D120786C
:20D8800000076ED5A069B8B396FAA6F0B0FA80F008EB8000C0F88064FFF7E0F8824605E000
:20D8A000FFF7DCF8A0EB0A000228A0D897FAA7F0B0FA80F040F06000B6EB501F02D1286822
:20D8C0000CE062E197FAA7F0B0FA80F040F06000B7EB501F01D1286A00E0686A97FAA7F1F7
:20D8E000B1FA81F101F01F0106FA01F21042D7D00120FEF74BFF34E0FFE796FAA6F1B1FAE2
:20D9000081F108EB8101C1F88094FFF7A7F8824606E000BFFFF7A2F8A0EB0A00022872D8B8
:20D9200097FAA7F0B0FA80F040F06000B6EB501F01D128680BE097FAA7F0B0FA80F040F046
:20D940006000B7EB501F01D1286A00E0686A97FAA7F1B1FA81F101F01F0106FA01F21042A4
:20D96000D8D12078400765D5E86940F08050E861E869DFF8CCB000F080500090DBF8001074
:20D9800041F48071CBF80010FFF768F8824605E0FFF764F8A0EB0A00642834D8DBF8000039
:20D9A000C005F5D5E06801280AD008B1052813D0286A20F001002862286A20F0040002E00F
:20D9C000286A40F001002862E06841F2883B90B3FFF744F882460BE0286A40F00400286244
:20D9E000EEE700BFFFF73AF8A0EB0A0159450AD897FAA7F0B0FA80F040F04000B6EB501F93
:20DA000002D128680CE0A3E097FAA7F0B0FA80F040F04000B7EB501F01D1286A00E0686A5B
:20DA200097FAA7F1B1FA81F101F01F0206FA02F10842D7D031E005E00010024000004242DE
:20DA400000700040FFF70AF8824605E0FFF706F8A0EB0A0159457BD897FAA7F0B0FA80F0B4
:20DA600040F04000B6EB501F01D128680BE097FAA7F0B0FA80F040F04000B7EB501F01D144
:20DA8000286A00E0686A97FAA7F1B1FA81F101F01F0206FA02F10842D8D1E06980B36968B7
:20DAA000C1F38101022970D04FF080714F000228484609D091FAA1F1B1FA81F148F821001A
:20DAC000FEF7CCFF044669E08A4691FAA1F1B1FA81F1C14648F82100FEF7C0FF804605E022
:20DAE000FEF7BCFFA0EB0800022854D897FAA7F0B0FA80F040F02000400902D0286801E06F
:20DB000061E0686A97FAA7F1B1FA81F101F01F0106FA01F10842E3D1206AB0F5803F05D1E7
:20DB20006868A16820F4003008436860D4E908010843696821F47411084368609AFAAAF0F8
:20DB4000B0FA80F049F82060FEF788FF044606E021E000BFFEF782FF001B02281BD897FA3F
:20DB6000A7F0B0FA80F040F02000400901D0286800E0686A97FAA7F1B1FA81F101F01F01F1
:20DB800006FA01F10842E5D01DE01EE0FEF766FF001B022802D90320BDE8F88F97FAA7F0A8
:20DBA000B0FA80F040F02000400901D0286800E0686A97FAA7F1B1FA81F101F01F0106FA48
:20DBC00001F10842E2D10020E6E70120E4E7704710B5040003D094F8510010B104E0012087
:20DBE00010BD204600F038F8022084F851002068016821F040010160D4E901010843D4E978
:20DC000003121143084361690843218B01F400710843E1690843216A0843A16A0843216894
:20DC20000860A069042101EA1040616A0843216848602168E06A08612068C16921F4006168
:20DC4000C1610449002008706065012084F85100002010BD140300202DE9F04F05460068DE
:20DC60003F49DFF80081032685B088425CD1D8F8181041F48051C8F81810D8F81800DFF8CA
:20DC8000E8B000F480500490A02000900220019069465C4603965846FEF7FCFD4FF00009D3
:20DCA0004020CDE900094F4669462046CDF80890FEF7F0FD2E4C2D484FF0800AC4E90007F0
:20DCC000C4E9027A27616761A7612046E761FEF709FD08B1FDF7ECFC6C6465622348254C12
:20DCE00014301027C4E90007C4E9029AC4F81090C4F81490C4F818902046C4F81C90FEF7C9
:20DD0000F1FC08B1FDF7D4FC2C6465620120CDE9007069465C4603965846FEF7BBFD0122A3
:20DD200010212046FEF794FE13492868884214D1D8F81C1041F48041C8F81C10D8F81C0060
:20DD4000694600F4804004904FF4204000900220019003960948FEF79DFD05B0BDE8F08F94
:20DD60000030014000100240000801401C000240B0300020E830002000380040000C01403C
:20DD80002DE9F84F00259A460446ADF8005090F8510001287ED1E9B3E2B394F8500001285B
:20DDA00078D0012684F85060222084F851006565A163A287E287A564E5642563A586E586E9
:20DDC000A0684FF40049484504D12068036823F480430360A06A4FF40057B84209D120681D
:20DDE000036823F4005303602068036843F40053036060684FF48278404501D1A06878B17E
:20DE000020680168490603D4016841F040010160E06800E001E0E8B131E00120BDE8F88FAF
:20DE200084F8505013460A462046CDF800A000F0D1F9F3E7534600220121204602F0DFF9B1
:20DE400048BB2068C168A06B421CA2630170E08F401EE087E08F0128ECD813E053460022F1
:20DE60000121204602F0CBF9A8B92068C068A16B0880A06B801CA063E08F401EE087E08F72
:20DE80000128EBD8A06AB84207D12068016841F4805101E068E007E0016053460022012175
:20DEA000204602F0ACF908B10320B7E7E0680028206817D0C068A16B0880A06B801CA063A6
:20DEC000E08F401EE087A06AB84217D1534600220121204602F093F950B1606D40F0020061
:20DEE0006065E1E7C168A06B421CA2630170E7E72068C068ADF80000BDF800006068404568
:20DF00000AD1A068484502D0B0F5806F04D12068016821F04001016084F85160A06AB84281
:20DF20000DD120688068C043C00608D4204602F064F9012807D021686FF01000886084F8DD
:20DF4000505000206AE7606D40F0020060652068016821F4005101602068016841F40051BD
:20DF6000016084F8505058E7022057E770B5044690F85100012860D1D1B1CAB194F850000A
:20DF800001285AD0012084F85000222084F8510000256565A163A287E287A564E5642563D3
:20DFA000A586E586A068B0F5004F03D040B10BE0012070BD2068016821F48041016003E0C7
:20DFC0006068B0F5827F04D0A06AB0F5005F09D012E084F850502046BDE8704013460A46A6
:20DFE00000F052BA2068016821F4005101602068016841F400510160616C1148C862616C78
:20E0000010488862616C104808632168E38F0C31A26B606CFEF78EFB2068416841F001013B
:20E02000416084F8505020680168490603D4016841F040010160002070BD022070BD000034
:20E040004F000108630001083100010810B50446012210210848FEF7FBFC0848007818B192
:20E0600001200749087005E00648007810B101200549087010BD00000008014056020020D6
:20E0800054020020570200205502002070472DE9F843044690F851009846012870D139B3BB
:20E0A00032B394F8500001286AD0012684F85060122084F85100002565652163A286E286E7
:20E0C000E564A564A563A587E587A06A7703B84209D12068016821F400510160206801684D
:20E0E00041F400510160A068B0F5004F03D007E00120BDE8F8832068016841F480410160FA
:20E1000020680168490603D4016841F040010160E0680028606804D0D8B1E08E012818D098
:20E1200021E010B1E08E012808D1206B411C216321680078C860E08E401EE0860004000CD6
:20E140001FD0434600220221204602F058F8A8B9EBE7206B21680088C860206B801C2063B9
:20E16000E08E401EE0860004000C0AD0434600220221204602F043F80028EAD00320B8E77E
:20E1800026E0A06AB84204D12068016841F480510160434600220221204602F030F830B911
:20E1A000434601228021204602F029F820B1606D40F010006065E1E7A06818B92068C168A4
:20E1C0008068009084F8516084F85050002090E702208EE72DE9F8430025DDF8208004461B
:20E1E000ADF8005090F85100012803D094F8510022287DD169B162B15BB194F850000128A2
:20E2000076D0012684F8506094F85100012803D005E00120BDE8F883322084F8510065657D
:20E22000A263A387E3872163A386E386A564E564A06A4FF40057B84209D12068016821F45F
:20E24000005101602068016841F40051016020680168490603D4016841F040010160E06899
:20E260004FF48271B0F5006F606807D0002867D088426ED1E08E012862D06AE020B188429F
:20E280000CD1E08E012809D1206B21680088C860206B801C2063E08E401EE086E08E80B9E9
:20E2A000A06AB84244D12068016841F4805101603EE02068C068A16B0880A06B801CA063E1
:20E2C0009EE0434600220221204601F098FF002874D1206B21680088C860206B801C206329
:20E2E000E08E401E0004000CE08609D1A06A00E0C7E0B84204D12068016841F4805101604A
:20E30000434600220121204601F079FF00286FD12068C068A16B0880A06B801CA063E08F9C
:20E32000401EE087E08E0028CBD1606800286AD1434600220121204601F061FFF0BBB8E7ED
:20E34000206B411C216321680078C860E08E401EE086E08E98B9A06AB84204D1206801686D
:20E3600041F480510160434600220121204601F046FF18BB2068C068A16B087040E043461D
:20E3800000220221204601F03AFFB8B9206B411C216321680078C860E08E401E0004000CC6
:20E3A000E08607D1A06AB84204D12068016841F48051016000224346012100E018E02046E3
:20E3C00001F01DFFA0B92068C168A06B421CA2630170E08F401EE087E08E0028CFD1606815
:20E3E00088B9434600220121204601F008FF08B103200FE72068C168A06B421CA26301704F
:20E40000E08F401EE087A06AB84210D1434600220121204601F0F3FE18B1606D40F0020006
:20E420000FE02068C068ADF80000BDF80000434601228021204601F0E2FE20B1606D40F091
:20E4400010006065D4E784F85160A06AB84214D120688168C943C9060FD4616D41F00201E5
:20E460006165016821F4005101602068016841F40051016084F85050CBE684F850500020C5
:20E48000C8E60220C6E6000070B5044690F8510001280AD06068B0F5827F71D1A0680028D5
:20E4A0006ED194F8510022286AD1F1B1EAB1E3B194F85000012863D0012084F8500094F839
:20E4C0005100222802D0322084F85100002565652163A386E386A263A387E387A564E564C0
:20E4E000A06AB0F5005F02D00BE0012070BD2068016821F4005101602068016841F40051D4
:20E50000016094F85100222832D0616C1D48C8621D48616C1D4E8862606C06632168E38F5E
:20E520000C31A26B606CFEF705F92068416841F00101416094F851003228206C1ED00563B4
:20E540002268E38E0C32216B206CFEF7F3F820680168490603D4016841F0400101602068AF
:20E56000416841F00201416084F85050002070BD616C0748C8620748CBE701E00663DFE75D
:20E58000022070BD590001083D010108310001084F0001086300010870477047704710B59B
:20E5A000401EB0F1807F01D3012010BD4FF0E02460610F21601700F0AFFE0020A06107200B
:20E5C0002061002010BD10B5FFF7E8FF10BD7047704730B590F83820012A20D0012280F875
:20E5E0003820022380F8393003685C6824F070045C6003685C680D682C435C6003689C680C
:20E6000024F080049C6003689C6849680C439C6080F83920002180F83810084630BD0220EC
:20E6200030BD10B5040003D094F8390010B107E0012010BD002084F83800204600F00CF8C8
:20E64000022084F83900211D206802F029FC012084F83900002010BD00B51E4A01681E4857
:20E6600085B0914222D1C16941F00201C161C069694600F0020004904FF4707000900020EE
:20E68000019002901548FEF705F9002211461D20FEF774FA1D20FEF766FA11484168114AFF
:20E6A00021F0A0611143416005B000BDB1F1804FFAD1C16941F00101C161C069002200F0EB
:20E6C0000100049011461C20FEF758FA1C20FEF74AFAE9E70004004000100240001001409F
:20E6E00000000140000C00020168CA6842F00102CA600068016841F0010101600020704795
:20E700000168CA6822F00102CA600068016A41F21112114207D1016A9210114203D101682E
:20E7200021F0010101600020704700002DE9F05F5B4E0446007EDFF86CB1A6F10C054FF0DD
:20E74000000A06F1080706F1100805F10409012820D1EA7812B399F803108A4217D1206876
:20E76000406BF880F288801A4F4A80B25143B1FBF0F1A8F80600CBF80C10311F204681F8C2
:20E7800003A0002100F092F82046FFF7B9FFE878401CE870207E022804D025E02068406B3F
:20E7A000F080F4E7AA781AB399F802108A4218D12068806BB880B288801A3B4A80B25143FD
:20E7C000B1FBF0F1A8F80400CBF8081034492046091F81F802A0042100F068F82046FFF736
:20E7E0008FFFA878401CA870207E042804D025E02068806BB080F4E76878E8B399F80110B9
:20E80000884218D12068C06B78807288801A264A80B25143B1FBF0F1A8F80200CBF80410CA
:20E820001F492046091F81F801A0082100F03EF82046FFF765FF6878401C6870207E0828D7
:20E8400023D1297839B399F8000081421AD12168096C39803288891A134A89B2A8F800109C
:20E860005043B0FBF1F1CBF800100D492046091F81F800A00C2100E009E000F017F820464D
:20E88000FFF73EFF2878401C2870BDE8F09F2068C06B7080CFE72068006C3080F2E70000A7
:20E8A000EC020020A0300020001BB70010B50268044631B1042908D008291ED00C2908D1FB
:20E8C0001FE0D06820F0020002E0D06820F00400D0600022206802F015FB2068016A41F2BF
:20E8E0001112114207D1016A9210114203D1016821F001010160002010BDD06820F008007C
:20E90000E6E7D06820F01000E2E770B50446006801694FF00005C943890715D4C168C943CA
:20E92000890711D4E91E016101202076206880698007204602D0FFF7F9FE04E000F098F8C1
:20E94000204600F096F8257620680169C943490717D4C168C943490713D46FF004010161CD
:20E96000022020762068806910F4407F204602D0FFF7DCFE04E000F07BF8204600F079F895
:20E98000257620680169C943090716D4C168C943090712D46FF008010161042020762068AD
:20E9A000C0698007204602D0FFF7C0FE04E000F05FF8204600F05DF8257620680169C9434C
:20E9C000C90617D4C168C943C90613D46FF010010161082020762068C06910F4407F204628
:20E9E00002D0FFF7A3FE04E000F042F8204600F040F8257620680169C943C90708D1C168A7
:20EA0000C943C90704D1891E0161204600F032F820680169C943090609D4C168C94309068E
:20EA200005D46FF0800101612046FFF7D0FD20680169C943490609D4C168C943490605D40B
:20EA40006FF040010161204600F032F820680169C94389060BD4C168C943890607D46FF0CA
:20EA6000200101612046BDE87040FFF7B1BD70BD704770470B4A0168914209D10A4A002179
:20EA8000116051609160D160084A11709170D1700068B0F1804F04D104480C380168491C12
:20EAA0000160704700040040A0300020E8020020704710B504460068416921F0C0014161B4
:20EAC000206B08B1FDF718FC606B08B1FDF714FC012084F83900002010BD704790F8390027
:20EAE0007047000038B5044600680168C26811F0010F02F4807204D01AB1E16B41F0010116
:20EB0000E1630168C1F34002416901F0010122B119B1E26B42F00402E2630268C2F38002AD
:20EB200022B119B1E26B42F00202E2630268C2F3C00222B119B1E16B41F00801E1630168BF
:20EB4000C068C1F3401100F0200019B110B1204602F056FA20680168C068C1F3C01100F0B7
:20EB6000800019B110B1204602F056FB21680868CA68C0F3801002F04002012570B16AB1DD
:20EB8000CA68204622F04002CA6094F83910322911D080F8395000BF00F0B4F9E06B00287E
:20EBA00008D0206801684068009084F839502046FFF793FF38BD222180F83910ECE770B570
:20EBC000040004D094F83900002510B106E0012070BD84F83850204600F020F8022084F86E
:20EBE00039002068C16821F40051C160204602F05BFA2068016921F490410161206841698B
:20EC000021F02A0141612068C16841F40051C160E563012084F83900002070BD10B5006826
:20EC20001D4986B0884235D11C48816941F004018161816901F004010491C16941F40031FD
:20EC4000C161C16901F400310491816941F0010181618069124C00F001000490042000902E
:20EC600002200190012002900320039069462046FDF710FE082000900020019069462046E3
:20EC8000FDF708FE2620FDF76EFF032211462620FDF774FF06B010BD004400400010024051
:20ECA000000801402DE9F047044690F8390099460D46012801D0122858D12DB322B394F8E3
:20ECC0003800012852D0012684F838600027E76394F8390012281AD05FF0220084F83900F6
:20ECE000A285E2854FF48058E08D4B46401EE085A0684FF0000240454FF02001204616D12F
:20ED000002F0BDFAB0B904E00120BDE8F0873220E4E7206900282068406803D0C1B225F85F
