:020000040800F2
:20840000483A0020498500080B0501087900010809050108F1890008513A0108000000001C
:20842000000000000000000000000000A5120108EFBF000800000000A9080108751D010871
:20844000638500087508010863850008638500086385000863850008638500086BC10008C2
:2084600071C10008638500086385000863850008B9BF0008C5BF0008638500086385000806
:20848000638500086385000863850008638500089D35010863850008638500086385000871
:2084A00063850008638500086385000863850008311E0108DD1E01086385000863850008C0
:2084C00063850008638500086385000863850008638500086385000891240108638500084E
:2084E0004DC1000863850008638500086385000863850008638500086385000863850008D6
:20850000638500086385000863850008638500086385000863850008E91E010863850008BB
:2085200063850008638500086385000863850008DFF810D000F046F800480047DD4F0108D2
:20854000AFF30080483A00200648804706480047FEE7FEE7FEE7FEE7FEE7FEE7FEE7FEE785
:20856000FEE7FEE7E51D01083185000840EA01039B0703D009E008C9121F08C0042AFAD218
:2085800003E011F8013B00F8013B521EF9D27047D2B201E000F8012B491EFBD270470022F7
:2085A000F6E710B513460A4604461946FFF7F0FF204610BD421C10F8011B0029FBD1801A9E
:2085C00070470000064C074D06E0E06840F0010394E8070098471034AC42F6D3FFF7ACFFDE
:2085E000106C0108306C010870B58C1810F8015B15F0070301D110F8013B2A1106D110F8E5
:20860000012B03E010F8016B01F8016B5B1EF9D12B0705D40023521E0DD401F8013BFAE79A
:2086200010F8013BCB1A921C03E013F8015B01F8015B521EF9D5A142D8D3002070BD70B586
:20864000044600688168C943C9071BD1816821F00101816005F0F2F905460EE005F0EEF9E5
:20866000401B022809D9A06A40F01000A062E06A40F00100E062012070BD20688068C043C9
:20868000C007EBD0002070BDF8B500260446009600688168C943C90727D0816841F0010118
:2086A0008160134813490068B0FBF1F000E0401E00900028FBD105F0C1F9054610E005F08D
:2086C000BDF9401B02280BD9A06A40F01000A062E06A40F00100E06284F824600120F8BD9C
:2086E00020688068C043C007E9D10020F8BD00008400002040420F0010B500F093F83020EC
:2087000000F0A4F8942000F0A1F8D12000F09EF8202000F09BF80B2000F0B2F8812000F000
:2087200095F83F2000F0ACF8032000F0A9F8F02000F08CF8102000F0A3F8CA2000F086F86E
:20874000002000F09DF8872000F09AF8202000F097F8BC2000F07AF8002000F091F8A620EF
:2087600000F074F8762000F071F8752000F06EF8002000F085F8282000F082F8152000F05F
:2087800065F8002000F07CF8FF2000F079F8312000F05CF8322000F059F8002000F070F8D8
:2087A000022000F06DF8012000F06AF8512000F04DF8FB2000F064F8402000F047F8F4201F
:2087C00000F044F8002000F05BF8002000F058F8002000F055F8002000F052F8002000F0E3
:2087E0004FF8002000F04CF8002000F049F8002000F046F8F02000F029F8152000F040F8C1
:20880000152000F03DF8152000F03AF8152000F037F8302000F01AF8BDE81040AF2000F04D
:2088200015B8000010B5084C0020C4F8AC01322004F5D6740BF0D4FA01202060BDE81040D5
:2088400032200BF0CDBA00000000224231B509490020C1F8A801084CC4F8BC010A23012209
:208860006946064804F5DE7406F070FB0120206038BD000000002242000021426831002039
:2088800031B509480124C0F8A841084D0020C5F8BC010A2322466946054805F5DE7506F018
:2088A00055FB2C6038BD000000002242000021426831002000F0C4B800F0D2BD012000F06B
:2088C0005BBF012000F0F8BF012001F01BB90000114810B5008800EB001101EB40110F489A
:2088E00000EB8101887BCA7B00EBC00303EB001002EB8000A0F58060C33808D08721084A68
:2089000000201318401C59700428FADB10BD486907F012FBC1B2F2E78800002060030020ED
:20892000A00F002070B5274E04464FF0000549B114E001221021304605F07AF864200BF0A2
:2089400065FA6D1CA542F4D334E001221021304605F06EF864200BF059FA6D1CA542F4D33F
:2089600000221021304605F063F864200BF038FA002508E001221021304605F059F864208C
:208980000BF044FA6D1CA542F4D300221021304605F04EF864200BF023FA002508E0012297
:2089A0001021304605F044F864200BF02FFA6D1CA542F4D33046BDE870400022102105F0ED
:2089C00037B800000010014030B5034600200146012423FA01F2D20705D0C1F1070504FA23
:2089E00005F20243D0B2491CC9B20729F1D330BDFEE70000084882B0416941F040014161D3
:208A00004069074900F04000009004480860084602B004F059BA000000100240003002401E
:208A20000403002008B1034900E00349034A1160704700000DB0000805B000085403002070
:208A400038B501F023FF69460E4801F0E9FA002412E01DF80400C12809D00B480078A040A1
:208A600000F0080018B194210848015502E0002106480155601CC4B2042CEADB00F04CFE12
:208A800038BD000012513A8092000020A10F002010B509F0D3F919200BF0A2F910BD00001C
:208AA0002DE9F0470746884691461C462146FB4801F094FB0A200BF0A9F92146202002F08B
:208AC00019F80A200BF0A2F938042246002101F04BFD0A200BF09AF922460021084601F047
:208AE00043FD0A200BF092F922460021084601F03BFD0A200BF08AF922460021084601F016
:208B000033FD0A200BF082F922460021084601F02BFD0A200BF07AF922460021084601F035
:208B200023FD0A200BF072F934B1012C08D0022C0BD0032C13D10DE00020D94908600EE0FA
:208B40000020D749091F086009E00020D4490839086004E00020D2490C39086000BF00BF2C
:208B600002200BF053F900253FE034B1012C08D0022C0BD0032C13D10DE00020C9490860BB
:208B80000EE00020C749091F086009E00020C5490839086004E00020C2490C39086000BFEC
:208BA00000BF02200BF032F934B1012C08D0022C0BD0032C13D10DE00120BA4908600EE041
:208BC0000120B849091F086009E00120B5490839086004E00120B3490C39086000BF00BF06
:208BE00002200BF013F9681CC5B2202DBDDB08EBC94600257EE006F00100D8B134B1012C55
:208C000008D0022C0BD0032C13D10DE00120A44908600EE00120A249091F086009E0012069
:208C20009F490839086004E001209D490C39086000BF1BE034B1012C08D0022C0BD0032C2F
:208C400013D10DE00020964908600EE000209449091F086009E0002091490839086004E0F1
:208C600000208F490C39086000BF00BF02200BF0CDF834B1012C08D0022C0BD0032C13D1E9
:208C80000DE00020874908600EE000208549091F086009E0002083490839086004E00020A1
:208CA00080490C39086000BF00BF02200BF0AEF834B1012C08D0022C0BD0032C13D10DE00A
:208CC0000120784908600EE001207649091F086009E0012073490839086004E001207149BE
:208CE0000C39086000BF00BF02200BF08FF87608681CC5B2202DFFF67EAF34B1012C08D0D3
:208D0000022C0BD0032C13D10DE00020654908600EE000206349091F086009E00020614917
:208D20000839086004E000205E490C39086000BF00BF02200BF06AF834B1012C08D0022C1D
:208D40000BD0032C13D10DE00120564908600EE001205449091F086009E0012051490839EF
:208D6000086004E001204F490C39086000BF00BF02200BF04BF834B1012C08D0022C0BD070
:208D8000032C13D10DE00020464908600EE000204449091F086009E0002042490839086054
:208DA00004E000203F490C39086000BF00BF02200BF02CF834B1012C08D0022C0BD0032C99
:208DC00013D10DE00120374908600EE001203549091F086009E0012032490839086004E08A
:208DE000012030490C39086000BF00BF02200BF00DF80A200BF00AF822460021084601F09D
:208E0000B3FB0A200BF002F80226002585E006F00100D8B134B1012C08D0022C0BD0032C31
:208E200013D10DE001201E4908600EE001201C49091F086009E0012019490839086004E074
:208E4000012017490C39086000BF1BE034B1012C08D0022C0BD0032C13D10DE000201049BE
:208E600008600EE000200E49091F086009E000200B490839086004E0002009490C3908608C
:208E800000BF00BF02200AF0C1FF6CB1012C0FD0022C12D0032C1AD114E0000012513AB0E4
:208EA000A4012242988121420020914908600EE000208F49091F086009E000208C49083936
:208EC000086004E000208A490C39086000BF00BF02200AF09BFF34B1012C08D0022C0BD07F
:208EE000032C13D10DE00120814908600EE001207F49091F086009E001207D49083908603F
:208F000004E001207A490C39086000BF00BF02200AF07CFF7608681CC5B2202DFFF677AFE6
:208F200034B1012C08D0022C0BD0032C13D10DE00020704908600EE000206E49091F0860A8
:208F400009E000206B490839086004E0002069490C39086000BF00BF02200AF057FF002533
:208F60003FE034B1012C08D0022C0BD0032C13D10DE000205E4908600EE000205C49091FD5
:208F8000086009E000205A490839086004E0002057490C39086000BF00BF02200AF036FFF4
:208FA00034B1012C08D0022C0BD0032C13D10DE001204F4908600EE001204D49091F086068
:208FC00009E001204A490839086004E0012048490C39086000BF00BF02200AF017FF681CD4
:208FE000C5B2202DBDDB34B1012C08D0022C0BD0032C13D10DE000203D4908600EE0002006
:209000003B49091F086009E0002039490839086004E0002036490C39086000BF00BF022038
:209020000AF0F4FE34B1012C08D0022C0BD0032C13D10DE001202E4908600EE001202C49CD
:20904000091F086009E0012029490839086004E0012027490C39086000BF00BF02200AF09F
:20906000D5FE34B1012C08D0022C0BD0032C13D10DE000201E4908600EE000201C49091FA0
:20908000086009E000201A490839086004E0002017490C39086000BF00BF02200AF0B6FEF4
:2090A00034B1012C08D0022C0BD0032C13D10DE001200F4908600EE001200D49091F0860E7
:2090C00009E001200A490839086004E0012008490C39086000BF00BF02200AF097FE00F068
:2090E000ABFA01200BF0EAFEFFF7D2FCBDE8F08798812142A40122422DE9F047CCB0D14880
:20910000807800F0070ABAF1000F06D0BAF1020F06D0BAF1040F09D105E040F2A17609E085
:2091200040F6427606E040F6723603E000204CB0BDE8F08700BF40F2DE3070434FF47A7182
:20914000B0FBF1F01FFA80F840F2F2307043B0FBF1F01FFA80F900246EE1BB480078A040FF
:2091600000F00800002876D001F090FB00250AE13F204AA9085500204BA9085585F0040262
:209180004BA8005D80F0200123465046FFF788FCAE4850F8240021A941F8240085F0040271
:2091A0004AA8005D80F0200123465046FFF778FCA64850F8240025A941F8240025A850F8CC
:2091C0002400B0427ED921A850F82400B04279D22EE04AA9095D4BAA125D881800EBD07119
:2091E000C1F3470149AA115585F0040249A8005D80F0200123465046FFF752FC934850F85A
:209200002400B0420AD249A8005D4BA908558F4850F8240021A941F8240009E049A8005D1C
:209220004AA90855894850F8240025A941F824004BA8015D4AA8005D401E8142C9DB21AA46
:2092400052F82420901B25AA52F82420911B002902DB0A4601E0ECE04A42002801DB0346F0
:2092600000E043429A421DDD21A850F8240029A901EB441141F825004BA8005D11A901EB17
:20928000041121F8150021A951F82410881B002801DB014600E0414201AA02EB041222F82B
:2092A00015106EE025A850F8240029A901EB441141F825004AA8005D11A901EB041121F86E
:2092C000150000E00EE025A951F82410881B002801DB014600E0414201AA02EB041222F847
:2092E00015104EE021AA52F82420901B25AA52F82420911B002901DB0A4600E04A42002825
:2093000001DB034600E043429A421DDD21A850F8240029A901EB441141F825004BA8005DF7
:2093200011A901EB041121F8150021A951F82410881B002801DB014600E0414201AA02EB14
:20934000041222F815101CE025A850F8240029A901EB441141F825004AA8005D11A901EB1D
:20936000041121F8150025A951F82410881B002801DB014600E0414201AA02EB041222F846
:209380001510681CC5B2082DFFF6F2AE002701250EE001A800EB041030F8150001A901EB2D
:2093A000041131F81710884200DA2F46681CC5B2082DEEDB29A800EB441050F8270023494B
:2093C00041F8240029A800EB441050F8270040452AD929A800EB441050F82700484523D228
:2093E00001201B49087011A800EB041010F8170080F020001749085587F00400C006000EFD
:2094000015490855114850F8240000034FF47A71B0FBF1F00D4941F8240020460BF03AFBC6
:2094200000210E48015502E090210C48015500F073F9601CC0B20446042CFFF68EAE00BF6E
:2094400075E60000E0230020920000204832002028030020290300202D030020A10F00208B
:2094600010B500202149C8608860486008600BF0BFFAFFF741FE0AF0CFFF07F017FA48B1CB
:2094800001F004FA012001F051FA01F003FC002000F038FB07F00AFA20B101F01FFA002057
:2094A00000F06AF907F002FA28B1002001F03EFA002000F001FA07F0F9F998B10C4800882B
:2094C00000EB001101EB40100A4901EB800090F84400C0F3C01028B1022001F027FA022017
:2094E00000F0EAF900F018F910BD000048320020880000206003002070B504464B4800689C
:2095000020F07F4040F08840484908600846406820F0FF0040F044004860080408610025D0
:2095200046E020784006000E207060784006000E6070A0784006000EA070E0784006000E65
:20954000E0703B4800784FF4F00101EAC0403949086002200AF05AFC35480078782101EACC
:20956000C0003449086002200AF050FC2F48806800F4007010B12078401C20702B4880687B
:2095800000F4807010B16078401C60702748806800F0800010B1A078401CA07023488068C3
:2095A00000F0400010B1E078401CE070681CC5B2082DB6DB1E4800784FF4F00101EAC040F8
:2095C0001C49086002200AF021FC19480078782101EAC0001749086002200AF017FC144815
:2095E00000784FF4F00101EAC0401249086002200AF00CFC0E480078782101EAC0000D4985
:20960000086002200AF002FC0848006820F07F4040F08850054908600846406820F0FF007E
:2096200040F0110048608814086170BD0010014092000020100C014010B508F035FC14208D
:209640000AF0CEFB10BD000070B5044600252FE004F0800040B12D4800784FF4707101EA76
:2096600080102B49086107E0284800784FF0707101EA80502649086102200AF0C7FB2348B2
:2096800000784FF4F00101EAC0402249086002200AF0BCFB1D480078782101EAC0001D4906
:2096A000086002200AF0B2FB6006040E681CC5B2082DCDDB154800784FF4F00101EAC04035
:2096C0001449086002200AF0A1FB10480078782101EAC0000F49086002200AF081FB0B484E
:2096E00000784FF4F00101EAC0400A49086002200AF08CFB05480078782101EAC00005491E
:20970000086002200AF082FB70BD00009200002000100140100C014010B5144800784FF0E3
:20972000707101EA805012490861104800784FF4F00101EAC0400F490860002008F0B6FA52
:209740001E200AF042FB09480078FFF73DF900F0F004204608F0AAFA14200AF036FB00203A
:2097600008F0A4FA0A200AF03BFB10BD9200002000100140100C01402DE9FC410646002706
:20978000002001900090002E51D16946454800F047FC64200AF03AFB4FF4006000F0A4FEE1
:2097A00001A8FFF7A9FE64200AF030FB00243CE044F4406000F098FE01A8FFF79DFE0025BD
:2097C00013E001A8405D3849095D88420BD03748405D40B936480078A84000F0080010B118
:2097E000942132484155681CC5B2042DE9DB9DF804002D49095D884215D09DF805002A4983
:20980000095D88420FD09DF806002749095D884209D09DF807002449095D884203D0FFF723
:209820007BFFBDE8FC81601CC4B2402CC0DB012E35D1002409E01E480078A04000F008009B
:2098400008B1274603E0601CC4B2042CF3DB00BF6946144800F0E4FB64200AF0D7FA4FF4E4
:20986000006000F041FE01A8FFF746FE64200AF0CDFA00240CE044F4406000F035FE01A87D
:20988000FFF73AFE01A8C05D0A490855601CC4B2402CF0DB40200CF03FF8FFF73DFF00BF77
:2098A000BFE7000012513A84E0240020A10F002092000020E01300202DE9F0418AB007465A
:2098C0004FF0000800200190002F66D1002562E02946854800F082FC2946002001F00AF996
:2098E000002622E0294602A800F090FA002418E002A800EBC500005D022101FB06417B4AAF
:20990000515C88420BD07A48405D40B979480078A84000F0080010B1942175484155601C3F
:20992000C4B2082CE4DB301DC6B2102EDADB7248405D6E4981F834007048405D81F8360047
:209940002946694800F04AFC2946142001F0D2F814261CE0294602A800F058FA002412E0AC
:2099600002A800EBC500005D022101FB06415F4A515C884205D05E48405D10B994215C4870
:209980004155601CC4B2082CEADB301DC6B21C2EE0DB681CC5B2042D9ADB012F4BD1002669
:2099A00009E054480078B04000F0080008B1B04603E0701CC6B2042EF3DB00BF01A94A4831
:2099C00000F02EFB002001F03DF8002621E002A800F060F900250AE002A800EBC800405D05
:2099E000022101FB0651464A5054681CC5B2082DF2DB102E0BDA002407E0002130194000E8
:209A0000401C3F4A1154601CC4B2042CF5DB301DC6B2202EDBDB3A48807F00F0010038B1E6
:209A20003748807F20F00100354988770120C87740200BF08DFF022F53D12C48007C40F05E
:209A400003002A49087401A9274800F0E9FA082000F0F8FF02A800F01DF900243FE0002501
:209A600017E002A800EBC500015D04F110001F4A105C81420BD01E48405D40B91D480078E6
:209A8000A84000F0080010B1942119484155681CC5B2042DE5DB02A8015D04F11000134A23
:209AA000105C814219D004A8015D04F11000105C814212D006A8015D04F11000105C81422E
:209AC0000BD008A8015D04F11000105C814204D0FFF722FE0AB0BDE8F081601CC4B2082C89
:209AE000BDDB00BFF6E7000012513A80E0230020A10F002092000020290300202D030020D4
:209B0000E01300202DE9F0478AB007460020019082465B4800884FF4A02101EB4049202100
:209B200002A8FEF73CFD002F6AD101A9554800F077FA002000F086FFB8465EE04FF40062C5
:209B40005149484606F006FF00254DE002A800F0A1F8002444E0002618E002A800EBC6009C
:209B6000005D022101FB0541474A515C88420BD04648805D40B946480078B04000F00800EE
:209B800010B1932141488155701CC6B2042EE4DB02A8005D022101FB05413B4A515C884294
:209BA0001CD004A8005D022101FB0541515C884214D006A8005D022101FB0541515C884209
:209BC0000CD008A8005D022101FB0541515C884204D0FFF7A1FD0AB0BDE8F087601CC4B290
:209BE000082CB8DB281D85B2B5F5806FAEDB09F5006908F1010000F0FF08B8F1040F9DDB74
:209C0000012F3AD100250AE021480078A84000F0080010B105F0FF0A03E0681C85B2042DAB
:209C2000F2DB00BF00F032FE01A9164800F0F8F9002000F007FF00261DE0002512E002A895
:209C400000F028F8002409E002A800EBCA00005D04EB45010C4A5054601CC4B2082CF3DB08
:209C6000281D85B2B5F5806FE9DB4FF400600BF053FE701CC6B2042EDFDB00BFABE70000DB
:209C80008800002012513AC0E0130020A10F00209200002070B505465948006820F07F40E2
:209CA00040F08840564908600846406820F0FF0040F04400486008040861002461E0002684
:209CC0005BE0285D4010285505F10800005D411005F1080001550830005D411005F110000B
:209CE00001550830005D411005F118000155454800784FF4F00101EAC0404349086002208A
:209D00000AF084F83E48806800F4007010B1285D803028553A48806800F4807038B105F15B
:209D20000800005D8030C1B205F1080001553448806800F0800038B105F11000005D803077
:209D4000C1B205F1100001552D48806800F0400038B105F11800005D8030C1B205F1180022
:209D6000015528480078782101EAC0002649086002200AF04BF8701CC6B2082EA1DB601CF9
:209D8000C4B2082C9BDB1F4800784FF4F00101EAC0401D49086002200AF038F819480078B2
:209DA000782101EAC0001849086002200AF02EF8144800784FF4F00101EAC040124908609E
:209DC00002200AF023F80F480078782101EAC0000D49086002200AF019F80948006820F085
:209DE0007F4040F08850064908600846406820F0FF0040F0110048608814086170BD0000C5
:209E00000010014092000020100C01402DE9FC4106460C460020009001907F48006820F071
:209E20007F4040F088407C4908600846406820F0FF0040F0440048600804086100255AE049
:209E4000002754E006EBC400405D401006EBC401485534B1012C08D0022C0BD0032C13D1AC
:209E60000DE000206D4908600EE000206B49091F086009E0002069490839086004E00020FD
:209E800066490C39086000BF00BF022009F0BEFF614880684FF400712141084030B106EB4F
:209EA000C400405D803006EBC401485534B1012C08D0022C0BD0032C13D10DE0012057498A
:209EC00008600EE001205549091F086009E0012052490839086004E0012050490C39086044
:209EE00000BF00BF022009F091FF781CC7B2082FA8DB681CC5B2082DA2DB34B1012C08D0DB
:209F0000022C0BD0032C13D10DE00020434908600EE000204149091F086009E000203F496B
:209F20000839086004E000203C490C39086000BF00BF022009F06AFF34B1012C08D0022C28
:209F40000BD0032C13D10DE00120344908600EE001203249091F086009E001202F49083943
:209F6000086004E001202D490C39086000BF00BF022009F04BFF34B1012C08D0022C0BD07B
:209F8000032C13D10DE00020244908600EE000202249091F086009E00020204908390860A8
:209FA00004E000201D490C39086000BF00BF022009F02CFF34B1012C08D0022C0BD0032CA4
:209FC00013D10DE00120154908600EE001201349091F086009E0012010490839086004E0DE
:209FE00001200E490C39086000BF00BF022009F00DFF0948006820F07F4040F088500649B8
:20A0000008600846406820F0FF0040F01100486088140861BDE8FC810010014098812142F6
:20A0200070B506460C466A4800784FF4F00101EAC04068490860642009F0E8FE642009F01B
:20A04000E5FE63480078782101EAC00061490860642009F0DBFE00252EE006F0010040B133
:20A060005B4800784FF4707101EA80105A49086107E0574800784FF0707101EA80505649A2
:20A080000861022009F0C2FE514800784FF4F00101EAC0404F490860022009F0B7FE4C48E8
:20A0A0000078782101EAC0004A490860022009F0ADFE7608681C85B2202DCEDB46480068FE
:20A0C00020F07F4040F08840434908600846406820F0FF0040F0440048600804086100250A
:20A0E00046E020784006000E207060784006000E6070A0784006000EA070E0784006000E9A
:20A10000E0703548806800F4007010B12078401C20703148806800F4807010B16078401CA7
:20A1200060702D48806800F0800010B1A078401CA0702948806800F0400010B1E078401C3F
:20A14000E070234800784FF4F00101EAC04021490860022009F05AFE1D480078782101EA07
:20A16000C0001C490860022009F050FE681C85B2082DB6DB1848006820F07F4040F08850C9
:20A18000154908600846406820F0FF0040F01100486088140861002516E00D4800784FF4DB
:20A1A000F00101EAC0400B490860022009F02EFE07480078782101EAC000064908600220DC
:20A1C00009F024FE681C85B2B5F5007FE5DB70BD92000020100C0140001001402DE9F041EC
:20A1E00006460C46002734B1012C08D0022C0BD0032C13D10DE00020B84908600EE0002010
:20A20000B649091F086009E00020B4490839086004E00020B1490C39086000BF00BF642053
:20A2200009F0F4FD642009F0F1FD34B1012C08D0022C0BD0032C13D10DE00120A74908605D
:20A240000EE00120A549091F086009E00120A3490839086004E00120A0490C39086000BF78
:20A2600000BF642009F0D2FD00257EE006F00100D8B134B1012C08D0022C0BD0032C13D1CA
:20A280000DE00120964908600EE001209449091F086009E0012092490839086004E001205A
:20A2A0008F490C39086000BF1BE034B1012C08D0022C0BD0032C13D10DE000208849086013
:20A2C0000EE000208649091F086009E0002084490839086004E0002081490C39086000BF58
:20A2E00000BF022009F092FD34B1012C08D0022C0BD0032C13D10DE00020784908600EE0CB
:20A3000000207649091F086009E0002073490839086004E0002071490C39086000BF00BF77
:20A32000022009F073FD34B1012C08D0022C0BD0032C13D10DE00120684908600EE0012056
:20A340006649091F086009E0012064490839086004E0012061490C39086000BF00BF022062
:20A3600009F054FD7608681C85B2202DFFF67EAF5C48006820F07F4040F08840594908600E
:20A380000846406820F0FF0040F04400486008040861002547E07806070E5148803800688F
:20A3A00008B1781CC7B234B1012C08D0022C0BD0032C13D10DE00020484908600EE00020BD
:20A3C0004649091F086009E0002044490839086004E0002041490C39086000BF00BF022044
:20A3E00009F014FD34B1012C08D0022C0BD0032C13D10DE00120394908600EE001203749C6
:20A40000091F086009E0012034490839086004E0012032490C39086000BF00BF022009F0B6
:20A42000F5FC681C85B2082DB5DB2E48006820F07F4040F088502B4908600846406820F014
:20A44000FF0040F0110048608814086100253FE034B1012C08D0022C0BD0032C13D10DE0D8
:20A4600000201E4908600EE000201C49091F086009E0002019490839086004E00020174972
:20A480000C39086000BF00BF022009F0BFFC34B1012C08D0022C0BD0032C13D10DE00120A7
:20A4A0000E4908600EE001200C49091F086009E001200A490839086004E0012007490C3949
:20A4C000086000BF00BF022009F0A0FC681C85B2B5F5007FBCDBBDE8F081000098812142D2
:20A4E000A40122420010014070B50446002531E004F4006040B1194800784FF4707101EA2C
:20A5000080101749086107E0144800784FF0707101EA805012490861022009F077FC0F48A3
:20A5200000784FF4F00101EAC0400E490860022009F06CFC09480078782101EAC0000949E3
:20A540000860022009F062FC4FF6FF7000EA4404681CC5B20C2DCBDB70BD0000920000207B
:20A5600000100140100C01402DE9F04106460F46144600257EE006F00100D8B134B1012CD6
:20A5800008D0022C0BD0032C13D10DE00120BD4908600EE00120BB49091F086009E001209E
:20A5A000B8490839086004E00120B6490C39086000BF1BE034B1012C08D0022C0BD0032C64
:20A5C00013D10DE00020AF4908600EE00020AD49091F086009E00020AA490839086004E00D
:20A5E0000020A8490C39086000BF00BF022009F00DFC34B1012C08D0022C0BD0032C13D1F5
:20A600000DE00020A04908600EE000209E49091F086009E000209C490839086004E00020BC
:20A6200099490C39086000BF00BF022009F0EEFB34B1012C08D0022C0BD0032C13D10DE016
:20A640000120914908600EE001208F49091F086009E001208C490839086004E001208A49C0
:20A660000C39086000BF00BF022009F0CFFB7608681CC5B2202DFFF67EAF0A2009F0C6FBFE
:20A6800000257EE007F00100D8B134B1012C08D0022C0BD0032C13D10DE001207949086078
:20A6A0000EE001207749091F086009E0012075490839086004E0012072490C39086000BF9E
:20A6C0001BE034B1012C08D0022C0BD0032C13D10DE000206B4908600EE000206949091F68
:20A6E000086009E0002067490839086004E0002064490C39086000BF00BF022009F086FB18
:20A7000034B1012C08D0022C0BD0032C13D10DE000205D4908600EE000205B49091F0860D6
:20A7200009E0002058490839086004E0002056490C39086000BF00BF022009F067FB34B196
:20A74000012C08D0022C0BD0032C13D10DE001204D4908600EE001204B49091F086009E0B0
:20A76000012049490839086004E0012046490C39086000BF00BF022009F048FB7F08681C55
:20A78000C5B2202DFFF67EAF34B1012C08D0022C0BD0032C13D10DE000203B4908600EE0E6
:20A7A00000203949091F086009E0002036490839086004E0002034490C39086000BF00BF8A
:20A7C000022009F023FB34B1012C08D0022C0BD0032C13D10DE001202B4908600EE0012041
:20A7E0002949091F086009E0012027490839086004E0012024490C39086000BF00BF022075
:20A8000009F004FB34B1012C08D0022C0BD0032C13D10DE000201C4908600EE000201A49EF
:20A82000091F086009E0002017490839086004E0002015490C39086000BF00BF022009F0CE
:20A84000E5FA34B1012C08D0022C0BD0032C13D10DE001200C4908600EE001200A49091FBE
:20A86000086009E0012008490839086004E0012005490C39086000BF00BF022009F0C6FA13
:20A88000BDE8F081A40122429881214210B5002007F00CFA322009F098FA0D480078FEF79C
:20A8A00093F80409204607F001FA094800784FF4707101EA80100749086105480078782129
:20A8C00001EAC00004490860052009F089FA10BD9200002000100140100C01401CB5002059
:20A8E0000190009069460F48FFF79AFB642009F08DFA4FF41860FFF7F7FD01A8FEF7FCFD66
:20A90000642009F083FA002409E044F42060FFF7EBFD0549085DFEF797FE601CC4B2402CFF
:20A92000F3DB1CBD12513A84E0240020FEB5064600200090002E51D100254DE03C48C07F17
:20A9400000F0010028B13A48807F40F0010038498877002409E0374830F8140001126000C0
:20A96000401C334A1154601CC4B2102CF3DB29463148FFF733FC2946002000F0BBF800243A
:20A9800008E02B49022202FB0410294600F024FA201DC4B2102CF4DB2848405D244981F8F8
:20A9A00034002748405D81F8360029462248FFF715FC2946142000F09DF8142408E01C491B
:20A9C000022202FB0410294600F006FA201DC4B21C2CF4DB681CC5B2042DAFDB012E12D151
:20A9E000002404E0002001A90855601CC4B2082CF8DB69461048FFF713FB082000F022F8F2
:20AA000001A800F079F9022E10D10948007C40F003000749087469460748FFF701FB082036
:20AA200000F010F80248103000F066F9FEBD0000E02300203203002012513AB02903002079
:20AA40002D03002070B5054600242EE005F0010040B1254800784FF4707101EA801023492D
:20AA6000086107E0204800784FF0707101EA80501E490861022009F0C9F91B4800784FF400
:20AA8000F00101EAC0401A490860022009F0BEF915480078782101EAC0001549086002203C
:20AAA00009F0B4F96D10601CC4B20C2CCEDB002416E00D4800784FF4F00101EAC0400C4945
:20AAC0000860022009F0A2F907480078782101EAC00007490860022009F098F9601CC4B2F7
:20AAE000082CE6DB70BD00009200002000100140100C014070B506460C4600257EE006F098
:20AB00000100D8B134B1012C08D0022C0BD0032C13D10DE001205D4908600EE001205B49D6
:20AB2000091F086009E0012058490839086004E0012056490C39086000BF1BE034B1012C14
:20AB400008D0022C0BD0032C13D10DE000204F4908600EE000204D49091F086009E00020B7
:20AB60004A490839086004E0002048490C39086000BF00BF022009F049F934B1012C08D092
:20AB8000022C0BD0032C13D10DE00020404908600EE000203E49091F086009E000203C49E8
:20ABA0000839086004E0002039490C39086000BF00BF022009F02AF934B1012C08D0022CE5
:20ABC0000BD0032C13D10DE00120314908600EE001202F49091F086009E001202C490839C0
:20ABE000086004E001202A490C39086000BF00BF022009F00BF97610681CC5B20C2DFFF67C
:20AC00007EAF00253FE034B1012C08D0022C0BD0032C13D10DE000201D4908600EE00020D4
:20AC20001B49091F086009E0002019490839086004E0002016490C39086000BF00BF02205C
:20AC400009F0E4F834B1012C08D0022C0BD0032C13D10DE001200E4908600EE001200C49E8
:20AC6000091F086009E0012009490839086004E0012007490C39086000BF00BF022009F0A4
:20AC8000C5F8681CC5B2082DBDDB70BDA401224298812142F8B500200090144800884FF4F9
:20ACA000A02101EB404669461148FFF7B9F90020FFF7C8FE002516E04FF400620D49304649
:20ACC00005F048FE002407E00A49022202FB041000F012F8201D84B2B4F5806FF4DB06F5D7
:20ACE0000066681CC5B2042DE6DBF8BD8800002012513AF0E01300202DE9F041054600244E
:20AD000035E02E5D00272EE006F0010040B12F4800784FF4707101EA80102D49086107E022
:20AD20002A4800784FF0707101EA805028490861022009F06BF8254800784FF4F00101EAF2
:20AD4000C04024490860022009F060F81F480078782101EAC0001F490860022009F056F84F
:20AD60007610781CC7B2082FCEDB601CC4B2082CC7DB164800784FF4F00101EAC040154945
:20AD80000860022009F042F810480078782101EAC00010490860022009F022F80B48007821
:20ADA0004FF4F00101EAC0400A490860022009F02DF806480078782101EAC00005490860B9
:20ADC000022009F023F8BDE8F08100009200002000100140100C01402DE9F04106460C46E2
:20ADE00000258AE0775D4FF0000880E007F00100D8B134B1012C08D0022C0BD0032C13D1C2
:20AE00000DE001207D4908600EE001207B49091F086009E0012079490839086004E0012019
:20AE200076490C39086000BF1BE034B1012C08D0022C0BD0032C13D10DE000206F490860B9
:20AE40000EE000206D49091F086009E000206B490839086004E0002068490C39086000BF17
:20AE600000BF022008F0D2FF34B1012C08D0022C0BD0032C13D10DE00020614908600EE015
:20AE800000205F49091F086009E000205C490839086004E000205A490C39086000BF00BF31
:20AEA000022008F0B3FF34B1012C08D0022C0BD0032C13D10DE00120514908600EE00120A1
:20AEC0004F49091F086009E001204D490839086004E001204A490C39086000BF00BF02201C
:20AEE00008F094FF7F1008F1010000F0FF08B8F1080FFFF67BAF681CC5B2082DFFF672AF22
:20AF000034B1012C08D0022C0BD0032C13D10DE000203B4908600EE000203949091F086012
:20AF200009E0002036490839086004E0002034490C39086000BF00BF022008F067FF34B1CF
:20AF4000012C08D0022C0BD0032C13D10DE001202B4908600EE001202949091F086009E0EC
:20AF6000012027490839086004E0012024490C39086000BF00BF022008F032FF34B1012C9D
:20AF800008D0022C0BD0032C13D10DE000201C4908600EE000201A49091F086009E00020D9
:20AFA00017490839086004E0002015490C39086000BF00BF022008F029FF34B1012C08D0CF
:20AFC000022C0BD0032C13D10DE001200C4908600EE001200A49091F086009E0012008493D
:20AFE0000839086004E0012005490C39086000BF00BF022008F00AFFBDE8F081A4012242E8
:20B000009881214210B508F0DFFE10BD10B5032008F0FCFE10BD000010B509F02DFA00249D
:20B0200004E000211B480155601CC4B2042CF8DB00F032F8002000F0D9FB00F065FA00F020
:20B0400025FA002000F0D2FB102000F04FFA00F01DFA1048401E407858B10E48401E807861
:20B0600038B10C48401EC07818B10A48401E007960B909F0D1F9002000F0B8FB00F026FD59
:20B0800009F0B4FA00F08EFA00F000FA00F0FEF910BD0000A10F002010B504201149087068
:20B0A00018E0012000F0A2FB00F02EFA0E48407840B10D48807828B10B48C07810B10A480F
:20B0C000007900B90AE000F0E1F906480078801C04490870034800780A28E2DB00BF00F002
:20B0E000D5F910BD21030020A00F00202DE9F04705460E4617464FF0A5084FF00009A94636
:20B1000000F090FCDD4800784FF4F00101EAC040DB49086000242FE008F0010040B1D7482F
:20B1200000784FF4707101EA8010D649086107E0D24800784FF0707101EA8050D149086199
:20B14000D14800688047CD480078782101EAC000CB490860CC4800688047C84800784FF44C
:20B16000F00101EAC040C64908604FEA5808C64800688047601CC4B2082CCDDBBF48007859
:20B180004FF4707101EA8010BE490861BE4800688047BA480078782101EAC000B849086044
:20B1A000B94800688047B54800784FF4F00101EAC040B3490860B44800688047AF480078CD
:20B1C000782101EAC000AE490860AF4800688047AA4800784FF4F00101EAC040A8490860C4
:20B1E000A94800688047A5480078782101EAC000A3490860A44800688047A04800784FF474
:20B20000F00101EAC0409E4908609F48006880479A480078782101EAC000994908609A4823
:20B2200000688047954800784FF4F00101EAC0409349086094480068804790480078782133
:20B2400001EAC0008E4908608F48006880478B4800784FF4F00101EAC040894908608A4888
:20B260000068804700242EE007F0010040B1834800784FF4707101EA80108249086107E087
:20B280007E4800784FF0707101EA80507D4908617D480068804779480078782101EAC000F5
:20B2A00077490860784800688047744800784FF4F00101EAC040724908607F107248006850
:20B2C0008047601CC4B2102CCEDB00242EE006F0010040B1694800784FF4707101EA8010EE
:20B2E0006849086107E0654800784FF0707101EA8050644908616448006880475F4800783D
:20B30000782101EAC0005E4908605F48006880475A4800784FF4F00101EAC04058490860C2
:20B320007610594800688047601CC4B2062CCEDB00242FE009F0010040B1504800784FF479
:20B34000707101EA80104F49086107E04B4800784FF0707101EA80504A4908614A480068CD
:20B36000804746480078782101EAC00044490860454800688047414800784FF4F00101EAEB
:20B38000C0403F4908604FEA69093F4800688047601CC4B2082CCDDB85EA251585EAA505CC
:20B3A00085EA650505F0010040B1344800784FF4707101EA80103349086107E02F4800787F
:20B3C0004FF0707101EA80502E4908612E48006880472A480078782101EAC0002849086006
:20B3E000294800688047254800784FF4F00101EAC040234908602448006880471F4800785B
:20B400004FF4707101EA80101E4908611E4800688047002416E019480078782101EAC000F1
:20B4200017490860184800688047144800784FF4F00101EAC0401249086013480068804775
:20B44000601CC4B2032CE6DB0C480078782101EAC0000B4908600C480068804707480078F4
:20B460004FF4F00101EAC0400549086006480068804700F005FBBDE8F087000092000020BC
:20B48000100C0140001001402403002010B5144800784FF4F00101EAC040124908601048E4
:20B4A00000784FF0707101EA80500F490861002006F0FCFB1E2008F088FC09480078FDF7F4
:20B4C00083FA00F0F004204606F0F0FB142008F07CFC002006F0EAFB192008F081FC10BDAA
:20B4E00092000020100C01400010014010B50446062008F075FC002221461046FFF7F6FD86
:20B500000F2008F06DFC10BD1CB54FF4004220210020FFF7EBFD01A800F07CF8684600F08E
:20B5200079F8002417E001A8005D87280ED11DF8040001280AD11A48005D18B11848005D89
:20B54000012806D100211648015502E0982114480155601CC4B2042CE5DB9DF8040087289F
:20B5600003D19DF80000012819D09DF80500872803D19DF80100012811D09DF80600872849
:20B5800003D19DF80200012809D09DF80700872803D19DF80300012801D0FFF777FF1CBD48
:20B5A000A10F002038B5002202211046FFF79EFD002527E0684600F02DF800240BE01DF88F
:20B5C0000400552805D01248005D10B9932110480155601C84B2042CF1DB9DF80000552873
:20B5E0000ED09DF8010055280AD09DF80200552806D09DF80300552802D0FFF747FF38BD7E
:20B60000681C85B2B5F5006FD4DB00BFF7E70000A10F002070B5044600F004FA052008F0C0
:20B62000F5FB6E48006820F07F4040F088406B4908600846406820F0FF0040F044004860F8
:20B6400008040861052008F0E1FB002542E0207840102070607840106070A0784010A0704D
:20B66000E0784010E0705E480078782101EAC0005C4908605C48006880475848806800F414
:20B68000007010B12078803020705448806800F4807010B16078803060705048806800F0B0
:20B6A000800010B1A0788030A0704C48806800F0400010B1E0788030E070494800784FF460
:20B6C000F00101EAC04047490860474800688047681CC5B2082DBADB4348006880474048D1
:20B6E0000078782101EAC0003E4908603E48006880473B4800784FF4F00101EAC04039494E
:20B7000008603948006880473448006820F07F4040F08850314908600846406820F0FF006F
:20B7200040F011004860881408612D4800784FF0707101EA8050294908612B4800688047D6
:20B7400027480078782101EAC00026490860264800688047224800784FF4F00101EAC04049
:20B76000204908602048006880471D480078782101EAC0001B4908601B4800688047184882
:20B7800000784FF4F00101EAC0401649086016480068804712480078782101EAC00011494E
:20B7A00008601148006880470D4800784FF4F00101EAC0400B4908600B480068804708481F
:20B7C0000078782101EAC0000649086006480068804700F055F9002070BD0000001001409D
:20B7E00092000020100C0140240300202DE9F0410646884800784FF4F00101EAC04086492A
:20B800000860844800784FF0707101EA805083490861642008F0FAFA002006F047FA322053
:20B8200008F0D3FA7B480078FDF7CEF80709384606F03CFA7A48007808F0D2FA7548007861
:20B84000782101EAC000744908600A2008F0DEFA002417E06F4800784FF0707101EA805060
:20B860006E4908610A2008F0D1FA6A4800784FF4707101EA8010694908610A2008F0C6FAF5
:20B88000601CC4B20D2CE5DB0A2008F0BFFA002416E0604800784FF4F00101EAC0405E49E2
:20B8A00008600A2008F0B2FA5A480078782101EAC000594908600A2008F0A8FA601CC4B234
:20B8C0000D2CE6DB0A2008F0A1FA002417E0514800784FF0707101EA8050504908610A207E
:20B8E00008F094FA4B4800784FF4707101EA80104A4908610A2008F089FA601CC4B20D2C4C
:20B90000E5DB1EB90A2008F081FA02E00A2008F067FA404800784FF4F00101EAC0403E49E8
:20B9200008604BF25A15002431E005F4004040B1384800784FF4707101EA80103749086114
:20B9400007E0344800784FF0707101EA8050334908610A2008F05AFA2E480078782101EA64
:20B96000C0002D4908600A2008F050FA294800784FF4F00101EAC040274908604FF6FF7029
:20B9800000EA45050A2008F041FA601CC4B2102CCBDB0A2008F03AFA4AF21B55002431E00B
:20B9A00005F4004040B11B4800784FF4707101EA80101A49086107E0164800784FF070713A
:20B9C00001EA8050154908610A2008F01FFA11480078782101EAC0000F4908600A2008F0B3
:20B9E00015FA0C4800784FF4F00101EAC0400A4908604FF6FF7000EA45050A2008F006FA88
:20BA0000601CC4B2102CCBDB1E2008F0E9F9BDE8F081000092000020100C014000100140C4
:20BA20002103002010B5134800784FF4707101EA8010114908610F480078782101EAC000B5
:20BA40000E490860052008F0E1F90A4800784FF0707101EA805008490861052008F0D6F9E5
:20BA6000044800784FF4F00101EAC0400349086010BD00009200002000100140100C014002
:20BA800010B50F4800784FF0707101EA80500D4908610B480078782101EAC0000A490860AE
:20BAA000052008F0B3F9064800784FF4707101EA801004490861052008F0A8F910BD000017
:20BAC0009200002000100140100C014070B55525002204212846FFF709FB0A2008F096F907
:20BAE0000A2008F093F90A2008F090F9012407E0284600F00BF80A2008F088F9601C84B22B
:20BB0000B4F5006FF4DB002070BD000070B504462546FFF787FF744800784FF4F00101EA48
:20BB2000C0407249086000262EE005F0010040B16D4800784FF4707101EA80106C490861DD
:20BB400007E0694800784FF0707101EA80506849086168480068804763480078782101EA5A
:20BB6000C000624908606348006880475E4800784FF4F00101EAC0405C4908606D105D48AC
:20BB800000688047701CC6B2082ECEDB84EA241484EAA40484EA640404F0010040B1524881
:20BBA00000784FF4707101EA80105149086107E04D4800784FF0707101EA80504C4908619E
:20BBC0004C480068804748480078782101EAC00046490860474800688047434800784FF45B
:20BBE000F00101EAC040414908604248006880473F48006820F07F4040F088403C4908601B
:20BC00000846406820F0FF0040F0440048600804086138480068804733480078782101EA68
:20BC2000C000324908603348006880472E4800784FF4F00101EAC0402C4908602D480068F0
:20BC400080472B48006820F07F4040F08850284908600846406820F0FF0040F011004860A4
:20BC600088140861204800784FF0707101EA80501F4908611F48006880471B480078782129
:20BC800001EAC000194908601A4800688047164800784FF4F00101EAC04014490860154887
:20BCA0000068804710480078782101EAC0000F4908601048006880470B4800784FF4F001FB
:20BCC00001EAC040094908600A480068804706480078782101EAC0000449086005480068CA
:20BCE0008047FFF7CDFE70BD92000020100C0140001001402403002000207047002070473A
:20BD00000020704770B50024064E07E0155D4540EDB2641C56F8255085EA10209C42F5D3AA
:20BD2000484070BD586101082DE9F84F364D4FF00009DFF8D8B02878697800EB0120A97857
:20BD400000EB0140E97800EB016A31480078A52802D100202E4908702E48FCF72BFCC7B257
:20BD600039462C4809F018FD04462B48008800EB001101EB4010294901EB8000C07B2649BD
:20BD8000098801EB011202EB4111244A02EB8101897B01EBC10202EB011100EB81061E496C
:20BDA00009884FF42F0202EB414101EB0B000422694604F0CFFD9DF8030000069DF802103E
:20BDC00040EA01409DF8011040EA01209DF8001040EA0108BAF1D70F0CD0B44202D00CB13D
:20BDE0004FF00109B44205D10D480068804501D04FF00109B9F1000F04D0A520044908707B
:20BE000001F0DEFEBDE8F88FF87F0008F87B0100F84F0020C0FF01088800002060030020DC
:20BE2000F8FF010810B52F48008800EB80002E4B53F830002B4B1B8803EB83032A4C04EBED
:20BE4000C3035B681844274B1B8803EB830304EBC3039B681844234B1B8803EB830304EBEC
:20BE6000C303DB68C2181F48008800EB001303EB40101E4B03EB800090F8440000F0010020
:20BE800068B11848008800EB001303EB4010174B03EB8000806F904201D8012010BD0021EC
:20BEA0001CE01048008800EB80000F4B03EBC00050F821000E4B98420CD80A48008800EBEE
:20BEC0008000094B03EBC000103050F82100084B984201D90120E1E7481CC1B20429E0DB88
:20BEE0000020DBE788000020B40F0020600300203F420F00F0B52B48008800EB001101EB3A
:20BF00004011294800EB810090F80EE0B0F85CC0B0F85E70B0F86020B0F86260B0F8543085
:20BF2000B0F85650B0F85810B0F85A40BEF10A0F18D00CF0FF00FFB200EB0720D2B200EB84
:20BF40000240DAB2EBB202EB0322C9B202EB014100EB066001EB0461421C01D088421ED928
:20BF60008920F0BD3F04002017EB0C0740EB000CC71942EB0C02C71942EB06464FEA0542C8
:20BF8000D21840EB000583186941C01841EB04426FEA07013143E3D0C01BB241E0D30020CF
:20BFA000F0BD0000880000206003002010B505F0C1FE05F0ABFE10BD014801F015B90000BD
:20BFC00058320020014801F00FB900009032002010B5046863604368102B036803D09960C2
:20BFE0000068C26010BD9A600068C16010BD704710B504464FF4803000EB0431002000F0B1
:20C0000003F94FF4A02000EB4441012000F0FCF84FF4C02000EB4441012000F0F5F810BD4E
:20C02000F0B539A20D46064691B007CA01AB83E8070038A004AB07C883E8070038A007AB5F
:20C0400007C883E8070039A00AAB07C883E8070039A00DAB07C883E80700002007F07FFE6A
:20C060000C2745B1280907282CD2DFE800F02B222428262B2A00072E0ED2DFE806F00D048B
:20C08000060A080D0C0001AC06E004AC04E00DAC02E00AAC00E007AC10232246052138204B
:20C0A000009707F03CFF10230821264A4020009721E001AC06E004AC04E00AAC02E00DAC7B
:20C0C00000E007AC1023224605213820009707F026FF05F002001C4A012109F009FC1A4A20
:20C0E00002210832284609F003FC174A1023921E08213820009707F012FF4FF4FA7007F075
:20C1000064FE11B0F0BD00002056444420434845434B20202056505720434845434B2020B8
:20C1200020464C415348205445535420205541525420205445535420434F4E4E45435420CB
:20C1400054455354B5000020D701002010B54FF4804001F06BFB4FF4006001F067FBBDE818
:20C1600010404FF4806001F061BB022001F05EBB042001F05BBB000030B51F4885B081697D
:20C1800041F004018161816901F004010491816941F0080181618069184D00F00800049032
:20C1A0000220CDE90005012469460294144801F049FB44F60440CDE90005694602941148D0
:20C1C00001F040FB02221146082001F0C7FC082001F0B9FC03220221072001F0BFFC0720CC
:20C1E00001F0A6FC05220221282001F0B7FC282001F0A9FC05B030BD001002400000211073
:20C2000000080140000C014070B505460C4607F02DFD07F07BFD00221021184801F008FC8E
:20C2200025B1012D06D0022D0CD107E020201449087007E0D8201249087003E0C720104947
:20C24000087000BF00BF4FF47A7301220C490D4802F07CFE022D0BD0200C09490870200A55
:20C2600048708C704FF47A730322064802F06EFE01221021014801F0DBFB70BD000801402F
:20C280001602002010310020FEE700003EB5174B044600250A21186803E0B0FBF1F06D1CB9
:20C2A000EDB20028F9D16A462946186809F0A8FA9DF8000020702E2060709DF80110A170B9
:20C2C000E0709DF8020020719DF8030060712020A071002268462D1F05E08118A318097955
:20C2E000521CD971D2B2AA42F7DB3EBDF8FF010810B505F083FCFF2005F0ACFC0A2007F033
:20C300006FFDF02005F0A6FC0A2007F069FDBDE81040FF2005F09EBC2DE9F0474FF000098B
:20C32000002426E0E1B2002008F0B2FC4FF4803000EB044702115349384604F00BFB002505
:20C3400008E05048405DFF2802D04FF0010904E0681C85B2B5F5805FF3DB00BFB9F1010F0F
:20C3600005D139460120FFF74FFF4FF00009601C84B2CD2CD6DB00267FE000210846FFF775
:20C3800043FF16B14FF0550801E04FF0AA08711CC8B2002108F07CFC002404E0394800F80D
:20C3A0000480601C84B2FF2CF8DD00274FF480723449384607F084FC4FF48072314938464C
:20C3C00004F0C8FA002408E02E48005D404502D06020BDE8F087601C84B2FF2CF4DD002106
:20C3E0000846FFF711FF16B14FF0550801E04FF0AA08002404E0234800F80480601C84B213
:20C40000FF2CF8DD4FF48037002509E04FF480721C49384607F054FC07F58037681C85B247
:20C42000CD2DF3DB4FF48037002515E04FF480721449384604F08EFA07F58037002407E0D6
:20C440001048005D404501D06020C2E7601C84B2FF2CF5DD681C85B2CD2DE7DB002408E076
:20C460004FF4803000EB04410020FFF7CDFE601C84B2CD2CF4DB701C86B2022EFFF67DAF29
:20C480000020A6E7E01300202DE9F04107460C464FF00008FF224FF480511048FCF778F8BF
:20C4A00016E0B4F5806F01D2A5B201E04FF480652A460A49384604F04DFA002604E00748E6
:20C4C000805D8044701C86B2AE42F8DB2F44641B002CE6D14046BDE8F0810000E0130020B0
:20C4E0002DE9F04107460C464FF00008FF224FF480512C48FCF74CF8B4F5803F35D916E0C3
:20C50000B4F5806F01D2A5B201E04FF480652A462449384604F01EFA002604E02148805D99
:20C520008044701C86B2AE42F8DB2F44641BB4F5803FE5D816E0B4F5806F01D2A5B201E000
:20C540004FF480652A461749384604F003FA002604E01448805D8044701C86B2AE42F8DBE6
:20C560002F44641B002CE6D119E016E0B4F5806F01D2A5B201E04FF480652A4609493846EC
:20C5800004F0E8F9002604E00648805D8044701C86B2AE42F8DB2F44641B002CE6D14046EB
:20C5A000BDE8F081E01300207FB504461022C9496846FBF7DBFFC848008800EB8000C74903
:20C5C00051F83000C449098801EB8101C34A02EBC10149680844C049098801EB810102EB28
:20C5E000C10189680844BC49098801EB810102EBC101C9684618E5202070422060707A2099
:20C60000A07004F0F3FCB449087804F0CDF904F087FB002505E0B248415DE81C2154681CDB
:20C62000C5B2102DF7DBAF480088000AE074AD4800782075AC480068000E6075AA480068FC
:20C64000000CA075A8480088000AE075A64800782076002508E0A548284490F8E81705F103
:20C6600019002154681CC5B20C2DF4DB00250EE09948008800EB001101EB40109C4901EBA4
:20C680008000415D05F125002154681CC5B20E2DEEDB9148008800EB001101EB4010944977
:20C6A00001EB8000807B04F8330F8B48008800EB001101EB40108E4901EB8000C07B6070F4
:20C6C0008548008800EB001101EB4010884901EB8000B0F84400000AA0707F48008800EB50
:20C6E000001101EB4010824901EB800090F84400E0707948008800EB001101EB40107C4954
:20C7000001EB8000B0F86600000A20717248008800EB001101EB4010754901EB800090F8D8
:20C72000660060716C48008800EB001101EB40106F4901EB8000B0F86A00000AA07166484F
:20C74000008800EB001101EB4010694901EB800090F86A00E0716048008800EB001101EBA0
:20C760004010634901EB8000B0F86E00000A20725948008800EB001101EB40105C4901EBAD
:20C78000800090F86E0060725348008800EB001101EB4010564901EB8000007CA072333CEE
:20C7A0004D48008800EB001202EB40100A4602EB800000F12401102204F14000FBF7D6FE22
:20C7C0004548008800EB001101EB4010484901EB800090F8460084F850003F48008800EB7B
:20C7E000001101EB4010424901EB800090F8640084F851003848008800EB001101EB4010FC
:20C800003B4901EB8000806CC4F8520000252EE03148008800EB001101EB4010344901EB59
:20C8200080004C3030F815106800563021522A48008800EB001101EB40102D4901EB80003A
:20C84000543030F8151068005E3021522248008800EB001101EB4010254901EB80005C300E
:20C8600030F81510680066302152681CC5B2042DCEDB44F86E6F1848008800EB001101EB3C
:20C8800040101B4901EB8000808BA0801248008800EB001101EB4010154901EB8000C08B1E
:20C8A000E0800D48008800EB001101EB4010104901EB8000008C20810748008800EB00113E
:20C8C00001EB40100A4901EB8000408C60816E3C7FBD0000C0FF010888000020B40F002077
:20C8E000E0FF0108FC7F0008F8FF010800F0FF1F60030020F8B500260446009690F82400DD
:20C90000012808D0012084F824002046FBF797FE070002D04BE00220F8BDA06A20F4885097
:20C9200040F00200A062022001F034FC22490968B1FBF0F0400000E0401E00900028FBD116
:20C940002046FBF7A1FE2068816841F00801816001F074F8054604E001F070F8401B0A28E2
:20C9600011D8206880680007F6D42068816841F00401816001F062F805460EE001F05EF83A
:20C98000401B0A2809D9A06A20F0020040F01000A06284F824600120F8BD2068806840073D
:20C9A000ECD4A06A20F0020040F00100A06284F824603846F8BD000084000020F8B50023C1
:20C9C000009390F824209E46012A1ED0012280F824204A681F254FF47874072A17D206686F
:20C9E000776B94FAA4FCBCFA8CFC521E02FB0CFC05FA0CF5AF4394FAA4F4B4FA84F40D68C1
:20CA0000624395402F4377632DE00220F8BD06680D2A14D2376B94FAA4FCBCFA8CFCD21FE2
:20CA200002FB0CFC05FA0CF5AF4394FAA4F4B4FA84F40D68624395402F43376313E0F76A64
:20CA400094FAA4FCBCFA8CFC0D3A02FB0CFC05FA0CF5AF4394FAA4F4B4FA84F40D686243C6
:20CA600095402F43F7620A683825072604680A2A14D3E76895FAA5FCBCFA8CFC0A3A02FB95
:20CA80000CFC06FA0CF6B74395FAA5F5B5FA85F58E686A4396403743E76012E0276995FAF5
:20CAA000A5FCBCFA8CFC02FB0CFC06FA0CF6B74395FAA5F5B5FA85F58E686A439640374351
:20CAC00027610A68102A01D0112A20D1124C0268A24217D19468240219D4946844F400044A
:20CAE00094600968102912D10C490D4A0968B1FBF2F101EB8101490000E0491E0091002951
:20CB0000FBD104E0816A41F020018162012380F824E01846F8BD0000002401408400002089
:20CB200040420F000068C06C704700002DE9F04104004FF0000513D0A06A002628B9E6624E
:20CB400084F82460204600F09FF82046FBF777FDA16AC90600D420B1A06A40F01000A06251
:20CB600089E0A16A21F4885141F00201A16243492368E2698B4204D1B2F5402F01D14FF4ED
:20CB80000022022191FAA1F1D4F80CC0B1FA81F10CFA01F10A4361684FF480770A43A168E0
:20CBA000B94208D0012906D00021D4F814E0BEF1010F02D010E03946F7E7BCF1000F21D036
:20CBC000D4F828C04CF0200CC4F828C0D4F82CC04CF0010CC4F82CC0D3F804C02CF4694C88
:20CBE0004CEA010CC3F804C021688B68DFF890C003EA0C0313438B60A168B94213D0012982
:20CC000011D019E04FF4604ED4F818C09EFAAEFEBEFA8EFEACF1010C0CFA0EFC4CEA010C20
:20CC20004CF40061D8E74FF47001256991FAA1F1B1FA81F16D1E8D402168CB6A23F4700378
:20CC40002B43CB62216889680E4B1940914208D1E662A16A21F0020141F00101A162BDE81F
:20CC6000F081A06A20F0020040F01000A062E06A40F00100E0620120F1E70000003C0140B2
:20CC8000FDF7E1FFFE0E1FFF10B500680E4986B0884217D10D48816941F40071816180697A
:20CCA000032400F4007004900F20CDE900046946074800F0C7FD0120CDE9000469460548E3
:20CCC00000F0C0FD06B010BD002401400010024000100140000801402DE9F8434FF000083B
:20CCE0000D460446CDF8008000F0A8FE064620688168C90508D5A06A40F02000A06284F87C
:20CD000024800120BDE8F8834168C90503D4C06A10F4700F25D0022001F03CFA3749096804
:20CD2000B1FBF0F720680169354A11424FEA62024FEAA2131AD1C1684FEA621C11EA0C0F30
:20CD400014D10169114220D1C06818421DD114201EE0681C05D035B300F070FE801BA8427A
:20CD600021D8206800688007F3D529E00169114202D1C168194206D0026922490A4206D18F
:20CD8000C068084203D1542002E0292000E0FC204743009812E0681C0DD025B100F04EFE2B
:20CDA000801BA84207D9A06A40F00400A06284F824800320A6E70098401C0090B842EAD3C3
:20CDC00021686FF012000860A06A40F40070A06220688068C0F3424007280CD1E06850B93F
:20CDE000A06A20F48070A062A06AC00403D4A06A40F00100A062002084E700008400002012
:20CE0000244992244992240070B5044690F8240001280DD0012084F824002046FBF734FC86
:20CE200001004FF0000205D084F82420084670BD022070BDA06A40F20123984340F48070F2
:20CE4000A0621F4D20681F4BA84218D11E6816F4702F14D0A66A46F48016A6621E687605A3
:20CE600005D5A66A26F4005646F48056A662A66AF6040AD5E66A26F00606E66206E0A66AA7
:20CE800026F48016A6624668E9E7E26284F824206FF00202026020688268C2F34242072AB7
:20CEA00005D1A84208D11A6812F4702F04D0826842F480128260B9E7826842F4A002F9E708
:20CEC000002801400424014010B5040002D0607910B106E0012010BD00202071204600F070
:20CEE00004F801206071002010BD70472DE9F04104460068016821F00101016000F09EFD3F
:20CF0000054600264FF47A770FE000F097FD401BB8420AD954F8340F40F0200044F8140989
:20CF2000032060702670BDE8F08120680068C007EBD1012084F8210084F820600020F2E72C
:20CF40002DE9F04FF0B390F8211002293ED001680A6822F001020A60026800211160026827
:20CF60005160026891600268D1609D4A9C4B9C4C9B4D9B4E9A4FDFF86882DFF86892DFF831
:20CF800064A2DFF860B20168783A643B503C3C3D283E143FDFF84CC24FF4005E09F114098D
:20CFA0000AF1280A0BF13C0B41452CD9914212D0994214D0A14216D0A94219D0B14219D089
:20CFC000B94200E002E004D1910415E00120BDE8F08F614501D102210EE0494501D12021C6
:20CFE0000AE0514502D14FF4007105E0594501D1714601E04FF40031DFF8E881A8F10408E4
:20D00000C8F800102EE0914215D0994217D0A14219D0A9421CD0B1421CD0B94202D14FF425
:20D02000001119E0DFF8B881414502D14FF0007112E0614501D102210EE0494501D12021B1
:20D040000AE0514502D14FF4007105E0594501D1714601E04FF40031DFF88481A8F180086B
:20D06000C8F80410DFF8788101684FF4006E414528D991420ED0994210D0A14212D0A9424F
:20D0800014D0B14215D0B94202D14FF4000112E0614501D108210EE0494501D180210AE056
:20D0A000514501D1714606E0594502D14FF4004101E04FF40021DFF82C81A8F10408C8F848
:20D0C00000102EE0914215D0994217D0A14219D0A9421BD0B1421CD0B94202D14FF4000125
:20D0E00019E0DFF8FC80414502D14FF0006112E0614501D108210EE0494501D180210AE07F
:20D10000514501D1714606E0594502D14FF4004101E04FF40021DFF8C880A8F18008C8F8D0
:20D120000410DFF8BC8001684FF4806E414525D991420ED0994210D0A14212D0A94214D0AA
:20D14000B14215D0B94202D14FF4800112E0614501D104210EE0494501D140210AE05145A7
:20D1600001D1714606E0594502D14FF4804101E04FF480211B4A121F116029E0914213D040
:20D18000994215D0A14217D0A94219D0B1421AD0B94202D14FF4800117E0414502D14FF033
:20D1A000806112E0614501D104210EE0494501D140210AE0514501D1714606E0594502D1F0
:20D1C0004FF4804101E04FF48021054A803A51600021416380F8211080F820100846F6E68C
:20D1E00080000240080402402DE9F05F0446F84AF74DF74EF64F0068DFF8D493DFF8D0A370
:20D20000DFF8CCB3D114783D643E503F4FF4000E4FF4004C4FF40028A9F13C09AAF1280AF6
:20D22000ABF1140B904221D9EA4A1368A8420FD0B0420FD0B84213D0484513D0504513D059
:20D24000584501D1724624E0E24A083290423CD108221EE080221CE0DE4A3032904239D132
:20D260000A4616E0624614E0424612E0D84A803A1368A842ECD0B042ECD0B842F0D0484560
:20D28000F0D05045F0D05845DCD0D14A9042DBD10205134279D00268D243120775D40268A7
:20D2A00022F008020260CA4A2068904232D9A84219D0B0421DD0B84228D0484523D05045BE
:20D2C00023D058450BD1714620E0C24A1C329042C2D1BFE7BF4A44329042C5D1C2E7BD4A2F
:20D2E0000832904201D1082110E0BA4A1C32904201D180210AE0B74A3032904206D0B549AD
:20D300004431884201D1614600E04146B148001D01602CE0A84214D0B04218D0B84223D0D6
:20D3200048451ED050451ED0584501D171461BE0904202D14FF0006116E0A64A0832904297
:20D3400001D1082110E0A34A1C32904201D180210AE0A04A3032904206D09E49443188425E
:20D3600001D1614600E04146994880384160606B40F001006063042084F82100002084F877
:20D380002000216B09B120468847914A206811154FF4800E4FF4804C4FF48028904221D9D2
:20D3A0008C4A1368A8420FD0B0420FD0B84213D0484513D0504513D0584501D1724624E092
:20D3C000844A083290423FD104221EE040221CE0804A303290423CD10A4616E0624614E0F4
:20D3E000424612E07A4A803A1368A842ECD0B042ECD0B842F0D04845F0D05045F0D058456D
:20D40000DCD0734A9042DBD1C204134275D00268D243520771D40268920603D4026822F053
:20D42000040202606A4B2068984232D9A84219D0B0421DD0B84228D0484523D0504523D0B6
:20D4400058450BD1714620E0624A1C329042BFD1BCE7604A44329042C2D1BFE75D4A083291
:20D46000904201D1042110E05A4A1C32904201D140210AE0574A3032904206D05549443154
:20D48000884201D1614600E041465248001D01602CE0A84214D0B04218D0B84223D048459C
:20D4A0001ED050451ED0584501D171461BE0984202D14FF0806116E0464A0832904201D1A9
:20D4C000042110E0434A1C32904201D140210AE0404A3032904206D03E494431884201D141
:20D4E000614600E041463A4880384160112084F82100E16A09B120468847DFF8D4C04FF48D
:20D50000007120680B014FF4003E604523D9314AD2F80080A84210D0B04210D0B84214D0A5
:20D52000484514D0504514D0584502D14FF4001224E0284A0832904240D102221EE0202245
:20D540001CE0244A303290423DD10A4616E01A4614E0724612E01E4A803AD2F80080A84285
:20D56000EBD0B042EBD0B842EFD04845EFD05045EFD05845DAD06045DBD1120218EA020F2B
:20D580007DD00268D24392077DD40268920603D4026822F0020202602068604536D9A842F4
:20D5A0001DD0B04221D0B8422CD0484527D0504527D0584510D14FF4001123E0054A1C3223
:20D5C0009042BED1BBE7034A44329042C1D1BEE780000240000402402C4A904201D1022137
:20D5E00010E02A4A1432904201D120210AE0274A2832904206D025493C31884201D1194669
:20D6000000E071462148001F01602BE0A84214D0B04218D0B84223D048451ED050451ED0EC
:20D62000584502D14FF400111AE0604502D14FF0007115E0154A904201D1022110E0134A9C
:20D640001432904201D120210AE0104A2832904206D00E493C31884201D1194600E0714603
:20D660000B484160606B6063012084F82100002084F82000A16A002905D0204600E002E07D
:20D68000BDE8F05F0847BDE8F09F0000080402400000024070B520B190F82110002411B1EE
:20D6A00003E0012070BD80F82040022180F8211001680A6843F6F0739A43D0E901352B43E4
:20D6C000D0E9035635432B4345692B4385692B43C5692B4313430B604463012180F821100B
:20D6E000002070BD70B5044690F82000012823D0012084F82000022084F821002068056839
:20D7000025F0010505602046FEF762FC2068016841F0020101602068016841F004010160C2
:20D720002068016841F0080101602068016841F001010160002070BD022070BD31B500F066
:20D740007DF9044600F07AF90099001B8842F9D338BD000070B504460A2006F036FB2F4D2B
:20D760002F4EB4F5806F3AD012DC022C25D0042C34D1D6F80801002830D10A2006F030FBF9
:20D78000D6F80801002829D1287840F0010034E0B4F5006F33D0B4F5804F1FD1D6F8380121
:20D7A00000281BD10A2006F01BFBD6F83801002814D1287840F008001FE01A4CD4F80401FD
:20D7C00000280BD1642006F00BFBD4F80401002804D11548017881F00101017070BDD6F842
:20D7E00028010028FAD10A2006F0FAFAD6F828010028F3D1287840F00200287070BDD6F8B1
:20D800002C010028FAD10A2006F0EAFAD6F82C010028F3D1287840F00400EEE791000020A3
:20D82000008021420000214290000020044910B50A68024202D00860FFF78CFF10BD0000A2
:20D84000140401402DE9F84FDFF8BC91002309F1040A0AF1040B1C464FF00F080BF1040EF3
:20D8600001270A68A7403A40BA4272D1DFF89CC14D68A5EB0C0665452BD00DDC032D34D021
:20D8800005DC35B3012D19D0022D2FD11BE0112D16D0122D2AD119E0B6F5881F19D006DC0A
:20D8A000B6F5803F15D0B6F5801F1FD111E0B6F5001F0ED0B6F5041F18D10AE0CB6815E07D
:20D8C000CB681B1D12E0CB6808330FE0CB680C330CE08B682BB1012B4FF0080303D0476170
:20D8E00004E0042302E0076100E00023FF2A01D8064601E000F104064FEA840501D9A5F174
:20D900002005376808FA05FC27EA0C0703FA05F547EA050737604D68ED006ED53C4DAE69CC
:20D9200046F00106AE61AD6924F0030605F001050095384D7719BE68A5072D0F08FA05FCB2
:20D9400026EA0C06DFF8D0C0604503D14FF0000C25E052E0DFF8C4C0604502D14FF0010C24
:20D960001DE0DFF8BCC0604502D14FF0020C16E0DFF8B0C0604502D14FF0030C0FE0DFF8C9
:20D98000A8C0604502D14FF0040C08E0DFF89CC0604502D14FF0050C01E04FF0060C0CFA3D
:20D9A00005FC4CEA060CC7F808C04D68D9F80060ED034D4601D5164300E096432E604D6803
:20D9C000DAF80060AD03554601D5164300E096432E604D68DBF80060ED025D4601D51643AB
:20D9E00000E096432E604D68DEF80060AD02754601D5164300E096432E60641C102CFFF466
:20DA00002FAFBDE8F88F00000004014000001110001002400000014000080140000C01406D
:20DA2000001001400014014000180140001C01400AB1016170470904FBE700000148006816
:20DA4000704700001003002002480168491C01607047000010030020074810B5016841F0CB
:20DA600010010160032000F099F8002000F006F800F016F8002010BD0020024010B5044626
:20DA800000F05EFD4FF47A71B0FBF1F001F05BFC00222146501E00F061F8002010BD00000C
:20DAA000214808B5816941F001018161806900F001000090032000F071F8002211466FF083
:20DAC0000B0000F04BF8002211466FF00A0000F045F8002211466FF0090000F03FF80022CF
:20DAE0001146501F00F03AF800221146101F00F035F800221146901E00F030F800221146C1
:20DB0000501E00F02BF800221146012000F026F8012000F018F80548416821F0E06141F042
:20DB20000071416008BD0000001002400000014000F01F02012191404009800000F1E020BD
:20DB4000C0F88011704700F01F02012191404009800000F1E020C0F800117047F0B40E4B8A
:20DB60001B68C3F30223C3F10704042C00D904241D1D072D01D2002300E0DB1E012606FAF3
:20DB800004F56D1E0D409D409E40761E164045EA0601F0BC02F0BABC0CED00E0064A00F0AC
:20DBA000070110684FF6FF03184040EA0120034908431060704700000CED00E00000FA0565
:20DBC000BFF34F8F05480168054A01F4E06111430160BFF34F8F00BFFDE700000CED00E0B9
:20DBE0000400FA0510B50C0605D501F07F0100EB4110283003E000EB411000F5027099B29B
:20DC000032B101228272C180190C0181002010BD002282728180F9E7704700EB4112D0F881
:20DC20001C04D26B04F0AFBE00EB4112D0F81C04D2F81C2204F0FCBE10B504460A460B06DA
:20DC400001F07F0004EB401101D5283101E001F502710870D009487094F8E803012809D019
:20DC6000012084F8E803206805F0C5FA002084F8E80310BD022010BD70B50A4604460906CF
:20DC800002F07F0003D504EB4011283103E004EB421101F5027100258D700870D0094870E9
:20DCA00094F8E803012809D0012084F8E803206805F03FFB84F8E853002070BD022070BD59
:20DCC00070B504460D460E0601F07F0004EB401101D5283101E001F502710870E809487024
:20DCE0000A61CB7094F8E803012809D0012084F8E803206805F054F9002084F8E80370BDFF
:20DD0000022070BD70B504460E4601F07F0004EB401101F5077100252CC101F81F5C01F854
:20DD2000200D94F8E80301280AD0012084F8E8037006206805F057FB84F8E853002070BD6B
:20DD4000022070BD70B50D460446090605F07F0003D504EB4011283103E004EB451101F5A0
:20DD6000027101228A700870E809487094F8E803012807D084F8E823206805F00FFB6806FF
:20DD800002D006E0022070BD04F57B71206805F0CEFA002084F8E80370BD70B504460E46DB
:20DDA00001F07F0004EB40113C3100252CC1012201F81F2C01F8200D94F8E803012809D02E
:20DDC00084F8E8237006206805F00DFB84F8E853002070BD022070BD10B50446006805F002
:20DDE000E3FB000402D5204602F0A0FB206805F0DBFB40050CD5206830F8441F21F48061F5
:20DE00000180204600F0EAF80021204600F0FBF8206805F0C9FB400405D5206830F8441F6D
:20DE200021F480410180206805F0BEFB800405D5206830F8441F21F400510180206805F080
:20DE4000B3FBC00413D5206830F8401F21F00401018021684FF43D40A1F84000204600F04A
:20DE6000CAF8206830F8441F21F480510180206805F09AFB00051AD5206830F8441F21F438
:20DE800000610180206830F8401F41F008010180206830F8401F41F004010180206805F093
:20DEA00083FBC043C00402D5204600F0E1F8206805F07AFB800508D5206830F8441F21F49B
:20DEC00000710180204600F09AF8206805F06CFBC00505D5206830F8441F21F4807101804B
:20DEE00010BD2DE9F04186B004004FF0000504D094F8E903002620B108E0012006B0BDE8E9
:20DF0000F08184F8E863204600F04AF8032084F8E903206805F004FA04F110011422884621
:20DF20006846FAF723FB94E80F0005F062F90021206805F04AFB012704EB451080F82970E9
:20DF400000F8285F8581C670066146616D1C86610F2DF1D3002104EB411080F8096280F8CC
:20DF60000812818680F80B62C0F81862C0F81C62491CC0F820620F29EDD314224146684631
:20DF8000FAF7F4FA94E80F0005F0C1F984F8246084F8E973206805F0B8F90020AEE70000AD
:20DFA00008B500680B49884212D10B48C16941F40001C161C069002200F400000090114640
:20DFC0001420FFF7CBFDBDE808401420FFF7BBBD08BD0000005C00400010024010B50446FE
:20DFE0000121D0F81C0404F0F5FDD4F81C04BDE8104004F0BEBDD0F81C0404F0D9BDD0F8A7
:20E000001C0404F0DBBD10B5044690F8E80301280BD0012084F8E80384F82410206805F019
:20E02000D6FA002084F8E80310BD022010BDD0F81C2400F57B71104604F0DFBD10B50446EF
:20E0400090F8E803012810D0012084F8E80301462046FFF7E1FD206805F055F9206805F0F3
:20E0600095FA002084F8E80310BD022010BD000010B50446D0F81C0404F00CFEA0690028A8
:20E0800004D00348016841F00601016010BD000010ED00E030B51C490A68036822F0E0029A
:20E0A0001A430A60194B196821F4803119601A1F116821F480311160144C0834216821F452
:20E0C00080312160191D0D6825F480350D604568ED0303D5156845F4803515604268920394
:20E0E00003D51A6842F480321A600279D20703D00A6842F480320A600079800703D5206819
:20E1000040F48030206030BD00700040040401400120102191FAA1F1024AB1FA81F142F8A3
:20E120002100704700000E4270B505F069FA06F019FA4FF496750E4C0FE0FF2003F05EFD2D
:20E1400001212846FAF7EEFBC82005F03EFEAA2003F054FDC82005F038FE61684907ECD442
:20E160000448008802F020FCBDE8704006F06EBA007000408800002010B5054C2068C00391
:20E1800004D5FFF7D1FF4FF48030206010BD00001404014010B5014636A086B01DC88DE8D5
:20E1A0001D0038A0384C006804900020042944D012DC012944D002293DD100F0DFF9616893
:20E1C0004FF4804292FAA2F201F44041B2FA82F2D140491C49002CE008292ED010292AD156
:20E1E00061682268D20126D54FF4701292FAA2F201F47010B2FA82F2D040C9031DF8000093
:20E2000010D561684FF4003292FAA2F201F40031B2FA82F2D14004AA515C1C4AB2FBF1F114
:20E22000484301E01A4948436168490203D440000321B0FBF1F006B010BD00F0B7F9FAE7A5
:20E24000216AC1F30122012A03D1890701D5D003F1E7022A05D1616A890702D549F6404059
:20E26000E9E7032AE7D121688903E4D54FF22440E1E7000002030405060708090A0B0C0D54
:20E280000E0F1010010200000010024000127A0000093D002DE9F84304460078454EC007AD
:20E2A00073D0F06940F08050F061F069424F00F080500090386840F480703860FFF7BEFB2C
:20E2C000054604E0FFF7BAFB401B642832D83868C005F7D5306A10F4407050D0A18801F4B6
:20E2E000407181424BD0306A01273B0493FAA3F1B1FA81F18A00314920F440700A44C2F880
:20E30000007493FAA3F3B3FA83F301EB83010022C1F800243062C00731D0FFF78FFB0546AF
:20E3200041F288394FF0020807E0FFF787FB411B494502D90320BDE8F88398FAA8F0B0FA65
:20E3400080F040F040004146B7EB501F01D130680BE091FAA1F0B0FA80F040F04000B1EBAE
:20E36000501F01D1306A00E0706A98FAA8F1B1FA81F101F01F0207FA02F10842D5D0306A31
:20E38000616820F44070084330622078800705D57068A16820F44040084370602078C0062C
:20E3A00005D57068616920F48000084370600020C1E70000001002400070004000004242E4
:20E3C0002DE9F047DFF8688104460E46D8F8000000F00700B0420CD2D8F8001021F0070102
:20E3E0003143C8F80010D8F8000000F00700B04273D120784F4F800705D57868A16820F04C
:20E40000F000084378602078C00755D06068012201280CD0022828D0022393FAA3F1B1FA62
:20E4200081F141F02001490904D0396803E04FF40033F2E7796A93FAA3F3B3FA83F303F003
:20E440001F039A40114248D0796821F0030101437960FFF7F3FA0546606841F28831012837
:20E460000CD00228894615D022E04FF00073D4E7FFF7E4FA411B494501D916E08946786836
:20E48000C0F381000128F3D116E0FFF7D7FA411B49450AD87868C0F381000228F5D10BE0E3
:20E4A000FFF7CCFA411B494502D90320BDE8F087786810F00C0FF3D1D8F80010404601F086
:20E4C0000701B1420BD9016821F0070131430160006800F00700B04201D00120E6E720785E
:20E4E000400705D57868E16820F4E060084378602078000706D57868216920F4605040EA89
:20E50000C100786000F052F87968F02292FAA2F201F0F001B2FA82F2D140074A515CC840FC
:20E52000064908600020FFF7A9FA0020BEE700000020024000100240FC60010884000020E9
:20E5400001480068704700008400002008480949006849684FF4E06292FAA2F201F4E06119
:20E56000B2FA82F2D140044A515CC8407047000084000020001002400C61010808480949A2
:20E58000006849684FF4605292FAA2F201F46051B2FA82F2D140044A515CC84070470000BC
:20E5A00084000020001002400C61010810B519A085B00FC88DE80F001AA01B4B00680490C5
:20E5C00059681A4801F00C02042A1DD0082A1BD14FF4701494FAA4F401F47012B4FA84F456
:20E5E000E240C9031DF8022010D559684FF4003393FAA3F301F40031B3FA83F3D94004ABA6
:20E60000595CB0FBF1F0504305B010BD08485043FAE7000002030405060708090A0B0C0D86
:20E620000E0F1010010200000010024000127A0000093D002DE9F84F04460078FE4EC00744
:20E640004FF001057FD070684FF40038C0F38100012807D07068C0F3810002281BD17068A5
:20E66000C00318D598FAA8F0B0FA80F040F02000400901D0306800E0706A98FAA8F1B1FA14
:20E6800081F101F01F0105FA01F108425BD06068002879D057E06068B0F5803F0BD010B159
:20E6A000B0F5A02F11D0306820F480303060306820F4802002E0306840F480303060606817
:20E6C00018B3FFF7BBF9074609E0306840F480203060F0E7FFF7B2F9C01B642870D898FADA
:20E6E000A8F0B0FA80F040F02000400901D0306800E0706A98FAA8F1B1FA81F101F01F0153
:20E7000005FA01F10842E5D01DE0FFF797F9074604E0FFF793F9C01B6428DFD898FAA8F08B
:20E72000B0FA80F040F02000400901D0306800E0706A98FAA8F1B1FA81F101F01F0105FAAB
:20E7400001F10842E5D12078DFF8F08280074FF0000A4FF002075AD570684FF0F80B10F085
:20E760000C0F07D07068C0F3810002281CD17068C00319D497FAA7F0B0FA80F040F020006A
:20E78000400902D0306801E08AE0706A97FAA7F1B1FA81F101F01F0105FA01F108422BD014
:20E7A000206901287CD127E0206988B395FAA5F0B0FA80F048F82050FFF740F9814606E0C5
:20E7C0004DE1FFF73BF9A0EB0900022886D897FAA7F0B0FA80F040F02000400901D0306881
:20E7E00000E0706A97FAA7F1B1FA81F101F01F0105FA01F10842E4D030689BFAABF220F03F
:20E80000F8016069B2FA82F290400143316025E0FFE795FAA5F1B1FA81F148F821A0FFF74D
:20E820000DF9814605E0FFF709F9A0EB09000228CCD897FAA7F0B0FA80F040F020004009F1
:20E8400001D0306800E0706A97FAA7F1B1FA81F101F01F0105FA01F10842E4D120780007AF
:20E860006DD5A069B8B395FAA5F0B0FA80F008EB8000C0F88054FFF7E1F8814605E0FFF734
:20E88000DDF8A0EB09000228A0D897FAA7F0B0FA80F040F06000B5EB501F02D130680CE035
:20E8A00063E197FAA7F0B0FA80F040F06000B7EB501F01D1306A00E0706A97FAA7F1B1FA37
:20E8C00081F101F01F0105FA01F21042D7D00120FEF734FF33E0FFE795FAA5F1B1FA81F146
:20E8E00008EB8101C1F880A4FFF7A8F8814605E0FFF7A4F8A0EB0900022899D897FAA7F09B
:20E90000B0FA80F040F06000B5EB501F01D130680BE097FAA7F0B0FA80F040F06000B7EB75
:20E92000501F01D1306A00E0706A97FAA7F1B1FA81F101F01F0105FA01F21042D8D1207866
:20E94000400763D5F06940F08050F061F069DFF8F0B000F080500090DBF8001041F4807165
:20E96000CBF80010FFF76AF8814605E0FFF766F8A0EB0900642872D8DBF80000C005F5D5A0
:20E98000E06801280AD008B1052813D0306A20F001003062306A20F0040002E0306A40F0CC
:20E9A00001003062E06841F2883B80B3FFF746F881460AE0306A40F004003062EEE7FFF743
:20E9C0003DF8A0EB0901594549D897FAA7F0B0FA80F040F04000B5EB501F01D130680BE098
:20E9E00097FAA7F0B0FA80F040F04000B7EB501F01D1306A00E0706A97FAA7F1B1FA81F1E8
:20EA000001F01F0205FA02F10842D8D033E0FFE7FFF714F8814605E0FFF710F8A0EB0901C6
:20EA200059451CD897FAA7F0B0FA80F040F04000B5EB501F08D105E00010024000004242EF
:20EA40000070004030680CE097FAA7F0B0FA80F040F04000B7EB501F02D1306A01E08AE007
:20EA6000706A97FAA7F1B1FA81F101F01F0205FA02F10842D0D1E06998B37168C1F38101E4
:20EA8000022972D002284FF080714FF0007B50460AD091FAA1F1B1FA81F148F82100FEF7F5
:20EAA000CDFF04465F4669E08A4691FAA1F1B1FA81F1C14648F82100FEF7C0FFA8460746F1
:20EAC0005D4604E0FEF7BAFFC01B022853D895FAA5F0B0FA80F040F02000400902D0306890
:20EAE00001E060E0706A95FAA5F1B1FA81F101F01F0208FA02F10842E4D1206AB0F5803FE5
:20EB000005D17068A16820F4003008437060D4E908010843716821F47411084370609AFAAC
:20EB2000AAF0B0FA80F0474649F82080FEF786FF044604E0FEF782FF001B02281BD895FACE
:20EB4000A5F0B0FA80F040F02000400901D0306800E0706A95FAA5F1B1FA81F101F01F01F7
:20EB600007FA01F10842E5D01DE01EE0FEF766FF001B022802D90320BDE8F88F97FAA7F0B7
:20EB8000B0FA80F040F02000400901D0306800E0706A97FAA7F1B1FA81F101F01F0105FA49
:20EBA00001F10842E2D10020E6E70120E4E7000010B5040003D094F8510010B104E001204E
:20EBC00010BD204600F038F8022084F851002068016821F040010160D4E901010843D4E988
:20EBE00003121143084361690843218B01F400710843E1690843216A0843A16A08432168A5
:20EC00000860A069042101EA1040616A0843216848602168E06A08612068C16921F4006178
:20EC2000C1610449002008706065012084F85100002010BD140300202DE9F04F04460068EF
:20EC40003F49DFF80081032785B088425CD1D8F8181041F48051C8F81810D8F81800DFF8D9
:20EC6000E8B000F480500490A02000900220019069465E4603975846FEF7E4FD4FF00009F8
:20EC80004020CDE900094D4669463046CDF80890FEF7D8FD2E4E2D484FF0800AC6E9000508
:20ECA000C6E9025A35617561B5613046F561FEF7F1FC08B1FDF7E8FA66642448254D74620C
:20ECC00014301026C5E90006C5E9029AC5F81090C5F81490C5F818902846C5F81C90FEF7CD
:20ECE000D9FC08B1FDF7D0FA25646C620120CDE9006069465D4603975846FEF7A3FD0122F8
:20ED000010212846FEF794FE13492068884214D1D8F81C1041F48041C8F81C10D8F81C0070
