:020000040800F2
:20840000003B00200185000803FA0008ADF4000801FA0008A1890008AD24010800000000B6
:208420000000000000000000000000005D050108C5BA000800000000EFFD00083D0B010805
:208440001B85000887FD00081B8500081B8500081B8500081B8500081B85000835BC0008A7
:208460001B8500081B8500081B8500081B850008ADBA0008B9BA00081B8500081B85000822
:208480001B8500081B8500081B8500081B850008451F01081B8500081B8500081B850008D7
:2084A0001B8500081B8500081B8500081B850008150C0108C50C01081B8500081B850008C8
:2084C0001B8500081B8500081B8500081B8500081B8500081B8500081B8500081B8500085C
:2084E0001B8500081B8500081B850008DFF80CD000F054F80048004781370108003B0020EA
:208500000648804706480047FEE7FEE7FEE7FEE7FEE7FEE7FEE7FEE7FEE7FEE7C90B0108E2
:20852000ED840008202A04DB203A21FA02F00021704721FA02F3D040C2F120029140084349
:208540001946704740EA01039B0703D009E008C9121F08C0042AFAD203E011F8013B00F895
:20856000013B521EF9D27047D2B201E000F8012B491EFBD270470022F6E710B513460A46EC
:2085800004461946FFF7F0FF204610BD421C10F8011B0029FBD1801A70470000064C074DAC
:2085A00006E0E06840F0010394E8070098471034AC42F6D3FFF79EFF98570108B857010859
:2085C00070B58C1810F8015B15F0070301D110F8013B2A1106D110F8012B03E010F8016BAC
:2085E00001F8016B5B1EF9D12B0705D40023521E0DD401F8013BFAE710F8013BCB1A921C67
:2086000003E013F8015B01F8015B521EF9D5A142D8D3002070BD000070B5044600688168E2
:20862000C943C9071CD1816821F00101816004F02FFE05460FE000BF04F02AFE401B0228D9
:2086400009D9A06A40F01000A062E06A40F00100E062012070BD20688068C043C007EBD0EC
:20866000002070BDF8B500260446009600688168C943C90728D0816841F00101816013487D
:2086800013490068B0FBF1F000E0401E00900028FBD104F0FDFD054611E000BF04F0F8FDF6
:2086A000401B02280BD9A06A40F01000A062E06A40F00100E06284F824600120F8BD2068EA
:2086C0008068C043C007E9D10020F8BD8400002040420F0010B500F093F8302000F0A4F808
:2086E000942000F0A1F8D12000F09EF8202000F09BF80B2000F0B2F8812000F095F83F20C1
:2087000000F0ACF8032000F0A9F8F02000F08CF8102000F0A3F8CA2000F086F8002000F06A
:208720009DF8872000F09AF8202000F097F8BC2000F07AF8002000F091F8A62000F074F8C3
:20874000762000F071F8752000F06EF8002000F085F8282000F082F8152000F065F800205E
:2087600000F07CF8FF2000F079F8312000F05CF8322000F059F8002000F070F8022000F063
:208780006DF8012000F06AF8512000F04DF8FB2000F064F8402000F047F8F42000F044F825
:2087A000002000F05BF8002000F058F8002000F055F8002000F052F8002000F04FF80020C8
:2087C00000F04CF8002000F049F8002000F046F8F02000F029F8152000F040F8152000F023
:2087E0003DF8152000F03AF8152000F037F8302000F01AF8BDE81040AF2000F015B80000C6
:2088000010B5084C0020C4F8AC01322004F5D67409F0ACFF01202060BDE81040322009F09C
:20882000A5BF00000000224231B509490020C1F8A801084CC4F8BC010A230122694606489C
:2088400004F5DE7405F094FF0120206038BD00000000224200002142F003002031B509489E
:208860000124C0F8A841084D0020C5F8BC010A2322466946054805F5DE7505F079FF2C606C
:2088800038BD00000000224200002142F003002000F0B2B800F0A0BD012000F03BBF012036
:2088A00000F0BCBF012001F0BBB80000104810B5008800EB40010F4800EB8110827BC17BEB
:2088C00002EBC20303EB021201EB8201A1F58061C33908D08721084A00201318401C5970C0
:2088E0000428FADB10BD406906F040FDC1B2F2E7900000202C060020EC12002070B5274DC9
:2089000004464FF0000649B114E001221146284604F0B8FC642009F03FFF761CA642F4D34E
:2089200034E001221146284604F0ACFC642009F033FF761CA642F4D300220121284604F009
:20894000A1FC642009F012FF002608E001221146284604F097FC642009F01EFF761CA6425B
:20896000F4D300220121284604F08CFC642009F0FDFE002608E001221146284604F082FC22
:20898000642009F009FF761CA642F4D32846BDE870400022012104F075BC0000000801409C
:2089A000FEE7000008B500BF0948406940F04000074948610846406900F04000009000BF7D
:2089C00000BF044804490860084604F087F808BD00100240003002408800002008B10349E0
:2089E00000E00349034A11607047000075AE00086DAE00086403002038B501F093FE6946E3
:208A00000B4801F07FFA00240CE01DF80400C12803D094210748015502E0002105480155B4
:208A2000601CC4B2042CF0DB00F048FE38BD000012513A80ED12002010B508F0F1F8192003
:208A400009F094FE10BD00002DE9F0470746884691461C462146F84801F026FB0A2009F041
:208A60009BFE2146202001F083FF0A2009F094FE38042246002101F0CBFC0A2009F08CFE64
:208A800022460021084601F0C3FC0A2009F084FE22460021084601F0BBFC0A2009F07CFE8E
:208AA00022460021084601F0B3FC0A2009F074FE22460021084601F0ABFC0A2009F06CFEAE
:208AC00022460021084601F0A3FC0A2009F064FE34B1012C08D0022C0BD0032C13D10DE0B7
:208AE0000020D64908600EE00020D449091F086009E00020D1490839086004E00020CF492C
:208B00000C39086000BF00BF022009F045FE00253DE034B1012C08D0022C0BD0032C12D185
:208B20000DE00020C64908600DE00020C449091F086008E00020C2490839086003E0002048
:208B4000C049086000BF00BF022009F025FE34B1012C08D0022C0BD0032C12D10DE00120D5
:208B6000B74908600DE00120B549091F086008E00120B3490839086003E00120B1490860DD
:208B800000BF00BF022009F007FE681CC5B2202DBFDB08EBC94600257CE006F00100D8B152
:208BA00034B1012C08D0022C0BD0032C13D10DE00120A24908600EE00120A049091F0860C6
:208BC00009E001209D490839086004E001209B490C39086000BF1BE034B1012C08D0022C94
:208BE0000BD0032C13D10DE00020944908600EE000209249091F086009E000208F4908399A
:208C0000086004E000208D490C39086000BF00BF022009F0C1FD34B1012C08D0022C0BD01B
:208C2000032C12D10DE00020854908600DE000208349091F086008E00020814908390860FB
:208C400003E000207F49086000BF00BF022009F0A3FD34B1012C08D0022C0BD0032C12D1A3
:208C60000DE00120764908600DE001207449091F086008E0012072490839086003E00120F3
:208C80007049086000BF00BF022009F085FD7608681CC5B2202D80DB34B1012C08D0022C5F
:208CA0000BD0032C12D10DE00020654908600DE000206349091F086008E000206049083969
:208CC000086003E000205F49086000BF00BF022009F062FD34B1012C08D0022C0BD0032CFF
:208CE00012D10DE00120564908600DE001205449091F086008E0012051490839086003E012
:208D000001205049086000BF00BF022009F044FD34B1012C08D0022C0BD0032C12D10DE065
:208D20000020474908600DE000204549091F086008E0002042490839086003E00020414927
:208D4000086000BF00BF022009F026FD34B1012C08D0022C0BD0032C12D10DE0012038495B
:208D600008600DE001203649091F086008E0012033490839086003E001203249086000BF9A
:208D800000BF022009F008FD0A2009F005FD22460021084601F03CFB0A2009F0FDFC02268C
:208DA000002583E006F00100D8B134B1012C08D0022C0BD0032C13D10DE001201F490860C7
:208DC0000EE001201D49091F086009E001201B490839086004E0012018490C39086000BFA5
:208DE0001BE034B1012C08D0022C0BD0032C13D10DE00020114908600EE000200F49091F15
:208E0000086009E000200D490839086004E000200A490C39086000BF00BF022009F0BCFC8D
:208E200034B1012C10D0022C12D0032C19D114E000200349086014E012513AB0A401224205
:208E4000948121428881224200208B49086008E000208949091F086003E00020874908602C
:208E600000BF00BF022009F097FC34B1012C09D0022C0BD0032C12D10DE001207E49091DC5
:208E800008600CE001207C49086008E001207A49091F086003E001207849086000BF00BF29
:208EA000022009F079FC7608681CC5B2202DFFF679AF34B1012C08D0022C0BD0032C13D139
:208EC0000DE000206E4908600EE000206C49091F086009E000206A490839086004E00020AA
:208EE00067490C39086000BF00BF022009F054FC00253DE034B1012C09D0022C0BD0032CC7
:208F000012D10DE000205C49091D08600CE000205949086008E000205749091F086003E0FD
:208F200000205649086000BF00BF022009F034FC34B1012C09D0022C0BD0032C12D10DE04E
:208F400001204D49091D08600CE001204A49086008E001204849091F086003E00120474906
:208F6000086000BF00BF022009F016FC681CC5B2202DBFDB34B1012C09D0022C0BD0032CD9
:208F800012D10DE000203C49091D08600CE000203949086008E000203749091F086003E0DD
:208FA00000203649086000BF00BF022009F0F4FB34B1012C09D0022C0BD0032C12D10DE02F
:208FC00001202D49091D08600CE001202A49086008E001202849091F086003E00120274906
:208FE000086000BF00BF022009F0D6FB34B1012C09D0022C0BD0032C12D10DE000201E4925
:20900000091D08600CE000201B49086008E000201949091F086003E000201849086000BF65
:2090200000BF022009F0B8FB34B1012C09D0022C0BD0032C12D10DE001200F49091D0860A9
:209040000CE001200C49086008E001200A49091F086003E001200949086000BF00BF0220FC
:2090600009F09AFB00F0C6FA01200AF0FFFAFFF7E3FCBDE8F08700009081214288812242CC
:20908000A40122422DE9F047CCB0CD48807800F0070ABAF1000F06D0BAF1020F06D0BAF123
:2090A000040F09D105E040F2A17609E040F6427606E040F6723603E000204CB0BDE8F087DF
:2090C00000BF40F2DE3070434FF47A71B0FBF1F01FFA80F840F2F2307043B0FBF1F01FFAE7
:2090E00080F9002466E101F01DFB002509E13F204AA9085500204BA9085585F004024BA8E6
:20910000005D80F0200123465046FFF79DFCAD4850F8240021A941F8240085F004024AA8DE
:20912000005D80F0200123465046FFF78DFCA54850F8240025A941F8240025A850F8240006
:20914000B0427DD921A850F82400B04278D22EE04AA9095D4BAA125D881800EBD071C1F30B
:20916000470149AA115585F0040249A8005D80F0200123465046FFF767FC924850F8240056
:20918000B0420AD249A8005D4BA908558D4850F8240021A941F8240009E049A8005D4AA9D0
:2091A0000855884850F8240025A941F824004BA8015D4AA8005D401E8142C9DB21AA52F871
:2091C0002420901B25AA52F82420911B002901DB0A4600E04A42002801DB034600E0434224
:2091E0009A421DDD21A850F8240029A901EB441141F825004BA8005D11A901EB041121F8CF
:20920000150021A951F82410881B002801DB014600E0414201AA02EB041222F815106EE066
:2092200025A850F8240029A901EB441141F825004AA8005D11A901EB041121F8150000E06C
:209240000EE025A951F82410881B002801DB014600E0414201AA02EB041222F815104EE069
:2092600021AA52F82420901B25AA52F82420911B002901DB0A4600E04A42002801DB0346D3
:2092800000E043429A421DDD21A850F8240029A901EB441141F825004BA8005D11A901EBF7
:2092A000041121F8150021A951F82410881B002801DB014600E0414201AA02EB041222F80B
:2092C00015101CE025A850F8240029A901EB441141F825004AA8005D11A901EB041121F8A0
:2092E000150025A951F82410881B002801DB014600E0414201AA02EB041222F81510681C4C
:20930000C5B2082DFFF6F3AE002701250EE001A800EB041030F8150001A901EB041131F817
:209320001710884200DA2F46681CC5B2082DEEDB29A800EB441050F82700224941F82400AD
:2093400029A800EB441050F8270040452AD929A800EB441050F82700484523D201201A4981
:20936000087011A800EB041010F8170080F020001649085587F00400C006000E1449085549
:20938000104850F8240000034FF47A71B0FBF1F00C4941F82400204609F0A8FF00210D481E
:2093A000015502E090210B48015500F087F9601CC0B20446042CFFF696AE00BF7DE60000E8
:2093C0001C260020101400209E0000203C03002040030020ED12002010B500203249C860C0
:2093E00088604860086009F02FFFFFF74BFE09F093FC2E48407840B12C48807828B12B48B0
:20940000C07810B12948007948B901F08BF9012001F0D4F901F07AFB002000F001FB234837
:20942000407840B12148807828B12048C07810B11E48007920B901F099F9002000F06AF93A
:209440001A48407840B11948807828B11748C07810B11648007928B9002001F0AFF90020E6
:2094600000F0DCF91148407840B11048807828B10E48C07810B10D48007988B90C480088C2
:2094800000EB40000B4901EB801090F84400C0F3C01028B1022001F091F9022000F0BEF943
:2094A00000F00CF910BD000010140020EC120020900000202C06002070B504464A4800681D
:2094C00020F07F4040F08840474908600846406820F0FF0040F04400486008040861002512
:2094E00045E020784006000E207060784006000E6070A0784006000EA070E0784006000EA7
:20950000E0704FF46810394908604FF4802038490860022009F040F93A20344908600420D3
:2095200033490860022009F037F92F48806800F4007010B12078401C20702B48806800F4A5
:20954000807010B16078401C60702748806800F0800010B1A078401CA0702348806800F007
:20956000400010B1E078401CE070681CC5B2082DB7DB4FF468101D4908604FF480201C4953
:209580000860022009F008F93A2018490860042017490860022009F0FFF84FF4681013490F
:2095A00008604FF4802012490860022009F0F4F83A200E49086004200D490860022009F080
:2095C000EBF80948006820F07F4040F08850064908600846406820F0FF0040F01100486073
:2095E0008814086170BD000000100140100C01401014014010B507F04BFB142009F0B6F849
:2096000010BD000070B50446002526E004F0800020B14FF470702649086103E04FF07070A1
:2096200023490861022009F0B7F84FF46810214908604FF4802020490860022009F0ACF88B
:209640003A201C49086004201B490860022009F0A3F86006040E681CC5B2082DD6DB4FF4A1
:209660006810144908604FF4802013490860022009F092F83A200F49086004200E49086064
:20968000022009F073F84FF468100A4908604FF4802009490860022009F07EF83A200549F8
:2096A0000860042004490860022009F075F870BD00100140100C01401014014010B54FF09D
:2096C00070700F4908614FF468100E4908604FF480200D49086000200C4908601E2009F0BA
:2096E0003AF801200A49C1F88801142009F033F800200649303908600A2009F037F810BDCB
:2097000000100140100C014010140140B8012242000022427CB50646002001900090002EC9
:209720004AD16946394800F0EDFB642009F034F84FF4006000F036FE01A8FFF7BDFE6420B8
:2097400009F02AF8002435E044F4406000F02AFE01A8FFF7B1FE00250DE001A8405D2C49AA
:20976000095D884205D02B48405D10B9942129484155681CC5B2042DEFDB9DF80400244953
:20978000095D884214D09DF805002149095D88420ED09DF806001E49095D884208D09DF804
:2097A00007001B49095D884202D0FFF787FF7CBD601CC4B2402CC7DB012E25D16946134858
:2097C00000F0A0FB642008F0E7FFF00200F0EAFD01A8FFF771FE642008F0DEFF00240CE05C
:2097E00044F4406000F0DEFD01A8FFF765FE9DF8040009490855601CC4B2402CF0DB4020F3
:209800000AF06EFBFFF75AFF00BFD0E712513A841C270020ED1200201C160020F0B589B04D
:20982000074600200090002F60D100255CE02946754800F039FC2946002001F099F80026E2
:209840001CE0294601A800F057FA002412E001A800EBC500005D022101FB06416B4A515C1F
:20986000884205D06A48405D10B9942168484155601CC4B2082CEADB301DC6B2102EE0DB8D
:209880006448405D614981F834006348405D81F8360029465C4800F007FC2946142001F097
:2098A00067F814261CE0294601A800F025FA002412E001A800EBC500005D022101FB0641BA
:2098C000524A515C884205D05148405D10B994214F484155601CC4B2082CEADB301DC6B20F
:2098E0001C2EE0DB681CC5B2042DA0DB012F3AD16946454800F006FB002000F0EBFF002634
:209900001FE001A800F040F9002508E001A8405D022101FB0651414A5054681CC5B2082D4E
:20992000F4DB102E0BDA002407E0002130194000401C3A4A1154601CC4B2042CF5DB301DFC
:20994000C6B2202EDDDB3548807F00F0010038B13248807F20F00100304988770120C877D1
:2099600040200AF0D9FA022F4CD12848007C40F00300264908746946234800F0C3FA082073
:2099800000F0A8FF01A800F0FFF8002438E0002511E001A800EBC500015D04F110001B4A2D
:2099A000105C814205D01A48405D10B9942118484155681CC5B2042DEBDB01A8015D04F142
:2099C0001000124A105C814218D003A8015D04F11000105C814211D005A8015D04F11000D6
:2099E000105C81420AD007A8015D04F11000105C814203D0FFF762FE09B0F0BD601CC4B29C
:209A0000082CC4DB00BFF7E712513A801C260020ED1200203C030020400300201C16002024
:209A20002DE9F0478AB08146002001904FF0040A5148008810B94FF4803806E04E480088F1
:209A4000401E4FF4801101EB4048202102A8FEF792FDB9F1000F61D101A9484800F052FA90
:209A6000002000F037FF002656E04FF400624449404606F063FA002547E002A800F084F8D7
:209A800000243EE0002712E002A800EBC700005D022101FB05413A4A515C884205D03948FC
:209AA000C05D10B993213748C155781CC7B2042FEADB02A8005D022101FB0541304A515CDF
:209AC00088421CD004A8005D022101FB0541515C884214D006A8005D022101FB0541515CEA
:209AE00088420CD008A8005D022101FB0541515C884204D0FFF7E2FD0AB0BDE8F087601CDC
:209B0000C4B2082CBEDB281D85B2B5F5806FB4DB08F50068701CC6B25645A6DBB9F1010F1F
:209B200028D100F0FFFD01A9144800F0EBF9002000F0D0FE00261BE0002510E002A800F0B8
:209B400023F8002407E002A8005D04EB45010C4A5054601CC4B2082CF5DB281D85B2B5F58D
:209B6000806FEBDB4FF400600AF0BAF9701CC6B2042EE1DB00BFBFE79000002012513AC07C
:209B80001C160020ED12002070B505465748006820F07F4040F0884054490860084640681B
:209BA00020F0FF0040F04400486008040861002460E000265AE0285D4010285505F10800F1
:209BC000005D411005F1080001550830005D411005F1100001550830005D411005F118004D
:209BE00001554FF46810424908604FF4802041490860022008F0D0FD3C48806800F40070D5
:209C000010B1285D803028553848806800F4807038B105F10800005D8030C1B205F1080020
:209C200001553248806800F0800038B105F11000005D8030C1B205F1100001552B488068D6
:209C400000F0400038B105F11800005D8030C1B205F1180001553A20254908600420254937
:209C60000860022008F098FD701CC6B2082EA2DB601CC4B2082C9CDB4FF468101C490860F1
:209C80004FF480201B490860022008F085FD3A2017490860042017490860022008F07CFDD8
:209CA0004FF46810124908604FF4802011490860022008F071FD3A200D49086004200D4967
:209CC0000860022008F068FD0848006820F07F4040F08850054908600846406820F0FF0053
:209CE00040F0110048608814086170BD00100140100C0140101401402DE9FC4106460C4645
:209D00000020009001907C48006820F07F4040F08840794908600846406820F0FF0040F0B0
:209D20004400486008040861002558E0002752E006EBC400405D401006EBC401485534B132
:209D4000012C08D0022C0BD0032C12D10DE000206A4908600DE000206849091F086008E085
:209D6000002066490839086003E000206449086000BF00BF022008F00FFD5F4880684FF4DD
:209D800000712141084030B106EBC400405D803006EBC401485534B1012C08D0022C0BD07F
:209DA000032C12D10DE00120544908600DE001205249091F086008E00120504908390860FA
:209DC00003E001204E49086000BF00BF022008F0E3FC781CC7B2082FAADB681CC5B2082D10
:209DE000A4DB34B1012C08D0022C0BD0032C12D10DE00020414908600DE000203F49091F23
:209E0000086008E000203D490839086003E000203B49086000BF00BF022008F0BDFC34B17E
:209E2000012C08D0022C0BD0032C12D10DE00120324908600DE001203049091F086008E012
:209E400001202E490839086003E001202C49086000BF00BF022008F09FFC34B1012C08D0C3
:209E6000022C0BD0032C12D10DE00020234908600DE000202149091F086008E000201F496F
:209E80000839086003E000201D49086000BF00BF022008F081FC34B1012C08D0022C0BD040
:209EA000032C12D10DE00120144908600DE001201249091F086008E00120104908390860B9
:209EC00003E001200E49086000BF00BF022008F063FC0948006820F07F4040F088500649E9
:209EE00008600846406820F0FF0040F01100486088140861BDE8FC8100100140948121421C
:209F00008881224270B506460C464FF46810634908604FF4802062490860642008F03CFC98
:209F2000642008F039FC3A205C49086004205C490860642008F030FC002525E006F001000F
:209F400020B14FF470705749086103E04FF0707054490861022008F01FFC4FF468104F4974
:209F600008604FF480204E490860022008F014FC3A204A490860042049490860022008F0E0
:209F80000BFC7608681C85B2202DD7DB4548006820F07F4040F088404249086008464068DD
:209FA00020F0FF0040F04400486008040861002545E020784006000E207060784006000E0F
:209FC0006070A0784006000EA070E0784006000EE0703448806800F4007010B12078401CBC
:209FE00020703048806800F4807010B16078401C60702C48806800F0800010B1A078401CC7
:20A00000A0702848806800F0400010B1E078401CE0704FF46810214908604FF4802020490A
:20A020000860022008F0B8FB3A201C49086004201B490860022008F0AFFB681C85B2082D20
:20A04000B7DB1848006820F07F4040F08850154908600846406820F0FF0040F0110048601B
:20A0600088140861002515E04FF468100B4908604FF480200A490860022008F08DFB3A20B0
:20A0800006490860042006490860022008F084FB681C85B2B5F5007FE6DB70BD100C014066
:20A0A00010140140001001402DE9F04106460C46002734B1012C08D0022C0BD0032C12D1D9
:20A0C0000DE00020B34908600DE00020B149091F086008E00020AF490839086003E00020CC
:20A0E000AD49086000BF00BF642008F055FB642008F052FB34B1012C08D0022C0BD0032CCD
:20A1000012D10DE00120A34908600DE00120A149091F086008E001209E490839086003E0F6
:20A1200001209D49086000BF00BF642008F034FB00257CE006F00100D8B134B1012C08D09C
:20A14000022C0BD0032C13D10DE00120934908600EE001209149091F086009E001208F4936
:20A160000839086004E001208C490C39086000BF1BE034B1012C08D0022C0BD0032C13D1EF
:20A180000DE00020854908600EE000208349091F086009E0002081490839086004E0002092
:20A1A0007E490C39086000BF00BF022008F0F4FA34B1012C08D0022C0BD0032C12D10DE0B3
:20A1C0000020744908600DE000207249091F086008E000206F490839086003E000206E49BF
:20A1E000086000BF00BF022008F0D6FA34B1012C08D0022C0BD0032C12D10DE001206549CE
:20A2000008600DE001206349091F086008E0012060490839086003E001205F49086000BF5E
:20A2200000BF022008F0B8FA7608681C85B2202D80DB5B48006820F07F4040F0884058493F
:20A2400008600846406820F0FF0040F04400486008040861002545E07806070E4F488038D4
:20A26000006808B1781CC7B234B1012C08D0022C0BD0032C12D10DE00020464908600DE0BA
:20A2800000204449091F086008E0002041490839086003E000204049086000BF00BF0220B2
:20A2A00008F07AFA34B1012C08D0022C0BD0032C12D10DE00120374908600DE001203549AB
:20A2C000091F086008E0012032490839086003E001203149086000BF00BF022008F05CFAED
:20A2E000681C85B2082DB7DB2D48006820F07F4040F088502A4908600846406820F0FF0048
:20A3000040F0110048608814086100253DE034B1012C08D0022C0BD0032C12D10DE00020FB
:20A320001C4908600DE000201A49091F086008E0002018490839086003E000201649086074
:20A3400000BF00BF022008F027FA34B1012C08D0022C0BD0032C12D10DE001200D49086073
:20A360000DE001200B49091F086008E0012009490839086003E001200749086000BF00BFAD
:20A38000022008F009FA681C85B2B5F5007FBEDBBDE8F0819481214288812242A40122421F
:20A3A0000010014070B50446002528E004F4006020B14FF470701349086103E04FF070709D
:20A3C00010490861022008F0E7F94FF468100E4908604FF480200D490860022008F0DCF9B7
:20A3E0003A2009490860042008490860022008F0D3F94FF6FF7000EA4404681CC5B20C2D6C
:20A40000D4DB70BD00100140100C0140101401402DE9F04106460F46144600257CE006F094
:20A420000100D8B134B1012C08D0022C0BD0032C13D10DE00120B84908600EE00120B64907
:20A44000091F086009E00120B3490839086004E00120B1490C39086000BF1BE034B1012C45
:20A4600008D0022C0BD0032C13D10DE00020AA4908600EE00020A849091F086009E00020E8
:20A48000A5490839086004E00020A3490C39086000BF00BF022008F07FF934B1012C08D08E
:20A4A000022C0BD0032C12D10DE000209B4908600DE000209949091F086008E000209749C1
:20A4C0000839086003E000209549086000BF00BF022008F061F934B1012C08D0022C0BD0A5
:20A4E000032C12D10DE001208C4908600DE001208A49091F086008E001208849083908600B
:20A5000003E001208649086000BF00BF022008F043F97608681CC5B2202D80DB0A2008F0E9
:20A520003BF900257CE007F00100D8B134B1012C08D0022C0BD0032C13D10DE00120764912
:20A5400008600EE001207449091F086009E0012071490839086004E001206F490C39086060
:20A5600000BF1BE034B1012C08D0022C0BD0032C13D10DE00020684908600EE00020664938
:20A58000091F086009E0002063490839086004E0002061490C39086000BF00BF022008F0DA
:20A5A000FBF834B1012C08D0022C0BD0032C12D10DE00020594908600DE000205749091FB7
:20A5C000086008E0002055490839086003E000205349086000BF00BF022008F0DDF834B16B
:20A5E000012C08D0022C0BD0032C12D10DE001204A4908600DE001204849091F086008E01B
:20A60000012046490839086003E001204449086000BF00BF022008F0BFF87F08681CC5B217
:20A62000202D80DB34B1012C08D0022C0BD0032C12D10DE00020394908600DE000203749E9
:20A64000091F086008E0002034490839086003E000203349086000BF00BF022008F09CF829
:20A6600034B1012C08D0022C0BD0032C12D10DE001202A4908600DE001202849091F0860DD
:20A6800008E0012025490839086003E001202449086000BF00BF022008F07EF834B1012CA1
:20A6A00008D0022C0BD0032C12D10DE000201B4908600DE000201949091F086008E00020C7
:20A6C00016490839086003E000201549086000BF00BF022008F060F834B1012C08D0022CA1
:20A6E0000BD0032C12D10DE001200C4908600DE001200A49091F086008E001200749083917
:20A70000086003E001200649086000BF00BF022008F042F8BDE8F081A401224294812142AD
:20A720008881224210B500200B490860322008F012F801200949C1F8B8014FF4707008495E
:20A7400008613A2007490860042007490860052008F00CF810BD0000880122420000224263
:20A7600000100140100C0140101401401CB500200190009069460F48FFF7C4FB642008F07D
:20A780000BF84FF41860FFF70DFE01A8FEF794FE642008F001F8002409E044F42060FFF79A
:20A7A00001FE0549085DFEF72DFF601CC4B2402CF3DB1CBD12513A841C270020FEB506463E
:20A7C00000200090002E51D100254DE03C48C07F00F0010028B13A48807F40F00100384967
:20A7E0008877002409E0374830F8140001126000401C334A1154601CC4B2102CF3DB294676
:20A800003148FFF751FC2946002000F0B1F8002408E02B49022202FB0410294600F014FA32
:20A82000201DC4B2102CF4DB2848405D244981F834002748405D81F8360029462248FFF7A9
:20A8400033FC2946142000F093F8142408E01C49022202FB0410294600F0F6F9201DC4B2F0
:20A860001C2CF4DB681CC5B2042DAFDB012E12D1002404E0002001A90855601CC4B2082CA4
:20A88000F8DB69461048FFF73DFB082000F022F801A800F075F9022E10D10948007C40F069
:20A8A00003000749087469460748FFF72BFB082000F010F80248103000F062F9FEBD0000FF
:20A8C0001C2600204403002012513AB03C0300204003002070B50546002425E005F0010011
:20A8E00020B14FF470701F49086103E04FF070701C490861022007F04FFF4FF468101A493E
:20A9000008604FF4802019490860022007F044FF3A2015490860042014490860022007F0A4
:20A920003BFF6D10601CC4B20C2CD7DB002415E04FF468100C4908604FF480200B49086054
:20A94000022007F029FF3A2007490860042007490860022007F020FF601CC4B2082CE7DBA8
:20A9600070BD000000100140100C01401014014070B506460C4600257CE006F00100D8B1D3
:20A9800034B1012C08D0022C0BD0032C13D10DE001205B4908600EE001205949091F086056
:20A9A00009E0012056490839086004E0012054490C39086000BF1BE034B1012C08D0022C24
:20A9C0000BD0032C13D10DE000204D4908600EE000204B49091F086009E000204849083971
:20A9E000086004E0002046490C39086000BF00BF022007F0D1FE34B1012C08D0022C0BD056
:20AA0000032C12D10DE000203E4908600DE000203C49091F086008E000203A4908390860D2
:20AA200003E000203849086000BF00BF022007F0B3FE34B1012C08D0022C0BD0032C12D1DD
:20AA40000DE001202F4908600DE001202D49091F086008E001202B490839086003E00120CA
:20AA60002949086000BF00BF022007F095FE7610681CC5B20C2D80DB00253DE034B1012C69
:20AA800008D0022C0BD0032C12D10DE000201D4908600DE000201B49091F086008E00020DF
:20AAA00018490839086003E000201749086000BF00BF022007F070FE34B1012C08D0022CA4
:20AAC0000BD0032C12D10DE001200E4908600DE001200C49091F086008E00120094908392D
:20AAE000086003E001200849086000BF00BF022007F052FE681CC5B2082DBFDB70BD000053
:20AB0000A40122429481214288812242F8B50020009004271748008808B9BC0306E0154815
:20AB20000088401E4FF4801101EB404469461248FFF7E8F90020FFF7CDFE002516E04FF4CC
:20AB400000620E49204605F0F9F9002607E00B49022202FB061000F013F8301D86B2B6F52C
:20AB6000806FF4DB04F50064681CC5B2BD42E6DBF8BD00009000002012513AF01C160020BB
:20AB80002DE9F041054600242CE02E5D002725E006F0010020B14FF470702849086103E094
:20ABA0004FF0707025490861022007F0F5FD4FF46810234908604FF480202249086002202D
:20ABC00007F0EAFD3A201E49086004201D490860022007F0E1FD7610781CC7B2082FD7DB09
:20ABE000601CC4B2082CD0DB4FF46810144908604FF4802013490860022007F0CDFD3A2020
:20AC00000F49086004200F490860022007F0AEFD4FF468100A4908604FF4802009490860B9
:20AC2000022007F0B9FD3A2005490860042005490860022007F0B0FDBDE8F081001001402E
:20AC4000100C0140101401402DE9F04106460C46002588E0775D4FF000087EE007F001004F
:20AC6000D8B134B1012C08D0022C0BD0032C13D10DE001207A4908600EE001207849091F14
:20AC8000086009E0012076490839086004E0012073490C39086000BF1BE034B1012C08D0C8
:20ACA000022C0BD0032C13D10DE000206C4908600EE000206A49091F086009E00020684943
:20ACC0000839086004E0002065490C39086000BF00BF022007F060FD34B1012C08D0022C60
:20ACE0000BD0032C12D10DE000205E4908600DE000205C49091F086008E00020594908391E
:20AD0000086003E000205849086000BF00BF022007F042FD34B1012C08D0022C0BD0032CC7
:20AD200012D10DE001204F4908600DE001204D49091F086008E001204A490839086003E0C6
:20AD400001204949086000BF00BF022007F024FD7F1008F1010000F0FF08B8F1080FFFF6EB
:20AD60007DAF681CC5B2082DFFF674AF34B1012C08D0022C0BD0032C12D10DE000203949CB
:20AD800008600DE000203749091F086008E0002034490839086003E000203349086000BF5A
:20ADA00000BF022007F0F8FC34B1012C08D0022C0BD0032C12D10DE001202A4908600DE0EC
:20ADC00001202849091F086008E0012025490839086003E001202449086000BF00BF0220B8
:20ADE00007F0C4FC34B1012C08D0022C0BD0032C12D10DE000201B4908600DE0002019494F
:20AE0000091F086008E0002016490839086003E000201549086000BF00BF022007F0BCFC7A
:20AE200034B1012C08D0022C0BD0032C12D10DE001200C4908600DE001200A49091F086051
:20AE400008E0012007490839086003E001200649086000BF00BF022007F09EFCBDE8F081EE
:20AE6000A4012242948121428881224210B507F071FC10BD10B5032007F08EFC10BD0000B8
:20AE800010B507F079FF00F02BF8002000F022FB00F0D8F900F09CF9002000F01BFB1020A2
:20AEA00000F0C0F900F094F90C48417829B1817819B1C17809B1007960B907F02DFF0020FA
:20AEC00000F008FB00F02AFC07F0F0FF00F008FA00F07EF9BDE8104000F07AB9EC120020F4
:20AEE00070B50E4C04200E4D6070012000F0F2FA00F0A8F9687868B1A87858B1E87848B17B
:20AF0000287938B100F064F96078801CC0B260700A28EAD3BDE8704000F05AB92C0300200E
:20AF2000EC1200202DE9F74F17468846A525009E00F0B6FBA2494FF468100860A14B4FF426
:20AF400080221A60DFF8809200249A46E80702D04FF4707001E04FF070709C490861D9F8E5
:20AF600008008047DFF858B23A20CBF800000420CAF80000D9F8080080474FF46810CBF800
:20AF800000004FF48020CAF80000D9F808006D088047641CE4B2082CD8D38C494FF470700A
:20AFA0000861894DA8688047854C4FF03A0BC4F800B00420D146CAF80000A86880474FF4A3
:20AFC000681020604FF4802AC9F800A0A8688047C4F800B00420C9F80000A86880474FF4E9
:20AFE00068102060C9F800A0A8688047C4F800B00420C9F80000A86880474FF468102060BE
:20B00000C9F800A0A8688047C4F800B00420C9F80000A86880474FF468102060C9F800A034
:20B02000A8688047C4F800B00420C9F80000A86880474FF468102060C9F800A0A86880479E
:20B04000614C0025CA46F80702D04FF4707001E04FF070705D490861A0688047DFF8609174
:20B060003A20C9F800000420CAF80000A06880474FF46810C9F800004FF48020CAF80000DF
:20B08000A0687F0880476D1CEDB2102DDBD34D460027D1464FF03A0B5FEAC87002D04FF45C
:20B0A000707001E04FF0707048490861A0688047C5F800B00420C9F80000A06880474FF483
:20B0C000681028604FF4802AC9F800A0A0684FEA580880477F1CFFB2062FDDD3C846002754
:20B0E0004FF00409F00702D04FF4707001E04FF0707036490861A0688047C5F800B0C8F834
:20B100000090A06880474FF468102860C8F800A0A068760880477F1CFFB2082FE2D3009810
:20B1200080EA101080EA900080EA5000C00702D04FF4707001E04FF0707024490861A06837
:20B1400080473A202E46286004204746C8F80000A06880474FF468153560C7F800A0A068D6
:20B1600080471A494FF470700861A0688047A9463546D346464600274FF03A0A4FF0040846
:20B18000C5F800A0C6F80080A0688047C5F80090C6F800B0A06880477F1CFFB2032FEFD37B
:20B1A000C5F800A0C6F80080A0688047C5F80090C6F800B0A0688047BDE8FE4F00F092BA6D
:20B1C000100C0140101401402C0300200010014070B510494FF4681008600F494FF4802031
:20B1E00008600E494FF0707008610D4C0025C4F8B8511E2004F5C47407F0ADFA0120206017
:20B20000142007F0A8FA2560BDE87040192007F0ADBA0000100C01401014014000100140DD
:20B220000000224210B50446062007F09FFA002221461046FFF776FEBDE810400F2007F081
:20B2400095BA00002DE9FC414FF4004220210020FFF768FE684600F07BF801A800F078F8F0
:20B2600000201E496D4601AB044698272A5C872A02D11A5C012A0AD00A185770401CC0B2A3
:20B280000428F3D39DF8000087280BD106E00E1872780AB1012AF1D17470EFE79DF80400AB
:20B2A000012819D09DF80100872803D19DF80500012811D09DF80200872803D19DF806000A
:20B2C000012809D09DF80300872803D19DF80700012801D0FFF77CFFBDE8FC81EC1200200A
:20B2E0002DE9F843002202211046FFF71BFE0024164D6E4693274FF40068684600F028F8F5
:20B300000020315C552903D029184A7802B94F70401C80B20428F4D39DF8000055280FD040
:20B320009DF8010055280BD09DF80200552807D09DF80300552803D0FFF74AFFBDE8F883ED
:20B34000641CA4B24445D8D3F8E70000EC1200202DE9F05F044600F0A3F9052007F01CFA79
:20B36000584D286820F07F4040F088402860686820F0FF0040F04400686028042861052054
:20B3800007F00AFAAB46504E504DDFF8448100274FF03A094FF0040A2078400820706078AC
:20B3A00040086070A0784008A070E0784008E070C6F80090C5F800A0D8F808008047DBF8F8
:20B3C00008105846890502D52178803121708168C90502D56178803161708168090602D5BF
:20B3E000A1788031A1708068400602D5E0788030E0704FF4681030604FF480202860D8F88F
:20B40000080080477F1CFFB2082FC5D3D8F8080044468047C846C6F800905746C5F800A0C3
:20B42000A06880474FF46819C6F800904FF4802AC5F800A0A0688047DBF8001021F07F415E
:20B4400041F08851CBF80010DBF8041021F0FF0141F01101CBF804104FF48051CBF8101006
:20B460004FF07071CBF81010A0688047C6F800802F60A0688047C6F80090C5F800A0A068AB
:20B480008047C6F800802F60A0688047C6F80090C5F800A0A0688047C6F800802F60A068FA
:20B4A0008047C6F80090C5F800A0A0688047C6F800802F60A068804700F014F90020BDE8ED
:20B4C000F09F000000100140100C0140101401402C0300202DE9F14F6C4C4FF46810206032
:20B4E000DFF8ACA14FF480205646CAF80000DFF8A4814FF07077C8F81070642007F04CF9C5
:20B50000654D0020C5F88801322005F5C47507F022F9012028636148407807F027F93A25F9
:20B5200025604FF0040BC6F800B00A2007F034F900243E46B146C8F810600A2007F02CF967
:20B540004FF47077C8F810700A2007F025F9641CE4B20D2CEED30A2007F01EF9564600243A
:20B560004FEA0B0A494D4FF4681028604FF4802030600A2007F010F93A202860C6F800A0C7
:20B580000A2007F009F9641CE4B20D2CEAD30A2007F002F95FF00004C8F810900A2007F08C
:20B5A000FBF8C8F810700A2007F0F6F8641CE4B20D2CF1D3009800284FF00A0015D007F051
:20B5C000D5F800BF314D4FF4681129604FF48020344630604BF25A17002689468046D346AD
:20B5E000380405D54FF4707004E007F0D5F8E9E74FF07070274908610A2007F0CDF84FF07D
:20B600003A0AC5F800A0C4F800B00A2007F0C4F8C5F80090C4F800804FF6FF7000EA4707CB
:20B620000A2007F0B9F8761CF6B2102ED8D30A2007F0B2F8C1464AF21B5700264FF6FF78B3
:20B64000380402D54FF4707001E04FF07070114908610A2007F0A0F8C5F800A0C4F800B06F
:20B660000A2007F099F84FF468102860C4F8009008EA47070A2007F08FF8761CF6B2102E29
:20B68000DED3BDE8F84F1E2007F070B8100C01401014014000100140000022422C030020EA
:20B6A00070B50D4C4FF4707020610C4D3A2028600B4E04203060052007F06EF84FF070707F
:20B6C0002061052007F068F84FF4681028604FF48020306070BD000000100140100C0140DC
:20B6E0001014014010B50A4C4FF07070206109493A200860084904200860052007F04CF8D9
:20B700004FF470702061BDE81040052007F044B800100140100C01401014014070B55525C6
:20B72000002204212846FFF7FDFB0A2007F034F80A2007F031F80A2007F02EF80124E6027B
:20B74000284600F009F80A2007F026F8641CA4B2B442F5D3002070BD2DE9F14F009EFFF780
:20B760009FFF59494FF468100860584B4FF480221A60574CDFF85CA100250F469B464FF053
:20B780003A09F00702D04FF4707001E04FF07070CAF81000A0688047C7F800900420D84648
:20B7A000CBF80000A06880474FF4681038604FF48020C8F80000A068760880476D1CEDB28C
:20B7C000082DDED3009880EA101080EA900080EA5000C00702D04FF4707001E04FF07070F1
:20B7E000CAF81000A06880473E46C7F800904FF004085F46CBF80080A06880474FF4681018
:20B8000030604FF4802BC7F800B0A0688047DAF80000554620F07F4040F08840CAF8000076
:20B82000DAF8040020F0FF0040F04400CAF804004FF08050CAF81000A0688047C6F80090EB
:20B84000C7F80080A06880474FF468103060C7F800B0A0688047286820F07F4040F08850EA
:20B860002860686820F0FF0040F0110068604FF4805028614FF070702861A0688047C6F887
:20B880000090C7F80080A06880474FF468103060C7F800B0A0688047C6F80090C7F80080F4
:20B8A000A06880474FF468103060C7F800B0A0688047C6F80090C7F80080A0688047BDE82F
:20B8C000F84FFFF70FBF0000100C0140101401402C0300200010014000207047002070474D
:20B8E0000020704770B50024064D07E0165D4640F6B2641C55F8266086EA10209C42F5D3B4
:20B90000484070BDAC48010810B500210A464FF4806300BF10F8014B521C21449A42F9D38B
:20B92000084610BD2DE9F8432748294F002501784278DFF8989001EB02218278C078120406
:20B9400002EB006001EB00083878A52801D1002038702048FCF71AFEC1B21E4808F050FA01
:20B9600004461D481D49008800EB400201EB821109EB4040CA7B897B00F59C0001EBC10380
:20B9800003EB011102EB81060422694604F0D6FA9DF80000DDF80110B8F1D70F40EA012045
:20B9A0000FD0B44201D004B10125B44203D10C490968884201D1002D03D0A520387001F07C
:20B9C00029FDBDE8F8830000F87F0008F87B0100F84F0020C0FF0108900000202C060020FD
:20B9E000F8FF0108F0B52B48008800EB40012A4800EB811090F80EE0B0F85C40B0F85EC00D
:20BA0000B0F86020B0F86270B0F85430B0F85660B0F85810B0F85A50BEF10A0F18D0E0B256
:20BA20000CF0FF0400EB0420D2B200EB0240DAB2F3B202EB0322C9B202EB014100EB076008
:20BA400001EB0561421C01D0884220D98920F0BD4FEA0C4C00201CEB040440EB000C10EB5A
:20BA6000040E42EB0C023C0410EB0E0754413204D21840EB000683187141C01841EB0542AB
:20BA80006FEA07012143E1D0C01BA241DED30020F0BD0000900000202C06002010B505F038
:20BAA0002FF8BDE8104005F019B80000014801F027B8000048040020014801F021B800000C
:20BAC00080040020704710B5040016D04FF49E2000EB0431002000F0DDF84FF4602000EBA8
:20BAE0004441012000F0D6F84FF4702000EB4441BDE81040012000F0CDB80021012000F0E2
:20BB0000C9F84FF48031012000F0C4F84FF44031EEE70000F0B5074635A00E4691B007C8EF
:20BB200001AB83E8070035A004AB07C883E8070035A207AB07CA83E8070036A00AAB07C8FC
:20BB400083E8070036A20DAB07CA83E80700002006F0CDFD0C244EB1300909282ED2DFE860
:20BB600000F02D2022242D2D262D2800012F06D0022F06D0032F06D0062F07D105E001ADB8
:20BB800004E004AD02E00AAD00E007AD10232A4605211846009406F065FE1023234A00949B
:20BBA0001CE001AD0AE004AD08E00AAD06E007AD04E006F00F00082800D10DAD10232A46C0
:20BBC00005211846009406F04DFE194A0221304608F05EF9164A1023083A009405217020A2
:20BBE00006F040FE4FF4FA7006F0B5FD11B0F0BD2056444420434845434B20202056505775
:20BC000020434845434B202020464C415348205445535420434F4E4E4543542054455354EE
:20BC2000205245414420434F554E5420EB0000201302002010B5022001F03AFA10BD0000E6
:20BC400000B585B000BF1048806940F004000E4988610846806900F00400009000BF00BF4D
:20BC600002200190094802900120039001A9084801F02AFA02221146072001F099FB07201D
:20BC800001F080FB05B000BD0010024000002110000801402DE9F0410C46074606F0B2FC70
:20BCA00006F0FAFCDFF85C8000221021404601F0E9FA154D27B1012F04D0022F04D11FE0F5
:20BCC000202000E0D82028704FF47A76334601220D490E4802F04CFD022F0AD0200C28702F
:20BCE000200A6870AC70334603220749074802F03FFD4046BDE8F0410122102101F0C2BA9E
:20BD0000C720E0E700080140620200209803002000BFFEE706490020C8610648016941F0C8
:20BD200004010161016941F04001016170470000E0320020002002402DE9F047DFF89C80D3
:20BD4000D8F820104CF250390143CFB2C1F30726C1F307450C0E484600F01EF900283BD193
:20BD60001F49C86101F08AF8002835D1D8F8102042F01002C8F81020FF2F07D0194801886E
:20BD800039430180484600F007F9F8B9FF2E08D01448801C018831430180484600F0FCF88A
:20BDA000A0B9FF2D08D00F48001D018829430180484600F0F1F848B9FF2C07D00948801DE4
:20BDC000018821430180484600F0E6F8D8F8102022F01002C8F81020BDE8F0870020024007
:20BDE000E032002008F8FF1F2DE9F047DFF89C80D8F820104CF250398143CFB2C1F30726C6
:20BE0000C1F307450C0E484600F0C6F800283BD11F49C86101F032F8002835D1D8F81020BE
:20BE200042F01002C8F81020FF2F07D01948018839400180484600F0AFF8F8B9FF2E08D00A
:20BE40001448801C018831400180484600F0A4F8A0B9FF2D08D00F48001D01882940018011
:20BE6000484600F099F848B9FF2C07D00948801D018821400180484600F08EF8D8F8102053
:20BE800022F01002C8F81020BDE8F08700200240E032002008F8FF1F0449A520C96901F08B
:20BEA0000201022900D10020704700000020024070B506464CF25035284600F06DF800282B
:20BEC00020D11149C861114C206940F020002061206940F040002061284600F05DF8216980
:20BEE00021F02001216100280CD1206940F01000206107480680284600F04EF8216921F02B
:20BF00001001216170BD0000E03200200020024000F8FF1F064A0021D16106490A6942F020
:20BF200002020A614861086940F0400008617047E032002000200240044B0022DA61044A5A
:20BF4000136943F00103136101807047E0320020002002400E49C868C2060E4803D5C26946
:20BF600042F00202C261CA68520703D5C26942F00102C261CA69D20707D0C26942F004023C
:20BF8000C261C86920F00100C8611420C860704700200240E032002070B5054601F078F99A
:20BFA0000646114C09E0681C07D025B101F070F9801BA84201D9032070BDE068C007F2D1E3
:20BFC000E068800601D52020E060E068C00605D4E069C00702D1E068400703D5FFF7BAFF5D
:20BFE000012070BD002070BD002002403EB5174B044600250A21186803E0B0FBF1F06D1CDD
:20C00000EDB20028F9D16A462946186807F028FF9DF8000020702E2060709DF80110A170D8
:20C02000E0709DF8020020719DF8030060712020A071002069462D1F05E00A1823181279E6
:20C04000401CDA71C0B2A842F7DB3EBDF8FF010810B504F0EBFCFF2004F014FD0A2006F02C
:20C0600085FBF02004F00EFD0A2006F07FFBBDE81040FF2004F006BD2DE9F05F00263446C7
:20C08000E1B2002007F050FA21040120FFF702FE641CA4B2072CF3D36A4D00244FF48057AC
:20C0A0004FF4402B04F10C00C1B2002007F03CFA0BEB044080463A46624903F03FFF002095
:20C0C000295CFF2904D1401C80B2B842F8D326B141460120FFF7DEFD0026641CA4B2622CB1
:20C0E000E0D34FF000084FF4807904E0B8F1000F01D0552600E0AA2608F1010A0AF0FF0075
:20C10000002107F011FA4F4D00202E54401C80B2FF28FAD900273C464A464A49384606F0F6
:20C120009BFA641CA4B207F58037072CF4D300273C464A464349384603F000FF002007F596
:20C140008037295CB14256D1401C80B2FF28F8D9641CA4B2072CECD3002421040020FFF7DC
:20C1600099FD641CA4B2072CF7D3B8F1000F01D0552400E0AA240AF0FF00002107F0D4F9C8
:20C1800000202C54401C80B2FF28FAD95F460026C84642462B49384606F05EFA761CB6B2DC
:20C1A00007F58037622EF4D35E46002742462549304603F0C3FE002006F58036295CA14251
:20C1C00019D1401C80B2FF28F8D97F1CBFB2622FECD34FF44827002642461A49384606F05C
:20C1E0003BFA42461749384603F0A8FE002029460A5CA24202D06020BDE8F09F401C80B21E
:20C20000FF28F5D9761CB6B207F58037622EE3D300245D464FF4482605EB04410020FFF773
:20C2200039FD06EB04410020FFF734FD641CA4B2622CF1D31FFA8AF8B8F1020FFFF456AFD6
:20C240000020D9E71C1600202DE9F0470D4681460026FF224FF480511048FCF785F94FF4DE
:20C260008067DFF8388014E0BD4201D2ACB200E03C4622460949484603F060FE0020414682
:20C2800003E00A5C401C164480B2A042F9D3A1442D1B002DE8D13046BDE8F0871C160020C8
:20C2A0002DE9F05F0C4607460025FF224FF480512F48FCF759F94FF4803290112C49944283
:20C2C0004ED9924680468946444501D2A6B200E0464632462649384603F030FE0020494675
:20C2E00003E00A5C401C154480B2B042F9D3A41B37445445E8D8DFF87CA04FF4403B74B3E5
:20C300004646B44200D2A6B2BAF800001849324628B1384603F012FE0020494605E058465A
:20C32000F8E70A5C401C154480B2B042F9D33744A41BE4E74E46B44200D2A6B232460C498D
:20C34000384603F0FBFD0020414603E00A5C401C154480B2B042F9D33744A41B02E003E0E0
:20C3600081468846002CE5D12846BDE8F09F00001C160020900000207FB504461022694940
:20C380006846FCF7DFF8E5202070422060707A20A07003F0C3FF644E307803F0FDFD03F0C5
:20C3A00023FF6249002023180A5C401CC0B2DA701028F8D35E480188090AE1740078207530
:20C3C0005C480168090E61750168090CA1750188090AE1750078207657490020421823187A
:20C3E000401C92F8E827C0B25A760C28F6D3534D00203188221801EB410105EB8111095C41
:20C40000401CC0B282F825100E28F2D33088102200EB400005EB801111F80E0F84F8330039
:20C42000487884F8340031F8360F000A84F8350011F8220B84F836000888000A84F837002E
:20C4400011F8040B84F838000888000A84F8390011F8040B84F83A000888000A84F83B00A2
:20C4600011F85E0984F83C0011F8140B84F83D0004F14000FCF766F8308800EB400005EB5A
:20C48000801090F8461084F8501090F8641084F85110806CC4F852000020318801EB410178
:20C4A00005EB811101EB4001B1F84C2004EB400121F8562F328802EB420205EB821202EB8E
:20C4C0004002B2F854200A81328802EB420205EB821202EB4002401CB2F85C20C0B20A8253
:20C4E0000428DAD31649308801EB001100EB4000096805EB801044F86E1F818BA180C18BF1
:20C50000E180018C2181418C618190F8BC10A17390F8BD10E17390F8BE10217490F8BF0099
:20C5200060747FBDC0FF010890000020E0FF0108FC7F0008F8FF010800F0FF1F2C060020A8
:20C5400000130020F8B500250446009590F82400012808D0012084F824002046FCF75CF8DC
:20C56000060002D04BE00220F8BDA06A20F4885040F00200A062022001F038FA2249096896
:20C58000B1FBF0F0400000E0401E00900028FBD12046FCF767F82068816841F008018160C9
:20C5A00000F076FE074604E000F072FEC01B0A2811D8206880680007F6D42068816841F0AD
:20C5C0000401816000F064FE07460EE000F060FEC01B0A2809D9A06A20F0020040F010004F
:20C5E000A06284F824500120F8BD206880684007ECD4A06A20F0020040F00100A06284F831
:20C6000024503046F8BD000084000020F8B50025009590F82420AE46012A1ED0012280F8FC
:20C6200024204A681F244FF47873072A17D20668776B93FAA3FCBCFA8CFC521E02FB0CFC4A
:20C6400004FA0CF4A74393FAA3F3B3FA83F30C685A439440274377632DE00220F8BD066831
:20C660000D2A14D2376B93FAA3FCBCFA8CFCD21F02FB0CFC04FA0CF4A74393FAA3F3B3FAE3
:20C6800083F30C685A4394402743376313E0F76A93FAA3FCBCFA8CFC0D3A02FB0CFC04FA33
:20C6A0000CF4A74393FAA3F3B3FA83F30C685A4394402743F7620A683823072406680A2A08
:20C6C00014D3F76893FAA3FCBCFA8CFC0A3A02FB0CFC04FA0CF4A74393FAA3F3B3FA83F333
:20C6E0008C685A4394402743F76012E0376993FAA3FCBCFA8CFC02FB0CFC04FA0CF4A7432B
:20C7000093FAA3F3B3FA83F38C685A439440274337610A68102A01D0112A20D1124B0268FC
:20C720009A4217D193681B0219D4936843F4000393600968102912D10C490D4A0968B1FBB2
:20C74000F2F101EB8101490000E0491E00910029FBD104E0816A41F020018162012580F8D0
:20C7600024E02846F8BD0000002401408400002040420F000068C06C704700002DE9F04166
:20C7800004004FF0000514D0A06A002628B9E66284F82460204600F08BF82046FBF73CFFA8
:20C7A000A16A01F01001014304D0A06A40F01000A06277E0A16A21F4885141F00201A16281
:20C7C0006268E16902270A43E16897FAA7F70B46B7FA87F7B9400A43A1684FF48077B94253
:20C7E00008D0012906D00021D4F814C0BCF1010F02D00AE03946F7E7F3B1A36A43F02003C3
:20C80000A362E36A43F00103E3622368D3F804C02CF4694C4CEA010CC3F804C021688B681D
:20C82000DFF884C003EA0C0313438B60A168B94210D001290ED016E04FF4604CA3699CFA2D
:20C84000ACFCBCFA8CFC5B1E03FA0CF30B4343F40061DAE74FF47001256991FAA1F1B1FACC
:20C8600081F16D1E8D402168CB6A23F470032B43CB62216889680D4B1940914208D1E662EC
:20C88000A16A21F0020141F00101A162BDE8F081A06A20F0020040F01000A062E06A40F055
:20C8A0000100E0620120F1E7FDF7E1FFFE0E1FFF00B500680A4985B088420FD109488169B4
:20C8C00041F4007181618069694600F400700490032000900190044800F0F6FB05B000BD5D
:20C8E0000024014000100240001001402DE9F84300260D460446009600F0CAFC8046206882
:20C900008168C90508D5A06A40F02000A06284F824600120BDE8F8834168C90503D4C06A6E
:20C9200010F4700F26D0022001F060F838490968B1FBF0F72068036936490B424FEA610133
:20C940004FEAA1121BD1C3684FEA611C13EA0C0F15D103690B4221D1C06810421ED11420D8
:20C960001FE0681C06D045B300F092FCA0EB0800A84222D8206800688007F2D52AE00369BD
:20C980000B4202D1C168114206D0026922490A4206D1C068084203D1542002E0292000E067
:20C9A000FC204743009813E0681C0ED02DB100F06FFCA0EB0800A84207D9A06A40F0040010
:20C9C000A06284F824600320A4E70098401C0090B842E9D321686FF012000860A06A40F4CD
:20C9E0000070A06220688068C0F3424007280CD1E06850B9A06A20F48070A062A06AC004E5
:20CA000003D4A06A40F00100A062002082E7000084000020244992244992240070B5044644
:20CA200090F8240001280DD0012084F824002046FBF718FE02004FF0000005D084F824005F
:20CA4000104670BD022070BDA16A40F20123994341F48071A1621F4D23681F49AB4218D169
:20CA60000E6816F4702F14D0A66A46F48016A6620E68760505D5A66A26F4005646F4805670
:20CA8000A662A66AF6040AD5E66A26F00606E66206E0A66A26F48016A6625E68E9E7E06265
:20CAA00084F824006FF00200186020688368C3F34243072B05D1A84208D1096811F4702F6F
:20CAC00004D0816841F480118160B9E7816841F4A001F9E7002801400424014010B5040018
:20CAE00002D0607910B106E0012010BD00202071204600F004F801206071002010BD70475D
:20CB00002DE9F05FDFF860820446D8F80020DFF858B2954D944E944F0068DFF84C92DFF841
:20CB200048A20BF1080B1C35303644374FF400614FF4004C4FF4002E09F158090AF16C0A5A
:20CB4000584501D1082316E0A84201D1802312E0B04201D10B460EE0B84201D163460AE092
:20CB6000484501D1734606E0504502D14FF4000301E04FF000631A4231D00268D243120791
:20CB80002DD4026822F0080202602068584501D1082114E0A84201D1802110E0B0420ED07B
:20CBA000B84201D161460AE0484501D1714606E0504502D14FF4000101E04FF00061C8F82F
:20CBC0000410606B40F001006063042084F82100002084F82000216B09B1204688476248E0
:20CBE000D0F800C04FF4806120680A010B044FF4802E584502D14FF0040816E0A84202D188
:20CC00004FF0400811E0B04201D188460DE0B84201D1904609E0484501D1F04605E0504583
:20CC200002D14FF4800800E098461CEA080F33D0D0F800C06FEA0C0C5FEA4C7C2CD4D0F8A6
:20CC400000C05FEA8C6C05D4D0F800C02CF0040CC0F800C02068584501D1042113E0A842D5
:20CC600001D140210FE0B0420DD0B84201D1114609E0484501D1714605E0504502D14FF411
:20CC8000800100E0194638484160112084F82100E16A09B120468847334AD2F800C05B4603
:20CCA000206851154FF4005B4FF4003E984202D14FF0020817E0A84202D14FF0200812E064
:20CCC000B04201D188460EE0B84201D1D8460AE0484501D1F04606E0504502D14FF40018C2
:20CCE00001E04FF000781CEA080F3BD0D0F800C06FEA0C0C5FEA8C7C34D4D0F800C05FEA51
:20CD00008C6C05D4D0F800C02CF0020CC0F800C02068984201D1022114E0A84201D12021D0
:20CD200010E0B0420ED0B84201D159460AE0484501D1714606E0504502D14FF4001101E045
:20CD40004FF000715160606B6063012084F82100002084F82000A16A002903D02046BDE858
:20CD6000F05F0847BDE8F09F0000024070B520B190F82110002411B103E0012070BD80F861
:20CD80002040022180F8211003681A6843F6F0718A43D0E901152943D0E9035635432943E2
:20CDA0004569294385692943C5692943114319604463012180F82110002070BD31B500F003
:20CDC00067FA044600F064FA0099001B8842F9D338BD00002DE9F047054626480F46012699
:20CDE000017E01290FD00121814601762868DFF888804CF25034022808D0A2462046FFF7D4
:20CE0000CBF8A8B131E00220BDE8F0872046FFF7C3F808BB0120FEF77DFF2046FFF7BCF82B
:20CE2000D8F81010064621F00401C8F810101CE04FF0FF303860AC6811E02046FFF76AF8FB
:20CE40005046FFF7A9F8D8F81010060021F00201C8F8101001D03C6007E004F58064D5E9CC
:20CE6000020100EB8120A042E7D8002189F818103046C9E7E03200200020024070B5FFF7E3
:20CE80000BF8C5B24CF250363046FFF785F8002818D10D49C8610D4C206940F02000206128
:20CEA000206940F0400020613046FFF775F8216921F020012161002804D12846BDE8704021
:20CEC000FEF7F6BF70BD0000E0320020002002402DE9F0472D4D04460120297E01290ED006
:20CEE0000121297621784FF00007C9070DD060680128A06806D0FEF71FFFE8BB05E0022059
:20CF0000BDE8F087FEF770FFF7E72178890703D5207CFEF7CDFF78BB21781D4E49074CF290
:20CF2000503916D594F811804846FFF735F878B9EF61306940F010003061164948F08800A5
:20CF400008804846FFF728F8316921F01001316190B92178090716D5D4F81480247E4846EA
:20CF6000FFF71AF840B9EF61306940F010003061A8F80040484600E005E0FFF70DF831692E
:20CF800021F0100131612F76BAE70000E03200200020024002F8FF1F0348016941F0800184
:20CFA00001610020704700000020024005480169890505D404498160044981600020704785
:20CFC000012070470020024023016745AB89EFCD2DE9F05F07461C4888460024017E154675
:20CFE0001E46012909D00121814601764CF2503A5046FEF7D1FF18B122E00220BDE8F09F26
:20D00000012F02D0022F00D00427D346DFF83CA0220128463146FBF785FA81B208EB440033
:20D02000FEF78AFF5846FEF7B7FFDAF8102022F00102CAF8102018B9641CE4B2BC42E7D381
:20D04000002289F81820D9E7E03200200020024005480169090605D5044941600449416025
:20D0600000207047012070470020024023016745AB89EFCD10B50446642005F06CFB022CC2
:20D080000FD10948006858B90A2005F06FFB0648006828B90548007880F0010003490870CC
:20D0A00000BF00BF10BD000004012142AE000020044910B50A68024202D00860FFF7DAFF1E
:20D0C00010BD0000140401402DE9F84FDFF890A100220AF1040B144601274FF00F090BF1C4
:20D0E000040E00BF0B6807FA04F52B40AB4274D1DFF870C14E68A6EB0C0866452BD00DDC63
:20D10000032E34D005DC36B3012E19D0022E2FD11BE0112E16D0122E2AD119E0B8F5881F20
:20D1200019D006DCB8F5803F15D0B8F5801F1FD111E0B8F5001F0ED0B8F5041F18D10AE059
:20D14000CA6815E0CA68121D12E0CA6808320FE0CA680C320CE08A682AB1012A4FF008025D
:20D1600003D0456104E0042202E0056100E00022FF2B01D8064601E000F104064FEA8405F5
:20D1800001D9A5F12005D6F800C009FA05F82CEA080C02FA05F54CEA050CC6F800C04D68D2
:20D1A000ED0057D5304DAE6946F00106AE61AD6924F0030605F0010500952C4D06EB050C38
:20D1C000DCF80850A6074FEA167809FA08F6B543274EB04202D1002610E03BE0254EB042E6
:20D1E00001D101260AE0244EB04201D1022605E0224EB04201D1032600E0042606FA08F6A4
:20D200002E43CCF808604D68DAF80060ED03554601D51E4300E09E432E604D68DBF8006091
:20D22000AD035D4601D51E4300E09E432E604D68DEF80060ED02754601D51E4300E09E4388
:20D240002E604D68AD020E4D2E6801D51E4300E09E432E60641C102CFFF444AFBDE8F88F97
:20D260000004014000001110001002400000014000080140000C0140001001400014014079
:20D280000C0401400AB1016170470904FBE700000148006870470000240300200248016818
:20D2A000491C01607047000024030020074810B5016841F010010160032000F099F80020C6
:20D2C00000F006F800F016F8002010BD0020024010B5044600F05CFD4FF47A71B0FBF1F001
:20D2E00001F043FC00222146501E00F061F8002010BD0000214808B5816941F001018161AC
:20D30000806900F001000090032000F071F8002211466FF00B0000F04BF8002211466FF039
:20D320000A0000F045F8002211466FF0090000F03FF800221146501F00F03AF8002211462B
:20D34000101F00F035F800221146901E00F030F800221146501E00F02BF8002211460120AE
:20D3600000F026F8012000F018F80548416821F0E06141F00071416008BD000000100240DC
:20D380000000014000F01F02012191404009800000F1E020C0F88011704700F01F0201215B
:20D3A00091404009800000F1E020C0F800117047F0B40E4B1B680C46C3F30223C3F10705F5
:20D3C000042D00D90425191D072901D2002300E0DB1E012606FA05F1491E214099409E4049
:20D3E000761E16403143F0BC02F00CBB0CED00E0064900F0070208684FF6FF03184040EA10
:20D400000220034A10430860704700000CED00E00000FA05BFF34F8F05480168054A01F4C9
:20D42000E06111430160BFF34F8F00BFFDE700000CED00E00400FA0510B50C0605D501F045
:20D440007F0100EB4110283003E000EB411000F5027099B232B101228272C180190C018105
:20D46000002010BD002282728180F9E7704700EB4112D0F81C04D26B03F049BF00EB411275
:20D48000D0F81C04D2F81C2203F096BF10B504460A460B0601F07F0004EB401101D5283105
:20D4A00001E001F502710870D009487094F8E803012809D0012084F8E803206804F064FB3D
:20D4C000002084F8E80310BD022010BD70B50A460446090602F07F0003D504EB4011283159
:20D4E00003E004EB421101F5027100258D700870D009487094F8E803012809D0012084F85D
:20D50000E803206804F0E8FB84F8E853002070BD022070BD70B504460D460E0601F07F0028
:20D5200004EB401101D5283101E001F502710870E80948700A61CB7094F8E803012809D0F2
:20D54000012084F8E803206804F0EEF9002084F8E80370BD022070BD70B504460E4601F029
:20D560007F0004EB401101F5077100252CC101F81F5C01F8200D94F8E80301280AD0012037
:20D5800084F8E8037006206804F000FC84F8E853002070BD022070BD70B50D460446090612
:20D5A00005F07F0003D504EB4011283103E004EB451101F5027101228A700870E8094870B7
:20D5C00094F8E803012807D084F8E823206804F0B8FB680602D006E0022070BD04F57B71C4
:20D5E000206804F077FB002084F8E80370BD70B504460E4601F07F0004EB40113C31002584
:20D600002CC1012201F81F2C01F8200D94F8E803012809D084F8E8237006206804F0B6FBED
:20D6200084F8E853002070BD022070BD10B50446006804F08DFC000402D5204602F0F2F985
:20D64000206804F085FC40050CD5206830F8441F21F480610180204600F0ECF8002120465C
:20D6600000F0FDF8206804F073FC400405D5206830F8441F21F480410180206804F068FC72
:20D68000800405D5206830F8441F21F400510180206804F05DFCC00413D5206830F8401FA2
:20D6A00021F00401018021684FF43D40A1F84000204600F0CCF8206830F8441F21F480519E
:20D6C0000180206804F044FC00051AD5206830F8441F21F400610180206830F8401F41F0CF
:20D6E00008010180206830F8401F41F004010180206804F02DFCC043C00402D5204600F041
:20D70000E3F8206804F024FC800508D5206830F8441F21F400710180204600F09CF82068A4
:20D7200004F016FCC00505D5206830F8441F21F48071018010BD00002DE9F04186B004005C
:20D740004FF0000504D094F8E903002620B108E0012006B0BDE8F08184F8E863204600F050
:20D760004BF8032084F8E903206804F0ACFA04F11001142288466846FAF7E4FE94E80F00A3
:20D7800004F000FA0021206804F0F5FB5FF0010704EB451080F8297000F8285F8581C670A7
:20D7A000066146616D1C86610F2DF1D35FF0000004EB401181F8096281F80802888681F86E
:20D7C0000B62C1F81862C1F81C62401CC1F820620F28EDD3142241466846FAF7B3FE94E85B
:20D7E0000F0004F067FA84F8246084F8E973206804F05EFA0020ACE708B500680B49884223
:20D8000012D10B48C16941F40001C161C069002200F40000009011461420FFF7C9FDBDE895
:20D8200008401420FFF7B9BD08BD0000005C00400010024010B504460121D0F81C0403F041
:20D840008DFED4F81C04BDE8104003F056BED0F81C0403F071BED0F81C0403F073BE10B57A
:20D86000044690F8E80301280BD0012084F8E80384F82410206804F080FB002084F8E80331
:20D8800010BD022010BDD0F81C2400F57B71104603F077BE10B5044690F8E803012810D0DA
:20D8A000012084F8E80301462046FFF7DFFD206804F0FCF9206804F03EFB002084F8E803B4
:20D8C00010BD022010BD000010B50446D0F81C0403F0A4FEA069002804D00348016841F016
:20D8E0000601016010BD000010ED00E030B51C490A68036822F0E0021A430A6019490A6860
:20D9000022F480320A600C1F226822F480322260144A0832136823F4803313600B1D1D68D9
:20D9200025F480351D604568ED0303D5256845F4803525604468A40303D50C6844F480349C
:20D940000C600179C90703D0196841F4803119600079800703D5106840F48030106030BDCD
:20D9600000700040040401400120102191FAA1F1024AB1FA81F142F82100704700000E4274
:20D9800010B504F0E7FB05F04DFA10E0FF2003F04DF801214FF49670FAF7B0FFC82004F082
:20D9A000DAFEAA2003F042F8C82004F0D4FE0648406800F004000028E8D10449087802F060
:20D9C000EBFA05F0A3FA10BD007000409000002010B5054C2068C00304D5FFF7D1FF4FF460
:20D9E0008030206010BD00001404014010B533A401461DCC86B08DE81D0034A0344C006881
:20DA000004900020012931D0022948D010292BD161682268D20127D54FF4701292FAA2F2A8
:20DA200001F47010B2FA82F2D040C9031DF8000010D561684FF4003292FAA2F201F40031F7
:20DA4000B2FA82F2D14004AA515C224AB2FBF1F1484301E0204948436168490204D44000B3
:20DA60005FF00301B0FBF1F006B010BD226AC2F30121012903D1920701D5C803F4E70229A3
:20DA800005D1626A920702D549F64040ECE70329EAD121688903E7D54FF22440E4E700F0CA
:20DAA0007DF961684FF4804292FAA2F201F44041B2FA82F2D140491C4900D3E702030405E5
:20DAC000060708090A0B0C0D0E0F1010010200000010024000127A0000093D002DE9F84345
:20DAE00005460078454CC00774D0E06940F08050E061E069424E00F080500090306840F448
:20DB000080703060FFF7C4FB074604E0FFF7C0FBC01B642833D83068C005F7D5206A10F4C5
:20DB2000407051D0A98801F4407181424CD0206A0126310491FAA1F2B2FA82F29300314A2C
:20DB400020F440701344C3F8006491FAA1F1B1FA81F102EB81010023C1F800342062C00789
:20DB600032D0FFF795FB074641F288394FF0020808E000BFFFF78CFBC11B494502D9032007
:20DB8000BDE8F88398FAA8F1B1FA81F141F040014046B6EB511F01D121680BE090FAA0F1B3
:20DBA000B1FA81F141F04001B0EB511F01D1216A00E0616A98FAA8F0B0FA80F000F01F026E
:20DBC00006FA02F00142D5D0206A696820F44070084320622878800705D56068A96820F491
:20DBE0004040084360602878C00605D56068E96820F48000084360600020C1E70010024088
:20DC000000700040000042422DE9F047DFF8708105460E46D8F8000000F00700B0420CD285
:20DC2000D8F8001021F007013143C8F80010D8F8000000F00700B04277D12878514C8007E2
:20DC400005D56068A96820F0F000084360602878C00759D06968012001290DD0022929D059
:20DC60005FF0020393FAA3F2B2FA82F242F02002520904D0226803E04FF40033F2E7626A03
:20DC800093FAA3F3B3FA83F303F01F03984002424BD0606820F0030008436060FFF7F8FA24
:20DCA0006968074641F2883001290DD00229814617D025E04FF00073D4E700BFFFF7E8FA72
:20DCC000C11B494501D918E081466068C0F381000128F3D118E000BFFFF7DAFAC11B49456D
:20DCE0000BD86068C0F381000228F5D10CE000BFFFF7CEFAC11B494502D90320BDE8F08768
:20DD0000606810F00C0FF3D1D8F80010404601F00701B1420BD9016821F0070131430160CF
:20DD2000006800F00700B04201D00120E6E72878400705D56068E96820F4E060084360609A
:20DD40002878000706D56068296920F4605040EAC100606000F03AF86168F02292FAA2F25B
:20DD600001F0F001B2FA82F2D140074A515CC840064908600020FFF7ABFA0020BEE7000053
:20DD80000020024000100240604801088400002001480068704700008400002008480949CC
:20DDA000006849684FF4605292FAA2F201F46051B2FA82F2D140044A515CC84070470000A4
:20DDC00084000020001002407048010810B519A385B00FCB8DE80F001AA01B4B006804905C
:20DDE0005A681A4802F00C0104291DD008291BD14FF4701494FAA4F402F47011B4FA84F43F
:20DE0000E140D2031DF8011010D55A684FF4003393FAA3F302F40032B3FA83F3DA4004AB92
:20DE20009A5CB0FBF2F0484305B010BD08484843FAE7000002030405060708090A0B0C0D3C
:20DE40000E0F1010010200000010024000127A0000093D002DE9F84F04460078F74DC00734
:20DE60004FF0010625D068687704C0F38100012807D06868C0F3810002281BD16868C0033B
:20DE800018D597FAA7F0B0FA80F040F02000400901D0286800E0686A97FAA7F1B1FA81F161
:20DEA00001F01F0106FA01F108425ED0606800287CD05AE06068B0F5803F0BD010B1B0F504
:20DEC000A02F11D0286820F480302860286820F4802002E0286840F480302860606828B3F1
:20DEE000FFF7D6F980460BE0286840F480202860F0E700BFFFF7CCF9A0EB0800642871D807
:20DF000097FAA7F0B0FA80F040F02000400901D0286800E0686A97FAA7F1B1FA81F101F0DC
:20DF20001F0106FA01F10842E4D01EE0FFF7B0F9804605E0FFF7ACF9A0EB08006428DED819
:20DF400097FAA7F0B0FA80F040F02000400901D0286800E0686A97FAA7F1B1FA81F101F09C
:20DF60001F0106FA01F10842E4D12078DFF8D08280074FF000094FF002075BD568684FF079
:20DF8000F80B10F00C0F07D06868C0F3810002281CD16868C00319D497FAA7F0B0FA80F0AF
:20DFA00040F02000400902D0286801E08BE0686A97FAA7F1B1FA81F101F01F0106FA01F1FF
:20DFC00008422CD0206901287DD128E0206990B396FAA6F0B0FA80F048F82060FFF758F9E0
:20DFE000824607E011E100BFFFF752F9A0EB0A00022884D897FAA7F0B0FA80F040F02000D3
:20E00000400901D0286800E0686A97FAA7F1B1FA81F101F01F0106FA01F10842E4D02868CD
:20E020009BFAABF26169B2FA82F220F0F80091400843286025E0FFE796FAA6F1B1FA81F1E9
:20E0400048F82190FFF724F9824605E0FFF720F9A0EB0A000228CCD897FAA7F0B0FA80F05B
:20E0600040F02000400901D0286800E0686A97FAA7F1B1FA81F101F01F0106FA01F1084261
:20E08000E4D1207800076ED5A069B8B396FAA6F0B0FA80F008EB8000C0F88064FFF7F8F840
:20E0A000824605E0FFF7F4F8A0EB0A000228A0D897FAA7F0B0FA80F040F06000B6EB501FB8
:20E0C00002D128680CE062E197FAA7F0B0FA80F040F06000B7EB501F01D1286A00E0686AB5
:20E0E00097FAA7F1B1FA81F101F01F0106FA01F21042D7D00120FEF761FE34E0FFE796FADE
:20E10000A6F1B1FA81F108EB8101C1F88094FFF7BFF8824606E000BFFFF7BAF8A0EB0A00B2
:20E12000022872D897FAA7F0B0FA80F040F06000B6EB501F01D128680BE097FAA7F0B0FA6A
:20E1400080F040F06000B7EB501F01D1286A00E0686A97FAA7F1B1FA81F101F01F0106FA41
:20E1600001F21042D8D12078400765D5E86940F08050E861E869DFF8CCB000F0805000900A
:20E18000DBF8001041F48071CBF80010FFF780F8824605E0FFF77CF8A0EB0A00642834D8F1
:20E1A000DBF80000C005F5D5E06801280AD008B1052813D0286A20F001002862286A20F01A
:20E1C000040002E0286A40F001002862E06841F2883B90B3FFF75CF882460BE0286A40F0CC
:20E1E00004002862EEE700BFFFF752F8A0EB0A0159450AD897FAA7F0B0FA80F040F04000F5
:20E20000B6EB501F02D128680CE0A3E097FAA7F0B0FA80F040F04000B7EB501F01D1286AF5
:20E2200000E0686A97FAA7F1B1FA81F101F01F0206FA02F10842D7D031E005E000100240A8
:20E240000000424200700040FFF722F8824605E0FFF71EF8A0EB0A0159457BD897FAA7F012
:20E26000B0FA80F040F04000B6EB501F01D128680BE097FAA7F0B0FA80F040F04000B7EB63
:20E28000501F01D1286A00E0686A97FAA7F1B1FA81F101F01F0206FA02F10842D8D1E06972
:20E2A00080B36968C1F38101022970D04FF080714F000228484609D091FAA1F1B1FA81F16F
:20E2C00048F82100FEF7E4FF044669E08A4691FAA1F1B1FA81F1C14648F82100FEF7D8FF34
:20E2E000804605E0FEF7D4FFA0EB0800022854D897FAA7F0B0FA80F040F02000400902D015
:20E30000286801E061E0686A97FAA7F1B1FA81F101F01F0106FA01F10842E3D1206AB0F503
:20E32000803F05D16868A16820F4003008436860D4E908010843696821F474110843686089
:20E340009AFAAAF0B0FA80F049F82060FEF7A0FF044606E021E000BFFEF79AFF001B02285D
:20E360001BD897FAA7F0B0FA80F040F02000400901D0286800E0686A97FAA7F1B1FA81F176
:20E3800001F01F0106FA01F10842E5D01DE01EE0FEF77EFF001B022802D90320BDE8F88F9F
:20E3A00097FAA7F0B0FA80F040F02000400901D0286800E0686A97FAA7F1B1FA81F101F038
:20E3C0001F0106FA01F10842E2D10020E6E70120E4E7000010B5040003D094F8510010B11B
:20E3E00004E0012010BD204600F038F8022084F851002068016821F040010160D4E9010173
:20E400000843D4E903121143084361690843218B01F400710843E1690843216A0843A16A58
:20E42000084321680860A069042101EA1040616A0843216848602168E06A08612068C16902
:20E4400021F40061C1610449002008706065012084F85100002010BD280300202DE9F04FFF
:20E46000054600683F49DFF80081032685B088425CD1D8F8181041F48051C8F81810D8F8FE
:20E480001800DFF8E8B000F480500490A02000900220019069465C4603965846FEF714FE0B
:20E4A0004FF000094020CDE900094F4669462046CDF80890FEF708FE2E4C2D484FF0800A3B
:20E4C000C4E90007C4E9027A27616761A7612046E761FEF74BFC08B1FDF71AFC6C646562C3
:20E4E0002348254C14301027C4E90007C4E9029AC4F81090C4F81490C4F818902046C4F886
:20E500001C90FEF733FC08B1FDF702FC2C6465620120CDE9007069465C4603965846FEF765
:20E52000D3FD012210212046FEF7ACFE13492868884214D1D8F81C1041F48041C8F81C1039
:20E54000D8F81C00694600F4804004904FF4204000900220019003960948FEF7B5FD05B0AC
:20E56000BDE8F08F0030014000100240000801401C00024048040020800400200038004085
:20E58000000C01402DE9F84F00259A460446ADF8005090F8510001287ED1E9B3E2B394F87F
:20E5A0005000012878D0012684F85060222084F851006565A163A287E287A564E5642563FE
:20E5C000A586E586A0684FF40049484504D12068036823F480430360A06A4FF40057B842E1
:20E5E00009D12068036823F4005303602068036843F40053036060684FF48278404501D145
:20E60000A06878B120680168490603D4016841F040010160E06800E001E0E8B131E00120A2
:20E62000BDE8F88F84F8505013460A462046CDF800A000F040F9F3E75346002201212046D8
:20E6400001F00AFF48BB2068C168A06B421CA2630170E08F401EE087E08F0128ECD813E0AA
:20E66000534600220121204601F0F6FEA8B92068C068A16B0880A06B801CA063E08F401E56
:20E68000E087E08F0128EBD8A06AB84207D12068016841F4805101E068E007E001605346DB
:20E6A00000220121204601F0D7FE08B10320B7E7E0680028206817D0C068A16B0880A06BCA
:20E6C000801CA063E08F401EE087A06AB84217D1534600220121204601F0BEFE50B1606DBD
:20E6E00040F002006065E1E7C168A06B421CA2630170E7E72068C068ADF80000BDF800007B
:20E70000606840450AD1A068484502D0B0F5806F04D12068016821F04001016084F8516030
:20E72000A06AB8420DD120688068C043C00608D4204601F08FFE012807D021686FF0100006
:20E74000886084F8505000206AE7606D40F0020060652068016821F40051016020680168D7
:20E7600041F40051016084F8505058E7022057E72DE9F843044690F851009846012870D13B
:20E7800039B332B394F8500001286AD0012684F85060122084F85100002565652163A2867C
:20E7A000E286E564A564A563A587E587A06A7703B84209D12068016821F400510160206867
:20E7C000016841F400510160A068B0F5004F03D007E00120BDE8F8832068016841F480410B
:20E7E000016020680168490603D4016841F040010160E0680028606804D0D8B1E08E012839
:20E8000018D021E010B1E08E012808D1206B411C216321680078C860E08E401EE086000413
:20E82000000C1FD0434600220221204601F014FEA8B9EBE7206B21680088C860206B801C88
:20E840002063E08E401EE0860004000C0AD0434600220221204601F0FFFD0028EAD00320F3
:20E86000B8E726E0A06AB84204D12068016841F480510160434600220221204601F0ECFDB4
:20E8800030B9434601228021204601F0E5FD20B1606D40F010006065E1E7A06818B920683D
:20E8A000C1688068009084F8516084F85050002090E702208EE72DE9F8430025DDF8208055
:20E8C0000446ADF8005090F85100012803D094F8510022287DD169B162B15BB194F850009A
:20E8E000012876D0012684F8506094F85100012803D005E00120BDE8F883322084F8510038
:20E900006565A263A387E3872163A386E386A564E564A06A4FF40057B84209D120680168C3
:20E9200021F4005101602068016841F40051016020680168490603D4016841F040010160E5
:20E94000E0684FF48271B0F5006F606807D0002867D088426ED1E08E012862D06AE020B13A
:20E9600088420CD1E08E012809D1206B21680088C860206B801C2063E08E401EE086E08E71
:20E9800080B9A06AB84244D12068016841F4805101603EE02068C068A16B0880A06B801CC4
:20E9A000A0639EE0434600220221204601F054FD002874D1206B21680088C860206B801C08
:20E9C0002063E08E401E0004000CE08609D1A06A00E0C7E0B84204D12068016841F4805141
:20E9E0000160434600220121204601F035FD00286FD12068C068A16B0880A06B801CA0630A
:20EA0000E08F401EE087E08E0028CBD1606800286AD1434600220121204601F01DFDF0BB7C
:20EA2000B8E7206B411C216321680078C860E08E401EE086E08E98B9A06AB84204D1206850
:20EA4000016841F480510160434600220121204601F002FD18BB2068C068A16B087040E09C
:20EA6000434600220221204601F0F6FCB8B9206B411C216321680078C860E08E401E0004A9
:20EA8000000CE08607D1A06AB84204D12068016841F48051016000224346012100E018E056
:20EAA000204601F0D9FCA0B92068C168A06B421CA2630170E08F401EE087E08E0028CFD1D7
:20EAC000606888B9434600220121204601F0C4FC08B103200FE72068C168A06B421CA26358
:20EAE0000170E08F401EE087A06AB84210D1434600220121204601F0AFFC18B1606D40F0F7
:20EB000002000FE02068C068ADF80000BDF80000434601228021204601F09EFC20B1606D1E
:20EB200040F010006065D4E784F85160A06AB84214D120688168C943C9060FD4616D41F0D1
:20EB400002016165016821F4005101602068016841F40051016084F85050CBE684F85050FB
:20EB60000020C8E60220C6E6704710B5401EB0F1807F01D3012010BD4FF0E02460610F2189
:20EB8000601700F03FFF0020A06107202061002010BD10B5FFF7E8FF10BD7047704730B558
:20EBA00090F83820012A20D0012280F83820022380F8393003685C6824F070045C60036883
:20EBC0005C680D682C435C6003689C6824F080049C6003689C6849680C439C6080F8392092
:20EBE000002180F83810084630BD022030BD10B5040003D094F8390010B107E0012010BDF3
:20EC0000002084F83800204600F00CF8022084F83900211D206802F05BF8012084F839000E
:20EC2000002010BD00B51E4A01681E4885B0914222D1C16941F00201C161C069694600F0B8
:20EC4000020004904FF4707000900020019002901548FEF739FA002211461D20FEF7A8FB55
:20EC60001D20FEF79AFB11484168114A21F0A0611143416005B000BDB1F1804FFAD1C16991
:20EC800041F00101C161C069002200F00100049011461C20FEF78CFB1C20FEF77EFBE9E7C6
:20ECA00000040040001002400010014000000140000C00020168CA6842F00102CA600068BC
:20ECC000016841F001010160002070470168CA6822F00102CA600068016A41F2111211420A
:20ECE00007D1016A9210114203D1016821F0010101600020704770B5044690F838000128FC
:20ED000017D0012584F83850022084F839002068826822F0770222F47F428260086850286D
