:020000040801F1
:20000000B05D002049010108EB5A010861530108E95A0108F5050108018E0108000000006E
:20002000000000000000000000000000116F01089F1B01080000000091650108C575010832
:200040006301010869650108630101086301010863010108630101086301010863010108CE
:20006000630101086301010863010108630101086301010863010108691B0108751B0108CC
:2000800063010108630101086301010863010108A98A010863010108630101086301010829
:2000A0006301010863010108630101086301010863010108817601088D76010863010108A6
:2000C0006301010863010108630101086301010863010108630101086301010863010108B8
:2000E000630101086301010863010108630101086301010863010108630101086301010898
:2001000063010108630101086301010863010108630101086301010899760108A576010815
:2001200063010108630101086301010863010108DFF810D000F0FEF800480047959B0108A6
:20014000AFF30080B05D00200648804706480047FEE7FEE7FEE7FEE7FEE7FEE7FEE7FEE77E
:20016000FEE7FEE7357601083101010840EA01039B0703D009E008C9121F08C0042AFAD276
:2001800003E011F8013B00F8013B521EF9D27047D2B201E000F8012B491EFBD2704700227B
:2001A000F6E710B513460A4604461946FFF7F0FF204610BD80EA010210B502F0004340008C
:2001C00022D04A001FD0010E01EB1261C0F35600C2F3560240F4000042F40002A0FB022047
:2001E00000047F39140400D0401C50EA124001D44000491EC2B20C0604EBD010401C4008FE
:20020000802A02D003E0002010BD20F00100002900DA0020184310BD30B480EA010202F0F3
:20022000004530F0004221F0004013D090B1C30DD40DC2F31601C0F31600E41A41F4000128
:2002400040F400027D34914201D3641C00E04900002C02DA30BC002070474FF40000002336
:20026000914201D3891A034340084FEA4101F7D151B1914202D14FF0004105E002D24FF043
:20028000010101E06FF0010103EBC450284430BC00F019B896230022114600F01DB820F0F8
:2002A0000040C10DC0F3160040F400007F2901DA00207047962903DCC1F19601C840704733
:2002C0009639884070470029A8BF7047401C490008BF20F00100704710B4B0FA80FC00FA71
:2002E0000CF050EA010404BF10BC704749B1CCF1200421FA04F411FA0CF118BF012121432A
:200300000843A3EB0C01CB1D4FEA00614FEA102042BF002010BC704700EBC35010440029ED
:20032000A4BF10BC7047401C490008BF20F0010010BC7047064C074D06E0E06840F00103CF
:2003400094E8070098471034AC42F6D3FFF7F4FE60AF010880AF010870B58C1810F8015BDB
:2003600015F0070301D110F8013B2A1106D110F8012B03E010F8016B01F8016B5B1EF9D113
:200380002B0705D40023521E0DD401F8013BFAE710F8013BCB1A921C03E013F8015B01F8AE
:2003A000015B521EF9D5A142D8D3002070BD00000EB50D4801F0D6FF0B200090012001907D
:2003C000052002906946084802F030F8064802F04BFA3221044802F0AFF9034802F0DAF880
:2003E0000249C8600EBD000060040020B000002070B5044600688168C943C9071BD18168FA
:2004000021F00101816002F0CFFE05460EE002F0CBFE401B022809D9A06A40F01000A06282
:20042000E06A40F00100E062012070BD20688068C043C007EBD0002070BD0000F8B500269C
:200440000446009600688168C943C90727D0816841F001018160134813490068B0FBF1F0F0
:2004600000E0401E00900028FBD102F09DFE054610E002F099FE401B02280BD9A06A40F0C6
:200480001000A062E06A40F00100E06284F824600120F8BD20688068C043C007E9D10020A3
:2004A000F8BD00008400002040420F0008490120CA7B897B01EBC10303EB011102EB810178
:2004C00001F6EE31B1F5005F01D100F095BA7047F0050020704700000848C17B807B00EBFB
:2004E000C00202EB001001EB800000F6EE30B0F5005F02D1012000F091BE7047F0050020BA
:200500000848C17B807B00EBC00202EB001001EB800000F6EE30B0F5005F02D1012000F042
:20052000DDBA7047F00500200848C17B807B00EBC00202EB001001EB800000F6EE30B0F502
:20054000005F01D08720704700F02AB9F005002070B5274E04464FF0000549B114E00122EC
:200560000821304602F01AFE642008F046FF6D1CA542F4D334E001220821304602F00EFE06
:20058000642008F03AFF6D1CA542F4D300220821304602F003FE642008F000FF002508E033
:2005A00001220821304602F0F9FD642008F025FF6D1CA542F4D300220821304602F0EEFD1C
:2005C000642008F0EBFE002508E001220821304602F0E4FD642008F010FF6D1CA542F4D352
:2005E0003046BDE870400022082102F0D7BD000000080140FEE700002DE9FF5F62A0D0E902
:200600000010CDE9001000F011FF4EF6165000F0EDFB41F6F87000F009FC5D4F386820F092
:200620000F00001D38605B4E4FF48035356000240DF1080A00F028FA0AF80400641CE4B25E
:20064000082CF7D300F0F2FE4EF6165000F0CEFBDFF844B1DBF81400801E00F0E7FB386896
:2006600020F00F00001D3860A846B146356000246E4600F009FA012C7FD1C0077DD000F0E0
:2006800051FC00F0D3FE41F2162000F0AFFB41F6F87000F0CBFB002455460021285D00F09F
:2006A0006BFB28190021407800F066FB305D002100F062FB30190121407800F05DFB40B112
:2006C00043F6F9702118354841609A2004B0BDE8F09FA41CE4B2082CDFD300F0A7FE4EF66A
:2006E000165000F083FB41F6F87000F09FFB386820F00F00001D3860C9F800800024AA4634
:2007000000F0C2F91AF804100546A94205D000F08DFE41F6F870211823E0641CE4B2082C5D
:20072000EED300F083FE4EF6165000F05FFBDBF81400083800F07AFB386820F00F00001D2B
:200740003860C9F80080002400F09EF9315D0546A9420ED000F06AFEDBF81410A4F1080087
:2007600001440E484160315DC0E902159320ADE703E0641CE4B2082CE6D3641CE4B2022C7E
:20078000FFF477AF0020A1E7FFFFFFFFFFFFFFFF000C014010080140F00500206C06002053
:2007A0002DE9F05FDFF814A100254FF48039DAF814002E46C0F387272C46DFF804B142E04C
:2007C0004FF4806842463F49484605F04FFF3D4B00204246195C401C0E4480B2B6B20D44CF
:2007E0009042F7D328460025B0F57F3F3ED0E0B30121781E0BF80410844220D150464FF06B
:20080000FF0830F8661F02892F481144BAF8722080F8018080F800804FEA122C80F802C0E7
:20082000C2700A0A0271417180F80680274A93F8FF13C171126812B101F0FE01C171641C30
:2008400009F58069E4B2BC42BAD3BAF868005446B0422ED1228B1E494FF4003005F006FF6A
:20086000002108461A4B228B07E0FFE70021C0E71D5C401C294489B280B28242F8D8B4F873
:200880006C00884215D1628B12494FF4802005F0EDFE002108460F4B628B04E01D5C401CC2
:2008A000294489B280B28242F8D8B4F87000884202D08620BDE8F09F0020FBE7F005002021
:2008C000F40F0020341000205004002034040020343400203436002070B500F023FB00F090
:2008E000A5FD41F2162000F081FA41F6F87000F09DFA124D0024A5F10806285D002100F09F
:200900003BFA28190021407800F036FA305D002100F032FA30190121407800F02DFA30B183
:20092000074943F6F870204448609A2070BDA41CE4B2082CE1D3002070BD000058040020CC
:200940006C06002070B50178044681B3A078884207D8B0EB510F03D9081AC0F1270000E077
:20096000401E244D0023902235F81000194605F011FEE0782178884207D8B0EB510F03D9C2
:20098000081AC0F1270000E0401E012335F81000C022032105F0FEFD20792178884208D8EC
:2009A000B0EB510F04D9081AC0F1270001E009E0401E012335F81000C0220821BDE870407C
:2009C00005F0E8BD002390221946562005F0E2FD0123C0220321412005F0DCFD0123C022A0
:2009E0000821542005F0D6FD0123C02219464020E4E7000000AF010870B508F03FFD1F4D85
:200A000004201F4E68701F4C00F0CAFC304600F0A7FC00F089FB00F0A3FB207058B100F0B8
:200A200095FB00F04BFB6878401CC0B268700F28EAD32078E0B9FFF7DFFD2070C0B900F07A
:200A400015FD207000F082FB207888B900F06CFB00F086FB207058B9002000F03FF820706E
:200A600030B9FFF739FF207010B900F001FA207000F06CFB00F022FB207870BD48040020F6
:200A8000F0A55A0F6C0600202DE9F0470024104E104FDFF844A02546A0464FF001096006DD
:200AA000040EC6F8A881387808F0A7FCC6F8A891387808F0A2FCDAF8000108B1641CE4B213
:200AC0006D1CEDB2082DEAD32046BDE8F08700000000224248040020008021422DE9F14F71
:200AE0009B4982B04FF48039886CC0F38728C0F3090A91F8460000EB0A02B2F5806F05D98E
:200B0000CAF10002D5B2401BC6B201E0054600268F48DFF840B24069C0F38F200190029896
:200B2000002873D100F082FC4EF6165000F05EF9002000F07BF98849086820F00F00001DE9
:200B4000086086494FF4803008608211594605F08DFD834901200024087082490870BDE0E9
:200B6000E00709F58060814628D04FF4806700233A46784905F0A6FD7B4800780028FDD09B
:200B80000198401E844210D1FF218BF8F8178BF8F9178BF8FA178BF8FB178BF8FC178BF830
:200BA000FD178BF8FE178BF8FF17694A92F84600002874D06D48006848B370E001239A02D9
:200BC0006B4905F07FFD664800780028FDD0604A92F8460030B36548006818BB44450DD129
:200BE00000205F4608E002EB400100EB0A0391F85C10401CF95480B2A842F4D396B108F161
:200C0000010084420ED10020594609E06AE01FE02B1802EB430393F85C300B54401C80B2C3
:200C2000B042F5D30027FFF72FFF00901BF80710814207D000F0FAFB4E49932007EB842294
:200C400008703CE07F1CBFB2B7F5806FEBD343E044450FD10020DC460AE002EB400100EBCA
:200C60000A03634491F85C10401C83F8001480B2A842F2D39EB108F1010084420FD10020F0
:200C800059460AE02B1802EB430301EB000C93F85C30401C8CF8003480B2B042F2D3FFF753
:200CA000F3FE00901BF80710814210D000F0BEFB3049932007EB84220870A2F580624A60DE
:200CC0001BF807208A60009ACA60BDE8FE8F7F1CBFB2B7F5006FE2D3641CA4B201988442E9
:200CE000FFF43EAF0298012830D100F059FB00F01BFA00F035FA00F099FB4EF6165000F0CA
:200D000075F8002000F092F81349086820F00F00001D086011494FF48030086000255E46DE
:200D200087110CE00024FFF7AFFE3055641CA4B2BC42F8D3384609F0B5F96D1CADB201989E
:200D40008542EFD300F002FA00F0B8F90020BCE7F005002034100020000C0140100801409B
:200D6000CD030020CF030020CE03002034040020341400206C0600202DE9F0410027194D7A
:200D8000194B3A463C460126C3F8A84108F023FB5FEA006C02D5C5F8806101E0C5F8804183
:200DA00008F019FBC3F8A86108F00CFB4006521C000ED2B2082AE7D311B1012909D00DE080
:200DC000C3F8A84108F007FBC3F8A86108F0FAFA04E0C5F8804100F0B9F807463846BDE852
:200DE000F0810000008021420000224270B500210C4C0D4A0B460125060402D5C4F8805161
:200E000001E0C4F88031C2F8A83108F0E4FAC2F8A85108F0D7FA491C4000C9B21029EBD388
:200E200070BD0000008021420000224270B500210D4C0E4A0B460125060402D5C4F8805162
:200E400001E0C4F88031C2F8A83108F0C4FAC2F8A85108F0B7FA491C4000C9B21029EBD388
:200E6000C2F8A83170BD000000802142000022422DE9F05F00F0DAFA4EF6165B5846FFF7F9
:200E8000B5FF41F6F87A5046FFF7D0FF214F386820F00F00001D3860DFF87C904FF48038D8
:200EA000C9F8008000241D4E1D4DFFF7EDFD295D814204D004EB0A017160295D1FE0641C2B
:200EC000E4B2082CF1D300F0B1FA5846FFF78EFF43F6F8752846FFF7A9FF386820F00F0057
:200EE000001D3860C9F800800D4F0024083FFFF7CBFD395D814207D061197160395DC6E9B7
:200F000002109320BDE8F09F641CE4B2082CEED30020F7E7000C0140100801406C06002097
:200F20005804002010B500F081FA41F22220FFF75DFF0020FFF77AFF4EF6EA10FFF756FF26
:200F4000BDE810404020FFF751BF00002DE9F84FDFF850A14FF0000B5046CAF8A8B108F01E
:200F60003AFA4FF00108C0F8A881DFF83C91D9F80000017871B1C078884207D8B0EB510F28
:200F800003D9081AC0F1270000E0401E474931F8100000E0412005F03DF9454F386820F0C4
:200FA0000F00001D386043484FF4803101600024414E01F003F9054607E001F0FFF8401B78
:200FC0000A282ED8022008F018FAD6F800010028F3D0641CE4B2032CEBD3002401F0EEF8F5
:200FE000054631E0B0EB510F29D9081AC0F127002E4931F8100000E041200123C022032183
:2010000005F0C8FA386820F00F00401C3860294804600120BDE8F88F01F0D0F8401B0A28FE
:201020000FD944468DF80080CAF8A8B1D9F8000001780029E0D0C0788842D9D8D2E7401E31
:20104000D6E7022008F0D9F9D6F800010028E3D1641CE4B2032CC1D3CAF8A8B1D9F8000077
:20106000017871B1C078884207D8B0EB510F03D9081AC0F1270000E0401E0C4931F8100057
:2010800000E041200123C022032105F083FA386820F00F00401C38600649C1F80080002018
:2010A000B8E70000000022424004002000AF0108000C01401008014000802142164910B564
:2010C0000020C1F8A8011549C1F88001144C2068007828B9572005F091F80F2008F05EF942
:2010E0002068017871B14078884207D8B0EB510F03D9081AC0F1270000E0401E094931F8E2
:20110000100000E0572006F0CBF9BDE810404FF4FA7008F043B900000000224200802142D1
:201120004004002000AF010810B500F07FF9064800F016F9012008F031F9BDE810404FF49E
:20114000FA7008F05AB90000915C8A4810B500F06DF9BDE81040014800F002B9995C8A4890
:201160002DE9FC41294D00266E6000F05FF94EF62050FFF73BFE0020FFF758FE2448016846
:2011800021F00F01091D016022494FF48030086000246F46FFF778FC3855641CE4B2052CCA
:2011A000F8D3BDF800109DF8022049BA090441EA02219DF80320BDF80200114369609DF869
:2011C000001040BA932917D19DF80110DA2913D1114941F21652097C012905D0022905D15A
:2011E000A0F5C061163901D0904205D19DF80400012804D0092805D09820BDE8FC810120DA
:20120000A87000E0AE700020F7E7000048040020000C014010080140F00500202DE9F05F2E
:20122000484FDFF8249106004FF4803A30D100F0FDF84EF61B50FFF7D9FD0020FFF7F6FD1E
:20124000386820F00F00001D3860C9F800A00024DFF8F8B0FFF718FC1BF804100546A942AF
:201260000AD000F0E3F83A4844601BF80410C0E902159420BDE8F09F641CE4B2802CE9D356
:20128000386820F00F00401C38600121C9F80010012E21D1FFF764FF00F0C8F84EF61B50CF
:2012A000FFF7A4FD0020FFF7C1FD386820F00F00001D3860C9F800A00024264DFFF7E4FB82
:2012C0002855641CE4B2802CF8D3802008F0EAFEFFF73CFFFFF7F2FE022E30D100F0A6F8AE
:2012E0004EF61B50FFF782FD2020FFF79FFD386820F00F00001D3860C9F800A0FFF7C4FB6E
:2013000060F30708FFF7C0FB134A60F30F281FFA88F0536841BA19435160104940BA097CA7
:20132000012903D0022904D08720A3E741F2165101E040F21661884201D098209AE7002068
:2013400098E70000000C014010080140343400206C0600203410002048040020F005002069
:2013600030B500210C4C0D4A0B460125002802DAC4F8805101E0C4F88031C2F8A83108F0D7
:201380002AF8C2F8A85108F01DF8491C4000C9B22029EBD330BD0000008021420000224210
:2013A00070B51D4D1D4C2868017869B14078884207D8B0EB510F03D9081AC0F1270000E000
:2013C000401E34F8100000E0572004F017FF012007F0E4FF2868017869B14078884207D893
:2013E000B0EB510F03D9081AC0F1270000E0401E34F8100000E0572004F006FF08490020E1
:20140000C1F8A8010749C1F8800107484078BDE8704007F0C3BF00004004002000AF0108EF
:2014200000002242008021424804002070B50C4C0020C4F8A8014FF4FA76304604F5D4748D
:2014400007F0DBFF01252560304607F0D6FF0548016821F00F01491C01600348056070BD54
:2014600000002242000C0140100801402DE9F05FDFF824A24FF48035DAF84800C0F38728EC
:20148000C0F309029AF84600914600EB0901B1F5806F04D95142CEB2801BC7B201E0064624
:2014A0000027FFF73FFDFFF7C1FF41F21620FFF79DFC0020FFF7BAFCDFF8E0B100244FF48A
:2014C000806A52467649284605F0D0F84FF4903000EB84205246714905F0C8F8072C10D1F3
:2014E000FF218BF8F8138BF8F9138BF8FA138BF8FB138BF8FC138BF8FD138BF8FE138BF852
:20150000FF13654991F84600002877D065480068002873D1B8F1060F0ED9B8F1070F00D117
:2015200057B1A8F10800072846D804F10800404530D100205D462BE044450DD10020584D38
:2015400008E001EB400200EB090392F85C20401CEA5480B2B042F4D36FB308F10100844211
:201560004CD100204E4A07E0331801EB430393F85C301354401C80B2B842F5D33EE001EB5A
:20158000400200EB090392F85C20401CEA5480B2B042F4D37FB1A4EB0800C01D2ED15A4644
:2015A00007E0331801EB430393F85C301354401C80B2B842F5D321E0B8F1070F1ED1EFB1AA
:2015C000072C0DD10020364D08E001EB400292F85C3000EB0902401CAB5480B2B042F4D3EF
:2015E00064B900205A4607E0331801EB430393F85C301354401C80B2B842F5D3072C19D1BF
:201600002748294990F8F8230A7090F8F9234A7090F8FA238A7090F8FB23CA7090F8FC2348
:201620000A7190F8FD234A7190F8FE238A7190F8FF03C8710025DFF868A000211AF8050029
:20164000FFF79AFB0AEB050000214078FFF794FBDA461BF805000021FFF78EFB0AEB0500D5
:2016600001214078FFF788FB30B1104905EB842048609A20BDE8F09FAD1CADB2B5F5806FF2
:20168000D9D34FF4823000EB8425641CE4B2082CFFF415AF0020EDE7F00500203430002087
:2016A0003410002034040020580400206C06002000207047002070470020704770B5002492
:2016C000064E07E0155D4540EDB2641C56F8255085EA10209C42F5D3484070BD8CAA0108BD
:2016E000F0B5254890F80EE0B0F85CC0B0F85E70B0F86020B0F8626030F8543FBEF10A0F13
:2017000045888188C48818D00CF0FF00FFB200EB0720D2B200EB0240DAB2EBB202EB032215
:20172000C9B202EB014100EB066001EB0461421C01D088421ED98920F0BD3F04002017EBB2
:201740000C0740EB000CC71942EB0C02C71942EB06464FEA0542D21840EB000583186941EC
:20176000C01841EB04426FEA07013143E3D0C01BB241E0D30020F0BDF00500200F4810B518
:20178000C17B807B00EBC00202EB001001EB800403F0F4FE03F03CFF204605F0D7FE20464F
:2017A00005F0C8FE204605F081FEBDE8104000224FF40071024801F0F1BC0000F0050020CC
:2017C000000801402DE9F84FDB4941F28830088007F0A6FCD9480A210127C0E900170521D9
:2017E00081600146D64800F021FED64E00228021304601F0D3FC0A2007F0D0FD4024002302
:20180000F0221946204604F0C5FE641CE4B26F2CF5D94FF4004003F0DFFD4FF4014003F0F2
:20182000DBFDC94C022548F20700E560C4E900072146304601F0BCFB01220721304601F023
:20184000ADFC1F20E560C4E90007C04E2146304601F0AEFB01221021304601F09FFC4EF688
:20186000C040E560C4E900072146B94801F0A0FB0024DFF8E0824FF4487BDFF8DCA2B74EBE
:20188000A14601E00C2C21D2651C282D01D9601C00E02046012336F81000C022214604F044
:2018A00079FEA01CE9B2282800D900E0601C012336F81000C02204F06DFE58F82420C2F8E4
:2018C000009008EB84004068076023E0A4F10B05E9B2282D01DD284601E0A4F10C00012368
:2018E00036F81000C02204F055FEA4F10C00C1B2801C282800DD0546012336F81500C02210
:2019000004F048FE08EB840050F8301D0F604068C0F800900A2007F041FD894800F0A4FF5F
:201920003221874800F008FF854800F033FE85B2DAF80000FEF7AEFC00902846FEF7AAFC5F
:201940008749FEF737FC8749FEF734FC0099FEF763FCFEF7A4FC80B26438584502D9502062
:20196000BDE8F88F0C2C15D2651C282D01D9601C00E02046002336F81000F022214604F0DC
:2019800009FEA01CE9B2282800D900E0601C36F8100014E0A4F10C00451CC1B2282D00DD8B
:2019A0002846002336F81000F02204F0F3FDA4F10A00E9B2282800DD054636F8150000234A
:2019C000F02204F0E7FDA41CE4B2182CFFF45AAF4FF4004003F000FD48F20F1003F0FCFCD0
:2019E000D3460024B246012606EB4408B8F1280F4FEA440000D9401C01233AF81000C02274
:201A0000214604F0C7FD022000EB440504F10807F9B2282D4FEA440001D9801C00E0401C1E
:201A200001233AF81000C02204F0B4FD49484FF0000950F82420C2F8009000EB8400006A31
:201A400006600A2007F0AAFC3D4800F00DFF32213B4800F071FE3A4800F09CFD86B2DBF88D
:201A60000000FEF717FC00903046FEF713FC3C49FEF7A0FB3B49FEF79DFB0099FEF7CCFBD9
:201A8000FEF70DFC80B26438B0F5487F01D9512066E73049303151F82410C1F800900A20AC
:201AA00007F07CFC264800F0DFFE3221244800F043FE234800F06EFD86B2DBF80000FEF7C6
:201AC000E9FB81463046FEF7E5FB2549FEF772FB2449FEF76FFB4946FEF79EFBFEF7DFFB88
:201AE00080B240F21F316538884201D2522037E7B8F1280F4FEA440000D9401C56463AF808
:201B000010000023F022214604F044FDF9B2282D4FEA440001D9801C00E0401C002336F864
:201B20001000F02204F036FD641CE4B2042CFFF45AAF002014E70000B8000020745800203B
:201B4000600400200008014038070020000C014000100140D4030020BC00002000AF010830
:201B60003333C34000401C45014800F06BBF00008C060020014800F065BF0000C4060020FF
:201B800010B5046863604368102B036803D099600068C26010BD9A600068C16010BD7047D6
:201BA00030B53AA20C00A1B02ECA8DE82E003BA20DF1100C2ECA8CE82E003CA10DF1200CD4
:201BC0002EC98CE82E003DA10DF1300C2EC98CE82E003EA10DF1400C2EC98CE82E003FA119
:201BE0000DF1500C2EC98CE82E0040A10DF1600C2EC98CE82E0041A10DF1700C2EC98CE847
:201C00002E0009D02109092933D2DFE801F0321C1E20222426322800072810D2DFE800F08A
:201C20000F0406080A0C0E00684608E004A806E00CA804E008A802E010A800E014A807F0C2
:201C4000C3FA32481EE0684613E004A811E00CA80FE008A80DE010A80BE014A809E004F095
:201C60000F01022902D0082903D101E01CA800E018A807F0A9FA264A0221204608F0FEF98B
:201C80002348083807F0D9FA21B030BD20202056505020434845434B202020202020205607
:201CA000444420434845434B2020202020202053484F525420544553542020202020204F3F
:201CC00050454E2020544553542020202020434F4E4E4543542054455354202020202046B1
:201CE0004C41534820544553542020202020205245414420434F554E54202020202045589A
:201D000054454E4420424F4152442020CC0100201403002070B505460C4607F0ABFA07F057
:201D2000F9FA00224FF48051184801F037FA25B1012D06D0022D0CD107E020201449087016
:201D400007E0D8201249087003E0C7201049087000BF00BF4FF47A7301220D490D4802F0C8
:201D60009EFC022D0BD0200C09490870200A48708C704FF47A730322064802F090FC0122A7
:201D80001103024801F00AFA70BD0000000C01408D030020A4040020FEE7000010B503F061
:201DA00041FD01B20C4801800C48C27B807B00EBC00303EB001002EB8000A0F58062B43A53
:201DC00003D0491C06D0822010BD88B24CF201018842F8D1002010BDAC000020F0050020AB
:201DE00010B54FF0FF30064B064A0146FFF766FC05490968814201D0802010BD002010BDC3
:201E000000FF02000000010800FF03083EB5174B044600250A21186803E0B0FBF1F06D1C47
:201E2000EDB20028F9D16A462946186808F0EAF89DF8000020702E2060709DF80110A1709E
:201E4000E0709DF8020020719DF8030060712020A071002268462D1F05E08118A318097979
:201E6000521CD971D2B2AA42F7DB3EBDF8FF030810B57F2005F0E2FA0A2007F08FFA3F202D
:201E800005F0DCFA0A2007F089FABDE810407F2005F0D4BA2DE9F05FDFF8488200264FF44D
:201EA000803A4FF4403B4FF4807900210846FFF731FF51460020FFF72DFF4FF4003100206C
:201EC000FFF728FF59460020FFF724FF4FF480210020FFF71FFF4FF4A0210020FFF71AFFC2
:201EE0000EB1552500E0AA25002041460D54401C80B2FF28FAD900273C464A4679493846F1
:201F000007F0E2F9641CA4B207F58037062CF4D300273C464A467349384604F0A7FB002044
:201F2000414607F580370A5CAA4202D06020BDE8F09F401C80B2FF28F5D9641CA4B2062C04
:201F4000E8D3761CB6B2022EAFD300210846FFF7E1FE51460020FFF7DDFE4FF400310020BA
:201F6000FFF7D8FE59460020FFF7D4FE4FF480210020FFF7CFFE4FF4A0210020FFF7CAFE65
:201F800000264FF4502B4FF4402A544651460020FFF7C0FE59460020FFF7BCFE4FF4602178
:201FA0000020FFF7B7FE4FF470210020FFF7B2FE0EB1552500E0AA25002041460D54401C70
:201FC00080B2FF28FAD9A246274600244A464549384607F079F9641CA4B207F58037042C9E
:201FE000F4D3574600244A463E49384604F03EFB0020414607F580370A5CAA4201D0612099
:2020000095E7401C80B2FF28F6D9641CA4B2042CE9D3761CB6B2022EB7D351460120FFF79C
:2020200079FE59460120FFF775FE4FF460210120FFF770FE4FF470210120FFF76BFEDFF88C
:20204000A8B000264FF4801A544651460020FFF761FE59460020FFF75DFE4FF4811100207A
:20206000FFF758FE21490020FFF754FE0EB1552500E0AA25002041460D54401C80B2FF289D
:20208000FAD9A246274600244A461649384607F01BF9641CA4B207F58057042CF4D357463F
:2020A00000244A460F49384604F0E0FA0020414607F580570A5CAA4201D0622037E7401C2F
:2020C00080B2FF28F6D9641CA4B2042CE9D3761CB6B2022EB8D351460120FFF71BFE00207A
:2020E00025E700003410002000101000003010002DE9F04107460C464FF00008B4F5803F7B
:202100003AD918E0B4F5806F01D2A5B201E04FF480652A462849384604F0A8FA002606E0E8
:202120002548805D40441FFA80F8701C86B2AE42F6DB2F44641BB4F5803FE3D819E0B4F504
:20214000806F01D2A5B201E04FF480652A461A494FF4403004F08AFA002606E01648805D18
:2021600040441FFA80F8701C86B2AE42F6DB2F44641B002CE3D11BE018E0B4F5806F01D295
:20218000A5B201E04FF480652A460B49384604F06DFA002606E00848805D40441FFA80F8F4
:2021A000701C86B2AE42F6DB2F44641B002CE4D14046BDE8F0810000341000200148806995
:2021C000704700008800002070B50446E5202070422060707A20A07004F0BEFC04F0B4FA70
:2021E00004F00EFC002505E05648415DE81C2154681CC5B2102DF7DB53480088000AE07497
:2022000051480078207551480068000E60754F480068000CA0754D480088000AE0754B4805
:2022200000782076002508E04948284490F8E81705F119002154681CC5B20C2DF4DB002553
:2022400006E04448415D05F125002154681CC5B20E2DF6DB3F48807B04F8330F3D48C07B57
:2022600060703C48B0F84400000AA070394890F84400E0703748B0F86600000A20713548C2
:2022800090F8660060713348B0F86A00000AA071304890F86A00E0712E48B0F86E00000A86
:2022A00020722C4890F86E0060722A48007CA072333C10222749243104F14000FDF756FF6C
:2022C000244890F8460084F85000224890F8640084F851001F48806CC4F85200002516E059
:2022E0001C484C3030F815106800563021521948543030F8151068005E30215215485C30CC
:2023000030F81510680066302152681CC5B2042DE6DB1148006844F86E0F0E48808BA08017
:202320000C48C08BE0800B48008C20810948408C60810A480088A08109480088E0816E3C41
:2023400070BD0000E0FF0308FCFF0008F8FF030800F0FF1FF00500207C060020F0FF0308A2
:20236000F4FF0308F8B500260446009690F82400012808D0012084F824002046FEF738F8B3
:20238000070002D04BE00220F8BDA06A20F4885040F00200A062022001F038FA2249096817
:2023A000B1FBF0F0400000E0401E00900028FBD12046FEF743F82068816841F0080181606D
:2023C00000F0F2FE054604E000F0EEFE401B0A2811D8206880680007F6D42068816841F0B9
:2023E0000401816000F0E0FE05460EE000F0DCFE401B0A2809D9A06A20F0020040F010005B
:20240000A06284F824600120F8BD206880684007ECD4A06A20F0020040F00100A06284F8A2
:2024200024603846F8BD000084000020F8B50023009390F824209E46012A1ED0012280F87A
:2024400024204A681F254FF47874072A17D20668776B94FAA4FCBCFA8CFC521E02FB0CFCC8
:2024600005FA0CF5AF4394FAA4F4B4FA84F40D68624395402F4377632DE00220F8BD066891
:202480000D2A14D2376B94FAA4FCBCFA8CFCD21F02FB0CFC05FA0CF5AF4394FAA4F4B4FA55
:2024A00084F40D68624395402F43376313E0F76A94FAA4FCBCFA8CFC0D3A02FB0CFC05FA9E
:2024C0000CF5AF4394FAA4F4B4FA84F40D68624395402F43F7620A683825072604680A2A67
:2024E00014D3E76895FAA5FCBCFA8CFC0A3A02FB0CFC06FA0CF6B74395FAA5F5B5FA85F5A1
:202500008E686A4396403743E76012E0276995FAA5FCBCFA8CFC02FB0CFC06FA0CF6B74390
:2025200095FAA5F5B5FA85F58E686A439640374327610A68102A01D0112A20D1124C02685D
:20254000A24217D19468240219D4946844F4000494600968102912D10C490D4A0968B1FB1E
:20256000F2F101EB8101490000E0491E00910029FBD104E0816A41F020018162012380F854
:2025800024E01846F8BD0000002401408400002040420F000068C06C704700002DE9F041F8
:2025A00004004FF0000513D0A06A002628B9E66284F82460204600F09FF82046FDF718FF39
:2025C000A16AC90600D420B1A06A40F01000A06289E0A16A21F4885141F00201A16243490B
:2025E0002368E2698B4204D1B2F5402F01D14FF40022022191FAA1F1D4F80CC0B1FA81F121
:202600000CFA01F10A4361684FF480770A43A168B94208D0012906D00021D4F814E0BEF1B9
:20262000010F02D010E03946F7E7BCF1000F21D0D4F828C04CF0200CC4F828C0D4F82CC046
:202640004CF0010CC4F82CC0D3F804C02CF4694C4CEA010CC3F804C021688B68DFF890C0C0
:2026600003EA0C0313438B60A168B94213D0012911D019E04FF4604ED4F818C09EFAAEFE59
:20268000BEFA8EFEACF1010C0CFA0EFC4CEA010C4CF40061D8E74FF47001256991FAA1F13A
:2026A000B1FA81F16D1E8D402168CB6A23F470032B43CB62216889680E4B1940914208D1EA
:2026C000E662A16A21F0020141F00101A162BDE8F081A06A20F0020040F01000A062E06A9F
:2026E00040F00100E0620120F1E70000003C0140FDF7E1FFFE0E1FFF00B500680B4985B04D
:20270000884210D10A48816941F4007181618069694600F4007004900F2000900320019047
:20272000044800F045FC05B000BD00000024014000100240001001402DE9F8434FF000080A
:202740000D460446CDF8008000F02EFD064620688168C90508D5A06A40F02000A06284F83C
:2027600024800120BDE8F8834168C90503D4C06A10F4700F25D0022001F048F83749096840
:20278000B1FBF0F720680169354A11424FEA62024FEAA2131AD1C1684FEA621C11EA0C0F76
:2027A00014D10169114220D1C06818421DD114201EE0681C05D035B300F0F6FC801BA8423C
:2027C00021D8206800688007F3D529E00169114202D1C168194206D0026922490A4206D1D5
:2027E000C068084203D1542002E0292000E0FC204743009812E0681C0DD025B100F0D4FCED
:20280000801BA84207D9A06A40F00400A06284F824800320A6E70098401C0090B842EAD308
:2028200021686FF012000860A06A40F40070A06220688068C0F3424007280CD1E06850B984
:20284000A06A20F48070A062A06AC00403D4A06A40F00100A062002084E700008400002057
:20286000244992244992240070B5044690F8240001280DD0012084F824002046FDF7DEFD1F
:2028800001004FF0000205D084F82420084670BD022070BDA06A40F20123984340F4807038
:2028A000A0621F4D20681F4BA84218D11E6816F4702F14D0A66A46F48016A6621E687605E9
:2028C00005D5A66A26F4005646F48056A662A66AF6040AD5E66A26F00606E66206E0A66AED
:2028E00026F48016A6624668E9E7E26284F824206FF00202026020688268C2F34242072AFD
:2029000005D1A84208D11A6812F4702F04D0826842F480128260B9E7826842F4A002F9E74D
:20292000002801400424014070B54379012B1AD00124447102230371D1E900310B430168B9
:202940000D6840F6FE769640B54393401D430D6001680B68C0259540AB430B600471002165
:202960004171084670BD022070BD70B5040003D02079002510B105E0012070BD65712046F1
:2029800000F008F802202071256101202071002070BD000000B500680B4985B0884210D1BE
:2029A0000A48C16941F00051C161C069694600F0005004903020009003200190044800F07B
:2029C000F7FA05B000BD000000740040001002400008014018B5046800940068104421B1EA
:2029E000143000900360002018BD0830F9E730B54279012A12D0012343710222027102680D
:202A0000146803FA01F52C431460002901680A6806D0C2F383420F2A0AD00DE0022030BD01
:202A2000C2F383020F2A07D14A6842F0010202E04A6842F002024A6003710021417108465B
:202A400030BD00002DE9F05F0446F84AF74DF74EF64F0068DFF8D493DFF8D0A3DFF8CCB384
:202A6000D114783D643E503F4FF4000E4FF4004C4FF40028A9F13C09AAF1280AABF1140BD9
:202A8000904221D9EA4A1368A8420FD0B0420FD0B84213D0484513D0504513D0584501D1ED
:202AA000724624E0E24A083290423CD108221EE080221CE0DE4A3032904239D10A4616E0A3
:202AC000624614E0424612E0D84A803A1368A842ECD0B042ECD0B842F0D04845F0D0504599
:202AE000F0D05845DCD0D14A9042DBD10205134279D00268D243120775D4026822F0080228
:202B00000260CA4A2068904232D9A84219D0B0421DD0B84228D0484523D0504523D0584591
:202B20000BD1714620E0C24A1C329042C2D1BFE7BF4A44329042C5D1C2E7BD4A08329042FA
:202B400001D1082110E0BA4A1C32904201D180210AE0B74A3032904206D0B54944318842C1
:202B600001D1614600E04146B148001D01602CE0A84214D0B04218D0B84223D048451ED0E2
:202B800050451ED0584501D171461BE0904202D14FF0006116E0A64A0832904201D108215F
:202BA00010E0A34A1C32904201D180210AE0A04A3032904206D09E494431884201D1614628
:202BC00000E04146994880384160606B40F001006063042084F82100002084F82000216B8C
:202BE00009B120468847914A206811154FF4800E4FF4804C4FF48028904221D98C4A136875
:202C0000A8420FD0B0420FD0B84213D0484513D0504513D0584501D1724624E0844A083222
:202C200090423FD104221EE040221CE0804A303290423CD10A4616E0624614E0424612E0C9
:202C40007A4A803A1368A842ECD0B042ECD0B842F0D04845F0D05045F0D05845DCD0734AC5
:202C60009042DBD1C204134275D00268D243520771D40268920603D4026822F0040202609C
:202C80006A4B2068984232D9A84219D0B0421DD0B84228D0484523D0504523D058450BD1ED
:202CA000714620E0624A1C329042BFD1BCE7604A44329042C2D1BFE75D4A0832904201D1AE
:202CC000042110E05A4A1C32904201D140210AE0574A3032904206D055494431884201D1A4
:202CE000614600E041465248001D01602CE0A84214D0B04218D0B84223D048451ED05045FD
:202D00001ED0584501D171461BE0984202D14FF0806116E0464A0832904201D1042110E05E
:202D2000434A1C32904201D140210AE0404A3032904206D03E494431884201D1614600E016
:202D400041463A4880384160112084F82100E16A09B120468847DFF8D4C04FF40071206862
:202D60000B014FF4003E604523D9314AD2F80080A84210D0B04210D0B84214D0484514D075
:202D8000504514D0584502D14FF4001224E0284A0832904240D102221EE020221CE0244A94
:202DA000303290423DD10A4616E01A4614E0724612E01E4A803AD2F80080A842EBD0B0428A
:202DC000EBD0B842EFD04845EFD05045EFD05845DAD06045DBD1120218EA020F7DD0026869
:202DE000D24392077DD40268920603D4026822F0020202602068604536D9A8421DD0B04214
:202E000021D0B8422CD0484527D0504527D0584510D14FF4001123E0054A1C329042BED1E8
:202E2000BBE7034A44329042C1D1BEE780000240000402402C4A904201D1022110E02A4A7B
:202E40001432904201D120210AE0274A2832904206D025493C31884201D1194600E071467D
:202E60002148001F01602BE0A84214D0B04218D0B84223D048451ED050451ED0584502D15B
:202E80004FF400111AE0604502D14FF0007115E0154A904201D1022110E0134A143290423C
:202EA00001D120210AE0104A2832904206D00E493C31884201D1194600E071460B4841606F
:202EC000606B6063012084F82100002084F82000A16A002905D0204600E002E0BDE8F05FC5
:202EE0000847BDE8F09F0000080402400000024070B520B190F82110002411B103E0012026
:202F000070BD80F82040022180F8211001680A6843F6F0739A43D0E901352B43D0E903561D
:202F200035432B4345692B4385692B43C5692B4313430B604463012180F82110002070BD17
:202F400070B5044690F82000012823D0012084F82000022084F821002068056825F00105B2
:202F600005602046FEF70CFE2068016841F0020101602068016841F0040101602068016888
:202F800041F0080101602068016841F001010160002070BD022070BD31B500F005F9044657
:202FA00000F002F90099001B8842F9D338BD00002DE9F84FDFF8BC91002309F1040A0AF140
:202FC000040B1C464FF00F080BF1040E01270A68A7403A40BA4272D1DFF89CC14D68A5EB69
:202FE0000C0665452BD00DDC032D34D005DC35B3012D19D0022D2FD11BE0112D16D0122D90
:203000002AD119E0B6F5881F19D006DCB6F5803F15D0B6F5801F1FD111E0B6F5001F0ED07D
:20302000B6F5041F18D10AE0CB6815E0CB681B1D12E0CB6808330FE0CB680C330CE08B68BC
:203040002BB1012B4FF0080303D0476104E0042302E0076100E00023FF2A01D8064601E01C
:2030600000F104064FEA840501D9A5F12005376808FA05FC27EA0C0703FA05F547EA050704
:2030800037604D68ED006ED53C4DAE6946F00106AE61AD6924F0030605F001050095384D80
:2030A0007719BE68A5072D0F08FA05FC26EA0C06DFF8D0C0604503D14FF0000C25E052E0EB
:2030C000DFF8C4C0604502D14FF0010C1DE0DFF8BCC0604502D14FF0020C16E0DFF8B0C07F
:2030E000604502D14FF0030C0FE0DFF8A8C0604502D14FF0040C08E0DFF89CC0604502D182
:203100004FF0050C01E04FF0060C0CFA05FC4CEA060CC7F808C04D68D9F80060ED034D46EE
:2031200001D5164300E096432E604D68DAF80060AD03554601D5164300E096432E604D68BC
:20314000DBF80060ED025D4601D5164300E096432E604D68DEF80060AD02754601D51643B0
:2031600000E096432E60641C102CFFF42FAFBDE8F88F000000040140000011100010024097
:203180000000014000080140000C0140001001400014014000180140001C01400AB10161DF
:2031A00070470904FBE7000001480068704700003804002002480168491C01607047000075
:2031C00038040020074810B5016841F010010160032000F08FF8002000F006F800F016F8CD
:2031E000002010BD0020024010B5044600F0E4FC4FF47A71B0FBF1F001F0D9FC0022214698
:20320000501E00F057F8002010BD0000214808B5816941F001018161806900F00100009085
:20322000032000F067F8002211466FF00B0000F041F8002211466FF00A0000F03BF80022E9
:2032400011466FF0090000F035F800221146501F00F030F800221146101F00F02BF80022B5
:203260001146901E00F026F800221146501E00F021F800221146012000F01CF8012000F09C
:203280000DF80548416821F0E06141F00071416008BD0000001002400000014000F01F0235
:2032A000012191404009800000F1E020C0F8001170470000F0B40E4B1B68C3F30223C3F1D2
:2032C0000704042C00D904241D1D072D01D2002300E0DB1E012606FA04F56D1E0D409D40A0
:2032E0009E40761E164045EA0601F0BC02F0FEBB0CED00E0064A00F0070110684FF6FF0399
:20330000184040EA0120034908431060704700000CED00E00000FA05BFF34F8F054801682E
:20332000054A01F4E06111430160BFF34F8F00BFFDE700000CED00E00400FA0510B50C066D
:2033400005D501F07F0100EB4110283003E000EB411000F5027099B232B101228272C18082
:20336000190C0181002010BD002282728180F9E7704700EB4112D0F81C04D26B04F089BD6E
:2033800000EB4112D0F81C04D2F81C2204F0D6BD10B504460A460B0601F07F0004EB401158
:2033A00001D5283101E001F502710870D009487094F8E803012809D0012084F8E803206802
:2033C00005F09FF9002084F8E80310BD022010BD70B50A460446090602F07F0003D504EB17
:2033E0004011283103E004EB421101F5027100258D700870D009487094F8E803012809D0F1
:20340000012084F8E803206805F019FA84F8E853002070BD022070BD70B504460D460E066B
:2034200001F07F0004EB401101D5283101E001F502710870E80948700A61CB7094F8E80325
:20344000012809D0012084F8E803206805F02EF8002084F8E80370BD022070BD70B50446CD
:203460000E4601F07F0004EB401101F5077100252CC101F81F5C01F8200D94F8E80301288E
:203480000AD0012084F8E8037006206805F031FA84F8E853002070BD022070BD70B50D46E1
:2034A0000446090605F07F0003D504EB4011283103E004EB451101F5027101228A700870A8
:2034C000E809487094F8E803012807D084F8E823206805F0E9F9680602D006E0022070BD71
:2034E00004F57B71206805F0A8F9002084F8E80370BD70B504460E4601F07F0004EB4011A2
:203500003C3100252CC1012201F81F2C01F8200D94F8E803012809D084F8E82370062068A1
:2035200005F0E7F984F8E853002070BD022070BD10B50446006805F0BDFA000402D52046FF
:2035400002F06EFE206805F0B5FA40050CD5206830F8441F21F480610180204600F0EAF8F9
:203560000021204600F0FBF8206805F0A3FA400405D5206830F8441F21F4804101802068B7
:2035800005F098FA800405D5206830F8441F21F400510180206805F08DFAC00413D5206814
:2035A00030F8401F21F00401018021684FF43D40A1F84000204600F0CAF8206830F8441FA0
:2035C00021F480510180206805F074FA00051AD5206830F8441F21F400610180206830F8EB
:2035E000401F41F008010180206830F8401F41F004010180206805F05DFAC043C00402D579
:20360000204600F0E1F8206805F054FA800508D5206830F8441F21F400710180204600F0DE
:203620009AF8206805F046FAC00505D5206830F8441F21F48071018010BD2DE9F04186B0B8
:2036400004004FF0000504D094F8E903002620B108E0012006B0BDE8F08184F8E8632046DD
:2036600000F04AF8032084F8E903206805F0DEF804F11001142288466846FCF777FD94E89F
:203680000F0005F03CF80021206805F024FA012704EB451080F8297000F8285F8581C670FE
:2036A000066146616D1C86610F2DF1D3002104EB411080F8096280F80812818680F80B62CA
:2036C000C0F81862C0F81C62491CC0F820620F29EDD3142241466846FCF748FD94E80F00BD
:2036E00005F09BF884F8246084F8E973206805F092F80020AEE7000008B500680B4988426B
:2037000012D10B48C16941F40001C161C069002200F40000009011461420FFF7CBFDBDE834
:2037200008401420FFF7BABD08BD0000005C00400010024010B504460121D0F81C0404F0E0
:20374000CFFCD4F81C04BDE8104004F098BCD0F81C0404F0B3BCD0F81C0404F0B5BC10B518
:20376000044690F8E80301280BD0012084F8E80384F82410206805F0B0F9002084F8E803A3
:2037800010BD022010BDD0F81C2400F57B71104604F0B9BC10B5044690F8E803012810D03A
:2037A000012084F8E80301462046FFF7E1FD206805F02FF8206805F06FF9002084F8E803F0
:2037C00010BD022010BD000010B50446D0F81C0404F0E6FCA069002804D00348016841F076
:2037E0000601016010BD000010ED00E07047000010B5054C2068C00304D5FFF7F7FF4FF497
:203800008030206010BD00001404014010B5014636A086B01DC88DE81D0038A0384C0068FF
:2038200004900020042944D012DC012944D002293DD100F0DFF961684FF4804292FAA2F278
:2038400001F44041B2FA82F2D140491C49002CE008292ED010292AD161682268D20126D583
:203860004FF4701292FAA2F201F47010B2FA82F2D040C9031DF8000010D561684FF40032BA
:2038800092FAA2F201F40031B2FA82F2D14004AA515C1C4AB2FBF1F1484301E01A49484307
:2038A0006168490203D440000321B0FBF1F006B010BD00F0B7F9FAE7216AC1F30122012A9C
:2038C00003D1890701D5D003F1E7022A05D1616A890702D549F64040E9E7032AE7D12168D2
:2038E0008903E4D54FF22440E1E7000002030405060708090A0B0C0D0E0F1010010200007C
:203900000010024000127A0000093D002DE9F84304460078454EC00773D0F06940F080507A
:20392000F061F069424F00F080500090386840F480703860FFF738FC054604E0FFF734FC21
:20394000401B642832D83868C005F7D5306A10F4407050D0A18801F4407181424BD0306A90
:2039600001273B0493FAA3F1B1FA81F18A00314920F440700A44C2F8007493FAA3F3B3FA8E
:2039800083F301EB83010022C1F800243062C00731D0FFF709FC054641F288394FF0020865
:2039A00007E0FFF701FC411B494502D90320BDE8F88398FAA8F0B0FA80F040F040004146EA
:2039C000B7EB501F01D130680BE091FAA1F0B0FA80F040F04000B1EB501F01D1306A00E084
:2039E000706A98FAA8F1B1FA81F101F01F0207FA02F10842D5D0306A616820F4407008433E
:203A000030622078800705D57068A16820F44040084370602078C00605D57068616920F49D
:203A20008000084370600020C1E700000010024000700040000042422DE9F047DFF8688190
:203A400004460E46D8F8000000F00700B0420CD2D8F8001021F007013143C8F80010D8F824
:203A6000000000F00700B04273D120784F4F800705D57868A16820F0F000084378602078DE
:203A8000C00755D06068012201280CD0022828D0022393FAA3F1B1FA81F141F02001490921
:203AA00004D0396803E04FF40033F2E7796A93FAA3F3B3FA83F303F01F039A40114248D0DC
:203AC000796821F0030101437960FFF76DFB0546606841F2883101280CD00228894615D093
:203AE00022E04FF00073D4E7FFF75EFB411B494501D916E089467868C0F381000128F3D17E
:203B000016E0FFF751FB411B49450AD87868C0F381000228F5D10BE0FFF746FB411B494591
:203B200002D90320BDE8F087786810F00C0FF3D1D8F80010404601F00701B1420BD901680D
:203B400021F0070131430160006800F00700B04201D00120E6E72078400705D57868E16885
:203B600020F4E060084378602078000706D57868216920F4605040EAC100786000F052F829
:203B80007968F02292FAA2F201F0F001B2FA82F2D140074A515CC840064908600020FFF72C
:203BA00023FB0020BEE70000002002400010024074AA01088400002001480068704700003B
:203BC0008400002008480949006849684FF4E06292FAA2F201F4E061B2FA82F2D140044A2C
:203BE000515CC84070470000840000200010024084AA010808480949006849684FF460527C
:203C000092FAA2F201F46051B2FA82F2D140044A515CC840704700008400002000100240FD
:203C200084AA010810B519A085B00FC88DE80F001AA01B4B0068049059681A4801F00C0201
:203C4000042A1DD0082A1BD14FF4701494FAA4F401F47012B4FA84F4E240C9031DF802207C
:203C600010D559684FF4003393FAA3F301F40031B3FA83F3D94004AB595CB0FBF1F0504320
:203C800005B010BD08485043FAE7000002030405060708090A0B0C0D0E0F10100102000044
:203CA0000010024000127A0000093D002DE9F84F04460078FE4EC0074FF001057FD0706842
:203CC0004FF40038C0F38100012807D07068C0F3810002281BD17068C00318D598FAA8F061
:203CE000B0FA80F040F02000400901D0306800E0706A98FAA8F1B1FA81F101F01F0105FA96
:203D000001F108425BD06068002879D057E06068B0F5803F0BD010B1B0F5A02F11D0306817
:203D200020F480303060306820F4802002E0306840F480303060606818B3FFF735FA0746F0
:203D400009E0306840F480203060F0E7FFF72CFAC01B642870D898FAA8F0B0FA80F040F068
:203D60002000400901D0306800E0706A98FAA8F1B1FA81F101F01F0105FA01F10842E5D06E
:203D80001DE0FFF711FA074604E0FFF70DFAC01B6428DFD898FAA8F0B0FA80F040F0200045
:203DA000400901D0306800E0706A98FAA8F1B1FA81F101F01F0105FA01F10842E5D12078B5
:203DC000DFF8F08280074FF0000A4FF002075AD570684FF0F80B10F00C0F07D07068C0F3BC
:203DE000810002281CD17068C00319D497FAA7F0B0FA80F040F02000400902D0306801E07D
:203E00008AE0706A97FAA7F1B1FA81F101F01F0105FA01F108422BD0206901287CD127E0CB
:203E2000206988B395FAA5F0B0FA80F048F82050FFF7BAF9814606E04DE1FFF7B5F9A0EB1D
:203E40000900022886D897FAA7F0B0FA80F040F02000400901D0306800E0706A97FAA7F1AA
:203E6000B1FA81F101F01F0105FA01F10842E4D030689BFAABF220F0F8016069B2FA82F269
:203E800090400143316025E0FFE795FAA5F1B1FA81F148F821A0FFF787F9814605E0FFF737
:203EA00083F9A0EB09000228CCD897FAA7F0B0FA80F040F02000400901D0306800E0706A26
:203EC00097FAA7F1B1FA81F101F01F0105FA01F10842E4D1207800076DD5A069B8B395FAB7
:203EE000A5F0B0FA80F008EB8000C0F88054FFF75BF9814605E0FFF757F9A0EB090002281A
:203F0000A0D897FAA7F0B0FA80F040F06000B5EB501F02D130680CE063E197FAA7F0B0FADB
:203F200080F040F06000B7EB501F01D1306A00E0706A97FAA7F1B1FA81F101F01F0105FAF4
:203F400001F21042D7D00120FFF726F833E0FFE795FAA5F1B1FA81F108EB8101C1F880A4B3
:203F6000FFF722F9814605E0FFF71EF9A0EB0900022899D897FAA7F0B0FA80F040F0600076
:203F8000B5EB501F01D130680BE097FAA7F0B0FA80F040F06000B7EB501F01D1306A00E08E
:203FA000706A97FAA7F1B1FA81F101F01F0105FA01F21042D8D12078400763D5F06940F043
:203FC0008050F061F069DFF8F0B000F080500090DBF8001041F48071CBF80010FFF7E4F8F2
:203FE000814605E0FFF7E0F8A0EB0900642872D8DBF80000C005F5D5E06801280AD008B177
:20400000052813D0306A20F001003062306A20F0040002E0306A40F001003062E06841F2EB
:20402000883B80B3FFF7C0F881460AE0306A40F004003062EEE7FFF7B7F8A0EB090159451E
:2040400049D897FAA7F0B0FA80F040F04000B5EB501F01D130680BE097FAA7F0B0FA80F0E7
:2040600040F04000B7EB501F01D1306A00E0706A97FAA7F1B1FA81F101F01F0205FA02F14F
:204080000842D8D033E0FFE7FFF78EF8814605E0FFF78AF8A0EB090159451CD897FAA7F046
:2040A000B0FA80F040F04000B5EB501F08D105E000100240000042420070004030680CE09F
:2040C00097FAA7F0B0FA80F040F04000B7EB501F02D1306A01E08AE0706A97FAA7F1B1FAB7
:2040E00081F101F01F0205FA02F10842D0D1E06998B37168C1F38101022972D002284FF0E6
:2041000080714FF0007B50460AD091FAA1F1B1FA81F148F82100FFF747F804465F4669E07C
:204120008A4691FAA1F1B1FA81F1C14648F82100FFF73AF8A84607465D4604E0FFF734F801
:20414000C01B022853D895FAA5F0B0FA80F040F02000400902D0306801E060E0706A95FA64
:20416000A5F1B1FA81F101F01F0208FA02F10842E4D1206AB0F5803F05D17068A16820F4CD
:20418000003008437060D4E908010843716821F47411084370609AFAAAF0B0FA80F0474660
:2041A00049F82080FFF700F8044604E0FEF7FCFF001B02281BD895FAA5F0B0FA80F040F06C
:2041C0002000400901D0306800E0706A95FAA5F1B1FA81F101F01F0107FA01F10842E5D00E
:2041E0001DE01EE0FEF7E0FF001B022802D90320BDE8F88F97FAA7F0B0FA80F040F02000EF
:20420000400901D0306800E0706A97FAA7F1B1FA81F101F01F0105FA01F10842E2D10020CD
:20422000E6E70120E4E7704710B5040003D094F8510010B104E0012010BD204600F038F87C
:20424000022084F851002068016821F040010160D4E901010843D4E9031211430843616986
:204260000843218B01F400710843E1690843216A0843A16A084321680860A069042101EACB
:204280001040616A0843216848602168E06A08612068C16921F40061C1610449002008701C
:2042A0006065012084F85100002010BD3C0400202DE9F043044600682F4985B0884258D163
:2042C0002E48C16941F48041C161C0692C4F00F4804004904FF42040009002204FF003099A
:2042E00001906946CDF80C903846FEF761FE00254FF48040CDE90005694638460295FEF7AF
:2043000057FE214E1F484FF08008C6E90005C6E9025835617561B5613046F561FEF7E8FDC6
:2043200008B1FDF739FD666474621648174E143001C61020A6E82101144846F81059756173
:20434000B561F561FEF7D4FD08B1FDF725FD266474624FF480540120CDE900406946CDF85A
:204360000C903846FEF724FE012221463846FEF715FF05B0BDE8F083003800400010024064
:20438000000C0140440002408C060020C40600202DE9F84F00259A460446ADF8005090F885
:2043A000510001287ED1E9B3E2B394F85000012878D0012784F85070222084F85100656579
:2043C000A163A287E287A564E5642563A586E586A0684FF40049484504D12068036823F4D7
:2043E00080430360A06A4FF40056B04209D12068036823F4005303602068036843F40053EB
:20440000036060684FF48278404501D1A06878B120680168490603D4016841F04001016059
:20442000E06800E001E0E8B131E00120BDE8F88F84F8505013460A462046CDF800A000F0FC
:20444000D1F9F3E7534600220121204602F0E0FC48BB2068C168A06B421CA2630170E08FA5
:20446000401EE087E08F0128ECD813E0534600220121204602F0CCFCA8B92068C068A16B0E
:204480000880A06B801CA063E08F401EE087E08F0128EBD8A06AB04207D12068016841F461
:2044A000805101E068E007E00160534600220121204602F0ADFC08B10320B7E7E0680028F2
:2044C000206817D0C068A16B0880A06B801CA063E08F401EE087A06AB04217D15346002234
:2044E0000121204602F094FC50B1606D40F002006065E1E7C168A06B421CA2630170E7E74F
:204500002068C068ADF80000BDF80000606840450AD1A068484502D0B0F5806F04D1206811
:20452000016821F04001016084F85170A06AB0420DD120688068C043C00608D4204602F0DB
:2045400057FC012807D021686FF01000886084F8505000206AE7606D40F00200606520684F
:20456000016821F4005101602068016841F40051016084F8505058E7022057E770B5044609
:2045800090F85100012860D1D1B1CAB194F8500001285AD0012084F85000222084F85100C0
:2045A00000256565A163A287E287A564E5642563A586E586A068B0F5004F03D040B10BE05B
:2045C000012070BD2068016821F48041016003E06068B0F5827F04D0A06AB0F5005F09D059
:2045E00012E084F850502046BDE8704013460A4600F052BA2068016821F40051016020680D
:20460000016841F400510160616C1148C862616C10488862616C104808632168E38F0C3123
:20462000A26B606CFEF78CFC2068416841F00101416084F8505020680168490603D4016883
:2046400041F040010160002070BD022070BD0000436C0108576C0108256C010810B50446BE
:20466000012211030848FEF799FD0848007818B101200749087005E00648007810B1012021
:204680000549087010BD0000000C0140CF030020CD030020D0030020CE03002070472DE9A7
:2046A000F843044690F851009846012870D139B332B394F8500001286AD0012784F85070E0
:2046C000122084F85100002666652163A286E286E664A664A663A687E687A06A7D03A8426B
:2046E00009D12068016821F4005101602068016841F400510160A068B0F5004F03D007E09A
:204700000120BDE8F8832068016841F48041016020680168490603D4016841F040010160BD
:20472000E0680028606804D0D8B1E08E012818D021E010B1E08E012808D1206B411C2163C7
:2047400021680078C860E08E401EE0860004000C1FD0434600220221204602F059FBA8B924
:20476000EBE7206B21680088C860206B801C2063E08E401EE0860004000C0AD04346002232
:204780000221204602F044FB0028EAD00320B8E726E0A06AA84204D12068016841F48051F5
:2047A0000160434600220221204602F031FB30B9434601228021204602F02AFB20B1606DF5
:2047C00040F010006065E1E7A06818B92068C1688068009084F8517084F85060002090E70A
:2047E00002208EE72DE9F8430026DDF820800446ADF8006090F85100012803D094F8510035
:2048000022287DD169B162B15BB194F85000012876D0012784F8507094F85100012803D03F
:2048200005E00120BDE8F883322084F851006665A263A387E3872163A386E386A664E66465
:20484000A06A4FF40055A84209D12068016821F4005101602068016841F4005101602068DA
:204860000168490603D4016841F040010160E0684FF48271B0F5006F606807D0002867D0DD
:2048800088426ED1E08E012862D06AE020B188420CD1E08E012809D1206B21680088C8604F
:2048A000206B801C2063E08E401EE086E08E80B9A06AA84244D12068016841F48051016014
:2048C0003EE02068C068A16B0880A06B801CA0639EE0434600220221204602F099FA00286D
:2048E00074D1206B21680088C860206B801C2063E08E401E0004000CE08609D1A06A00E0FF
:20490000C7E0A84204D12068016841F480510160434600220121204602F07AFA00286FD1D8
:204920002068C068A16B0880A06B801CA063E08F401EE087E08E0028CBD1606800286AD1F8
:20494000434600220121204602F062FAF0BBB8E7206B411C216321680078C860E08E401E2B
:20496000E086E08E98B9A06AA84204D12068016841F480510160434600220121204602F0CC
:2049800047FA18BB2068C068A16B087040E0434600220221204602F03BFAB8B9206B411CFB
:2049A000216321680078C860E08E401E0004000CE08607D1A06AA84204D12068016841F441
:2049C0008051016000224346012100E018E0204602F01EFAA0B92068C168A06B421CA26318
:2049E0000170E08F401EE087E08E0028CFD1606888B9434600220121204602F009FA08B1F2
:204A000003200FE72068C168A06B421CA2630170E08F401EE087A06AA84210D14346002239
:204A20000121204602F0F4F918B1606D40F002000FE02068C068ADF80000BDF800004346C5
:204A400001228021204602F0E3F920B1606D40F010006065D4E784F85170A06AA84214D1EA
:204A600020688168C943C9060FD4616D41F002016165016821F4005101602068016841F4E9
:204A80000051016084F85060CBE684F850600020C8E60220C6E6000070B5044690F8510077
:204AA00001280AD06068B0F5827F71D1A06800286ED194F8510022286AD1F1B1EAB1E3B1A1
:204AC00094F85000012863D0012084F8500094F85100222802D0322084F8510000256565AA
:204AE0002163A386E386A263A387E387A564E564A06AB0F5005F02D00BE0012070BD206814
:204B0000016821F4005101602068016841F40051016094F85100222832D0616C1D48C86208
:204B20001D48616C1D4E8862606C06632168E38F0C31A26B606CFEF703FA2068416841F054
:204B40000101416094F851003228206C1ED005632268E38E0C32216B206CFEF7F1F92068E1
:204B60000168490603D4016841F0400101602068416841F00201416084F85050002070BDFB
:204B8000616C0748C8620748CBE701E00663DFE7022070BD4D6C0108316D0108256C01086C
:204BA000436C0108576C010870477047704710B5401EB0F1807F01D3012010BD4FF0E02484
:204BC00060610F21601700F091FF0020A06107202061002010BD10B5FFF7E8FF10BD704711
:204BE000704730B590F83820012A20D0012380F83830022280F839200268546824F0700477
:204C00005460026854680D682C4354600268946824F0800494600268946849680C439460D6
:204C200080F83930002180F83810084630BD022030BD10B5040003D094F8390010B107E05F
:204C4000012010BD002084F83800204600F00CF8022084F83900211D206802F029FD012062
:204C600084F83900002010BD00B500682F4A304985B0904221D1C86940F00200C861C869CD
:204C8000694600F002000490402000900020019002902848FEF78CF9002211461D20FEF717
:204CA00009FB1D20FEF7FAFA23484168234A21F0A0611143416005B000BD214A90420ED1B4
:204CC000C86940F00400C861C869002200F00400049003211E20FEF7EDFA1E2010E0194A9C
:204CE000904210D1C86940F01000C861C869002200F01000049011463620FEF7DBFA3620B3
:204D0000FEF7CCFAD7E7104A9042D4D1C86940F02000C861C869002200F020000490114651
:204D20003720FEF7C7FA3720EAE7000000040040001002400010014000000140000C000208
:204D40000008004000100040001400400168CA6842F00102CA600068016841F00101016008
:204D6000002070470168CA6822F00102CA600068016A41F21112114207D1016A92101142CE
:204D800003D1016821F0010101600020704770B5044690F83800012817D0012584F8385022
:204DA000022084F839002068826822F0770222F47F4282600868502836D00DDC202858D01F
:204DC00005DC80B3102840D150E0022070BD302852D0402839D13EE060282DD070280BD0F5
:204DE000B0F5805F03D0B0F5005F2ED110E02068816821F0070109E0CB68D1E9012120685F
:204E000002F0A3FC2068816841F0770181601CE0CB68D1E90121206802F097FC206881687D
:204E200041F48041F2E71EE0CA684968206802F09EFC5021206806E0CA684968206802F072
:204E4000DDFC6021206802F08AFC84F83950002084F8380070BDCA684968206802F087FC12
:204E600040212068EFE700212068ECE710212068E9E720212068E6E730212068E3E7000035
:204E800070B50446007E01281FD1124D687AE8B1687AA97A884215D12068406B2882E9892E
:204EA000401A80B26882A97A0B4A5143B1FBF0F0E8610020E8720146204600F0B9F820466D
:204EC000FFF750FF687A401C687270BD2068406BE881F7E788000020001BB7002DE9F0410D
:204EE000044690F838000D4601283CD0012684F83860022084F83900A2B3042A45D02068EE
:204F0000082A54D0D5E90027E968036A23F480530362D0F81CC0036A2CF4407C4CEA0727F8
:204F20004FF6FF7C27F470470CEA013139434FF4204723F4204307EA02321A43C16102620F
:204F40002068C16921F44061C1612068C169AA6841EA0221C16184F83960002084F83800AA
:204F6000BDE8F08101E00220FAE7D5E90012EB68206802F00DFC2068816921F00C0181611F
:204F800020688169AA6811430FE0D5E90012EB68206802F045FC2068816921F44061816162
:204FA00020688169AA6841EA02218161D3E7D5E9002C2F7B016A21F480710162C169036A84
:204FC00021F0030141EA0C0121F0F00C39074FF420674CEA116123F4206307EA02221A43B9
:204FE000C16102622068C16921F00C01C1612068C169AA681143ADE710B5040003D094F865
:20500000390010B107E0012010BD002084F83800204600F00CF8022084F83900211D2068F6
:2050200002F046FB012084F83900002010BD704710B50268044631B1042908D008291ED044
:205040000C2908D11FE0D06820F0020002E0D06820F00400D0600022206802F06BFB206811
:20506000016A41F21112114207D1016A9210114203D1016821F001010160002010BDD0680E
:2050800020F00800E6E7D06820F01000E2E770B50446006801694FF00005C943890715D400
:2050A000C168C943890711D4E91E016101202076206880698007204602D0FFF7E1FE04E03D
:2050C00000F098F8204600F096F8257620680169C943490717D4C168C943490713D46FF0CD
:2050E00004010161022020762068806910F4407F204602D0FFF7C4FE04E000F07BF82046C0
:2051000000F079F8257620680169C943090716D4C168C943090712D46FF008010161042082
:2051200020762068C0698007204602D0FFF7A8FE04E000F05FF8204600F05DF825762068D4
:205140000169C943C90617D4C168C943C90613D46FF010010161082020762068C06910F4EF
:20516000407F204602D0FFF78BFE04E000F042F8204600F040F8257620680169C943C907B4
:2051800008D1C168C943C90704D1891E0161204600F032F820680169C943090609D4C168C0
:2051A000C943090605D46FF0800101612046FFF716FD20680169C943490609D4C168C943EB
:2051C000490605D46FF040010161204600F054F820680169C94389060BD4C168C9438906D3
:2051E00007D46FF0200101612046BDE87040FFF7F7BC70BD7047704770B5044600681949BA
:205200000026194D884201D1EE61EE721749206888420AD16878401CC0B26870032804D3A2
:205220006E70687908B900F089FA11492068884210D12978491CC9B229700A290AD32E7026
:205240000122EA70A978491CC9B2A970022901D3AE702A710749884202D1A869401CA8619C
:2052600070BD00000004004088000020000800400010004000140040704770B5040004D075
:2052800094F83900002510B106E0012070BD84F83850204600F020F8022084F8390020685E
:2052A000C16821F40051C160204602F0D5FA2068016921F4904101612068416921F02A016F
:2052C00041612068C16841F40051C160E563012084F83900002070BD10B50068114986B0AC
:2052E00088421DD11048C16941F48021C161C0690E4C00F4802004904FF4806000900220FC
:2053000001900320039069462046FDF751FEE114009100210191029169462046FDF748FED3
:2053200006B010BD0048004000100240000C014018B5044609486A460321006804F062FECB
:205340009DF8000020702E2060709DF80110A170E0709DF80200207118BD0000FCFF000803
:20536000FEE7000070B50B4C0125C4F89451022004F5C87404F041F82560022004F03DF8B1
:2053800000206060022004F038F8BDE87040022004F033B80000224270B50E4C0020C4F8D2
:2053A0009001C4F89401022004F5C87404F025F801252560022004F020F8022004F01DF89F
:2053C000022004F01AF86560BDE87040022004F014B80000000022422DE9F047DFF86C9025
:2053E00001270546C9F8A071384604F006F8DFF860A00026CAF8A061012003F0FEFFB04631
:205400004E4600244FF6FF794046C6F8A081290402D5C6F8A47101E0C6F8A401012003F083
:20542000ECFFC6F8A071012003F0E7FF641CE4B209EA4505102CE7D3CAF8A071012003F088
:20544000DCFFC6F8A081BDE8F087000000002242000021422DE9F0473A480A210160012132
:2054600041600521816001463748FCF7DFFF002280213648FDF792FE0A2003F08FFF402419
:20548000002390221946204601F084F8641CE4B26F2CF5D940242E4EDFF8B880DFF8B89078
:2054A00008E0402C06D9601E002380B29022194601F070F80023A0221946204601F06AF87F
:2054C0000A2003F06BFF2048FDF7CEF932211E48FDF732F91C48FDF75DF885B23068FAF7DD
:2054E000D9FE07462846FAF7D5FE4146FAF762FE4946FAF75FFE3946FAF78EFEFAF7CFFEE7
:2055000080B264280DD240240023F0221946204601F040F8641CE4B26F2CF5D94120BDE8E2
:20552000F087641CE4B26F2CBBD940240023F0221946204601F02EF8641CE4B26F2CF5D9BB
:205540000020ECE7745800206004002000080140BC0000203333C34000401C4510B54FF4B1
:205560000040FFF739FF48F20F10FFF735FFBDE810404FF41040FFF72FBF000070B51D4943
:205580000020C1F88001C1F88401C1F88801C1F88C011949C1F89801C1F89C01C1F8AC017B
:2055A000C1F8A801154AC2F8BC01C1F8B401C1F8B801C1F8BC01124C02264FF4004001252E
:2055C000E660C4E9000521460E48FDF7F1FC0F20E660C4E9000521460B48FDF7E9FC4EF637
:2055E0008040E660C4E900052146BDE870400748FDF7DEBC008021420000224200002142B0
:205600003807002000080140000C01400010014010B540240023F0221946204600F0BAFF78
:20562000641CE4B26F2CF5D910484CF20101008880B2884219D10023A0221946402000F051
:20564000A9FF0023A0221946422000F0A3FF0023A0221946542000F09DFF0023A022BDE89C
:2056600010401946562000F095BF10BDAC00002010B500F0D1FF0D4C207008B9FCF77EF890
:20568000002220210A48FDF789FD2178094C4FF0000021B1FCF784FA0120207010BD20705D
:2056A00003F010FFBDE8104003F0CEBE6C060020000C01409400002010B5322003F06EFE6B
:2056C00000F094F800F076F87C2005F099F9022003F093FE802005F093F9022003F08DFE66
:2056E000382005F08DF9012003F058FE802005F087F9022003F081FE0C2005F081F9012008
:2057000003F04CFE802005F07BF9022003F075FE012005F075F9012003F040FE802005F050
:205720006FF9022003F069FE062005F069F9012003F034FEBDE8104000F058B810B53220B6
:2057400003F02CFE00F052F800F034F87C2005F057F9022003F051FE802005F051F9022090
:2057600003F04BFE382005F04BF9012003F016FE802005F045F9022003F03FFE0C2005F0EE
:205780003FF9012003F00AFE802005F039F9022003F033FE802005F033F9022003F02DFEA7
:2057A000062005F02DF9012003F0F8FDBDE8104000F01CB870B50B4C0125C4F8B051022065
:2057C00004F5D87403F019FE0748C0F88851022003F013FE00202060BDE87040022003F06A
:2057E0000CBE0000000022420080224270B50B4C0020C4F8B001022004F5D87403F0FDFD3A
:2058000007480125C0F88851022003F0F6FD2560BDE87040022003F0F0BD0000000022427A
:205820000080224210B5FFF79DFDA02004F07AF94FF0FF3450B9002004F074F9FFF7ACFD6D
:20584000FFF790FDA12004F06DF908B1204610BD04F040F9040203F087FD04F03BF90444A4
:2058600004F072FBFFF798FD20B210BD3EB510480E490124016000218160C16041614FF46D
:2058800060220461C2614160FCF788FE00B1FEE70B20CDE900040520029069460448FCF7C4
:2058A000C5FD002800D0FEE73EBD000000240140600400202DE9F0474A4886B0816941F035
:2058C00020018161816901F020010491816941F010018161816901F010010491816941F08A
:2058E00004018161816901F004010491816941F00801816180693C4F00F008000490002224
:205900004FF405413846FDF749FC012240F287213846FDF743FCDFF8D4A0002241F2CF0129
:205920005046FDF73BFC012230215046FDF736FCDFF8BC8000224FF6F0714046FDF72EFCF7
:20594000DFF8B090002204214846FDF727FC4FF690700124CDE9000402256946039540462C
:20596000FDF726FB48F28F70CDE90004694603953846FDF71DFB40200026CDE9000669465D
:2059800002943846FDF714FB2020009011200190694603954046FDF70BFB2003CDE90004BA
:2059A0000320039069465046FDF702FB0420CDE90004694603954846FDF7FAFAFF20CDE98B
:2059C0000004694603955046FDF7F2FA4FF44070CDE90006694602945046FDF7E9FA06B0EF
:2059E000BDE8F0870010024000080140000C014000100140001401400E4810B50C4901602C
:205A00004FF48271416000218160C1604FF400720161C0E905121822C0E907214162816224
:205A20000A21C162FEF700FC002800D0FEE710BD00380040A404002010B51C488AB01A4977
:205A4000016005210024C0E901144FF6FF71C0E90314FFF7EEF800B1FEE74FF4805004904F
:205A600004A91248FFF793F900B1FEE70F48FFF7C3FA00B1FEE7089408A90C480994FFF733
:205A8000B0F800B1FEE70120CDE900400320CDE90240002269460548FFF720FA002800D070
:205AA000FEE70AB010BD000000040040FC04002010B500220849094802F0B6F9084907484C
:205AC00002F09BFB0749054801F0F0FFBDE81040024802F0DFBB0000C000002048090020A5
:205AE0000400002014010020FEE770470907090E002806DA00F00F0000F1E02080F8141DE9
:205B0000704700F1E02080F8001470472DE9FF5F7F4C2068007800287ED00A20009001200A
:205B200001900520029069467A48FCF77FFC002280217948FDF732FB2168A0464F78887863
:205B40000978814207D3B0EB510F03D9081AC0F1270000E0401EDFF8C4910023A02239F8D6
:205B60001000194600F016FD00260125DFF8B0A197E0022D6FD0D8F80010495D00296AD071
:205B8000012419E0022C15D0D8F80010085D88B10978884207D8B0EB510F03D9081AC0F182
:205BA000270000E0401E002339F81000F022194600F0F0FC641CE4B29AF800008442E1D3AD
:205BC000D8F80010485D0978884207D8B0EB510F03D9081AC0F1270000E0401E002339F8B3
:205BE00010009022194600F0D5FC0A2003F0D6FBDFF830B14748FCF737FE32214548FCF793
:205C00009BFD4448FCF7C6FC84B2DBF80000FAF741FB0390204600E06DE0FAF73BFB42499D
:205C2000FAF7C8FA4149FAF7C5FA0399FAF7F4FAFAF735FB80B26438B0F5487F2FD9304623
:205C4000761CF6B2032803D2642003F0A7FBD1E70124554617E022E0D8F80010085D0978BA
:205C6000884207D8B0EB510F03D9081AC0F1270000E0401E002339F81000F022194600F0A7
:205C800089FC641CE4B228788442E5D3012280212148FDF783FA992004B0BDE8F09F6D1C83
:205CA000EDB29AF800108D42FFF463AFD8F800000078B84207D3B7EB500F03D9C01BC0F14A
:205CC000270700E07F1E002339F81700F022194600F060FC1648C17B807B00EBC00202EBC2
:205CE000001001EB800001F025FC012280210A48FDF754FA0AE00E48C17B807B00EBC0029A
:205D000002EB001001EB800001F014FC0020C3E740040020600400200008014000AF010866
:205D200044040020BC0000203333C34000401C45F00500202DE9F04F4FF0000989B0CB4619
:205D4000CDF80090CDF81490CDF81090CDF80890CA4641F28830CDF8049003F0E1F9FF485B
:205D60000A210125C0E90015052181600146FC48FCF75CFB00228021FA48FDF70FFA0A200C
:205D800003F00CFB40240023F0221946204600F001FC641CE4B26F2CF5D900244FF00208D2
:205DA000F14F22E00CB34FF0FF3000EB440028284FEA440001DD401E00E0801E002337F86C
:205DC0001000F022194600F0E5FB2820B0EB440F4FEA440000D3401E002337F81000F0221A
:205DE000194600F0D7FB0A2C22D2012505EB440028284FEA440000D9401C002337F810009A
:205E00009022194600F0C6FB08EB4400282846464FEA440001D9801C00E0401C002337F82C
:205E20001000A022194600F0B5FBB046CF4E1EE0012000EB440028284FEA440000D9401C2E
:205E4000002337F81000A022194600F0A3FB08EB440028284FEA440001D9801C00E0401C7B
:205E6000002337F810009022194600F093FB0A2003F094FABA48FCF7F7FC3221B848FCF758
:205E80005BFCB748FCF786FB85B23068FAF702FA03902846FAF7FEF9B549FAF78BF9B54922
:205EA000FAF788F90399FAF7B7F9FAF7F8F980B2B0F5617F11D909F1010000F0FF09062C8B
:205EC00001D90F2C04D30198401CC0B201900EE00AF1010000F0FF0A09E0642804D2029816
:205EE000401CC0B2029002E044F080000590641CE4B2142CFFF456AF0023B7F84C00F02299
:205F0000194600F047FB0023B7F84E00F022194600F040FB41F2883003F002F942F21070A7
:205F200003F028F9642003F039FA002422E00CB34FF0FF3000EB440028284FEA440001DD76
:205F4000401E00E0801E002337F81000F022194600F020FB2820B0EB440F4FEA440000D301
:205F6000401E002337F81000F022194600F012FB0A2C21D2012000EB440028284FEA4400AD
:205F800000D9401C002337F81000A022194600F001FB022000EB440028284FEA440001D965
:205FA000801C00E0401C002337F81000B022194600F0F0FAF4B31FE0012000EB4400282856
:205FC0004FEA440000D9401C002337F81000B022194600F0DFFA022000EB440028284FEAD9
:205FE000440001D9801C00E0401C002337F81000A022194600F0CEFA0A2003F0CFF95848EB
:20600000FCF732FC32215648FCF796FB5448FCF7C1FA85B255480068FAF73CF90646284684
:20602000FAF738F95249FAF7C5F85249FAF7C2F8314600E00FE0FAF7EFF8FAF730F980B245
:20604000A0F504503438B0F5FA7F06D90098401CC0B2009004E06420CFE744F08000049092
:20606000641CE4B2142CFFF462AF3F4C0023F02234F84C0F194600F08DFA00236088F0228C
:20608000194600F087FAB9F1140F02D10098142801D0002507E0302009B0BDE8F08F15B1EC
:2060A000012D13D109E042F2283006904FF09008A026059F42F2341007E04FF46170B02639
:2060C000049F06904FF0A0086420039038066ED507F07F040A2C02D34046B046064601209A
:2060E00000EB440028284FEA440000D9401C1E490023424631F81000194600F04BFA02206E
:2061000000EB440028284FEA440001D9801C00E0401C15490023324631F81000194600F050
:2061200039FA012251020F48FDF738F80A2003F035F90B48FCF798FB32210948FCF7FCFA8A
:206140000748FCF727FA84B208480068FAF7A2F807902046FAF79EF805490DE074580020B8
:20616000600400200008014000AF0108BC0000203333C34000401C45FAF71CF81D49FAF758
:2061800019F80799FAF748F8FAF789F8069980B2884206D20399884203D90BF1010000F009
:2061A000FF0B00224FF400711348FCF7F7FF6D1CEDB2022DFFF473AFBBF1000F01D0312072
:2061C0006AE7029808B1402066E7B9F1140F06D00098142805D0019828B134205CE73220C7
:2061E0005AE7332058E7BAF1000F01D0352053E7002051E700401C4500080140902101EBD3
:20620000002080B2FFF7E8B8A02101EB002080B2FFF7E2B8B02101EB002080B2FFF7DCB86E
:206220002DE9FC5F04460020ADF80000ADF8040040F68F7B4FF006094FF0020A4FF4806831
:2062400084E1BDF8001011F00F0628D030F82610ADF80410BDF80410090475D530F8261071
:2062600001EA0B0120F8261004EB461595F8120205F502750028206867D0297830F821208C
:20628000B0F8503052047CD50AEBC1015A1808EB4201415A8F05BF0D74D0EA88C7E0BDF8C3
:2062A0000010C9062CD4018848F60F7211400180206804F12805B0F850202B780AEBC301C7
:2062C0000A4408EB4201405AC0F309006064E16B0844E06300212046FDF74BF894F82400D7
:2062E0000028ADD0A8690028AAD194F82400216840F08000A1F84C00002084F8240025E1B1
:20630000018804F50275ADF80410BDF8041009051CD5B0F850202B7809EBC3010A4408EB4F
:206320004201405A04F57B71C0F30903EB61AA88206802F0C2FB2068018801EA0B0101809E
:206340002046FDF720FA01E195E054E0BDF804100904D4D5018801EA0B0101802068B0F88E
:2063600050202B78464609EBC301114408EB4101405A83059B0DEB610BD0AA8869692068BF
:2063800001E04AE057E002F098FBE96968690844686100212046FCF7F3FF2068B0F8501002
:2063A000891D06EB4101421828693E280CD9C0F34F11C00601D1491E89B24FF6FF7000EAE3
:2063C000812040F4004009E0C0F34F01C00701D0491C89B24FF6FF7000EA8120106020684D
:2063E00001884BF68F72114081F4405148F2800211430180AAE0B0F850202B7809EBC301ED
:206400000A4408EB4201415A8F05BF0D1FD0AA883B46696902F051FB19E009EBC1015A182A
:2064200008EB4201415A8F05BF0D04D02A893B46696902F042FB2978206830F8212048F652
:206440008F731A4048F2C0031A4320F82120E8693844E8616869C2196A61AB6913B1286937
:20646000B84204D929782046FCF78AFF03E029782046FCF7F3FFBDF80400000666D5206871
:2064800004EB461530F8261048F60F72114020F8261095F8320028350028206812D02978A7
:2064A00030F82120B0F8503052061ED50AEBC1015A1808EB4201405A83059B0DEB6123D098
:2064C000EA881DE0B0F850202B780AEBC3010A4408EB4201405A83059B0DEB6120D0AA881D
:2064E0006969206802F0FFFA1AE009EBC1015A1808EB4201405A83059B0DEB6104D02A8962
:206500006969206802F0EFFA2978206830F8212048F68F731A404CF280031A4320F82120A3
:206520002068B0F850202B780AEBC3010A4408EB4201405AC0F30900E86169690A186A617D
:206540002978AB69204663B1FCF7D3FF2068B0F84410ADF8001009043FF573AE0020BDE8E7
:20656000FC9FFCF706FFF1E7FDF742B910B5FE2000F064FF0A2002F011FFBE2000F05EFF34
:206580000A2002F00BFFBDE81040FE2000F056BF7047000070B50C46A0F140011D46302901
:2065A00037D20F2C35D802EB0020E02A03D0D02A01D0C02A28D1204480B2FEF70DFF1548FE
:2065C000082C4FF001010FD2A140012D01D025B106E042781143417002E042788A434270EF
:2065E000407800F502400FE0083CA140012D01D025B106E002781143017002E002788A4375
:206600000270007800F50340BDE8704080B2FEF7E3BE70BD2401002010B5FBF7E1FB0F4CDB
:2066200010F0FF00207016D1F9F7C2FE00F094FA00F08AF8207070B900F0E2F9207050B927
:2066400002F0C4FC207030B902F0DCFB207010B9FBF7A4FB2070C0B210BD00006C060020FB
:2066600000F5114080B2FEF7B7BE000070B504460D46164602F0FEFD00224FF480510E48A1
:20668000FCF78CFD03200D490870200C4870200A8870CC700A2304220948FEF700F80A238D
:2066A000324629460648FDF773FE012211030248FCF774FD70BD0000000C01408D03002031
:2066C000A40400202DE9F04104460E4617461D4602F0D0FD00224FF480511448FCF75EFDAE
:2066E000032013490870200C4870200A8870CC700A2304220F48FDF7D2FF45B901200E497C
:20670000087000200D4908700D49087007E001200B49087000200B490870074908703A463D
:2067200031460448FDF72AFFBDE8F081000C01408D030020A4040020CF030020CD030020BC
:20674000D0030020CE0300202DE9F0414FF48072A8494FF46020FFF789FFFF2500241AE065
:20676000A448015D04F18000A24A105C814202D08820BDE8F0819F48005DFF2803D0FF2D45
:2067800001D08820F5E79B48005D10B1FF2D00D12546601C84B2802CE2DBFF2D01D188207A
:2067A000E7E7002700240FE09248405D00F0010038B9781CC7B28F48405D40108D49485534
:2067C00000E003E0601C84B2082CEDDB00BF2846E91705EB91718910A5EB8101490301EB46
:2067E00087211FFA81F808F570204FF480628149FFF73CFF08F578204FF480627E49FFF73B
:2068000035FF4FF6FF7600241DE07A48015D04F58060784A105C814201D08820A9E77548B9
:20682000005DFF2805D04FF6FF70864201D088209FE77048005D20B14FF6FF70864200D151
:206840002646601C84B2B4F5806FDEDB4FF6FF70864201D188208CE7002700240FE0654879
:20686000805D00F0010038B9781CC7B26148805D40106049885500E003E0601C84B2082C47
:20688000EDDB00BF2846E91705EB91718910890401EBC80101EBC6013944584A11604FF4B0
:2068A000807254494FF44020FFF7E0FEFF25002419E05048015D04F180004E4A105C81425F
:2068C00001D0882055E74B48005DFF2803D0FF2D01D088204DE74748005D10B1FF2D00D196
:2068E0002546601C84B2802CE3DBFF2D01D188203FE7002700240FE03E48405D00F00100F7
:2069000038B9781CC7B23B48405D40103949485500E003E0601C84B2082CEDDB00BF28464C
