:020000040800F2
:20840000E03E00200585000873F4000895F0000871F40008AF8900080928010800000000A9
:2084200000000000000000000000000009020108AFB70008000000002DF80008DD0C01089B
:208440001F850008F7F700081F8500081F8500081F8500081F8500081F8500082BB9000832
:2084600031B900081F8500081F8500081F85000879B7000885B700081F8500081F85000832
:208480001F8500081F8500081F8500081F850008512301081F8500081F8500081F850008AB
:2084A0001F8500081F8500081F8500081F8500089D0D0108A90D01081F8500081F85000842
:2084C0001F8500081F8500081F8500081F8500081F8500081F850008251201081F850008A8
:2084E0000DB900081F8500081F850008DFF810D000F046F800480047E13B0108AFF300809B
:20850000E03E00200648804706480047FEE7FEE7FEE7FEE7FEE7FEE7FEE7FEE7FEE7FEE781
:20852000510D0108ED84000840EA01039B0703D009E008C9121F08C0042AFAD203E011F81F
:20854000013B00F8013B521EF9D27047D2B201E000F8012B491EFBD270470022F6E710B581
:2085600013460A4604461946FFF7F0FF204610BD421C10F8011B0029FBD1801A70470000C9
:20858000064C074D06E0E06840F0010394E8070098471034AC42F6D3FFF7ACFF80570108F5
:2085A000A057010870B58C1810F8015B15F0070301D110F8013B2A1106D110F8012B03E040
:2085C00010F8016B01F8016B5B1EF9D12B0705D40023521E0DD401F8013BFAE710F8013BA6
:2085E000CB1A921C03E013F8015B01F8015B521EF9D5A142D8D3002070BD000070B50446C1
:2086000000688168C943C9071CD1816821F00101816004F0EDFB05460FE000BF04F0E8FBB7
:20862000401B022809D9A06A40F01000A062E06A40F00100E062012070BD20688068C04309
:20864000C007EBD0002070BDF8B500260446009600688168C943C90728D0816841F0010157
:208660008160134813490068B0FBF1F000E0401E00900028FBD104F0BBFB054611E000BF07
:2086800004F0B6FB401B02280BD9A06A40F01000A062E06A40F00100E06284F824600120A2
:2086A000F8BD20688068C043C007E9D10020F8BD8400002040420F0010B500F093F8302077
:2086C00000F0A4F8942000F0A1F8D12000F09EF8202000F09BF80B2000F0B2F8812000F041
:2086E00095F83F2000F0ACF8032000F0A9F8F02000F08CF8102000F0A3F8CA2000F086F8AF
:20870000002000F09DF8872000F09AF8202000F097F8BC2000F07AF8002000F091F8A6202F
:2087200000F074F8762000F071F8752000F06EF8002000F085F8282000F082F8152000F09F
:2087400065F8002000F07CF8FF2000F079F8312000F05CF8322000F059F8002000F070F818
:20876000022000F06DF8012000F06AF8512000F04DF8FB2000F064F8402000F047F8F4205F
:2087800000F044F8002000F05BF8002000F058F8002000F055F8002000F052F8002000F023
:2087A0004FF8002000F04CF8002000F049F8002000F046F8F02000F029F8152000F040F801
:2087C000152000F03DF8152000F03AF8152000F037F8302000F01AF8BDE81040AF2000F08E
:2087E00015B8000010B5084C0020C4F8AC01322004F5D6740AF0D0F901202060BDE810401C
:2088000032200AF0C9B900000000224231B509490020C1F8A801084CC4F8BC010A2301224F
:208820006946064804F5DE7405F06AFD0120206038BD00000000224200002142C02F002028
:2088400031B509480124C0F8A841084D0020C5F8BC010A2322466946054805F5DE7505F059
:208860004FFD2C6038BD00000000224200002142C02F002000F024BF01F076B9012001F050
:2088800023BA012001F0CCBA012001F05DBD0000104810B5008800EB001101EB40110E4803
:2088A00000EB8100C17B807B00EBC00202EB001001EB80006FF4A051C84202D101F01AF8CB
:2088C00000E08720054A00215318491C58700429FADB10BD9200002048030020880F002066
:2088E00070B5274D04464FF0000649B114E001221021284604F076FA64200AF063F9761CD0
:20890000A642F4D334E001221021284604F06AFA64200AF057F9761CA642F4D30022102118
:20892000284604F05FFA64200AF036F9002608E001221021284604F055FA64200AF042F903
:20894000761CA642F4D300221021284604F04AFA64200AF021F9002608E001221021284675
:2089600004F040FA64200AF02DF9761CA642F4D32846BDE870400022102104F033BA0000ED
:208980000010014030B50246002001465FF0010422FA01F3DB0705D0C1F1070504FA05F323
:2089A0000343D8B2491CC9B20729F1D330BDFEE7084882B0416941F0400141614069074908
:2089C00000F04000009004480860084602B003F04BBE00000010024000300240040300203C
:2089E00010B50AF025FC002404E000211B480155601CC4B2042CF8DB00F032F8002000F096
:208A0000D9FB00F065FA00F025FA002000F0D2FB102000F04FFA00F01DFA1048401E407869
:208A200058B10E48401E807838B10C48401EC07818B10A48401E007960B90AF0C9FB0020C5
:208A400000F0B8FB00F026FD0AF0ACFC00F08EFA00F000FA00F0FEF910BD0000890F0020F0
:208A600010B504201149087018E0012000F0A2FB00F02EFA0E48407840B10D48807828B158
:208A80000B48C07810B10A48007900B90AE000F0E1F906480078801C044908700348007868
:208AA0000A28E2DB00BF00F0D5F910BD21030020880F00202DE9F04705460E4617464FF0FA
:208AC000A5084FF00009A94600F090FCDD4800784FF4F00101EAC040DB49086000242FE0BB
:208AE00008F0010040B1D74800784FF4707101EA8010D649086107E0D24800784FF0707135
:208B000001EA8050D1490861D14800688047CD480078782101EAC000CB490860CC48006806
:208B20008047C84800784FF4F00101EAC040C64908604FEA5808C64800688047601CC4B288
:208B4000082CCDDBBF4800784FF4707101EA8010BE490861BE4800688047BA480078782163
:208B600001EAC000B8490860B94800688047B54800784FF4F00101EAC040B3490860B448BD
:208B800000688047AF480078782101EAC000AE490860AF4800688047AA4800784FF4F001D0
:208BA00001EAC040A8490860A94800688047A5480078782101EAC000A3490860A448006800
:208BC0008047A04800784FF4F00101EAC0409E4908609F48006880479A480078782101EA0C
:208BE000C000994908609A4800688047954800784FF4F00101EAC04093490860944800685E
:208C0000804790480078782101EAC0008E4908608F48006880478B4800784FF4F00101EA4A
:208C2000C040894908608A480068804700242EE007F0010040B1834800784FF4707101EA8C
:208C400080108249086107E07E4800784FF0707101EA80507D4908617D480068804779486C
:208C60000078782101EAC00077490860784800688047744800784FF4F00101EAC040724913
:208C800008607F10724800688047601CC4B2102CCEDB00242EE006F0010040B169480078DA
:208CA0004FF4707101EA80106849086107E0654800784FF0707101EA805064490861644852
:208CC000006880475F480078782101EAC0005E4908605F48006880475A4800784FF4F001CF
:208CE00001EAC040584908607610594800688047601CC4B2062CCEDB00242FE009F0010030
:208D000040B1504800784FF4707101EA80104F49086107E04B4800784FF0707101EA8050E5
:208D20004A4908614A480068804746480078782101EAC000444908604548006880474148F2
:208D400000784FF4F00101EAC0403F4908604FEA69093F4800688047601CC4B2082CCDDB5D
:208D600085EA251585EAA50585EA650505F0010040B1344800784FF4707101EA8010334962
:208D8000086107E02F4800784FF0707101EA80502E4908612E48006880472A4800787821B1
:208DA00001EAC00028490860294800688047254800784FF4F00101EAC0402349086024484B
:208DC000006880471F4800784FF4707101EA80101E4908611E4800688047002416E0194806
:208DE0000078782101EAC00017490860184800688047144800784FF4F00101EAC040124912
:208E00000860134800688047601CC4B2032CE6DB0C480078782101EAC0000B4908600C485E
:208E200000688047074800784FF4F00101EAC0400549086006480068804700F005FBBDE855
:208E4000F08700008E000020100C0140001001402403002010B5144800784FF4F00101EA40
:208E6000C04012490860104800784FF0707101EA80500F490861002007F0CAFE1E2009F0AD
:208E800080FE09480078FFF77DFD00F0F004204607F0BEFE142009F074FE002007F0B8FEB2
:208EA000192009F079FE10BD8E000020100C01400010014010B50446062009F06DFE002225
:208EC00021461046FFF7F6FD0F2009F065FE10BD1CB54FF4004220210020FFF7EBFD01A856
:208EE00000F07CF8684600F079F8002417E001A8005D87280ED11DF8040001280AD11A48D1
:208F0000005D18B11848005D012806D100211648015502E0982114480155601CC4B2042C2A
:208F2000E5DB9DF80400872803D19DF80000012819D09DF80500872803D19DF801000128D2
:208F400011D09DF80600872803D19DF80200012809D09DF80700872803D19DF80300012899
:208F600001D0FFF777FF1CBD890F002038B5002202211046FFF79EFD002527E0684600F040
:208F80002DF800240BE01DF80400552805D01248005D10B9932110480155601C84B2042C6E
:208FA000F1DB9DF8000055280ED09DF8010055280AD09DF80200552806D09DF80300552809
:208FC00002D0FFF747FF38BD681C85B2B5F5006FD4DB00BFF7E70000890F002070B5044647
:208FE00000F004FA052009F0EDFD6E48006820F07F4040F088406B4908600846406820F074
:20900000FF0040F04400486008040861052009F0D9FD002542E020784010207060784010E5
:209020006070A0784010A070E0784010E0705E480078782101EAC0005C4908605C48006875
:2090400080475848806800F4007010B12078803020705448806800F4807010B16078803013
:2090600060705048806800F0800010B1A0788030A0704C48806800F0400010B1E078803022
:20908000E070494800784FF4F00101EAC04047490860474800688047681CC5B2082DBADBDD
:2090A00043480068804740480078782101EAC0003E4908603E48006880473B4800784FF4D0
:2090C000F00101EAC040394908603948006880473448006820F07F4040F08850314908607D
:2090E0000846406820F0FF0040F011004860881408612D4800784FF0707101EA8050294943
:2091000008612B480068804727480078782101EAC0002649086026480068804722480078C3
:209120004FF4F00101EAC040204908602048006880471D480078782101EAC0001B490860BB
:209140001B4800688047184800784FF4F00101EAC040164908601648006880471248007860
:20916000782101EAC000114908601148006880470D4800784FF4F00101EAC0400B490860B9
:209180000B480068804708480078782101EAC0000649086006480068804700F055F90020AF
:2091A00070BD0000001001408E000020100C0140240300202DE9F0410646884800784FF4C1
:2091C000F00101EAC04086490860844800784FF0707101EA805083490861642009F0F2FCBD
:2091E000002007F015FD322009F0CBFC7B480078FFF7C8FB0709384607F00AFD7A4800787A
:2092000009F0CAFC75480078782101EAC000744908600A2009F0D6FC002417E06F480078B2
:209220004FF0707101EA80506E4908610A2009F0C9FC6A4800784FF4707101EA80106949D0
:2092400008610A2009F0BEFC601CC4B20D2CE5DB0A2009F0B7FC002416E0604800784FF48A
:20926000F00101EAC0405E4908600A2009F0AAFC5A480078782101EAC000594908600A20A8
:2092800009F0A0FC601CC4B20D2CE6DB0A2009F099FC002417E0514800784FF0707101EA5E
:2092A0008050504908610A2009F08CFC4B4800784FF4707101EA80104A4908610A2009F068
:2092C00081FC601CC4B20D2CE5DB1EB90A2009F079FC02E00A2009F05FFC404800784FF414
:2092E000F00101EAC0403E4908604BF25A15002431E005F4004040B1384800784FF470717C
:2093000001EA80103749086107E0344800784FF0707101EA8050334908610A2009F052FCDD
:209320002E480078782101EAC0002D4908600A2009F048FC294800784FF4F00101EAC040AE
:20934000274908604FF6FF7000EA45050A2009F039FC601CC4B2102CCBDB0A2009F032FCD0
:209360004AF21B55002431E005F4004040B11B4800784FF4707101EA80101A49086107E0B5
:20938000164800784FF0707101EA8050154908610A2009F017FC11480078782101EAC0000A
:2093A0000F4908600A2009F00DFC0C4800784FF4F00101EAC0400A4908604FF6FF7000EA7D
:2093C00045050A2009F0FEFB601CC4B2102CCBDB1E2009F0E1FBBDE8F08100008E0000207C
:2093E000100C0140001001402103002010B5134800784FF4707101EA8010114908610F482A
:209400000078782101EAC0000E490860052009F0D9FB0A4800784FF0707101EA80500849E9
:209420000861052009F0CEFB044800784FF4F00101EAC0400349086010BD00008E000020CA
:2094400000100140100C014010B50F4800784FF0707101EA80500D4908610B4800787821CC
:2094600001EAC0000A490860052009F0ABFB064800784FF4707101EA801004490861052082
:2094800009F0A0FB10BD00008E00002000100140100C014070B55525002204212846FFF7C5
:2094A00009FB0A2009F08EFB0A2009F08BFB0A2009F088FB012407E0284600F00BF80A2016
:2094C00009F080FB601C84B2B4F5006FF4DB002070BD000070B504462546FFF787FF744820
:2094E00000784FF4F00101EAC0407249086000262EE005F0010040B16D4800784FF4707146
:2095000001EA80106C49086107E0694800784FF0707101EA805068490861684800688047CE
:2095200063480078782101EAC000624908606348006880475E4800784FF4F00101EAC0409A
:209540005C4908606D105D4800688047701CC6B2082ECEDB84EA241484EAA40484EA640438
:2095600004F0010040B1524800784FF4707101EA80105149086107E04D4800784FF070713D
:2095800001EA80504C4908614C480068804748480078782101EAC000464908604748006815
:2095A0008047434800784FF4F00101EAC040414908604248006880473F48006820F07F4059
:2095C00040F088403C4908600846406820F0FF0040F0440048600804086138480068804761
:2095E00033480078782101EAC000324908603348006880472E4800784FF4F00101EAC0409A
:209600002C4908602D48006880472B48006820F07F4040F08850284908600846406820F038
:20962000FF0040F01100486088140861204800784FF0707101EA80501F4908611F480068E2
:2096400080471B480078782101EAC000194908601A4800688047164800784FF4F00101EAD4
:20966000C0401449086015480068804710480078782101EAC0000F4908601048006880473E
:209680000B4800784FF4F00101EAC040094908600A480068804706480078782101EAC0009B
:2096A00004490860054800688047FFF7CDFE70BD8E000020100C01400010014024030020E8
:2096C00010B501F0A7FE01F0EDFC01F001FD01F0F5FC01F0B7FC10BD08B1034900E00349E2
:2096E000034A116070470000CDB40008C5B400083C030020FEB568A103C9CDE9000100F05D
:20970000DFF8674908700846007800287ED001F0ABFE644801F08EF86349098801EB011215
:2097200002EB4111614A02EB81014969081F01F0C3F85F48006820F07F4040F088405C49D0
:2097400008600846406820F0FF0040F0440048600804086100269BE002A800F059FA032E4C
:2097600072D100248FE002A8005D00F0010000286BD001F079FE4F4801F05CF84A49098850
:2097800001EB011202EB4111484A02EB81014969A1F1080001F090F89DF8000022460021A7
:2097A00000F070FF9DF801002246002100F06AFF9DF802002246002100F064FF9DF80300C7
:2097C0002246012100F05EFF9DF804002246002100F058FF9DF805002246002100F052FFE5
:2097E0009DF806002246002100F04CFF9DF807002246012100F046FF01F036FE294801F028
:2098000019F82949098801EB011200E043E002EB4111264A02EB81014969A1F1080001F0D7
:209820004BF82348006820F07F4040F08840204908600846406820F0FF0040F04400486059
:209840000804086100251AE020E01AE002A800F0DFF902A8005D1DF8051088420DD01648D2
:20986000005D50B915480078A04000F0080020B101F0FAFD932110480155681CC5B2082D8A
:20988000E4DB601CC4B2042CFFF66DAF701CC6B2042EFFF661AFFEBDFFFFFFFFFFFFFFFFE8
:2098A000280300200010220092000020480300200010014000101200890F00208E00002035
:2098C000002000210EE04206100E084A525C3AB9074A12788A4002F008020AB140F0010073
:2098E0004A1CD1B20429EEDB70470000890F00208E0000202DE9F047724800884FF4A021D9
:2099000001EB404900256F48008800EB001101EB40106D4901EB80004069C0F3872A0026E1
:209920004DE04FF480626949484605F0D3FFAAF10100B04234D16348008800EB001101EB20
:209940004010614901EB8000B0F866005D49098801EB011202EB41115B4A02EB8101B1F861
:209960006E10084487B25748008800EB001101EB4010114601EB8000B0F87280FF2054496C
:20998000487008704FEA1820887081F80380380A08714F71FF2088714C4890F8FF03C87148
:2099A000002405E04948005D284485B2601C84B2B4F5806FF6DB09F58069701CC6B256456C
:2099C000AFDB4048008800EB001101EB40103E4901EB8000B0F86800A84202D08620BDE8AB
:2099E000F0873849098801EB011303EB4111364B03EB81010A8B334909884FF4003303EBA7
:209A00000130344905F066FF0025002405E03148005D284485B2601C84B22A48008800EB00
:209A2000001101EB4010284901EB8000008BA042EDDC2448008800EB001101EB401022492F
:209A400001EB8000B0F86C00A84201D08620C6E71C49098801EB011303EB41111A4B03EBEF
:209A600081014A8B174909884FF4403303EB0130194905F02FFF0025002405E01648005D5B
:209A8000284485B2601C84B20E48008800EB001101EB40100C4901EB8000408BA042EDDC24
:209AA0000848008800EB001101EB4010064901EB8000B0F87000A84201D086208FE70020CC
:209AC0008DE7000092000020480300203812002029030020382200203823002010B501F094
:209AE000C3FC1D4800F0A6FE1C49098801EB011202EB41111A4A02EB81014969A1F108005B
:209B000000F0DAFE17490878002100F061FD15494878002100F05CFD12498878002100F03A
:209B200057FD1049C878012100F052FD0D490879002100F04DFD0B494879002100F048FD3A
:209B400008498879002100F043FD0649C879012100F03EFD10BD00000010120092000020E4
:209B6000480300202903002010B509F031FB01F051FC01F097FA01F0ABFA05F059FE30B1C1
:209B8000FFF79EFE20490870032000F049F905F04FFE08B1FFF7AEFD05F04AFE48B101F03A
:209BA00077F901F08BFA01F04DFA01F033FC01F079FA05F03DFE30B101F08AFA09F0F2FB97
:209BC000002000F0C1FB05F033FE08B101F000FB05F02EFE38B101F0B9F805F029FE10B165
:209BE000002000F071F805F023FE30B1FFF776FF05F01EFE08B100F0A1FE01F05FFA01F0F6
:209C000021FA0248007810BD28030020880F002070B50446002548E020784006000E207060
:209C200060784006000E6070A0784006000EA070E0784006000EE0701F4800784FF4F0019D
:209C400001EAC0401D4908601D48007808F0BAFF19480078782101EAC00018490860184877
:209C6000007808F0AFFF1748806800F4007010B12078401C20701348806800F4807010B1EE
:209C80006078401C60700F48806800F0800010B1A078401CA0700B48806800F0400010B1A0
:209CA000E078401CE070681CC5B2082DB4DB022008F088FF70BD00008E000020100C014008
:209CC0003203002000100140F8B50646002701F0CBFB4B4800F0AEFD002000F0EDFD002EB1
:209CE00056D14848006820F07F4040F08840454908600846406820F0FF0040F04400486067
:209D000008040861002437E06846FFF781FF002513E01DF805003C49095D88420BD03B482A
:209D2000405D40B93A480078A84000F0080010B1952136484155681CC5B2042DE9DB9DF8A3
:209D400000003149095D884214D09DF801002E49095D88420ED09DF802002B49095D88421F
:209D600008D09DF803002849095D884202D001F07BFBF8BD601CC4B22648008800EB001100
:209D800001EB4010244901EB8000408BA042BBDC012E33D1002409E01D480078A04000F07D
:209DA000080008B1274603E0601CC4B2042CF3DB00BF1448006820F07F4040F088401149FE
:209DC00008600846406820F0FF0040F04400486008040861002408E06846FFF719FF1DF8A8
:209DE00007000E490855601CC4B2802CF4DB80200AF00EFB01F062F901F024F900BFB8E7E0
:209E0000401022000010014038230020890F00208E00002092000020480300203812002017
:209E2000F8B50646002701F01FFBFE4800F002FD002000F041FD002E4CD1FB48006820F06E
:209E40007F4040F08840F84908600846406820F0FF0040F04400486008040861002437E0D1
:209E60006846FFF7D5FE002513E01DF80500EF49095D88420BD0EE48005D40B9ED480078BD
:209E8000A84000F0080010B19421E9484155681CC5B2042DE9DB9DF80000E449095D8842C3
:209EA00014D09DF80100E149095D88420ED09DF80200DE49095D884208D09DF80300DB496E
:209EC000095D884202D001F0CFFAF8BD601CC4B2402CC5DB012E2FD1002409E0D548007842
:209EE000A04000F0080008B1274603E0601CC4B2042CF3DB00BFCC48006820F07F4040F057
:209F00008840C94908600846406820F0FF0040F04400486008040861002408E06846FFF7B9
:209F200077FE1DF80700C4490855601CC4B2402CF4DB40200AF06CFA022E7DD1BA48006851
:209F400020F07F4040F08840B74908600846406820F0FF0040F04400486008040861002418
:209F600015E06846FFF754FE9DF80000B34908559DF80110B148803001559DF8021080300C
:209F800001559DF8031080300155601CC4B2202CE7DB01F069FAA34800F04CFC002000F036
:209FA0008BFCA148006820F07F4040F088409E4908600846406820F0FF0040F04400486092
:209FC00008040861202415E06846FFF721FE9DF800009A4908559DF80110984880300155AF
:209FE0009DF80210803001559DF8031080300155601CC4B2402CE7DB00243DE0002519E087
:20A000008E4800EBC510015D8C4800EBC51204F12000105C81420BD08548405D40B9854867
:20A020000078A84000F0080010B1972180484155681CC5B2042D00E020E0E1DB7F48015D04
:20A04000024604F12000105C814213D002F18000025D04F12001405C82420BD07848025D4F
:20A06000405C824206D076488030025D405C824200D02AE7601CC4B2202CBFDB032E7DD145
:20A080006948006820F07F4040F08840664908600846406820F0FF0040F04400486008049C
:20A0A0000861002415E06846FFF7B2FD9DF80000624908559DF801106048803001559DF845
:20A0C0000210803001559DF8031080300155601CC4B2402CE7DB01F0C7F9524800F0AAFBBA
:20A0E000002000F0E9FB5048006820F07F4040F088404D4908600846406820F0FF0040F072
:20A100004400486008040861402415E06846FFF77FFD9DF80000494908559DF801104748AC
:20A12000803001559DF80210803001559DF8031080300155601CC4B2802CE7DB00243DE01D
:20A14000002519E03D4800EBC510015D3B4800EBC51204F14000105C81420BD03448405DA1
:20A1600040B934480078A84000F0080010B197212F484155681CC5B2042D00E0D7E0E1DB0D
:20A180002E48015D024604F14000105C814213D002F18000025D04F14001405C82420BD019
:20A1A0002748025D405C824206D025488030025D405C824200D088E6601CC4B2402CBFDB89
:20A1C0000025B1E01D4800EBC51090F83B00112817D11C48008800EB001101EB40101A4939
:20A1E00001EB8000007C01280BD01148405D40B910480078A84000F0080010B198210C4806
:20A2000041550E4800EBC51090F83B0013282CD10C48008800EB001101EB40100A4901EB44
:20A22000800013E0801022000010014038220020890F00208E0000203812002060320020AC
:20A24000603300209200002048030020007C04280BD03848405D40B937480078A84000F0C6
:20A26000080010B1982133484155344800EBC51090F83B00122817D13148008800EB00112D
:20A2800001EB40102F4901EB8000007C05280BD02848405D40B928480078A84000F008004C
:20A2A00010B1982123484155244800EBC51090F83B00142817D12248008800EB001101EB36
:20A2C0004010204901EB8000007C02280BD01948405D40B918480078A84000F0080010B168
:20A2E000982114484155154800EBC51090F83B00152817D11248008800EB001101EB401094
:20A30000104901EB8000007C03280BD00948405D40B909480078A84000F0080010B19821EC
:20A3200004484155681CC5B2042DFFF64BAF00BFCBE50000890F00208E0000206032002099
:20A3400092000020480300202DE9FF5F074600200390984800884FF4A02101EB4040029002
:20A360009448008800EB001101EB4010924901EB8000806CC0F3872000908E48008800EBDB
:20A38000001101EB40108C4901EB8000B0F84800C0F3090B8748008800EB001101EB4010E9
:20A3A000854901EB800090F846005844B0F5806F13D9CBF1000000F0FF097E48008800EB8C
:20A3C000001101EB40107C4901EB800090F84600A0EB090000F0FF0A0CE07648008800EB87
:20A3E000001101EB4010744901EB800090F846904FF0000A012F03D101F00CF800F052FE07
:20A4000001F032F86D4800F015FA002000F054FA6B48006820F07F4040F088406849086014
:20A420000846406820F0FF0040F044004860080408616048008800EB001101EB40105E4977
:20A4400001EB80004069C0F38728002F76D1002580E04FF480625B49029805F03BFAA8F164
:20A460000100A84207D1574890F8FF0340F01100544981F8FF034F48008800EB001101EB90
:20A4800040104D4901EB800090F84600E8B1009885420AD1002406E0FF2004EB0B01494A12
:20A4A0005054601C84B24C45F6DBBAF1000F0CD00098401C854208D1002404E0FF20414909
:20A4C0000855601C84B25445F8DB002439E001A8FFF79EFB002613E001A8805D3949095D05
:20A4E00088420BD03848805D40B938480078B04000F0080010B1932133488155701C86B2F7
:20A50000042EE9DB9DF804002E49095D884216D09DF805002B49095D884210D09DF8060066
:20A520002849095D88420AD09DF807002549095D884204D000F098FFBDE8FF9F0DE0601C5F
:20A5400084B2B4F5806FC2DB029800F580600290681CC5B24545FFF67CAF012F28D100249D
:20A560000AE01A480078A04000F0080010B1E0B2039003E0601C84B2042CF2DB00BF0025E3
:20A5800014E0002409E001A8FFF742FB01A90398085C0C490855601C84B2B4F5806FF2DB6C
:20A5A0004FF4806009F034FF681CC5B24545E8DB00BFC1E79200002048030020001022004E
:20A5C0000010014038120020890F00208E00002070B504460D4600262FE0264800784FF43A
:20A5E000F00101EAC0402449086024480068804704F0800040B11F4800784FF4707101EABC
:20A6000080101F49086107E01A4800784FF0707101EA80501A490861184800688047154885
:20A620000078782101EAC000134908601348006880476006040E701CC6B2082ECDDBA5B958
:20A640000C4800784FF4F00101EAC0400A4908600A480068804707480078782101EAC000C8
:20A6600005490860054800688047012D01D100F05DFA70BD8E000020100C01403C030020CA
:20A68000001001402DE9F04105460E46144600277FE034B1012C08D0022C0BD0032C13D19D
:20A6A0000DE00020604908600EE000205E49091F086009E000205C490839086004E00020DC
:20A6C00059490C39086000BF00BF58480068804705F08000D8B134B1012C08D0022C0BD0ED
:20A6E000032C13D10DE00120514908600EE001204F49091F086009E001204D4908390860B7
:20A7000004E001204A490C39086000BF1BE034B1012C08D0022C0BD0032C13D10DE0002027
:20A72000434908600EE000204149091F086009E000203F490839086004E000203C490C39F5
:20A74000086000BF00BF39480068804734B1012C08D0022C0BD0032C13D10DE001203249D4
:20A7600008600EE001203049091F086009E001202D490839086004E001202B490C3908600A
:20A7800000BF00BF2948006880476806050E781CC7B2082FFFF67DAF7EBB34B1012C08D092
:20A7A000022C0BD0032C13D10DE000201E4908600EE000201C49091F086009E000201A4932
:20A7C0000839086004E0002017490C39086000BF00BF16480068804734B1012C08D0022C9C
:20A7E0000CD0032C14D10EE001200F4908600FE001200D49091F08600AE00DE001200A4959
:20A800000839086004E0012007490C39086000BF00BF064800688047012E02D1204600F03A
:20A82000FBF9BDE8F0810000988121423C030020A401224270B5044600252EE01A480078AE
:20A840004FF4F00101EAC0401849086018480068804704F4000040B1134800784FF47071A1
:20A8600001EA80101349086107E00F4800784FF0707101EA80500F4908610D4800688047C2
:20A8800009480078782101EAC000084908600848006880476400681CC5B2182DCEDB0A20FC
:20A8A00008F090F970BD00008E000020100C01403C0300200010014070B5044600252EE08D
:20A8C0001A4800784FF4F00101EAC0401849086018480068804704F4004040B1134800782B
:20A8E0004FF4707101EA80101349086107E00F4800784FF0707101EA80500F4908610D484D
:20A900000068804709480078782101EAC000084908600848006880476400681CC5B2102D27
:20A92000CEDB0A2008F04EF970BD00008E000020100C01403C0300200010014038B500F040
:20A9400093FD3048FFF776FF2F49098801EB011202EB41112D4A02EB81014969A1F108000B
:20A96000FFF7AAFF2A48006820F07F4040F08840274908600846406820F0FF0040F0440046
:20A98000486008040861002437E06846FFF740F9002513E01DF805001E49095D88420BD0DE
:20A9A0001D48405D40B91D480078A84000F0080010B1932118484155681CC5B2042DE9DB84
:20A9C0009DF800001349095D884214D09DF801001049095D88420ED09DF802000D49095D22
:20A9E000884208D09DF803000A49095D884202D000F03AFD38BD601CC4B2082CC5DB00BF27
:20AA0000F8E700000010220092000020480300200010014029030020890F00208E00002005
:20AA20002DE9F84F064688461546394800884FF4A02101EB404A06F00309C9F1040040457C
:20AA400001DA082700E004274FF6FC71314001EB0A003A462F4904F03DFF002411E02C4817
:20AA6000008800EB001101EB40102B4901EB80005C3010F8140004EB0901264A5054601C05
:20AA8000C4B22348008800EB001101EB4010224901EB800090F84600A042E0DC00F0E4FC02
:20AAA0001E48FFF7C7FE4FF6FC7106EA0100FFF703FF1B48006820F07F4040F088401849E7
:20AAC00008600846406820F0FF0040F04400486008040861002416E06846FFF799F81DF814
:20AAE00005000C49095D88420BD00E48405D40B90D480078A84000F0080010B19321094892
:20AB00004155601CC4B2BC42E6DBBDE8F88F00009200002038120020480300200010220009
:20AB200000100140890F00208E0000202DE9F0410027334800784FF4F00101EAC040314964
:20AB400008603148006880472D480078782101EAC0002C4908602D48006820F07F4040F0FB
:20AB600088402A4908600846406820F0FF0040F0440048600804086100242CE02448007888
:20AB8000A04000F0080020B3002520E001F0EAF80646022008F016F80BE001F0E3F8801B4C
:20ABA0000A2803D901279B211A480155022008F009F8164880684FF400712141084008B173
:20ABC000002FEAD00A2007F0FDFF681CC5B2032DDCDB601CC4B2042CD0DB0C48006820F0F4
:20ABE0007F4040F08850094908600846406820F0FF0040F01100486088140861BDE8F081CB
:20AC00008E000020100C01403C0300200010014028030020890F00202DE9F04104460027BE
:20AC200034B1012C08D0022C0BD0032C13D10DE00020414908600EE000203F49091F0860E9
:20AC400009E000203C490839086004E000203A490C39086000BF00BF38480068804734B177
:20AC6000012C08D0022C0BD0032C13D10DE00120314908600EE001202F49091F086009E0C3
:20AC800001202D490839086004E001202A490C39086000BF00BF2A48006820F07F4040F0F8
:20ACA0008840274908600846406820F0FF0040F0440048600804086122480078A04000F0AC
:20ACC000080028B30027002520E001F04BF80646022007F077FF0BE001F044F8801B0A2851
:20ACE00003D901279B2118480155022007F06AFF134880684FF400712141084008B1002FD3
:20AD0000EAD00A2007F05EFF681CC5B2032DDCDB0B48006820F07F4040F0885008490860CE
:20AD20000846406820F0FF0040F01100486088140861BDE8F0810000988121423C0300202F
:20AD40000010014028030020890F002010B500F08BFB1348FFF76EFD0020FFF7ADFD0024C4
:20AD60000FE0FEF7ADFD0F4908700846007828B10D49085D0121FFF72BFC00E010BD601CB3
:20AD8000C4B20A48008800EB001101EB4010084901EB8000408BA042E3DC00BFEEE700006E
:20ADA00040101200280300203823002092000020480300202DE9F04705460F469146304812
:20ADC00000884FF4A02101EB404A00F04DFB2D48FFF730FD4FF6FC7105EA0100FFF76CFDA0
:20ADE00005F00308C8F10400B84201DA082600E004264FF6FC71294001EB0A003246224995
:20AE000004F068FD002411E01D48008800EB001101EB40101D4901EB80005C3010F8140025
:20AE200004EB0801184A5054601CC4B21448008800EB001101EB4010144901EB800090F8B5
:20AE40004600A042E0DC002416E0601CC11700EB91718910A0EB810131B10B49085D4A46E2
:20AE60000021FFF70FFC05E00749085D4A460121FFF708FC601CC4B2B442E6DBBDE8F087A5
:20AE8000920000200010120038120020480300202DE9FC5F00200190401E009064480088C5
:20AEA0004FF4A02101EB404A6148008800EB001101EB40105F4901EB80004069C0F387298F
:20AEC0005B48008800EB001101EB4010594901EB8000806CC0F3872B5548008800EB00118F
:20AEE00001EB4010534901EB8000B0F84800C0F309084F48008800EB001101EB40104D496D
:20AF000001EB800090F846004044B0F5806F10D9C8F10000C6B24648008800EB001101EBC7
:20AF20004010444901EB800090F84600801BC7B20BE03F48008800EB001101EB40103D492E
:20AF400001EB800090F84660002700F08DFA3A48FFF770FC0020FFF7AFFC002564E04FF468
:20AF600080623649504604F0B5FCA9F10100A84207D1324890F8FF0340F011002F4981F8A2
:20AF8000FF032B48008800EB001101EB4010294901EB800090F84600D0B15D450AD10024AE
:20AFA00006E0FF2004EB0801244A5054601C84B2B442F6DB67B10BF10100854208D1002430
:20AFC00004E0FF201D490855601C84B2BC42F8DB002422E0FEF774FC1949087008460078FD
:20AFE000B8B11649085D0021FFF7F2FA134A611C505C0021FFF7ECFA104AA11C505C0021BA
:20B00000FFF7E6FA0D4AE11C505C0121FFF7E0FA01E0BDE8FC9F201D84B2B4F5806FD9DB88
:20B020000AF5806A681CC5B24D4598DB00BFF0E792000020480300200010120038120020E8
:20B040002803002010B5144800784FF4F00101EAC04012490860104800784FF0707101EA4F
:20B0600080500F490861002005F0D2FD1E2007F088FD09480078FDF785FC00F0F004204619
:20B0800005F0C6FD142007F07CFD002005F0C0FD642007F081FD10BD8E000020100C0140B1
:20B0A0000010014010B500F0DFF9034800F076F9322007F087FD10BD915C8A4810B500F0FA
:20B0C000D3F9024800F06AF910BD0000995C8A4830B585B000F0C8F93848FFF7ABFB00206C
:20B0E000FFF7EAFB3648006820F07F4040F08840334908600846406820F0FF0040F044006B
:20B10000486008040861002410E06846FEF780FD002507E01DF8050001A901EB8401485500
:20B12000681CC5B2042DF5DB601CC4B2042CECDB00241DE001A8005D19280BD102A8005DDF
:20B14000062807D103A8005D012803D100211D4801550BE01B48005D40B91B480078A040A9
:20B1600000F0080010B1982116480155601CC4B2042CDFDB00241CE004A8005D012803D1A7
:20B1800000201249085512E004A8005D18B901200E4908550BE00B48005D40B90A480078D8
:20B1A000A04000F0080010B1982106480155601CC4B2042CE0DB002005B030BD00202200B8
:20B1C00000100140890F00208E0000203303002070B56E48008800EB001101EB40106C4912
:20B1E00001EB800090F8460000B970BD0024C7E06848005D00287DD167480078A04000F0EA
:20B200000800002876D06148008800EB001101EB40105F4901EB800090F85C505B480088DC
:20B2200000EB001101EB4010594901EB800090F85E0005EB00255548008800EB001101EBC0
:20B240004010534901EB800090F8600005EB00454E48008800EB001101EB40104C4901EBA2
:20B26000800090F8620005EB0065484A128802EB021303EB42120B4603EB820292F84610FC
:20B28000424A128802EB021303EB4212404B03EB8202B2F8482090B22246FFF78BFD642089
:20B2A00007F07AFC3B48005DF8B93B480078A04000F00800C8B1354A128802EB021303EB3B
:20B2C0004212334B03EB820292F846102F4A128802EB021303EB42122D4B03EB8202B2F85F
:20B2E000482090B22246FFF79BFB2A48005D98B9294800E042E00078A04000F0080058B1C4
:20B300002248008800EB001101EB4010204901EB800090F964000544E8B21C49098801EB7C
:20B32000011202EB41111A4A02EB8101A1F85C00C5F307211548008800EB001202EB4010F4
:20B34000134A02EB8000A0F85E10C5F307410F48008800EB001202EB40100D4A02EB800040
:20B36000A0F86010280E0949098801EB011202EB4111074A02EB8101A1F86200601CC4B2C1
:20B38000042CFFF635AF00BF2FE700009200002048030020890F00208E00002070B50446DD
:20B3A00000252BE004F0004040B1164800784FF4707101EA80101449086107E01148007845
:20B3C0004FF0707101EA80500F4908610D4800784FF4F00101EAC0400C4908600C4800686C
:20B3E000804708480078782101EAC000074908600748006880476400681CC5B2202DD1DBEC
:20B4000070BD00008E00002000100140100C01403C03002010B5002005F0FAFB322007F02C
:20B42000B0FB0E480078FDF7ADFA0409204605F0EFFB0A4800784FF4F00101EAC04008496C
:20B440000860064800784FF0707101EA805005490861052007F0A0FB10BD00008E000020FA
:20B46000100C01400010014010B5134800784FF4F00101EAC04011490860FA2007F0A2FBF7
:20B480000D480078782101EAC0000C490860FA2007F098FB0A48006820F07F4040F08850A9
:20B4A000074908600846406820F0FF0040F0110048608814086110BD8E000020100C014009
:20B4C0000010014010B507F05BFB10BD10B5022007F078FB10BD0020704700207047002050
:20B4E0007047000070B50024064D07E0165D4640F6B2641C55F8266086EA10209C42F5D3D8
:20B50000484070BDC84C01082DE9F8432C482E4F002501784278DFF8AC8001EB02218278B3
:20B52000C078120402EB006001EB00093878A52801D1002038702548FDF71AF8C1B2234813
:20B5400008F0BCFE04462248008800EB001101EB4012204908EB404001EB820100F52F0054
:20B56000CA7B897B01EBC10303EB011102EB81060422694604F0AEF99DF800009DF80310B1
:20B580009DF8012040EA01609DF80210090441EA02210843B9F1D70F0FD0B44201D004B132
:20B5A0000125B44203D10C490968884201D1002D03D0A520387001F0DDFCBDE8F8830000E2
:20B5C000F87F0008F87B0100F84F0020C0FF01089200002048030020F8FF010810B52F48F0
:20B5E000008800EB80002E4B53F830002B4B1B8803EB83032A4C04EBC3035B681844274B1B
:20B600001B8803EB830304EBC3039B681844234B1B8803EB830304EBC303DB68C2181F4841
:20B62000008800EB001303EB40101E4B03EB800090F8440000F0010068B11848008800EBC6
:20B64000001303EB4010174B03EB8000806F904201D8012010BD00211CE01048008800EB59
:20B6600080000F4B03EBC00050F821000E4B98420CD80A48008800EB8000094B03EBC0007B
:20B68000103050F82100084B984201D90120E1E7481CC1B20429E0DB0020DBE792000020BE
:20B6A0009C0F0020480300203F420F00F0B52C48008800EB001101EB40112A4800EB81000C
:20B6C00090F80EE0B0F85C40B0F85EC0B0F86020B0F86270B0F85430B0F85660B0F85810AE
:20B6E000B0F85A50BEF10A0F18D0E0B20CF0FF0400EB0420D2B200EB0240DAB2F3B202EBD9
:20B700000322C9B202EB014100EB076001EB0561421C01D0884220D98920F0BD4FEA0C4CDD
:20B7200000201CEB040440EB000C10EB040E42EB0C023C0410EB0E0754413204D21840EB2B
:20B74000000683187141C01841EB05426FEA07012143E1D0C01BA241DED30020F0BD000099
:20B76000920000204803002010B505F097FABDE8104005F07FBA0000014801F047B8000005
:20B78000B0300020014801F041B80000E830002010B5046863604368102B036803D099602D
:20B7A0000068C26010BD9A600068C16010BD704710B504464FF4803000EB0431002000F0F9
:20B7C00001F94FF4A02000EB4441012000F0FAF84FF4C02000EB4441012000F0F3F810BD9D
:20B7E000F0B5074638A00E4691B007C801AB83E8070038A004AB07C883E8070038A207ABA9
:20B8000007CA83E8070039A00AAB07C883E8070039A20DAB07CA83E80700002007F07BF9B5
:20B820000C2546B1300907282CD2DFE800F02B222428262B2A00072F0ED2DFE807F00D04CA
:20B84000060A080D0C0001AC06E004AC04E00DAC02E00AAC00E007AC102322460521382093
:20B86000009507F038FA10230821264A4020009521E001AC06E004AC04E00AAC02E00DACD0
:20B8800000E007AC1023224605213820009507F022FA06F002001C4A012108F0A5FD1A4AD6
:20B8A00002210832304608F09FFD174A1023921E08213820009507F00EFA4FF4FA7007F024
:20B8C00060F911B0F0BD00002056444420434845434B20202056505720434845434B20200A
:20B8E00020464C415348205445535420205541525420205445535420434F4E4E4543542014
:20B9000054455354B4000020D601002010B54FF4804001F07DF94FF4006001F079F9BDE842
:20B9200010404FF4806001F073B9022001F070B9042001F06DB9000030B51E4885B0816996
:20B9400041F004018161816901F004010491816941F0080181618069174C00F0080004907C
:20B96000022001258DE831006946144801F05CF944F604408DE831006946114801F054F91E
:20B9800002221146082001F0C3FA082001F0B5FA03220221072001F0BBFA072001F0A2FAC5
:20B9A00005220221282001F0B3FA282001F0A5FA05B030BD00100240000021100008014011
:20B9C000000C014070B505460C4607F02BF807F079F800221021184801F004FA25B1012D30
:20B9E00006D0022D0CD107E020201449087007E0D8201249087003E0C7201049087000BF5D
:20BA000000BF4FF47A7301220C490D4802F078FC022D0BD0200C09490870200A48708C7026
:20BA20004FF47A730322064802F06AFC01221021014801F0D7F970BD000801401402002001
:20BA4000682F0020FEE700003EB5174B044600250A21186803E0B0FBF1F06D1CEDB200281C
:20BA6000F9D16A462946186808F058FC9DF8000020702E2060709DF80110A170E0709DF832
:20BA8000020020719DF8030060712020A071002069462D1F05E00A1823181279401CDA71CA
:20BAA000C0B2A842F7DB3EBDF8FF010810B505F057F8FF2005F080F80A2007F06DF8F02032
:20BAC00005F07AF80A2007F067F8BDE81040FF2005F072B82DE9F0474FF00009002426E08D
:20BAE000E1B2002007F028FF4FF4803000EB044702115349384603F0EDFE002508E050489C
:20BB0000405DFF2802D04FF0010904E0681C85B2B5F5805FF3DB00BFB9F1010F05D1394682
:20BB20000120FFF74FFF4FF00009601C84B2CD2CD6DB00267FE000210846FFF743FF16B109
:20BB40004FF0550801E04FF0AA08711CC8B2002107F0F2FE002404E0394800F80480601CE7
:20BB600084B2FF2CF8DD00274FF480723449384606F082FF4FF480723149384603F0AAFEF9
:20BB8000002408E02E48005D404502D06020BDE8F087601C84B2FF2CF4DD00210846FFF7C0
:20BBA00011FF16B14FF0550801E04FF0AA08002404E0234800F80480601C84B2FF2CF8DD9F
:20BBC0004FF48037002509E04FF480721C49384606F052FF07F58037681C85B2CD2DF3DBC8
:20BBE0004FF48037002515E04FF480721449384603F070FE07F58037002407E01048005D4D
:20BC0000404501D06020C2E7601C84B2FF2CF5DD681C85B2CD2DE7DB002408E04FF4803080
:20BC200000EB04410020FFF7CDFE601C84B2CD2CF4DB701C86B2022EFFF67DAF0020A6E7B7
:20BC4000381200202DE9F04107460C464FF00008FF224FF480511048FCF778FC16E0B4F5BA
:20BC6000806F01D2A5B201E04FF480652A460A49384603F02FFE002604E00748805D804447
:20BC8000701C86B2AE42F8DB2F44641B002CE6D14046BDE8F0810000381200202DE9F041FB
:20BCA00007460C464FF00008FF224FF480512C48FCF74CFCB4F5803F35D916E0B4F5806FB6
:20BCC00001D2A5B201E04FF480652A462449384603F000FE002604E02148805D8044701C45
:20BCE00086B2AE42F8DB2F44641BB4F5803FE5D816E0B4F5806F01D2A5B201E04FF4806571
:20BD00002A461749384603F0E5FD002604E01448805D8044701C86B2AE42F8DB2F44641B80
:20BD2000002CE6D119E016E0B4F5806F01D2A5B201E04FF480652A460949384603F0CAFD6C
:20BD4000002604E00648805D8044701C86B2AE42F8DB2F44641B002CE6D14046BDE8F081F2
:20BD6000381200200148006870470000DC0200207FB504461022C9496846FCF7D5FBC848B0
:20BD8000008800EB8000C74951F83000C449098801EB8101C34A02EBC10149680844C04959
:20BDA000098801EB810102EBC10189680844BC49098801EB810102EBC101C9684618E52051
:20BDC0002070422060707A20A07004F0CFF8B449087803F0A9FD03F063FF002505E0B248CD
:20BDE000415DE81C2154681CC5B2102DF7DBAF480088000AE074AD4800782075AC480068E7
:20BE0000000E6075AA480068000CA075A8480088000AE075A64800782076002508E0A548F7
:20BE2000284490F8E81705F119002154681CC5B20C2DF4DB00250EE09948008800EB001110
:20BE400001EB40109C4901EB8000415D05F125002154681CC5B20E2DEEDB9148008800EBDC
:20BE6000001101EB4010944901EB8000807B04F8330F8B48008800EB001101EB40108E4989
:20BE800001EB8000C07B60708548008800EB001101EB4010884901EB8000B0F84400000A6B
:20BEA000A0707F48008800EB001101EB4010824901EB800090F84400E0707948008800EB64
:20BEC000001101EB40107C4901EB8000B0F86600000A20717248008800EB001101EB4010C1
:20BEE000754901EB800090F8660060716C48008800EB001101EB40106F4901EB8000B0F819
:20BF00006A00000AA0716648008800EB001101EB4010694901EB800090F86A00E071604825
:20BF2000008800EB001101EB4010634901EB8000B0F86E00000A20725948008800EB001152
:20BF400001EB40105C4901EB800090F86E0060725348008800EB001101EB4010564901EBE6
:20BF60008000007CA072333C4D48008800EB001202EB40100A4602EB800000F124011022E8
:20BF800004F14000FCF7D0FA4548008800EB001101EB4010484901EB800090F8460084F81B
:20BFA00050003F48008800EB001101EB4010424901EB800090F8640084F851003848008832
:20BFC00000EB001101EB40103B4901EB8000806CC4F8520000252EE03148008800EB00110F
:20BFE00001EB4010344901EB80004C3030F815106800563021522A48008800EB001101EB10
:20C0000040102D4901EB8000543030F8151068005E3021522248008800EB001101EB40108A
:20C02000254901EB80005C3030F81510680066302152681CC5B2042DCEDB44F86E6F18488E
:20C04000008800EB001101EB40101B4901EB8000808BA0801248008800EB001101EB40100B
:20C06000154901EB8000C08BE0800D48008800EB001101EB4010104901EB8000008C208144
:20C080000748008800EB001101EB40100A4901EB8000408C60816E3C7FBD0000C0FF010877
:20C0A000920000209C0F0020E0FF0108FC7F0008F8FF010800F0FF1F48030020F8B500254D
:20C0C0000446009590F82400012808D0012084F824002046FCF792FA060002D04BE0022009
:20C0E000F8BDA06A20F4885040F00200A062022001F02CFA22490968B1FBF0F0400000E0A0
:20C10000401E00900028FBD12046FCF79DFA2068816841F00801816000F06AFE074604E038
:20C1200000F066FEC01B0A2811D8206880680007F6D42068816841F00401816000F058FEA6
:20C1400007460EE000F054FEC01B0A2809D9A06A20F0020040F01000A06284F82450012004
:20C16000F8BD206880684007ECD4A06A20F0020040F00100A06284F824503046F8BD000029
:20C1800084000020F8B50025009590F82420AE46012A1ED0012280F824204A681F244FF4A4
:20C1A0007873072A17D20668776B93FAA3FCBCFA8CFC521E02FB0CFC04FA0CF4A74393FAD6
:20C1C000A3F3B3FA83F30C685A439440274377632DE00220F8BD06680D2A14D2376B93FADF
:20C1E000A3FCBCFA8CFCD21F02FB0CFC04FA0CF4A74393FAA3F3B3FA83F30C685A43944059
:20C200002743376313E0F76A93FAA3FCBCFA8CFC0D3A02FB0CFC04FA0CF4A74393FAA3F305
:20C22000B3FA83F30C685A4394402743F7620A683823072406680A2A14D3F76893FAA3FC27
:20C24000BCFA8CFC0A3A02FB0CFC04FA0CF4A74393FAA3F3B3FA83F38C685A43944027435A
:20C26000F76012E0376993FAA3FCBCFA8CFC02FB0CFC04FA0CF4A74393FAA3F3B3FA83F338
:20C280008C685A439440274337610A68102A01D0112A20D1124B02689A4217D193681B02EB
:20C2A00019D4936843F4000393600968102912D10C490D4A0968B1FBF2F101EB8101490079
:20C2C00000E0491E00910029FBD104E0816A41F020018162012580F824E02846F8BD0000C8
:20C2E000002401408400002040420F000068C06C704700002DE9F04104004FF0000513D0E7
:20C30000A06A002628B9E66284F82460204600F08BF82046FCF772F9A16AC90600D420B1A8
:20C32000A06A40F01000A06278E0A16A21F4885141F00201A1626268E16902270A43E16856
:20C3400097FAA7F70B46B7FA87F7B9400A43A1684FF48077B94209D0012907D05FF0000180
:20C36000D4F814C0BCF1010F02D00AE03946F7E7F3B1A36A43F02003A362E36A43F00103B7
:20C38000E3622368D3F804C02CF4694C4CEA010CC3F804C021688B68DFF884C003EA0C0314
:20C3A00013438B60A168B94210D001290ED016E04FF4604CA3699CFAACFCBCFA8CFC5B1E6A
:20C3C00003FA0CF30B4343F40061DAE74FF47001256991FAA1F1B1FA81F16D1E8D4021685D
:20C3E000CB6A23F470032B43CB62216889680D4B1940914208D1E662A16A21F0020141F074
:20C400000101A162BDE8F081A06A20F0020040F01000A062E06A40F00100E0620120F1E7ED
:20C42000FDF7E1FFFE0E1FFF10B500680E4986B0884217D10D48816941F4007181618069E2
:20C44000032400F4007004900F20CDE900046946074800F0E9FB0120CDE90004694605482B
:20C4600000F0E2FB06B010BD002401400010024000100140000801402DE9F84300260D4651
:20C480000446009600F0B4FC804620688168C90508D5A06A40F02000A06284F824600120BD
:20C4A000BDE8F8834168C90503D4C06A10F4700F26D0022001F04AF838490968B1FBF0F791
:20C4C0002068036936490B424FEA61014FEAA1121BD1C3684FEA611C13EA0C0F15D10369DE
:20C4E0000B4221D1C06810421ED114201FE0681C06D045B300F07CFCA0EB0800A84222D830
:20C50000206800688007F2D52AE003690B4202D1C168114206D0026922490A4206D1C068D4
:20C52000084203D1542002E0292000E0FC204743009813E0681C0ED02DB100F059FCA0EB1D
:20C540000800A84207D9A06A40F00400A06284F824600320A4E70098401C0090B842E9D3E1
:20C5600021686FF012000860A06A40F40070A06220688068C0F3424007280CD1E06850B9A7
:20C58000A06A20F48070A062A06AC00403D4A06A40F00100A062002082E70000840000207C
:20C5A000244992244992240070B5044690F8240001280DD0012084F824002046FCF744F8E2
:20C5C00002004FF0000005D084F82400104670BD022070BDA16A40F20123994341F4807170
:20C5E000A1621F4D23681F49AB4218D10E6816F4702F14D0A66A46F48016A6620E68760527
:20C6000005D5A66A26F4005646F48056A662A66AF6040AD5E66A26F00606E66206E0A66A0F
:20C6200026F48016A6625E68E9E7E06284F824006FF00200186020688368C3F34243072B11
:20C6400005D1A84208D1096811F4702F04D0816841F480118160B9E7816841F4A001F9E789
:20C66000002801400424014010B5040002D0607910B106E0012010BD00202071204600F0D8
:20C6800004F801206071002010BD70472DE9F04104460068016821F00101016000F0A8FB9F
:20C6A000054600264FF47A7710E000BF00F0A0FB401BB8420AD954F8340F40F0200044F848
:20C6C0001409032060702670BDE8F08120680068C007EBD1012084F8210084F82060002051
:20C6E000F2E70000F0B540B390F82110022924D001680A6822F001020A6001684FF0000EE1
:20C70000C1F800E00168C1F804E00168C1F808E00168C1F80CE03C4C3B4D3B4E3A4F3A4ABC
:20C72000DFF8E4C00168143428353C3650370CF1640C914203D102211BE00120F0BDA14294
:20C7400001D1202115E0A94202D14FF4007110E0B14202D14FF400510BE0B94202D14FF419
:20C76000003106E0614502D14FF4001101E04FF00071254B083B59600168914201D10821A1
:20C7800019E0A14201D1802115E0A94202D14FF4006110E0B14202D14FF400410BE0B942D3
:20C7A00002D14FF4002106E0614502D14FF4000101E04FF0006159600168914201D1042132
:20C7C00019E0A14201D1402115E0A94202D14FF4806110E0B14202D14FF480410BE0B942D3
:20C7E00002D14FF4802106E0614502D14FF4800101E04FF080615960C0F834E080F821E060
:20C8000080F820E00020F0BD080002402DE9F05FDFF860820446D8F80020DFF858B2954D6E
:20C82000944E944F0068DFF84C92DFF848A20BF1080B1C35303644374FF400614FF4004CE1
:20C840004FF4002E09F158090AF16C0A584501D1082316E0A84201D1802312E0B04201D1F6
:20C860000B460EE0B84201D163460AE0484501D1734606E0504502D14FF4000301E04FF04E
:20C8800000631A4231D00268D24312072DD4026822F0080202602068584501D1082114E043
:20C8A000A84201D1802110E0B0420ED0B84201D161460AE0484501D1714606E0504502D19A
:20C8C0004FF4000101E04FF00061C8F80410606B40F001006063042084F82100002084F8A3
:20C8E0002000216B09B1204688476248D0F800C04FF4806120680A010B044FF4802E584517
:20C9000002D14FF0040816E0A84202D14FF0400811E0B04201D188460DE0B84201D19046AD
:20C9200009E0484501D1F04605E0504502D14FF4800800E098461CEA080F33D0D0F800C0FB
:20C940006FEA0C0C5FEA4C7C2CD4D0F800C05FEA8C6C05D4D0F800C02CF0040CC0F800C087
:20C960002068584501D1042113E0A84201D140210FE0B0420DD0B84201D1114609E0484534
:20C9800001D1714605E0504502D14FF4800100E0194638484160112084F82100E16A09B1CA
:20C9A00020468847334AD2F800C05B46206851154FF4005B4FF4003E984202D14FF0020897
:20C9C00017E0A84202D14FF0200812E0B04201D188460EE0B84201D1D8460AE0484501D197
:20C9E000F04606E0504502D14FF4001801E04FF000781CEA080F3BD0D0F800C06FEA0C0C9F
:20CA00005FEA8C7C34D4D0F800C05FEA8C6C05D4D0F800C02CF0020CC0F800C0206898428F
:20CA200001D1022114E0A84201D1202110E0B0420ED0B84201D159460AE0484501D17146E5
:20CA400006E0504502D14FF4001101E04FF000715160606B6063012084F82100002084F80A
:20CA60002000A16A002903D02046BDE8F05F0847BDE8F09F0000024070B520B190F82110C1
:20CA8000002411B103E0012070BD80F82040022180F8211003681A6843F6F0718A43D0E9CE
:20CAA00001152943D0E90356354329434569294385692943C569294311431960446301215A
:20CAC00080F82110002070BD70B5044690F82000012823D0012084F82000022084F82100B1
:20CAE0002068056825F0010505602046FEF750FE2068016841F0020101602068016841F070
:20CB0000040101602068016841F0080101602068016841F001010160002070BD022070BD02
:20CB200031B500F065F9044600F062F90099001B8842F9D338BD000070B506460A2006F05C
:20CB400020F82F4C2F4DB6F5806F3AD012DC022E25D0042E34D1D5F80801002830D10A20AF
:20CB600006F01AF8D5F80801002829D1207840F0010034E0B6F5006F33D0B6F5804F1FD151
:20CB8000D5F8380100281BD10A2006F005F8D5F83801002814D1207840F008001FE01A4C16
:20CBA000D4F8040100280BD1642005F0F5FFD4F80401002804D11548017881F001010170AB
:20CBC00070BDD5F828010028FAD10A2005F0E4FFD5F828010028F3D1207840F00200207001
:20CBE00070BDD5F82C010028FAD10A2005F0D4FFD5F82C010028F3D1207840F00400EEE7A2
:20CC00008D00002000802142000021428C000020044910B50A68024202D00860FFF78CFFF2
:20CC200010BD0000140401402DE9F84FDFF890A100220AF1040B144601274FF00F090BF168
:20CC4000040E00BF0B6807FA04F52B40AB4274D1DFF870C14E68A6EB0C0866452BD00DDC07
:20CC6000032E34D005DC36B3012E19D0022E2FD11BE0112E16D0122E2AD119E0B8F5881FC5
:20CC800019D006DCB8F5803F15D0B8F5801F1FD111E0B8F5001F0ED0B8F5041F18D10AE0FE
:20CCA000CA6815E0CA68121D12E0CA6808320FE0CA680C320CE08A682AB1012A4FF0080202
:20CCC00003D0456104E0042202E0056100E00022FF2B01D8064601E000F104064FEA84059A
:20CCE00001D9A5F12005D6F800C009FA05F82CEA080C02FA05F54CEA050CC6F800C04D6877
:20CD0000ED0057D5304DAE6946F00106AE61AD6924F0030605F0010500952C4D06EB050CDC
:20CD2000DCF80850A6074FEA167809FA08F6B543274EB04202D1002610E03BE0254EB0428A
:20CD400001D101260AE0244EB04201D1022605E0224EB04201D1032600E0042606FA08F648
:20CD60002E43CCF808604D68DAF80060ED03554601D51E4300E09E432E604D68DBF8006036
:20CD8000AD035D4601D51E4300E09E432E604D68DEF80060ED02754601D51E4300E09E432D
:20CDA0002E604D68AD020E4D2E6801D51E4300E09E432E60641C102CFFF444AFBDE8F88F3C
:20CDC0000004014000001110001002400000014000080140000C014000100140001401401E
:20CDE0000C0401400AB1016170470904FBE7000001480068704700001003002002480168D1
:20CE0000491C01607047000010030020074810B5016841F010010160032000F099F800207E
:20CE200000F006F800F016F8002010BD0020024010B5044600F05CFD4FF47A71B0FBF1F0A5
:20CE400001F05BFC00222146501E00F061F8002010BD0000214808B5816941F00101816138
:20CE6000806900F001000090032000F071F8002211466FF00B0000F04BF8002211466FF0DE
:20CE80000A0000F045F8002211466FF0090000F03FF800221146501F00F03AF800221146D0
:20CEA000101F00F035F800221146901E00F030F800221146501E00F02BF800221146012053
:20CEC00000F026F8012000F018F80548416821F0E06141F00071416008BD00000010024081
:20CEE0000000014000F01F02012191404009800000F1E020C0F88011704700F01F02012100
:20CF000091404009800000F1E020C0F800117047F0B40E4B1B680C46C3F30223C3F1070599
:20CF2000042D00D90425191D072901D2002300E0DB1E012606FA05F1491E214099409E40ED
:20CF4000761E16403143F0BC02F094BA0CED00E0064900F0070208684FF6FF03184040EA2D
:20CF60000220034A10430860704700000CED00E00000FA05BFF34F8F05480168054A01F46E
:20CF8000E06111430160BFF34F8F00BFFDE700000CED00E00400FA0510B50C0605D501F0EA
:20CFA0007F0100EB4110283003E000EB411000F5027099B232B101228272C180190C0181AA
:20CFC000002010BD002282728180F9E7704700EB4112D0F81C04D26B04F09FBB00EB4112C7
:20CFE000D0F81C04D2F81C2204F0ECBB10B504460A460B0601F07F0004EB401101D5283157
:20D0000001E001F502710870D009487094F8E803012809D0012084F8E803206804F0BAFF87
:20D02000002084F8E80310BD022010BD70B50A460446090602F07F0003D504EB40112831FD
:20D0400003E004EB421101F5027100258D700870D009487094F8E803012809D0012084F801
:20D06000E803206805F03EF884F8E853002070BD022070BD70B504460D460E0601F07F0079
:20D0800004EB401101D5283101E001F502710870E80948700A61CB7094F8E803012809D097
:20D0A000012084F8E803206804F044FE002084F8E80370BD022070BD70B504460E4601F073
:20D0C0007F0004EB401101F5077100252CC101F81F5C01F8200D94F8E80301280AD00120DC
:20D0E00084F8E8037006206805F056F884F8E853002070BD022070BD70B50D460446090664
:20D1000005F07F0003D504EB4011283103E004EB451101F5027101228A700870E80948705B
:20D1200094F8E803012807D084F8E823206805F00EF8680602D006E0022070BD04F57B7114
:20D14000206804F0CDFF002084F8E80370BD70B504460E4601F07F0004EB40113C310025CE
:20D160002CC1012201F81F2C01F8200D94F8E803012809D084F8E8237006206805F00CF83E
:20D1800084F8E853002070BD022070BD10B50446006805F0E3F8000402D5204602F07AF94F
:20D1A000206805F0DBF840050CD5206830F8441F21F480610180204600F0ECF800212046AE
:20D1C00000F0FDF8206805F0C9F8400405D5206830F8441F21F480410180206805F0BEF871
:20D1E000800405D5206830F8441F21F400510180206805F0B3F8C00413D5206830F8401FF4
:20D2000021F00401018021684FF43D40A1F84000204600F0CCF8206830F8441F21F4805142
:20D220000180206805F09AF800051AD5206830F8441F21F400610180206830F8401F41F020
:20D2400008010180206830F8401F41F004010180206805F083F8C043C00402D5204600F092
:20D26000E3F8206805F07AF8800508D5206830F8441F21F400710180204600F09CF82068F6
:20D2800005F06CF8C00505D5206830F8441F21F48071018010BD00002DE9F04186B00400AE
:20D2A0004FF0000504D094F8E903002620B108E0012006B0BDE8F08184F8E863204600F0F5
:20D2C0004BF8032084F8E903206804F002FF04F11001142288466846FBF726F994E80F00AF
:20D2E00004F056FE0021206805F04BF85FF0010704EB451080F8297000F8285F8581C6709E
:20D30000066146616D1C86610F2DF1D35FF0000004EB401181F8096281F80802888681F812
:20D320000B62C1F81862C1F81C62401CC1F820620F28EDD3142241466846FBF7F5F894E8C2
:20D340000F0004F0BDFE84F8246084F8E973206804F0B4FE0020ACE708B500680B49884213
:20D3600012D10B48C16941F40001C161C069002200F40000009011461420FFF7C9FDBDE83A
:20D3800008401420FFF7B9BD08BD0000005C00400010024010B504460121D0F81C0404F0E5
:20D3A000E3FAD4F81C04BDE8104004F0ACBAD0F81C0404F0C7BAD0F81C0404F0C9BA10B5D4
:20D3C000044690F8E80301280BD0012084F8E80384F82410206804F0D6FF002084F8E8037C
:20D3E00010BD022010BDD0F81C2400F57B71104604F0CDBA10B5044690F8E803012810D02C
:20D40000012084F8E80301462046FFF7DFFD206804F052FE206804F094FF002084F8E803A3
:20D4200010BD022010BD000010B50446D0F81C0404F0FAFAA069002804D00348016841F067
:20D440000601016010BD000010ED00E030B51C490A68036822F0E0021A430A6019490A6804
:20D4600022F480320A600C1F226822F480322260144A0832136823F4803313600B1D1D687E
:20D4800025F480351D604568ED0303D5256845F4803525604468A40303D50C6844F4803441
:20D4A0000C600179C90703D0196841F4803119600079800703D5106840F48030106030BD72
:20D4C00000700040040401400120102191FAA1F1024AB1FA81F142F82100704700000E4219
:20D4E00070B504F069FF05F019FF4FF496740E4D0FE0FF2003F034FB01212046FBF7F0F963
:20D50000C82005F03EFBAA2003F02AFBC82005F038FB68684007ECD40448008802F004FA68
:20D52000BDE8704005F06EBF007000409200002010B5054C2068C00304D5FFF7D1FF4FF4CF
:20D540008030206010BD00001404014010B533A401461DCC86B08DE81D0034A0344C006825
:20D5600004900020012931D0022948D010292BD161682268D20127D54FF4701292FAA2F24D
:20D5800001F47010B2FA82F2D040C9031DF8000010D561684FF4003292FAA2F201F400319C
:20D5A000B2FA82F2D14004AA515C224AB2FBF1F1484301E0204948436168490204D4400058
:20D5C0005FF00301B0FBF1F006B010BD226AC2F30121012903D1920701D5C803F4E7022948
:20D5E00005D1626A920702D549F64040ECE70329EAD121688903E7D54FF22440E4E700F06F
:20D6000095F961684FF4804292FAA2F201F44041B2FA82F2D140491C4900D3E70203040571
:20D62000060708090A0B0C0D0E0F1010010200000010024000127A0000093D002DE9F843E9
:20D6400005460078454CC00774D0E06940F08050E061E069424E00F080500090306840F4EC
:20D6600080703060FFF7C4FB074604E0FFF7C0FBC01B642833D83068C005F7D5206A10F46A
:20D68000407051D0A98801F4407181424CD0206A0126310491FAA1F2B2FA82F29300314AD1
:20D6A00020F440701344C3F8006491FAA1F1B1FA81F102EB81010023C1F800342062C0072E
:20D6C00032D0FFF795FB074641F288394FF0020808E000BFFFF78CFBC11B494502D90320AC
:20D6E000BDE8F88398FAA8F1B1FA81F141F040014046B6EB511F01D121680BE090FAA0F158
:20D70000B1FA81F141F04001B0EB511F01D1216A00E0616A98FAA8F0B0FA80F000F01F0212
:20D7200006FA02F00142D5D0206A696820F44070084320622878800705D56068A96820F435
:20D740004040084360602878C00605D56068E96820F48000084360600020C1E7001002402C
:20D7600000700040000042422DE9F047DFF8708105460E46D8F8000000F00700B0420CD22A
:20D78000D8F8001021F007013143C8F80010D8F8000000F00700B04277D12878514C800787
:20D7A00005D56068A96820F0F000084360602878C00759D06968012001290DD0022929D0FE
:20D7C0005FF0020393FAA3F2B2FA82F242F02002520904D0226803E04FF40033F2E7626AA8
:20D7E00093FAA3F3B3FA83F303F01F03984002424BD0606820F0030008436060FFF7F8FAC9
:20D800006968074641F2883001290DD00229814617D025E04FF00073D4E700BFFFF7E8FA16
:20D82000C11B494501D918E081466068C0F381000128F3D118E000BFFFF7DAFAC11B494511
:20D840000BD86068C0F381000228F5D10CE000BFFFF7CEFAC11B494502D90320BDE8F0870C
:20D86000606810F00C0FF3D1D8F80010404601F00701B1420BD9016821F007013143016074
:20D88000006800F00700B04201D00120E6E72878400705D56068E96820F4E060084360603F
:20D8A0002878000706D56068296920F4605040EAC100606000F052F86168F02292FAA2F2E8
:20D8C00001F0F001B2FA82F2D140074A515CC840064908600020FFF7ABFA0020BEE70000F8
:20D8E00000200240001002406C4C0108840000200148006870470000840000200848094961
:20D90000006849684FF4E06292FAA2F201F4E061B2FA82F2D140044A515CC8407047000028
:20D9200084000020001002407C4C010808480949006849684FF4605292FAA2F201F46051AA
:20D94000B2FA82F2D140044A515CC8407047000084000020001002407C4C010810B519A394
:20D9600085B00FCB8DE80F001AA01B4B006804905A681A4802F00C0104291DD008291BD19E
:20D980004FF4701494FAA4F402F47011B4FA84F4E140D2031DF8011010D55A684FF40033C4
:20D9A00093FAA3F302F40032B3FA83F3DA4004AB9A5CB0FBF2F0484305B010BD08484843C5
:20D9C000FAE7000002030405060708090A0B0C0D0E0F1010010200000010024000127A00EE
:20D9E00000093D002DE9F84F04460078F74DC0074FF0010625D068687704C0F381000128D4
:20DA000007D06868C0F3810002281BD16868C00318D597FAA7F0B0FA80F040F020004009BA
:20DA200001D0286800E0686A97FAA7F1B1FA81F101F01F0106FA01F108425ED06068002822
:20DA40007CD05AE06068B0F5803F0BD010B1B0F5A02F11D0286820F480302860286820F4A3
:20DA6000802002E0286840F480302860606828B3FFF7BEF980460BE0286840F4802028603B
:20DA8000F0E700BFFFF7B4F9A0EB0800642871D897FAA7F0B0FA80F040F02000400901D039
:20DAA000286800E0686A97FAA7F1B1FA81F101F01F0106FA01F10842E4D01EE0FFF798F958
:20DAC000804605E0FFF794F9A0EB08006428DED897FAA7F0B0FA80F040F02000400901D097
:20DAE000286800E0686A97FAA7F1B1FA81F101F01F0106FA01F10842E4D12078DFF8D082DB
:20DB000080074FF000094FF002075BD568684FF0F80B10F00C0F07D06868C0F3810002288C
:20DB20001CD16868C00319D497FAA7F0B0FA80F040F02000400902D0286801E08BE0686A1D
:20DB400097FAA7F1B1FA81F101F01F0106FA01F108422CD0206901287DD128E0206990B362
:20DB600096FAA6F0B0FA80F048F82060FFF740F9824607E011E100BFFFF73AF9A0EB0A0058
:20DB8000022884D897FAA7F0B0FA80F040F02000400901D0286800E0686A97FAA7F1B1FA3D
:20DBA00081F101F01F0106FA01F10842E4D028689BFAABF26169B2FA82F220F0F80091406D
:20DBC0000843286025E0FFE796FAA6F1B1FA81F148F82190FFF70CF9824605E0FFF708F9B3
:20DBE000A0EB0A000228CCD897FAA7F0B0FA80F040F02000400901D0286800E0686A97FA43
:20DC0000A7F1B1FA81F101F01F0106FA01F10842E4D1207800076ED5A069B8B396FAA6F0D1
:20DC2000B0FA80F008EB8000C0F88064FFF7E0F8824605E0FFF7DCF8A0EB0A000228A0D83F
:20DC400097FAA7F0B0FA80F040F06000B6EB501F02D128680CE062E197FAA7F0B0FA80F00E
:20DC600040F06000B7EB501F01D1286A00E0686A97FAA7F1B1FA81F101F01F0106FA01F2A3
:20DC80001042D7D00120FEF74BFF34E0FFE796FAA6F1B1FA81F108EB8101C1F88094FFF7B5
:20DCA000A7F8824606E000BFFFF7A2F8A0EB0A00022872D897FAA7F0B0FA80F040F06000ED
:20DCC000B6EB501F01D128680BE097FAA7F0B0FA80F040F06000B7EB501F01D1286A00E0C0
:20DCE000686A97FAA7F1B1FA81F101F01F0106FA01F21042D8D12078400765D5E86940F073
:20DD00008050E861E869DFF8CCB000F080500090DBF8001041F48071CBF80010FFF768F8C4
:20DD2000824605E0FFF764F8A0EB0A00642834D8DBF80000C005F5D5E06801280AD008B151
:20DD4000052813D0286A20F001002862286A20F0040002E0286A40F001002862E06841F236
:20DD6000883B90B3FFF744F882460BE0286A40F004002862EEE700BFFFF73AF8A0EB0A0116
:20DD800059450AD897FAA7F0B0FA80F040F04000B6EB501F02D128680CE0A3E097FAA7F047
:20DDA000B0FA80F040F04000B7EB501F01D1286A00E0686A97FAA7F1B1FA81F101F01F025A
:20DDC00006FA02F10842D7D031E005E0001002400000424200700040FFF70AF8824605E03E
:20DDE000FFF706F8A0EB0A0159457BD897FAA7F0B0FA80F040F04000B6EB501F01D1286884
:20DE00000BE097FAA7F0B0FA80F040F04000B7EB501F01D1286A00E0686A97FAA7F1B1FA6A
:20DE200081F101F01F0206FA02F10842D8D1E06980B36968C1F38101022970D04FF080715A
:20DE40004F000228484609D091FAA1F1B1FA81F148F82100FEF7CCFF044669E08A4691FA99
:20DE6000A1F1B1FA81F1C14648F82100FEF7C0FF804605E0FEF7BCFFA0EB0800022854D893
:20DE800097FAA7F0B0FA80F040F02000400902D0286801E061E0686A97FAA7F1B1FA81F10B
:20DEA00001F01F0106FA01F10842E3D1206AB0F5803F05D16868A16820F40030084368606D
:20DEC000D4E908010843696821F47411084368609AFAAAF0B0FA80F049F82060FEF788FF2E
:20DEE000044606E021E000BFFEF782FF001B02281BD897FAA7F0B0FA80F040F020004009A9
:20DF000001D0286800E0686A97FAA7F1B1FA81F101F01F0106FA01F10842E5D01DE01EE0AB
:20DF2000FEF766FF001B022802D90320BDE8F88F97FAA7F0B0FA80F040F02000400901D06C
:20DF4000286800E0686A97FAA7F1B1FA81F101F01F0106FA01F10842E2D10020E6E701202B
:20DF6000E4E7000010B5040003D094F8510010B104E0012010BD204600F038F8022084F8A6
:20DF800051002068016821F040010160D4E901010843D4E903121143084361690843218B50
:20DFA00001F400710843E1690843216A0843A16A084321680860A069042101EA1040616ACA
:20DFC0000843216848602168E06A08612068C16921F40061C1610449002008706065012074
:20DFE00084F85100002010BD140300202DE9F04F054600683F49DFF80081032685B0884220
:20E000005CD1D8F8181041F48051C8F81810D8F81800DFF8E8B000F480500490A0200090EE
:20E020000220019069465C4603965846FEF7FCFD4FF000094020CDE900094F4669462046A6
:20E04000CDF80890FEF7F0FD2E4C2D484FF0800AC4E90007C4E9027A27616761A76120462E
:20E06000E761FEF709FD08B1FDF7ECFC6C6465622348254C14301027C4E90007C4E9029ADD
:20E08000C4F81090C4F81490C4F818902046C4F81C90FEF7F1FC08B1FDF7D4FC2C646562DC
:20E0A0000120CDE9007069465C4603965846FEF7BBFD012210212046FEF794FE13492868B7
:20E0C000884214D1D8F81C1041F48041C8F81C10D8F81C00694600F4804004904FF420402D
:20E0E00000900220019003960948FEF79DFD05B0BDE8F08F0030014000100240000801407F
:20E100001C000240B0300020E830002000380040000C01402DE9F84F00259A460446ADF853
:20E12000005090F8510001287ED1E9B3E2B394F85000012878D0012684F85060222084F8AF
:20E1400051006565A163A287E287A564E5642563A586E586A0684FF40049484504D1206820
:20E16000036823F480430360A06A4FF40057B84209D12068036823F40053036020680368CC
:20E1800043F40053036060684FF48278404501D1A06878B120680168490603D4016841F054
:20E1A00040010160E06800E001E0E8B131E00120BDE8F88F84F8505013460A462046CDF8CD
:20E1C00000A000F040F9F3E7534600220121204601F09CFF48BB2068C168A06B421CA263AB
:20E1E0000170E08F401EE087E08F0128ECD813E0534600220121204601F088FFA8B9206887
:20E20000C068A16B0880A06B801CA063E08F401EE087E08F0128EBD8A06AB84207D12068A5
:20E22000016841F4805101E068E007E00160534600220121204601F069FF08B10320B7E7E8
:20E24000E0680028206817D0C068A16B0880A06B801CA063E08F401EE087A06AB84217D159
:20E26000534600220121204601F050FF50B1606D40F002006065E1E7C168A06B421CA263F7
:20E280000170E7E72068C068ADF80000BDF80000606840450AD1A068484502D0B0F5806F12
:20E2A00004D12068016821F04001016084F85160A06AB8420DD120688068C043C00608D4C1
:20E2C000204601F021FF012807D021686FF01000886084F8505000206AE7606D40F002005B
:20E2E00060652068016821F4005101602068016841F40051016084F8505058E7022057E70E
:20E300002DE9F843044690F851009846012870D139B332B394F8500001286AD0012684F88E
:20E320005060122084F85100002565652163A286E286E564A564A563A587E587A06A7703B5
:20E34000B84209D12068016821F4005101602068016841F400510160A068B0F5004F03D08A
:20E3600007E00120BDE8F8832068016841F48041016020680168490603D4016841F040013B
:20E380000160E0680028606804D0D8B1E08E012818D021E010B1E08E012808D1206B411CEE
:20E3A000216321680078C860E08E401EE0860004000C1FD0434600220221204601F0A6FEB6
:20E3C000A8B9EBE7206B21680088C860206B801C2063E08E401EE0860004000C0AD04346F7
:20E3E00000220221204601F091FE0028EAD00320B8E726E0A06AB84204D12068016841F449
:20E4000080510160434600220221204601F07EFE30B9434601228021204601F077FE20B156
:20E42000606D40F010006065E1E7A06818B92068C1688068009084F8516084F850500020D7
:20E4400090E702208EE72DE9F8430025DDF820800446ADF8005090F85100012803D094F823
:20E46000510022287DD169B162B15BB194F85000012876D0012684F8506094F851000128D6
:20E4800003D005E00120BDE8F883322084F851006565A263A387E3872163A386E386A564E2
:20E4A000E564A06A4FF40057B84209D12068016821F4005101602068016841F4005101600B
:20E4C00020680168490603D4016841F040010160E0684FF48271B0F5006F606807D0002890
:20E4E00067D088426ED1E08E012862D06AE020B188420CD1E08E012809D1206B2168008844
:20E50000C860206B801C2063E08E401EE086E08E80B9A06AB84244D12068016841F4805140
:20E5200001603EE02068C068A16B0880A06B801CA0639EE0434600220221204601F0E6FDE8
:20E54000002874D1206B21680088C860206B801C2063E08E401E0004000CE08609D1A06ABA
:20E5600000E0C7E0B84204D12068016841F480510160434600220121204601F0C7FD0028DD
:20E580006FD12068C068A16B0880A06B801CA063E08F401EE087E08E0028CBD160680028F7
:20E5A0006AD1434600220121204601F0AFFDF0BBB8E7206B411C216321680078C860E08E03
:20E5C000401EE086E08E98B9A06AB84204D12068016841F480510160434600220121204654
:20E5E00001F094FD18BB2068C068A16B087040E0434600220221204601F088FDB8B9206BCC
:20E60000411C216321680078C860E08E401E0004000CE08607D1A06AB84204D1206801680C
:20E6200041F48051016000224346012100E018E0204601F06BFDA0B92068C168A06B421C9C
:20E64000A2630170E08F401EE087E08E0028CFD1606888B9434600220121204601F056FD5A
:20E6600008B103200FE72068C168A06B421CA2630170E08F401EE087A06AB84210D1434696
:20E6800000220121204601F041FD18B1606D40F002000FE02068C068ADF80000BDF80000E0
:20E6A000434601228021204601F030FD20B1606D40F010006065D4E784F85160A06AB842FA
:20E6C00014D120688168C943C9060FD4616D41F002016165016821F400510160206801683D
:20E6E00041F40051016084F85050CBE684F850500020C8E60220C6E6704710B5401EB0F133
:20E70000807F01D3012010BD4FF0E02460610F21601700F0AFFE0020A06107202061002007
:20E7200010BD10B5FFF7E8FF10BD7047704730B590F83820012A20D0012280F83820022337
:20E7400080F8393003685C6824F070045C6003685C680D682C435C6003689C6824F080048F
:20E760009C6003689C6849680C439C6080F83920002180F83810084630BD022030BD10B571
:20E78000040003D094F8390010B107E0012010BD002084F83800204600F00CF8022084F87B
:20E7A0003900211D206802F005FB012084F83900002010BD00B51E4A01681E4885B09142B1
:20E7C00022D1C16941F00201C161C069694600F0020004904FF47070009000200190029072
:20E7E0001548FEF721FA002211461D20FEF790FB1D20FEF782FB11484168114A21F0A06158
:20E800001143416005B000BDB1F1804FFAD1C16941F00101C161C069002200F00100049006
:20E8200011461C20FEF774FB1C20FEF766FBE9E70004004000100240001001400000014057
:20E84000000C00020168CA6842F00102CA600068016841F001010160002070470168CA68D9
:20E8600022F00102CA600068016A41F21112114207D1016A9210114203D1016821F0010155
:20E8800001600020704700002DE9F05F5B4E0446007EDFF86CB1A6F10C054FF0000A06F18E
:20E8A000080706F1100805F10409012820D1EA7812B399F803108A4217D12068406BF880F3
:20E8C000F288801A4F4A80B25143B1FBF0F1A8F80600CBF80C10311F204681F803A00021C0
:20E8E00000F092F82046FFF7B9FFE878401CE870207E022804D025E02068406BF080F4E757
:20E90000AA781AB399F802108A4218D12068806BB880B288801A3B4A80B25143B1FBF0F159
:20E92000A8F80400CBF8081034492046091F81F802A0042100F068F82046FFF78FFFA878B3
:20E94000401CA870207E042804D025E02068806BB080F4E76878E8B399F80110884218D152
:20E960002068C06B78807288801A264A80B25143B1FBF0F1A8F80200CBF804101F4920464E
:20E98000091F81F801A0082100F03EF82046FFF765FF6878401C6870207E082823D12978AF
:20E9A00039B399F8000081421AD12168096C39803288891A134A89B2A8F800105043B0FB92
:20E9C000F1F1CBF800100D492046091F81F800A00C2100E009E000F017F82046FFF73EFFF7
:20E9E0002878401C2870BDE8F09F2068C06B7080CFE72068006C3080F2E70000EC0200206B
:20EA0000A0300020001BB70010B50268044631B1042908D008291ED00C2908D11FE0D06870
:20EA200020F0020002E0D06820F00400D0600022206802F0F1F92068016A41F21112114244
:20EA400007D1016A9210114203D1016821F001010160002010BDD06820F00800E6E7D0688B
:20EA600020F01000E2E770B50446006801694FF00005C943890715D4C168C943890711D4F9
:20EA8000E91E016101202076206880698007204602D0FFF7F9FE04E000F098F8204600F07F
:20EAA00096F8257620680169C943490717D4C168C943490713D46FF004010161022020760A
:20EAC0002068806910F4407F204602D0FFF7DCFE04E000F07BF8204600F079F825762068C9
:20EAE0000169C943090716D4C168C943090712D46FF008010161042020762068C0698007BF
:20EB0000204602D0FFF7C0FE04E000F05FF8204600F05DF8257620680169C943C90617D4E0
:20EB2000C168C943C90613D46FF010010161082020762068C06910F4407F204602D0FFF7B8
:20EB4000A3FE04E000F042F8204600F040F8257620680169C943C90708D1C168C943C90731
:20EB600004D1891E0161204600F032F820680169C943090609D4C168C943090605D46FF0D1
:20EB8000800101612046FFF7D0FD20680169C943490609D4C168C943490605D46FF0400142
:20EBA0000161204600F032F820680169C94389060BD4C168C943890607D46FF02001016186
:20EBC0002046BDE87040FFF7B1BD70BD704770470B4A0168914209D10A4A00211160516079
:20EBE0009160D160084A11709170D1700068B0F1804F04D104480C380168491C01607047BB
:20EC000000040040A0300020E8020020704710B504460068416921F0C0014161206B08B126
:20EC2000FDF734FD606B08B1FDF730FD012084F83900002010BD704790F839007047000018
:20EC400038B5044600680168C26811F0010F02F4807204D01AB1E16B41F00101E1630168BE
:20EC6000C1F34002416901F0010122B119B1E26B42F00402E2630268C2F3800222B119B15C
:20EC8000E26B42F00202E2630268C2F3C00222B119B1E16B41F00801E1630168C068C1F31F
:20ECA000401100F0200019B110B1204602F032F920680168C068C1F3C01100F0800019B10D
:20ECC00010B1204602F032FA21680868CA68C0F3801002F04002012570B16AB1CA68204653
:20ECE00022F04002CA6094F83910322911D080F8395000BF00F0B4F9E06B002808D0206855
:20ED000001684068009084F839502046FFF793FF38BD222180F83910ECE770B5040004D096
