:020000040801F1
:20000000C079002049010108935C0108F1540108915C0108F5050108599101080000000002
:200020000000000000000000000000001D7201081F1D0108000000003F6801081D79010894
:2000400063010108176801086301010863010108630101086301010863010108630101081D
:20006000630101086301010863010108630101086301010863010108E91C0108F51C0108CA
:2000800063010108630101086301010863010108018E0108630101086301010863010108CD
:2000A0006301010863010108630101086301010863010108D9790108E579010863010108F0
:2000C0006301010863010108630101086301010863010108630101086301010863010108B8
:2000E000630101086301010863010108630101086301010863010108630101086301010898
:20010000630101086301010863010108630101086301010863010108F1790108FD7901085F
:2001200063010108630101086301010863010108DFF810D000F0FEF800480047ED9E01084B
:20014000AFF30080C07900200648804706480047FEE7FEE7FEE7FEE7FEE7FEE7FEE7FEE752
:20016000FEE7FEE78D7901083101010840EA01039B0703D009E008C9121F08C0042AFAD21B
:2001800003E011F8013B00F8013B521EF9D27047D2B201E000F8012B491EFBD2704700227B
:2001A000F6E710B513460A4604461946FFF7F0FF204610BD80EA010210B502F0004340008C
:2001C00022D04A001FD0010E01EB1261C0F35600C2F3560240F4000042F40002A0FB022047
:2001E00000047F39140400D0401C50EA124001D44000491EC2B20C0604EBD010401C4008FE
:20020000802A02D003E0002010BD20F00100002900DA0020184310BD30B480EA010202F0F3
:20022000004530F0004221F0004013D090B1C30DD40DC2F31601C0F31600E41A41F4000128
:2002400040F400027D34914201D3641C00E04900002C02DA30BC002070474FF40000002336
:20026000914201D3891A034340084FEA4101F7D151B1914202D14FF0004105E002D24FF043
:20028000010101E06FF0010103EBC450284430BC00F019B896230022114600F01DB820F0F8
:2002A0000040C10DC0F3160040F400007F2901DA00207047962903DCC1F19601C840704733
:2002C0009639884070470029A8BF7047401C490008BF20F00100704710B4B0FA80FC00FA71
:2002E0000CF050EA010404BF10BC704749B1CCF1200421FA04F411FA0CF118BF012121432A
:200300000843A3EB0C01CB1D4FEA00614FEA102042BF002010BC704700EBC35010440029ED
:20032000A4BF10BC7047401C490008BF20F0010010BC7047064C074D06E0E06840F00103CF
:2003400094E8070098471034AC42F6D3FFF7F4FEE4B2010804B3010870B58C1810F8015BCC
:2003600015F0070301D110F8013B2A1106D110F8012B03E010F8016B01F8016B5B1EF9D113
:200380002B0705D40023521E0DD401F8013BFAE710F8013BCB1A921C03E013F8015B01F8AE
:2003A000015B521EF9D5A142D8D3002070BD00000EB50D4802F09EF80B20009001200190BB
:2003C000052002906946084802F0F8F8064802F013FB3221044802F077FA034802F0A2F95D
:2003E0000249C8600EBD000034040020B000002070B5044600688168C943C9071BD1816826
:2004000021F00101816002F097FF05460EE002F093FF401B022809D9A06A40F01000A062F0
:20042000E06A40F00100E062012070BD20688068C043C007EBD0002070BD0000F8B500269C
:200440000446009600688168C943C90727D0816841F001018160134813490068B0FBF1F0F0
:2004600000E0401E00900028FBD102F065FF054610E002F061FF401B02280BD9A06A40F034
:200480001000A062E06A40F00100E06284F824600120F8BD20688068C043C007E9D10020A3
:2004A000F8BD00008400002040420F0008490120CA7B897B01EBC10303EB011102EB810178
:2004C00001F53F61B1F5005F01D100F0ADBA7047C4050020704700000848C17B807B00EB8F
:2004E000C00202EB001001EB800000F53F60B0F5005F02D1012000F0F1BE7047C405002006
:200500000848C17B807B00EBC00202EB001001EB800000F53F60B0F5005F02D1012000F0C2
:20052000E7BA7047C40500200848C17B807B00EBC00202EB001001EB800000F53F60B0F5A4
:20054000005F01D08720704700F014B9C405002070B5274E04464FF0000549B114E001222E
:200560000821304602F0E2FE642009F0D7F86D1CA542F4D334E001220821304602F0D6FEEB
:20058000642009F0CBF86D1CA542F4D300220821304602F0CBFE642009F0ACF8002508E03A
:2005A00001220821304602F0C1FE642009F0B6F86D1CA542F4D300220821304602F0B6FEFF
:2005C000642009F097F8002508E001220821304602F0ACFE642009F0A1F86D1CA542F4D357
:2005E0003046BDE870400022082102F09FBE000000080140FEE700002DE9FC5F55A0D0E949
:200600000010CDE9001000F0A9FF4EF6165000F067FC524E7069001F00F08EFCDFF84091B5
:20062000D9F8001021F00F01091DC9F80010DFF834B14FF4803ACBF800A00024DFF8288101
:200640006F4600F025FA032C7DD1C0077BD000F0DFFC00F083FF41F2162000F041FC4348E9
:20066000008808F033FF7069083800F065FC9DF80000002100F0EEFB9DF80100012100F027
:20068000E9FB10B17069083828E09DF80200002100F0E0FB9DF80300012100F0DBFB10B1D0
:2006A0007069801F1AE09DF80400002100F0D2FB9DF80500012100F0CDFB10B17069001F24
:2006C0000CE09DF80600002100F0C4FB9DF80700012100F0BFFB30B17069801EC8F804003F
:2006E0009A20BDE8FC9F2248008808F0EFFE00F035FF4EF6165000F0F3FB7069083800F074
:200700001BFCD9F8001021F00F01091DC9F80010CBF800A0002400F0BBF9395D0546A942D2
:200720000DD000F01BFF7169A4F108000144C8F80410395DC8E902159320D2E703E0641C15
:20074000E4B2082CE7D3641CE4B2042CFFF479AF0020C6E7FFFFFFFFFFFFFFFFC405002006
:20076000000C01401008014040060020B4000020B60000202DE9F05FDFF820B100254FF44E
:200780008039DBF814002E46C0F387272C4649E04FF4806842464249484606F0EDF8404B17
:2007A00000204246195C401C0E4480B2B6B20D449042F7D328460025B0F57F3F46D0E8B340
:2007C000012138480155781E844227D158464FF0FF0830F8662F0189924611443248BBF848
:2007E000722080F8018080F800804FEA122C80F802C0C2700A0A0271417180F8068093F8D1
:20080000FF13A0F10C03AAEB0102C171FF32DA80264A126812B101F0FE01C171641C09F584
:200820008069E4B2BC42B3D3BBF868005C46B0422FD1228B1E494FF4003000E006E006F0C3
:200840009BF8002108461A4B228B06E00021B8E71D5C401C294489B280B28242F8D8B4F8EF
:200860006C00884215D1628B12494FF4802006F083F8002108460F4B628B04E01D5C401C51
:20088000294489B280B28242F8D8B4F87000884202D08620BDE8F09F0020FBE7C40500206D
:2008A00008100020C80F00202C0400200C040020085000200852002070B500F0A9FB00F0EE
:2008C0004DFE41F2162000F00BFB1F48008808F0FDFD1E4C6069083800F02EFB1C4E002176
:2008E000307800F0B7FA7078012100F0B3FA194D10B16069083823E0B078002100F0AAFAF8
:20090000F078012100F0A6FA10B16069801F17E03079002100F09EFA7079012100F09AFABC
:2009200010B16069801E0BE0B079002100F092FAF079012100F08EFA002803D06069001FF8
:2009400068609A2070BD0000B4000020C40500202C0400204006002070B504462F488021EE
:20096000016000214160816001462D4802F0E8FB217881B3A078884207D8B0EB510F03D97D
:20098000081AC0F1270000E0401E264D0023902235F81000194605F053FFE0782178884239
:2009A00007D8B0EB510F03D9081AC0F1270000E0401E012335F81000C022032105F040FFAE
:2009C00020792178884208D8B0EB510F04D9081AC0F1270001E009E0401E012335F81000E0
:2009E000C0220821BDE8704005F02ABF002390221946562005F024FF0123C022032141206C
:200A000005F01EFF0123C0220821542005F018FF0023C02201214020E4E700000C07002090
:200A20000010014084B2010810B508F0B9FE00F035FD00F0B1FB00F0CDFB144C2070F8B99B
:200A4000FFF7DAFD2070D8B900F0AAFD207000F0B1FB2078A0B900F09FFB00F0BBFB207034
:200A600008F0C2FE207858B9002000F041F8207030B9FFF721FF207010B900F08BFA2070DF
:200A800000F098FB00F03EFB207810BD400600202DE9F047134E00242746C6F8A8410A20CF
:200AA00008F03CFEB846104FDFF840A000254FF001096006040EC6F8A891787808F02EFEFF
:200AC000C6F8A881787808F029FEDAF8000108B1641CE4B26D1CEDB2082DEAD32046BDE859
:200AE000F08700000000224220040020008021422DE9F14F84B04FF4803000900020ADF822
:200B00000400C649886CC0F3872AC0F3090B91F8460000EB0B02B2F5806F05D9CBF10002AA
:200B2000D5B2401BC6B201E005460026BB484069C0F387200290BA48008808F0C7FC049890
:200B4000DFF8E09200287DD100F008FD4EF6165000F0C6F9002000F0EFF9B348016821F01B
:200B60000F01091D0160B1494FF4803008608211494605F001FFAE49012000240870AD49C8
:200B8000087007E1E007009800F58060009046D04FF4806700233A46A24905F019FFA64848
:200BA00000780028FDD0A5480368DBB1A448005DC0B1A449DDF808C0384691F8008040F2E7
:200BC000FB7E4A46ACF1010C644501D1704504D8115C553981EA08011154401C80B2B0F54F
:200BE000006FF1D30298401E844210D1FF2189F8F81789F8F91789F8FA1789F8FB1789F83C
:200C0000FC1789F8FD1789F8FE1789F8FF17834A92F84600002801D0002B6FD095E04FF447
:200C2000806801234246884905F0D2FE804800780028FDD0814803688BB18148005D70B19E
:200C4000002000E0AAE07F494F46C4460A78395C553951403954401C80B26045F7D36F4A2A
:200C600092F8460010B30BBB54450DD100204F4608E002EB400191F85C3000EB0B01401C71
:200C80007B5480B2A842F4D386B10AF1010084420CD10020494607E02B1802EB430393F835
:200CA0005C300B54401C80B2B042F5D30027FFF7EFFEBDF80410804601EB0800ADF80400CB
:200CC00019F80710414512D000F048FC5F49932007EB842208704A60534A136823F00F03FE
:200CE0001B1D1360514B4FF480321A6044E07F1CBFB2B7F5806FDAD34AE0FFE754450FD13D
:200D000000204B460AE002EB400100EB0B0C9C4491F85C10401C8CF8001480B2A842F2D35E
:200D20009EB10AF1010084420FD1002049460AE02B1802EB430301EB000C93F85C30401C48
:200D40008CF8003480B2B042F2D3FFF7A1FEBDF80410804601EB0800ADF8040019F8071009
:200D6000414510D000F0FAFB3849932007EB84220870A2F580624A6019F80720C1E90228B5
:200D800005B0BDE8F08F7F1CBFB2B7F5006FDCD3641CE4B202988442FFF4F4AE04980128D4
:200DA00030D100F07BFB00F0F7F900F013FA00F0D5FB4EF6165000F093F8002000F0BCF846
:200DC0001949086820F00F00001D086017494FF48030086000254E4687110CE00024FFF78B
:200DE00057FE3055641CA4B2BC42F8D3384609F01BFB6D1CEDB202988542EFD300F0DAF9DF
:200E000000F080F91248BDF80410C088884201D08620B5E700F0A2FB0020B1E7C4050020F3
:200E2000B600002008100020000C014010080140A7030020A9030020A80300200C0400206D
:200E4000C80F0020660300200814002040060020200400202DE9F05F0024DFF878A01E4F47
:200E60001E4E8B460546A0464FF00109C7F8A881307808F053FC280601D5484600E04046EC
:200E8000CAF88001307808F049FCC7F8A891307808F044FC6806641C050EE4B2082CE5D3CF
:200EA000BBF1000F03D0BBF1010F0DD009E0C7F8A881307808F032FCC7F8A891307808F0D4
:200EC0002DFC0020BDE8F09FC7F8A881BDE8F05F00F0B2B8008021420000224220040020D4
:200EE0002DE9F0470024DFF84480114E114F0546A1464FF0010A280401D5504600E04846A5
:200F0000C8F88001C6F8A891387808F007FCC6F8A8A1387808F002FC641C6D00E4B2102C82
:200F2000E9D3BDE8F0470A2008F0F8BB0080214200002242200400202DE9F0470024DFF871
:200F40004890124E124F0546A0464FF0010A280401D5504600E04046C9F88001C6F8A88156
:200F6000387808F0DBFBC6F8A8A1387808F0D6FB641C6D00E4B2102CE9D3C6F8A881BDE86C
:200F8000F0470A2008F0CABB00802142000022422004002070B51848008808F097FA00F062
:200FA000DDFA4EF61650FFF79BFF144E70690838FFF7C2FF1249086820F00F00001D08607F
:200FC00010494FF48030086000240F4DFFF760FD295D81420AD07269A4F108010A440B494C
:200FE0004A602A5DC1E90220932070BD641CE4B2082CEBD3002070BDB6000020C405002000
:20100000000C0140100801402C0400204006002010B500F0A3FA41F22220FFF761FF002037
:20102000FFF78AFF4EF6EA10FFF75AFFBDE810404020FFF781BF00002DE9F8432C4C002030
:20104000C4F8A8012B4804F5D474007808F066FB4FF00108C4F80080274F386820F00F00ED
:20106000001D3860DFF894904FF48031C9F800100024234E01F06AF9054607E001F066F990
:20108000401B0A2814D8022008F048FBD6F800010028F3D0641CE4B2032CEBD3002401F0A8
:2010A00055F9054613E001F051F9401B0A280BD98DF80080396821F00F01491C3960C9F872
:2010C00000800120BDE8F883022008F027FBD6F800010028E7D1641CE4B2032CDFD33868CD
:2010E00020F00F00401C3860C9F800800020E9E70000224220040020000C0140100801405E
:201100000080214270B520490020C1F8A8011F49C1F880011E4D2868007828B9572005F07A
:20112000BBF90F2008F0E6FA28681A4C017869B14078884207D8B0EB510F03D9081AC0F160
:20114000270000E0401E34F8100000E0572006F02DFB2868017869B1C078884207D8B0EBDA
:20116000510F03D9081AC0F1270000E0401E34F8100000E0552006F019FBBDE870404FF4C8
:20118000FA7008F0B7BA000000002242008021421804002084B2010810B500F0DFF90448E1
:2011A00000F052F9BDE81040022008F0A3BA0000915C8A48054810B5008808F087F900F0C7
:2011C000CDF9BDE81040024800F03EB9B6000020995C8A482DE9FC413C4C0025A56000F091
:2011E000BDF94EF62050FFF77BFE0020FFF7A4FE3748016821F00F01091D016035494FF40D
:201200008030086000266F46FFF742FCB8550A2008F084FA761CF6B2052EF5D3BDF8001000
:201220009DF8022049BA090441EA02219DF80320BDF802001143A1609DF8001040BA5129BC
:201240003BD19DF801109B2937D12349097C012910D0022911D0032912D0042913D00529BD
:2012600014D0062917D0072918D0082919D009291BD01CE04FF6FF710AE042F2151107E049
:2012800051281AD113E040F2512101E040F25221884212D10BE066280FD108E067280CD173
:2012A00005E0B0F51A7F08D101E0522805D19DF80400012804D0092804D09820BDE8FC818C
:2012C000E57001E00120E0700020F7E720040020000C014010080140C40500202DE9F05F31
:2012E00005465148008808F0F1F8504EDFF840914FF480386DBB00F031F94EF61B50FFF779
:20130000EFFD0020FFF718FE306820F00F00001D3060C9F800800024DFF818A1DFF818B1BC
:2013200013E0FFF7B5FB07461AF80400B8420AD000F014F9414844601AF80410C0E90217CB
:201340009420BDE8F09F641CE4B2BBF81800A042E7D8012D25D100F0A1F8FFF71DFFFFF76E
:2013600039FF00F0FBF84EF61B50FFF7B9FD0020FFF7E2FD306820F00F00001D3060C9F8DD
:20138000008000242E4FFFF783FB3855641CE4B2802CF8D3802009F047F8FFF70BFFFFF7D0
:2013A000B1FE022D3ED100F0D9F84EF61B5A5046FFF796FD2020FFF7BFFD306820F00F00FE
:2013C000001D30604746C9F8008000241D4DFFF75FFB2855641CE4B2202CF8D300F0BEF864
:2013E0005046FFF77DFD2020FFF7A6FD306820F00F00001D3060C9F800702024FFF748FBFC
:201400002855641CE4B2402CF8D300202A18295C92F82020914201D0972092E7401CC0B2AF
:201420002028F3D300208CE7B6000020000C01401008014008500020C405002040060020C8
:2014400008100020807500202DE9F0470024DFF84080104E104F0546A1464FF0010A002DD1
:2014600001DA504600E04846C8F88001C6F8A891387808F053F9C6F8A8A1387808F04EF96B
:20148000641C6D00E4B2202CE9D3BDE8F087000000802142000022422004002070B5294D7F
:2014A000294C2868017869B14078884207D8B0EB510F03D9081AC0F1270000E0401E34F8F8
:2014C000100000E0572004F0E7FF012008F012F92868017869B14078884207D8B0EB510F28
:2014E00003D9081AC0F1270000E0401E34F8100000E0572004F0D9FF1448008807F0E6FFB9
:201500002868017869B1C078884207D8B0EB510F03D9081AC0F1270000E0401E34F810007C
:2015200000E0552004F0CAFF09490020C1F8A8010849C1F8800108488078BDE8704008F0A5
:20154000D9B800001804002084B20108B600002000002242008021422004002070B50C4DA0
:201560000020C5F8A8010B4E05F5D475B08808F0D5F801242C60B08808F0D0F806480168EC
:2015800021F00F01491C01600448046070BD00000000224220040020000C01401008014039
:2015A0002DE9F84F97494FF4803A886CC0F38729C0F3090B91F8460000EB0B02B2F5806F76
:2015C00005D9CBF10002D5B2401BC6B201E0054600268C484069C0F387200090FFF718FD51
:2015E000FFF7BCFF41F21620FFF77AFC8648008807F06CFF0020FFF79FFC4FF4806283490B
:20160000504605F0B9F9824901200024087081490870F0E0E0070AF58060824648D000232A
:201620004FF48062794905F0D3F97B4800780028FDD07A48D0F800C0BCF1000F19D0784823
:20164000005DB0B17749009B704A0F784FF4806040F2FB784FF4006E5B1E9C4201D1404509
:2016600003D8115C553979401154401C80B27045F3D30098401E844211D16448FF2180F88B
:20168000F81780F8F91780F8FA1780F8FB1780F8FC1780F8FD1780F8FE1780F8FF17594BCA
:2016A00093F84600002802D0BCF1000F5ED083E04FF48068012342465B4905F089F9544884
:2016C00000780028FDD0554803687BB15448005D60B154494D4F00200A78C446395C553957
:2016E00051403954401C80B26045F7D3454991F8460010B30BBB4C450DD10020434A08E0E5
:2017000001EB400300EB0B0793F85C30401CD35580B2A842F4D386B109F1010084420CD14A
:2017200000203A4A07E02B1801EB430393F85C301354401C80B2B042F5D30027334901EB54
:201740000708C85D0021FFF785FB98F801000121FFF780FB20B1354807EB8421416040E0F4
:20176000BF1CBFB2B7F5806FE8D342E04C450FD10020264F0AE003EB400191F85C2000EB96
:201780000B013944401C81F8002480B2A842F2D396B109F1010084420ED100201B4909E092
:2017A0002A1803EB42020F1892F85C20401C87F8002480B2B042F3D34FF48067134901EB2D
:2017C0000708C85D0021FFF745FB98F801000121FFF740FB40B1154907EB8420A0F5806040
:2017E00048609A20BDE8F88FBF1CBFB2B7F5006FE4D3641CE4B200988442FFF40BAF0020FC
:20180000F0E70000C4050020B400002008100020A7030020A9030020A80300200C0400206B
:20182000C80F002066030020081400204006002000207047002070470020704770B50024B8
:20184000064E07E0155D4540EDB2641C56F8255085EA10209C42F5D3484070BD10AE0108B3
:20186000F0B5254890F80EE0B0F85CC0B0F85E70B0F86020B0F8626030F8543FBEF10A0F91
:2018800045888188C48818D00CF0FF00FFB200EB0720D2B200EB0240DAB2EBB202EB032294
:2018A000C9B202EB014100EB066001EB0461421C01D088421ED98920F0BD3F04002017EB31
:2018C0000C0740EB000CC71942EB0C02C71942EB06464FEA0542D21840EB0005831869416B
:2018E000C01841EB04426FEA07013143E3D0C01BB241E0D30020F0BDC405002010B50F48C3
:20190000C07B0E49897B01EBC10202EB011100EB810403F0FBFE03F049FF204605F0B8FFDA
:20192000204605F0A9FF204605F049FF00224FF40071034801F0FAFC10BD0000C405002043
:20194000000801402DE9F84FDB4941F28830088007F092FDD9480A210127C0E9001705216A
:2019600081600146D64800F029FED64E00228021304601F0DBFC0A2007F0BCFE4024002383
:20198000F0221946204604F05BFF641CE4B26F2CF5D94FF4004003F0E7FD4FF4014003F0D2
:2019A000E3FDC94C022548F20700E560C4E900072146304601F0C4FB01220721304601F092
:2019C000B5FC1F20E560C4E90007C04E2146304601F0B6FB01221021304601F0A7FC4EF6EF
:2019E000C040E560C4E900072146B94801F0A8FB0024DFF8E0824FF4487BDFF8DCA2B74E35
:201A0000A14601E00C2C21D2651C282D01D9601C00E02046012336F81000C022214604F0C2
:201A20000FFFA01CE9B2282800D900E0601C012336F81000C02204F003FF58F82420C2F834
:201A4000009008EB84004068076023E0A4F10B05E9B2282D01DD284601E0A4F10C000123E6
:201A600036F81000C02204F0EBFEA4F10C00C1B2801C282800DD0546012336F81500C022F8
:201A800004F0DEFE08EB840050F8301D0F604068C0F800900A2007F02DFE894800F0ACFF53
:201AA0003221874800F010FF854800F03BFE85B2DAF80000FEF7EEFB00902846FEF7EAFB50
:201AC0008749FEF777FB8749FEF774FB0099FEF7A3FBFEF7E4FB80B26438584502D95020E5
:201AE000BDE8F88F0C2C15D2651C282D01D9601C00E02046002336F81000F022214604F05B
:201B00009FFEA01CE9B2282800D900E0601C36F8100014E0A4F10C00451CC1B2282D00DD73
:201B20002846002336F81000F02204F089FEA4F10A00E9B2282800DD054636F81500002331
:201B4000F02204F07DFEA41CE4B2182CFFF45AAF4FF4004003F008FD48F20F1003F004FDA6
:201B6000D3460024B246012606EB4408B8F1280F4FEA440000D9401C01233AF81000C022F2
:201B8000214604F05DFE022000EB440504F10807F9B2282D4FEA440001D9801C00E0401C06
:201BA00001233AF81000C02204F04AFE49484FF0000950F82420C2F8009000EB8400006A19
:201BC00006600A2007F096FD3D4800F015FF32213B4800F079FE3A4800F0A4FD86B2DBF807
:201BE0000000FEF757FB00903046FEF753FB3C49FEF7E0FA3B49FEF7DDFA0099FEF70CFB1C
:201C0000FEF74DFB80B26438B0F5487F01D9512066E73049303151F82410C1F800900A20EB
:201C200007F068FD264800F0E7FE3221244800F04BFE234800F076FD86B2DBF80000FEF73F
:201C400029FB81463046FEF725FB2549FEF7B2FA2449FEF7AFFA4946FEF7DEFAFEF71FFB89
:201C600080B240F21F316538884201D2522037E7B8F1280F4FEA440000D9401C56463AF886
:201C800010000023F022214604F0DAFDF9B2282D4FEA440001D9801C00E0401C002336F84D
:201CA0001000F02204F0CCFD641CE4B2042CFFF45AAF002014E70000B80000204874002034
:201CC00034040020000801400C070020000C014000100140AC030020BC00002084B20108A8
:201CE0003333C34000401C45014800F073BF000060060020014800F06DBF000098060020C6
:201D000010B5046863604368102B036803D099600068C26010BD9A600068C16010BD704754
:201D200030B53AA20C00A1B02ECA8DE82E003BA20DF1100C2ECA8CE82E003CA10DF1200C52
:201D40002EC98CE82E003DA10DF1300C2EC98CE82E003EA10DF1400C2EC98CE82E003FA197
:201D60000DF1500C2EC98CE82E0040A10DF1600C2EC98CE82E0041A10DF1700C2EC98CE8C5
:201D80002E0009D02109092933D2DFE801F0321C1E20222426322800072810D2DFE800F009
:201DA0000F0406080A0C0E00684608E004A806E00CA804E008A802E010A800E014A807F041
:201DC000AFFB32481EE0684613E004A811E00CA80FE008A80DE010A80BE014A809E004F027
:201DE0000F01022902D0082903D101E01CA800E018A807F095FB264A0221204608F000FB19
:201E00002348083807F0C5FB21B030BD20202056505020434845434B202020202020205698
:201E2000444420434845434B2020202020202053484F525420544553542020202020204FBD
:201E400050454E2020544553542020202020434F4E4E45435420544553542020202020462F
:201E60004C41534820544553542020202020205245414420434F554E542020202020455818
:201E800054454E4420424F4152442020C6010020EE02002070B505460C4607F097FB07F016
:201EA000E5FB00224FF48051184801F03FFA25B1012D06D0022D0CD107E0202014490870A0
:201EC00007E0D8201249087003E0C7201049087000BF00BF4FF47A7301220D490D4802F047
:201EE000A6FC022D0BD0200C09490870200A48708C704FF47A730322064802F098FC012216
:201F00001103024801F012FA70BD0000000C01406703002078040020FEE7000010B503F029
:201F200055FD00B2104908801048C07B0F49897B01EBC10202EB011100EB810440F2B44089
:201F4000844208D10848008880B24CF20101884208D0822010BD0448B0F90000401C08B17D
:201F60008220F7E70020F5E7AC000020C405002010B54FF0FF30064B064A0146FFF75EFCC5
:201F800005490968814201D0802010BD002010BD00FF02000000010800FF03083EB5174B2B
:201FA000044600250A21186803E0B0FBF1F06D1CEDB20028F9D16A462946186808F0E4F90A
:201FC0009DF8000020702E2060709DF80110A170E0709DF8020020719DF8030060712020E6
:201FE000A071002268462D1F05E08118A3180979521CD971D2B2AA42F7DB3EBDF8FF030802
:2020000010B57F2005F0A0FB0A2007F073FB3F2005F09AFB0A2007F06DFBBDE810407F2037
:2020200005F092BB2DE9F05FDFF8488200264FF4803A4FF4403B4FF4807900210846FFF7D6
:2020400029FF51460020FFF725FF4FF400310020FFF720FF59460020FFF71CFF4FF480212A
:202060000020FFF717FF4FF4A0210020FFF712FF0EB1552500E0AA25002041460D54401CBD
:2020800080B2FF28FAD900273C464A467949384607F0C6FA641CA4B207F58037062CF4D362
:2020A00000273C464A467349384604F065FC0020414607F580370A5CAA4202D06020BDE8B5
:2020C000F09F401C80B2FF28F5D9641CA4B2062CE8D3761CB6B2022EAFD300210846FFF71A
:2020E000D9FE51460020FFF7D5FE4FF400310020FFF7D0FE59460020FFF7CCFE4FF48021CE
:202100000020FFF7C7FE4FF4A0210020FFF7C2FE00264FF4502B4FF4402A54465146002028
:20212000FFF7B8FE59460020FFF7B4FE4FF460210020FFF7AFFE4FF470210020FFF7AAFE73
:202140000EB1552500E0AA25002041460D54401C80B2FF28FAD9A246274600244A46454970
:20216000384607F05DFA641CA4B207F58037042CF4D3574600244A463E49384604F0FCFBD2
:202180000020414607F580370A5CAA4201D0612095E7401C80B2FF28F6D9641CA4B2042C3B
:2021A000E9D3761CB6B2022EB7D351460120FFF771FE59460120FFF76DFE4FF4602101208C
:2021C000FFF768FE4FF470210120FFF763FEDFF8A8B000264FF4801A544651460020FFF7DE
:2021E00059FE59460020FFF755FE4FF481110020FFF750FE21490020FFF74CFE0EB1552544
:2022000000E0AA25002041460D54401C80B2FF28FAD9A246274600244A461649384607F0A2
:20222000FFF9641CA4B207F58057042CF4D3574600244A460F49384604F09EFB00204146AB
:2022400007F580570A5CAA4201D0622037E7401C80B2FF28F6D9641CA4B2042CE9D3761C10
:20226000B6B2022EB8D351460120FFF713FE002025E70000081000200010100000301000B8
:202280002DE9F04107460C464FF00008B4F5803F3AD918E0B4F5806F01D2A5B201E04FF4B8
:2022A00080652A462849384604F066FB002606E02548805D40441FFA80F8701C86B2AE4266
:2022C000F6DB2F44641BB4F5803FE3D819E0B4F5806F01D2A5B201E04FF480652A461A4981
:2022E0004FF4403004F048FB002606E01648805D40441FFA80F8701C86B2AE42F6DB2F44A0
:20230000641B002CE3D11BE018E0B4F5806F01D2A5B201E04FF480652A460B49384604F06A
:202320002BFB002606E00848805D40441FFA80F8701C86B2AE42F6DB2F44641B002CE4D1D1
:202340004046BDE8F08100000810002001488069704700008800002070B50446E520207014
:20236000422060707A20A07004F07CFD04F072FB04F0CCFC002505E05648415DE81C215438
:20238000681CC5B2102DF7DB53480088000AE07451480078207551480068000E60754F4891
:2023A0000068000CA0754D480088000AE0754B4800782076002508E04948284490F8E817E6
:2023C00005F119002154681CC5B20C2DF4DB002506E04448415D05F125002154681CC5B2B6
:2023E0000E2DF6DB3F48807B04F8330F3D48C07B60703C48B0F84400000AA070394890F8EE
:202400004400E0703748B0F86600000A2071354890F8660060713348B0F86A00000AA0711C
:20242000304890F86A00E0712E48B0F86E00000A20722C4890F86E0060722A48007CA0727D
:20244000333C10222749243104F14000FDF78EFE244890F8460084F85000224890F8640005
:2024600084F851001F48806CC4F85200002516E01C484C3030F81510680056302152194824
:20248000543030F8151068005E30215215485C3030F81510680066302152681CC5B2042D2F
:2024A000E6DB1148006844F86E0F0E48808BA0800C48C08BE0800B48008C20810948408CC4
:2024C00060810A480088A08109480088E0816E3C70BD0000E0FF0308FCFF0008F8FF030820
:2024E00000F0FF1FC405002050060020F0FF0308F4FF0308F8B500260446009690F8240018
:20250000012808D0012084F824002046FDF770FF070002D04BE00220F8BDA06A20F488505F
:2025200040F00200A062022001F038FA22490968B1FBF0F0400000E0401E00900028FBD1B8
:202540002046FDF77BFF2068816841F00801816000F0F2FE054604E000F0EEFE401B0A28A3
:2025600011D8206880680007F6D42068816841F00401816000F0E0FE05460EE000F0DCFED8
:20258000401B0A2809D9A06A20F0020040F01000A06284F824600120F8BD206880684007E1
:2025A000ECD4A06A20F0020040F00100A06284F824603846F8BD000084000020F8B5002365
:2025C000009390F824209E46012A1ED0012280F824204A681F254FF47874072A17D2066813
:2025E000776B94FAA4FCBCFA8CFC521E02FB0CFC05FA0CF5AF4394FAA4F4B4FA84F40D6865
:20260000624395402F4377632DE00220F8BD06680D2A14D2376B94FAA4FCBCFA8CFCD21F86
:2026200002FB0CFC05FA0CF5AF4394FAA4F4B4FA84F40D68624395402F43376313E0F76A08
:2026400094FAA4FCBCFA8CFC0D3A02FB0CFC05FA0CF5AF4394FAA4F4B4FA84F40D6862436A
:2026600095402F43F7620A683825072604680A2A14D3E76895FAA5FCBCFA8CFC0A3A02FB39
:202680000CFC06FA0CF6B74395FAA5F5B5FA85F58E686A4396403743E76012E0276995FA99
:2026A000A5FCBCFA8CFC02FB0CFC06FA0CF6B74395FAA5F5B5FA85F58E686A4396403743F5
:2026C00027610A68102A01D0112A20D1124C0268A24217D19468240219D4946844F40004EE
:2026E00094600968102912D10C490D4A0968B1FBF2F101EB8101490000E0491E00910029F5
:20270000FBD104E0816A41F020018162012380F824E01846F8BD000000240140840000202D
:2027200040420F000068C06C704700002DE9F04104004FF0000513D0A06A002628B9E662F2
:2027400084F82460204600F09FF82046FDF750FEA16AC90600D420B1A06A40F01000A06219
:2027600089E0A16A21F4885141F00201A16243492368E2698B4204D1B2F5402F01D14FF491
:202780000022022191FAA1F1D4F80CC0B1FA81F10CFA01F10A4361684FF480770A43A16884
:2027A000B94208D0012906D00021D4F814E0BEF1010F02D010E03946F7E7BCF1000F21D0DA
:2027C000D4F828C04CF0200CC4F828C0D4F82CC04CF0010CC4F82CC0D3F804C02CF4694C2C
:2027E0004CEA010CC3F804C021688B68DFF890C003EA0C0313438B60A168B94213D0012926
:2028000011D019E04FF4604ED4F818C09EFAAEFEBEFA8EFEACF1010C0CFA0EFC4CEA010CC4
:202820004CF40061D8E74FF47001256991FAA1F1B1FA81F16D1E8D402168CB6A23F470031C
:202840002B43CB62216889680E4B1940914208D1E662A16A21F0020141F00101A162BDE8C3
:20286000F081A06A20F0020040F01000A062E06A40F00100E0620120F1E70000003C014056
:20288000FDF7E1FFFE0E1FFF00B500680B4985B0884210D10A48816941F40071816180693C
:2028A000694600F4007004900F20009003200190044800F045FC05B000BD000000240140AA
:2028C00000100240001001402DE9F8434FF000080D460446CDF8008000F02EFD06462068EC
:2028E0008168C90508D5A06A40F02000A06284F824800120BDE8F8834168C90503D4C06A0F
:2029000010F4700F25D0022001F048F837490968B1FBF0F720680169354A11424FEA620207
:202920004FEAA2131AD1C1684FEA621C11EA0C0F14D10169114220D1C06818421DD1142091
:202940001EE0681C05D035B300F0F6FC801BA84221D8206800688007F3D529E001691142D3
:2029600002D1C168194206D0026922490A4206D1C068084203D1542002E0292000E0FC2050
:202980004743009812E0681C0DD025B100F0D4FC801BA84207D9A06A40F00400A06284F80B
:2029A00024800320A6E70098401C0090B842EAD321686FF012000860A06A40F40070A06276
:2029C00020688068C0F3424007280CD1E06850B9A06A20F48070A062A06AC00403D4A06A36
:2029E00040F00100A062002084E7000084000020244992244992240070B5044690F8240038
:202A000001280DD0012084F824002046FDF716FD01004FF0000205D084F82420084670BD30
:202A2000022070BDA06A40F20123984340F48070A0621F4D20681F4BA84218D11E6816F425
:202A4000702F14D0A66A46F48016A6621E68760505D5A66A26F4005646F48056A662A66A88
:202A6000F6040AD5E66A26F00606E66206E0A66A26F48016A6624668E9E7E26284F8242093
:202A80006FF00202026020688268C2F34242072A05D1A84208D11A6812F4702F04D0826817
:202AA00042F480128260B9E7826842F4A002F9E7002801400424014070B54379012B1AD061
:202AC0000124447102230371D1E900310B4301680D6840F6FE769640B54393401D430D6054
:202AE00001680B68C0259540AB430B60047100214171084670BD022070BD70B5040003D0D9
:202B00002079002510B105E0012070BD6571204600F008F8022020712561012020710020CC
:202B200070BD000000B500680B4985B0884210D10A48C16941F00051C161C069694600F02F
:202B4000005004903020009003200190044800F0F7FA05B000BD0000007400400010024058
:202B60000008014018B5046800940068104421B1143000900360002018BD0830F9E730B588
:202B80004279012A12D001234371022202710268146803FA01F52C431460002901680A683E
:202BA00006D0C2F383420F2A0AD00DE0022030BDC2F383020F2A07D14A6842F0010202E0A2
:202BC0004A6842F002024A60037100214171084630BD00002DE9F05F0446F84AF74DF74E67
:202BE000F64F0068DFF8D493DFF8D0A3DFF8CCB3D114783D643E503F4FF4000E4FF4004C9F
:202C00004FF40028A9F13C09AAF1280AABF1140B904221D9EA4A1368A8420FD0B0420FD0CD
:202C2000B84213D0484513D0504513D0584501D1724624E0E24A083290423CD108221EE037
:202C400080221CE0DE4A3032904239D10A4616E0624614E0424612E0D84A803A1368A842D3
:202C6000ECD0B042ECD0B842F0D04845F0D05045F0D05845DCD0D14A9042DBD10205134250
:202C800079D00268D243120775D4026822F008020260CA4A2068904232D9A84219D0B042E4
:202CA0001DD0B84228D0484523D0504523D058450BD1714620E0C24A1C329042C2D1BFE798
:202CC000BF4A44329042C5D1C2E7BD4A0832904201D1082110E0BA4A1C32904201D18021CF
:202CE0000AE0B74A3032904206D0B5494431884201D1614600E04146B148001D01602CE03F
:202D0000A84214D0B04218D0B84223D048451ED050451ED0584501D171461BE0904202D15A
:202D20004FF0006116E0A64A0832904201D1082110E0A34A1C32904201D180210AE0A04AC2
:202D40003032904206D09E494431884201D1614600E04146994880384160606B40F001002D
:202D60006063042084F82100002084F82000216B09B120468847914A206811154FF4800E3E
:202D80004FF4804C4FF48028904221D98C4A1368A8420FD0B0420FD0B84213D0484513D035
:202DA000504513D0584501D1724624E0844A083290423FD104221EE040221CE0804A3032D8
:202DC00090423CD10A4616E0624614E0424612E07A4A803A1368A842ECD0B042ECD0B84271
:202DE000F0D04845F0D05045F0D05845DCD0734A9042DBD1C204134275D00268D2435207B5
:202E000071D40268920603D4026822F0040202606A4B2068984232D9A84219D0B0421DD0DC
:202E2000B84228D0484523D0504523D058450BD1714620E0624A1C329042BFD1BCE7604ABF
:202E400044329042C2D1BFE75D4A0832904201D1042110E05A4A1C32904201D140210AE076
:202E6000574A3032904206D055494431884201D1614600E041465248001D01602CE0A842DC
:202E800014D0B04218D0B84223D048451ED050451ED0584501D171461BE0984202D14FF07C
:202EA000806116E0464A0832904201D1042110E0434A1C32904201D140210AE0404A303202
:202EC000904206D03E494431884201D1614600E041463A4880384160112084F82100E16AB0
:202EE00009B120468847DFF8D4C04FF4007120680B014FF4003E604523D9314AD2F8008049
:202F0000A84210D0B04210D0B84214D0484514D0504514D0584502D14FF4001224E0284A12
:202F20000832904240D102221EE020221CE0244A303290423DD10A4616E01A4614E0724612
:202F400012E01E4A803AD2F80080A842EBD0B042EBD0B842EFD04845EFD05045EFD05845CB
:202F6000DAD06045DBD1120218EA020F7DD00268D24392077DD40268920603D4026822F024
:202F8000020202602068604536D9A8421DD0B04221D0B8422CD0484527D0504527D0584532
:202FA00010D14FF4001123E0054A1C329042BED1BBE7034A44329042C1D1BEE780000240AB
:202FC000000402402C4A904201D1022110E02A4A1432904201D120210AE0274A2832904258
:202FE00006D025493C31884201D1194600E071462148001F01602BE0A84214D0B04218D0F2
:20300000B84223D048451ED050451ED0584502D14FF400111AE0604502D14FF0007115E0EA
:20302000154A904201D1022110E0134A1432904201D120210AE0104A2832904206D00E4955
:203040003C31884201D1194600E071460B484160606B6063012084F82100002084F8200075
:20306000A16A002905D0204600E002E0BDE8F05F0847BDE8F09F0000080402400000024018
:2030800070B520B190F82110002411B103E0012070BD80F82040022180F8211001680A68EB
:2030A00043F6F0739A43D0E901352B43D0E9035635432B4345692B4385692B43C5692B432E
:2030C00013430B604463012180F82110002070BD70B5044690F82000012823D0012084F8A0
:2030E0002000022084F821002068056825F0010505602046FEF704FE2068016841F00201FA
:2031000001602068016841F0040101602068016841F0080101602068016841F001010160B5
:20312000002070BD022070BD31B500F005F9044600F002F90099001B8842F9D338BD0000AB
:203140002DE9F84FDFF8BC91002309F1040A0AF1040B1C464FF00F080BF1040E01270A6859
:20316000A7403A40BA4272D1DFF89CC14D68A5EB0C0665452BD00DDC032D34D005DC35B399
:20318000012D19D0022D2FD11BE0112D16D0122D2AD119E0B6F5881F19D006DCB6F5803F10
:2031A00015D0B6F5801F1FD111E0B6F5001F0ED0B6F5041F18D10AE0CB6815E0CB681B1D23
:2031C00012E0CB6808330FE0CB680C330CE08B682BB1012B4FF0080303D0476104E0042377
:2031E00002E0076100E00023FF2A01D8064601E000F104064FEA840501D9A5F12005376862
:2032000008FA05FC27EA0C0703FA05F547EA050737604D68ED006ED53C4DAE6946F00106FA
:20322000AE61AD6924F0030605F001050095384D7719BE68A5072D0F08FA05FC26EA0C0674
:20324000DFF8D0C0604503D14FF0000C25E052E0DFF8C4C0604502D14FF0010C1DE0DFF819
:20326000BCC0604502D14FF0020C16E0DFF8B0C0604502D14FF0030C0FE0DFF8A8C0604537
:2032800002D14FF0040C08E0DFF89CC0604502D14FF0050C01E04FF0060C0CFA05FC4CEABA
:2032A000060CC7F808C04D68D9F80060ED034D4601D5164300E096432E604D68DAF80060AF
:2032C000AD03554601D5164300E096432E604D68DBF80060ED025D4601D5164300E09643CB
:2032E0002E604D68DEF80060AD02754601D5164300E096432E60641C102CFFF42FAFBDE843
:20330000F88F00000004014000001110001002400000014000080140000C01400010014046
:203320000014014000180140001C01400AB1016170470904FBE70000014800687047000057
:203340001004002002480168491C01607047000010040020074810B5016841F010010160B5
:20336000032000F08FF8002000F006F800F016F8002010BD0020024010B5044600F0E4FC79
:203380004FF47A71B0FBF1F001F0D9FC00222146501E00F057F8002010BD0000214808B564
:2033A000816941F001018161806900F001000090032000F067F8002211466FF00B0000F05F
:2033C00041F8002211466FF00A0000F03BF8002211466FF0090000F035F800221146501FC9
:2033E00000F030F800221146101F00F02BF800221146901E00F026F800221146501E00F0EE
:2034000021F800221146012000F01CF8012000F00DF80548416821F0E06141F00071416054
:2034200008BD0000001002400000014000F01F02012191404009800000F1E020C0F80011AD
:2034400070470000F0B40E4B1B68C3F30223C3F10704042C00D904241D1D072D01D2002306
:2034600000E0DB1E012606FA04F56D1E0D409D409E40761E164045EA0601F0BC02F00ABC3C
:203480000CED00E0064A00F0070110684FF6FF03184040EA012003490843106070470000EB
:2034A0000CED00E00000FA05BFF34F8F05480168054A01F4E06111430160BFF34F8F00BF65
:2034C000FDE700000CED00E00400FA0510B50C0605D501F07F0100EB4110283003E000EBA8
:2034E000411000F5027099B232B101228272C180190C0181002010BD002282728180F9E703
:20350000704700EB4112D0F81C04D26B04F06DBE00EB4112D0F81C04D2F81C2204F0BABED8
:2035200010B504460A460B0601F07F0004EB401101D5283101E001F502710870D0094870E9
:2035400094F8E803012809D0012084F8E803206805F083FA002084F8E80310BD022010BD2D
:2035600070B50A460446090602F07F0003D504EB4011283103E004EB421101F502710025E8
:203580008D700870D009487094F8E803012809D0012084F8E803206805F0FDFA84F8E853F9
:2035A000002070BD022070BD70B504460D460E0601F07F0004EB401101D5283101E001F5E3
:2035C00002710870E80948700A61CB7094F8E803012809D0012084F8E803206805F012F928
:2035E000002084F8E80370BD022070BD70B504460E4601F07F0004EB401101F507710025C2
:203600002CC101F81F5C01F8200D94F8E80301280AD0012084F8E8037006206805F015FB1E
:2036200084F8E853002070BD022070BD70B50D460446090605F07F0003D504EB4011283181
:2036400003E004EB451101F5027101228A700870E809487094F8E803012807D084F8E8239D
:20366000206805F0CDFA680602D006E0022070BD04F57B71206805F08CFA002084F8E80322
:2036800070BD70B504460E4601F07F0004EB40113C3100252CC1012201F81F2C01F8200D7E
:2036A00094F8E803012809D084F8E8237006206805F0CBFA84F8E853002070BD022070BDFF
:2036C00010B50446006805F0A1FB000402D5204602F0FDFE206805F099FB40050CD52068F5
:2036E00030F8441F21F480610180204600F0EAF80021204600F0FBF8206805F087FB4004E3
:2037000005D5206830F8441F21F480410180206805F07CFB800405D5206830F8441F21F4EB
:2037200000510180206805F071FBC00413D5206830F8401F21F00401018021684FF43D4033
:20374000A1F84000204600F0CAF8206830F8441F21F480510180206805F058FB00051AD53A
:20376000206830F8441F21F400610180206830F8401F41F008010180206830F8401F41F035
:2037800004010180206805F041FBC043C00402D5204600F0E1F8206805F038FB800508D50B
:2037A000206830F8441F21F400710180204600F09AF8206805F02AFBC00505D5206830F816
:2037C000441F21F48071018010BD2DE9F04186B004004FF0000504D094F8E903002620B12A
:2037E00008E0012006B0BDE8F08184F8E863204600F04AF8032084F8E903206805F0C2F9D2
:2038000004F11001142288466846FCF7AFFC94E80F0005F020F90021206805F008FB0127F0
:2038200004EB451080F8297000F8285F8581C670066146616D1C86610F2DF1D3002104EBEA
:20384000411080F8096280F80812818680F80B62C0F81862C0F81C62491CC0F820620F2977
:20386000EDD3142241466846FCF780FC94E80F0005F07FF984F8246084F8E973206805F061
:2038800076F90020AEE7000008B500680B49884212D10B48C16941F40001C161C0690022BE
:2038A00000F40000009011461420FFF7CBFDBDE808401420FFF7BABD08BD0000005C00404C
:2038C0000010024010B504460121D0F81C0404F0B3FDD4F81C04BDE8104004F07CBDD0F803
:2038E0001C0404F097BDD0F81C0404F099BD10B5044690F8E80301280BD0012084F8E80320
:2039000084F82410206805F094FA002084F8E80310BD022010BDD0F81C2400F57B7110466A
:2039200004F09DBD10B5044690F8E803012810D0012084F8E80301462046FFF7E1FD20681D
:2039400005F013F9206805F053FA002084F8E80310BD022010BD000010B50446D0F81C0462
:2039600004F0CAFDA069002804D00348016841F00601016010BD000010ED00E070470000D9
:2039800010B5054C2068C00304D5FFF7F7FF4FF48030206010BD00001404014010B501465C
:2039A00036A086B01DC88DE81D0038A0384C006804900020042944D012DC012944D0022974
:2039C0003DD100F0DFF961684FF4804292FAA2F201F44041B2FA82F2D140491C49002CE0C2
:2039E00008292ED010292AD161682268D20126D54FF4701292FAA2F201F47010B2FA82F2C9
:203A0000D040C9031DF8000010D561684FF4003292FAA2F201F40031B2FA82F2D14004AA6D
:203A2000515C1C4AB2FBF1F1484301E01A4948436168490203D440000321B0FBF1F006B0F9
:203A400010BD00F0B7F9FAE7216AC1F30122012A03D1890701D5D003F1E7022A05D1616AD9
:203A6000890702D549F64040E9E7032AE7D121688903E4D54FF22440E1E700000203040522
:203A8000060708090A0B0C0D0E0F1010010200000010024000127A0000093D002DE9F84325
:203AA00004460078454EC00773D0F06940F08050F061F069424F00F080500090386840F4EF
:203AC00080703860FFF738FC054604E0FFF734FC401B642832D83868C005F7D5306A10F41F
:203AE000407050D0A18801F4407181424BD0306A01273B0493FAA3F1B1FA81F18A00314906
:203B000020F440700A44C2F8007493FAA3F3B3FA83F301EB83010022C1F800243062C00757
:203B200031D0FFF709FC054641F288394FF0020807E0FFF701FC411B494502D90320BDE89A
:203B4000F88398FAA8F0B0FA80F040F040004146B7EB501F01D130680BE091FAA1F0B0FA83
:203B600080F040F04000B1EB501F01D1306A00E0706A98FAA8F1B1FA81F101F01F0207FAD9
:203B800002F10842D5D0306A616820F44070084330622078800705D57068A16820F44040D1
:203BA000084370602078C00605D57068616920F48000084370600020C1E700000010024047
:203BC00000700040000042422DE9F047DFF8688104460E46D8F8000000F00700B0420CD26F
:203BE000D8F8001021F007013143C8F80010D8F8000000F00700B04273D120784F4F8007CE
:203C000005D57868A16820F0F000084378602078C00755D06068012201280CD0022828D028
:203C2000022393FAA3F1B1FA81F141F02001490904D0396803E04FF40033F2E7796A93FA66
:203C4000A3F3B3FA83F303F01F039A40114248D0796821F0030101437960FFF76DFB054695
:203C6000606841F2883101280CD00228894615D022E04FF00073D4E7FFF75EFB411B494505
:203C800001D916E089467868C0F381000128F3D116E0FFF751FB411B49450AD87868C0F3ED
:203CA00081000228F5D10BE0FFF746FB411B494502D90320BDE8F087786810F00C0FF3D1AE
:203CC000D8F80010404601F00701B1420BD9016821F0070131430160006800F00700B04206
:203CE00001D00120E6E72078400705D57868E16820F4E060084378602078000706D5786852
:203D0000216920F4605040EAC100786000F052F87968F02292FAA2F201F0F001B2FA82F243
:203D2000D140074A515CC840064908600020FFF723FB0020BEE70000002002400010024008
:203D4000F8AD01088400002001480068704700008400002008480949006849684FF4E062C5
:203D600092FAA2F201F4E061B2FA82F2D140044A515CC8407047000084000020001002400C
:203D800008AE010808480949006849684FF4605292FAA2F201F46051B2FA82F2D140044A6F
:203DA000515CC84070470000840000200010024008AE010810B519A085B00FC88DE80F00D4
:203DC0001AA01B4B0068049059681A4801F00C02042A1DD0082A1BD14FF4701494FAA4F47F
:203DE00001F47012B4FA84F4E240C9031DF8022010D559684FF4003393FAA3F301F400319C
:203E0000B3FA83F3D94004AB595CB0FBF1F0504305B010BD08485043FAE70000020304058F
:203E2000060708090A0B0C0D0E0F1010010200000010024000127A0000093D002DE9F84F75
:203E400004460078FE4EC0074FF001057FD070684FF40038C0F38100012807D07068C0F3E7
:203E6000810002281BD17068C00318D598FAA8F0B0FA80F040F02000400901D0306800E0FD
:203E8000706A98FAA8F1B1FA81F101F01F0105FA01F108425BD06068002879D057E0606851
:203EA000B0F5803F0BD010B1B0F5A02F11D0306820F480303060306820F4802002E03068FB
:203EC00040F480303060606818B3FFF735FA074609E0306840F480203060F0E7FFF72CFA91
:203EE000C01B642870D898FAA8F0B0FA80F040F02000400901D0306800E0706A98FAA8F1E8
:203F0000B1FA81F101F01F0105FA01F10842E5D01DE0FFF711FA074604E0FFF70DFAC01B7C
:203F20006428DFD898FAA8F0B0FA80F040F02000400901D0306800E0706A98FAA8F1B1FA68
:203F400081F101F01F0105FA01F10842E5D12078DFF8F08280074FF0000A4FF002075AD5C5
:203F600070684FF0F80B10F00C0F07D07068C0F3810002281CD17068C00319D497FAA7F062
:203F8000B0FA80F040F02000400902D0306801E08AE0706A97FAA7F1B1FA81F101F01F0188
:203FA00005FA01F108422BD0206901287CD127E0206988B395FAA5F0B0FA80F048F8205013
:203FC000FFF7BAF9814606E04DE1FFF7B5F9A0EB0900022886D897FAA7F0B0FA80F040F02B
:203FE0002000400901D0306800E0706A97FAA7F1B1FA81F101F01F0105FA01F10842E4D0EF
:2040000030689BFAABF220F0F8016069B2FA82F290400143316025E0FFE795FAA5F1B1FA84
:2040200081F148F821A0FFF787F9814605E0FFF783F9A0EB09000228CCD897FAA7F0B0FA45
:2040400080F040F02000400901D0306800E0706A97FAA7F1B1FA81F101F01F0105FA01F1EC
:204060000842E4D1207800076DD5A069B8B395FAA5F0B0FA80F008EB8000C0F88054FFF7B9
:204080005BF9814605E0FFF757F9A0EB09000228A0D897FAA7F0B0FA80F040F06000B5EB32
:2040A000501F02D130680CE063E197FAA7F0B0FA80F040F06000B7EB501F01D1306A00E0C7
:2040C000706A97FAA7F1B1FA81F101F01F0105FA01F21042D7D00120FFF726F833E0FFE796
:2040E00095FAA5F1B1FA81F108EB8101C1F880A4FFF722F9814605E0FFF71EF9A0EB0900CE
:20410000022899D897FAA7F0B0FA80F040F06000B5EB501F01D130680BE097FAA7F0B0FAFC
:2041200080F040F06000B7EB501F01D1306A00E0706A97FAA7F1B1FA81F101F01F0105FAF2
:2041400001F21042D8D12078400763D5F06940F08050F061F069DFF8F0B000F08050009090
:20416000DBF8001041F48071CBF80010FFF7E4F8814605E0FFF7E0F8A0EB0900642872D8AD
:20418000DBF80000C005F5D5E06801280AD008B1052813D0306A20F001003062306A20F0C2
:2041A000040002E0306A40F001003062E06841F2883B80B3FFF7C0F881460AE0306A40F022
:2041C00004003062EEE7FFF7B7F8A0EB0901594549D897FAA7F0B0FA80F040F04000B5EB29
:2041E000501F01D130680BE097FAA7F0B0FA80F040F04000B7EB501F01D1306A00E0706A12
:2042000097FAA7F1B1FA81F101F01F0205FA02F10842D8D033E0FFE7FFF78EF8814605E041
:20422000FFF78AF8A0EB090159451CD897FAA7F0B0FA80F040F04000B5EB501F08D105E060
:2042400000100240000042420070004030680CE097FAA7F0B0FA80F040F04000B7EB501F91
:2042600002D1306A01E08AE0706A97FAA7F1B1FA81F101F01F0205FA02F10842D0D1E0692E
:2042800098B37168C1F38101022972D002284FF080714FF0007B50460AD091FAA1F1B1FA0B
:2042A00081F148F82100FFF747F804465F4669E08A4691FAA1F1B1FA81F1C14648F821004C
:2042C000FFF73AF8A84607465D4604E0FFF734F8C01B022853D895FAA5F0B0FA80F040F034
:2042E0002000400902D0306801E060E0706A95FAA5F1B1FA81F101F01F0208FA02F108425D
:20430000E4D1206AB0F5803F05D17068A16820F4003008437060D4E908010843716821F4E5
:204320007411084370609AFAAAF0B0FA80F0474649F82080FFF700F8044604E0FEF7FCFF1B
:20434000001B02281BD895FAA5F0B0FA80F040F02000400901D0306800E0706A95FAA5F106
:20436000B1FA81F101F01F0107FA01F10842E5D01DE01EE0FEF7E0FF001B022802D903200B
:20438000BDE8F88F97FAA7F0B0FA80F040F02000400901D0306800E0706A97FAA7F1B1FA1F
:2043A00081F101F01F0105FA01F10842E2D10020E6E70120E4E7704710B5040003D094F8D4
:2043C000510010B104E0012010BD204600F038F8022084F851002068016821F040010160E0
:2043E000D4E901010843D4E903121143084361690843218B01F400710843E1690843216AB0
:204400000843A16A084321680860A069042101EA1040616A0843216848602168E06A08611E
:204420002068C16921F40061C1610449002008706065012084F85100002010BD1404002075
:204440002DE9F043044600682F4985B0884258D12E48C16941F48041C161C0692C4F00F471
:20446000804004904FF42040009002204FF0030901906946CDF80C903846FEF761FE0025B0
:204480004FF48040CDE90005694638460295FEF757FE214E1F484FF08008C6E90005C6E950
:2044A000025835617561B5613046F561FEF7E8FD08B1FDF731FD666474621648174E1430F8
:2044C00001C61020A6E82101144846F810597561B561F561FEF7D4FD08B1FDF71DFD2664D9
:2044E00074624FF480540120CDE900406946CDF80C903846FEF724FE012221463846FEF716
:2045000015FF05B0BDE8F0830038004000100240000C0140440002406006002098060020D9
:204520002DE9F84F00259A460446ADF8005090F8510001287ED1E9B3E2B394F85000012853
:2045400078D0012784F85070222084F851006565A163A287E287A564E5642563A586E586D0
:20456000A0684FF40049484504D12068036823F480430360A06A4FF40056B04209D120681E
:20458000036823F4005303602068036843F40053036060684FF48278404501D1A06878B176
:2045A00020680168490603D4016841F040010160E06800E001E0E8B131E00120BDE8F88FA8
:2045C00084F8505013460A462046CDF800A000F0D1F9F3E7534600220121204602F09EFDE7
:2045E00048BB2068C168A06B421CA2630170E08F401EE087E08F0128ECD813E053460022EA
:204600000121204602F08AFDA8B92068C068A16B0880A06B801CA063E08F401EE087E08FA7
:204620000128EBD8A06AB04207D12068016841F4805101E068E007E0016053460022012175
:20464000204602F06BFD08B10320B7E7E0680028206817D0C068A16B0880A06B801CA063DB
:20466000E08F401EE087A06AB04217D1534600220121204602F052FD50B1606D40F002009E
:204680006065E1E7C168A06B421CA2630170E7E72068C068ADF80000BDF800006068404560
:2046A0000AD1A068484502D0B0F5806F04D12068016821F04001016084F85170A06AB04272
:2046C0000DD120688068C043C00608D4204602F015FD012807D021686FF01000886084F821
:2046E000505000206AE7606D40F0020060652068016821F4005101602068016841F40051B6
:20470000016084F8505058E7022057E770B5044690F85100012860D1D1B1CAB194F8500002
:2047200001285AD0012084F85000222084F8510000256565A163A287E287A564E5642563CB
:20474000A586E586A068B0F5004F03D040B10BE0012070BD2068016821F48041016003E0BF
:204760006068B0F5827F04D0A06AB0F5005F09D012E084F850502046BDE8704013460A469E
:2047800000F052BA2068016821F4005101602068016841F400510160616C1148C862616C70
:2047A00010488862616C104808632168E38F0C31A26B606CFEF78CFC2068416841F0010135
:2047C000416084F8505020680168490603D4016841F040010160002070BD022070BD00002D
:2047E0004F6F0108636F0108316F010810B50446012211030848FEF799FD0848007818B1BC
:2048000001200749087005E00648007810B101200549087010BD0000000C0140A903002076
:20482000A7030020AA030020A803002070472DE9F843044690F851009846012870D139B3B7
:2048400032B394F8500001286AD0012784F85070122084F85100002666652163A286E286CC
:20486000E664A664A663A687E687A06A7D03A84209D12068016821F400510160206801684A
:2048800041F400510160A068B0F5004F03D007E00120BDE8F8832068016841F480410160F2
:2048A00020680168490603D4016841F040010160E0680028606804D0D8B1E08E012818D091
:2048C00021E010B1E08E012808D1206B411C216321680078C860E08E401EE0860004000CCF
:2048E0001FD0434600220221204602F017FCA8B9EBE7206B21680088C860206B801C2063EF
:20490000E08E401EE0860004000C0AD0434600220221204602F002FC0028EAD00320B8E7B3
:2049200026E0A06AA84204D12068016841F480510160434600220221204602F0EFFB30B957
:20494000434601228021204602F0E8FB20B1606D40F010006065E1E7A06818B92068C168DA
:204960008068009084F8517084F85060002090E702208EE72DE9F8430026DDF820800446F2
:20498000ADF8006090F85100012803D094F8510022287DD169B162B15BB194F8500001288A
:2049A00076D0012784F8507094F85100012803D005E00120BDE8F883322084F85100666564
:2049C000A263A387E3872163A386E386A664E664A06A4FF40055A84209D12068016821F468
:2049E000005101602068016841F40051016020680168490603D4016841F040010160E06892
:204A00004FF48271B0F5006F606807D0002867D088426ED1E08E012862D06AE020B1884297
:204A20000CD1E08E012809D1206B21680088C860206B801C2063E08E401EE086E08E80B9E1
:204A4000A06AA84244D12068016841F4805101603EE02068C068A16B0880A06B801CA063E9
:204A60009EE0434600220221204602F057FB002874D1206B21680088C860206B801C206365
:204A8000E08E401E0004000CE08609D1A06A00E0C7E0A84204D12068016841F48051016052
:204AA000434600220121204602F038FB00286FD12068C068A16B0880A06B801CA063E08FD9
:204AC000401EE087E08E0028CBD1606800286AD1434600220121204602F020FBF0BBB8E72A
:204AE000206B411C216321680078C860E08E401EE086E08E98B9A06AA84204D12068016876
:204B000041F480510160434600220121204602F005FB18BB2068C068A16B087040E0434659
:204B200000220221204602F0F9FAB8B9206B411C216321680078C860E08E401E0004000C03
:204B4000E08607D1A06AA84204D12068016841F48051016000224346012100E018E02046EB
:204B600002F0DCFAA0B92068C168A06B421CA2630170E08F401EE087E08E0028CFD1606852
:204B800088B9434600220121204602F0C7FA08B103200FE72068C168A06B421CA26301708C
:204BA000E08F401EE087A06AA84210D1434600220121204602F0B2FA18B1606D40F0020053
:204BC0000FE02068C068ADF80000BDF80000434601228021204602F0A1FA20B1606D40F0CE
:204BE00010006065D4E784F85170A06AA84214D120688168C943C9060FD4616D41F00201DE
:204C00006165016821F4005101602068016841F40051016084F85060CBE684F8506000209D
:204C2000C8E60220C6E6000070B5044690F8510001280AD06068B0F5827F71D1A0680028CD
:204C40006ED194F8510022286AD1F1B1EAB1E3B194F85000012863D0012084F8500094F831
:204C60005100222802D0322084F85100002565652163A386E386A263A387E387A564E564B8
:204C8000A06AB0F5005F02D00BE0012070BD2068016821F4005101602068016841F40051CC
:204CA000016094F85100222832D0616C1D48C8621D48616C1D4E8862606C06632168E38F57
:204CC0000C31A26B606CFEF703FA2068416841F00101416094F851003228206C1ED00563AE
:204CE0002268E38E0C32216B206CFEF7F1F920680168490603D4016841F0400101602068A9
:204D0000416841F00201416084F85050002070BD616C0748C8620748CBE701E00663DFE755
:204D2000022070BD596F01083D700108316F01084F6F0108636F010870477047704710B568
:204D4000401EB0F1807F01D3012010BD4FF0E02460610F21601700F09DFF0020A061072014
:204D60002061002010BD10B5FFF7E8FF10BD7047704730B590F83820012A20D0012380F86C
:204D80003830022280F839200268546824F070045460026854680D682C4354600268946830
:204DA00024F0800494600268946849680C43946080F83930002180F83810084630BD0220EE
:204DC00030BD10B5040003D094F8390010B107E0012010BD002084F83800204600F00CF8C1
:204DE000022084F83900211D206802F00DFE012084F83900002010BD00B500682F4A304947
:204E000085B0904221D1C86940F00200C861C869694600F002000490402000900020019006
:204E200002902848FEF78CF9002211461D20FEF709FB1D20FEF7FAFA23484168234A21F08F
:204E4000A0611143416005B000BD214A90420ED1C86940F00400C861C869002200F00400F9
:204E6000049003211E20FEF7EDFA1E2010E0194A904210D1C86940F01000C861C86900222F
:204E800000F01000049011463620FEF7DBFA3620FEF7CCFAD7E7104A9042D4D1C86940F006
:204EA0002000C861C869002200F02000049011463720FEF7C7FA3720EAE7000000040040E2
:204EC000001002400010014000000140000C00020008004000100040001400400168CA6859
:204EE00042F00102CA600068016841F001010160002070470168CA6822F00102CA600068D5
:204F0000016A41F21112114207D1016A9210114203D1016821F0010101600020704770B598
:204F2000044690F83800012817D0012584F83850022084F839002068826822F0770222F443
:204F40007F4282600868502836D00DDC202858D005DC80B3102840D150E0022070BD302833
:204F600052D0402839D13EE060282DD070280BD0B0F5805F03D0B0F5005F2ED110E02068B5
:204F8000816821F0070109E0CB68D1E90121206802F087FD2068816841F0770181601CE022
:204FA000CB68D1E90121206802F07BFD2068816841F48041F2E71EE0CA684968206802F055
:204FC00082FD5021206806E0CA684968206802F0C1FD6021206802F06EFD84F839500020CD
:204FE00084F8380070BDCA684968206802F06BFD40212068EFE700212068ECE71021206817
:20500000E9E720212068E6E730212068E3E7000070B50446007E01281FD1124D687AE8B1A7
:20502000687AA97A884215D12068406B2882E989401A80B26882A97A0B4A5143B1FBF0F05E
:20504000E8610020E8720146204600F0B9F82046FFF750FF687A401C687270BD2068406B1C
:20506000E881F7E788000020001BB7002DE9F041044690F838000D4601283CD0012684F8F3
:205080003860022084F83900A2B3042A45D02068082A54D0D5E90027E968036A23F480539E
:2050A0000362D0F81CC0036A2CF4407C4CEA07274FF6FF7C27F470470CEA013139434FF4C1
:2050C000204723F4204307EA02321A43C16102622068C16921F44061C1612068C169AA6899
:2050E00041EA0221C16184F83960002084F83800BDE8F08101E00220FAE7D5E90012EB683A
:20510000206802F0F1FC2068816921F00C01816120688169AA6811430FE0D5E90012EB68CC
:20512000206802F029FD2068816921F44061816120688169AA6841EA02218161D3E7D5E999
:20514000002C2F7B016A21F480710162C169036A21F0030141EA0C0121F0F00C39074FF431
:2051600020674CEA116123F4206307EA02221A43C16102622068C16921F00C01C1612068F4
:20518000C169AA681143ADE710B5040003D094F8390010B107E0012010BD002084F8380020
:2051A000204600F00CF8022084F83900211D206802F02AFC012084F83900002010BD704766
:2051C00010B50268044631B1042908D008291ED00C2908D11FE0D06820F0020002E0D068DF
:2051E00020F00400D0600022206802F04FFC2068016A41F21112114207D1016A92101142B0
:2052000003D1016821F001010160002010BDD06820F00800E6E7D06820F01000E2E770B58D
:205220000446006801694FF00005C943890715D4C168C943890711D4E91E016101202076BF
:20524000206880698007204602D0FFF7E1FE04E000F098F8204600F096F825762068016974
:20526000C943490717D4C168C943490713D46FF004010161022020762068806910F4407FC9
:20528000204602D0FFF7C4FE04E000F07BF8204600F079F8257620680169C943090716D47D
:2052A000C168C943090712D46FF008010161042020762068C0698007204602D0FFF7A8FE33
:2052C00004E000F05FF8204600F05DF8257620680169C943C90617D4C168C943C90613D4BA
:2052E0006FF010010161082020762068C06910F4407F204602D0FFF78BFE04E000F042F8E5
:20530000204600F040F8257620680169C943C90708D1C168C943C90704D1891E0161204674
:2053200000F032F820680169C943090609D4C168C943090605D46FF0800101612046FFF7AE
:2053400016FD20680169C943490609D4C168C943490605D46FF040010161204600F054F80F
:2053600020680169C94389060BD4C168C943890607D46FF0200101612046BDE87040FFF78F
:20538000F7BC70BD7047704770B50446006819490026194D884201D1EE61EE7217492068C7
:2053A00088420AD16878401CC0B26870032804D36E70687908B900F095FA11492068884215
:2053C00010D12978491CC9B229700A290AD32E700122EA70A978491CC9B2A970022901D38E
:2053E000AE702A710749884202D1A869401CA86170BD000000040040880000200008004030
:205400000010004000140040704770B5040004D094F83900002510B106E0012070BD84F8D9
:205420003850204600F020F8022084F839002068C16821F40051C160204602F0B9FB2068D3
:20544000016921F4904101612068416921F02A0141612068C16841F40051C160E5630120C9
:2054600084F83900002070BD10B50068114986B088421DD11048C16941F48021C161C06912
:205480000E4C00F4802004904FF480600090022001900320039069462046FDF751FEE11421
:2054A000009100210191029169462046FDF748FE06B010BD0048004000100240000C01401C
:2054C00018B5044609486A460321006804F05CFF9DF8000020702E2060709DF80110A170DF
:2054E000E0709DF80200207118BD0000FCFF0008FEE7000070B50B4C0125C4F89451022012
:2055000004F5C87404F00AF92560022004F006F900206060022004F001F9BDE8704002205E
:2055200004F0FCB80000224270B50E4C0020C4F89001C4F89401022004F5C87404F0EEF8F1
:2055400001252560022004F0E9F8022004F0E6F8022004F0E3F86560BDE87040022004F094
:20556000DDB800000000224270B5044601201A49086004F0D3F800201849C1F8A00101201C
:2055800004F0CCF800251BE000201349086004F4004018B10120091D086003E000200E4945
:2055A000091D0860012004F0B9F801200A49086004F0B4F84FF6FF7000EA4404681CC5B23A
:2055C000102DE1DB01200649086004F0A7F800200449C1F8A00170BDA0012242000021420B
:2055E000A0012142000022422DE9F0473A480A210160012141600521816001463748FCF765
:20560000DDFF002280213648FDF790FE0A2004F071F84024002390221946204601F010F96C
:20562000641CE4B26F2CF5D940242E4EDFF8B880DFF8B89008E0402C06D9601E002380B2D7
:205640009022194601F0FCF80023A0221946204601F0F6F80A2004F04DF82048FDF7CCF947
:2056600032211E48FDF730F91C48FDF75BF885B23068FAF70FFE07462846FAF70BFE4146A0
:20568000FAF798FD4946FAF795FD3946FAF7C4FDFAF705FE80B264280DD240240023F02217
:2056A0001946204601F0CCF8641CE4B26F2CF5D94120BDE8F087641CE4B26F2CBBD94024CB
:2056C0000023F0221946204601F0BAF8641CE4B26F2CF5D90020ECE7487400203404002087
:2056E00000080140BC0000203333C34000401C4510B54FF40040FFF737FF48F20F10FFF7B8
:2057000033FF4FF41040FFF72FFF10BD10B500201E4908601E49C1F884011C490831086074
:20572000091D08601B490860091D0860194914310860091F08601849086016491C31086005
:20574000091D0860091D08604FF4004013490860012048600220C8601148FDF7F1FC0F206A
:205760000E490860012048600220C8600D48FDF7E7FC4EF680400949086001204860022082
:20578000C8600948FDF7DCFC10BD0000808121420080214298012242BC0121420C07002060
:2057A00000080140000C01400010014010B5402407E00023F0221946204601F041F8601C52
:2057C000C4B26F2CF5DD1048008880B24CF20101884217D10023A0221946402001F030F825
:2057E0000023A0221946422001F02AF80023A0221946542001F024F80023A0221946562071
:2058000001F01EF810BD0000AC00002010B501F079F8104908700846007808B9FCF76EF810
:20582000002220210C48FDF781FD0A48007840B1084801780020FCF773FA01200749087052
:2058400006E000200549087003F0F2FF03F08EFF10BD000040060020000C014094000020E4
:2058600010B5322003F046FF00F094F800F076F87C2005F087FA022003F050FF802005F0F4
:2058800081FA022003F04AFF382005F07BFA012003F030FF802005F075FA022003F03EFFD4
:2058A0000C2005F06FFA012003F024FF802005F069FA022003F032FF012005F063FA012055
:2058C00003F018FF802005F05DFA022003F026FF062005F057FA012003F00CFFBDE8104018
:2058E00000F058B810B5322003F004FF00F052F800F034F87C2005F045FA022003F00EFF53
:20590000802005F03FFA022003F008FF382005F039FA012003F0EEFE802005F033FA022039
:2059200003F0FCFE0C2005F02DFA012003F0E2FE802005F027FA022003F0F0FE802005F0F0
:2059400021FA022003F0EAFE062005F01BFA012003F0D0FEBDE8104000F01CB870B50B4CE8
:205960000125C4F8B051022004F5D87403F0D6FE0748C0F88851022003F0D0FE00202060B3
:20598000BDE87040022003F0C9BE0000000022420080224270B50B4C0020C4F8B0010220A3
:2059A00004F5D87403F0BAFE07480125C0F88851022003F0B3FE2560BDE87040022003F03C
:2059C000ADBE0000000022420080224210B5FFF791FDA02004F052FA4FF0FF3450B9002030
:2059E00004F04CFAFFF7A0FDFFF784FDA12004F045FA08B1204610BD04F018FA040203F084
:205A00005FFE04F013FA044404F060FCFFF78CFD20B210BD3EB510480E4901240160002129
:205A20008160C16041614FF460220461C2614160FCF77CFE00B1FEE70B20CDE900040520C7
:205A4000029069460448FCF7B9FD002800D0FEE73EBD000000240140340400202DE9F0472E
:205A60004A4886B0816941F020018161816901F020010491816941F010018161816901F0C6
:205A800010010491816941F004018161816901F004010491816941F00801816180693C4F6F
:205AA00000F00800049000224FF405413846FDF73DFC012240F287213846FDF737FCDFF88B
:205AC000D4A0002241F2CF015046FDF72FFC012230215046FDF72AFCDFF8BC8000224FF6DA
:205AE000F0714046FDF722FCDFF8B090002204214846FDF71BFC4FF690700124CDE9000492
:205B00000225694603954046FDF71AFB48F28F70CDE90004694603953846FDF711FB402070
:205B20000026CDE90006694602943846FDF708FB2020009011200190694603954046FDF776
:205B4000FFFA2003CDE900040320039069465046FDF7F6FA0420CDE90004694603954846DD
:205B6000FDF7EEFAFF20CDE90004694603955046FDF7E6FA4FF44070CDE9000669460294CB
:205B80005046FDF7DDFA06B0BDE8F0870010024000080140000C0140001001400014014044
:205BA0000E4810B50C4901604FF48271416000218160C1604FF400720161C0E90512182209
:205BC000C0E90721416281620A21C162FEF7F4FB002800D0FEE710BD00380040780400207E
:205BE00010B51C488AB01A49016005210024C0E901144FF6FF71C0E90314FFF7E2F800B180
:205C0000FEE74FF48050049004A91248FFF787F900B1FEE70F48FFF7B7FA00B1FEE70894B5
:205C200008A90C480994FFF7A4F800B1FEE70120CDE900400320CDE902400022694605484A
:205C4000FFF714FA002800D0FEE70AB010BD000000040040D004002010B50022084909481B
:205C600002F08EFA0849074802F073FC0749054802F0C8F8BDE81040024802F0B7BC0000B6
:205C8000C00000201C0900200400002014010020FEE770470907090E002806DA00F00F00BC
:205CA00000F1E02080F8141D704700F1E02080F8001470472DE9F04F87B0BC4800680078EF
:205CC00000287DD00A200490012005900520069004A9B748FCF772FC039000228021B548C0
:205CE000FDF724FBB14800684678B04800688778AE4909680978B94201DA394610E0AB49F1
:205D0000096891F800A00AEBDA714910B94206DAA64909680978C91BC1F1270100E0791E5F
:205D2000A54A32F811000023A022194600F088FD4FF000090125F3E0022D03D09B480068F2
:205D4000405D00B9EAE0012437E0022C03D097480068005D00B92EE094490968095D934AEA
:205D600012681278914203DD90490968095D19E08E49096891F800A00AEBDA7149108B4AE4
:205D80001268125D914209DA884909680978874A1268125D891AC1F1270103E0834909684A
:205DA000095D491E844A32F811000023F022194600F046FD00BF601CC4B28048007800E075
:205DC000E5E08442C1DB79490968495D774A12681278914203DD75490968495D19E07349C1
:205DE000096891F800A00AEBDA7149106F4A1268525D914209DA6D49096809786B4A126801
:205E0000525D891AC1F1270103E068490968495D491E694A32F8110000239022194600F032
:205E20000FFD0A2003F066FC75E06148FCF7E4FD32215F48FCF748FD03905D48FCF772FC3A
:205E40001FFA80F85E480068FAF724FA02904046FAF720FA5B490090FAF7ACF983465A493B
:205E6000FAF7A8F901900299FAF7D6F98246FAF716FA1FFA80F8B8F5617F02DCB8F1640FC3
:205E800048DA4846411C01F0FF09032803DA642003F030FC3FE001242FE044490968095D9A
:205EA000424A12681278914203DD40490968095D19E03E49096891F800A00AEBDA7149108C
:205EC0003A4A1268125D914209DA384909680978364A1268125D891AC1F1270103E03349E7
:205EE0000968095D491E344A32F811000023F022194600F0A5FC601CC4B2304800788442DE
:205F0000CBDB012280212B48FDF710FA992007B0BDE8F08F00E088E700BF00BF681CC5B24A
:205F2000264800788542FFF607AF204909680978B14201DA314610E01C49096891F800A07A
:205F40000AEBDA714910B14206DA184909680978891BC1F1270100E0711E174A32F81100F9
:205F60000023F022194600F06BFC1849C97B174A927B02EBC20303EB021201EB820001F010
:205F80007BFC012280210B48FDF7D0F90BE00F49C97B0E4A927B02EBC20303EB021201EB2A
:205FA000820001F069FC0020B1E7000018040020340400200008014084B201081C040020F5
:205FC000BC0000203333C34000401C45C40500202DE9F04F4FF0000989B0CB46CDF80090B6
:205FE000CDF81490CDF81090CDF80890CA4641F28830CDF8049003F03FFAFF480A2101255E
:20600000C0E90015052181600146FC48FCF7D6FA00228021FA48FDF789F90A2003F06AFB70
:2060200040240023F0221946204600F009FC641CE4B26F2CF5D900244FF00208F14F22E0DF
:206040000CB34FF0FF3000EB440028284FEA440001DD401E00E0801E002337F81000F022E9
:20606000194600F0EDFB2820B0EB440F4FEA440000D3401E002337F81000F022194600F042
:20608000DFFB0A2C22D2012505EB440028284FEA440000D9401C002337F81000902219462D
:2060A00000F0CEFB08EB4400282846464FEA440001D9801C00E0401C002337F81000A022C1
:2060C000194600F0BDFBB046CF4E1EE0012000EB440028284FEA440000D9401C002337F804
:2060E0001000A022194600F0ABFB08EB440028284FEA440001D9801C00E0401C002337F8D1
:2061000010009022194600F09BFB0A2003F0F2FABA48FCF771FC3221B848FCF7D5FBB74858
:20612000FCF700FB85B23068FAF7B4F803902846FAF7B0F8B549FAF73DF8B549FAF73AF826
:206140000399FAF769F8FAF7AAF880B2B0F5617F11D909F1010000F0FF09062C01D90F2CE3
:2061600004D30198401CC0B201900EE00AF1010000F0FF0A09E0642804D20298401CC0B2BA
:20618000029002E044F080000590641CE4B2142CFFF456AF0023B7F84C00F022194600F075
:2061A0004FFB0023B7F84E00F022194600F048FB41F2883003F060F942F2107003F086F974
:2061C000642003F097FA002422E00CB34FF0FF3000EB440028284FEA440001DD401E00E04C
:2061E000801E002337F81000F022194600F028FB2820B0EB440F4FEA440000D3401E002314
:2062000037F81000F022194600F01AFB0A2C21D2012000EB440028284FEA440000D9401C4E
:20622000002337F81000A022194600F009FB022000EB440028284FEA440001D9801C00E073
:20624000401C002337F81000B022194600F0F8FAF4B31FE0012000EB440028284FEA4400AA
:2062600000D9401C002337F81000B022194600F0E7FA022000EB440028284FEA440001D98D
:20628000801C00E0401C002337F81000A022194600F0D6FA0A2003F02DFA5848FCF7ACFB65
:2062A00032215648FCF710FB5448FCF73BFA85B255480068F9F7EEFF06462846F9F7EAFF7F
:2062C0005249F9F777FF5249F9F774FF314600E00FE0F9F7A1FFF9F7E2FF80B2A0F50450FD
:2062E0003438B0F5FA7F06D90098401CC0B2009004E06420CFE744F080000490641CE4B2C3
:20630000142CFFF462AF3F4C0023F02234F84C0F194600F095FA00236088F022194600F0A8
:206320008FFAB9F1140F02D10098142801D0002507E0302009B0BDE8F08F15B1012D13D17E
:2063400009E042F2283006904FF09008A026059F42F2341007E04FF46170B026049F06906F
:206360004FF0A0086420039038066ED507F07F040A2C02D34046B0460646012000EB440001
:2063800028284FEA440000D9401C1E490023424631F81000194600F053FA022000EB4400C3
:2063A00028284FEA440001D9801C00E0401C15490023324631F81000194600F041FA01227F
:2063C00051020F48FCF7B2FF0A2003F093F90B48FCF712FB32210948FCF776FA0748FCF72A
:2063E000A1F984B208480068F9F754FF07902046F9F750FF05490DE0487400203404002027
:206400000008014084B20108BC0000203333C34000401C45F9F7CEFE1D49F9F7CBFE079993
:20642000F9F7FAFEF9F73BFF069980B2884206D20399884203D90BF1010000F0FF0B00227C
:206440004FF400711348FCF771FF6D1CEDB2022DFFF473AFBBF1000F01D031206AE7029896
:2064600008B1402066E7B9F1140F06D00098142805D0019828B134205CE732205AE733207B
:2064800058E7BAF1000F01D0352053E7002051E700401C450008014010B50446902101EBB5
:2064A000042188B2FFF760F810BD10B50446A02101EB042188B2FFF757F810BD10B5044626
:2064C000B02101EB042188B2FFF74EF810BD2DE9FC5F04460020ADF80000ADF8040040F638
:2064E0008F7B4FF006094FF0020A4FF4806884E1BDF8001011F00F0628D030F82610ADF893
:206500000410BDF80410090475D530F8261001EA0B0120F8261004EB461595F8120205F5BF
:2065200002750028206867D0297830F82120B0F8503052047CD50AEBC1015A1808EB4201C5
:20654000415A8F05BF0D74D0EA88C7E0BDF80010C9062CD4018848F60F72114001802068AD
:2065600004F12805B0F850202B780AEBC3010A4408EB4201405AC0F309006064E16B08444F
:20658000E06300212046FCF7BCFF94F824000028ADD0A8690028AAD194F82400216840F011
:2065A0008000A1F84C00002084F8240025E1018804F50275ADF80410BDF8041009051CD536
:2065C000B0F850202B7809EBC3010A4408EB4201405A04F57B71C0F30903EB61AA88206880
:2065E00002F017FC2068018801EA0B0101802046FDF791F901E195E054E0BDF804100904C8
:20660000D4D5018801EA0B0101802068B0F850202B78464609EBC301114408EB4101405A25
:2066200083059B0DEB610BD0AA886969206801E04AE057E002F0EDFBE96968690844686123
:2066400000212046FCF764FF2068B0F85010891D06EB4101421828693E280CD9C0F34F11AB
:20666000C00601D1491E89B24FF6FF7000EA812040F4004009E0C0F34F01C00701D0491C44
:2066800089B24FF6FF7000EA81201060206801884BF68F72114081F4405148F28002114356
:2066A0000180AAE0B0F850202B7809EBC3010A4408EB4201415A8F05BF0D1FD0AA883B463B
:2066C000696902F0A6FB19E009EBC1015A1808EB4201415A8F05BF0D04D02A893B46696929
:2066E00002F097FB2978206830F8212048F68F731A4048F2C0031A4320F82120E86938446A
:20670000E8616869C2196A61AB6913B12869B84204D929782046FCF7FBFE03E0297820469C
:20672000FCF764FFBDF80400000666D5206804EB461530F8261048F60F72114020F826107B
:2067400095F8320028350028206812D0297830F82120B0F8503052061ED50AEBC1015A18E5
:2067600008EB4201405A83059B0DEB6123D0EA881DE0B0F850202B780AEBC3010A4408EBB6
:206780004201405A83059B0DEB6120D0AA886969206802F054FB1AE009EBC1015A1808EBCE
:2067A0004201405A83059B0DEB6104D02A896969206802F044FB2978206830F8212048F69E
:2067C0008F731A404CF280031A4320F821202068B0F850202B780AEBC3010A4408EB420166
:2067E000405AC0F30900E86169690A186A612978AB69204663B1FCF744FF2068B0F8441052
:20680000ADF8001009043FF573AE0020BDE8FC9FFCF777FEF1E7FDF7B3B810B5FE2000F08F
:2068200093FF0A2002F066FFBE2000F08DFF0A2002F060FFBDE81040FE2000F085BF704772
:206840002DE9F04106460C4615461F46402E01DB6F2E01DDBDE8F0810F2C00DDFAE7E02DB2
:2068600003D0D02D01D0C02D40D105EB0621214488B2FEF779FE082C19DA012F07D1012007
:20688000A0401E49097808431C49087007E037B90120A04019490978814318480170174958
:2068A000097801F5024188B2FEF75EFE23E0012F0AD1A4F10800012101FA00F01049097801
:2068C00008430F49087009E047B9A4F10800012181400B4800788843094908700849097802
:2068E00001F5034188B2FEF73FFE04E005EB062188B2FEF739FE00BFACE7000025010020F9
:206900002401002010B5FBF733FB164908700846007838B9F9F74CFD00F0A4FA00F09AF876
