:020000040801F1
:200000008079002045010108575C0108B5540108555C010815060108DD9001080000000056
:20002000000000000000000000000000BD710108FF1C010800000000DF670108A1780108F4
:200040005F010108B76701085F0101085F0101085F0101085F0101085F0101085F0101089A
:200060005F0101085F0101085F0101085F0101085F0101085F010108C91C0108D51C010822
:200080005F0101085F0101085F0101085F010108858D01085F0101085F0101085F01010866
:2000A0005F0101085F0101085F0101085F0101085F0101085D790108697901085F01010800
:2000C0005F0101085F0101085F0101085F0101085F0101085F0101085F0101085F010108D8
:2000E0005F0101085F0101085F0101085F0101085F0101085F0101085F0101085F010108B8
:200100005F0101085F0101085F0101085F0101085F0101085F01010875790108817901086F
:200120005F0101085F0101085F0101085F010108DFF80CD000F0FCF800480047719E0108DD
:20014000807900200648804706480047FEE7FEE7FEE7FEE7FEE7FEE7FEE7FEE7FEE7FEE7EA
:20016000117901083101010840EA01039B0703D009E008C9121F08C0042AFAD203E011F875
:20018000013B00F8013B521EF9D27047D2B201E000F8012B491EFBD270470022F6E710B5C5
:2001A00013460A4604461946FFF7F0FF204610BD80EA010210B502F00043400022D04A00F2
:2001C0001FD0010E01EB1261C0F35600C2F3560240F4000042F40002A0FB022000047F39C7
:2001E000140400D0401C50EA124001D44000491EC2B20C0604EBD010401C4008802A02D03E
:2002000003E0002010BD20F00100002900DA0020184310BD30B480EA010202F0004530F00A
:20022000004221F0004013D090B1C30DD40DC2F31601C0F31600E41A41F4000140F4000257
:200240007D34914201D3641C00E04900002C02DA30BC002070474FF400000023914201D3C5
:20026000891A034340084FEA4101F7D151B1914202D14FF0004105E002D24FF0010101E007
:200280006FF0010103EBC450284430BC00F019B896230022114600F01DB820F00040C10DCD
:2002A000C0F3160040F400007F2901DA00207047962903DCC1F19601C840704796398840AA
:2002C00070470029A8BF7047401C490008BF20F00100704710B4B0FA80FC00FA0CF050EAD2
:2002E000010404BF10BC704749B1CCF1200421FA04F411FA0CF118BF012121430843A3EB87
:200300000C01CB1D4FEA00614FEA102042BF002010BC704700EBC35010440029A4BF10BC97
:200320007047401C490008BF20F0010010BC7047064C074D06E0E06840F0010394E807007B
:2003400098471034AC42F6D3FFF7F6FE78B2010898B2010870B58C1810F8015B15F0070317
:2003600001D110F8013B2A1106D110F8012B03E010F8016B01F8016B5B1EF9D12B0705D417
:200380000023521E0DD401F8013BFAE710F8013BCB1A921C03E013F8015B01F8015B521EED
:2003A000F9D5A142D8D3002070BD00000EB50D4802F090F80B2000900120019005200290DE
:2003C0006946084802F0EAF8064802F0F7FA3221044802F05BFA034802F094F90249C860F6
:2003E0000EBD000034040020B000002070B5044600688168C943C9071BD1816821F0010186
:20040000816002F07BFF05460EE002F077FF401B022809D9A06A40F01000A062E06A40F0C1
:200420000100E062012070BD20688068C043C007EBD0002070BD0000F8B500260446009636
:2004400000688168C943C90727D0816841F001018160134813490068B0FBF1F000E0401E92
:2004600000900028FBD102F049FF054610E002F045FF401B02280BD9A06A40F01000A06298
:20048000E06A40F00100E06284F824600120F8BD20688068C043C007E9D10020F8BD000000
:2004A0008400002040420F0008490120CA7B897B01EBC10303EB011102EB810101F6F13114
:2004C000B1F5005F01D100F065BA7047C40500200848C17B807B00EBC00202EB001001EB79
:2004E000800000F6F130B0F5005F02D1012000F033BE7047C40500200848C17B807B00EB7A
:20050000C00202EB001001EB800000F6F130B0F5005F02D1012000F083BE7047C4050020D0
:200520000848C17B807B00EBC00202EB001001EB800000F6F130B0F5005F02D1012000F01F
:20054000AFBA7047C40500200848C17B807B00EBC00202EB001001EB800000F6F130B0F539
:20056000005F01D08720704700F0E2B8C405002070B5274E04464FF0000549B114E0012241
:200580000821304602F0B4FE642009F089F86D1CA542F4D334E001220821304602F0A8FE75
:2005A000642009F07DF86D1CA542F4D300220821304602F09DFE642009F05EF8002508E0E4
:2005C00001220821304602F093FE642009F068F86D1CA542F4D300220821304602F088FE89
:2005E000642009F049F8002508E001220821304602F07EFE642009F053F86D1CA542F4D301
:200600003046BDE870400022082102F071BE000000080140FEE700002DE9FC5F3EA0D0E96D
:200620000010CDE9001000F03DFF4EF6165000F0EDFB3B4F7869001F00F014FCDFF8E48071
:20064000D8F8001021F00F01091DC8F80010DFF8D8A04FF48039CAF800900024DFF8CCB08F
:200660006E4600F0F3F9032C4FD1C0074DD000F05DFC00F017FF41F2162000F0C7FB78696C
:20068000083800F0EFFB00240021305D00F07AFB30190121407800F075FB38B17869083C78
:2006A00001199A20CBF80410BDE8FC9FA41CE4B2082CE9D300F0F6FE4EF6165000F0A6FBEA
:2006C0007869083800F0CEFBD8F8000020F00F00001DC8F80000CAF80090002400F0B6F95F
:2006E000315D0546A9420CD000F0DCFE7969A4F108000144CBF80410315DCBE902159320E9
:20070000D2E7641CE4B2082CE8D3641CE4B2042CA7D30020C8E70000FFFFFFFFFFFFFFFF94
:20072000C4050020000C014010080140400600202DE9F05FDFF814A100254FF48039DAF8E0
:2007400014002E46C0F387272C46DFF804B142E04FF4806842463F49484606F0DDF83D4B74
:2007600000204246195C401C0E4480B2B6B20D449042F7D328460025B0F57F3F3ED0E0B390
:200780000121781E0BF80410844220D150464FF0FF0830F8661F02892F481144BAF87220AF
:2007A00080F8018080F800804FEA122C80F802C0C2700A0A0271417180F80680274A93F832
:2007C000FF13C171126812B101F0FE01C171641C09F58069E4B2BC42BAD3BAF8680054463A
:2007E000B0422ED1228B1E494FF4003006F094F8002108461A4B228B07E0FFE70021C0E7E9
:200800001D5C401C294489B280B28242F8D8B4F86C00884215D1628B12494FF4802006F0AC
:200820007BF8002108460F4B628B04E01D5C401C294489B280B28242F8D8B4F87000884282
:2008400002D08620BDE8F09F0020FBE7C4050020C80F0020081000202C0400200C04002052
:20086000085000200852002070B500F05FFB00F019FE41F2162000F0C9FA0F4E706908387E
:2008800000F0F0FA0D4D00240021285D00F07AFA28190121407800F075FA30B17069084971
:2008A000083C204448609A2070BDA41CE4B2082CEAD3002070BD0000C40500202C04002034
:2008C0004006002070B504462F488021016000214160816001462D4802F014FC217881B39C
:2008E000A078884207D8B0EB510F03D9081AC0F1270000E0401E264D0023902235F81000A3
:20090000194605F06DFFE0782178884207D8B0EB510F03D9081AC0F1270000E0401E01234A
:2009200035F81000C022032105F05AFF20792178884208D8B0EB510F04D9081AC0F1270078
:2009400001E009E0401E012335F81000C0220821BDE8704005F044BF00239022194656200C
:2009600005F03EFF0123C0220321412005F038FF0123C0220821542005F032FF0023C022C0
:2009800001214020E4E700000C0700200010014008B2010870B508F0C5FE2A4D05202A4CD1
:2009A000A87000F051FD00F055FB00F075FB207048B100F023FBA878401CC0B2A8700A2872
:2009C000EFD32078B8BBFFF727FE207098BB00F0EBFD207000F056FB207860BB00F03AFBCB
:2009E00000F05AFB207008F0C1FE207818BB002000F056F82070F0B900F076FD2070D0B9ED
:200A0000002000F0A9FB2070A8B9FFF72DFF207088B900F053FA207068B9032000F000FC41
:200A2000207040B1012000F07FFD207018B9032000F0F6FB207000F025FB00F0DFFA207842
:200A400070BD000020040020400600202DE9F0470024104E104FDFF844A02546A0464FF046
:200A600001096006040EC6F8A881787808F018FEC6F8A891787808F013FEDAF8000108B193
:200A8000641CE4B26D1CEDB2082DEAD32046BDE8F087000000002242200400200080214219
:200AA0002DE9F14FAB4982B04FF4803A886CC0F38729C0F3090B91F8460000EB0B02B2F531
:200AC000806F05D9CBF10002D5B2401BC6B201E0054600269F48DFF880824069C0F387201C
:200AE00001900298002872D100F0DCFC4EF6165000F08CF9002000F0B5F99849086820F05A
:200B00000F00001D086096494FF4803008608211414605F001FF9349012000240870924984
:200B20000870DEE0E0070AF5806082463DD04FF4806700233A46884905F01AFF8B480078ED
:200B40000028FDD08A48006880B18A48005D68B1894938464FF4006C0A784346195C5539E0
:200B600051401954401C80B26045F7D30198401E844210D1FF2188F8F81788F8F91788F81D
:200B8000FA1788F8FB1788F8FC1788F8FD1788F8FE1788F8FF176F4A92F84600002873D06C
:200BA0004C4569D10020C44664E001239A02734905F0DEFE6B4800780028FDD0654B93F854
:200BC000460010B34C450ED10020474609E08CE003EB400100EB0B0291F85C10401CB95415
:200BE00080B2A842F4D386B109F1010084420CD10020414607E02A1803EB420292F85C2035
:200C00000A54401C80B2B042F5D35948006880B15848005D68B1584900204FF480670B7870
:200C200041460A5C553A5A400A54401C80B2B842F7D30027FFF70AFF009018F8071081424E
:200C400007D000F02FFC4E49932007EB8422087038E07F1CBFB2B7F5806FEBD33FE002EBBF
:200C6000400100EB0B03634491F85C10401C83F8001480B2A842F2D336B109F1010084422A
:200C800010D1002041460BE00CE02B1802EB430301EB000C93F85C30401C8CF8003480B22A
:200CA000B042F2D3FFF7D2FE009018F80710814210D000F0F7FB3249932007EB842208703D
:200CC000A2F580624A6018F807208A60009ACA60BDE8FE8F7F1CBFB2B7F5006FE2D3641C7E
:200CE000E4B201988442FFF41DAF029801282CD100F0AAFB00F0AEF900F0CEF900F0D2FBE0
:200D00004EF6165000F082F8002000F0ABF81348016821F00F01091D016011494FF4803053
:200D200008600025464687110CE00024FFF78EFE3055641CA4B2BC42F8D3384609F036FBA4
:200D40006D1CEDB201988542EFD300F0ABFB0020BEE70000C405002008100020000C014080
:200D600010080140A7030020A9030020A80300200C040020C80F00206603002008140020CD
:200D8000400600202DE9F05F0024DFF874A01D4F1D4E8B460546A0464FF00109C7F8A8816F
:200DA000307808F07DFC280601D5484600E04046CAF88001307808F073FCC7F8A891307830
:200DC00008F06EFC6806641C050EE4B2082CE5D3BBF1000F03D0BBF1010F0DD009E0C7F85F
:200DE000A881307808F05CFCC7F8A891307808F057FC0020BDE8F09FBDE8F05F00F0A6B851
:200E00000080214200002242200400202DE9F0470024DFF84480114E114F0546A1464FF00B
:200E2000010A280401D5504600E04846C8F88001C6F8A891387808F033FCC6F8A8A13878DB
:200E400008F02EFC641C6D00E4B2102CE9D3BDE8F0470A2008F024BC0080214200002242D0
:200E6000200400202DE9F0470024DFF84480114E114F0546A1464FF0010A280401D550464F
:200E800000E04846C8F88001C6F8A891387808F007FCC6F8A8A1387808F002FC641C6D0067
:200EA000E4B2102CE9D3BDE8F0470A2008F0F8BB00802142000022422004002070B500F053
:200EC000F1FA4EF61650FFF7A1FF134E70690838FFF7C8FF1148016821F00F01091D016046
:200EE0000F494FF48030086000240E4DFFF7AEFD295D81420AD07269A4F108010A440A49E2
:200F00004A602A5DC1E90220932070BD641CE4B2082CEBD3002070BDC4050020000C014069
:200F2000100801402C0400204006002010B500F0B9FA41F22220FFF769FF0020FFF792FFC0
:200F4000BDE810404EF6EA10FFF760BF2DE9F843254C0020C4F8A801244804F5D4740078DD
:200F600008F09EFB4FF00108C4F80080204F386820F00F00001D3860DFF878904FF48031A6
:200F8000C9F8001000241C4D01F0D0F9064614E001F0CCF9801B64280FD98DF8008039688E
:200FA00021F00F01491C3960C9F800804FF4FA7008F062FB0120BDE8F883022008F070FB09
:200FC000D5F800010028E3D10A2008F069FB641CE4B2032CD8D3386820F00F00401C38603E
:200FE000C9F800800020E6E70000224220040020000C01401008014000802142114910B573
:201000000020C1F8A8011049C1F880010F480068017871B14078884207D8B0EB510F03D929
:20102000081AC0F1270000E0401E094931F8100000E0572006F08AFBBDE810404FF4FA7079
:2010400008F01ABB00002242008021421804002008B2010810B500F025FA084800F0A0F9D0
:2010600000F020FA064800F09BF9022008F004FBBDE810404FF4FA7008F012BBD8A55A8DB0
:20108000915C8A4810B500F00DFABDE81040014800F086B9995C8A487CB500F003FA4EF63F
:2010A0002050FFF7B3FE0020FFF7DCFE2648016821F00F01091D016024494FF480300860E2
:2010C00000246D46FFF7C2FC2855641CE4B2052CF8D300999DF8032009BA21F0FF0111437D
:2010E0001B4ABDF8020091609DF8001040BA5C2922D19DF80110D8291ED11649097C012928
:2011000006D0022907D0032908D004290AD00DE04FF6FF7108E04FF6017105E0B0F5A16F11
:201120000AD103E041F20801884205D19DF80400012803D0092803D098207CBD002000E08B
:201140000120D07000207CBD000C01401008014020040020C40500202DE9F05FDFF8AC809A
:20116000DFF8ACA007004EF61C5B4FF4803926D100F098F95846FFF749FE0020FFF772FEB5
:20118000D8F8001021F00F01091DC8F80010CAF8009000241F4EFFF759FC0546305DA84268
:2011A00009D000F07FF91C484460315DC0E902159520BDE8F09F641CA4B2FF2CEBD9012FBA
:2011C00021D100F06FF95846FFF720FE0020FFF749FED8F8000020F00F00001DC8F80000EA
:2011E000CAF8009000240D4DFFF730FC2855641CA4B2FF2CF8D94FF4807009F0D7F8FFF7BD
:2012000041FFFFF7FBFE0020D3E70000000C01401008014008520020400600200810002007
:201220002DE9F05F564FDFF85CA106004FF4803924D100F037F94EF61B50FFF7E7FD002010
:20124000FFF710FE386820F00F00001D3860CAF800900024DFF830B1FFF7F8FB1BF80410D8
:201260000546A94206D000F01DF9484844601BF804107BE0641CE4B2402CEDD3012E1BD149
:2012800000F010F94EF61B50FFF7C0FD0020FFF7E9FD386820F00F00001D3860CAF8009031
:2012A00000243B4DFFF7D2FB2855641CE4B2402CF8D3402009F07AF8022E02D0032E38D0EF
:2012C0005CE000F0EFF84EF61B50FFF79FFD2020FFF7C8FD386820F00F00001D3860CAF889
:2012E0000090FFF7B3FB60F30708FFF7AFFB294A60F30F281FFA88F1936848BA18439060E1
:201300002548007C012812D0022810D0032804D0042807D08720BDE8F09F48BAB0F5A16F3B
:2013200005D12BE048BAA0F58051083926D09820F1E700F0B7F84EF61B50FFF767FD0020D5
:20134000FFF790FD386820F00F00001D3860CAF800900024114EFFF779FB0546305DA84295
:2013600008D000F09FF809484460315DC0E902159420D0E7641CE4B2102CECD30020CAE77E
:20138000000C01401008014008500020400600200810002020040020C405002068B2010841
:2013A0002DE9F0470024DFF84080104E104F0546A1464FF0010A002D01DA504600E04846E0
:2013C000C8F88001C6F8A891387808F069F9C6F8A8A1387808F064F9641C6D00E4B2202CF0
:2013E000E9D3BDE8F08700000080214200002242200400202DE9F0470024DFF84080104E24
:20140000104F0546A1464FF0010A280601D5504600E04846C8F88001C6F8A891387808F009
:201420003FF9C6F8A8A1387808F03AF96806641C050EE4B2082CE8D3BDE8F087008021420D
:201440000000224220040020114810B50068017871B14078884207D8B0EB510F03D9081A69
:20146000C0F1270000E0401E0A4931F8100000E0572004F0F3FF08490020C1F8A80107496A
:20148000C1F8800106488078BDE8104008F0F4B81804002008B201080000224200802142ED
:2014A0002004002070B50C4D0020C5F8A8010B4E05F5D475B08808F0F3F801242C60B08844
:2014C00008F0EEF80648016821F00F01491C01600448046070BD000000002242200400200B
:2014E000000C01401008014070B5FFF7DBFF41F21C20FFF78BFC0020FFF7B4FC084D002426
:20150000285DFFF777FFFFF721FD18B1054844609C2070BD641CA4B2FF2CF1D9002070BD0B
:2015200008520020400600202DE9F0410746FFF7FDFCFFF7B7FF41F21B20FFF767FC0020B5
:20154000FFF790FC154E012F0FD1154D00240021285DFFF717FC281901214078FFF712FC42
:2015600088B9A41CE4B2102CF1D3022F13D10D4D00240021285DFFF705FC28190121407889
:20158000FFF700FC18B19B207460BDE8F081A41CE4B2402CEDD30020F7E700004006002005
:2015A00068B20108085000202DE9FC5F8E4A4FF48039906CC0F38728C0F3090A92F8460057
:2015C00000EB0A01B1F5806F05D9CAF10001CEB2801BC7B201E00646002783484069C0F3D7
:2015E00087200090FFF7A2FCFFF75CFF41F21620FFF70CFC0020FFF735FC4FF480627B4938
:20160000484605F089F97A490120002408707949DFF8D8B10870E0E0E00709F5806081465F
:201620003DD04FF4806500232A46704905F0A0F9714800780028FDD07048006880B170486C
:20164000005D68B16F4928465B460A784FF4006C195C553951401954401C80B26045F7D31E
:201660000098401E844210D1FF218BF8F8178BF8F9178BF8FA178BF8FB178BF8FC178BF846
:20168000FD178BF8FE178BF8FF17574A92F84600002876D044456CD10020DC4667E00123B3
:2016A0009A02594905F064F9514800780028FDD04D4A92F8460008B344450DD100205D4648
:2016C00008E002EB400100EB0A0391F85C10401CE95480B2B042F4D387B108F1010084428B
:2016E0000CD10020594607E0331802EB430393F85C300B54401C80B2B842F5D33F48006834
:2017000080B13F48005D68B13E4900204FF480650B7859460A5C553A5A400A54401C80B22F
:20172000A842F7D300250BEB05011BF8050001910021FFF727FB019948780121FFF722FB62
:2017400020B1324805EB842141603CE0AD1CADB2B5F5806FE7D33EE002EB400100EB0A032D
:20176000634491F85C10401C83F8001480B2B042F2D337B108F10100844210D100205946B1
:201780000BE00CE0331802EB430301EB000C93F85C30401C8CF8003480B2B842F2D31BF8CD
:2017A00005000BEB050101910021FFF7EBFA019948780121FFF7E6FA40B1144905EB842066
:2017C000A0F5806048609A20BDE8FC9FAD1CADB2B5F5006FE3D3641CE4B200988442FFF494
:2017E0001BAF0020F0E70000C405002008100020A7030020A9030020A80300200C04002076
:20180000C80F002066030020081400204006002000207047002070470020704770B50024D8
:20182000064E07E0155D4540EDB2641C56F8255085EA10209C42F5D3484070BD94AD010850
:20184000F0B5254890F80EE0B0F85CC0B0F85E70B0F86020B0F8626030F8543FBEF10A0FB1
:2018600045888188C48818D00CF0FF00FFB200EB0720D2B200EB0240DAB2EBB202EB0322B4
:20188000C9B202EB014100EB066001EB0461421C01D088421ED98920F0BD3F04002017EB51
:2018A0000C0740EB000CC71942EB0C02C71942EB06464FEA0542D21840EB0005831869418B
:2018C000C01841EB04426FEA07013143E3D0C01BB241E0D30020F0BDC405002010B50F48E3
:2018E000C07B0E49897B01EBC10202EB011100EB810403F0EDFE03F03BFF204605F098FF37
:20190000204605F089FF204605F029FF00224FF40071034801F0ECFC10BD0000C4050020B1
:20192000000801402DE9F84FDB4941F28830088007F064FDD9480A210127C0E900170521B8
:2019400081600146D64800F029FED64E00228021304601F0CDFC0A2007F08EFE40240023DF
:20196000F0221946204604F03BFF641CE4B26F2CF5D94FF4004003F0D9FD4FF4014003F020
:20198000D5FDC94C022548F20700E560C4E900072146304601F0B6FB01220721304601F0CE
:2019A000A7FC1F20E560C4E90007C04E2146304601F0A8FB01221021304601F099FC4EF639
:2019C000C040E560C4E900072146B94801F09AFB0024DFF8E0824FF4487BDFF8DCA2B74E63
:2019E000A14601E00C2C21D2651C282D01D9601C00E02046012336F81000C022214604F0E3
:201A0000EFFEA01CE9B2282800D900E0601C012336F81000C02204F0E3FE58F82420C2F896
:201A2000009008EB84004068076023E0A4F10B05E9B2282D01DD284601E0A4F10C00012306
:201A400036F81000C02204F0CBFEA4F10C00C1B2801C282800DD0546012336F81500C02238
:201A600004F0BEFE08EB840050F8301D0F604068C0F800900A2007F0FFFD894800F09EFFD0
:201A80003221874800F002FF854800F03BFE85B2DAF80000FEF7FCFB00902846FEF7F8FB62
:201AA0008749FEF785FB8749FEF782FB0099FEF7B1FBFEF7F2FB80B26438584502D95020CD
:201AC000BDE8F88F0C2C15D2651C282D01D9601C00E02046002336F81000F022214604F07B
:201AE0007FFEA01CE9B2282800D900E0601C36F8100014E0A4F10C00451CC1B2282D00DDB4
:201B00002846002336F81000F02204F069FEA4F10A00E9B2282800DD054636F81500002371
:201B2000F02204F05DFEA41CE4B2182CFFF45AAF4FF4004003F0FAFC48F20F1003F0F6FC04
:201B4000D3460024B246012606EB4408B8F1280F4FEA440000D9401C01233AF81000C02212
:201B6000214604F03DFE022000EB440504F10807F9B2282D4FEA440001D9801C00E0401C46
:201B800001233AF81000C02204F02AFE49484FF0000950F82420C2F8009000EB8400006A59
:201BA00006600A2007F068FD3D4800F007FF32213B4800F06BFE3A4800F0A4FD86B2DBF871
:201BC0000000FEF765FB00903046FEF761FB3C49FEF7EEFA3B49FEF7EBFA0099FEF71AFBF6
:201BE000FEF75BFB80B26438B0F5487F01D9512066E73049303151F82410C1F800900A20FE
:201C000007F03AFD264800F0D9FE3221244800F03DFE234800F076FD86B2DBF80000FEF7A9
:201C200037FB81463046FEF733FB2549FEF7C0FA2449FEF7BDFA4946FEF7ECFAFEF72DFB55
:201C400080B240F21F316538884201D2522037E7B8F1280F4FEA440000D9401C56463AF8A6
:201C600010000023F022214604F0BAFDF9B2282D4FEA440001D9801C00E0401C002336F88D
:201C80001000F02204F0ACFD641CE4B2042CFFF45AAF002014E70000B80000204874002074
:201CA00034040020000801400C070020000C014000100140AC030020BC00002008B2010844
:201CC0003333C34000401C45014800F065BF000060060020014800F05FBF00009806002002
:201CE00010B5046863604368102B036803D099600068C26010BD9A600068C16010BD704775
:201D000030B53AA20C00A1B02ECA8DE82E003BA20DF1100C2ECA8CE82E003CA10DF1200C72
:201D20002EC98CE82E003DA10DF1300C2EC98CE82E003EA10DF1400C2EC98CE82E003FA1B7
:201D40000DF1500C2EC98CE82E0040A10DF1600C2EC98CE82E0041A10DF1700C2EC98CE8E5
:201D60002E0009D02109092933D2DFE801F0321C1E20222426322800072810D2DFE800F029
:201D80000F0406080A0C0E00684608E004A806E00CA804E008A802E010A800E014A807F061
:201DA00081FB32481EE0684613E004A811E00CA80FE008A80DE010A80BE014A809E004F075
:201DC0000F01022902D0082903D101E01CA800E018A807F067FB264A0221204608F0D2FA96
:201DE0002348083807F097FB21B030BD20202056505020434845434B2020202020202056E7
:201E0000444420434845434B2020202020202053484F525420544553542020202020204FDD
:201E200050454E2020544553542020202020434F4E4E45435420544553542020202020464F
:201E40004C41534820544553542020202020205245414420434F554E542020202020455838
:201E600054454E4420424F4152442020C6010020EE02002070B505460C4607F069FB07F064
:201E8000B7FB00224FF48051184801F031FA25B1012D06D0022D0CD107E0202014490870FC
:201EA00007E0D8201249087003E0C7201049087000BF00BF4FF47A7301220D490D4802F067
:201EC00098FC022D0BD0200C09490870200A48708C704FF47A730322064802F08AFC012252
:201EE0001103024801F004FA70BD0000000C01406703002078040020FEE7000010B503F058
:201F000047FD00B2104908801048C07B0F49897B01EBC10202EB011100EB810440F2B440B7
:201F2000844208D10848008880B24CF20101884208D0822010BD0448B0F90000401C08B19D
:201F40008220F7E70020F5E7AC000020C405002010B54FF0FF30064B064A0146FFF75EFCE5
:201F600005490968814201D0802010BD002010BD00FF02000000010800FF03083EB5174B4B
:201F8000044600250A21186803E0B0FBF1F06D1CEDB20028F9D16A462946186808F0B6F958
:201FA0009DF8000020702E2060709DF80110A170E0709DF8020020719DF803006071202006
:201FC000A071002268462D1F05E08118A3180979521CD971D2B2AA42F7DB3EBDF8FF030822
:201FE00010B57F2005F080FB0A2007F045FB3F2005F07AFB0A2007F03FFBBDE810407F20F4
:2020000005F072BB2DE9F05FDFF8488200264FF4803A4FF4403B4FF4807900210846FFF716
:2020200029FF51460020FFF725FF4FF400310020FFF720FF59460020FFF71CFF4FF480214A
:202040000020FFF717FF4FF4A0210020FFF712FF0EB1552500E0AA25002041460D54401CDD
:2020600080B2FF28FAD900273C464A467949384607F098FA641CA4B207F58037062CF4D3B0
:2020800000273C464A467349384604F045FC0020414607F580370A5CAA4202D06020BDE8F5
:2020A000F09F401C80B2FF28F5D9641CA4B2062CE8D3761CB6B2022EAFD300210846FFF73A
:2020C000D9FE51460020FFF7D5FE4FF400310020FFF7D0FE59460020FFF7CCFE4FF48021EE
:2020E0000020FFF7C7FE4FF4A0210020FFF7C2FE00264FF4502B4FF4402A54465146002049
:20210000FFF7B8FE59460020FFF7B4FE4FF460210020FFF7AFFE4FF470210020FFF7AAFE93
:202120000EB1552500E0AA25002041460D54401C80B2FF28FAD9A246274600244A46454990
:20214000384607F02FFA641CA4B207F58037042CF4D3574600244A463E49384604F0DCFB40
:202160000020414607F580370A5CAA4201D0612095E7401C80B2FF28F6D9641CA4B2042C5B
:20218000E9D3761CB6B2022EB7D351460120FFF771FE59460120FFF76DFE4FF460210120AC
:2021A000FFF768FE4FF470210120FFF763FEDFF8A8B000264FF4801A544651460020FFF7FE
:2021C00059FE59460020FFF755FE4FF481110020FFF750FE21490020FFF74CFE0EB1552564
:2021E00000E0AA25002041460D54401C80B2FF28FAD9A246274600244A461649384607F0C3
:20220000D1F9641CA4B207F58057042CF4D3574600244A460F49384604F07EFB0020414619
:2022200007F580570A5CAA4201D0622037E7401C80B2FF28F6D9641CA4B2042CE9D3761C30
:20224000B6B2022EB8D351460120FFF713FE002025E70000081000200010100000301000D8
:202260002DE9F04107460C464FF00008B4F5803F3AD918E0B4F5806F01D2A5B201E04FF4D8
:2022800080652A462849384604F046FB002606E02548805D40441FFA80F8701C86B2AE42A6
:2022A000F6DB2F44641BB4F5803FE3D819E0B4F5806F01D2A5B201E04FF480652A461A49A1
:2022C0004FF4403004F028FB002606E01648805D40441FFA80F8701C86B2AE42F6DB2F44E0
:2022E000641B002CE3D11BE018E0B4F5806F01D2A5B201E04FF480652A460B49384604F08B
:202300000BFB002606E00848805D40441FFA80F8701C86B2AE42F6DB2F44641B002CE4D111
:202320004046BDE8F08100000810002001488069704700008800002070B50446E520207034
:20234000422060707A20A07004F05CFD04F052FB04F0ACFC002505E05648415DE81C2154B8
:20236000681CC5B2102DF7DB53480088000AE07451480078207551480068000E60754F48B1
:202380000068000CA0754D480088000AE0754B4800782076002508E04948284490F8E81706
:2023A00005F119002154681CC5B20C2DF4DB002506E04448415D05F125002154681CC5B2D6
:2023C0000E2DF6DB3F48807B04F8330F3D48C07B60703C48B0F84400000AA070394890F80E
:2023E0004400E0703748B0F86600000A2071354890F8660060713348B0F86A00000AA0713D
:20240000304890F86A00E0712E48B0F86E00000A20722C4890F86E0060722A48007CA0729D
:20242000333C10222749243104F14000FDF79CFE244890F8460084F85000224890F8640017
:2024400084F851001F48806CC4F85200002516E01C484C3030F81510680056302152194844
:20246000543030F8151068005E30215215485C3030F81510680066302152681CC5B2042D4F
:20248000E6DB1148006844F86E0F0E48808BA0800C48C08BE0800B48008C20810948408CE4
:2024A00060810A480088A08109480088E0816E3C70BD0000E0FF0308FCFF0008F8FF030840
:2024C00000F0FF1FC405002050060020F0FF0308F4FF0308F8B500260446009690F8240038
:2024E000012808D0012084F824002046FDF77EFF070002D04BE00220F8BDA06A20F4885072
:2025000040F00200A062022001F02AFA22490968B1FBF0F0400000E0401E00900028FBD1E6
:202520002046FDF789FF2068816841F00801816000F0E4FE054604E000F0E0FE401B0A28D1
:2025400011D8206880680007F6D42068816841F00401816000F0D2FE05460EE000F0CEFE14
:20256000401B0A2809D9A06A20F0020040F01000A06284F824600120F8BD20688068400701
:20258000ECD4A06A20F0020040F00100A06284F824603846F8BD000084000020F8B5002385
:2025A000009390F824209E46012A1ED0012280F824204A681F254FF47874072A17D2066833
:2025C000776B94FAA4FCBCFA8CFC521E02FB0CFC05FA0CF5AF4394FAA4F4B4FA84F40D6885
:2025E000624395402F4377632DE00220F8BD06680D2A14D2376B94FAA4FCBCFA8CFCD21FA7
:2026000002FB0CFC05FA0CF5AF4394FAA4F4B4FA84F40D68624395402F43376313E0F76A28
:2026200094FAA4FCBCFA8CFC0D3A02FB0CFC05FA0CF5AF4394FAA4F4B4FA84F40D6862438A
:2026400095402F43F7620A683825072604680A2A14D3E76895FAA5FCBCFA8CFC0A3A02FB59
:202660000CFC06FA0CF6B74395FAA5F5B5FA85F58E686A4396403743E76012E0276995FAB9
:20268000A5FCBCFA8CFC02FB0CFC06FA0CF6B74395FAA5F5B5FA85F58E686A439640374315
:2026A00027610A68102A01D0112A20D1124C0268A24217D19468240219D4946844F400040E
:2026C00094600968102912D10C490D4A0968B1FBF2F101EB8101490000E0491E0091002915
:2026E000FBD104E0816A41F020018162012380F824E01846F8BD000000240140840000204E
:2027000040420F000068C06C704700002DE9F04104004FF0000514D0A06A002628B9E66211
:2027200084F82460204600F091F82046FDF75EFEA16A01F01001014304D0A06A40F0100095
:20274000A0627AE0A16A21F4885141F00201A1623B492368E2698B4204D1B2F5402F01D109
:202760004FF40022022191FAA1F1E768B1FA81F107FA01F10A4361684FF4807C0A43A168AA
:20278000614508D0012906D00021D4F814E0BEF1010F02D00AE06146F7E7C7B1A76A47F01A
:2027A0002007A762E76A47F00107E7625F6827F469470F435F6021688B68224F3B401343AF
:2027C0008B60A168614510D001290ED016E04FF4604EA7699EFAAEFEBEFA8EFE7F1E07FA5A
:2027E0000EF70F4347F40061E0E74FF47001256991FAA1F1B1FA81F16D1E8D402168CB6A8D
:2028000023F470032B43CB62216889680E4B1940914208D1E662A16A21F0020141F0010121
:20282000A162BDE8F081A06A20F0020040F01000A062E06A40F00100E0620120F1E700006B
:20284000003C0140FDF7E1FFFE0E1FFF00B500680B4985B0884210D10A48816941F40071CA
:2028600081618069694600F4007004900F20009003200190044800F045FC05B000BD000084
:202880000024014000100240001001402DE9F8434FF000080D460446CDF8008000F02EFD9B
:2028A000064620688168C90508D5A06A40F02000A06284F824800120BDE8F8834168C9057C
:2028C00003D4C06A10F4700F25D0022001F048F837490968B1FBF0F720680169354A1142E4
:2028E0004FEA62024FEAA2131AD1C1684FEA621C11EA0C0F14D10169114220D1C068184257
:202900001DD114201EE0681C05D035B300F0F6FC801BA84221D8206800688007F3D529E0AE
:202920000169114202D1C168194206D0026922490A4206D1C068084203D1542002E02920CF
:2029400000E0FC204743009812E0681C0DD025B100F0D4FC801BA84207D9A06A40F00400CD
:20296000A06284F824800320A6E70098401C0090B842EAD321686FF012000860A06A40F4AA
:202980000070A06220688068C0F3424007280CD1E06850B9A06A20F48070A062A06AC004E5
:2029A00003D4A06A40F00100A062002084E7000084000020244992244992240070B5044643
:2029C00090F8240001280DD0012084F824002046FDF732FD01004FF0000205D084F8242024
:2029E000084670BD022070BDA06A40F20123984340F48070A0621F4D20681F4BA84218D17B
:202A00001E6816F4702F14D0A66A46F48016A6621E68760505D5A66A26F4005646F4805650
:202A2000A662A66AF6040AD5E66A26F00606E66206E0A66A26F48016A6624668E9E7E2627B
:202A400084F824206FF00202026020688268C2F34242072A05D1A84208D11A6812F4702F55
:202A600004D0826842F480128260B9E7826842F4A002F9E7002801400424014070B54379F9
:202A8000012B1AD00124447102230371D1E900310B4301680D6840F6FE769640B54393404B
:202AA0001D430D6001680B68C0259540AB430B60047100214171084670BD022070BD70B523
:202AC000040003D02079002510B105E0012070BD6571204600F008F80220207125610120E7
:202AE0002071002070BD000000B500680B4985B0884210D10A48C16941F00051C161C0695E
:202B0000694600F0005004903020009003200190044800F0F7FA05B000BD0000007400404B
:202B2000001002400008014018B5046800940068104421B1143000900360002018BD08303B
:202B4000F9E730B54279012A12D001234371022202710268146803FA01F52C431460002994
:202B600001680A6806D0C2F383420F2A0AD00DE0022030BDC2F383020F2A07D14A6842F0EC
:202B8000010202E04A6842F002024A60037100214171084630BD00002DE9F05F0446F84A4B
:202BA000F74DF74EF64F0068DFF8D493DFF8D0A3DFF8CCB3D114783D643E503F4FF4000EE5
:202BC0004FF4004C4FF40028A9F13C09AAF1280AABF1140B904221D9EA4A1368A8420FD050
:202BE000B0420FD0B84213D0484513D0504513D0584501D1724624E0E24A083290423CD1CF
:202C000008221EE080221CE0DE4A3032904239D10A4616E0624614E0424612E0D84A803A50
:202C20001368A842ECD0B042ECD0B842F0D04845F0D05045F0D05845DCD0D14A9042DBD187
:202C40000205134279D00268D243120775D4026822F008020260CA4A2068904232D9A842A3
:202C600019D0B0421DD0B84228D0484523D0504523D058450BD1714620E0C24A1C32904236
:202C8000C2D1BFE7BF4A44329042C5D1C2E7BD4A0832904201D1082110E0BA4A1C32904249
:202CA00001D180210AE0B74A3032904206D0B5494431884201D1614600E04146B148001D79
:202CC00001602CE0A84214D0B04218D0B84223D048451ED050451ED0584501D171461BE0D3
:202CE000904202D14FF0006116E0A64A0832904201D1082110E0A34A1C32904201D1802132
:202D00000AE0A04A3032904206D09E494431884201D1614600E04146994880384160606BCA
:202D200040F001006063042084F82100002084F82000216B09B120468847914A206811151E
:202D40004FF4800E4FF4804C4FF48028904221D98C4A1368A8420FD0B0420FD0B84213D014
:202D6000484513D0504513D0584501D1724624E0844A083290423FD104221EE040221CE0D4
:202D8000804A303290423CD10A4616E0624614E0424612E07A4A803A1368A842ECD0B0423B
:202DA000ECD0B842F0D04845F0D05045F0D05845DCD0734A9042DBD1C204134275D00268AD
:202DC000D243520771D40268920603D4026822F0040202606A4B2068984232D9A84219D08E
:202DE000B0421DD0B84228D0484523D0504523D058450BD1714620E0624A1C329042BFD16E
:202E0000BCE7604A44329042C2D1BFE75D4A0832904201D1042110E05A4A1C32904201D1B4
:202E200040210AE0574A3032904206D055494431884201D1614600E041465248001D0160C7
:202E40002CE0A84214D0B04218D0B84223D048451ED050451ED0584501D171461BE09842D8
:202E600002D14FF0806116E0464A0832904201D1042110E0434A1C32904201D140210AE01C
:202E8000404A3032904206D03E494431884201D1614600E041463A4880384160112084F870
:202EA0002100E16A09B120468847DFF8D4C04FF4007120680B014FF4003E604523D9314A67
:202EC000D2F80080A84210D0B04210D0B84214D0484514D0504514D0584502D14FF400127F
:202EE00024E0284A0832904240D102221EE020221CE0244A303290423DD10A4616E01A4689
:202F000014E0724612E01E4A803AD2F80080A842EBD0B042EBD0B842EFD04845EFD05045BB
:202F2000EFD05845DAD06045DBD1120218EA020F7DD00268D24392077DD40268920603D484
:202F4000026822F0020202602068604536D9A8421DD0B04221D0B8422CD0484527D050458A
:202F600027D0584510D14FF4001123E0054A1C329042BED1BBE7034A44329042C1D1BEE719
:202F800080000240000402402C4A904201D1022110E02A4A1432904201D120210AE0274A02
:202FA0002832904206D025493C31884201D1194600E071462148001F01602BE0A84214D0E0
:202FC000B04218D0B84223D048451ED050451ED0584502D14FF400111AE0604502D14FF0B7
:202FE000007115E0154A904201D1022110E0134A1432904201D120210AE0104A283290425D
:2030000006D00E493C31884201D1194600E071460B484160606B6063012084F82100002024
:2030200084F82000A16A002905D0204600E002E0BDE8F05F0847BDE8F09F000008040240FE
:203040000000024070B520B190F82110002411B103E0012070BD80F82040022180F82110C4
:2030600001680A6843F6F0739A43D0E901352B43D0E9035635432B4345692B4385692B432F
:20308000C5692B4313430B604463012180F82110002070BD70B5044690F82000012823D0E1
:2030A000012084F82000022084F821002068056825F0010505602046FEF712FE20680168C3
:2030C00041F0020101602068016841F0040101602068016841F0080101602068016841F025
:2030E00001010160002070BD022070BD31B500F005F9044600F002F90099001B8842F9D37E
:2031000038BD00002DE9F84FDFF8BC91002309F1040A0AF1040B1C464FF00F080BF1040E3E
:2031200001270A68A7403A40BA4272D1DFF89CC14D68A5EB0C0665452BD00DDC032D34D008
:2031400005DC35B3012D19D0022D2FD11BE0112D16D0122D2AD119E0B6F5881F19D006DCF1
:20316000B6F5803F15D0B6F5801F1FD111E0B6F5001F0ED0B6F5041F18D10AE0CB6815E064
:20318000CB681B1D12E0CB6808330FE0CB680C330CE08B682BB1012B4FF0080303D0476157
:2031A00004E0042302E0076100E00023FF2A01D8064601E000F104064FEA840501D9A5F15B
:2031C0002005376808FA05FC27EA0C0703FA05F547EA050737604D68ED006ED53C4DAE69B4
:2031E00046F00106AE61AD6924F0030605F001050095384D7719BE68A5072D0F08FA05FC9A
:2032000026EA0C06DFF8D0C0604503D14FF0000C25E052E0DFF8C4C0604502D14FF0010C0B
:203220001DE0DFF8BCC0604502D14FF0020C16E0DFF8B0C0604502D14FF0030C0FE0DFF8B0
:20324000A8C0604502D14FF0040C08E0DFF89CC0604502D14FF0050C01E04FF0060C0CFA24
:2032600005FC4CEA060CC7F808C04D68D9F80060ED034D4601D5164300E096432E604D68EA
:20328000DAF80060AD03554601D5164300E096432E604D68DBF80060ED025D4601D5164392
:2032A00000E096432E604D68DEF80060AD02754601D5164300E096432E60641C102CFFF44D
:2032C0002FAFBDE8F88F00000004014000001110001002400000014000080140000C014055
:2032E000001001400014014000180140001C01400AB1016170470904FBE7000001480068FE
:20330000704700001004002002480168491C01607047000010040020074810B5016841F0B0
:2033200010010160032000F08FF8002000F006F800F016F8002010BD0020024010B5044617
:2033400000F0E4FC4FF47A71B0FBF1F001F0D9FC00222146501E00F057F8002010BD0000FA
:20336000214808B5816941F001018161806900F001000090032000F067F8002211466FF074
:203380000B0000F041F8002211466FF00A0000F03BF8002211466FF0090000F035F80022D4
:2033A0001146501F00F030F800221146101F00F02BF800221146901E00F026F800221146C6
:2033C000501E00F021F800221146012000F01CF8012000F00DF80548416821F0E06141F049
:2033E0000071416008BD0000001002400000014000F01F02012191404009800000F1E020A5
:20340000C0F8001170470000F0B40E4B1B68C3F30223C3F10704042C00D904241D1D072D73
:2034200001D2002300E0DB1E012606FA04F56D1E0D409D409E40761E164045EA0601F0BC3E
:2034400002F00ABC0CED00E0064A00F0070110684FF6FF03184040EA01200349084310602A
:20346000704700000CED00E00000FA05BFF34F8F05480168054A01F4E06111430160BFF38B
:203480004F8F00BFFDE700000CED00E00400FA0510B50C0605D501F07F0100EB4110283019
:2034A00003E000EB411000F5027099B232B101228272C180190C0181002010BD0022827256
:2034C0008180F9E7704700EB4112D0F81C04D26B04F04DBE00EB4112D0F81C04D2F81C22C4
:2034E00004F09ABE10B504460A460B0601F07F0004EB401101D5283101E001F5027108706F
:20350000D009487094F8E803012809D0012084F8E803206805F063FA002084F8E80310BDEB
:20352000022010BD70B50A460446090602F07F0003D504EB4011283103E004EB421101F5D1
:20354000027100258D700870D009487094F8E803012809D0012084F8E803206805F0DDFA78
:2035600084F8E853002070BD022070BD70B504460D460E0601F07F0004EB401101D5283143
:2035800001E001F502710870E80948700A61CB7094F8E803012809D0012084F8E803206891
:2035A00005F0F2F8002084F8E80370BD022070BD70B504460E4601F07F0004EB401101F5C0
:2035C000077100252CC101F81F5C01F8200D94F8E80301280AD0012084F8E80370062068C7
:2035E00005F0F5FA84F8E853002070BD022070BD70B50D460446090605F07F0003D504EB88
:203600004011283103E004EB451101F5027101228A700870E809487094F8E803012807D0BA
:2036200084F8E823206805F0ADFA680602D006E0022070BD04F57B71206805F06CFA002082
:2036400084F8E80370BD70B504460E4601F07F0004EB40113C3100252CC1012201F81F2C7D
:2036600001F8200D94F8E803012809D084F8E8237006206805F0ABFA84F8E853002070BD88
:20368000022070BD10B50446006805F081FB000402D5204602F0EBFE206805F079FB4005A1
:2036A0000CD5206830F8441F21F480610180204600F0EAF80021204600F0FBF8206805F080
:2036C00067FB400405D5206830F8441F21F480410180206805F05CFB800405D5206830F81E
:2036E000441F21F400510180206805F051FBC00413D5206830F8401F21F0040101802168DC
:203700004FF43D40A1F84000204600F0CAF8206830F8441F21F480510180206805F038FBCE
:2037200000051AD5206830F8441F21F400610180206830F8401F41F008010180206830F811
:20374000401F41F004010180206805F021FBC043C00402D5204600F0E1F8206805F018FB5D
:20376000800508D5206830F8441F21F400710180204600F09AF8206805F00AFBC00505D5C4
:20378000206830F8441F21F48071018010BD2DE9F04186B004004FF0000504D094F8E903B1
:2037A000002620B108E0012006B0BDE8F08184F8E863204600F04AF8032084F8E9032068CB
:2037C00005F0A2F904F11001142288466846FCF7CBFC94E80F0005F000F90021206805F0D0
:2037E000E8FA012704EB451080F8297000F8285F8581C670066146616D1C86610F2DF1D331
:20380000002104EB411080F8096280F80812818680F80B62C0F81862C0F81C62491CC0F861
:2038200020620F29EDD3142241466846FCF79CFC94E80F0005F05FF984F8246084F8E97368
:20384000206805F056F90020AEE7000008B500680B49884212D10B48C16941F40001C161EC
:20386000C069002200F40000009011461420FFF7CBFDBDE808401420FFF7BABD08BD0000DD
:20388000005C00400010024010B504460121D0F81C0404F093FDD4F81C04BDE8104004F0C8
:2038A0005CBDD0F81C0404F077BDD0F81C0404F079BD10B5044690F8E80301280BD0012026
:2038C00084F8E80384F82410206805F074FA002084F8E80310BD022010BDD0F81C2400F5A6
:2038E0007B71104604F07DBD10B5044690F8E803012810D0012084F8E80301462046FFF7A2
:20390000E1FD206805F0F3F8206805F033FA002084F8E80310BD022010BD000010B5044665
:20392000D0F81C0404F0AAFDA069002804D00348016841F00601016010BD000010ED00E008
:203940007047000010B5054C2068C00304D5FFF7F7FF4FF48030206010BD000014040140F1
:2039600010B5014636A086B01DC88DE81D0038A0384C006804900020042944D012DC0129E7
:2039800044D002293DD100F0DFF961684FF4804292FAA2F201F44041B2FA82F2D140491C18
:2039A00049002CE008292ED010292AD161682268D20126D54FF4701292FAA2F201F47010D4
:2039C000B2FA82F2D040C9031DF8000010D561684FF4003292FAA2F201F40031B2FA82F24D
:2039E000D14004AA515C1C4AB2FBF1F1484301E01A4948436168490203D440000321B0FB12
:203A0000F1F006B010BD00F0B7F9FAE7216AC1F30122012A03D1890701D5D003F1E7022A23
:203A200005D1616A890702D549F64040E9E7032AE7D121688903E4D54FF22440E1E70000CF
:203A400002030405060708090A0B0C0D0E0F1010010200000010024000127A0000093D00A8
:203A60002DE9F84304460078454EC00773D0F06940F08050F061F069424F00F080500090B2
:203A8000386840F480703860FFF738FC054604E0FFF734FC401B642832D83868C005F7D529
:203AA000306A10F4407050D0A18801F4407181424BD0306A01273B0493FAA3F1B1FA81F1AC
:203AC0008A00314920F440700A44C2F8007493FAA3F3B3FA83F301EB83010022C1F80024ED
:203AE0003062C00731D0FFF709FC054641F288394FF0020807E0FFF701FC411B494502D94A
:203B00000320BDE8F88398FAA8F0B0FA80F040F040004146B7EB501F01D130680BE091FA36
:203B2000A1F0B0FA80F040F04000B1EB501F01D1306A00E0706A98FAA8F1B1FA81F101F000
:203B40001F0207FA02F10842D5D0306A616820F44070084330622078800705D57068A16883
:203B600020F44040084370602078C00605D57068616920F48000084370600020C1E7000045
:203B80000010024000700040000042422DE9F047DFF8688104460E46D8F8000000F007002D
:203BA000B0420CD2D8F8001021F007013143C8F80010D8F8000000F00700B04273D1207863
:203BC0004F4F800705D57868A16820F0F000084378602078C00755D06068012201280CD066
:203BE000022828D0022393FAA3F1B1FA81F141F02001490904D0396803E04FF40033F2E7F5
:203C0000796A93FAA3F3B3FA83F303F01F039A40114248D0796821F0030101437960FFF718
:203C20006DFB0546606841F2883101280CD00228894615D022E04FF00073D4E7FFF75EFB7C
:203C4000411B494501D916E089467868C0F381000128F3D116E0FFF751FB411B49450AD8D6
:203C60007868C0F381000228F5D10BE0FFF746FB411B494502D90320BDE8F087786810F03A
:203C80000C0FF3D1D8F80010404601F00701B1420BD9016821F0070131430160006800F060
:203CA0000700B04201D00120E6E72078400705D57868E16820F4E060084378602078000754
:203CC00006D57868216920F4605040EAC100786000F052F87968F02292FAA2F201F0F001E9
:203CE000B2FA82F2D140074A515CC840064908600020FFF723FB0020BEE70000002002407B
:203D0000001002407CAD0108840000200148006870470000840000200848094900684968B4
:203D20004FF4E06292FAA2F201F4E061B2FA82F2D140044A515CC840704700008400002019
:203D4000001002408CAD010808480949006849684FF4605292FAA2F201F46051B2FA82F239
:203D6000D140044A515CC8407047000084000020001002408CAD010810B519A085B00FC8B6
:203D80008DE80F001AA01B4B0068049059681A4801F00C02042A1DD0082A1BD14FF4701461
:203DA00094FAA4F401F47012B4FA84F4E240C9031DF8022010D559684FF4003393FAA3F3DC
:203DC00001F40031B3FA83F3D94004AB595CB0FBF1F0504305B010BD08485043FAE70000B8
:203DE00002030405060708090A0B0C0D0E0F1010010200000010024000127A0000093D0005
:203E00002DE9F84F04460078FE4EC0074FF001057FD070684FF40038C0F38100012807D055
:203E20007068C0F3810002281BD17068C00318D598FAA8F0B0FA80F040F02000400901D02A
:203E4000306800E0706A98FAA8F1B1FA81F101F01F0105FA01F108425BD06068002879D018
:203E600057E06068B0F5803F0BD010B1B0F5A02F11D0306820F480303060306820F48020B6
:203E800002E0306840F480303060606818B3FFF735FA074609E0306840F480203060F0E773
:203EA000FFF72CFAC01B642870D898FAA8F0B0FA80F040F02000400901D0306800E0706A37
:203EC00098FAA8F1B1FA81F101F01F0105FA01F10842E5D01DE0FFF711FA074604E0FFF774
:203EE0000DFAC01B6428DFD898FAA8F0B0FA80F040F02000400901D0306800E0706A98FA0B
:203F0000A8F1B1FA81F101F01F0105FA01F10842E5D12078DFF8F08280074FF0000A4FF0F9
:203F200002075AD570684FF0F80B10F00C0F07D07068C0F3810002281CD17068C00319D492
:203F400097FAA7F0B0FA80F040F02000400902D0306801E08AE0706A97FAA7F1B1FA81F1B1
:203F600001F01F0105FA01F108422BD0206901287CD127E0206988B395FAA5F0B0FA80F0F2
:203F800048F82050FFF7BAF9814606E04DE1FFF7B5F9A0EB0900022886D897FAA7F0B0FA5B
:203FA00080F040F02000400901D0306800E0706A97FAA7F1B1FA81F101F01F0105FA01F18D
:203FC0000842E4D030689BFAABF220F0F8016069B2FA82F290400143316025E0FFE795FA08
:203FE000A5F1B1FA81F148F821A0FFF787F9814605E0FFF783F9A0EB09000228CCD897FA86
:20400000A7F0B0FA80F040F02000400901D0306800E0706A97FAA7F1B1FA81F101F01F01DC
:2040200005FA01F10842E4D1207800076DD5A069B8B395FAA5F0B0FA80F008EB8000C0F8D2
:204040008054FFF75BF9814605E0FFF757F9A0EB09000228A0D897FAA7F0B0FA80F040F0A8
:204060006000B5EB501F02D130680CE063E197FAA7F0B0FA80F040F06000B7EB501F01D181
:20408000306A00E0706A97FAA7F1B1FA81F101F01F0105FA01F21042D7D00120FFF726F855
:2040A00033E0FFE795FAA5F1B1FA81F108EB8101C1F880A4FFF722F9814605E0FFF71EF9A9
:2040C000A0EB0900022899D897FAA7F0B0FA80F040F06000B5EB501F01D130680BE097FAEA
:2040E000A7F0B0FA80F040F06000B7EB501F01D1306A00E0706A97FAA7F1B1FA81F101F011
:204100001F0105FA01F21042D8D12078400763D5F06940F08050F061F069DFF8F0B000F011
:2041200080500090DBF8001041F48071CBF80010FFF7E4F8814605E0FFF7E0F8A0EB090063
:20414000642872D8DBF80000C005F5D5E06801280AD008B1052813D0306A20F001003062D6
:20416000306A20F0040002E0306A40F001003062E06841F2883B80B3FFF7C0F881460AE082
:20418000306A40F004003062EEE7FFF7B7F8A0EB0901594549D897FAA7F0B0FA80F040F07F
:2041A0004000B5EB501F01D130680BE097FAA7F0B0FA80F040F04000B7EB501F01D1306A2C
:2041C00000E0706A97FAA7F1B1FA81F101F01F0205FA02F10842D8D033E0FFE7FFF78EF874
:2041E000814605E0FFF78AF8A0EB090159451CD897FAA7F0B0FA80F040F04000B5EB501FB3
:2042000008D105E000100240000042420070004030680CE097FAA7F0B0FA80F040F0400024
:20422000B7EB501F02D1306A01E08AE0706A97FAA7F1B1FA81F101F01F0205FA02F1084247
:20424000D0D1E06998B37168C1F38101022972D002284FF080714FF0007B50460AD091FA9E
:20426000A1F1B1FA81F148F82100FFF747F804465F4669E08A4691FAA1F1B1FA81F1C146B0
:2042800048F82100FFF73AF8A84607465D4604E0FFF734F8C01B022853D895FAA5F0B0FAB3
:2042A00080F040F02000400902D0306801E060E0706A95FAA5F1B1FA81F101F01F0208FA3A
:2042C00002F10842E4D1206AB0F5803F05D17068A16820F4003008437060D4E908010843D7
:2042E000716821F47411084370609AFAAAF0B0FA80F0474649F82080FFF700F8044604E05E
:20430000FEF7FCFF001B02281BD895FAA5F0B0FA80F040F02000400901D0306800E0706A7B
:2043200095FAA5F1B1FA81F101F01F0107FA01F10842E5D01DE01EE0FEF7E0FF001B022824
:2043400002D90320BDE8F88F97FAA7F0B0FA80F040F02000400901D0306800E0706A97FAA4
:20436000A7F1B1FA81F101F01F0105FA01F10842E2D10020E6E70120E4E7704710B5040030
:2043800003D094F8510010B104E0012010BD204600F038F8022084F851002068016821F063
:2043A00040010160D4E901010843D4E903121143084361690843218B01F400710843E16924
:2043C0000843216A0843A16A084321680860A069042101EA1040616A08432168486021683C
:2043E000E06A08612068C16921F40061C1610449002008706065012084F85100002010BD3B
:20440000140400202DE9F043044600682F4985B0884258D12E48C16941F48041C161C069E8
:204420002C4F00F4804004904FF42040009002204FF0030901906946CDF80C903846FEF705
:2044400061FE00254FF48040CDE90005694638460295FEF757FE214E1F484FF08008C6E9C0
:204460000005C6E9025835617561B5613046F561FEF7E8FD08B1FDF73FFD6664746216481F
:20448000174E143001C61020A6E82101144846F810597561B561F561FEF7D4FD08B1FDF714
:2044A0002BFD266474624FF480540120CDE900406946CDF80C903846FEF724FE0122214617
:2044C0003846FEF715FF05B0BDE8F0830038004000100240000C0140440002406006002065
:2044E000980600202DE9F84F00259A460446ADF8005090F8510001287ED1E9B3E2B394F84F
:204500005000012878D0012784F85070222084F851006565A163A287E287A564E56425632D
:20452000A586E586A0684FF40049484504D12068036823F480430360A06A4FF40056B0422A
:2045400009D12068036823F4005303602068036843F40053036060684FF48278404501D185
:20456000A06878B120680168490603D4016841F040010160E06800E001E0E8B131E00120E3
:20458000BDE8F88F84F8505013460A462046CDF800A000F0D1F9F3E7534600220121204688
:2045A00002F08CFD48BB2068C168A06B421CA2630170E08F401EE087E08F0128ECD813E06A
:2045C000534600220121204602F078FDA8B92068C068A16B0880A06B801CA063E08F401E15
:2045E000E087E08F0128EBD8A06AB04207D12068016841F4805101E068E007E00160534624
:2046000000220121204602F059FD08B10320B7E7E0680028206817D0C068A16B0880A06B88
:20462000801CA063E08F401EE087A06AB04217D1534600220121204602F040FD50B1606D83
:2046400040F002006065E1E7C168A06B421CA2630170E7E72068C068ADF80000BDF80000BB
:20466000606840450AD1A068484502D0B0F5806F04D12068016821F04001016084F8517061
:20468000A06AB0420DD120688068C043C00608D4204602F003FD012807D021686FF01000DB
:2046A000886084F8505000206AE7606D40F0020060652068016821F4005101602068016818
:2046C00041F40051016084F8505058E7022057E770B5044690F85100012860D1D1B1CAB199
:2046E00094F8500001285AD0012084F85000222084F8510000256565A163A287E287A56401
:20470000E5642563A586E586A068B0F5004F03D040B10BE0012070BD2068016821F4804172
:20472000016003E06068B0F5827F04D0A06AB0F5005F09D012E084F850502046BDE8704043
:2047400013460A4600F052BA2068016821F4005101602068016841F400510160616C1148FE
:20476000C862616C10488862616C104808632168E38F0C31A26B606CFEF78CFC20684168B1
:2047800041F00101416084F8505020680168490603D4016841F040010160002070BD022067
:2047A00070BD0000EF6E0108036F0108D16E010810B50446012211030848FEF799FD084832
:2047C000007818B101200749087005E00648007810B101200549087010BD0000000C014042
:2047E000A9030020A7030020AA030020A803002070472DE9F843044690F851009846012859
:2048000070D139B332B394F8500001286AD0012784F85070122084F851000026666521636F
:20482000A286E286E664A664A663A687E687A06A7D03A84209D12068016821F400510160EB
:204840002068016841F400510160A068B0F5004F03D007E00120BDE8F8832068016841F463
:204860008041016020680168490603D4016841F040010160E0680028606804D0D8B1E08EC0
:20488000012818D021E010B1E08E012808D1206B411C216321680078C860E08E401EE0860E
:2048A0000004000C1FD0434600220221204602F005FCA8B9EBE7206B21680088C860206B50
:2048C000801C2063E08E401EE0860004000C0AD0434600220221204602F0F0FB0028EAD0AA
:2048E0000320B8E726E0A06AA84204D12068016841F480510160434600220221204602F0A9
:20490000DDFB30B9434601228021204602F0D6FB20B1606D40F010006065E1E7A06818B91C
:204920002068C1688068009084F8517084F85060002090E702208EE72DE9F8430026DDF86B
:2049400020800446ADF8006090F85100012803D094F8510022287DD169B162B15BB194F859
:204960005000012876D0012784F8507094F85100012803D005E00120BDE8F883322084F847
:2049800051006665A263A387E3872163A386E386A664E664A06A4FF40055A84209D120680A
:2049A000016821F4005101602068016841F40051016020680168490603D4016841F04001FD
:2049C0000160E0684FF48271B0F5006F606807D0002867D088426ED1E08E012862D06AE0CA
:2049E00020B188420CD1E08E012809D1206B21680088C860206B801C2063E08E401EE0862E
:204A0000E08E80B9A06AA84244D12068016841F4805101603EE02068C068A16B0880A06B21
:204A2000801CA0639EE0434600220221204602F045FB002874D1206B21680088C860206B37
:204A4000801C2063E08E401E0004000CE08609D1A06A00E0C7E0A84204D12068016841F4A5
:204A600080510160434600220121204602F026FB00286FD12068C068A16B0880A06B801C6B
:204A8000A063E08F401EE087E08E0028CBD1606800286AD1434600220121204602F00EFB54
:204AA000F0BBB8E7206B411C216321680078C860E08E401EE086E08E98B9A06AA84204D15D
:204AC0002068016841F480510160434600220121204602F0F3FA18BB2068C068A16B087065
:204AE00040E0434600220221204602F0E7FAB8B9206B411C216321680078C860E08E401EBD
:204B00000004000CE08607D1A06AA84204D12068016841F48051016000224346012100E079
:204B200018E0204602F0CAFAA0B92068C168A06B421CA2630170E08F401EE087E08E0028AE
:204B4000CFD1606888B9434600220121204602F0B5FA08B103200FE72068C168A06B421CEC
:204B6000A2630170E08F401EE087A06AA84210D1434600220121204602F0A0FA18B1606D61
:204B800040F002000FE02068C068ADF80000BDF80000434601228021204602F08FFA20B1EB
:204BA000606D40F010006065D4E784F85170A06AA84214D120688168C943C9060FD4616D55
:204BC00041F002016165016821F4005101602068016841F40051016084F85060CBE684F87A
:204BE00050600020C8E60220C6E6000070B5044690F8510001280AD06068B0F5827F71D16E
:204C0000A06800286ED194F8510022286AD1F1B1EAB1E3B194F85000012863D0012084F81D
:204C2000500094F85100222802D0322084F85100002565652163A386E386A263A387E3876E
:204C4000A564E564A06AB0F5005F02D00BE0012070BD2068016821F4005101602068016840
:204C600041F40051016094F85100222832D0616C1D48C8621D48616C1D4E8862606C06630C
:204C80002168E38F0C31A26B606CFEF703FA2068416841F00101416094F851003228206C49
:204CA0001ED005632268E38E0C32216B206CFEF7F1F920680168490603D4016841F040017C
:204CC00001602068416841F00201416084F85050002070BD616C0748C8620748CBE701E0DC
:204CE0000663DFE7022070BDF96E0108DD6F0108D16E0108EF6E0108036F010870477047DA
:204D0000704710B5401EB0F1807F01D3012010BD4FF0E02460610F21601700F09DFF002000
:204D2000A06107202061002010BD10B5FFF7E8FF10BD7047704730B590F83820012A20D020
:204D4000012380F83830022280F839200268546824F070045460026854680D682C4354603A
:204D60000268946824F0800494600268946849680C43946080F83930002180F838100846D7
:204D800030BD022030BD10B5040003D094F8390010B107E0012010BD002084F838002046E6
:204DA00000F00CF8022084F83900211D206802F0EDFD012084F83900002010BD00B50068A6
:204DC0002F4A304985B0904221D1C86940F00200C861C869694600F0020004904020009006
:204DE0000020019002902848FEF78CF9002211461D20FEF709FB1D20FEF7FAFA234841689D
:204E0000234A21F0A0611143416005B000BD214A90420ED1C86940F00400C861C8690022AF
:204E200000F00400049003211E20FEF7EDFA1E2010E0194A904210D1C86940F01000C861CE
:204E4000C869002200F01000049011463620FEF7DBFA3620FEF7CCFAD7E7104A9042D4D154
:204E6000C86940F02000C861C869002200F02000049011463720FEF7C7FA3720EAE7000005
:204E800000040040001002400010014000000140000C0002000800400010004000140040F0
:204EA0000168CA6842F00102CA600068016841F001010160002070470168CA6822F001020C
:204EC000CA600068016A41F21112114207D1016A9210114203D1016821F001010160002023
:204EE000704770B5044690F83800012817D0012584F83850022084F839002068826822F037
:204F0000770222F47F4282600868502836D00DDC202858D005DC80B3102840D150E0022069
:204F200070BD302852D0402839D13EE060282DD070280BD0B0F5805F03D0B0F5005F2ED1E8
:204F400010E02068816821F0070109E0CB68D1E90121206802F067FD2068816841F07701E7
:204F600081601CE0CB68D1E90121206802F05BFD2068816841F48041F2E71EE0CA68496852
:204F8000206802F062FD5021206806E0CA684968206802F0A1FD6021206802F04EFD84F89C
:204FA0003950002084F8380070BDCA684968206802F04BFD40212068EFE700212068ECE787
:204FC00010212068E9E720212068E6E730212068E3E7000070B50446007E01281FD1124DAA
:204FE000687AE8B1687AA97A884215D12068406B2882E989401A80B26882A97A0B4A5143B0
:20500000B1FBF0F0E8610020E8720146204600F0B9F82046FFF750FF687A401C687270BD03
:205020002068406BE881F7E788000020001BB7002DE9F041044690F838000D4601283CD0A3
:20504000012684F83860022084F83900A2B3042A45D02068082A54D0D5E90027E968036A25
:2050600023F480530362D0F81CC0036A2CF4407C4CEA07274FF6FF7C27F470470CEA0131D6
:2050800039434FF4204723F4204307EA02321A43C16102622068C16921F44061C161206856
:2050A000C169AA6841EA0221C16184F83960002084F83800BDE8F08101E00220FAE7D5E9A3
:2050C0000012EB68206802F0D1FC2068816921F00C01816120688169AA6811430FE0D5E92D
:2050E0000012EB68206802F009FD2068816921F44061816120688169AA6841EA022181610D
:20510000D3E7D5E9002C2F7B016A21F480710162C169036A21F0030141EA0C0121F0F00C7C
:2051200039074FF420674CEA116123F4206307EA02221A43C16102622068C16921F00C015B
:20514000C1612068C169AA681143ADE710B5040003D094F8390010B107E0012010BD00206A
:2051600084F83800204600F00CF8022084F83900211D206802F00AFC012084F83900002096
:2051800010BD704710B50268044631B1042908D008291ED00C2908D11FE0D06820F00200B5
:2051A00002E0D06820F00400D0600022206802F02FFC2068016A41F21112114207D1016AEB
:2051C0009210114203D1016821F001010160002010BDD06820F00800E6E7D06820F01000C7
:2051E000E2E770B50446006801694FF00005C943890715D4C168C943890711D4E91E0161C9
:2052000001202076206880698007204602D0FFF7E1FE04E000F098F8204600F096F82576EF
:2052200020680169C943490717D4C168C943490713D46FF0040101610220207620688069DA
:2052400010F4407F204602D0FFF7C4FE04E000F07BF8204600F079F8257620680169C943F4
:20526000090716D4C168C943090712D46FF008010161042020762068C0698007204602D015
:20528000FFF7A8FE04E000F05FF8204600F05DF8257620680169C943C90617D4C168C94314
:2052A000C90613D46FF010010161082020762068C06910F4407F204602D0FFF78BFE04E099
:2052C00000F042F8204600F040F8257620680169C943C90708D1C168C943C90704D1891E53
:2052E0000161204600F032F820680169C943090609D4C168C943090605D46FF08001016183
:205300002046FFF716FD20680169C943490609D4C168C943490605D46FF04001016120462F
:2053200000F054F820680169C94389060BD4C168C943890607D46FF0200101612046BDE839
:205340007040FFF7F7BC70BD7047704770B50446006819490026194D884201D1EE61EE7249
:205360001749206888420AD16878401CC0B26870032804D36E70687908B900F095FA1149BF
:205380002068884210D12978491CC9B229700A290AD32E700122EA70A978491CC9B2A9707B
:2053A000022901D3AE702A710749884202D1A869401CA86170BD00000004004088000020B9
:2053C000000800400010004000140040704770B5040004D094F83900002510B106E001207B
:2053E00070BD84F83850204600F020F8022084F839002068C16821F40051C160204602F0A7
:2054000099FB2068016921F4904101612068416921F02A0141612068C16841F40051C16056
:20542000E563012084F83900002070BD10B50068114986B088421DD11048C16941F4802134
:20544000C161C0690E4C00F4802004904FF480600090022001900320039069462046FDF75A
:2054600051FEE114009100210191029169462046FDF748FE06B010BD004800400010024065
:20548000000C014018B5044609486A460321006804F03CFF9DF8000020702E2060709DF814
:2054A0000110A170E0709DF80200207118BD0000FCFF0008FEE7000070B50B4C0125C4F837
:2054C0009451022004F5C87404F0EAF82560022004F0E6F800206060022004F0E1F8BDE8CD
:2054E0007040022004F0DCB80000224270B50E4C0020C4F89001C4F89401022004F5C8745A
:2055000004F0CEF801252560022004F0C9F8022004F0C6F8022004F0C3F86560BDE8704090
:20552000022004F0BDB800000000224270B5044601201A49086004F0B3F800201849C1F848
:20554000A001012004F0ACF800251BE000201349086004F4004018B10120091D086003E05A
:2055600000200E49091D0860012004F099F801200A49086004F094F84FF6FF7000EA44043E
:20558000681CC5B2102DE1DB01200649086004F087F800200449C1F8A00170BDA0012242D3
:2055A00000002142A0012142000022422DE9F0473A480A21016001214160052181600146B4
:2055C0003748FCF7EBFF002280213648FDF790FE0A2004F051F84024002390221946204647
:2055E00001F0FEF8641CE4B26F2CF5D940242E4EDFF8B880DFF8B89008E0402C06D9601E86
:20560000002380B29022194601F0EAF80023A0221946204601F0E4F80A2004F02DF820482F
:20562000FDF7CCF932211E48FDF730F91C48FDF769F885B23068FAF72BFE07462846FAF78D
:2056400027FE4146FAF7B4FD4946FAF7B1FD3946FAF7E0FDFAF721FE80B264280DD2402470
:205660000023F0221946204601F0BAF8641CE4B26F2CF5D94120BDE8F087641CE4B26F2CE0
:20568000BBD940240023F0221946204601F0A8F8641CE4B26F2CF5D90020ECE74874002039
:2056A0003404002000080140BC0000203333C34000401C4510B54FF40040FFF737FF48F2B5
:2056C0000F10FFF733FF4FF41040FFF72FFF10BD10B500201E4908601E49C1F884011C4941
:2056E00008310860091D08601B490860091D0860194914310860091F08601849086016495A
:205700001C310860091D0860091D08604FF4004013490860012048600220C8601148FDF711
:20572000F1FC0F200E490860012048600220C8600D48FDF7E7FC4EF6804009490860012070
:2057400048600220C8600948FDF7DCFC10BD0000808121420080214298012242BC01214209
:205760000C07002000080140000C01400010014010B5402407E00023F0221946204601F014
:205780002FF8601CC4B26F2CF5DD1048008880B24CF20101884217D10023A02219464020DB
:2057A00001F01EF80023A0221946422001F018F80023A0221946542001F012F80023A022A3
:2057C0001946562001F00CF810BD0000AC00002010B501F067F8104908700846007808B9F9
:2057E000FCF77CF8002220210C48FDF781FD0A48007840B1084801780020FCF781FA0120E6
:205800000749087006E000200549087003F0D2FF03F06EFF10BD000040060020000C014050
:205820009400002010B5322003F026FF00F094F800F076F87C2005F067FA022003F030FF75
:20584000802005F061FA022003F02AFF382005F05BFA012003F010FF802005F055FA02204F
:2058600003F01EFF0C2005F04FFA012003F004FF802005F049FA022003F012FF012005F083
:2058800043FA012003F0F8FE802005F03DFA022003F006FF062005F037FA012003F0ECFE91
:2058A000BDE8104000F058B810B5322003F0E4FE00F052F800F034F87C2005F025FA0220DF
:2058C00003F0EEFE802005F01FFA022003F0E8FE382005F019FA012003F0CEFE802005F06B
:2058E00013FA022003F0DCFE0C2005F00DFA012003F0C2FE802005F007FA022003F0D0FE37
:20590000802005F001FA022003F0CAFE062005F0FBF9012003F0B0FEBDE8104000F01CB890
:2059200070B50B4C0125C4F8B051022004F5D87403F0B6FE0748C0F88851022003F0B0FE57
:2059400000202060BDE87040022003F0A9BE0000000022420080224270B50B4C0020C4F836
:20596000B001022004F5D87403F09AFE07480125C0F88851022003F093FE2560BDE87040FE
:20598000022003F08DBE0000000022420080224210B5FFF791FDA02004F032FA4FF0FF34C4
:2059A00050B9002004F02CFAFFF7A0FDFFF784FDA12004F025FA08B1204610BD04F0F8F9F5
:2059C000040203F03FFE04F0F3F9044404F040FCFFF78CFD20B210BD3EB510480E49012454
:2059E000016000218160C16041614FF460220461C2614160FCF78AFE00B1FEE70B20CDE9A1
:205A000000040520029069460448FCF7C7FD002800D0FEE73EBD0000002401403404002084
:205A20002DE9F0474A4886B0816941F020018161816901F020010491816941F01001816194
:205A4000816901F010010491816941F004018161816901F004010491816941F00801816148
:205A600080693C4F00F00800049000224FF405413846FDF73DFC012240F287213846FDF761
:205A800037FCDFF8D4A0002241F2CF015046FDF72FFC012230215046FDF72AFCDFF8BC8077
:205AA00000224FF6F0714046FDF722FCDFF8B090002204214846FDF71BFC4FF69070012425
:205AC000CDE900040225694603954046FDF71AFB48F28F70CDE90004694603953846FDF763
:205AE00011FB40200026CDE90006694602943846FDF708FB202000901120019069460395C5
:205B00004046FDF7FFFA2003CDE900040320039069465046FDF7F6FA0420CDE900046946C9
:205B200003954846FDF7EEFAFF20CDE90004694603955046FDF7E6FA4FF44070CDE900062A
:205B4000694602945046FDF7DDFA06B0BDE8F0870010024000080140000C01400010014094
:205B6000001401400E4810B50C4901604FF48271416000218160C1604FF400720161C0E945
:205B800005121822C0E90721416281620A21C162FEF7F4FB002800D0FEE710BD0038004009
:205BA0007804002010B51C488AB01A49016005210024C0E901144FF6FF71C0E90314FFF7AF
:205BC000E2F800B1FEE74FF48050049004A91248FFF787F900B1FEE70F48FFF7B7FA00B1EC
:205BE000FEE7089408A90C480994FFF7A4F800B1FEE70120CDE900400320CDE90240002206
:205C000069460548FFF714FA002800D0FEE70AB010BD000000040040D004002010B5002201
:205C20000849094802F06EFA0849074802F053FC0749054802F0A8F8BDE81040024802F027
:205C400097BC0000C00000201C0900200400002014010020FEE770470907090E002806DAA8
:205C600000F00F0000F1E02080F8141D704700F1E02080F8001470472DE9F04F87B0BC4810
:205C80000068007800287DD00A200490012005900520069004A9B748FCF780FC03900022B0
:205CA0008021B548FDF724FBB14800684678B04800688778AE4909680978B94201DA394677
:205CC00010E0AB49096891F800A00AEBDA714910B94206DAA64909680978C91BC1F1270133
:205CE00000E0791EA54A32F811000023A022194600F076FD4FF000090125F3E0022D03D019
:205D00009B480068405D00B9EAE0012437E0022C03D097480068005D00B92EE09449096822
:205D2000095D934A12681278914203DD90490968095D19E08E49096891F800A00AEBDA710F
:205D400049108B4A1268125D914209DA884909680978874A1268125D891AC1F1270103E099
:205D600083490968095D491E844A32F811000023F022194600F034FD00BF601CC4B28048E2
:205D8000007800E0E5E08442C1DB79490968495D774A12681278914203DD75490968495D5E
:205DA00019E07349096891F800A00AEBDA7149106F4A1268525D914209DA6D4909680978BB
:205DC0006B4A1268525D891AC1F1270103E068490968495D491E694A32F811000023902293
:205DE000194600F0FDFC0A2003F046FC75E06148FCF7E4FD32215F48FCF748FD03905D48C0
:205E0000FCF780FC1FFA80F85E480068FAF740FA02904046FAF73CFA5B490090FAF7C8F924
:205E200083465A49FAF7C4F901900299FAF7F2F98246FAF732FA1FFA80F8B8F5617F02DC5F
:205E4000B8F1640F48DA4846411C01F0FF09032803DA642003F010FC3FE001242FE04449B5
:205E60000968095D424A12681278914203DD40490968095D19E03E49096891F800A00AEB99
:205E8000DA7149103A4A1268125D914209DA384909680978364A1268125D891AC1F12701E2
:205EA00003E033490968095D491E344A32F811000023F022194600F093FC601CC4B230480F
:205EC00000788442CBDB012280212B48FDF710FA992007B0BDE8F08F00E088E700BF00BF48
:205EE000681CC5B2264800788542FFF607AF204909680978B14201DA314610E01C490968E9
:205F000091F800A00AEBDA714910B14206DA184909680978891BC1F1270100E0711E174A4B
:205F200032F811000023F022194600F059FC1849C97B174A927B02EBC20303EB021201EB9A
:205F4000820001F069FC012280210B48FDF7D0F90BE00F49C97B0E4A927B02EBC20303EB09
:205F6000021201EB820001F057FC0020B1E7000018040020340400200008014008B2010803
:205F80001C040020BC0000203333C34000401C45C40500202DE9F04F4FF0000989B0CB460B
:205FA000CDF80090CDF81490CDF81090CDF80890CA4641F28830CDF8049003F01FFAFF48BA
:205FC0000A210125C0E90015052181600146FC48FCF7E4FA00228021FA48FDF789F90A20AA
:205FE00003F04AFB40240023F0221946204600F0F7FB641CE4B26F2CF5D900244FF002083D
:20600000F14F22E00CB34FF0FF3000EB440028284FEA440001DD401E00E0801E002337F809
:206020001000F022194600F0DBFB2820B0EB440F4FEA440000D3401E002337F81000F022C1
:20604000194600F0CDFB0A2C22D2012505EB440028284FEA440000D9401C002337F8100041
:206060009022194600F0BCFB08EB4400282846464FEA440001D9801C00E0401C002337F8D4
:206080001000A022194600F0ABFBB046CF4E1EE0012000EB440028284FEA440000D9401CD6
:2060A000002337F81000A022194600F099FB08EB440028284FEA440001D9801C00E0401C23
:2060C000002337F810009022194600F089FB0A2003F0D2FABA48FCF771FC3221B848FCF748
:2060E000D5FBB748FCF70EFB85B23068FAF7D0F803902846FAF7CCF8B549FAF759F8B54959
:20610000FAF756F80399FAF785F8FAF7C6F880B2B0F5617F11D909F1010000F0FF09062CC1
:2061200001D90F2C04D30198401CC0B201900EE00AF1010000F0FF0A09E0642804D20298B3
:20614000401CC0B2029002E044F080000590641CE4B2142CFFF456AF0023B7F84C00F02236
:20616000194600F03DFB0023B7F84E00F022194600F036FB41F2883003F040F942F210701B
:2061800003F066F9642003F077FA002422E00CB34FF0FF3000EB440028284FEA440001DD98
:2061A000401E00E0801E002337F81000F022194600F016FB2820B0EB440F4FEA440000D3A9
:2061C000401E002337F81000F022194600F008FB0A2C21D2012000EB440028284FEA440055
:2061E00000D9401C002337F81000A022194600F0F7FA022000EB440028284FEA440001D90E
:20620000801C00E0401C002337F81000B022194600F0E6FAF4B31FE0012000EB44002828FD
:206220004FEA440000D9401C002337F81000B022194600F0D5FA022000EB440028284FEA80
:20624000440001D9801C00E0401C002337F81000A022194600F0C4FA0A2003F00DFA584853
:20626000FCF7ACFB32215648FCF710FB5448FCF749FA85B255480068FAF70AF806462846DA
:20628000FAF706F85249F9F793FF5249F9F790FF314600E00FE0F9F7BDFFF9F7FEFF80B2C7
:2062A000A0F504503438B0F5FA7F06D90098401CC0B2009004E06420CFE744F08000049030
:2062C000641CE4B2142CFFF462AF3F4C0023F02234F84C0F194600F083FA00236088F02234
:2062E000194600F07DFAB9F1140F02D10098142801D0002507E0302009B0BDE8F08F15B194
:20630000012D13D109E042F2283006904FF09008A026059F42F2341007E04FF46170B026D6
:20632000049F06904FF0A0086420039038066ED507F07F040A2C02D34046B0460646012037
:2063400000EB440028284FEA440000D9401C1E490023424631F81000194600F041FA022015
:2063600000EB440028284FEA440001D9801C00E0401C15490023324631F81000194600F0EE
:206380002FFA012251020F48FCF7B2FF0A2003F073F90B48FCF712FB32210948FCF776FA80
:2063A0000748FCF7AFF984B208480068F9F770FF07902046F9F76CFF05490DE04874002037
:2063C000340400200008014008B20108BC0000203333C34000401C45F9F7EAFE1D49F9F745
:2063E000E7FE0799F9F716FFF9F757FF069980B2884206D20399884203D90BF1010000F02B
:20640000FF0B00224FF400711348FCF771FF6D1CEDB2022DFFF473AFBBF1000F01D0312095
:206420006AE7029808B1402066E7B9F1140F06D00098142805D0019828B134205CE7322064
:206440005AE7332058E7BAF1000F01D0352053E7002051E700401C450008014010B50446FE
:20646000A02101EB042188B2FFF760F810BD2DE9FC5F04460020ADF80000ADF8040040F696
:206480008F7B4FF006094FF0020A4FF4806884E1BDF8001011F00F0628D030F82610ADF8F3
:2064A0000410BDF80410090475D530F8261001EA0B0120F8261004EB461595F8120205F520
:2064C00002750028206867D0297830F82120B0F8503052047CD50AEBC1015A1808EB420126
:2064E000415A8F05BF0D74D0EA88C7E0BDF80010C9062CD4018848F60F721140018020680E
:2065000004F12805B0F850202B780AEBC3010A4408EB4201405AC0F309006064E16B0844AF
:20652000E06300212046FCF7CEFF94F824000028ADD0A8690028AAD194F82400216840F05F
:206540008000A1F84C00002084F8240025E1018804F50275ADF80410BDF8041009051CD596
:20656000B0F850202B7809EBC3010A4408EB4201405A04F57B71C0F30903EB61AA882068E0
:2065800002F009FC2068018801EA0B0101802046FDF7A3F901E195E054E0BDF80410090424
:2065A000D4D5018801EA0B0101802068B0F850202B78464609EBC301114408EB4101405A86
:2065C00083059B0DEB610BD0AA886969206801E04AE057E002F0DFFBE96968690844686192
:2065E00000212046FCF776FF2068B0F85010891D06EB4101421828693E280CD9C0F34F11FA
:20660000C00601D1491E89B24FF6FF7000EA812040F4004009E0C0F34F01C00701D0491CA4
:2066200089B24FF6FF7000EA81201060206801884BF68F72114081F4405148F280021143B6
:206640000180AAE0B0F850202B7809EBC3010A4408EB4201415A8F05BF0D1FD0AA883B469B
:20666000696902F098FB19E009EBC1015A1808EB4201415A8F05BF0D04D02A893B46696997
:2066800002F089FB2978206830F8212048F68F731A4048F2C0031A4320F82120E8693844D8
:2066A000E8616869C2196A61AB6913B12869B84204D929782046FCF70DFF03E029782046EA
:2066C000FCF776FFBDF80400000666D5206804EB461530F8261048F60F72114020F82610CA
:2066E00095F8320028350028206812D0297830F82120B0F8503052061ED50AEBC1015A1846
:2067000008EB4201405A83059B0DEB6123D0EA881DE0B0F850202B780AEBC3010A4408EB16
:206720004201405A83059B0DEB6120D0AA886969206802F046FB1AE009EBC1015A1808EB3C
:206740004201405A83059B0DEB6104D02A896969206802F036FB2978206830F8212048F60C
:206760008F731A404CF280031A4320F821202068B0F850202B780AEBC3010A4408EB4201C6
:20678000405AC0F30900E86169690A186A612978AB69204663B1FCF756FF2068B0F84410A0
:2067A000ADF8001009043FF573AE0020BDE8FC9FFCF789FEF1E7FDF7C5B810B5FE2000F0CC
:2067C00093FF0A2002F058FFBE2000F08DFF0A2002F052FFBDE81040FE2000F085BF7047EF
:2067E0002DE9F04106460C4615461F46402E01DB6F2E01DDBDE8F0810F2C00DDFAE7E02D13
:2068000003D0D02D01D0C02D40D105EB0621214488B2FEF78BFE082C19DA012F07D1012055
:20682000A0401E49097808431C49087007E037B90120A040194909788143184801701749B8
:20684000097801F5024188B2FEF770FE23E0012F0AD1A4F10800012101FA00F0104909784F
:2068600008430F49087009E047B9A4F10800012181400B4800788843094908700849097862
:2068800001F5034188B2FEF751FE04E005EB062188B2FEF74BFE00BFACE700002501002035
:2068A0002401002010B5FBF753FB164908700846007838B9F9F77AFD00F0A4FA00F09AF889
:2068C000104908700F48007818B900F0EFF90D4908700C48007818B902F0E6FC0949087066
:2068E0000848007818B902F0FBFB064908700548007818B9FBF702FB024908700148007847
:2069000010BD00004006002010B5044604F5114188B2FEF70BFE10BD70B504460D461646C7
