:020000040801F1
:20000000383C0020490101081FCC02080DC502081DCC02084D0F0108711403080000000040
:2000200000000000000000000000000029F302082B84020800000000C5D60208B9FC02087D
:20004000630101089DD6020863010108630101086301010863010108630101086301010828
:20006000630101086301010863010108630101086301010863010108F583020801840208E1
:20008000630101086301010863010108630101089D110308630101086301010863010108AC
:2000A000630101086301010863010108630101086301010875FD020881FD020863010108AE
:2000C0006301010863010108630101086301010863010108630101086301010863010108B8
:2000E000630101086301010863010108630101086301010863010108630101086301010898
:200100006301010863010108630101086301010863010108630101088DFD020899FD02081D
:2001200063010108630101086301010863010108DFF810D000F0FEF800480047CD380308CF
:20014000AFF30080383C00200648804706480047FEE7FEE7FEE7FEE7FEE7FEE7FEE7FEE717
:20016000FEE7FEE729FD02083101010840EA01039B0703D009E008C9121F08C0042AFAD2FA
:2001800003E011F8013B00F8013B521EF9D27047D2B201E000F8012B491EFBD2704700227B
:2001A000F6E710B513460A4604461946FFF7F0FF204610BD80EA010210B502F0004340008C
:2001C00022D04A001FD0010E01EB1261C0F35600C2F3560240F4000042F40002A0FB022047
:2001E00000047F39140400D0401C50EA124001D44000491EC2B20C0604EBD010401C4008FE
:20020000802A02D003E0002010BD20F00100002900DA0020184310BD30B480EA010202F0F3
:20022000004530F0004221F0004013D090B1C30DD40DC2F31601C0F31600E41A41F4000128
:2002400040F400027D34914201D3641C00E04900002C02DA30BC002070474FF40000002336
:20026000914201D3891A034340084FEA4101F7D151B1914202D14FF0004105E002D24FF043
:20028000010101E06FF0010103EBC450284430BC00F019B896230022114600F01DB820F0F8
:2002A0000040C10DC0F3160040F400007F2901DA00207047962903DCC1F19601C840704733
:2002C0009639884070470029A8BF7047401C490008BF20F00100704710B4B0FA80FC00FA71
:2002E0000CF050EA010404BF10BC704749B1CCF1200421FA04F411FA0CF118BF012121432A
:200300000843A3EB0C01CB1D4FEA00614FEA102042BF002010BC704700EBC35010440029ED
:20032000A4BF10BC7047401C490008BF20F0010010BC7047064C074D06E0E06840F00103CF
:2003400094E8070098471034AC42F6D3FFF7F4FE444803086448030870B58C1810F8015BDD
:2003600015F0070301D110F8013B2A1106D110F8012B03E010F8016B01F8016B5B1EF9D113
:200380002B0705D40023521E0DD401F8013BFAE710F8013BCB1A921C03E013F8015B01F8AE
:2003A000015B521EF9D5A142D8D3002070BD00000EB50D4818F040FD0B20009001200190FE
:2003C000052002906946084818F09AFD064818F0B5FF3221044818F019FF034818F044FE6A
:2003E0000249C8600EBD0000300800209C03002070B5044600688168C943C9071BD1816837
:2004000021F00101816019F039FC05460EE019F035FC401B022809D9A06A40F01000A06284
:20042000E06A40F00100E062012070BD20688068C043C007EBD0002070BD0000F8B500269C
:200440000446009600688168C943C90727D0816841F001018160134813490068B0FBF1F0F0
:2004600000E0401E00900028FBD119F007FC054610E019F003FC401B02280BD9A06A40F0C8
:200480001000A062E06A40F00100E06284F824600120F8BD20688068C043C007E9D10020A3
:2004A000F8BD00008400002040420F00B04930B4CA7B897B012001EBC10303EB0111AC4B64
:2004C00002EB810240F216545B69A2F21651A2427ED061DC40F24E44A2F24E41A24278D0CF
:2004E00029DC40F2F135A2F2F1334FF480614FF40064AA426ED00BDCA2F2E9324FF4C05306
:20050000082A68D2DFE802F0C2C2C2D9C4D9CDCA052B7DD008DC022B7BD0032B7AD0042BE3
:2005200059D130BC10F0E4B9062B74D0072B70D05C2B50D1C5E06F296ED018DC05296CD0A0
:200540000ADC01296AD0022968D0032941D0042941D130BC0AF0CCBF63293CD065297DD08E
:20056000662938D130BC4FF480501BF0D5BC742906D008DC712972D0722901D073292AD112
:2005800030BC07F05DBB75296AD0762969D0C72921D130BC03F07ABF40F25A25A1F25A24F4
:2005A000A94240D040DC40F28F14A1F28F13A14270D01EDCB1F5967F0FD00FDC01296AD014
:2005C000632969D0C72968D0A1F580712B3903E095E07AE067E072E071D19CE0A1F58071B3
:2005E0002D396DD001296BD0022968D130BC10F053BE642B7ED008DC012B7CD0022B01D05B
:20060000032B5CD130BC0DF04DBFC82B0BD006E03CE052E04BE04DE061E05AE051E0C92B90
:2006200001D0CA2B4BD186E040F21152A4F2115194427CD007DC082C41D2DFE804F0967CCC
:200640007C7F8285888840F27B74A1F27B72A1426ED00FDCA1F5E0616D3903E03CE041E03E
:2006600043E045E076D0012974D007297DD130BC0BF0D4BB012A6DD0082A6FD002F6EB428C
:20068000B2F5005F71D130BC21F0F4B900200BE01946FBE743E035E037E039E01946012034
:2006A00002E0032000E0022030BC1DF0B9BD30BC0FF05EBB30BC16F073BB2146E6E754E038
:2006C00029E030BC104600F03BBD30BC012002F027BA30BC05F0DABB30BC03F0FFBA30BC0D
:2006E0000CF0EAB830BC0CF075BF30BC09F0E0BA98B201E019E015E030BC12F0DDBE30BC33
:2007000004F09EBC30BC08F047B830BC04F000B930BC06F075B830BC104622F02DB930BCDA
:2007200001F0A4BC30BC06F04DBC30BC01E018E010E00AF073B830BC0EF0B2B930BC12F060
:2007400011B830BC13F0D6BC30BC11F0E1BA30BC16F004BF30BC98B208F04EBA30BC15F0EB
:2007600083BC30BC184614F0AFBD30BC70470000C00900200D48C17B807B00EBC00202EBCE
:20078000001001EB8000A0F58060BF3806D0042807D0052808D1012012F096BF01200CF0FD
:2007A0004BBF012009F08ABB70470000C00900206948C17B807B00EBC00202EB001001EBB2
:2007C000800040F24162A0F2416190425CD049DC40F2B442A0F2B44190427DD027DCB0F5F7
:2007E0008A6F15D016DC40F24D42A0F24D4190420ED009DCB0F57D7F7DD0A0F54070F73851
:200800006CD1012016F018BB012977D0022965D101F070B8A0F5806051386FD0012871D00F
:20082000022872D0622859D1012003F0E1BA0E2908D00ADC09296FD00B2970D00C2901D009
:200840000D294BD1012007F083BA0F296AD010296BD0C5296CD0A1F5807129397AD101208C
:2008600006F0C6B9B1F5997F68D021DC40F22D13A1F22D12994218D00FDC032904D006DC3C
:20088000012901D0022965D1002122F03BBC042951D0B1F5967F5DD107E0012A05D0022A88
:2008A00003D0032A01D0042A54D101200EF046B940F6AD52A1F6AD50914219D00BDCA1F5F4
:2008C000807133393DD001293ED0022901D0032940D116F06BBE03E01AE00CE03AE00DE03E
:2008E000012805D0072832D00E2801D00F2831D1012008F03FBC01200FF036BB0021012022
:2009000002F00CBA01200AF029BE012005F02ABB012120201BF028BB01200CF053B8012089
:200920000CF0DCBE012009F023BB012012F026BF012004F03FBA012010F096BD012011F07D
:2009400039BF012013F0FEBB012011F009BA01200BF038BB70470000C0090020C14830B441
:20096000C17B807B40F2165300EBC00202EB0010BC4A01EB8000A0F21651526998427DD0AE
:2009800065DC40F24E43A0F24E41984237D02ADC40F2F134A0F2F1324FF480614FF4006375
:2009A000A0426CD00BDCA0F2E9304FF4C054082866D2DFE800F0D6D6D6E8CAE8D8D2052A1C
:2009C0007ED009DC022A7CD0032A7BD0042A57D130BC012010F018B8062A74D0072A70D0DC
:2009E0005C2A4DD1D6E06F296ED018DC04296CD009DC01296AD0022968D0032940D130BC95
:200A0000012002F02BBA052974D04FF48050652971D0662934D130BC01211BF0E1BA7429A5
:200A200006D00ADC712967D0722901D0732927D130BC90B2012107F0FFB975295DD07629C0
:200A40005CD0C7291CD130BC012003F081BD40F25A24A1F25A23A14241D041DC40F28F13AA
:200A6000A1F28F12994274D01EDCB1F5967F0ED00EDC01296ED063296DD002E0ABE075E0B3
:200A800084E0C72968D0A1F580712B397ED1B5E0A1F580712D397AD0012978D0022975D1E1
:200AA00030BC012010F078BD642A71D011DC012A6FD0022A01D0032A68D130BC012006E078
:200AC0004FE060E057E05AE074E067E062E00DF0FBBCC82A03D0C92A01D0CA2A56D19CE085
:200AE00040F21151A3F211508B427DD00DDC082B4CD204E056E059E060E063E066E0DFE835
:200B000003F0AF8C8C9094989E9E40F27B73A0F27B71984269D00BDCA0F5E0606D3864D0DD
:200B2000012862D0072831D130BC01200BF0FABA01295AD008297DD001F6EB41B1F5005F73
:200B400024D130BC012021F055B80122214600200EE056E043E046E04CE001222146104652
:200B600006E00122F3E70122032001E00122022030BC1DF097BD30BC01200FF05DBA30BCCA
:200B8000012016F0A9B901221946E0E768E035E03FE03AE030BC022000F0D6BD30BC01204F
:200BA0000AF07EBD30BC012005F0B8BA30BC012103F092B930BC01200BF0B4BF30BC0120B8
:200BC0000CF0F2BD30BC012009F080BA30BC90B2012112F067BE30BC012004F05DBB30BCAE
:200BE000012007F079BE01E036E02CE030BC012003F008BF30BC012006F04AB830BC22F0D9
:200C0000CDBA30BC012001F09FBA30BC012006F047BA30BC012009F02BBF30BC01200EF0F7
:200C20008FBB30BC012011F067BF30BC012013F02BBC00E00CE030BC012011F033BA30BC8C
:200C4000012016F097BE30BC90B2012108F012BA30BC012015F070BA30BC104614F09ABC2C
:200C600030BC7047C00900208E4930B4CA7B897B862001EBC10303EB01118A4B02EB810249
:200C800040F2C4445B69A2F2C441A2424AD04DDC40F24F44A2F24F41A2427BD029DC40F247
:200CA000F134A2F2F1304FF480614FF40063A24217D00BDCA2F2E9324FF4C050082A6AD26E
:200CC000DFE802F0A4A4A4A6A7A6A4A7062876D008DC022873D0032803D004286FD00528D6
:200CE00059D193E007286AD05C2853D05D2852D198E0682916D012DC622961D008DC0129F8
:200D000048D002295DD003295CD004297BD18CE0642907D0652905D0672974D102E06E3901
:200D2000062970D830BC98B21BF060BB40F2AB24A1F2AB20A14237D037DCB1F5C07F19D0B6
:200D400019DC40F21913A1F21910994279D00BDC4FF4005051296BD0421052296BD05329AD
:200D600069D0B5294FD169E064286DD065286BD0662848D168E0B1F5F27F69D00CDCA1F5A5
:200D80008071813960D0602962D0612960D0622939D15DE040E036E0A1F5007145395AD04C
:200DA00064295CD065292ED159E040F21252A0F21251904271D00DDC092824D203E027E01C
:200DC00022E02FE02BE0DFE800F01E4A4A4A4E515457570040F27B72A1F27B7091424ED015
:200DE00008DCA1F5E0616D3949D0012947D0072909D148E0012842D0082847D000F6EB4063
:200E0000B0F5005F46D0872030BC7047084600E0184630BC1EF0D0B830BC00F0B5BE30BC25
:200E20000AF026BE30BC01F02DBF30BC04F088BE30BC1EF07BBA1046FAE702E030BC03F0BE
:200E400083BF30BC05F0A0BE30BC104621F0F6BF30BC0DF0B5BC30BC184609F083BD30BC40
:200E600098B20DF023BD30BC11F0DEBB30BC13F07DB830BC10F088BE30BC16F0CBBA30BC0C
:200E800098B208F0A3B830BC0AF082BF30BC98B214F0F2BF30BC20F045BE30BC184613F057
:200EA00011BE0000C009002070B5274E04464FF0000549B114E001220821304618F0D8FEC4
:200EC000642021F031F96D1CA542F4D334E001220821304618F0CCFE642021F025F96D1C38
:200EE000A542F4D300220821304618F0C1FE642021F0FAF8002508E001220821304618F05E
:200F0000B7FE642021F010F96D1CA542F4D300220821304618F0ACFE642021F0E5F800253D
:200F200008E001220821304618F0A2FE642021F0FBF86D1CA542F4D33046BDE870400022B3
:200F4000082118F095BE000000080140FEE700002DE9F0470024DFF86080184F0546264699
:200F60004FF00109C7F8A861032021F0DDF8A80702D5C8F8809101E0C8F88061032021F04A
:200F8000D3F8C7F8A891032021F0CEF86806641C050EE4B2022CE5D3052021F0C5F844469A
:200FA000C8F88061052021F0BFF8C4F88091BDE8F047052021F0B8B800802142000022420D
:200FC00070B51E4D296848790978884207D8B0EB510F03D9081AC0F1270000E0401E184C92
:200FE00034F810001EF0D6FB0A2021F09DF8296848780978884207D8B0EB510F03D9081A92
:20100000C0F1270000E0401E34F810001EF0C2FB0A2021F089F80B490020C1F880010A49F6
:20102000C1F8A801C1F89C010848008820F0DAFBBDE870400A2021F057B80000F803002081
:20104000E04703080080214200002242A003002070B5044637483849C27B012A02D1007C2E
:2010600003280CD00020C870A0782178884209D8B0EB510F05D9081AC0F1270002E00120DF
:20108000F1E7401E2D4D0023902235F8100019461CF01AFBE0782178884207D8B0EB510F79
:2010A00003D9081AC0F1270000E0401E012335F81000C02203211CF007FB207921788842AB
:2010C00007D8B0EB510F03D9081AC0F1270000E0401E012335F81000D02208211CF0F4FAAC
:2010E000E07988B12178884207D8B0EB510F03D9081AC0F1270000E0401E012335F81000AC
:20110000C02219461CF0E0FAA0792178884207D8B0EB510F03D9081AC0F1270000E0401E3E
:20112000002335F81000BDE87040C02219461CF0CBBA0000C0090020FE030020E0470308EC
:201140002DE9F05F814621F043F8962020F0CCFF5749584F43F6095B40F6427240F2F1682D
:201160004FF480734FF0030C4FF0020E4FF0010AB9F58A6F19D00020B870BB800878BCEB18
:20118000901F02D110265C460325BEEB901F03D1202647F612240225BAEB901F02D1042670
:2011A0001446012580091DD01FE087F802A0BB8009785046BCEB911F02D102265C460325AB
:2011C000BEEB911F03D1022647F612243546B0EB911F02D1022614460125880905D1444615
:2011E000012601E0444602260025032000F0D8F9314840F202414288914302D087F800A0AF
:2012000001E0002139700079142300F07F00787032462146284600F05DF878702748284CBF
:20122000007801280DD0902026492070BA88086850434FF47A72B0FBF2F008602078BDE8DB
:20124000F09F387850B121F00FF8FA2020F04CFF20780028F2D1387808B323E000F01EFCC6
:2012600021F002F8002000F06FFA17492070CA7B012AEDD1097C0229EAD10028DED113482F
:20128000008820F085FA962020F02EFF002000F05BFA20700E48008820F07AFAD8E778783E
:2012A00000F08CFB002000F07BF92070C6E70000C8330020FE030020E4360020E000002080
:2012C0003C0A0020D4000020C00900209E0300209C0300202DE9FF4F0F460146AB4889B01F
:2012E00000250570AA484078C243520605D0A74A012111700DB0BDE8F08F0F2000EB0110D8
:20130000C0B2C3F57A71099079434FF47A70B1FBF0F189B203F57A73089107FB03F1B1FB4E
:20132000F0F080B2049000F005FB0A2020F0FCFEDFF860820026C8F88061974DC5F8A861B9
:20134000022005F5D47520F0EFFE40F2026000F0B9FC0220FFF7FCFD7F20099900F0E4FCD0
:201360000120FFF7F5FDC8F880612E604FF4FA7020F0DAFE0B9822F023FA8848006800286E
:201380007ED000204FF6FF7101AA934642F82010401CC0B20328F8D3002405E024B1012C6D
:2013A00005D0022C08D105E000261F2504E060267F2501E020263F2540F2026000F082FC67
:2013C0000220FFF7C5FDB0B2099900F0ADFC0120FFF7BEFD6F494FF00008C1F880816E4954
:2013E000C1F8A8814FF4FA7020F09EFE0B9822F0E7F9DFF8A8A140F20260DAF8009000F017
:2014000061FC0220FFF7A4FDA8B2099900F08CFC0120FFF79DFD5F49C1F880815E49C1F8CF
:20142000A8814FF4FA7020F07FFE0B9822F0C8F9DAF80080B9454ED9B8452BD34BE07019AD
:201440004FEA500A40F2026000F03CFC0220FFF77FFD1FFA8AF0099900F066FC0120FFF70B
:2014600077FD4C490020C1F880014B49C1F8A8014FF4FA7020F058FE0B9822F0A1F900E0D1
:2014800067E046480068B84202D25546804601E056468146681E8642D1D3B9EB0700A8EB6C
:2014A000070102460B4600D55042002900DA5942884205A907DD41F824800DF804501900DB
:2014C00028D5594226E041F824900DF80460100016D5504214E0B9EB0701A8EB07000A4601
:2014E000034600D55142002800DA5842814205A809DD40F824800DF80450180000D558428D
:201500004BF8240008E040F824900DF80460110000D551424BF82410641CE4B2032CFFF4FF
:201520003DAFDDE9010188420AD80399884203D89DF8004005990AE09DF80240079906E050
:20154000084603998842F7D89DF80140069913480160FFF735FD1149049A0868904202D89B
:20156000089A904203D2094900200870C2E6074B01221A70064A928850434FF47A72B0FBBA
:20158000F2F0086021F024F82046B3E6E0000020FE0300200080214200002242D400002079
:2015A0002DE9F05F054600240A2020F0BDFD00F0C1F95B48016848790978884207D8B0EB27
:2015C000510F03D9081AC0F1270000E0401E554931F810001BF0B2FE012020F085FDDFF87B
:2015E00048910026C846C9F88061504FC7F8A861022020F099FD4FF4806000F063FB02207A
:20160000FFF7A6FCC7F8A8610A2020F08DFDC8F88061DFF81C8135B1012D46D0022D5BD00D
:20162000032D6DD078E0CA46B946424FB3460320FFF78EFC0A2020F077FDC9F8A8B10A20B7
:2016400020F072FD0120CAF8800100F0D9FA06464FF6FF70384900EA4400022C0A5C084455
:20166000407802EB002085B204D0032C07D0042C09D00AE03148407840F4FC5505E0B7F857
:201680006600050A01E097F86650AE4208D0FFF797FCC8E901459420C8F80C60BDE8F09F53
:2016A000641CA4B2052CC2D336E041F6FF750320FFF74EFC00F0A4FAA84208D0281AC8F818
:2016C0000440C8F80C00FFF77BFC9120E6E7641CA4B2102CEBD31FE0194D0320FFF738FC8D
:2016E00000F08EFA05EB4402010A517005F81400641CA4B2052CF0D30A2022F091FB0BE0E2
:20170000104D0320FFF724FC00F07AFA25F81400641CA4B2032CF4D3FFF752FC0020BDE7CA
:20172000F8030020E047030800802142000022423C0A0020C0090020C8330020FE0300208A
:20174000C8130020E43600202DE9F05F0546002400F0F0F86048016848790978884207D8AC
:20176000B0EB510F03D9081AC0F1270000E0401E5A4931F810001BF0E1FD0A2020F0B4FCAB
:20178000DFF85C810026C8F88061DFF858A1CAF8A86102200AF5D47720F0C6FC40F2014082
:2017A00000F090FA0220FFF7D3FB3E600320FFF7CFFB0A2020F0B8FC3E6000F021FA02208F
:2017C00020F0B2FC0020FFF7C3FBC8F880613E60002000F077FA0220FFF7BAFB3E60DFF875
:2017E00008B141F6FF794FF48068A5BB0320FFF7AFFB00F005FA06464FF6FF703B4900EAD6
:2018000044003B4B0A5C0844407802EB002093F8462081B26AB1986CA0420AD80244A24256
:2018200007D9201A03EB400001F47F42B0F85C101143A9EB010087B2BE420DD0FFF7C0FBE6
:20184000A9EB0702CBE90142A9EB06019320CBF80C10BDE8F09F03E0641CA4B24445C5D3B9
:20186000012D1CD100244F460320FFF771FB1C490120C1F88001CAF8A80100F0C1F90646EE
:20188000B84208D0FFF79CFBB91BCBF804409120CBF80C10DDE7641CA4B24445E4D3022D75
:2018A00015D1124D00244E4647460320FFF750FB00F0A6F9301A05EB4402010A517005F862
:2018C0001400641CA4B2BC42EFD322F08FFAFFF777FB0020BDE70000F8030020E04703084A
:2018E00000802142000022423C0A0020C8130020C00900200220FFF753BE00002DE9F041E7
:201900000024054627464FF00108094E0BE0C6F89C81012020F008FCC6F89C71012020F055
:2019200003FC641CA4B2AC42F1D3BDE8F08100000000224270B51C490020C1F8A8011B4936
:20194000C1F880011A4D296848790978884207D8B0EB510F03D9081AC0F1270000E0401E5B
:20196000144C34F810001BF0EFFC296848780978884207D8B0EB510F03D9081AC0F1270089
:2019800000E0401E34F810001BF0D8FC1E2020F0ABFB0948C078002804D0BDE8704064209C
:2019A000FFF7ACBF70BD00000000224200802142F8030020E0470308FE0300202DE9F05F7F
:2019C00080460024FFF7B6FF022020F0ADFB2E4F0025C7F8A8512D48C0F880514FF480601D
:2019E00000F070F90220FFF7B3FA642020F09CFBC7F8A851642020F097FB254EDFF894B032
:201A0000AA46B94624496000022C0A5C0844407802EB002085B204D0032C05D0042C07D04F
:201A200008E048F4FC5505E0B6F86600050A01E096F866509BF803005F4610B16420FFF78E
:201A40005DFF284600F03EF90120FFF781FAB878012806D0F87840B16420FFF74FFF642027
:201A600005E0642020F060FBF9E74FF4FA7020F05BFBC9F8A8A1641CE4B2052CC2D3BDE814
:201A8000F05FFFF79DBA00000000224200802142C0090020FE030020C83300202DE9F05FD9
:201AA0000024FFF747FF334F0026C7F8A8613248C0F88061304600F005F90220FFF748FA85
:201AC000642020F031FBC7F8A861642020F02CFBDFF8A8802A4DDFF8ACB0B246B9464FF6DE
:201AE000FF7000EA440018F800204044407802EB002095F8462080B26AB1A96CA1420AD8B6
:201B00000A44A24207D900F47F42601A05EB4000B0F85C00104341F6FF71081A87B29BF868
:201B200003005E4610B16420FFF7E8FE384600F0C9F80120FFF70CFAB078012806D0F07802
:201B400040B16420FFF7DAFE642005E0642020F0EBFAF9E74FF4FA7020F0E6FAC9F8A8A1D9
:201B6000641CA4B2B4F5806FB9D3BDE8F05FFFF727BA00000000224200802142C81300205E
:201B8000C0090020FE03002070B54FF400642246184960011BF00CFE0021164A0846135CF2
:201BA000401C194480B289B2A042F8D3124CB4F8680088421AD1208B4FF6FF7101EA40029E
:201BC0000E494FF400301BF0F3FD002108460B4B228B04E01D5C401C294489B280B2B0EBA0
:201BE000420FF7D3B4F86C00884201D0862070BD002070BDC8130020C0090020C8330020F8
:201C00002DE9F05F2A4F00240125C7F88051DFF8A4A0A3465E46CAE9005451462648CAF896
:201C2000084017F02FFF00220121244818F020F8DFF88C80C8F8A8610A2020F075FAC7F843
:201C40008051B94600265F464FF6FF7000EA4404C8F8A851062020F067FAD9F8000108B128
:201C6000641CA4B2062020F05FFAC8F8A871062020F05AFA761CB6B20D2EE5D3CAF800509D
:201C80000221CAF80450CAF80C100A490A4817F0F9FE01221146094817F0EAFF0A2020F095
:201CA00043FAC9F88071C8F8A8712046BDE8F09F00802142080B0020000C01400008014016
:201CC000000022422DE9F047154F00260546C7F8A861032020F028FADFF8489000244FF04F
:201CE00001084FF6FF7AE80402D5C9F8808101E0C9F88061032020F017FAC7F8A8810320C6
:201D000020F012FAC7F8A8610AEA4505032020F00BFA641CE4B20D2CE5D3BDE8F087000046
:201D200000002242008021422DE9F05F244E00278B460446C6F8A871052020F0F5F9002524
:201D4000DFF88090B84601274FF6FF7A600602D5C9F8807101E0C9F880810A2020F0E4F90F
:201D6000C6F8A8710A2020F0DFF9C6F8A8810A2020F0DAF96D1CEDB20AEA4404072DE5D336
:201D80005C46C6F8A8810025A00602D5C9F8807101E0C9F880810A2020F0C6F9C6F8A871F3
:201DA0000A2020F0C1F9C6F8A8810A2020F0BCF96D1CEDB20AEA4404062DE5D3BDE8F09FD6
:201DC000000022420080214270B523490020C1F8A801C1F8AC01214AC2F88001204AC2F879
:201DE000BC01C2F8BC01C1F89C01C1F89C01C1F898011C4D286800F039F828681A4C017828
:201E000069B1C078884207D8B0EB510F03D9081AC0F1270000E0401E34F8100000E0552027
:201E20001DF0B8FC2868017869B14078884207D8B0EB510F03D9081AC0F1270000E0401E4E
:201E400034F8100000E057201DF0A4FCBDE870400A2020F049B9000000002242008021426A
:201E600000002142F8030020E047030870B5044680782178884207D8B0EB510F03D9081A10
:201E8000C0F1270000E0401E5A4D0023902235F8100019461BF018FC20792178884207D81A
:201EA000B0EB510F03D9081AC0F1270000E0401E002335F81000C02203211BF005FC6079C8
:201EC0002178884207D8B0EB510F03D9081AC0F1270000E0401E002335F81000F022082116
:201EE0001BF0F2FBA0792178884207D8B0EB510F03D9081AC0F1270000E0401E002335F830
:201F00001000F02208211BF0DFFBE0792178884207D8B0EB510F03D9081AC0F1270000E045
:201F2000401E002335F81000F02202211BF0CCFB207A2178884207D8B0EB510F03D9081A07
:201F4000C0F1270000E0401E002335F81000F02204211BF0B9FB607A2178884207D8B0EB5E
:201F6000510F03D9081AC0F1270000E0401E002335F81000F02204211BF0A6FBA07A2178F7
:201F8000884207D8B0EB510F03D9081AC0F1270000E0401E002335F81000F02201211BF0EA
:201FA00093FBE07A2178884207D8B0EB510F03D9081AC0F1270000E0401E002335F8100088
:201FC000F02201211BF080FB207B2178884207D8B0EB510F03D9081AC0F1270000E0401E5B
:201FE000002335F81000BDE87040F02219461BF06BBB0000E04703080178002901D0FFF7EF
:2020000035BF704770B50446174D0E46C80712D0A2792078824207D8B2EB500F03D9801A75
:20202000C0F1270200E0521E002335F81200582208211BF049FBB00714D5217B207881428B
:2020400007D8B1EB500F03D9401AC0F1270100E0491E002335F81100BDE8704058221946C1
:202060001BF032BB70BD0000E047030810B5022000F06AF800F058FA054C0028207005D1AF
:2020800000F054FB002000F05FF8207010BD00003C0A00202DE9F047DFF8A0A00024012727
:2020A000CAF8BC71052020F03FF8DFF89490C9F89C71052009F5CE7520F036F8EF600520E4
:2020C00020F032F800262E60052020F02DF8EE60052020F029F81B48D0F8001101B1012401
:2020E000B8464F46002581466006040EC7F8A881052020F019F8C7F8A861052020F014F8B2
:20210000D9F8000108B1641CE4B26D1CEDB2072DEAD3052020F008F8CAF8BC61052020F0BC
:2021200003F8C7F8AC8105201FF0FEFFC7F8AC6105201FF0F9FF2046BDE8F08700002142AA
:2021400000002242008021422DE9F05F384C0646206800F077F800F035F902212068FFF75D
:2021600051FF2068017871B1C078884207D8B0EB510F03D9081AC0F1270000E0401E2D4986
:2021800031F8100000E055201DF004FB0A201FF0ABFFDFF8A490DFF8A4A04FF4806836BB80
:2021A000002440F2F91BFFF775FF1AF804500746F92C09D05C4507D0A4F50070F93803D015
:2021C000A4F54070F93801D199F80050AF420AD0FFF7FAFD1A48932100F8041B80E8B000D5
:2021E0000846BDE8F09F641CA4B24445DBD3012E0CD1002455464746FFF74CFF2855641CBA
:20220000A4B2BC42F8D3384621F0D4FD022E0AD10024FFF73FFF641CA4B2F92CF9D3FFF71F
:2022200039FF89F80000FFF7CFFD0020D9E70000F8030020E047030804040020C8130020D3
:202240003C0A002070B50446FFF710FEA0782178884207D8B0EB510F03D9081AC0F127007A
:2022600000E0401E3B4D0023902235F8100019461BF02AFA20792178884207D8B0EB510F22
:2022800003D9081AC0F1270000E0401E012335F81000C02203211BF017FAA079217888422B
:2022A00007D8B0EB510F03D9081AC0F1270000E0401E002335F81000E02208211BF004FA9C
:2022C0002548012101600021416081600146234817F0D8FB00220121214817F0C9FCE0790D
:2022E0002178884207D8B0EB510F03D9081AC0F1270000E0401E012335F81000C022022127
:202300001BF0E2F9607A2178884207D8B0EB510F03D9081AC0F1270000E0401E012335F85B
:202320001000C02204211BF0CFF9A07A2178884207D8B0EB510F03D9081AC0F1270000E0A6
:20234000401E012335F81000BDE87040C02219461BF0BAB9E0470308080B0020000C0140F8
:20236000000801402DE9F0470024DFF85080144F054626464FF00109C7F8A86105201FF09D
:20238000D3FE280602D5C8F8809101E0C8F8806105201FF0C9FEC7F8A89105201FF0C4FE2B
:2023A0006806641C050EE4B2082CE5D3C7F8A861BDE8F0470A201FF0B7BE00000080214265
:2023C0000000224270B5174D174C2868017869B14078884207D8B0EB510F03D9081AC0F17F
:2023E000270000E0401E34F8100000E057201AF0A5FF2868017869B1C078884207D8B0EB98
:20240000510F03D9081AC0F1270000E0401E34F8100000E055201AF097FFBDE8704064203E
:202420001FF082BEF8030020E047030870B50446FFF71CFDA0782178884207D8B0EB510F2D
:2024400003D9081AC0F1270000E0401E324D0023902235F8100019461BF036F9207921780C
:20246000884207D8B0EB510F03D9081AC0F1270000E0401E012335F81000C02203211BF032
:2024800023F960792178884207D8B0EB510F03D9081AC0F1270000E0401E012335F8100095
:2024A000C02208211BF010F91C480121016041600221C16001461A4817F0E4FA0122114629
:2024C000184817F0D5FBE07A2178884207D8B0EB510F03D9081AC0F1270000E0401E0123F6
:2024E00035F81000C02219461BF0EEF8207B2178884207D8B0EB510F03D9081AC0F12700BF
:2025000000E0401E002335F81000BDE87040E02219461BF0D9B80000E0470308080B002066
:20252000000C0140000801402DE9F84F544C40F21470009040F2CD6B2068FFF777FF5148CB
:2025400000881FF025F932201FF0CEFDFFF73AFF01212068FFF756FDDFF82CA101254B4E15
:202560009AF80000DFF828914FF4FA74FF2812D0C6F89C510A201FF0D7FD9AF80000FFF73F
:20258000F1FE20461FF0D0FD042021F019F9B9F8000084B258E020461FF0C6FD042021F037
:2025A0000FF9B9F800004F460404240C4CD0C6F89C510A201FF0B8FD0026FF253046FFF72A
:2025C000D1FE4FF4FA7420461FF0AEFD042021F0F7F838881FFA80F82846FFF7C3FE20465B
:2025E0001FF0A2FD042021F0EBF83888B94684B217E0701947083846FFF7B4FE4FF4FA707E
:202600001FF092FD042021F0DBF8D9F8000040F2F161884202D93D4684B202E03E461FFAE2
:2026200080F8681E8642E4DBA4F5C060F138A8F2F16100D54042002900DA4942884201DBBC
:20264000354644468AF80050FFF7BEFB114800881FF09EF832201FF047FD0098844201D892
:202660005C4502D29020BDE8F88F20024FF47A71B0FBF1F1C9F800101FF0AAFF0020F2E7AA
:20268000F80300209E0300200404002000002242D40000209C0300202DE9F0470024DFF8D7
:2026A0008090204F054626464FF00108C7F8A86105201FF039FD280602D5C9F8808101E0C2
:2026C000C9F8806105201FF02FFDC7F8A88105201FF02AFD6806641C050EE4B2082CE5D332
:2026E000C7F8A861052007F5D4771FF01DFD0E4D4446C5F8BC814FF4FA7005F5DE751FF095
:2027000013FD2E6005201FF00FFD7C6005201FF00BFD7E60BDE8F04705201FF005BD000013
:202720000080214200002242000021422DE9F047154C206800F02EF8FFF744FE03212068BF
:20274000FFF760FC114DDFF84890002440F2F91640F2F92740F2F9384FF4806A285DF92C29
:2027600005D0B44203D0BC4201D0444501D199F80000FFF791FF641CA4B25445EED3BDE8A5
:20278000F047FFF721BB0000F8030020C81300200404002070B50446FFF768FBA078217879
:2027A000884207D8B0EB510F03D9081AC0F1270000E0401E324D0023902235F81000194671
:2027C0001AF082FF20792178884207D8B0EB510F03D9081AC0F1270000E0401E012335F833
:2027E0001000C02203211AF06FFF60792178884207D8B0EB510F03D9081AC0F1270000E07F
:20280000401E012335F81000C02208211AF05CFF1C480121016041600221C16001461A4814
:2028200017F030F901221146184817F021FAE0792178884207D8B0EB510F03D9081AC0F127
:20284000270000E0401E012335F81000C02202211AF03AFF207A2178884207D8B0EB510F93
:2028600003D9081AC0F1270000E0401E012335F81000BDE87040C02204211AF025BF000099
:20288000E0470308080B0020000C0140000801402DE9FC5F07467348002101707248C07B3D
:2028A000052821D045F68D364FF4006A2020C0F57A724FF47A7100F57A7072437043B2FB4C
:2028C000F1F2B0FBF1F0CDE9000200F0E5FC674801684879097888420DD8B0EB510F09D91A
:2028E000081AC0F1270006E041F2E3664FF4005A1420DCE7401E5E4931F810001AF01EFD85
:202900000A201FF0F1FBDFF86CB14FF440684FF4FA791F2F17D000F037FE64201FF004FC10
:20292000404600F079FD64201FF0FEFB07F5206000F0E6FE48461FF0F7FB102020F040FFC1
:2029400000F056F971E000251F2400F01DFE64201FF0EAFB4FF4406000F05EFD64201FF03B
:20296000E3FB4FF4206000F0CBFE4FF4FA701FF0DBFB102020F024FFD846DBF8009000F097
:2029800003FE64201FF0D0FB4FF4406000F044FD64201FF0C9FB40F61F2000F0B1FE4FF416
:2029A000FA701FF0C1FB102020F00AFFD8F800005FEA000822D138E02819470800F0E4FD0C
:2029C00064201FF0B1FB4FF4406000F025FD64201FF0AAFB07F5206000F092FE4FF4FA70E2
:2029E0001FF0A2FB102020F0EBFEDBF80000B04202D23C46804601E03D468146601E8542B1
:202A0000DADB00F0F5F8B9EB0600A8EB060100D54042002900DA4942884203DD2746CBF821
:202A2000008002E02F46CBF80090DBF80000009A904202D8019A904204D20A490020087025
:202A4000BDE8FC9F074A012300FB0AF013704FF47A72B0FBF2F0CBF800001FF0B9FD384687
:202A6000EEE70000E0000020C0090020F8030020E0470308D400002070B504468078217857
:202A8000884207D8B0EB510F03D9081AC0F1270000E0401E214D0023902235F8100019469F
:202AA0001AF012FEE0782178884207D8B0EB510F03D9081AC0F1270000E0401E012335F802
:202AC0001000C02203211AF0FFFD20792178884207D8B0EB510F03D9081AC0F1270000E04E
:202AE000401E012335F81000D02208211AF0ECFDA0792178884207D8B0EB510F03D9081AB5
:202B0000C0F1270000E0401E002335F81000BDE87040C02219461AF0D7BD0000E0470308D9
:202B20002DE9F0472D48C07B05281CD04FF400640021022000F0F2F8294801784078C90947
:202B400000F00F0001EB4000FFF7A2FEDFF894A0814690279AF80000234E244D4FF47A7882
:202B6000012803D01EE04FF40054E1E714201FF0BBFA4846FFF78CFE81469AF80000012874
:202B800005D02F7031686143B1FBF8F00FE014201FF0AAFA4846FFF77BFE81469AF80000C4
:202BA000012806D02F7030686043B0FBF8F0306010E000F047FD1FF057FB002000F04EF93D
:202BC000287038B9484600F0F3FB4946002000F0A5F828702878BDE8F0870000C009002087
:202BE000C8130020E0000020D40000203C0A002070B5204D296848790978884207D8B0EBD7
:202C0000510F03D9081AC0F1270000E0401E1A4C34F810001CF0BEFD18490020C1F8A801F4
:202C20001749C1F880012968C8790978884207D8B0EB510F03D9081AC0F1270000E0401EEF
:202C400034F810001CF0A6FD296848780978884207D8B0EB510F03D9081AC0F1270000E05D
:202C6000401E34F810001CF095FDBDE870400A201FF03ABAF8030020E047030800002242E9
:202C8000008021422DE9F04700264FF480374FF430654FF4806ADFF87C804FF6FF7901E06E
:202CA000554501D9544600E02C46281B85B209EA4402184938461AF07BFD07EB4407002043
:202CC00005E018F80010401C31448EB280B2B0EB440FF6D3002DE3D10F4CB4F86600B042B5
:202CE00012D104220B49D0031AF062FD002108464246135C401C194480B289B20428F8D3B8
:202D0000B4F86C00884202D08620BDE8F0870020FBE70000C8130020C00900202DE9F0470A
:202D20008A46064600F0B8FA4848016848790978884207D8B0EB510F03D9081AC0F1270020
:202D400000E0401E424931F810001AF0F7FA0A201FF0CAF900F018FC0A201FF0E5F940F629
:202D6000014000F059FB0A201FF0DEF943F62B2000F0C6FC0A201FF0D7F940F2D23000F05B
:202D8000BFFC0A201FF0D0F900F0FEFB64201FF0CBF940F6FE3000F03FFB64201FF0C4F958
:202DA00000F018FA64201FF0BFF9DFF8A88043F6FF7926BB04224146D0031AF0F9FC002492
:202DC00008EB440018F81410407801EB002085B200F036F980EA09071CB925F4786040EA04
:202DE000CA15AF4207D0FFF703FF1B4880E8B0009420BDE8F087641CA4B2022CE0D3012E03
:202E000001D0032E12D1002445464F4600F018F9784005EB4402010A517005F81400641C3D
:202E2000A4B2022CF2D3042020F0FAFF022E08D100F006F980EA0900020A88F8012088F884
:202E40000000FFF7D5FE0020D3E70000F8030020E0470308C8130020400A00202DE9F05FB8
:202E600082464FF480394FF4306400F015FA6F48016848790978884207D8B0EB510F03D9D6
:202E8000081AC0F1270000E0401E694931F810001AF054FA0A201FF027F9DFF898B1BAF193
:202EA000000F6FD100F070FB64201FF03DF940F6014000F0B1FA64201FF036F943F62B2047
:202EC00000F01EFC64201FF02FF940F2D23000F017FC64201FF028F900F056FB64201FF06E
:202EE00023F9002000F098FA64201FF01DF900F071F964201FF018F94FF48066B44200D876
:202F000026464FF6FF7000EA46024A4948461AF04FFC09EB460900252EE00BEB45001BF825
:202F20001510407801EB002087B200F089F8424B804693F8462082B1C4F530604119986CE0
:202F400081420AD302448A4207D9081A03EB400007F47F42B0F85C701743B8450AD0FFF738
:202F600047FEC4F530604119344880E882019320BDE8F09F6D1CADB2B542CED3A01B0404D8
:202F8000240CB9D1BAF1010F1CD0BAF1030F49D100F0FAFA0A201FF0C7F840F6014000F0B6
:202FA0003BFA0A201FF0C0F843F62B2000F0A8FB0A201FF0B9F840F2D23000F0A1FB0A2000
:202FC0001FF0B2F800F0E0FA0A201FF0ADF8002000F022FA0A201FF0A7F800F0FBF80A207F
:202FE0001FF0A2F84FF480685F464FF6FF7917E04646B44200D82646A01B84B2002509E0DF
:2030000000F01EF807EB4502010A517007F815006D1CADB2B542F3D309EA460020F0CAFEDB
:20302000002CE5D1FFF7E4FD0020A1E7F8030020E0470308C8130020C0090020400A002094
:203040002DE9F05F5E4800240127C0E900740146846025465B4816F015FD002201215A48C5
:2030600016F006FEDFF86481C8F8A871032008F5D4761FF059F8356003201FF055F837603C
:2030800003201FF051F8356003201FF04DF8DFF840B10026AA46B9464FF6FF77DBF800013D
:2030A00007EA440408B1641CA4B203201FF03CF84546C8F8A89103201FF036F8C5F8A8A1F8
:2030C00003201FF031F8761CF6B2062EE4D33C4D02204E46C5F80090C5F80490E8602946DC
:2030E000384816F0CFFC01221146374816F0C0FD3748C0F8806103201FF016F8DFF8CC9038
:20310000C9F8A86103201FF00FF8D046C9F8A8A103201FF009F803201FF006F8C5E9006813
:2031200029462848C5F8088016F0ACFC00220121254816F09DFDB146BB46DFF89480234E18
:2031400000255746D8F800010BEA440408B1641CA4B203201EF0E8FFC6F8A89103201EF0D0
:20316000E3FFC6F8A87103201EF0DEFF6D1CEDB2082DE7D3124802214D46C0F80090C0F861
:203180000490C16001460F4816F07CFC012211460D4816F06DFDC8F8807103201EF0C4FF7A
:2031A000C6F8A85103201EF0BFFFC6F8A87103201EF0BAFF03201EF0B7FF2046BDE8F09F27
:2031C000080B0020000C01400008014000002242008021422DE9F047412500F0C5F800245B
:2031E000DFF8A090284FA0460126280602D5C9F8806101E0C9F8808103201EF095FFC7F876
:20320000A86103201EF090FFC7F8A88103201EF08BFF6806641C050EE4B2082CE5D31B4C58
:2032200045462146C4E90068C4F80880DFF86080404616F027FCDFF85C9000220121484648
:2032400016F016FD03201EF06FFFC7F8A86103201EF06AFFC7F8A85103201EF065FF266081
:2032600002206660E0602146404616F00BFC01221146484616F0FCFCBDE8F04703201EF019
:2032800053BF00000080214200002242080B0020000C01400008014070B52E4800881EF0DB
:2032A000A1FA0A201EF020FF2B4D296848780978884207D8B0EB510F03D9081AC0F1270058
:2032C00000E0401E254C34F810001AF037F82968C8790978884207D8B0EB510F03D9081AD5
:2032E000C0F1270000E0401E34F810001AF026F8296848790978884207D8B0EB510F03D901
:20330000081AC0F1270000E0401E34F810001CF041FA13490020C1F8A8011249C1F880017F
:203320000A201EF001FF296848790978884207D8B0EB510F03D9081AC0F1270000E0401ECA
:2033400034F810001AF000F8BDE870400A201EF0CBBE0000A0030020F8030020E047030809
:2033600000002242008021422DE9F0410E4D0024C5F880410D4F0126C7F8A861032005F55A
:20338000C07507F5D4771EF0CFFE2E6003201EF0CBFE2C6003201EF0C7FE3C60BDE8F0415A
:2033A0000A201EF0C1BE0000008021420000224270B50546FFF770FF64201EF0B5FE00F005
:2033C000E3F864201EF0B0FE40F6FE3000F024F864201EF0A9FE04220E49D0031AF0E8F9EE
:2033E0000C4E002406EB440116F81400497800EB012080B21CB920F4786040EAC51000F048
:203400007FF9641CE4B2022CECD3FFF7F1FB002070BD0000C81300202DE9F05FDFF854A1D6
:20342000060A0027C4B2CAF8807103201EF07CFEB846514F00254FF00109C7F8A89103205A
:203440001EF072FEC7F8A88103201EF06DFE6D1CEDB2042DF1D30025BB46300701D548468C
:2034600000E04046CAF8800103201EF05DFE5F46CBF8A89103201EF057FEC7F8A8810320E5
:203480001EF052FE70066D1C060EEDB2042DE4D33A4D4E464746C5E90098DFF8E49029468C
:2034A0004846C5F8088016F0EDFA00220121354816F0DEFBD846CBF8A86103201EF034FE5F
:2034C000C8F8A87103201EF02FFE2E6002206E60E8602946484616F0D5FA01221146294832
:2034E00016F0C6FBB84600255F46200602D5CAF8806101E0CAF8808103201EF015FEC7F8F6
:20350000A86103201EF010FEC7F8A88103201EF00BFE60066D1C040EEDB2082DE5D3174C51
:2035200045462146C4E900684846C4F8088016F0A9FADFF8508000220121404616F098FBFF
:20354000C7F8A86103201EF0EFFDC7F8A85103201EF0EAFD266002206660E0602146484613
:2035600016F090FA4046BDE8F05F0122114616F07FBB00000080214200002242080B00200D
:20358000000C0140000801402DE9F0474025FFF7EBFE0024DFF89890264FA0460126280631
:2035A00002D5C9F8806101E0C9F8808103201EF0BBFDC7F8A86103201EF0B6FDC7F8A88172
:2035C00003201EF0B1FD6806641C050EE4B2082CE5D3194C45462146C4E90068C4F80880D9
:2035E000DFF85880404616F04DFADFF8549000220121484616F03CFB03201EF095FDC7F8FD
:20360000A86103201EF090FDC7F8A85103201EF08BFD266002206660E0602146404616F0D1
:2036200031FA4846BDE8F0470122114616F020BB0080214200002242080B0020000C0140D3
:20364000000801402DE9F0474FF48037FFF724FEFFF79AFF64201EF067FD0020FFF7DCFE4D
:2036600064201EF061FD4FF430654FF48068DFF888A04FF6FF7901E0454501D9464600E0EA
:203680002E4609EA46021D4938461AF091F807EB4607002424E019489AF84630D44610F812
:2036A000141000EB4400407801EB002080B28BB1C5F530610A19DCF848108A420AD30B44F3
:2036C000934207D900F47F43501A0AEB4000B0F85C001843C04380B200F012F8641CA4B27C
:2036E000B442D8D3A81B05042D0CC5D1FFF780FA0020BDE8F0870000C0090020C8130020FE
:203700002DE9F05FDFF878A14FF000094D46CAF880915C4F4FF0010BC4B2060AD846C7F84D
:20372000A8B1032007F5D4771EF0FEFC3D6003201EF0FAFCC7F8008003201EF0F5FC3D60FC
:203740000320A7F5D4771EF0EFFCC846D9460025BB46B00601D5484600E04046CAF8800150
:2037600003201EF0E1FC5F46CBF8A89103201EF0DBFCC7F8A88103201EF0D6FC70066D1CA8
:20378000060EEDB2062DE4D33F4D4E464746C5E9009829463D48C5F8088016F073F90022CC
:2037A00001213B4816F064FAD146CAF88061D846CBF8A86103201EF0B7FCC8F8A87103207C
:2037C0001EF0B2FC2E604FF0020AC5F80CA029462E486E6016F056F9012211462C4816F0EF
:2037E00047FAB84600255F46200602D5C9F8806101E0C9F8808103201EF096FCC7F8A861F3
:2038000003201EF091FCC7F8A88103201EF08CFC60066D1C040EEDB2082DE5D31A4CDFF87F
:203820006CB04546C4E9006821465846C4F8088016F028F9DFF8588000220121404616F0DD
:2038400017FAC9F88061C7F8A86103201EF06CFCC7F8A85103201EF067FC2660C4F80CA01A
:2038600021465846666016F00DF901221146404616F0FEF9BDE8F05FC8201EF055BC000079
:203880000080214200002242080B0020000C01400008014010B5094A0949002001EB40045E
:2038A00032F81030248CA34201D0982010BD401CC0B20228F2D3002010BD00004048030876
:2038C000180B002070B51D490020C1F8A8011C4AC2F88001C1F89C01C1F8AC01194D1A4C6F
:2038E0002868017869B1C078884207D8B0EB510F03D9081AC0F1270000E0401E34F8100079
:2039000000E055201BF046FF2868017869B14078884207D8B0EB510F03D9081AC0F12700AD
:2039200000E0401E34F8100000E057201BF032FFBDE870400A201EF0D7BB000000002242F7
:2039400000802142F8030020E04703082DE9FC5F874888490022884D02708A70A878C306DA
:2039600004D5012088700A704A70ECE0C0F3410030B1012804D0022805D0032808D105E09B
:2039800043F6095404E047F6122401E04BF21B7440F2DE3004FB00F24FF47A70B2FBF0F2A0
:2039A00092B2019240F2F2326243B2FBF0F080B2009072486F4E027A3270807900F00F0059
:2039C000707000F0F5FA00F0F7F84CF2010000F04BFCA87800F0C4FA00F0EEF84CF20200EF
:2039E00000F042FC002000F0BBFA70783178644D08434CF203074CF2040627D000F0DCF8FC
:203A0000384600F031FC5B4C607800F0A9FA00F0D3F8304600F028FC207800F0A1FA00F0A1
:203A200025FB28680099884209D80199884206D301024FF47A70B1FBF0F0286081E00102AD
:203A40004FF47A70B1FBF0F028608FE04FF0000AD3460AF1010000F0FF0A00F0ADF84CF28C
:203A6000030000F001FC8AF0080000F079FA00F0A3F84CF20407384600F0F6FB802000F0AE
:203A80006FFA00F0F3FA3E4DD5F8008000F094F8384600F0E9FB7E2000F062FA00F0E6FA80
:203AA000D5F80090A14551D9A0454FD20026FF2518E07019470800F07FF84CF2040000F0E0
:203AC000D3FB87F0800020F0010000F049FA00F0CDFA2B480068A04202D23E46804601E06A
:203AE0003D468146681E8642E3DBB9EB0401A8EB040000D54942002800DA40428142204920
:203B000003DDC1F80080F1B202E0C1F80090E9B21B48009A0068904218D8019A904215D3A7
:203B200081F0800020F00101124801708AF008014170134801680A024FF47A71B2FBF1F1F6
:203B400001601EF045FD0020BDE8FC9F0BF1010000F0FF0BBBF1100FFFF47BAF08480168BC
:203B60000A024FF47A71B2FBF1F101609020EBE7E000002005040020C8330020180B002012
:203B8000D400002010B500F017F84FF4004000F06BFB012000F0C4FA00F0DCF8012807D001
:203BA000044900224A600122C1E90220942010BD002010BD3C0A002070B50A4C0120C4F8D1
:203BC0009C010A2004F5CE741EF0AEFA002525600A201EF0A9FA2561BDE870400A201EF095
:203BE000A3BA00000000224270B5044680782178884207D8B0EB510F03D9081AC0F127008A
:203C000000E0401E344D0023902235F81000194619F05AFD207A2178884207D8B0EB510F3D
:203C200003D9081AC0F1270000E0401E012335F81000C022032119F047FD207921788842C0
:203C400007D8B0EB510F03D9081AC0F1270000E0401E012335F81000C022082119F034FDD0
:203C6000607A2178884207D8B0EB510F03D9081AC0F1270000E0401E012335F81000C022D6
:203C8000194619F021FDA07A2178884207D8B0EB510F03D9081AC0F1270000E0401E01230F
:203CA00035F81000C022022119F00EFD60792178884207D8B0EB510F03D9081AC0F12700C2
:203CC00000E0401E002335F81000BDE87040C022194619F0F9BC0000E047030870B51EF08D
:203CE00077FA00F065F9022000F082F8164C207030B9FFF7CFFD207010B9FFF727FE2070D8
:203D0000124DC0B2124EE978084304D1B08A80B200F0B2FA2070207860B900F033FA2070FB
:203D200040B996F84400000604D5E87810B9FFF729FF2070FFF7C6FDE87810B1FA201EF000
:203D4000D3F9207870BD00003C0A002005040020C00900202DE9F05FDFF884900024D9F815
:203D6000001021F00F01091DC9F80010DFF874A04FF48031CAF800101B4E0127C6F8AC71FE
:203D800002201EF0D1F90025DFF860B0A8466408C6F8A87102201EF0C7F9C6F8A8810220F3
:203DA0001EF0C2F9DBF8000110B104F50044A4B26D1CEDB2102DEAD3C6F8A87102201EF0E9
:203DC000B3F9C6F8AC81D9F8001021F00F01491CC9F80010CAF800702046BDE8F09F000048
:203DE000000C01401008014000002242008021422DE9F0410546FFF7DFFE4FF40047384669
:203E000000F032FA15B1012D07D027E0FFF7A2FF002859D09120BDE8F08100242B4EFFF772
:203E200099FFC0B206EB4402010A517006F81400641CE4B2102CF2D31024FFF78BFF06EBA7
:203E40004402010A517006F81400641CE4B2202CF3D3FFF737FD40201FF0E2FF022D33D169
:203E6000FFF7AAFE384600F0FFF90024184DFFF771FF25F81400641CE4B2202CF7D3FFF7FC
:203E80009BFE384600F0F0F90024FFF763FF05EB4401641CE4B2A1F84000202CF5D300205E
:203EA00005EB400235F81010B2F84020914201D09720B0E7401CC0B22028F1D32878C10745
:203EC000044800D00121C1700020A4E7C8130020180B0020050400202DE9F05F8A460546E1
:203EE00000F066F8FFF768FE002000F0BDF9DFF86C804FF480664FF6FF7B4FF4006927E0F4
:203F0000B54201D22F4600E03746002409E0FFF721FF08F81400000A08EB4401641C487054
:203F2000A4B2BC42F3D3E81B85B2B7420AD00BEA4701002240464B4602E04254491C89B2CC
:203F40009942FAD3BAF1010F02D148461FF032FF002DD5D10020BDE8F09F0000C81300203B
:203F60002DE9F0470024104E104F0546A0464FF00109E80701D0484600E04046C6F88001A6
:203F800005201EF0D1F8C7F8A88105201EF0CCF8C7F8A89105201EF0C7F8641C6D08E4B2D1
:203FA000102CE6D3BDE8F08700802142000022422DE9F0412A4D2B4C2868017869B1407899
:203FC000884207D8B0EB510F03D9081AC0F1270000E0401E34F8100000E0572019F0AEF9E6
:203FE00005201EF081F82868017869B1C078884207D8B0EB510F03D9081AC0F1270000E060
:20400000401E34F8100000E0552019F09DF90A201EF06AF8144D0126C5F8A8610027C5F846
:204020009C71C5F8AC714AF66410FFF799FF00244FF48068C5F8A86102201EF075F8C5F8E8
:20404000A87102201EF070F8641CA4B24445F1D3C5F8A861BDE8F04102201EF065B80000A3
:20406000F8030020E0470308000022422DE9F047264C206820F00F00001D2060DFF8909095
:204080004FF48031C9F80010224F0126C7F8AC61214DDFF888802868017869B1C078884285
:2040A00007D8B0EB510F03D9081AC0F1270000E0401E38F8100000E0552019F03FF901201B
:2040C0001EF012F810201FF07BFB2868017869B1C078884207D8B0EB510F03D9081AC0F165
:2040E000270000E0401E38F8100000E0552019F02BF90020C7F8AC01206820F00F00401C0A
:204100002060C9F80060BDE8F0870000000C01401008014000002242F8030020E04703088B
:204120002DE9F0470024DFF85480154F05460126A146C7F8A86102201DF0F6FFE80702D0F9
:20414000C8F8806101E0C8F8809102201DF0ECFFC7F8A89102201DF0E7FF641C6D08E4B25A
:20416000102CE6D34FF4FA701DF0DEFFC7F8A861BDE8F04702201DF0D7BF00000080214267
:20418000000022422DE9F047FFF716FD4FF4004000F06AF8DFF8C090304F314EDFF8C48050
:2041A000002506EB450116F81500497800EB012084B235B1032D09D0042D0BD0052D17D069
:2041C0000CE0F87850B144F0010407E024F00F04787802E0387824F0FF0404432046FFF7FF
:2041E0009FFFFFF7B7FDA04207D0C9E9015428E024F0FF0098F80A40EFE76D1CEDB2102D87
:20420000CFD3FFF7D9FC48F2140000F02DF81424474606EB440116F814004978142C00EBC5
:20422000012085B204D125F0FF0097F8285005432846FFF775FFFFF78DFDA84206D0C9E924
:204240000145C9F80C009420BDE8F087641CE4B2192CDED90020F7E73C0A002005040020DC
:20426000C8330020180B002010B5FFF779FEBDE810400A201DF058BF2DE9F05F06464FF07B
:2042800000084FF48039FFF797FC0020FFF7ECFF4FF4806B33E05D46AE4200D235464FF62A
:2042A000FF7000EA45021849484619F081FA0024DFF854A019E00AEB44001AF814104078DC
:2042C00001EB002087B23846FFF72AFFFFF742FD874208D00D4908EB04024A60C1E9027011
:2042E0009320BDE8F09F641CA4B2AC42E3D308EB05001FFA80F8701B09EB450986B2002EA1
:20430000C9D10020EDE70000C81300203C0A00202DE9F047194C01250026C4E90056DFF8D6
:20432000608021464046A66015F0ACFBDFF8549000220121484615F09BFC01201DF0F4FEB5
:20434000114FC7F8A8511148C0F88051012007F5D4771DF0E9FE256002206560E0602146F4
:20436000404615F08FFB01221146484615F080FC3E60BDE8F04701201DF0D6BE080B002030
:20438000000C014000080140000022420080214270B52A490020C1F880012949C1F8A8017A
:2043A000C1F8B401274D284C28680078C8B9572018F0BEFF2868017869B1C078884207D8DE
:2043C000B0EB510F03D9081AC0F1270000E0401E34F8100000E0552018F0AAFF01201DF05E
:2043E00078FE2868017869B1C078884207D8B0EB510F03D9081AC0F1270000E0401E34F808
:20440000100000E055201BF0C5F92868017869B14078884207D8B0EB510F03D9081AC0F140
:20442000270000E0401E34F8100000E057201BF0B1F9BDE8704032201DF04BBE008021422F
:2044400000002242F8030020E047030810B50078002819D1002390221946562019F034F97C
:204460000123C0220321412019F02EF90123D0220821542019F028F90123C0220521BDE8D3
:204480001040402019F020B910BD000010B51DF09FFE00F075F9054C207028B900F030F915
:2044A000002000F055F82070C0B210BD3C0A00202DE9F05FDFF8848000250126C8E90065C8
:2044C000DFF87CB02F4641465846C8F8085015F0D9FA002201211B4815F0CAFBB9461A4F76
:2044E000DFF868A00024C7F8A8610A201DF01CFEDAF80001C7F8A8912843C5B201201DF0C5
:2045000013FE072C01D26806050E641CE4B2082CE9D3C8F800600221C8F80460C8F80C10BA
:204520000649584615F0AEFA01221146054815F09FFBFFF7EDFE2846BDE8F09F080B0020C5
:20454000000C01400008014000002242008021422DE9F04107460021612000F035F8184EC5
:204560004FF40058A7B90024FFF7A2FF315D0546A94209D0FFF70CFF12484460315DC0E9B2
:2045800002159320BDE8F081641CA4B24445EBD3012F11D10025FF020024FFF789FF3055BF
:2045A000641CA4B2BC42F8D338461FF003FC05F50065ADB24545EFD3FFF7EAFE0020E1E700
:2045C000C81300203C0A002070B50D4604461BF017FB0A201DF0A8FD20461BF0ADF80A207F
:2045E0001DF0A2FD2846BDE870401BF09BB8000070B500216120FFF7E7FF00240B4EFFF7D8
:2046000057FF0546305DA84208D0FFF7C1FE08484460315DC0E90215932070BD641CE4B2BD
:20462000022CECD3FFF7B4FE002070BDC81300203C0A00202DE9F05F4FF0000ADFF8AC9076
:204640002B4F0546544656464FF00108C7F8A861280602D5C9F8808101E0C9F88061C7F846
:20466000A88101201DF060FDC7F8A86101201DF05BFD6806641C050EE4B2082CE6D31D4D4A
:2046800044462946C5E90086DFF86C80AE60404615F0F8F9DFF864B000220121584615F0CE
:2046A000E7FA01201DF040FDC7F8A841C9F88041BAF1000F16D00A201DF036FD2C600220CC
:2046C0006C60E8600B49404615F0DCF901221146584615F0CDFAC7F8A861BDE8F05F012051
:2046E0001DF022BD4FF4FA70E6E700000080214200002242080B0020000C01400008014044
:204700002DE9F04100216020FFF75EFF114E00244FF4006796F83F0040F0800086F83F00F7
:20472000305DFFF787FF641CA4B2BC42F8D30125002404EBC520305CFFF77CFF641CA4B2E0
:20474000BC42F6D36D1CEDB2042DF1D3BDE8F041FFF71EBEC813002070B500216020FFF716
:2047600033FF064D0024285DFFF764FF641CE4B2022CF8D3BDE87040FFF70ABEC813002095
:2047800010B5FFF7E9FFBDE81040FFF731BF000070B509480124C0F8804102201DF0C4FC98
:2047A000064DC5F8A841022005F5D4751DF0BCFC0020286070BD00000080214200002242BA
:2047C00070B51C490020C1F880011B49C1F8A8011A4D1B4C2868017869B1C078884207D85D
:2047E000B0EB510F03D9081AC0F1270000E0401E34F8100000E055201AF0CCFF64201DF0B3
:2048000093FC2868017869B14078884207D8B0EB510F03D9081AC0F1270000E0401E34F84A
:20482000100000E057201AF0B5FFBDE870400A201DF04FBC0080214200002242F80300205A
:20484000E047030810B542F20611A12000F07EF900F088F8612803D0FFF7B2FF982010BDF6
:20486000FFF7AEFF002010BD70B50178044681B3A078884207D8B0EB510F03D9081AC0F121
:20488000270000E0401E214D0023902235F81000194618F019FF20792178884207D8B0EB3E
:2048A000510F03D9081AC0F1270000E0401E012335F81000C022032118F006FF607921789E
:2048C000884208D8B0EB510F04D9081AC0F1270001E009E0401E012335F81000C0220821C8
:2048E000BDE8704018F0F0BE002390221946562018F0EAFE0123C0220321412018F0E4FE9E
:204900000123C02208215420EAE70000E047030870B5FFF797FF114C2070022000F04AFAFD
:204920002078C8B91DF054FC0D4D287828B1FA201DF0CFFB207838B10EE000F0ADF9002018
:2049400000F060F82070F5E7287808B900F0E0F9002000F02FFA2070C0B270BD3C0A0020AB
:20496000090400202DE9F05FDFF8848000250126C8E90065DFF87CB02F4641465846C8F80B
:20498000085015F07FF8002201211B4815F070F9B946DFF868A01A4F0024DAF80001284385
:2049A000C5B2072C01D26806050EC7F8A86101201DF0BAFBC7F8A89101201DF0B5FB641CF8
:2049C000E4B2082CE9D3C8F800600221C8F80460C8F80C100649584615F054F80122114656
:2049E000054815F045F9FFF7D3FE2846BDE8F09F080B0020000C0140000801400080214212
:204A0000000022422DE9F14FDFF8BC8000984FF4006A4FF4005B78BB4FF46041A12000F01E
:204A200095F8DFF8A89000250024281999F8463018F800604F4673B1B96C00F560428A4298
:204A400009D30B44934206D9401A09EB400000F5E03090F85C60FFF785FF0746BE420CD0FD
:204A6000FFF7AEFE1A4893212A1900F8041B80E8C4000846BDE8F88F08E0641CA4B2544527
:204A8000D3D305F50065ADB25D45CDD30098012816D14FF46041A12000F058F80025464632
:204AA00057460024FFF75EFF3055641CA4B2BC42F8D31FF09BF905F50065ADB25D45F0D3F8
:204AC000FFF77EFE0020D5E7C8130020C00900203C0A002010B50446000A00F005F8E0B2A6
:204AE000BDE81040AFF300802DE9F0470024DFF85480154F054626464FF00109C7F8A86157
:204B000002201DF011FB280602D5C8F8809101E0C8F8806102201DF007FBC7F8A8910220B7
:204B20001DF002FB6806641C050EE4B2082CE5D3C7F8A86102201DF0F7FABDE8F047FFF72E
:204B400027BE000000802142000022422DE9F0411D4C07460E4620681C4D017869B140789C
:204B6000884207D8B0EB510F03D9081AC0F1270000E0401E35F8100000E0572018F0DEFB08
:204B800001201DF0A6FA2068017869B1C078884207D8B0EB510F03D9081AC0F1270000E09A
:204BA000401E35F8100000E0552018F0CDFB64201DF0BAFA00F050F93846FFF795FF304639
:204BC000BDE8F041FFF786BFF8030020E04703082DE9F0470024DFF8AC902B4F05462646C2
:204BE0004FF00108C7F8A861280602D5C9F8808101E0C9F8806101201DF096FAC7F8A881B5
:204C000001201DF091FAC7F8A86101201DF08CFA6806641C050EE4B2082CE3D31B4C4546EC
:204C20002146C4E90086DFF86880A660404614F029FFDFF860A000220121504615F018F89D
:204C400001201DF071FAC7F8A851C9F8805101201DF06AFAC7F8A8614FF4FA701DF064FAFF
:204C6000256002206560E0602146404614F00AFF01221146504614F0FBFFBDE8F047012083
:204C80001DF052BA0080214200002242080B0020000C0140000801402DE9F0474FF46041BA
:204CA0004020FFF753FFDFF86080184E00254FF400690024291996F8467018F8010077B17B
:204CC000B26C01F56043934209D317449F4206D9881A06EB400000F5E03090F85C00FFF79F
:204CE00077FF641CA4B24C45E4D305F50065ADB2B5F5005FDDD3FF20FFF76AFF00F0C8F87B
:204D0000BDE8F047FFF75CBDC8130020C009002010B542F2C5014020FFF718FF094C2078AB
:204D2000FFF756FF6078FFF753FFA078FFF750FFFF20FFF74DFF00F0ABF8BDE81040FFF7CC
:204D40003FBD00000A04002070B505460246002414494FF4803018F02BFD0021114804E06F
:204D6000425C491C224494B289B2A942F8D30E4DB5F86800A0420CD102220C49100418F0CF
:204D800017FD0A49B5F86C30087849780A18934201D0862070BD064AAA2313705070917026
:204DA000002070BDC8130020C0090020C83300200A0400202DE9F04106001DD142F2C5083D
:204DC0004146A120FFF7C2FE0024204FFFF7CAFD0546385DA8420BD0FFF7F2FC1C4804EBA9
:204DE00008014160395DC0E902159420BDE8F081641CE4B2032CE9D3012E02D0022E10D0D7
:204E00001FE042F2C601A120FFF7A0FEFFF7AAFD104C2070FFF7A6FD607002201FF000F828
:204E20000FE042F2C701A120FFF790FEFFF79AFD81060648A0F1010001D5012100E0002155
:204E40000170FFF7BDFC0020D0E700000A0400203C0A0020C813002070B50B4C0020C4F874
:204E600080010A2004F5C0741DF05EF907480125C0F8A8510A201DF057F92560BDE870406F
:204E80000A201DF051B90000008021420000224270B50B4C0125C4F880510A2004F5C07404
:204EA0001DF042F90748C0F8A8510A201DF03CF900202060BDE870400A201DF035B9000024
:204EC000008021420000224270B51A490020C1F880011949C1F8A801C1F89C01174D29689A
:204EE000C8780978884207D8B0EB510F03D9081AC0F1270000E0401E114C34F810001AF096
:204F000049FC01201DF0E5F8296848780978884207D8B0EB510F03D9081AC0F1270000E015
:204F2000401E34F810001AF035FCBDE870400A201DF0CFB80080214200002242F803002027
:204F4000E04703082DE9F74F00268B468246B1464FF001080F4F17E0002511E000240BE04B
:204F6000C7F8A88101201DF0DFF8C7F8A89101201DF0DAF8641CE4B25445F1D36D1CEDB2B1
:204F80005D45EBD3761CF6B202988642E4D3BDE8FE8F00000000224270B5044680782178C8
:204FA000884207D8B0EB510F03D9081AC0F1270000E0401E214D0023902235F8100019465A
:204FC00018F082FB20792178884207D8B0EB510F03D9081AC0F1270000E0401E012335F811
:204FE0001000C022032118F06FFB60792178884207D8B0EB510F03D9081AC0F1270000E05D
:20500000401E012335F81000D022082118F05CFBA0792178884207D8B0EB510F03D9081A03
:20502000C0F1270000E0401E012335F81000BDE87040C022194618F047BB0000E047030827
:205040000E4810B50021017041701DF0C1F800F01DF80B480B4C007801280BD090202070C1
:2050600009484FF47A720168C901B1FBF2F10160207810BD00F086FA2070F9E71004002014
:20508000E00000203C0A0020D40000202DE9F05F7C480021DFF8F0B101700D461F2473205A
:2050A000CBF8001000F00CFA2146042000F036FB764F396888790978884207D8B0EB510FEF
:2050C00003D9081AC0F1270000E0401E704E0023C02236F81000194618F0F6FA10201EF026
:2050E0006FFB396888790978884207D8B0EB510F03D9081AC0F1270000E0401E0123B04651
:2051000036F81000C022194618F0DEFA29460420DBF8006000F002FB396888790978884290
:2051200007D8B0EB510F03D9081AC0F1270000E0401E002338F81000C022194618F0C4FA17
:2051400010201EF03DFB3968B94688790978884207D8B0EB510F03D9081AC0F1270000E05D
:20516000401E0123C24638F81000C022194618F0ABFADBF800704FF224418F4278D38E42A2
:205180003FD975E02819400880460146042000F0C5FAD9F8001088790978884207D8B0EB92
:2051A000510F03D9081AC0F1270000E0401E00233AF81000C022194618F086FA10201EF00F
:2051C000FFFAD9F8001088790978884207D8B0EB510F03D9081AC0F1270000E0401E012397
:2051E0003AF81000C022194618F06EFADBF800004FF22441884202D90746454601E0064699
:205200004446601E8542BDDBFFF75EFEA7F57440A6F574412438A1F1240100D540420029A2
:2052200000DA49428842584603DA2C46CBF8007001E0CBF800600246006840F2E343A0F57E
:205240007141B339994203D30E490020087014E0104B84F01001C00199700A4901230B7080
:205260004FF47A71B0FBF1F010601DF0B1F904E004480021CBF800100170BDE8F05FFFF7CE
:2052800023BE0000E0000020D4000020F8030020E0470308100400202DE9F0410746732091
:2052A00000F00EF94FF4805417BB032000F0B6F90A201CF039FF00250E2000F03DF806461A
:2052C0000A201CF031FFFF2E05D0FFF7FDFD6D1CA8B2BDE8F0810A201CF026FF0A2000F008
:2052E0009DF90A201CF020FF6D1CADB2A542E3D3012F1AD10021012000F010FA00250D4E67
:20530000FF02A04600240E2000F016F83055052000F084F9641CA4B2BC42F4D31EF066FD33
:2053200005F50065ADB24545ECD3FFF7CDFD0020CFE70000C813002070B50646002401211E
:20534000204613F0EFFB0025300701D5012100E00021002013F0E6FB70066D1C060EEDB2EF
:20536000042DF1D300250121084613F0DBFB20430446072D01D24006040E6D1CEDB2082D61
:20538000F1D313F025FA204670BD00002DE9F05F4649074600250120C1F88001444E2C46CF
:2053A000A9468046B246C6F8A88101201CF0BCFEC6F8A89101201CF0B7FE641CE4B2042C53
:2053C000F0D3C3460026D046380701D5584600E048463649C1F880010024DA46C8F8A8A19E
:2053E00001201CF0A1FEC8F8A89101201CF09CFE641CE4B2042CF1D37806761C070EF6B24A
:20540000042EE1D35F46DFF8ACB04C465946CBE900792948CBF8089014F034FB002201212D
:20542000264814F025FCBA460026A14647466806050E0024D046C7F8A88101201CF074FEFD
:20544000C7F8A89101201CF06FFE641CE4B2032CF1D30A201CF068FE1448D0F8000108B137
:205460006D1CEDB2C7F8A88101201CF05DFEC7F8A89101201CF058FE761CF6B2082ED6D300
:20548000CBF800A00221CBF804A0CBF80C100949094814F0F7FA01221146084814F0E8FBF7
:2054A00013F096F92846BDE8F09F00000080214200002242080B0020000C014000080140A8
:2054C0002DE9F04180462B480024C0F8A8412A4DC5F88041C0F89C41284F396848780978A4
:2054E000884207D8B0EB510F03D9081AC0F1270000E0401E224E36F8100017F01FFF012000
:205500001CF0E7FD3968C8780978884207D8B0EB510F03D9081AC0F1270000E0401E36F853
:20552000100017F011FF01201CF0D3FD01220221FA20FFF707FD012203213220FFF702FD5F
:2055400008F0FF0000F078F9C5F88041FA2102220846FFF7F7FC01221921FA20FFF7F2FCA4
:2055600001221146CE20FFF7EDFCBDE8F04101201CF0AFBD0000224200802142F803002013
:20558000E04703082DE9F05F7320FFF799FFDFF88080DFF8809000264FF4006A4FF4805BA4
:2055A000002430193F2818F8005006D199F8021025F0F80040EAC100C5B22946012000F04E
:2055C000D7F80D2000F052F8FA201CF0ADFD0E20FFF7DCFE0746A84209D0FFF775FC0E48FA
:2055E00004EBC62180E8A2009320BDE8F09F052000F03CF8641CA4B25445D2D306F5006626
:20560000B6B25E45CCD3FFF75FFC0020EDE70000C813002010040020400A002070B5054692
:205620000121002013F07EFA0024280701D5012100E00021002013F075FA6806641C050ECE
:20564000E4B2042CF1D300240021084613F06AFA641CE4B2082CF7D303490020C1F880010C
:20566000BDE8704013F0B4B8008021422DE9F047DFF8A0A001270546CAF880710024264E61
:20568000A046C6F8A87101201CF04EFDC6F8A88101201CF049FD641CE4B2042CF1D3C1466A
:2056A0000024B846280701D5404600E04846CAF880010027C6F8A88101201CF035FDC6F861
:2056C000A89101201CF030FD7F1CFFB2042FF1D36806641C050EE4B2042CE3D34F46CAF820
:2056E000809100250024C6F8A88101201CF01CFDC6F8A87101201CF017FD641CE4B2042CC5
:20570000F1D36D1CEDB2082DECD3BDE8F04713F05FB80000008021420000224270B50D46F4
:2057200006460121002013F0FDF90024300701D5012100E00021002013F0F4F97006641C88
:20574000060EE4B2042CF1D30024280601D5012100E00021002013F0E5F96806641C050E5E
:20576000E4B2082CF1D3BDE8704013F031B800002DE9F05FDFF8B8B0074601200E46CBF831
:20578000800100242B4DA1468046AA46C5F8A88101201CF0C9FCC5F8A89101201CF0C4FC94
:2057A000641CE4B2042CF0D3C1460025D046380701D5484600E00020CBF880010024A246AB
:2057C000C8F8A89101201CF0AFFCC8F8A8A101201CF0AAFC641CE4B2042CF1D378066D1C0B
:2057E000070EEDB2042DE2D300254746300601D5484600E05046CBF880010024D046C7F810
:20580000A89101201CF090FCC7F8A88101201CF08BFC641CE4B2042CF1D370066D1C060EDD
:20582000EDB2082DE2D3BDE8F05F12F0D1BF0000008021420000224270B505460121002060
:2058400013F070F900240021084613F06BF9641CE4B2042CF7D30024280601D5012100E0A8
:205860000021002013F05EF96806641C050EE4B2082CF1D303490020C1F88001BDE8704003
:2058800012F0A6BF008021422DE9F0470025DFF878801E4F044682464FF001092E46C7F882
:2058A000A86102201CF040FCA00702D5C8F8809101E0C8F8806102201CF036FCC7F8A8914C
:2058C00002201CF031FC60066D1C040EEDB2022DE5D305201CF028FC4446C8F88061052041
:2058E0001CF022FCC4F88091BAF1010F09D00A201CF01AFCC7F8A861BDE8F04705201CF0FC
:2059000013BC4FF4FA70F3E70080214200002242F0B5044641F6FF700022074604EB4205B0
:2059200014F812306D78784003EB05237B4080EA0306330B6FEA030C8CEAD62589B265F38E
:20594000CB216FEAD12C8CEA962565F38A2183EA912565F30C316FEA912C8CEA562565F3BA
:2059600049216FEA512C8CEA162565F308216FEA112C8CEAD61565F3C7116FEAD11C8CEAD2
:20598000961565F386116FEA911C8CEA561565F345116FEA511C8CEA161565F304116FEAAB
:2059A000111C8CEAD60565F3C3016FEAD10C8CEA960565F3820183EA560565F341016FEA70
:2059C000D1235E4066F300018B08DE4386EA510565F341006FEA50054D4065F3000080EACB
:2059E000113565F30C304D0A85EAD12666F3CB204FEA112C8CEA912666F38A20CE0975409A
:205A000065F349208D098CEA050C6CF308204FEA511C86EA0C0666F3C7100E09754065F3A5
:205A20008610CD088CEA050C6CF345105E4066F304106FEA5006754065F3C300C5436B4083
:205A4000521CD2B263F38200202AFFF467AFF0BD10B500F0B5FC14480168C87809788842C6
:205A600007D8B0EB510F03D9081AC0F1270000E0401E0E4931F8100017F060FC022141F6EB
:205A8000FF7000F00BFC0320FFF7FEFE00F020FA044600F00DF8A4F53060D73801D0982081
:205AA00010BD002010BD0000F8030020E047030870B51E4D2968C8780978884207D8B0EBB9
:205AC000510F03D9081AC0F1270000E0401E184C34F8100019F05EFE0A201CF025FB296866
:205AE00048780978884207D8B0EB510F03D9081AC0F1270000E0401E34F8100019F04AFE20
:205B00000A201CF011FB0B490020C1F880010A49C1F8A801C1F89C01084800881BF062FE47
:205B2000BDE870400A201CF0DFBA0000F8030020E04703080080214200002242A0030020EA
:205B400070B51C4C4FF6FF751B49606905EA4002681C17F02DFE00210846174A636904E06B
:205B6000165C401C314489B280B2B0EB430FF7D3B4F86800884218D1208B104905EA4002C2
:205B80004FF4003017F014FE002108460B4B228B04E01D5C401C294489B280B2B0EB420F88
:205BA000F7D3B4F86C00884201D0862070BD002070BD0000C0090020C8130020C833002049
:205BC0002DE9FF5F7B487C4D017801F00700032808D002280AD001280CD048070ED07F207C
:205BE0006870CFE043F6095403200AE047F61224022006E040F64274012002E040F2F1648A
:205C000000200090042001904FF4757004FB00F14FF47A70B1FBF0F189B20391C4EB0421AA
:205C20008900B1FBF0F080B2029000F0C9FB022141F6020000F032FB5F48604D4FF4FA7657
:205C40004078C143490600991DD000F08DFB30461CF06AFA01981DF0B3FDFFF729FF286851
:205C60000299884208D20399884205D901027000B1FBF0F0286083E001024FF47A70B1FBDB
:205C8000F0F0286093E0102000F06EFB01981DF097FD4A48006800287FD04FF003084FF06C
:205CA000FF094FF0000A29FA08F5AB465046009900F05AFB4FF4FA701CF036FA01981DF07F
:205CC0007FFD3E4EE8B20099376800F04DFB4FF4FA701CF029FA01981DF072FD3668A7423A
:205CE0001FD9A64216D31CE008444508A8B2009900F03AFB4FF4FA701CF016FA01981DF0BF
:205D00005FFD2E480068A04202D2A946064601E0AA4607460BEA09000BEA0A01421E914209
:205D2000E2D30298864214D80398864211D3FFF7BFFEFF20204920FA08F000EA0900487021
:205D40001E4801680A024FF47A71B2FBF1F1016016E0029887421AD80398874217D3FFF7BB
:205D6000A7FEFF20144920FA08F000EA0A0048701249086802024FF47A70B2FBF0F0086053
:205D80001CF026FC002004B0BDE8F09F05E0A8F10100C0B25FEA000881D1084801680A0274
:205DA0004FF47A71B2FBF1F10160FFF781FE9020E9E70000C83300201C040020D400002081
:205DC00070B5044680782178884207D8B0EB510F03D9081AC0F1270000E0401E2A4D002371
:205DE000902235F81000194617F06EFC20792178884207D8B0EB510F03D9081AC0F1270038
:205E000000E0401E012335F81000C022032117F05BFC60792178884207D8B0EB510F03D98D
:205E2000081AC0F1270000E0401E012335F81000D022082117F048FCA0792178884207D808
:205E4000B0EB510F03D9081AC0F1270000E0401E002335F81000C022194617F035FCE07901
:205E60002178884207D8B0EB510F03D9081AC0F1270000E0401E012335F81000BDE870401B
:205E8000C022194617F020BCE047030810B51CF09FF9FFF7DDFD0D4C0028207015D102205A
:205EA00000F060F8FFF78CFE207000280DD100F007FB002000F032F92070002805D100F0D9
:205EC000BDFA002000F04EF8207010BD3C0A00202DE9F05FDFF87C800024D8F8000020F0B6
:205EE0000F00001DC8F80000DFF86CB04FF48031CBF80010DFF864902646C9F8A8410520F6
:205F00001CF012F90025B24601274E464FF6FF7000EA4404C6F8A87105201CF005F910484D
:205F2000D0F8000108B1641CA4B2C6F8A8A105201CF0FAF86D1CEDB20D2DE7D3D8F80000F3
:205F400020F00F00401CC8F80000CBF800702046BDE8F09F000C014010080140000022422F
:205F6000008021422DE9F05FDFF8908181464FF0000AB8F81800C0F3471B00F01F0600F0FF
:205F80001FFA5F480168C8780978884207D8B0EB510F03D9081AC0F1270000E0401E5949BD
:205FA00031F8100017F0CAF9B9F1000F3ED10221C80200F073F90024534904EB4A10022C96
:205FC00011F8102001EB4000407802EB002085B204D0032C0AD0042C0CD00DE04B4925F0E1
:205FE0007F00497801F07F05054305E0B8F86600050A01E098F866500320FFF745FCFFF723
:2060000067FF0746BD420AD0FFF752FD4048942100F8041B80E8B0000846BDE8F09F641C41
:20602000E4B2052CC8D30020FFF72EFCB9F1010F3DD10027374D4FF4805819E000F02EF920
:2060400000240320FFF720FCFFF742FF05EB4402010A517005F81400641CE4B2202CF0D378
:206060000020FFF711FC40201DF0DAFE7F1CFFB25F4508EB47104FF00201DFD300F00EF993
:2060800000240CE00320FFF7FFFBFFF721FF05EB4402010A517005F81400641CE4B2B442A8
:2060A000F0D30020FFF7F0FB70001DF0B9FEB9F1020F1ED1022141F2010000F0EFF80320ED
:2060C000FFF7E2FBFFF704FF134C60800320FFF7DBFBFFF7FDFEA0800020FFF7D5FBA078B7
:2060E00000F00100C14309480170217901F07F014170FFF7DDFC00208FE70000C0090020DF
:20610000F8030020E0470308C83300201C0400203C0A0020C8130020EE3600202DE9F05FCD
:2061200080465948808AC0F3471600F049F957480168C8780978884207D8B0EB510F03D963
:20614000081AC0F1270000E0401E514931F8100017F0F4F80A201BF0C7FF022141F20100EF
:2061600000F09CF80320FFF78FFBFFF7B1FE0020FFF78AFBDFF81C9141F6FF7A41F6FE7BD4
:20618000B8F1000F3FD100243BE00221504600F085F80320FFF778FBFFF79AFE0020FFF7A2
:2061A00073FB6001022100F079F800250320FFF76BFBFFF78DFE6D1CADB2202DF6D3022146
:2061C000584600F06BF80320FFF75EFBFFF780FE07460020FFF758FB09EB8410FFF798FB21
:2061E0000546B8420BD0FFF763FC2B489321620100F8041B80E8A4000846BDE8F09F641C7B
:20620000E4B2B442C1D3B8F1010F39D1002535E002215746504600F041F80320FFF734FB9A
:20622000FFF756FE0020FFF72FFB6801022100F035F8B84600244F460320FFF725FBFFF745
:2062400047FEA8EB000007EB4402010A517007F81400641CA4B2202CEED30221584600F0BB
:206260001DF80320FFF710FBFFF732FE0020FFF70BFB40201DF09EFD6D1CEDB2B542C7D3E2
:20628000FFF716FC0020B8E7C0090020F8030020E0470308C81300203C0A00202DE9F05F3B
:2062A0002F4E4FF000080C460746C6F8A88105201BF03AFFDFF8ACA000254FF6FF7B4FF0E5
:2062C0000109F80401D5484600E04046CAF8800105201BF029FFC6F8A89105201BF024FF09
:2062E000C6F8A8810BEA470705201BF01DFF6D1CEDB20D2DE5D3A34600254746C6F8A8719C
:2063000005201BF011FFA00702D5CAF8809101E0CAF8807105201BF007FFC6F8A891052006
:206320001BF002FF60066D1C040EEDB2022DE5D35446CAF8807105201BF0F6FEC4F880918C
:2063400005201BF0F1FEBBF1010F02D1FA2000F01BF8C6F8A871BDE8F05F05201BF0E4BED5
:206360000000224200802142800100EB011010B50F3080B20121FFF791FFBDE810404FF443
:20638000FA701BF0D1BE00002DE9F0410024054627464FF00108094E0BE0C6F89C81012050
:2063A0001BF0C2FEC6F89C7101201BF0BDFE641CA4B2AC42F1D3BDE8F0810000000022425E
:2063C00070B51A490020C1F880011949C1F8A801C1F89C01174D296848780978884207D8E2
:2063E000B0EB510F03D9081AC0F1270000E0401E114C34F8100016F0A1FF2968C8780978FD
:20640000884207D8B0EB510F03D9081AC0F1270000E0401E34F8100016F096FF1E201BF0A4
:2064200063FEBDE870409620FFF7AEBF0080214200002242F8030020E04703082DE9F041B2
:20644000FFF7BEFF0221C802FFF728FF194FDFF868801A4E002407EB440117F814004978B1
:20646000022C00EB012085B204D0032C0AD0042C0CD00DE098F8011025F07F0001F07F052B
:20648000054305E0B6F86600050A01E096F866503220FFF779FF01212846FFF7FFFE3220F2
:2064A000FFF772FF641CE4B2052CD4D3BDE8F041FFF7FEBAC83300201C040020C0090020BF
:2064C0002DE9F0471848808AC0F34719FFF778FF0025164F41F6FF7820E068010221FFF7CB
:2064E000DDFE002404EB451017F8101007EB4000407801EB002086B286EA08063220FFF736
:2065000043FF01213046FFF7C9FE3220FFF73CFF641CA4B2202CE5D36D1CEDB24D45DCD31E
:20652000BDE8F047FFF7C4BAC0090020C813002070B504462F20207100239022194656202E
:2065400017F0C2F8A0782178884207D8B0EB510F03D9081AC0F1270000E0401E474D00235A
:20656000902235F81000194617F0AEF820792178884207D8B0EB510F03D9081AC0F1270074
:2065800000E0401E012335F81000C022032117F09BF860792178884207D8B0EB510F03D9CA
:2065A000081AC0F1270000E0401E012335F81000C022082117F088F8A0792178884207D855
:2065C000B0EB510F03D9081AC0F1270000E0401E012335F81000C022092117F075F8E07972
:2065E0002178884207D8B0EB510F03D9081AC0F1270000E0401E012335F81000C0220A21DC
:2066000017F062F8207A2178884207D8B0EB510F03D9081AC0F1270000E0401E012335F8DD
:206620001000C0220B2117F04FF8607A2178884207D8B0EB510F03D9081AC0F1270000E021
:20664000401E012335F81000C022194617F03CF8A07A2178884207D8B0EB510F03D9081AAA
:20666000C0F1270000E0401E012335F81000BDE87040C022022117F027B80000E047030831
:2066800070B51E4D2968C8780978884207D8B0EB510F03D9081AC0F1270000E0401E184CFC
:2066A00034F8100019F076F802201BF03DFD296848780978884207D8B0EB510F03D9081A4C
:2066C000C0F1270000E0401E34F8100019F062F864201BF029FD0B490020C1F880010A494F
:2066E000C1F8A801C1F8AC01C1F8B801C1F89C01BDE870400A201BF0ECBC0000F8030020BD
:20670000E0470308008021420000224270B5044680782178884207D8B0EB510F03D9081A5E
:20672000C0F1270000E0401E344D0023902235F81000194616F0C8FF20792178884207D8A9
:20674000B0EB510F03D9081AC0F1270000E0401E012335F81000C022032116F0B5FF607930
:206760002178884207D8B0EB510F03D9081AC0F1270000E0401E012335F81000C02208215C
:2067800016F0A2FFA0792178884207D8B0EB510F03D9081AC0F1270000E0401E012335F897
:2067A0001000C022194616F08FFFE0792178884207D8B0EB510F03D9081AC0F1270000E0A8
:2067C000401E012335F81000C022022116F07CFF207A2178884207D8B0EB510F03D9081A9F
:2067E000C0F1270000E0401E012335F81000BDE87040C022062116F067BF0000E047030866
:2068000010B51BF0E5FC022000F0F2F90848094C007850B1002000F03BFA207010F0FF0FC9
:2068200002D100F00BF9207010BD00F05FF9F4E71E0400203C0A00202DE9F05FDFF89CA0F1
:2068400000254FF0010BCAE900B55C462F4651462348CAF8085013F015F90022012121486F
:2068600013F006FADFF88090C9F880411F4EC6F8A84101201BF058FCB84600245F4602202F
:206880001BF052FCC6F8A88102201BF04DFCD9F800010E2CC0B204D2C4F10D0188402844F7
:2068A00085B2C6F8A87102201BF03EFC641CE4B20E2CE4D3CAF800700221CAF80470CAF80F
:2068C0000C100649064813F0DDF801221146054813F0CEF92846BDE8F09F0000080B0020C1
:2068E000000C01400008014000802142000022422DE9F047814628480125C0F88051274C15
:20690000C4F8A851C4F8AC514FF00008C4F8B881C4F89C81224F396848780978884207D8F8
