:020000040800F2
:20840000C848002005850008FFD9000821D60008FDD90008AB8A0008E10F010800000000A7
:20842000000000000000000000000000E1E900080F9B000800000000B9DD0008B5F4000869
:208440001F85000883DD00081F8500081F8500081F8500081F8500081F8500088B9C00087D
:20846000919C00081F8500081F8500081F850008D99A0008E59A00081F8500081F85000869
:208480001F8500081F8500081F8500081F850008290B01081F8500081F8500081F850008EB
:2084A0001F8500081F8500081F8500081F85000875F5000881F500081F8500081F850008C4
:2084C0001F8500081F8500081F8500081F8500081F8500081F850008FDF900081F850008EA
:2084E0006D9C00081F8500081F850008DFF810D000F046F800480047DD230108AFF3008074
:20850000C84800200648804706480047FEE7FEE7FEE7FEE7FEE7FEE7FEE7FEE7FEE7FEE78F
:2085200029F50008ED84000840EA01039B0703D009E008C9121F08C0042AFAD203E011F860
:20854000013B00F8013B521EF9D27047D2B201E000F8012B491EFBD270470022F6E710B581
:2085600013460A4604461946FFF7F0FF204610BD421C10F8011B0029FBD1801A70470000C9
:20858000064C074D06E0E06840F0010394E8070098471034AC42F6D3FFF7ACFF7C3F010811
:2085A000AC3F010870B58C1810F8015B15F0070301D110F8013B2A1106D110F8012B03E04C
:2085C00010F8016B01F8016B5B1EF9D12B0705D40023521E0DD401F8013BFAE710F8013BA6
:2085E000CB1A921C03E013F8015B01F8015B521EF9D5A142D8D3002070BD40F2217CC2F2AD
:20860000000C604740F2CB1CC2F2000C604740F2FD1CC2F2000C604740F2F34CC2F2000C44
:20862000604740F20F0CC2F2000C604740F2791CC2F2000C604740F2CD5CC2F2000C6047EF
:2086400040F2692CC2F2000C604740F2A52CC2F2000C604740F2E13CC2F2000C60470000CC
:2086600070B5044600688168C943C9071CD1816821F00101816002F065FD05460FE000BF47
:2086800002F060FD401B022809D9A06A40F01000A062E06A40F00100E062012070BD206845
:2086A0008068C043C007EBD0002070BDF8B500260446009600688168C943C90728D081683F
:2086C00041F001018160134813490068B0FBF1F000E0401E00900028FBD102F033FD0546AC
:2086E00011E000BF02F02EFD401B02280BD9A06A40F01000A062E06A40F00100E06284F8BF
:2087000024600120F8BD20688068C043C007E9D10020F8BD740C002040420F0010B500F050
:2087200093F8302000F0A4F8942000F0A1F8D12000F09EF8202000F09BF80B2000F0B2F896
:20874000812000F095F83F2000F0ACF8032000F0A9F8F02000F08CF8102000F0A3F8CA202B
:2087600000F086F8002000F09DF8872000F09AF8202000F097F8BC2000F07AF8002000F0B0
:2087800091F8A62000F074F8762000F071F8752000F06EF8002000F085F8282000F082F815
:2087A000152000F065F8002000F07CF8FF2000F079F8312000F05CF8322000F059F80020EB
:2087C00000F070F8022000F06DF8012000F06AF8512000F04DF8FB2000F064F8402000F0FA
:2087E00047F8F42000F044F8002000F05BF8002000F058F8002000F055F8002000F052F880
:20880000002000F04FF8002000F04CF8002000F049F8002000F046F8F02000F029F81520B8
:2088200000F040F8152000F03DF8152000F03AF8152000F037F8302000F01AF8BDE81040C4
:20884000AF2000F015B8000010B5084C0020C4F8AC01322004F5D67408F09CFD0120206023
:20886000BDE81040322008F095BD00000000224231B509490020C1F8A801084CC4F8BC017C
:208880000A2301226946064804F5DE7403F073FF0120206038BD000000002242000021427E
:2088A000A43B002031B509480124C0F8A841084D0020C5F8BC010A2322466946054805F542
:2088C000DE7503F058FF2C6038BD00000000224200002142A43B00200B48008800EB0011DD
:2088E00001EB4011094800EB8100C17B807B00EBC00202EB001001EB8000A0F5E06009381B
:2089000001D100F089BE7047820C00202C0F00200B48008800EB001101EB4011094800EB3E
:208920008100C17B807B00EBC00202EB001001EB8000A0F5E060093801D100F089BE704793
:20894000820C00202C0F0020704770470C48008800EB001101EB40110A4800EB8100C17B91
:20896000807B00EBC00202EB001001EB8000A0F5E060093802D10120FFF73FBE7047000032
:20898000820C00202C0F0020114810B5008800EB001101EB40110F4800EB8100827BC17BF3
:2089A00002EBC20303EB021201EB8201A1F5E061093908D08720084A00215318491C5870F1
:2089C0000429FADB10BD406900F09CFEF3E70000820C00202C0F00206C1B002070B5274D72
:2089E00004464FF0000649B114E001221021284602F0A2FB642008F0E3FC761CA642F4D30D
:208A000034E001221021284602F096FB642008F0D7FC761CA642F4D300221021284602F0BA
:208A20008BFB642008F0B6FC002608E001221021284602F081FB642008F0C2FC761CA64290
:208A4000F4D300221021284602F076FB642008F0A1FC002608E001221021284602F06CFBE9
:208A6000642008F0ADFC761CA642F4D32846BDE870400022102102F05FBB0000001001401D
:208A800030B50246002001465FF0010422FA01F3DB0705D0C1F1070504FA05F30343D8B2A3
:208AA000491CC9B20729F1D330BDFEE7084882B0416941F0400141614069074900F04000A7
:208AC000009004480860084602B001F077BF00000010024000300240F40E002010B508F088
:208AE000A5FF0020184C01462218401CC0B251700428F9D300F02AF8002000F045FB00F0F4
:208B0000FBF900F0BBF9002000F03EFB102000F0E3F900F0B3F9607828B1A07818B1E078F2
:208B200008B1207960B908F051FF002000F02CFB00F060FC09F034F800F02CFA00F09EF93D
:208B4000BDE8104000F09AB96C1B002070B50E4C04200E4D6070012000F016FB00F0CCF991
:208B6000687868B1A87858B1E87848B1287938B100F084F96078801CC0B260700A28EAD3DE
:208B8000BDE8704000F07AB9140F00206C1B00202DE9F74F17468846A525009E00F0E0FBB9
:208BA000B2484FF4F001027801EAC243B04A1360DFF8C09200248246E8079AF8001004D036
:208BC0004FF4707000EA811103E04FF0707000EA8151A9480161D9F8080080479AF80010A3
:208BE000DFF88CB2782000EAC101CBF80010D9F8080080479AF800104FF4F00000EAC141E8
:208C0000CBF80010D9F808006D088047641CE4B2082CD1D39AF800104FF4707000EA81113D
:208C2000954854460161934DA86880472178DFF840924FF0780B0BEAC101C9F80010A86808
:208C4000804721784FF4F00A0AEAC141C9F80010A868804721780BEAC101C9F80010A868A8
:208C6000804721780AEAC141C9F80010A868804721780BEAC101C9F80010A8688047217865
:208C80000AEAC141C9F80010A868804721780BEAC101C9F80010A868804721780AEAC141AF
:208CA000C9F80010A868804721780BEAC101C9F80010A868804721780AEAC141C9F80010B4
:208CC000A8688047A3466B4C00259BF80010F80704D04FF4707000EA811103E04FF07070E1
:208CE00000EA815164480161A06880479BF80010782000EAC101DA46C9F80010A068804734
:208D00009AF800104FF4F00A0AEAC141C9F80010A0687F0880476D1CEDB2102DD5D3002525
:208D2000CA464FF0780B00BF5FEAC8704F48017804D04FF4707000EA811103E04FF070709C
:208D400000EA81514C480161A0688047DFF81C91574699F800100BEAC100CAF80000A06850
:208D6000804799F800104FF4F00909EAC1403860A0684FEA580880476D1CEDB2062DD3D35A
:208D80003A4D0027D0462978F00704D04FF4707000EA811103E04FF0707000EA81513648C8
:208DA0000161A068804729780BEAC101C8F80010A0688047297809EAC141C8F80010A0681D
:208DC000760880477F1CFFB2082FDCD30098297880EA101080EA900080EA5000C00704D00A
:208DE0004FF4707000EA811103E04FF0707000EA815121480161A0688047297846460BEA5A
:208E0000C100C8F80000A0688047297809EAC1403060A068804729784FF4707000EA8111CE
:208E200015480161A06880470027D846297808EAC1003060A0688047297809EAC140306087
:208E4000A06880477F1CFFB2032FEFD3297808EAC1003060A0688047297809EAC14030602B
:208E6000A0688047BDE8FE4F00F0A2BA7E0C0020100C0140140F00200010014010B5134C26
:208E8000134A4FF4F001207801EAC04111604FF0707101EA80500F490861002006F0A4FAFC
:208EA0001E2008F06CFA2078FFF7EAFD00F0F00006F09AFA142008F062FA002006F094FA0B
:208EC000BDE81040192008F065BA00007E0C0020100C01400010014010B50446062008F0C8
:208EE00059FA002221461046FFF752FEBDE810400F2008F04FBA00002DE9FC414FF40042FD
:208F000020210020FFF744FE684600F07BF801A800F078F800201E496D4601AB04469827AF
:208F20002A5C872A02D11A5C012A0AD00A185770401CC0B20428F3D39DF8000087280BD1E3
:208F400006E00E1872780AB1012AF1D17470EFE79DF80400012819D09DF80100872803D1F5
:208F60009DF80500012811D09DF80200872803D19DF80600012809D09DF80300872803D17B
:208F80009DF80700012801D0FFF778FFBDE8FC816C1B00202DE9F843002202211046FFF723
:208FA000F7FD0024164D6E4693274FF40068684600F028F80020315C552903D029184A785E
:208FC00002B94F70401C80B20428F4D39DF8000055280FD09DF8010055280BD09DF8020020
:208FE000552807D09DF80300552803D0FFF746FFBDE8F883641CA4B24445D8D3F8E70000F1
:209000006C1B00202DE9F05F044600F0A9F9052008F0D6F9584D286820F07F4040F0884080
:209020002860686820F0FF0040F04400686028042861052008F0C4F9A946504D504EDFF8FD
:20904000448100274FF0780A4FF4F00B207840082070607840086070A0784008A070E078FD
:209060004008E07029780AEAC1003060D8F808008047D9F808104846890502D521788031AD
:2090800021708168C90502D56178803161708168090602D5A1788031A1708068400602D5A7
:2090A000E0788030E07029780BEAC1403060D8F8080080477F1CFFB2082FC7D3D8F808009D
:2090C00044468047287857460AEAC0003060A06880472978D8460BEAC1403060A0688047DB
:2090E000D9F8001021F07F4141F08851C9F80010D9F8041021F0FF0141F01101C9F80410D5
:209100004FF48051C9F8101029784FF0707202EA8151C9F81010A0688047287807EAC000D9
:209120003060A0688047297808EAC1403060A0688047287807EAC0003060A068804729788C
:2091400008EAC1403060A0688047287807EAC0003060A0688047297808EAC1403060A068E1
:209160008047287807EAC0003060A068804700F01FF90020BDE8F09F001001407E0C002021
:20918000100C0140140F00202DE9F14F704CDFF8C4B14FF4F00A20785D460AEAC041CBF8A1
:2091A00000106D4E4FF0707707EA80503061642008F006F9002006F017F9322008F0DFF8AA
:2091C0002078FFF75DFC000906F00EF96348407808F0E0F82178782000EAC10028600A20E1
:2091E00008F0EEF800254FF470792078B04607EA805030610A2008F0E3F8217809EA811046
:2092000030610A2008F0DCF86D1CEDB20D2DECD30A2008F0D5F800265D464FF0780A217894
:209220004FF4F00000EAC14028600A2008F0C8F821780AEAC10028600A2008F0C1F8761C63
:20924000F6B20D2EEBD30A2008F0BAF80026217807EA8150C8F810000A2008F0B1F82078E5
:2092600009EA8010C8F810000A2008F0A9F8761CF6B20D2EEBD3009800284FF00A0016D0B6
:2092800008F088F821784FF4F00000EAC1412960C3464BF25A17002681464FF6FF7821781C
:2092A000380407D54FF4707000EA811106E008F087F8E7E74FF0707000EA8151CBF810100E
:2092C0000A2008F07DF821780AEAC10028600A2008F076F8217809EAC140286008EA47073C
:2092E0000A2008F06DF8761CF6B2102ED7D30A2008F066F84AF21B5700262178380404D5C3
:209300004FF4707000EA811103E04FF0707000EA8151CBF810100A2008F052F821780AEA14
:20932000C10028600A2008F04BF8217809EAC140286008EA47070A2008F042F8761CF6B294
:20934000102EDAD3BDE8F84F1E2008F023B800007E0C0020100C014000100140140F00208A
:2093600070B5104C104D4FF47071207801EA801129610E4E782101EAC0003060052008F000
:209380001FF820784FF0707101EA80502861052008F016F820784FF4F00101EAC040306048
:2093A00070BD00007E0C002000100140100C014070B50D4C0D4D4FF07071207801EA8051DC
:2093C0002961782101EAC00009490860052007F0F7FF20784FF4707101EA80102861BDE88E
:2093E0007040052007F0ECBF7E0C002000100140100C014070B55525002204212846FFF754
:20940000C7FB0A2007F0DCFF0A2007F0D9FF0A2007F0D6FF0124E602284600F009F80A2009
:2094200007F0CEFF641CA4B2B442F5D3002070BD2DE9F14F009FFFF793FF5B4C4FF4F00030
:20944000217800EAC14259490A60594DDFF86491002683468A462178F80704D04FF47070BA
:2094600000EA811103E04FF0707000EA8151C9F81010A86880472178782000EAC101D04607
:20948000CAF80010A868804721780BEAC141C8F80010A8687F088047761CF6B2082EDAD348
:2094A0000098217880EA101080EA900080EA5000C00704D04FF4707000EA811103E04FF0E1
:2094C000707000EA8151C9F81010A868804721784FF0780808EAC1005746CAF80000A868BE
:2094E00080472178DA460BEAC1403860A8688047D9F800004E4620F07F4040F08840C9F89A
:209500000000D9F8040020F0FF0040F04400C9F804004FF08050C9F81000A86880472178DE
:2095200008EAC1003860A868804721780AEAC1403860A8688047306820F07F4040F088509D
:209540003060706820F0FF0040F0110070604FF48050306121784FF0707000EA81503061DB
:20956000A8688047217808EAC1003860A868804721780AEAC1403860A8688047217808EAD1
:20958000C1003860A868804721780AEAC1403860A8688047217808EAC1003860A8688047E3
:2095A000BDE8F84FFFF704BF7E0C0020100C0140140F0020001001401CB5002014490870A5
:2095C0001FE0FFF71FF81348FFF721F86846FFF723F8BDF800004AF23C5188420BD0BDF87E
:2095E0000200884207D0BDF80400884203D0BDF80600884200D108E005480078401C0449C6
:209600000870034800780628DBDB00BF1CBD0000080F0020735C8A4810B5FFF702F800F016
:209620003FF8012007F0ABFE00F0C8F8FEF7FEFF10BD000008B1034900E00349034A1160D4
:20964000704700000500002001000020100F002010B5FEF7E6FF00F023F8012007F08FFE7F
:2096600000F0ACF804F0AAFBB8B108F0AFF900210A4800F021F8FEF7C5FFFEF7D7FFFEF7BF
:20968000D0FF00F00DF8012007F084FEFEF7D3FF08F086FA0020FEF7B0FF10BDAF5C8A48BF
:2096A00010B5FEF7AFFF0348FEF7B1FF3220FEF7C7FF10BD915C8A4870B504460D46FEF702
:2096C000A1FF2046FEF7A3FF3220FEF7B9FF2846FEF7BBFF0020FEF7BDFF0020FEF7BAFF32
:2096E0000748844203D006484038844203D1192007F045FE02E00F2007F041FE70BD00003B
:20970000AF5C8A482DE9F05F06464FF00008C146C346254800884FF4A02101EB4047C6F33F
:20972000872A00242BE04FF480622049384604F097FB002509E01D48405D40441FFA80F892
:209740001A48405D8144681C85B2B5F5806FF2DBCB464FF00009BBF57F3F09D114480078AF
:20976000401C13490870CB4600201249085502E001201049085507F58067601CC4B25445A9
:20978000D1DB0948008800EB001101EB40100A4901EB8000B0F86800404502D08620BDE89B
:2097A000F09F0020FBE70000820C00201C1E00200D0F0020443E00202C0F00201CB5FEF711
:2097C00021FF1A48FEF723FF6846FEF725FF002414E03DF814004AF23C51884209D0144800
:2097E0000078A04000F0080018B198211148015502E000210F480155601CC4B2042CE8DB53
:20980000BDF800004AF23C5188420DD0BDF80200884209D0BDF80400884205D0BDF80600B6
:20982000884201D0FEF702FF1CBD0000735C8A487E0C00206D1B002000207047002070471D
:209840000020704770B50024064D07E0165D4640F6B2641C55F8266086EA10209C42F5D374
:20986000484070BDC43401082DE9F8432C482E4F002501784278DFF8AC8001EB022182788C
:20988000C078120402EB006001EB00093878A52801D1002038702548FEF76AFEC1B2234879
:2098A00009F00AF904462248008800EB001101EB4012204908EB404001EB820100F52F00C7
:2098C000CA7B897B01EBC10303EB011102EB81060422694604F0C4FA9DF800009DF8031057
:2098E0009DF8012040EA01609DF80210090441EA02210843B9F1D70F0FD0B44201D004B1EF
:209900000125B44203D10C490968884201D1002D03D0A520387001F0D7FCBDE8F8830000A4
:20992000F87F0008F87B0100F84F0020C0FF0108820C00202C0F0020F8FF010810B52F48C0
:20994000008800EB80002E4B53F830002B4B1B8803EB83032A4C04EBC3035B681844274BD7
:209960001B8803EB830304EBC3039B681844234B1B8803EB830304EBC303DB68C2181F48FE
:20998000008800EB001303EB40101E4B03EB800090F8440000F0010068B11848008800EB83
:2099A000001303EB4010174B03EB8000806F904201D8012010BD00211CE01048008800EB16
:2099C00080000F4B03EBC00050F821000E4B98420CD80A48008800EB8000094B03EBC00038
:2099E000103050F82100084B984201D90120E1E7481CC1B20429E0DB0020DBE7820C00207F
:209A0000801B00202C0F00203F420F00F0B52C48008800EB001101EB40112A4800EB8100E8
:209A200090F80EE0B0F85C40B0F85EC0B0F86020B0F86270B0F85430B0F85660B0F858106A
:209A4000B0F85A50BEF10A0F18D0E0B20CF0FF0400EB0420D2B200EB0240DAB2F3B202EB95
:209A60000322C9B202EB014100EB076001EB0561421C01D0884220D98920F0BD4FEA0C4C9A
:209A800000201CEB040440EB000C10EB040E42EB0C023C0410EB0E0754413204D21840EBE8
:209AA000000683187141C01841EB05426FEA07012143E1D0C01BA241DED30020F0BD000056
:209AC000820C00202C0F002010B505F0D3FCBDE8104005F0BBBC0000014801F041B8000060
:209AE000943C0020014801F03BB80000CC3C002010B5046863604368102B036803D0996010
:209B00000068C26010BD9A600068C16010BD704710B504464FF4803000EB0431002000F0B5
:209B200001F94FF4A02000EB4441012000F0FAF84FF4C02000EB4441012000F0F3F810BD59
:209B4000F0B5074638A00E4691B007C801AB83E8070038A004AB07C883E8070038A207AB65
:209B600007CA83E8070039A00AAB07C883E8070039A20DAB07CA83E80700002007F0B7FB34
:209B80000C2546B1300907282CD2DFE800F02B222428262B2A00072F0ED2DFE807F00D0487
:209BA000060A080D0C0001AC06E004AC04E00DAC02E00AAC00E007AC102322460521382050
:209BC000009507F086FC10230821264A4020009521E001AC06E004AC04E00AAC02E00DAC3D
:209BE00000E007AC1023224605213820009507F070FC06F002001C4A012108F0F3FF1A4AF3
:209C000002210832304608F0EDFF174A1023921E08213820009507F05CFC4FF4FA7007F040
:209C2000AEFB11B0F0BD00002056444420434845434B20202056505720434845434B202076
:209C400020464C415348205445535420205541525420205445535420434F4E4E45435420D0
:209C600054455354A40C0020C60D002010B54FF4804001F077F94FF4006001F073F9BDE813
:209C800010404FF4806001F06DB9022001F06AB9042001F067B9000030B51E4885B0816965
:209CA00041F004018161816901F004010491816941F0080181618069174C00F00800049039
:209CC000022001258DE831006946144801F056F944F604408DE831006946114801F04EF9E7
:209CE00002221146082001F0BDFA082001F0AFFA03220221072001F0B5FA072001F09CFA9A
:209D000005220221282001F0ADFA282001F09FFA05B030BD001002400000211000080140D9
:209D2000000C014070B505460C4607F067FA07F0B5FA00221021184801F0FEF925B1012D77
:209D400006D0022D0CD107E020201449087007E0D8201249087003E0C7201049087000BF19
:209D600000BF4FF47A7301220C490D4802F003FD022D0BD0200C09490870200A48708C7057
:209D80004FF47A730322064802F0F5FC01221021014801F0D1F970BD00080140040E00203D
:209DA0004C3B0020FEE700003EB5174B044600250A21186803E0B0FBF1F06D1CEDB20028E9
:209DC000F9D16A462946186808F0A6FE9DF8000020702E2060709DF80110A170E0709DF89F
:209DE000020020719DF8030060712020A071002069462D1F05E00A1823181279401CDA7187
:209E0000C0B2A842F7DB3EBDF8FF010810B505F093FAFF2005F0BCFA0A2007F0BBFAF02022
:209E200005F0B6FA0A2007F0B5FABDE81040FF2005F0AEBA2DE9F0474FF00009002426E07D
:209E4000E1B2002008F076F94FF4803000EB044702115349384604F003F8002508E05048FE
:209E6000405DFF2802D04FF0010904E0681C85B2B5F5805FF3DB00BFB9F1010F05D139463F
:209E80000120FFF74FFF4FF00009601C84B2CD2CD6DB00267FE000210846FFF743FF16B1C6
:209EA0004FF0550801E04FF0AA08711CC8B2002108F040F9002404E0394800F80480601C5A
:209EC00084B2FF2CF8DD00274FF480723449384607F0BEF94FF480723149384603F0C0FF68
:209EE000002408E02E48005D404502D06020BDE8F087601C84B2FF2CF4DD00210846FFF77D
:209F000011FF16B14FF0550801E04FF0AA08002404E0234800F80480601C84B2FF2CF8DD5B
:209F20004FF48037002509E04FF480721C49384607F08EF907F58037681C85B2CD2DF3DB4D
:209F40004FF48037002515E04FF480721449384603F086FF07F58037002407E01048005DF2
:209F6000404501D06020C2E7601C84B2FF2CF5DD681C85B2CD2DE7DB002408E04FF480303D
:209F800000EB04410020FFF7CDFE601C84B2CD2CF4DB701C86B2022EFFF67DAF0020A6E774
:209FA0001C1E00202DE9F04107460C464FF00008FF224FF480511048FEF7C8FA16E0B4F537
:209FC000806F01D2A5B201E04FF480652A460A49384603F045FF002604E00748805D8044ED
:209FE000701C86B2AE42F8DB2F44641B002CE6D14046BDE8F08100001C1E00202DE9F041C8
:20A0000007460C464FF00008FF224FF480512C48FEF79CFAB4F5803F35D916E0B4F5806F22
:20A0200001D2A5B201E04FF480652A462449384603F016FF002604E02148805D8044701CEA
:20A0400086B2AE42F8DB2F44641BB4F5803FE5D816E0B4F5806F01D2A5B201E04FF480652D
:20A060002A461749384603F0FBFE002604E01448805D8044701C86B2AE42F8DB2F44641B26
:20A08000002CE6D119E016E0B4F5806F01D2A5B201E04FF480652A460949384603F0E0FE12
:20A0A000002604E00648805D8044701C86B2AE42F8DB2F44641B002CE6D14046BDE8F081AF
:20A0C0001C1E00207FB504461022C9496846FEF72BFAC848008800EB8000C74951F8300010
:20A0E000C449098801EB8101C34A02EBC10149680844C049098801EB810102EBC1018968F3
:20A100000844BC49098801EB810102EBC101C9684618E5202070422060707A20A07004F04C
:20A120002DFAB449087803F007FF04F0C1F8002505E0B248415DE81C2154681CC5B2102D82
:20A14000F7DBAF480088000AE074AD4800782075AC480068000E6075AA480068000CA07594
:20A16000A8480088000AE075A64800782076002508E0A548284490F8E81705F1190021549B
:20A18000681CC5B20C2DF4DB00250EE09948008800EB001101EB40109C4901EB8000415D19
:20A1A00005F125002154681CC5B20E2DEEDB9148008800EB001101EB4010944901EB80002E
:20A1C000807B04F8330F8B48008800EB001101EB40108E4901EB8000C07B60708548008810
:20A1E00000EB001101EB4010884901EB8000B0F84400000AA0707F48008800EB001101EBAD
:20A200004010824901EB800090F84400E0707948008800EB001101EB40107C4901EB8000E9
:20A22000B0F86600000A20717248008800EB001101EB4010754901EB800090F86600607112
:20A240006C48008800EB001101EB40106F4901EB8000B0F86A00000AA0716648008800EB18
:20A26000001101EB4010694901EB800090F86A00E0716048008800EB001101EB401063491C
:20A2800001EB8000B0F86E00000A20725948008800EB001101EB40105C4901EB800090F8A6
:20A2A0006E0060725348008800EB001101EB4010564901EB8000007CA072333C4D480088DE
:20A2C00000EB001202EB40100A4602EB800000F12401102204F14000FEF726F945480088E1
:20A2E00000EB001101EB4010484901EB800090F8460084F850003F48008800EB001101EB98
:20A300004010424901EB800090F8640084F851003848008800EB001101EB40103B4901EB8D
:20A320008000806CC4F8520000252EE03148008800EB001101EB4010344901EB80004C30D2
:20A3400030F815106800563021522A48008800EB001101EB40102D4901EB8000543030F88F
:20A36000151068005E3021522248008800EB001101EB4010254901EB80005C3030F8151072
:20A38000680066302152681CC5B2042DCEDB44F86E6F1848008800EB001101EB40101B49DA
:20A3A00001EB8000808BA0801248008800EB001101EB4010154901EB8000C08BE0800D4822
:20A3C000008800EB001101EB4010104901EB8000008C20810748008800EB001101EB4010BC
:20A3E0000A4901EB8000408C60816E3C7FBD0000C0FF0108820C0020801B0020E0FF0108F2
:20A40000FC7F0008F8FF010800F0FF1F2C0F0020F8B500250446009590F82400012808D0F2
:20A42000012084F824002046FEF71AF9060002D04BE00220F8BDA06A20F4885040F00200EB
:20A44000A062022001F02CFA22490968B1FBF0F0400000E0401E00900028FBD12046FEF7FC
:20A4600025F92068816841F00801816000F06AFE074604E000F066FEC01B0A2811D82068D7
:20A4800080680007F6D42068816841F00401816000F058FE07460EE000F054FEC01B0A28AB
:20A4A00009D9A06A20F0020040F01000A06284F824500120F8BD206880684007ECD4A06A15
:20A4C00020F0020040F00100A06284F824503046F8BD0000740C0020F8B50025009590F88D
:20A4E0002420AE46012A1ED0012280F824204A681F244FF47873072A17D20668776B93FA12
:20A50000A3FCBCFA8CFC521E02FB0CFC04FA0CF4A74393FAA3F3B3FA83F30C685A439440D6
:20A52000274377632DE00220F8BD06680D2A14D2376B93FAA3FCBCFA8CFCD21F02FB0CFC66
:20A5400004FA0CF4A74393FAA3F3B3FA83F30C685A4394402743376313E0F76A93FAA3FC64
:20A56000BCFA8CFC0D3A02FB0CFC04FA0CF4A74393FAA3F3B3FA83F30C685A4394402743D4
:20A58000F7620A683823072406680A2A14D3F76893FAA3FCBCFA8CFC0A3A02FB0CFC04FAD1
:20A5A0000CF4A74393FAA3F3B3FA83F38C685A4394402743F76012E0376993FAA3FCBCFAD1
:20A5C0008CFC02FB0CFC04FA0CF4A74393FAA3F3B3FA83F38C685A439440274337610A68E7
:20A5E000102A01D0112A20D1124B02689A4217D193681B0219D4936843F4000393600968FB
:20A60000102912D10C490D4A0968B1FBF2F101EB8101490000E0491E00910029FBD104E00A
:20A62000816A41F020018162012580F824E02846F8BD000000240140740C002040420F009F
:20A640000068C06C704700002DE9F04104004FF0000513D0A06A002628B9E66284F82460E4
:20A66000204600F08BF82046FDF7FAFFA16AC90600D420B1A06A40F01000A06278E0A16A80
:20A6800021F4885141F00201A1626268E16902270A43E16897FAA7F70B46B7FA87F7B9401A
:20A6A0000A43A1684FF48077B94209D0012907D05FF00001D4F814C0BCF1010F02D00AE0CC
:20A6C0003946F7E7F3B1A36A43F02003A362E36A43F00103E3622368D3F804C02CF4694C59
:20A6E0004CEA010CC3F804C021688B68DFF884C003EA0C0313438B60A168B94210D00129B6
:20A700000ED016E04FF4604CA3699CFAACFCBCFA8CFC5B1E03FA0CF30B4343F40061DAE7D2
:20A720004FF47001256991FAA1F1B1FA81F16D1E8D402168CB6A23F470032B43CB622168D9
:20A7400089680D4B1940914208D1E662A16A21F0020141F00101A162BDE8F081A06A20F0DE
:20A76000020040F01000A062E06A40F00100E0620120F1E7FDF7E1FFFE0E1FFF10B50068B4
:20A780000E4986B0884217D10D48816941F4007181618069032400F4007004900F20CDE9C6
:20A7A00000046946074800F0E9FB0120CDE900046946054800F0E2FB06B010BD0024014037
:20A7C0000010024000100140000801402DE9F84300260D460446009600F0B4FC80462068F5
:20A7E0008168C90508D5A06A40F02000A06284F824600120BDE8F8834168C90503D4C06AB0
:20A8000010F4700F26D0022001F04AF838490968B1FBF0F72068036936490B424FEA61018A
:20A820004FEAA1121BD1C3684FEA611C13EA0C0F15D103690B4221D1C06810421ED1142019
:20A840001FE0681C06D045B300F07CFCA0EB0800A84222D8206800688007F2D52AE0036914
:20A860000B4202D1C168114206D0026922490A4206D1C068084203D1542002E0292000E0A8
:20A88000FC204743009813E0681C0ED02DB100F059FCA0EB0800A84207D9A06A40F0040067
:20A8A000A06284F824600320A4E70098401C0090B842E9D321686FF012000860A06A40F40E
:20A8C0000070A06220688068C0F3424007280CD1E06850B9A06A20F48070A062A06AC00426
:20A8E00003D4A06A40F00100A062002082E70000740C0020244992244992240070B504468A
:20A9000090F8240001280DD0012084F824002046FDF7CCFE02004FF0000005D084F82400EA
:20A92000104670BD022070BDA16A40F20123994341F48071A1621F4D23681F49AB4218D1AA
:20A940000E6816F4702F14D0A66A46F48016A6620E68760505D5A66A26F4005646F48056B1
:20A96000A662A66AF6040AD5E66A26F00606E66206E0A66A26F48016A6625E68E9E7E062A6
:20A9800084F824006FF00200186020688368C3F34243072B05D1A84208D1096811F4702FB0
:20A9A00004D0816841F480118160B9E7816841F4A001F9E7002801400424014010B5040059
:20A9C00002D0607910B106E0012010BD00202071204600F004F801206071002010BD70479E
:20A9E0002DE9F04104460068016821F00101016000F0A8FB054600264FF47A7710E000BF9A
:20AA000000F0A0FB401BB8420AD954F8340F40F0200044F81409032060702670BDE8F0819C
:20AA200020680068C007EBD1012084F8210084F820600020F2E70000F0B540B390F821109F
:20AA4000022924D001680A6822F001020A6001684FF0000EC1F800E00168C1F804E00168BF
:20AA6000C1F808E00168C1F80CE03C4C3B4D3B4E3A4F3A4ADFF8E4C00168143428353C3686
:20AA800050370CF1640C914203D102211BE00120F0BDA14201D1202115E0A94202D14FF443
:20AAA000007110E0B14202D14FF400510BE0B94202D14FF4003106E0614502D14FF40011FB
:20AAC00001E04FF00071254B083B59600168914201D1082119E0A14201D1802115E0A94213
:20AAE00002D14FF4006110E0B14202D14FF400410BE0B94202D14FF4002106E0614502D129
:20AB00004FF4000101E04FF0006159600168914201D1042119E0A14201D1402115E0A94295
:20AB200002D14FF4806110E0B14202D14FF480410BE0B94202D14FF4802106E0614502D168
:20AB40004FF4800101E04FF080615960C0F834E080F821E080F820E00020F0BD08000240A3
:20AB60002DE9F05FDFF860820446D8F80020DFF858B2954D944E944F0068DFF84C92DFF801
:20AB800048A20BF1080B1C35303644374FF400614FF4004C4FF4002E09F158090AF16C0A1A
:20ABA000584501D1082316E0A84201D1802312E0B04201D10B460EE0B84201D163460AE052
:20ABC000484501D1734606E0504502D14FF4000301E04FF000631A4231D00268D243120751
:20ABE0002DD4026822F0080202602068584501D1082114E0A84201D1802110E0B0420ED03B
:20AC0000B84201D161460AE0484501D1714606E0504502D14FF4000101E04FF00061C8F8EE
:20AC20000410606B40F001006063042084F82100002084F82000216B09B12046884762489F
:20AC4000D0F800C04FF4806120680A010B044FF4802E584502D14FF0040816E0A84202D147
:20AC60004FF0400811E0B04201D188460DE0B84201D1904609E0484501D1F04605E0504543
:20AC800002D14FF4800800E098461CEA080F33D0D0F800C06FEA0C0C5FEA4C7C2CD4D0F866
:20ACA00000C05FEA8C6C05D4D0F800C02CF0040CC0F800C02068584501D1042113E0A84295
:20ACC00001D140210FE0B0420DD0B84201D1114609E0484501D1714605E0504502D14FF4D1
:20ACE000800100E0194638484160112084F82100E16A09B120468847334AD2F800C05B46C3
:20AD0000206851154FF4005B4FF4003E984202D14FF0020817E0A84202D14FF0200812E023
:20AD2000B04201D188460EE0B84201D1D8460AE0484501D1F04606E0504502D14FF4001881
:20AD400001E04FF000781CEA080F3BD0D0F800C06FEA0C0C5FEA8C7C34D4D0F800C05FEA10
:20AD60008C6C05D4D0F800C02CF0020CC0F800C02068984201D1022114E0A84201D1202190
:20AD800010E0B0420ED0B84201D159460AE0484501D1714606E0504502D14FF4001101E005
:20ADA0004FF000715160606B6063012084F82100002084F82000A16A002903D02046BDE818
:20ADC000F05F0847BDE8F09F0000024070B520B190F82110002411B103E0012070BD80F821
:20ADE0002040022180F8211003681A6843F6F0718A43D0E901152943D0E9035635432943A2
:20AE00004569294385692943C5692943114319604463012180F82110002070BD70B5044629
:20AE200090F82000012823D0012084F82000022084F821002068056825F0010505602046F7
:20AE4000FEF756FE2068016841F0020101602068016841F0040101602068016841F0080170
:20AE600001602068016841F001010160002070BD022070BD31B500F065F9044600F062F987
:20AE80000099001B8842F9D338BD000070B506460A2006F074FA2F4C2F4DB6F5806F3AD0D9
:20AEA00012DC022E25D0042E34D1D5F80801002830D10A2006F06EFAD5F80801002829D1C9
:20AEC000207840F0010034E0B6F5006F33D0B6F5804F1FD1D5F8380100281BD10A2006F0D4
:20AEE00059FAD5F83801002814D1207840F008001FE01A4CD4F8040100280BD1642006F068
:20AF000049FAD4F80401002804D11548017881F00101017070BDD5F828010028FAD10A2026
:20AF200006F038FAD5F828010028F3D1207840F00200207070BDD5F82C010028FAD10A2069
:20AF400006F028FAD5F82C010028F3D1207840F00400EEE77D0C0020008021420000214263
:20AF60007C0C0020044910B50A68024202D00860FFF78CFF10BD0000140401402DE9F84F23
:20AF8000DFF890A100220AF1040B144601274FF00F090BF1040E00BF0B6807FA04F52B40FF
:20AFA000AB4274D1DFF870C14E68A6EB0C0866452BD00DDC032E34D005DC36B3012E19D056
:20AFC000022E2FD11BE0112E16D0122E2AD119E0B8F5881F19D006DCB8F5803F15D0B8F5D0
:20AFE000801F1FD111E0B8F5001F0ED0B8F5041F18D10AE0CA6815E0CA68121D12E0CA68D8
:20B0000008320FE0CA680C320CE08A682AB1012A4FF0080203D0456104E0042202E005619F
:20B0200000E00022FF2B01D8064601E000F104064FEA840501D9A5F12005D6F800C009FAFB
:20B0400005F82CEA080C02FA05F54CEA050CC6F800C04D68ED0057D5304DAE6946F001066F
:20B06000AE61AD6924F0030605F0010500952C4D06EB050CDCF80850A6074FEA167809FAE0
:20B0800008F6B543274EB04202D1002610E03BE0254EB04201D101260AE0244EB04201D1D1
:20B0A000022605E0224EB04201D1032600E0042606FA08F62E43CCF808604D68DAF800609A
:20B0C000ED03554601D51E4300E09E432E604D68DBF80060AD035D4601D51E4300E09E432C
:20B0E0002E604D68DEF80060ED02754601D51E4300E09E432E604D68AD020E4D2E6801D57C
:20B100001E4300E09E432E60641C102CFFF444AFBDE8F88F000401400000111000100240F9
:20B120000000014000080140000C014000100140001401400C0401400AB101617047090460
:20B14000FBE700000148006870470000000F002002480168491C016070470000000F002017
:20B16000074810B5016841F010010160032000F099F8002000F006F800F016F8002010BD12
:20B180000020024010B5044600F05CFD4FF47A71B0FBF1F001F077FD00222146501E00F0EF
:20B1A00061F8002010BD0000214808B5816941F001018161806900F001000090032000F0A7
:20B1C00071F8002211466FF00B0000F04BF8002211466FF00A0000F045F8002211466FF009
:20B1E000090000F03FF800221146501F00F03AF800221146101F00F035F800221146901E29
:20B2000000F030F800221146501E00F02BF800221146012000F026F8012000F018F8054806
:20B22000416821F0E06141F00071416008BD0000001002400000014000F01F020121914074
:20B240004009800000F1E020C0F88011704700F01F02012191404009800000F1E020C0F8BE
:20B2600000117047F0B40E4B1B680C46C3F30223C3F10705042D00D90425191D072901D22D
:20B28000002300E0DB1E012606FA05F1491E214099409E40761E16403143F0BC02F0B0BBAF
:20B2A0000CED00E0064900F0070208684FF6FF03184040EA0220034A104308607047000053
:20B2C0000CED00E00000FA05BFF34F8F05480168054A01F4E06111430160BFF34F8F00BFC7
:20B2E000FDE700000CED00E00400FA0510B50C0605D501F07F0100EB4110283003E000EB0A
:20B30000411000F5027099B232B101228272C180190C0181002010BD002282728180F9E764
:20B32000704700EB4112D0F81C04D26B04F0E1BD00EB4112D0F81C04D2F81C2204F02EBE53
:20B3400010B504460A460B0601F07F0004EB401101D5283101E001F502710870D00948704B
:20B3600094F8E803012809D0012084F8E803206805F0FCF9002084F8E80310BD022010BD17
:20B3800070B50A460446090602F07F0003D504EB4011283103E004EB421101F5027100254A
:20B3A0008D700870D009487094F8E803012809D0012084F8E803206805F080FA84F8E853D8
:20B3C000002070BD022070BD70B504460D460E0601F07F0004EB401101D5283101E001F545
:20B3E00002710870E80948700A61CB7094F8E803012809D0012084F8E803206805F086F817
:20B40000002084F8E80370BD022070BD70B504460E4601F07F0004EB401101F50771002523
:20B420002CC101F81F5C01F8200D94F8E80301280AD0012084F8E8037006206805F098FAFE
:20B4400084F8E853002070BD022070BD70B50D460446090605F07F0003D504EB40112831E3
:20B4600003E004EB451101F5027101228A700870E809487094F8E803012807D084F8E823FF
:20B48000206805F050FA680602D006E0022070BD04F57B71206805F00FFA002084F8E8037E
:20B4A00070BD70B504460E4601F07F0004EB40113C3100252CC1012201F81F2C01F8200DE0
:20B4C00094F8E803012809D084F8E8237006206805F04EFA84F8E853002070BD022070BDDE
:20B4E00010B50446006805F025FB000402D5204602F096FA206805F01DFB40050CD52068BA
:20B5000030F8441F21F480610180204600F0ECF80021204600F0FDF8206805F00BFB4004BC
:20B5200005D5206830F8441F21F480410180206805F000FB800405D5206830F8441F21F4C9
:20B5400000510180206805F0F5FAC00413D5206830F8401F21F00401018021684FF43D4012
:20B56000A1F84000204600F0CCF8206830F8441F21F480510180206805F0DCFA00051AD517
:20B58000206830F8441F21F400610180206830F8401F41F008010180206830F8401F41F097
:20B5A00004010180206805F0C5FAC043C00402D5204600F0E3F8206805F0BCFA800508D565
:20B5C000206830F8441F21F400710180204600F09CF8206805F0AEFAC00505D5206830F8F3
:20B5E000441F21F48071018010BD00002DE9F04186B004004FF0000504D094F8E90300265D
:20B6000020B108E0012006B0BDE8F08184F8E863204600F04BF8032084F8E903206805F01C
:20B6200044F904F11001142288466846FCF77CFF94E80F0005F098F80021206805F08DFA72
:20B640005FF0010704EB451080F8297000F8285F8581C670066146616D1C86610F2DF1D305
:20B660005FF0000004EB401181F8096281F80802888681F80B62C1F81862C1F81C62401C1A
:20B68000C1F820620F28EDD3142241466846FCF74BFF94E80F0005F0FFF884F8246084F8DD
:20B6A000E973206805F0F6F80020ACE708B500680B49884212D10B48C16941F40001C16115
:20B6C000C069002200F40000009011461420FFF7C9FDBDE808401420FFF7B9BD08BD000002
:20B6E000005C00400010024010B504460121D0F81C0404F025FDD4F81C04BDE8104004F058
:20B70000EEBCD0F81C0404F009BDD0F81C0404F00BBD10B5044690F8E80301280BD0012092
:20B7200084F8E80384F82410206805F018FA002084F8E80310BD022010BDD0F81C2400F523
:20B740007B71104604F00FBD10B5044690F8E803012810D0012084F8E80301462046FFF731
:20B76000DFFD206805F094F8206805F0D6F9002084F8E80310BD022010BD000010B5044646
:20B78000D0F81C0404F03CFDA069002804D00348016841F00601016010BD000010ED00E098
:20B7A00030B51C490A68036822F0E0021A430A6019490A6822F480320A600C1F226822F4D6
:20B7C00080322260144A0832136823F4803313600B1D1D6825F480351D604568ED0303D578
:20B7E000256845F4803525604468A40303D50C6844F480340C600179C90703D0196841F47F
:20B80000803119600079800703D5106840F48030106030BD00700040040401400120102122
:20B8200091FAA1F1024AB1FA81F142F82100704700000E4270B505F0ABF906F06DF94FF4C3
:20B8400096740E4D0FE0FF2003F076FD01212046FDF7C4F8C82005F092FDAA2003F06CFD45
:20B86000C82005F08CFD68684007ECD40448008802F062FBBDE8704006F0C2B900700040F2
:20B88000820C002010B5054C2068C00304D5FFF7D1FF4FF48030206010BD00001404014061
:20B8A00010B533A401461DCC86B08DE81D0034A0344C006804900020012931D0022948D016
:20B8C00010292BD161682268D20127D54FF4701292FAA2F201F47010B2FA82F2D040C903BB
:20B8E0001DF8000010D561684FF4003292FAA2F201F40031B2FA82F2D14004AA515C224AD2
:20B90000B2FBF1F1484301E0204948436168490204D440005FF00301B0FBF1F006B010BDAA
:20B92000226AC2F30121012903D1920701D5C803F4E7022905D1626A920702D549F6404095
:20B94000ECE70329EAD121688903E7D54FF22440E4E700F095F961684FF4804292FAA2F280
:20B9600001F44041B2FA82F2D140491C4900D3E702030405060708090A0B0C0D0E0F101021
:20B98000010200000010024000127A0000093D002DE9F84305460078454CC00774D0E06987
:20B9A00040F08050E061E069424E00F080500090306840F480703060FFF7C4FB074604E0EB
:20B9C000FFF7C0FBC01B642833D83068C005F7D5206A10F4407051D0A98801F44071814222
:20B9E0004CD0206A0126310491FAA1F2B2FA82F29300314A20F440701344C3F8006491FA34
:20BA0000A1F1B1FA81F102EB81010023C1F800342062C00732D0FFF795FB074641F28839E6
:20BA20004FF0020808E000BFFFF78CFBC11B494502D90320BDE8F88398FAA8F1B1FA81F1C9
:20BA400041F040014046B6EB511F01D121680BE090FAA0F1B1FA81F141F04001B0EB511FE2
:20BA600001D1216A00E0616A98FAA8F0B0FA80F000F01F0206FA02F00142D5D0206A696834
:20BA800020F44070084320622878800705D56068A96820F44040084360602878C00605D55C
:20BAA0006068E96820F48000084360600020C1E70010024000700040000042422DE9F04733
:20BAC000DFF8708105460E46D8F8000000F00700B0420CD2D8F8001021F007013143C8F83B
:20BAE0000010D8F8000000F00700B04277D12878514C800705D56068A96820F0F000084373
:20BB000060602878C00759D06968012001290DD0022929D05FF0020393FAA3F2B2FA82F222
:20BB200042F02002520904D0226803E04FF40033F2E7626A93FAA3F3B3FA83F303F01F039F
:20BB4000984002424BD0606820F0030008436060FFF7F8FA6968074641F2883001290DD0D0
:20BB60000229814617D025E04FF00073D4E700BFFFF7E8FAC11B494501D918E08146606818
:20BB8000C0F381000128F3D118E000BFFFF7DAFAC11B49450BD86068C0F381000228F5D1CA
:20BBA0000CE000BFFFF7CEFAC11B494502D90320BDE8F087606810F00C0FF3D1D8F8001011
:20BBC000404601F00701B1420BD9016821F0070131430160006800F00700B04201D0012075
:20BBE000E6E72878400705D56068E96820F4E060084360602878000706D56068296920F44F
:20BC0000605040EAC100606000F052F86168F02292FAA2F201F0F001B2FA82F2D140074A30
:20BC2000515CC840064908600020FFF7ABFA0020BEE70000002002400010024068340108BF
:20BC4000740C00200148006870470000740C002008480949006849684FF4E06292FAA2F2DC
:20BC600001F4E061B2FA82F2D140044A515CC84070470000740C00200010024078340108FC
:20BC800008480949006849684FF4605292FAA2F201F46051B2FA82F2D140044A515CC840FA
:20BCA00070470000740C0020001002407834010810B519A385B00FCB8DE80F001AA01B4BF2
:20BCC000006804905A681A4802F00C0104291DD008291BD14FF4701494FAA4F402F47011AA
:20BCE000B4FA84F4E140D2031DF8011010D55A684FF4003393FAA3F302F40032B3FA83F377
:20BD0000DA4004AB9A5CB0FBF2F0484305B010BD08484843FAE700000203040506070809E2
:20BD20000A0B0C0D0E0F1010010200000010024000127A0000093D002DE9F84F0446007852
:20BD4000F74DC0074FF0010625D068687704C0F38100012807D06868C0F3810002281BD104
:20BD60006868C00318D597FAA7F0B0FA80F040F02000400901D0286800E0686A97FAA7F12C
:20BD8000B1FA81F101F01F0106FA01F108425ED0606800287CD05AE06068B0F5803F0BD08E
:20BDA00010B1B0F5A02F11D0286820F480302860286820F4802002E0286840F4803028606F
:20BDC000606828B3FFF7BEF980460BE0286840F480202860F0E700BFFFF7B4F9A0EB0800AA
:20BDE000642871D897FAA7F0B0FA80F040F02000400901D0286800E0686A97FAA7F1B1FAAC
:20BE000081F101F01F0106FA01F10842E4D01EE0FFF798F9804605E0FFF794F9A0EB080069
:20BE20006428DED897FAA7F0B0FA80F040F02000400901D0286800E0686A97FAA7F1B1FAFE
:20BE400081F101F01F0106FA01F10842E4D12078DFF8D08280074FF000094FF002075BD566
:20BE600068684FF0F80B10F00C0F07D06868C0F3810002281CD16868C00319D497FAA7F0FB
:20BE8000B0FA80F040F02000400902D0286801E08BE0686A97FAA7F1B1FA81F101F01F0118
:20BEA00006FA01F108422CD0206901287DD128E0206990B396FAA6F0B0FA80F048F8206076
:20BEC000FFF740F9824607E011E100BFFFF73AF9A0EB0A00022884D897FAA7F0B0FA80F04D
:20BEE00040F02000400901D0286800E0686A97FAA7F1B1FA81F101F01F0106FA01F1084203
:20BF0000E4D028689BFAABF26169B2FA82F220F0F80091400843286025E0FFE796FAA6F103
:20BF2000B1FA81F148F82190FFF70CF9824605E0FFF708F9A0EB0A000228CCD897FAA7F0C9
:20BF4000B0FA80F040F02000400901D0286800E0686A97FAA7F1B1FA81F101F01F0106FAC4
:20BF600001F10842E4D1207800076ED5A069B8B396FAA6F0B0FA80F008EB8000C0F880642B
:20BF8000FFF7E0F8824605E0FFF7DCF8A0EB0A000228A0D897FAA7F0B0FA80F040F0600053
:20BFA000B6EB501F02D128680CE062E197FAA7F0B0FA80F040F06000B7EB501F01D1286A98
:20BFC00000E0686A97FAA7F1B1FA81F101F01F0106FA01F21042D7D00120FEF74BFF34E0F8
:20BFE000FFE796FAA6F1B1FA81F108EB8101C1F88094FFF7A7F8824606E000BFFFF7A2F843
:20C00000A0EB0A00022872D897FAA7F0B0FA80F040F06000B6EB501F01D128680BE097FA57
:20C02000A7F0B0FA80F040F06000B7EB501F01D1286A00E0686A97FAA7F1B1FA81F101F061
:20C040001F0106FA01F21042D8D12078400765D5E86940F08050E861E869DFF8CCB000F08B
:20C0600080500090DBF8001041F48071CBF80010FFF768F8824605E0FFF764F8A0EB0A009A
:20C08000642834D8DBF80000C005F5D5E06801280AD008B1052813D0286A20F00100286265
:20C0A000286A20F0040002E0286A40F001002862E06841F2883B90B3FFF744F882460BE045
:20C0C000286A40F004002862EEE700BFFFF73AF8A0EB0A0159450AD897FAA7F0B0FA80F0FC
:20C0E00040F04000B6EB501F02D128680CE0A3E097FAA7F0B0FA80F040F04000B7EB501F2B
:20C1000001D1286A00E0686A97FAA7F1B1FA81F101F01F0206FA02F10842D7D031E005E0D7
:20C12000001002400000424200700040FFF70AF8824605E0FFF706F8A0EB0A0159457BD859
:20C1400097FAA7F0B0FA80F040F04000B6EB501F01D128680BE097FAA7F0B0FA80F040F05E
:20C160004000B7EB501F01D1286A00E0686A97FAA7F1B1FA81F101F01F0206FA02F10842C3
:20C18000D8D1E06980B36968C1F38101022970D04FF080714F000228484609D091FAA1F1DB
:20C1A000B1FA81F148F82100FEF7CCFF044669E08A4691FAA1F1B1FA81F1C14648F821003C
:20C1C000FEF7C0FF804605E0FEF7BCFFA0EB0800022854D897FAA7F0B0FA80F040F02000D5
:20C1E000400902D0286801E061E0686A97FAA7F1B1FA81F101F01F0106FA01F10842E3D159
:20C20000206AB0F5803F05D16868A16820F4003008436860D4E908010843696821F47411AE
:20C22000084368609AFAAAF0B0FA80F049F82060FEF788FF044606E021E000BFFEF782FF00
:20C24000001B02281BD897FAA7F0B0FA80F040F02000400901D0286800E0686A97FAA7F18F
:20C26000B1FA81F101F01F0106FA01F10842E5D01DE01EE0FEF766FF001B022802D9032007
:20C28000BDE8F88F97FAA7F0B0FA80F040F02000400901D0286800E0686A97FAA7F1B1FAB0
:20C2A00081F101F01F0106FA01F10842E2D10020E6E70120E4E7704710B5040003D094F854
:20C2C000510010B104E0012010BD204600F038F8022084F851002068016821F04001016061
:20C2E000D4E901010843D4E903121143084361690843218B01F400710843E1690843216A31
:20C300000843A16A084321680860A069042101EA1040616A0843216848602168E06A08619F
:20C320002068C16921F40061C1610449002008706065012084F85100002010BD040F0020FB
:20C340002DE9F04F054600683F49DFF80081032685B088425CD1D8F8181041F48051C8F8E2
:20C360001810D8F81800DFF8E8B000F480500490A02000900220019069465C46039658465B
:20C38000FEF7FCFD4FF000094020CDE900094F4669462046CDF80890FEF7F0FD2E4C2D4870
:20C3A0004FF0800AC4E90007C4E9027A27616761A7612046E761FEF709FD08B1FDF7F2FC3B
:20C3C0006C6465622348254C14301027C4E90007C4E9029AC4F81090C4F81490C4F8189052
:20C3E0002046C4F81C90FEF7F1FC08B1FDF7DAFC2C6465620120CDE9007069465C46039682
:20C400005846FEF7BBFD012210212046FEF794FE13492868884214D1D8F81C1041F4804103
:20C42000C8F81C10D8F81C00694600F4804004904FF4204000900220019003960948FEF768
:20C440009DFD05B0BDE8F08F0030014000100240000801401C000240943C0020CC3C0020E7
:20C4600000380040000C01402DE9F84F00259A460446ADF8005090F8510001287ED1E9B369
:20C48000E2B394F85000012878D0012684F85060222084F851006565A163A287E287A564EF
:20C4A000E5642563A586E586A0684FF40049484504D12068036823F480430360A06A4FF4A2
:20C4C0000057B84209D12068036823F4005303602068036843F40053036060684FF482788C
:20C4E000404501D1A06878B120680168490603D4016841F040010160E06800E001E0E8B1BF
:20C5000031E00120BDE8F88F84F8505013460A462046CDF800A000F0D1F9F3E753460022DE
:20C520000121204602F0DFF948BB2068C168A06B421CA2630170E08F401EE087E08F01284A
:20C54000ECD813E0534600220121204602F0CBF9A8B92068C068A16B0880A06B801CA063DC
:20C56000E08F401EE087E08F0128EBD8A06AB84207D12068016841F4805101E068E007E049
:20C580000160534600220121204602F0ACF908B10320B7E7E0680028206817D0C068A16BD3
:20C5A0000880A06B801CA063E08F401EE087A06AB84217D1534600220121204602F093F968
:20C5C00050B1606D40F002006065E1E7C168A06B421CA2630170E7E72068C068ADF80000A3
:20C5E000BDF80000606840450AD1A068484502D0B0F5806F04D12068016821F040010160EA
:20C6000084F85160A06AB8420DD120688068C043C00608D4204602F064F9012807D02168B8
:20C620006FF01000886084F8505000206AE7606D40F0020060652068016821F4005101609A
:20C640002068016841F40051016084F8505058E7022057E770B5044690F85100012860D1A5
:20C66000D1B1CAB194F8500001285AD0012084F85000222084F8510000256565A163A28776
:20C68000E287A564E5642563A586E586A068B0F5004F03D040B10BE0012070BD20680168D7
:20C6A00021F48041016003E06068B0F5827F04D0A06AB0F5005F09D012E084F850502046C3
:20C6C000BDE8704013460A4600F052BA2068016821F4005101602068016841F400510160D0
:20C6E000616C1148C862616C10488862616C104808632168E38F0C31A26B606CFEF78EFBBC
:20C700002068416841F00101416084F8505020680168490603D4016841F040010160002085
:20C7200070BD022070BD000037E700084BE7000819E7000810B50446012210210848FEF76D
:20C74000FBFC0848007818B101200749087005E00648007810B101200549087010BD000048
:20C7600000080140460E0020440E0020470E0020450E002070472DE9F843044690F8510077
:20C780009846012870D139B332B394F8500001286AD0012684F85060122084F851000025CA
:20C7A00065652163A286E286E564A564A563A587E587A06A7703B84209D12068016821F44B
:20C7C000005101602068016841F400510160A068B0F5004F03D007E00120BDE8F883206850
:20C7E000016841F48041016020680168490603D4016841F040010160E0680028606804D01A
:20C80000D8B1E08E012818D021E010B1E08E012808D1206B411C216321680078C860E08EDB
:20C82000401EE0860004000C1FD0434600220221204602F058F8A8B9EBE7206B21680088F0
:20C84000C860206B801C2063E08E401EE0860004000C0AD0434600220221204602F043F889
:20C860000028EAD00320B8E726E0A06AB84204D12068016841F4805101604346002202210F
:20C88000204602F030F830B9434601228021204602F029F820B1606D40F010006065E1E7FE
:20C8A000A06818B92068C1688068009084F8516084F85050002090E702208EE72DE9F843AE
:20C8C0000025DDF820800446ADF8005090F85100012803D094F8510022287DD169B162B108
:20C8E0005BB194F85000012876D0012684F8506094F85100012803D005E00120BDE8F8838F
:20C90000322084F851006565A263A387E3872163A386E386A564E564A06A4FF40057B8428F
:20C9200009D12068016821F4005101602068016841F40051016020680168490603D401680D
:20C9400041F040010160E0684FF48271B0F5006F606807D0002867D088426ED1E08E0128D4
:20C9600062D06AE020B188420CD1E08E012809D1206B21680088C860206B801C2063E08E76
:20C98000401EE086E08E80B9A06AB84244D12068016841F4805101603EE02068C068A16BE1
:20C9A0000880A06B801CA0639EE0434600220221204601F098FF002874D1206B2168008802
:20C9C000C860206B801C2063E08E401E0004000CE08609D1A06A00E0C7E0B84204D1206881
:20C9E000016841F480510160434600220121204601F079FF00286FD12068C068A16B08801F
:20CA0000A06B801CA063E08F401EE087E08E0028CBD1606800286AD14346002201212046A8
:20CA200001F061FFF0BBB8E7206B411C216321680078C860E08E401EE086E08E98B9A06ACB
:20CA4000B84204D12068016841F480510160434600220121204601F046FF18BB2068C068C3
:20CA6000A16B087040E0434600220221204601F03AFFB8B9206B411C216321680078C860AE
:20CA8000E08E401E0004000CE08607D1A06AB84204D12068016841F48051016000224346A0
:20CAA000012100E018E0204601F01DFFA0B92068C168A06B421CA2630170E08F401EE087EC
:20CAC000E08E0028CFD1606888B9434600220121204601F008FF08B103200FE72068C16869
:20CAE000A06B421CA2630170E08F401EE087A06AB84210D1434600220121204601F0F3FE29
:20CB000018B1606D40F002000FE02068C068ADF80000BDF80000434601228021204601F0B0
:20CB2000E2FE20B1606D40F010006065D4E784F85160A06AB84214D120688168C943C90655
:20CB40000FD4616D41F002016165016821F4005101602068016841F40051016084F8505006
:20CB6000CBE684F850500020C8E60220C6E6000070B5044690F8510001280AD06068B0F594
:20CB8000827F71D1A06800286ED194F8510022286AD1F1B1EAB1E3B194F85000012863D078
:20CBA000012084F8500094F85100222802D0322084F85100002565652163A386E386A26366
:20CBC000A387E387A564E564A06AB0F5005F02D00BE0012070BD2068016821F4005101609E
:20CBE0002068016841F40051016094F85100222832D0616C1D48C8621D48616C1D4E886251
:20CC0000606C06632168E38F0C31A26B606CFEF705F92068416841F00101416094F85100F9
:20CC20003228206C1ED005632268E38E0C32216B206CFEF7F3F820680168490603D4016807
:20CC400041F0400101602068416841F00201416084F85050002070BD616C0748C8620748FD
:20CC6000CBE701E00663DFE7022070BD41E7000825E8000819E7000837E700084BE70008F6
:20CC800070477047704710B5401EB0F1807F01D3012010BD4FF0E02460610F21601700F04F
:20CCA000AFFE0020A06107202061002010BD10B5FFF7E8FF10BD7047704730B590F838206F
:20CCC000012A20D0012280F83820022380F8393003685C6824F070045C6003685C680D6829
:20CCE0002C435C6003689C6824F080049C6003689C6849680C439C6080F83920002180F831
:20CD00003810084630BD022030BD10B5040003D094F8390010B107E0012010BD002084F8EE
:20CD20003800204600F00CF8022084F83900211D206802F02BFC012084F83900002010BDE8
:20CD400000B51E4A01681E4885B0914222D1C16941F00201C161C069694600F0020004900E
:20CD60004FF4707000900020019002901548FEF705F9002211461D20FEF774FA1D20FEF722
:20CD800066FA11484168114A21F0A0611143416005B000BDB1F1804FFAD1C16941F00101C4
:20CDA000C161C069002200F00100049011461C20FEF758FA1C20FEF74AFAE9E7000400401E
:20CDC000001002400010014000000140000C00020168CA6842F00102CA600068016841F065
:20CDE00001010160002070470168CA6822F00102CA600068016A41F21112114207D1016A60
:20CE00009210114203D1016821F0010101600020704700002DE9F05F5B4E0446007EDFF8E8
:20CE20006CB1A6F10C054FF0000A06F1080706F1100805F10409012820D1EA7812B399F8FA
:20CE400003108A4217D12068406BF880F288801A4F4A80B25143B1FBF0F1A8F80600CBF8F7
:20CE60000C10311F204681F803A0002100F092F82046FFF7B9FFE878401CE870207E022839
:20CE800004D025E02068406BF080F4E7AA781AB399F802108A4218D12068806BB880B2880F
:20CEA000801A3B4A80B25143B1FBF0F1A8F80400CBF8081034492046091F81F802A0042136
:20CEC00000F068F82046FFF78FFFA878401CA870207E042804D025E02068806BB080F4E763
:20CEE0006878E8B399F80110884218D12068C06B78807288801A264A80B25143B1FBF0F160
:20CF0000A8F80200CBF804101F492046091F81F801A0082100F03EF82046FFF765FF687899
:20CF2000401C6870207E082823D1297839B399F8000081421AD12168096C39803288891A1B
:20CF4000134A89B2A8F800105043B0FBF1F1CBF800100D492046091F81F800A00C2100E08C
:20CF600009E000F017F82046FFF73EFF2878401C2870BDE8F09F2068C06B7080CFE7206887
:20CF8000006C3080F2E70000DC0E0020843C0020001BB70010B50268044631B1042908D080
:20CFA00008291ED00C2908D11FE0D06820F0020002E0D06820F00400D0600022206802F001
:20CFC00017FB2068016A41F21112114207D1016A9210114203D1016821F00101016000209A
:20CFE00010BDD06820F00800E6E7D06820F01000E2E770B50446006801694FF00005C94395
:20D00000890715D4C168C943890711D4E91E016101202076206880698007204602D0FFF7A7
:20D02000F9FE04E000F098F8204600F096F8257620680169C943490717D4C168C943490758
:20D0400013D46FF004010161022020762068806910F4407F204602D0FFF7DCFE04E000F05B
:20D060007BF8204600F079F8257620680169C943090716D4C168C943090712D46FF0080150
:20D080000161042020762068C0698007204602D0FFF7C0FE04E000F05FF8204600F05DF87A
:20D0A000257620680169C943C90617D4C168C943C90613D46FF0100101610820207620681A
:20D0C000C06910F4407F204602D0FFF7A3FE04E000F042F8204600F040F82576206801696C
:20D0E000C943C90708D1C168C943C90704D1891E0161204600F032F820680169C94309060B
:20D1000009D4C168C943090605D46FF0800101612046FFF7D0FD20680169C943490609D480
:20D12000C168C943490605D46FF040010161204600F032F820680169C94389060BD4C1687B
:20D14000C943890607D46FF0200101612046BDE87040FFF7B1BD70BD704770470B4A0168FF
:20D16000914209D10A4A0021116051609160D160084A11709170D1700068B0F1804F04D187
:20D1800004480C380168491C0160704700040040843C0020D80E0020704710B504460068C1
:20D1A000416921F0C0014161206B08B1FDF718FC606B08B1FDF714FC012084F83900002087
:20D1C00010BD704790F839007047000038B5044600680168C26811F0010F02F4807204D054
:20D1E0001AB1E16B41F00101E1630168C1F34002416901F0010122B119B1E26B42F0040283
:20D20000E2630268C2F3800222B119B1E26B42F00202E2630268C2F3C00222B119B1E16BF9
:20D2200041F00801E1630168C068C1F3401100F0200019B110B1204602F058FA20680168A4
:20D24000C068C1F3C01100F0800019B110B1204602F058FB21680868CA68C0F3801002F01B
:20D260004002012570B16AB1CA68204622F04002CA6094F83910322911D080F8395000BF23
:20D2800000F0B4F9E06B002808D0206801684068009084F839502046FFF793FF38BD222152
:20D2A00080F83910ECE770B5040004D094F83900002510B106E0012070BD84F83850204694
:20D2C00000F020F8022084F839002068C16821F40051C160204602F05DFA2068016921F481
:20D2E000904101612068416921F02A0141612068C16841F40051C160E563012084F8390075
:20D30000002070BD10B500681D4986B0884235D11C48816941F004018161816901F00401E1
:20D320000491C16941F40031C161C16901F400310491816941F0010181618069124C00F08B
:20D34000010004900420009002200190012002900320039069462046FDF710FE0820009099
:20D360000020019069462046FDF708FE2620FDF76EFF032211462620FDF774FF06B010BD9A
:20D380000044004000100240000801402DE9F047044690F8390099460D46012801D01228B0
:20D3A00058D12DB322B394F83800012852D0012684F838600027E76394F8390012281AD0EB
:20D3C0005FF0220084F83900A285E2854FF48058E08D4B46401EE085A0684FF000024045EF
:20D3E0004FF02001204616D102F0BFFAB0B904E00120BDE8F0873220E4E7206900282068F5
:20D40000406803D0C1B225F8011B12E0C0F3080125F8021B0DE002F0A8FA08B10320E8E7D1
:20D42000206900282068406801D000F07F0005F8010BE08D0028CBD194F83900322805D09D
:20D4400084F8396084F838700020D2E7122084F83900F7E70220CCE770B5044690F83900F0
:20D46000012801D0122832D169B362B394F8380001282CD0012084F83800A162A285002537
:20D48000E56394F8390012281FD0222084F83900636B10489862636B0F48D862636B0F48BB
:20D4A000186308461346666B216802463046091DFDF7B4FC2068416941F04001416184F8A6
:20D4C0003850002070BD012070BD3220DEE7022070BD000025F600085BF6000807F6000842
:20D4E00030B50068194988421ED119484FF000030246418812780C0423D54C0419D58C04B0
:20D5000013D5C1F30B04134D491C89B22A5541804478C1F30B02A24202D141F48051418025
:20D52000C1F30B01C7290AD830BD427041F4005103E0AA2A03D141F48041418030BD438042
:20D5400030BD552AFBD141F40041F6E700440040FC0E0020043D00207047000070B504460B
:20D5600090F83900012801D0222836D181B37AB394F83800012830D0012084F838002162F9
:20D58000A284E2840025E56394F83900222822D05FF0120084F83900236B11489862236B0C
:20D5A0001048D862236B1048186326681346321D206BFDF733FC21686FF04000086020687C
:20D5C000416941F08001416184F83850002070BDFFE70120FBE73220DCE70220F7E70000FE
:20D5E00065F6000893F6000807F600087047704718B5044609486A460321006805F08CFAA5
:20D600009DF8000020702E2060709DF80110A170E0709DF80200207118BD0000FC7F000840
:20D62000FEE7000010B500F0A9FF0024E0B200F083FC641C102CF9DB164C207830B900F020
:20D6400037FE207010B903F0CDFC2070FCF73CFA00224FF400411048FDF76EFD21780F4C76
:20D660004FF0000011B1FCF76BFA0120207004F0C7FA4FF0FF300A4B0A4A0146FCF7E2F8C0
:20D6800009490968814203D0BDE8104004F052BC10BD00006C1B0020001001407B0C0020CE
:20D6A000007B01000084000800FF01080A4810B50849016000218160C1604FF46022416107
:20D6C000C261416001210161FCF7BEFF002800D0FEE710BD002401401C3B00200D4808B5BA
:20D6E000416941F0010141614069002200F00100009011460C20FDF7B5FD0C20FDF7A7FD72
:20D70000002211460D20FDF7ADFDBDE808400D20FDF79DBD001002402DE9F04F754885B0C4
:20D72000816941F020018161816901F020010491816941F010018161816901F010010491AB
:20D74000816941F004018161816901F004010491816941F0080181618069002200F0080049
:20D7600004904FF4D8416448FDF7E6FCDFF88CA100224FF407415046FDF7DEFCDFF880B11A
:20D78000002240F282315846FDF7D6FC4FF400470124CDE900740225694650460395FDF74D
:20D7A000EDFB4FF44060CDE90004694603955248FDF7E4FB4FF4E060CDE9000469460395AC
:20D7C0005046FDF7DBFB4FF46070CDE90004694603955846FDF7D2FB4FF4C040CDE9000479
:20D7E000694603954448FDF7C9FBCDE90054694658460395FDF7C2FB002278215846FDF7B1
:20D800009BFC00224FF470713B48FDF795FCDFF8F490012204214846FDF78EFC4FF4805859
:20D82000012241463448FDF787FC7820CDE900040326694603965846FDF7A0FB0420CDE981
:20D840000004694603964846FDF798FB4FF49E50CDE90004694603962748FDF78FFB112016
:20D86000CDE9008069465846FDF788FB002241465846FDF761FC012239461F48FDF75CFCC1
:20D88000CDE9007469461C480395FDF777FB1027CDE90074694650460396FDF76FFB00268A
:20D8A0000095CDE9016469465046FDF767FBCDE90046694658460294FDF760FB2020CDE9F9
:20D8C0000006694602940C48FDF758FB44F60440CDE90006694602945846FDF74FFBCDE951
:20D8E0000074694604480395FDF748FB05B0BDE8F08F000000100240001001400008014025
:20D90000000C0140001401400E4810B50C4901604FF48271416000218160C1604FF40072E5
:20D920000161C0E905121822C0E90721416281620A21C162FEF7C0FC002800D0FEE710BD8B
:20D94000003001404C3B00200F4810B50D4901604FF4827141604FF4004181600021C1605E
:20D960004FF400720161C0E905122022C0E90721416281620A21C162FEF79EFC002800D062
:20D98000FEE710BD00380040A43B00201CB50C484FF08041002401603F21C0E9011440F264
:20D9A0006541C160FFF7B1F900B1FEE70094694603480194FFF781F9002800D0FEE71CBD21
:20D9C000383C002010B500220849094802F05CFA0849074802F041FC0749054802F096F8F6
:20D9E000BDE81040024802F085BC0000980E002080320020F40B0020880E0020FEE77047AC
:20DA00000907090E002806DA00F00F0000F1E02080F8141D704700F1E02080F80014704753
:20DA20002DE9FC5F4FF000080446ADF80480ADF8008048F60F7B4FF002094FF4806692E1E8
:20DA4000BDF8041011F00F072BD030F82710ADF80010BDF80010090478D530F8272040F613
:20DA60008F710A4020F8272004EB471595F8120205F502750028206869D0297830F82120AD
:20DA800052047DD5B0F8503009EBC101194406EB4101415AC1F309015FEA010A71D0EA8810
:20DAA000D0E0BDF80410C9062AD4018801EA0B010180206804F12805B0F850202B7809EBC6
:20DAC000C301114406EB4101405AC0F309006064E16B0844E06300212046FDF722FC94F8E0
:20DAE00024000028ABD0A8690028A8D194F82400216840F08000A1F84C0084F8248032E1AC
:20DB0000018804F50275ADF80010BDF8001009051ED5B0F850302978062202EBC101194494
:20DB200006EB4101405A04F57B71C0F30903EB61AA88206803F002F82068018840F68F7239
:20DB4000114001802046FDF7F8FD0CE1A0E055E0BDF800100904D2D5028840F68F710A407F
:20DB600002802068B0F850302978062202EBC101194406EB4101405A83059B0DEB6101E074
:20DB800051E063E008D0AA886969206802F0D6FFE96968690844686100212046FDF7C8FB70
:20DBA0002068B0F85010891D06EB4101014428693E280CD9C0F34F12C00601D1521E92B27B
:20DBC0004FF6FF7000EA822040F4004009E0C0F34F02C00701D0521C92B24FF6FF7000EABC
:20DBE00082200860216808884BF68F72104080F4405048F2800210430880B4E0B0F8502029
:20DC00002B78062101EBC301114406EB4101415AC1F309015FEA010A24D0AA8853466969C4
:20DC200002F08CFF1EE0B0F85020062303EBC101114406EB4101415AC1F309015FEA010A43
:20DC400004D02A895346696902F078FF2978206830F8213048F68F72134048F2C0021343E3
:20DC600020F82130E96901EB0A00E861696901EB0A026A61AB6913B12869504504D9297899
:20DC80002046FDF755FB03E029782046FDF7BEFBBDF80000000666D5206804EB471530F852
:20DCA000271001EA0B0120F8271095F8320028350028206812D0297830F82120B0F8503007
:20DCC00052061ED509EBC101194406EB4101405A83059B0DEB6124D0EA881EE0B0F8503011
:20DCE0002A7809EBC201194406EB4101405A83059B0DEB6121D0AA886969206802F035FF82
:20DD00001BE0062202EBC101194406EB4101405A83059B0DEB6104D02A896969206802F0B8
:20DD200024FF2978206830F8212048F68F731A404CF280031A4320F821202068B0F850207D
:20DD40002B7809EBC301114406EB4101405AC0F30900E86169690A186A612978AB69204667
:20DD600063B1FDF79EFB2068B0F84410ADF8041009043FF565AE0020BDE8FC9FFDF7D1FA52
:20DD8000F1E7FDF77FBD00000EB50A48C16941F08051C161C06900F080500290C02000902D
:20DDA0004FF0011001906846FDF7FAFCFDF736FD0EBD0000001002407047000030B50B4AB5
:20DDC0000020094C13780146082265186D7835B903FA01F52D0702D522FA01F52843491CA2
:20DDE000C9B20429F1D330BD6C1B00207E0C002070B5002404F004F916490020144B0978E0
:20DE000008221D186D7835B901FA00F52D0702D522FA00F52C43401CC0B20428F1D30E4841
:20DE2000008800EB001202EB40100C4A02EB8000B0F84400000507D58C4201D1002100E0EF
:20DE400001219620FAF7CAFDBDE8704004F00EBE6C1B00207E0C0020820C00202C0F0020C3
:20DE600070B504460D46164603F0C8F9002210210D48FDF761F903200C490870200C487006
:20DE8000200A8870CC700A2304220948FEF773FC0A23324629460648FEF7E6FA0122102191
:20DEA0000148FDF749F970BD00080140040E00204C3B00202DE9F04104460E4617461D46EF
:20DEC00003F09CF9002210211448FDF735F9032013490870200C4870200A8870CC700A2383
:20DEE00004221048FEF747FC45B901200E49087000200E4908700E49087007E001200C4963
:20DF0000087000200B490870074908703A4631460448FEF79FFBBDE8F081000000080140A4
:20DF2000040E00204C3B0020460E0020440E0020470E0020450E00202DE9F0478046002601
:20DF4000D0E04FF41C1101EB483106EB061201EB42404FF48072D149FFF782FFFF250024B7
:20DF60001BE0CE48015D04F18000CC4A105C814202D08821CA488155C848005DFF2804D0AD
:20DF8000FF2D02D08821C6488155C448005D10B1FF2D00D12546601C84B2802CE1DBFF2D1E
:20DFA00002D18821BE4881554FF00009002411E0BA48405D00F0010048B909F1010000F030
:20DFC000FF09B648405D4010B449485500E003E0601C84B2082CEBDB00BF2846E91705EB28
:20DFE00091718910A5EB8101490301EB89211FFA81FA4FF4241101EB484106EB061201EB1C
:20E00000424101EB0A004FF48062A449FFF728FF4FF4261101EB484106EB061201EB4241F1
:20E0200001EB0A004FF480629E49FFF719FF4FF6FF7700241FE09948015D04F58060974AF9
:20E04000105C814202D08821954881559348005DFF2806D04FF6FF70874202D0882190485E
:20E0600081558E48005D20B14FF6FF70874200D12746601C84B2B4F5806FDCDB4FF6FF7056
:20E08000874202D18821864881554FF00009002411E08248C05D00F0010048B909F1010066
:20E0A00000F0FF097D48C05D40107C49C85500E003E0601C84B2082CEBDB00BF2846E917B8
:20E0C00005EB91718910890401EBCA0101EBC701494408EB8802744B03EBC20242F82610D2
:20E0E000701CC6B2042EFFF62CAF0026D1E06F4901EB483106EB061201EB42404FF480727A
:20E100006649FFF7ADFEFF2500241BE06348015D04F18000614A105C814202D088216048F1
:20E1200081555E48005DFF2804D0FF2D02D088215B4881555948005D10B1FF2D00D12546C4
:20E14000601C84B2802CE1DBFF2D02D18821544881554FF00009002411E05048405D00F009
:20E16000010048B909F1010000F0FF094B48405D40104A49485500E003E0601C84B2082C51
:20E18000EBDB00BF2846E91705EB91718910A5EB8101490301EB89211FFA81FA4FF42811FD
:20E1A00001EB484106EB061201EB424101EB0A004FF480623949FFF753FE4FF42A1101EB24
:20E1C000484106EB061201EB424101EB0A004FF480623449FFF744FE4FF6FF7700241FE090
:20E1E0002E48015D04F580602C4A105C814202D088212B4881552948005DFF2806D04FF6F9
:20E20000FF70874202D08821254881552348005D20B14FF6FF70874200D12746601C84B202
:20E22000B4F5806FDCDB4FF6FF70874202D188211B4881554FF00009002411E01748C05D84
:20E2400000F0010048B909F1010000F0FF091348C05D40101149C85500E003E0601C84B225
:20E26000082CEBDB00BF2846E91705EB91718910890401EBCA0101EBC70101EB090208EB0A
:20E280008801094B03EBC101103141F82620701CC6B2042EFFF62BAFBDE8F0871C1E0020B6
:20E2A0006D1B00201C220020801B002000102700F0B58F48008800EB80008E4D55F830009F
:20E2C0008B4D2D8805EB85058A4E06EBC5056D682844874D2D8805EB850506EBC505AD6890
:20E2E0002844834D2D8805EB850506EBC505ED6844197F48008800EB001505EB40107E4DEC
:20E3000005EB8000807B0A287FD17948008800EB001505EB4010784D05EB8000B0F84C203E
:20E3200000237348008800EB001505EB4010724D05EB8000B0F84E000004821843F100033D
:20E340006B48008800EB001505EB40106A4D05EB8000B0F85000121C43416548008800EB51
:20E36000001505EB4010644D05EB8000B0F85200121C43EB00435E48008800EB001505EB70
:20E3800040105D4D05EB800090F964004FEAE0764FF00007A0FB045C06FB04C600FB076029
:20E3A000AA184341524D2D8805EB051606EB4515514E06EB8505A5F85C20100C40EA0340B1
:20E3C00085B24B48008800EB001606EB40104A4E06EB8000A0F85E504548008800EB001644
:20E3E00006EB4010444E06EB8000A0F860301D0C3F48008800EB001606EB40103E4E06EBBA
:20E400008000A0F8625071E0FFE73948008800EB001505EB4010384D05EB800090F84C10D9
:20E420003348008800EB001505EB4010324D05EB800090F84E0001EB00212D48008800EBDF
:20E44000001505EB40102C4D05EB800090F8500001EB00412648008800EB001505EB401043
:20E46000254D05EB800090F8520001EB00612048008800EB001505EB40101F4D05EB800087
:20E4800090F9640000FB0411C8B2194D2D8805EB051606EB4515184E06EB8505A5F85C00BA
:20E4A000C1F307251248008800EB001606EB4010114E06EB8000A0F85E50C1F307450C48EE
:20E4C000008800EB001606EB40100B4E06EB8000A0F86050080E064D2D8805EB051606EB46
:20E4E0004515054E06EB8505A5F862000020F0BD820C0020801B00202C0F00207CB50446E9
:20E500000D464B20019000200090002210211948FCF712FE4FF47A73012201A91648FEF7F5
:20E520002AF94FF47A73012269461348FEF723F94FF47A73012269460F48FEF71CF94FF4A4
:20E540007A73012269460C48FEF715F94FF47A73012269460848FEF70EF94FF47A732A46B7
:20E5600021460548FDF780FF012210210148FCF7E3FD7CBD00080140A43B002010B500249A
:20E5800018E004EB041202EB4412314B03EB8201220302F58030C422FFF762FC2D4A02EBE4
:20E5A0004401220302F58030C6300222FFF758FC601CC4B2102CE4DB022227490020FFF74F
:20E5C0004FFC25480088102802DB0020224908802148008800EB001101EB40101C4901EB59
:20E5E000800090F8BC00BB2810D01B48008800EB001101EB4010164901EB800090F8C0005E
:20E60000164908700846007815490870042215499002FFF725FC13480068401C28B900203A
:20E62000104908601049087011E00E4800680D490968C1F3074181EA10600A490988C1F363
:20E64000072148400749097848400749087010BD2C0F0020E40D0020820C00207D0C002059
:20E660007E0C0020580E0020490E002010B5002448E000202549098801EB8101244A02EBFA
:20E68000C10141F8240000212048008800EB800002EBC000103040F824101C4800884FF457
:20E6A0001C1202EB403004EB041200EB42410020FBF738FB15480088164A02EB403004EB86
:20E6C000041200EB42410020FBF72CFB0F4800884FF4241202EB404004EB041200EB424145
:20E6E0000120FBF71FFB094800884FF4281202EB404004EB041200EB42410120FBF712FB97
:20E70000601CC4B2042CB4DB10BD0000820C0020801B00200010270010B5406A0021C18604
:20E72000C187012180F85110416D41F008014165FDF7C1FD10BD10B5406AFEF71BF810BD45
:20E7400010B5406AFEF79DFA10BD38B50025ADF80050446A0068006880065FD42068416882
:20E7600021F0010141602068416821F002014160A06AB0F5005F37D10A2300220121204612
:20E7800000F0B1F818B1606D40F0100060652068C068ADF80000BDF8000001220A23114694
:20E7A000204600F0A0F818B1606D40F01000606520688068C043C00616D4204600F091F8CE
:20E7C00001280DD1606D40F0020060652068016821F4005101602068016841F400510160DE
:20E7E00021686FF0100088606068B0F5827F0BD1A068B0F5004F02D0B0F5806F04D1206830
:20E80000016821F040010160E587012084F85100606D18B12046FDF74EFD38BD2046FDF7F8
:20E8200089FF38BD38B50025ADF80050446A00680068800651D4A06AB0F5005F22D1012207
:20E840000A231146204600F04EF850B90A2300220121204600F047F818B1606D40F01000B3
:20E8600060652068C168ADF80010BDF800108168C943C90606D4616D41F0020161656FF0E3
:20E88000100181600A2300220221204600F02BF818B1606D40F0100060652068416821F0BE
:20E8A000020141600A2301228021204600F01BF818B1606D40F0100060652068416821F07D
:20E8C00001014160E586E587012084F85100606D18B12046FDF7EFFC38BD2046FEF7D0F9DC
:20E8E00038BD012070472DE9F0471D4690460E460446FCF727FC07465FEA08004FF000082C
:20E900004FF4005A4FF0010926D034E0681C23D025B1FCF717FCC01BA8421DD920684168C8
:20E9200021F0E00141602068016821F040010160A06A504509D12068016821F4005101606F
:20E940002068016841F40051016084F8519084F850800320BDE8F0872068806836EA000067
:20E96000D4D10DE0681C06D0002DD7D0FCF7EAFBC01BA842D2D82068806836EA0000F1D03F
:20E980000020E7E770B504460D46164602F036FC02F084FC002210210E48FCF7CDFB02204F
:20E9A0000D490870200C4870200A8870CC704FF47A7304220948FDF7DEFE4FF47A73324628
:20E9C00029460648FDF7D7FE012210210148FCF7B3FB70BD00080140040E00204C3B002024
:20E9E0007047000010B5002449E026480078A04000F00800002841D02348005D98B92348D3
:20EA0000008800EB8000224901EBC00050F82400401C1E49098801EB81011D4A02EBC101A8
:20EA200041F8240014E01948008800EB8000184901EBC000103050F82400401C134909882F
:20EA400001EB8101124A02EBC101103141F824000D48005D48B9E0B202F09AF80A48005D27
:20EA600060B101200B49087008E0E0B202F090F80548005D10B1012006490870641C042CA1
:20EA8000B3DB10BD7E0C00206D1B0020820C0020801B00207B0C00202DE9F047ADF5016D5C
:20EAA00006460F464FF00008002500207F49087030788DF80C0070788DF80D00B0788DF889
:20EAC0000E00F0788DF80F00802204A94FF44050FFF7C6F9002416E004A8005D10B104F07D
:20EAE000FF0812E07F2C0CD104A8005D48B94FF440510020FBF716F94FF400510020FBF7F0
:20EB000011F9601C84B2802CE6DB00BF002412E004A810F8080000F0010018B104EBC800CA
:20EB2000C5B20AE004A810F80800401004A901F80800601C84B2082CEADB00BF04225C4985
:20EB40009002FFF78DF9002451E0E11704EB91518912A4EB812139B904F500504FF480625D
:20EB60000DF58261FFF77CF99DF80C000DF58261095D884236D19DF80D100DF58262601C74
:20EB8000105C81422ED19DF80E10A01C105C814228D19DF80F10E01C105C814222D1104688
:20EBA000005D38701146601C085C7870A01C085CB870E01C085CF8700420C0EB8500A042EB
:20EBC0000CD13B4800683B490968884206D10120364908700DF5016DBDE8F0870220334995
:20EBE0000870F7E7002031490870201D84B2B4EB850FAADB2D480078F0BB2846E91705EB8C
:20EC00005171C910A5EBC10201219140C9B202919DF80800C043C0B202902846E91705EB03
:20EC20005171C910A5EBC102FF2191409DF8082001EA0209AA46E91705EB5171C91001F5D1
:20EC40004050012202A902F003FBE91705EB5171C91001F54050012201A9FFF701F99DF803
:20EC60000400814520D14FF4005101EB8500042203A902F0EDFA00E016E04FF4005101EBD3
:20EC8000850004223946FFF7EBF84FF480510020FBF748F804220749900202F0D9FA042218
:20ECA00004499002FFF7DCF8002093E7480E0020640E0020580E002070B5FE49B1F8141149
:20ECC00001EB011202EB4111FB4A02EB8100C421F9F743FC00240FE0F6481430005DF549FF
:20ECE000B1F8141101EB011202EB4111F24A02EB81010855601CC4B20E2CEDDBED4890F84F
:20ED00002200EC49B1F8141101EB011202EB4111E94A02EB81018873E64890F82300E549EC
